:100000000C9499320C94CA320C94CA320C94CA32B1
:100010000C94CA320C9446690C94CA320C94CA32BD
:100020000C94CB680C94CA320C94CA320C94FFCB5B
:100030000C94CA320D94A0BD0C94CA320C94CA32EE
:100040000C94CA320D94621C0C94CA320C94CA32BD
:100050000C94CA320C94CA320D9400330D94C7B577
:100060000C94CA320C943C3F0C94CA320C94CA32A1
:100070000C94CA320C94CA320C94CA320C94CA3210
:100080000C94CA320C94CA320C94CA320C94CA3200
:100090000C94803F0C94CA320C94CA320C94CA322D
:1000A0000C94CA320C94CA320C94CA320C94CA32E0
:1000B0000C94CA320C94CA320C94CA320C94CA32D0
:1000C0000C94CA320C94CA320C94CA320C94CA32C0
:1000D0000C94CA320C94CA320C94CA320C94CA32B0
:1000E0000C94CA322B3E2F3E343E3C3E513E6A3E7B
:1000F0008F3EB93E6C014801EE01C201C001800192
:10010000E6018A01C601A60160014001580184018F
:10011000D601CC01F40164014A01E001EC013E0189
:100120003601D201DA012C012C012C01AE01AE0105
:10013000AE01C401F601AE019A01700186016601AB
:10014000BC019801D40134017201880144015E01AF
:1001500050016E017A01D40154015A01E201AA0151
:100160005201D8012A0132015601BA014E0146015D
:100170008C018201B6017601AC015601B2013C014D
:10018000EA01084AD73B3BCE016E84BCBFFDC12FBC
:100190003D6C74319ABD56833DDA3D00C77F11BE78
:1001A000D9E4BB4C3E916BAAAABE000000803F057B
:1001B000A84CCDB2D44EB93836A9020C50B99186AC
:1001C00088083CA6AAAA2ABE000000803F07634216
:1001D00036B79BD8A71A39685618AEBAAB558C1DDE
:1001E0003CB7CC5763BD6DEDFD753EF6177231BF60
:1001F000000000803F08000000BE922449123EAB80
:10020000AAAA2ABECDCCCC4C3E00000080BEABAA30
:10021000AAAA3E00000000BF000000803F000000CE
:100220000000084178D3BB4387D1133D190E3CC36E
:10023000BD4282AD2B3E68EC8276BED98FE1A93EED
:100240004C80EFFFBE01C4FF7F3F000000000000B4
:100250000D940E9A0D94B7B70D949F720D942E4C79
:100260000D9492B80D94BDB70D9430B70D9465728E
:100270000D94AD420D94EFAB0D94F2B70D94427214
:100280000D9485700D945B960D944AB70D94D2B77A
:100290000D9454600D94F1710D946A880D94CCB74F
:1002A0000D945EB70D94C4B70D9481B70D94FBB750
:1002B0000D949D700D948BB70D9407860D9454B7D3
:1002C0000D9418610D9445A10D9429710D9412B7E8
:1002D0000D942D4B0D94E43F0D943F600D946DB73C
:1002E0000D9408B70D9438B70D94CC5F0D94E4B716
:1002F0000D947C8F0D9477B70D947B3D0D948F6793
:100300000D949D600D94DAB70D94B4700D940DB7F3
:100310000D9440B70D94C1600D94D6B70D94B3649D
:100320000D9454410D940C880D946D5D0D94B15C49
:100330000D9426B70D94B1720D94DD3E0D94237F7C
:100340000D9454510D94A85C0D9429540D94F060B3
:100350000D94C35C0D94C1B70D94E8B70D94C572AC
:100360000D947A4C0D94EEB70D949B4B0D94E0B721
:100370000D943C5B0D94C8B70D941CB70D94984236
:100380000D9498600D9473600D94A7720D94D660CF
:100390000D94B5910D9461410D94DE700D94BA5C8D
:1003A0000D9423870D948F720D949FB70D94CA708E
:1003B0000D94B3B70D9497720D94A7420D94BC445D
:1003C0000D9414720D9495B70D94995E0D94A760D9
:1003D0000D94A1590D94F6B70D9425720D945960A2
:1003E0000D94004C0D943BA70D940C710D94D57297
:1003F00048617264636F6465642044656661756C0E
:10040000742053657474696E6773204C6F61646502
:10041000640053746F7265642073657474696E67E9
:1004200073207265747269657665640046696C61F3
:100430006D656E742073657474696E67733A2044D9
:10044000697361626C6564002020204D3230302079
:10045000440046696C616D656E74207365747469DF
:100460006E67733A002020204D323039205300410E
:1004700075746F2D526574726163743A20533D3008
:1004800020746F2064697361626C652C2031207464
:100490006F20696E7465727072657420657874720D
:1004A0007564652D6F6E6C79206D6F766573206154
:1004B00073207265747261637473206F7220726549
:1004C000636F766572696573002046002020204DB9
:1004D0003230382053005265636F7665723A20538C
:1004E0003D4578747261206C656E67746820286D74
:1004F0006D2920463A537065656420286D6D2F6D17
:100500002900205A002046002020204D323037207C
:100510005300526574726163743A20533D4C656EAA
:1005200067746820286D6D2920463A5370656564AC
:1005300020286D6D2F6D29205A3A205A4C69667417
:1005400020286D6D29002044002049002020204DE6
:10055000333034205000504944206865617462652E
:10056000642073657474696E67733A0020440020D8
:1005700049002020204D3330312050005049442084
:1005800073657474696E67733A00205A00205900CD
:1005900020204D323036205800486F6D65206F6640
:1005A0006673657420286D6D293A00204500205A35
:1005B0000020590020580020420020540020204DE7
:1005C000323035205300416476616E636564207675
:1005D00061726961626C65733A20533D4D696E20AA
:1005E000666565647261746520286D6D2F73292CB2
:1005F00020543D4D696E2074726176656C2066658D
:1006000065647261746520286D6D2F73292C2042FA
:100610003D6D696E696D756D207365676D656E748E
:100620002074696D6520286D73292C20583D6D61FB
:1006300078696D756D205859206A65726B20286D38
:100640006D2F73292C20205A3D6D6178696D756D71
:10065000205A206A65726B20286D6D2F73292C201B
:1006600020453D6D6178696D756D2045206A657224
:100670006B20286D6D2F73290020540020204D32EF
:100680003034205300416363656C65726174696F37
:100690006E3A20533D616363656C65726174696F86
:1006A0006E2C20543D7265747261637420616363C3
:1006B000656C65726174696F6E00204500205A0098
:1006C00020590020204D3230312058004D6178698A
:1006D0006D756D20416363656C65726174696F6EE1
:1006E00020286D6D2F7332293A00204500205A00D2
:1006F00020590020204D3230332058004D61786958
:100700006D756D2066656564726174657320286D12
:100710006D2F73293A00204500205A0020590020EF
:10072000204D393220580053746570732070657203
:1007300020756E69743A0053657474696E6773202E
:1007400053746F72656400454550524F4D20457299
:10075000726F720029002C20002C200070687973C1
:100760006963616C20636F6F7264696E6174657335
:100770003A20280029002C20002C2000776F726C72
:100780006420636F6F7264696E617465733A2028C8
:10079000006F6B0A002046002045004731205A00B8
:1007A0004D3234004D32362053256C75004D3130BA
:1007B000362053004D38320047312046256400472B
:1007C000312045322A312046343830004731205A12
:1007D0000020463230303000205900473120580088
:1007E0004D383300506F736974696F6E20726561A4
:1007F000642066726F6D20656570726F6D3A004D92
:100800003233202573002E67636F0046656564727E
:100810006174653A007265636F7665725F6D6163DE
:1008200068696E655F73746174655F616674657233
:100830005F706F7765725F70616E69632C20696E9F
:10084000697469616C20007265636F7665725F6DB3
:10085000616368696E655F73746174655F61667416
:1008600065725F706F7765725F70616E69632C206F
:10087000696E697469616C200047393220450063F4
:10088000757272656E745F706F736974696F6E5B99
:10089000455F415849535D3A0063757272656E74E5
:1008A0005F706F736974696F6E5B5A5F415849532B
:1008B0005D3A0043757272656E7420706F7369746F
:1008C000696F6E20595F415849533A0043757272FF
:1008D000656E7420706F736974696F6E20585F4124
:1008E0005849533A004166746572207761697469AA
:1008F0006E6720666F722074656D703A0047312014
:10090000452D3120463438300047312045352046CA
:10091000313230004D3833004D31393020532564A9
:10092000004D31303920532564004732382058209B
:1009300059004731205A32352046383030004D3189
:10094000343020532564004D313034205325640069
:10095000494E54340055564C4F202D20656E64008E
:10096000737470730020423A0020453A00543A00F4
:100970005A206C6976652061646A757374206F759E
:1009800074206F662072616E67652E2053657474E3
:10099000696E6720746F20302E20436C69636B2072
:1009A000746F20636F6E74696E75652E005A206CCB
:1009B0006976652061646A757374206F7574206F41
:1009C000662072616E67652E2053657474696E6768
:1009D00020746F20300020573A0020453A00543AE6
:1009E000004B494C4C3A20004D3730310022283220
:1009F00029005400496E76616C6964205420636F4D
:100A000064652E00556E6B6E6F776E204D20636FA0
:100A100064653A202573200A004D32323020532578
:100A20006900203A2000004C414E472053454C209D
:100A3000464F5243454400222831290020453A00C0
:100A4000205A3A0020593A0020453A00205A3A00EC
:100A500020593A00583A004D3131332053002000DC
:100A60002E0020423A0020453A00543A0020413AF4
:100A70000020503A002042403A0020403A00202F07
:100A8000003A00205400202F0020423A00202F007E
:100A90006F6B20543A002569206D696E2C20256902
:100AA0002073656300496E76616C6964204D206334
:100AB0006F64653A202573200A00556E6B6E6F7760
:100AC0006E204720636F64653A202573200A004D2D
:100AD00065736820626564206C6576656C696E6715
:100AE000206E6F74206163746976652E000A0020A1
:100AF00020000A4D6561737572656420706F696EC0
:100B000074733A000A5A20736561726368206865DD
:100B1000696768743A20002C004E756D20582C5976
:100B20003A2000206D6963726F6E730045786365CB
:100B3000737369766520626564206C6576656C699F
:100B40006E6720636F7272656374696F6E3A20001E
:100B5000473238205730003A200054656D70657276
:100B600061747572652063616C6962726174696F2A
:100B70006E20646F6E652E20436F6E74696E7565AE
:100B80002077697468207072657373696E6720746A
:100B90006865206B6E6F622E0000205A20736869B2
:100BA000667420286D6D293A0050494E44412074E6
:100BB000656D70657261747572653A2000002F363C
:100BC00000537465703A200000205A2073686966EB
:100BD0007420286D6D293A0050494E4441207465B7
:100BE0006D70657261747572653A20002F36202829
:100BF000736B69707065642900537465703A2000E6
:100C0000005A45524F3A2000007374617274207488
:100C1000656D70657261747572653A200050494E59
:100C200044412070726F62652063616C6962726119
:100C300074696F6E20737461727400473238205784
:100C400030000A00205A3A200020593A200020584B
:100C50003A200043616C6962726174696F6E20664C
:100C600061696C65642120436865636B2074686505
:100C7000206178657320616E642072756E206167F3
:100C800061696E2E0043524153485F4445544543C9
:100C900054454458590043524153485F44455445D4
:100CA00043544544590043524153485F44455445D9
:100CB0004354454458004D323900627573793A20E7
:100CC00070617573656420666F7220696E707574EB
:100CD00000627573793A2070617573656420666F80
:100CE00072207573657200627573793A2070726F45
:100CF00063657373696E67002055706C6F61642063
:100D0000696E2070726F6772657373004449534156
:100D1000424C45440A00454E41424C45440A004677
:100D200053656E736F722000504154393132355F14
:100D3000696E69743A25640A004665622020312094
:100D40003230313800436F6D70696C65643A200051
:100D5000286E6F6E652C2064656661756C74206307
:100D60006F6E666967290046656220203120323047
:100D700031382032303A30313A34360020332E3197
:100D80002E312D5243352D3135310A007374617285
:100D90007400466163746F72792052455345540064
:100DA0001B5B324A1B5B313B31484F726967696E8E
:100DB000616C2050727573612069331B5B323B3369
:100DC0004850727573612052657365617263680083
:100DD000250020202020202000202020202020006E
:100DE00045524153494E4720616C6C2064617461E7
:100DF00000466163746F7279205245534554004335
:100E0000524153485F5245434F564552004732388E
:100E10002058205900FFFFFF0000A0400000A04024
:100E20000000004000007F43000056439AD9514320
:100E300000000000000080C09A99193E00007F4326
:100E4000000052430000524300000000000080C038
:100E50009A99193E6563686F3A004572726F723AEB
:100E60000000002110422063308440A550C660E796
:100E700070088129914AA16BB18CC1ADD1CEE1EF4F
:100E8000F13112100273325222B5529442F772D6E7
:100E900062399318837BB35AA3BDD39CC3FFF3DE9F
:100EA000E36224433420040114E664C774A4448537
:100EB000546AA54BB528850995EEE5CFF5ACC58DEF
:100EC000D55336722611163006D776F6669556B487
:100ED000465BB77AA719973887DFF7FEE79DD7BC3F
:100EE000C7C448E5588668A77840086118022823D7
:100EF00038CCC9EDD98EE9AFF9488969990AA92B8F
:100F0000B9F55AD44AB77A966A711A500A333A1226
:100F10002AFDDBDCCBBFFB9EEB799B588B3BBB1ADE
:100F2000ABA66C877CE44CC55C222C033C600C4176
:100F30001CAEED8FFDECCDCDDD2AAD0BBD688D492E
:100F40009D977EB66ED55EF44E133E322E511E70C6
:100F50000E9FFFBEEFDDDFFCCF1BBF3AAF599F787E
:100F60008F8891A981CAB1EBA10CD12DC14EF16F2F
:100F7000E18010A100C230E3200450254046706794
:100F800060B9839893FBA3DAB33DC31CD37FE35EC0
:100F9000F3B1029012F322D23235421452776256E4
:100FA00072EAB5CBA5A89589856EF54FE52CD50DD0
:100FB000C5E234C324A01481046674476424540534
:100FC00044DBA7FAB79987B8975FE77EF71DC73C60
:100FD000D7D326F2369106B0165766767615463484
:100FE000564CD96DC90EF92FE9C899E9898AB9AB70
:100FF000A94458654806782768C018E1088238A3D4
:10100000287DCB5CDB3FEB1EFBF98BD89BBBAB9AFF
:10101000BB754A545A376A167AF10AD01AB32A9223
:101020003A2EFD0FED6CDD4DCDAABD8BADE89DC90F
:101030008D267C076C645C454CA23C832CE01CC173
:101040000C1FEF3EFF5DCF7CDF9BAFBABFD98FF89F
:101050009F176E367E554E745E932EB23ED10EF0C3
:101060001E7C3C3E5E2B3D3F2F5B5D3B2C2A225C71
:10107000004D3234004D3233202573006175746F9A
:1010800025692E67000A002F000A002E0044656CB7
:101090006574696F6E206661696C65642C204669B1
:1010A0006C653A200046696C652064656C65746502
:1010B000643A002E002E002E002E004E6F77206620
:1010C000726573682066696C653A20004E6F772000
:1010D000646F696E672066696C653A200022207033
:1010E0006F73002220706172656E743A220053554E
:1010F00042524F5554494E452043414C4C20746157
:10110000726765743A2200747279696E6720746F31
:101110002063616C6C207375622D67636F6465205A
:1011200066696C6573207769746820746F6F206DD1
:10113000616E79206C6576656C732E204D41582068
:101140006C6576656C2069733A00256920686F7557
:101150007273202569206D696E757465730054493A
:101160004D454F55543A004D3131300046756C6C49
:1011700020525820427566666572002220666169B9
:101180006C65643A204275666665722066756C6CA3
:101190002100456E717565696E6720746F207468F3
:1011A000652066726F6E743A2022002200456E71CF
:1011B0007565696E6720746F207468652066726F4C
:1011C0006E743A20220022206661696C65643A20C0
:1011D0004275666665722066756C6C210022004D52
:1011E000363030004731204533204632303000471A
:1011F0003120452D332046323030005072757361F6
:10120000206933204D4B33206F6B00507275736132
:10121000206933204D4B332072656164792E007A4A
:101220005F6D696E3A20007A5F6D61783A20005AEE
:10123000204F666673657400795F6D696E3A2000B1
:10124000795F6D61783A20005920767A64616C6527
:101250006E6F7374206F64206D696E3A005920645C
:10126000697374616E63652066726F6D206D696E5F
:101270003A00416E6F0059657300785F6D696E3A90
:101280002000785F6D61783A200044657461696C74
:10129000792058595A206B616C2E0058595A206396
:1012A000616C2E2064657461696C73004E796E699F
:1012B0002070726F76656475207A206B616C69624C
:1012C000726163692E00492077696C6C2072756EBB
:1012D000207A2063616C6962726174696F6E206E3E
:1012E0006F772E004E796E692070726F7665647527
:1012F0002078797A206B616C6962726163692E2053
:101300005A616265726520746F20707269626C69DF
:101310007A6E65203132206D696E2E004920776922
:101320006C6C2072756E2078797A2063616C6962CA
:10133000726174696F6E206E6F772E20497420770A
:10134000696C6C2074616B6520617070726F782EAF
:10135000203132206D696E732E004E796E692070D7
:10136000726564656872656A6920747279736B75F9
:101370002070726F20504C412E004E6F7720492014
:1013800077696C6C2070726568656174206E6F7A25
:101390007A6C6520666F7220504C412E00446F625B
:1013A00072792064656E2C206A73656D2076617396
:1013B00065207469736B61726E61204F7269676931
:1013C0006E616C2050727573612069332E20436802
:1013D000636574652061627963682056617320706B
:1013E000726F7665646C61206B616C6962726163B7
:1013F0006E696D2070726F636573656D3F0048693B
:101400002C204920616D20796F7572204F726967B9
:10141000696E616C2050727573612069332070723F
:10142000696E7465722E20576F756C6420796F75C4
:10143000206C696B65206D6520746F206775696429
:101440006520796F75207468726F7567682074689D
:10145000652073657475702070726F636573733F78
:10146000005A61636E75207469736B6E6F757420BA
:101470006C696E6B752061205679206275646574A5
:101480006520706F737475706E6520736E697A6F06
:1014900076617420747279736B75206F7461636503
:1014A0006E696D20746C616369746B6120646F6B2D
:1014B0007564206E65646F7361686E657465206F16
:1014C0007074696D616C6E69207679736B792E200A
:1014D00050726F686C65646E657465207369206F07
:1014E0006272617A6B792076206E61736920707206
:1014F0006972756363652076206B617069746F6CC7
:1015000065204B616C69627261636500492077698F
:101510006C6C20737461727420746F207072696EC9
:1015200074206C696E6520616E6420796F75207718
:10153000696C6C206772616475616C6C79206C6F8A
:1015400077657220746865206E6F7A7A6C652062A8
:101550007920726F746174696E6720746865206B9E
:101560006E6F622C20756E74696C20796F752072B5
:1015700065616368206F7074696D616C206865696E
:101580006768742E20436865636B207468652070FB
:101590006963747572657320696E206F7572206857
:1015A000616E64626F6F6B20696E20636861707436
:1015B00065722043616C6962726174696F6E2E009E
:1015C0004E796E69207A6B616C696272756A692006
:1015D000767A64616C656E6F7374206D657A6920CC
:1015E0006B6F6E63656D20747279736B7920612007
:1015F000706F76726368656D20686561746265649A
:10160000752E004E6F7720492077696C6C206361DE
:101610006C6962726174652064697374616E63657C
:10162000206265747765656E20746970206F66202E
:10163000746865206E6F7A7A6C6520616E642068CC
:1016400065617462656420737572666163652E00FE
:101650004E656A6472697620706F6D6F636920737E
:10166000656C667465737475207A6B6F6E746F6CDD
:10167000756A69206E656A63617374656A7369204F
:10168000636879627920767A6E696B616A696369E9
:101690002070726920736573746176656E69207459
:1016A00069736B61726E792E0046697273742C20B7
:1016B000492077696C6C2072756E207468652073A0
:1016C000656C667465737420746F20636865636B02
:1016D000206D6F737420636F6D6D6F6E2061737317
:1016E000656D626C792070726F626C656D732E002F
:1016F0005370757374656E692057697A617264619D
:101700002076796D617A6520756C6F7A656E6520DB
:101710007679736C65646B79207673656368206B8A
:10172000616C6962726163692061207370757374A2
:1017300069206B616C69627261636E692070726F9F
:10174000636573206F64207A616361746B752E200A
:10175000506F6B7261636F7661743F0052756E6E8D
:10176000696E672057697A6172642077696C6C20B2
:1017700064656C6574652063757272656E74206350
:10178000616C6962726174696F6E20726573756CE9
:10179000747320616E642073746172742066726F5A
:1017A0006D2074686520626567696E6E696E672E6C
:1017B00020436F6E74696E75653F0043686365749E
:1017C00065206F70616B6F76617420706F736C65EC
:1017D000646E69206B726F6B206120706F7A6D652B
:1017E0006E697420767A64616C656E6F7374206DB7
:1017F000657A6920747279736B6F752061206865F2
:1018000061746265643F00446F20796F7520776171
:101810006E7420746F20726570656174206C6173E2
:1018200074207374657020746F20726561646A75CA
:1018300073742064697374616E6365206265747784
:1018400065656E206E6F7A7A6C6520616E642068C3
:101850006561746265643F0057697A6172646120F2
:101860006D757A657465206B64796B6F6C69762031
:101870007A6E6F76752073707573746974207A2030
:101880006D656E752043616C6962726174696F6E1B
:10189000202D3E2057697A61726400596F7520636C
:1018A000616E20616C7761797320726573756D6507
:1018B000207468652057697A6172642066726F6D62
:1018C0002043616C6962726174696F6E202D3E20E5
:1018D00057697A6172642E004A6520746F20504CFB
:1018E000412066696C616D656E743F0049732069C3
:1018F0007420504C412066696C616D656E743F00C8
:1019000050726F73696D20766C6F7A746520504CDD
:10191000412066696C616D656E7420646F20657826
:10192000747275646572752C20706F2074652073F5
:101930007469736B6E65746520746C616369746B34
:101940006F2070726F207A61766564656E692066BB
:10195000696C616D656E74752E00506C65617365A0
:1019600020696E7365727420504C412066696C6109
:101970006D656E7420746F2074686520657874726C
:10198000756465722C207468656E2070726573735F
:10199000206B6E6F6220746F206C6F6164206974BD
:1019A0002E0050726F73696D207A6176656474657C
:1019B00020504C412066696C616D656E7420612019
:1019C000706F207465206F626E6F76746520576942
:1019D0007A6172646120737469736B6E7574696D7A
:1019E00020726573657420746C616369746B612E19
:1019F00000506C65617365206C6F616420504C41D0
:101A00002066696C616D656E7420616E6420746817
:101A1000656E20726573756D652057697A617264B1
:101A2000206279207265626F6F74696E67207468D6
:101A300065207072696E7465722E005072656465FF
:101A400068726976616D20747279736B752E20509F
:101A5000726F73696D2063656B656A74652E0050E3
:101A6000726568656174696E67206E6F7A7A6C65FD
:101A70002E20506C6561736520776169742E004A71
:101A8000652066696C616D656E74207A6176656447
:101A9000656E3F0049732066696C616D656E7420E8
:101AA0006C6F616465643F00567365206A652068E9
:101AB0006F746F766F2E00416C6C20697320646FB9
:101AC0006E652E204861707079207072696E74693D
:101AD0006E67210050726F73696D206F6369737454
:101AE0006574652068656174626564206120737443
:101AF00069736B6E65746520746C616369746B6F78
:101B00002E00506C6561736520636C65616E2068A2
:101B100065617462656420616E64207468656E201E
:101B2000707265737320746865206B6E6F622E002F
:101B300050726F73696D206E61686C65646E657458
:101B40006520646F206D616E75616C752061206F1A
:101B50007072617674652070726F626C656D2E2094
:101B6000506F207465206F626E6F767465205769C0
:101B70007A61726461207265626F6F746F76616EF4
:101B8000696D207469736B61726E792E00506C659B
:101B900061736520636865636B206F75722068618F
:101BA0006E64626F6F6B20616E642066697820746A
:101BB00068652070726F626C656D2E205468656E6A
:101BC00020726573756D65207468652057697A6148
:101BD0007264206279207265626F6F74696E67202B
:101BE000746865207072696E7465722E0057697A28
:101BF00061726400205761746368646F6720526586
:101C000073657400496E666F726D61636500496E3D
:101C1000666F2073637265656E0043656B616E6904
:101C2000206E61207A63686C61646E7574692074DB
:101C30007279736B79206120706F646C6F7A6B7945
:101C40002E0057616974696E6720666F72206E6F2F
:101C50007A7A6C6520616E642062656420636F6FC0
:101C60006C696E67004B616C2E207072766E692015
:101C7000767273747679004669727374206C617938
:101C800065722063616C2E005761697420666F7203
:101C900020757365722E2E2E00506F757A697465EB
:101CA00020626568656D207469736B750055736596
:101CB0006420647572696E67207072696E74004288
:101CC000796C6F20767973756E7574692066696CAE
:101CD000616D656E74752075737065736E653F0018
:101CE0005761732066696C616D656E7420756E6CEA
:101CF0006F6164207375636365737366756C3F0011
:101D000056796A6D6F75742066696C616D656E7465
:101D100000556E6C6F61642066696C616D656E74F0
:101D2000005679736F7576616D2066696C616D65BB
:101D30006E7400556E6C6F6164696E672066696CC5
:101D4000616D656E7400556E6B6E6F776E20636F9C
:101D50006D6D616E643A2022004C616469740054B8
:101D6000756E650053442063617264205B466C733A
:101D7000684169725D005344206361726420205B96
:101D80006E6F726D616C5D00537461626C65206191
:101D90006D6269656E742074656D706572617475CD
:101DA00072652032312D323643206973206E6565AD
:101DB0006465642061207269676964207374616E70
:101DC000642069732072657175697265642E0054B0
:101DD00065706C2E206B616C2E20205B7A61705DCB
:101DE0000054656D702E2063616C2E2020205B6F87
:101DF0006E5D005465706C2E206B616C2E20205B34
:101E00007679705D0054656D702E2063616C2E20B4
:101E1000205B6F66665D005465706C6F746E692040
:101E20006B616C69627261636520646F6B6F6E6376
:101E3000656E612E20506F6B726163756A746520E8
:101E4000737469736B656D20746C616369746B6125
:101E50002E0054656D7065726174757265206361E2
:101E60006C6962726174696F6E2069732066696E55
:101E700069736865642E20436C69636B20746F20FE
:101E8000636F6E74696E75652E005465706C2E20DC
:101E90006B616C2E20202020202020202020005448
:101EA000656D702E2063616C2E2020202020202064
:101EB000202020005465706C6F74610054656D7053
:101EC0006572617475726500506F64706F72610045
:101ED000537570706F7274005A61737461766974AF
:101EE000207469736B0053746F70207072696E7424
:101EF0000053544F505045442E2000537465707267
:101F000061746520746F6F20686967683A20004AC1
:101F100065207469736B6F767920706C6174206EC4
:101F20006120686561746265643F00497320737461
:101F300065656C207368656574206F6E20686561E7
:101F4000746265643F0043656C6B6F7679206361F2
:101F500073203A00546F74616C207072696E742043
:101F600074696D65203A0046696C616D656E742018
:101F700063656C6B656D203A00546F74616C20660C
:101F8000696C616D656E74203A00436173207469F9
:101F9000736B75203A2020005072696E742074694A
:101FA0006D653A20200046696C616D656E74203A5B
:101FB00020200046696C616D656E742075736564E0
:101FC0003A20200053746174697374696B61202036
:101FD00000537461746973746963732020004368EB
:101FE000796261202D20446F736C6F206B207072BA
:101FF0006570697375207374617469636B652070B3
:10200000616D65746921004572726F72202D2073B5
:102010007461746963206D656D6F72792068617396
:10202000206265656E206F7665727772697474657B
:102030006E00527963686C6F7374005370656564E9
:102040000054726964656E6920202020205B436122
:10205000735D00536F72743A2020202020205B545F
:10206000696D655D0054726964656E692020205B4E
:102070005A61646E655D00536F72743A20202020AF
:1020800020205B4E6F6E655D0054726964656E69F9
:10209000205B416265636564615D00536F72743AF1
:1020A00020205B416C7068616265745D00547269E8
:1020B00064656E6920736F75626F727500536F721D
:1020C00074696E672066696C65730020536F66746F
:1020D00077617265205265736574004C65686B6545
:1020E000207A6B6F73656E693A00536C6967687428
:1020F00020736B65773A004D6F6420202020205BB1
:10210000537465616C74685D004D6F6465202020B8
:10211000205B537465616C74685D004D6F642020B2
:10212000202020205B4E6F726D616C5D004D6F64EE
:102130006520202020205B4E6F726D616C5D005326
:10214000746176206B6F6E632E207370696E2E0043
:1021500053686F7720656E642073746F70730054DA
:10216000657A6B65207A6B6F73656E693A005365AB
:102170007665726520736B65773A004E61737461A2
:10218000767465207465706C6F74753A005365746D
:102190002074656D70657261747572653A004E6188
:1021A00073746176656E690053657474696E6773E4
:1021B000004368796261207A61706F6A656E6900B8
:1021C000576972696E67206572726F720050726F24
:1021D000686F7A656E65005377617070656400534F
:1021E000656C66207465737420737461727420204A
:1021F000005469736B6F76792076656E742E3A00A1
:102200005072696E742066616E3A005A6B6F6E741C
:10221000726F6C756A7465203A00506C6561736505
:1022200020636865636B203A0053656C66207465B3
:102230007374204F4B004E657A61706F6A656E6FE4
:1022400020202020004E6F7420636F6E6E656374D3
:102250006564004D6F746F72004865617465722F1C
:10226000546865726D6973746F720053656E7A6F2E
:10227000722066696C616D656E74753A0046696CB2
:10228000616D656E742073656E736F723A00546F82
:102290006369207365005370696E6E696E67004EE6
:1022A00065746F6369207365004E6F742073706985
:1022B0006E6E696E6700507265646E692F6C65762C
:1022C000792076656E742E0046726F6E742F6C6581
:1022D00066742066616E7300546573742076656E53
:1022E00074696C61746F72750046616E20746573F9
:1022F000740053656C66746573742073656C6861F3
:102300006C20200053656C66746573742066616987
:102310006C65642020004C6576792076656E742E9D
:102320003A0045787472756465722066616E3A0091
:102330004C6576792076656E74206E6120747279B2
:102340007363653F004C65667420686F74656E64E6
:102350002066616E3F0053656C667465737420651A
:1023600072726F72202100456E6473746F70206EFC
:102370006F742068697400456E6473746F707300C5
:10238000456E6473746F7000507265646E6920747A
:1023900069736B6F76792076656E743F0046726F55
:1023A0006E74207072696E742066616E3F004B6FB0
:1023B0006E74726F6C61205A2061786973202000FE
:1023C000436865636B696E67205A20617869732082
:1023D00020004B6F6E74726F6C61205920617869B8
:1023E00073202000436865636B696E672059206124
:1023F0007869732020004B6F6E74726F6C61205887
:102400002061786973202000436865636B696E679B
:10241000205820617869732020004B6F6E74726FB2
:102420006C6120686F74656E64202000436865638A
:102430006B696E6720686F74656E642020004B6F57
:102440006E74726F6C612073656E7A6F7275004383
:102450006865636B696E672073656E736F72732056
:10246000004B6F6E74726F6C6120656E6473746F75
:10247000707300436865636B696E6720656E647393
:10248000746F7073004B6F6E74726F6C6120626555
:1024900064202020202000436865636B696E6720FC
:1024A000626564202020202000567365204F4B2059
:1024B0002020202020202020202000416C6C206340
:1024C0006F727265637420202020202000426564B2
:1024D000202F204865617465720044656C6B612033
:1024E0006F73790041786973206C656E677468005A
:1024F0004F736100417869730053656C667465734E
:10250000742020202020202020200052506920709C
:102510006F7274202020205B7A61705D00525069D8
:1025200020706F727420202020205B6F6E5D00523F
:10253000506920706F7274202020205B7679705D66
:102540000052506920706F7274202020205B6F66EB
:10255000665D0057726974696E6720746F206669E2
:102560006C653A2000766F6C756D652E696E6974C6
:10257000206661696C6564002053697A653A2000C1
:102580004B617274612076796A6D75746100436184
:1025900072642072656D6F766564005344207072BA
:1025A000696E74696E67206279746520006F70656A
:1025B0006E206661696C65642C2046696C653A2002
:1025C000006F70656E526F6F74206661696C656430
:1025D000004B6172746120766C6F7A656E610043A6
:1025E00061726420696E736572746564005344207F
:1025F000696E6974206661696C0046696C65207358
:10260000656C65637465640046696C65206F706510
:102610006E65643A20006572726F72207772697419
:10262000696E6720746F2066696C6500534420638F
:10263000617264206F6B0043616E6E6F7420656E13
:10264000746572207375626469723A200050726119
:1026500076793A0052696768743A004F626E6F7615
:102660006F76616E69207469736B7500526573755E
:102670006D696E67207072696E74004F626E6F765E
:10268000656E69207469736B7500526573756D6949
:102690006E67207072696E7400506F6B7261636F49
:1026A00076617400526573756D65207072696E7421
:1026B00000526573656E643A20004F6473747261F2
:1026C0006E7465207469736B6F767920706C6174B9
:1026D000207A20686561746265642070726F736926
:1026E0006D2E00506C656173652072656D6F766547
:1026F00020737465656C2073686565742066726FFD
:102700006D20686561746265642E00446574656B54
:102710006F76616E207679706164656B2070726F80
:102720007564752E4F626E6F766974207469736B71
:102730003F00426C61636B6F7574206F63637572E9
:102740007265642E205265636F76657220707269BF
:102750006E743F004F626E6F766F76616E692074A3
:1027600069736B7520202020005265636F76657257
:10277000696E67207072696E74202020200050728C
:102780006F73696D2076796A6D65746520757279ED
:1027900063686C656E652066696C616D656E74005A
:1027A000506C656173652070756C6C206F7574205A
:1027B00066696C616D656E7420696D6D65646961D3
:1027C00074656C7900686F77746F2E7072757361C1
:1027D00033642E637A00686F77746F2E707275732E
:1027E0006133642E636F6D00666F72756D2E70724B
:1027F00075736133642E637A00666F72756D2E7027
:102800007275736133642E636F6D007072757361DE
:1028100033642E637A00707275736133642E636F54
:102820006D005469736B20706F7A617374617665A3
:102830006E005072696E7420706175736564005427
:1028400069736B20707265727573656E0050726982
:102850006E742061626F72746564005072696E7488
:10286000657220646973636F6E6E6563746564007E
:1028700050726F20767973756E7574692066696C15
:10288000616D656E747520737469736B6E657465C4
:102890002070726F73696D20746C616369746B6F03
:1028A00000506C6561736520707265737320746885
:1028B00065206B6E6F6220746F20756E6C6F616443
:1028C0002066696C616D656E740050726F206E6178
:1028D000687261746920747279736B7920612070F9
:1028E0006F6B7261636F76616E6920737469736B6D
:1028F0006E65746520746C616369746B6F2E005033
:1029000072657373206B6E6F6220746F20707265D6
:1029100068656174206E6F7A7A6C6520616E6420E0
:10292000636F6E74696E75652E00612073746973D0
:102930006B6E65746520746C616369746B6F0061A4
:102940006E6420707265737320746865206B6E6F9F
:10295000620050726564656872656A74652074729D
:1029600079736B75210050726568656174207468B5
:1029700065206E6F7A7A6C652100507265646568B7
:10298000726576005072656865617400506F776596
:102990007255700050726F73696D2063656B656A64
:1029A000746500506C656173652077616974004ED1
:1029B000656A6472697665207A61766564746520FB
:1029C000504C412066696C616D656E742070726F49
:1029D00073696D2E00506C65617365206C6F616466
:1029E00020504C412066696C616D656E742066698B
:1029F0007273742E004A6520504C412066696C61E8
:102A00006D656E74207A61766564656E3F0049730A
:102A100020504C412066696C616D656E74206C6F4E
:102A2000616465643F002020506C616E6E65724287
:102A3000756666657242797465733A2000556D69F2
:102A400073746574652070726F73696D2074697337
:102A50006B6F767920706C6174206E61206865619F
:102A60007462656400506C6561736520706C6163AD
:102A70006520737465656C207368656574206F6E7E
:102A800020686561746265642E004E6168726976C3
:102A9000616E692050494E44410050494E444120E6
:102AA00048656174696E6700504944206B616C2E03
:102AB00020202020202020202020200050494420B9
:102AC00063616C2E20202020202020202020200048
:102AD000504944206B616C2E20756B6F6E63656E80
:102AE00061005049442063616C2E2066696E6973F1
:102AF00068656400504944206B616C69627261636F
:102B000065005049442063616C6962726174696F49
:102B10006E00506F7A6173746176697420746973A2
:102B20006B005061757365207072696E7400556D2D
:102B3000697374657465206C697374207061706961
:102B40007275206E6120706F646C6F7A6B75206196
:102B5000207564727A756A7465206A656A20706F80
:102B60006420747279736B6F7520626568656D207F
:102B70006D6572656E69207072766E696368203467
:102B800020626F64752E20506F6B756420747279AB
:102B9000736B61207A616368797469207061706910
:102BA000722C207679706E657465207469736B6120
:102BB000726E752E00506C616365206120736865CC
:102BC0006574206F6620706170657220756E646533
:102BD0007220746865206E6F7A7A6C6520647572F5
:102BE000696E67207468652063616C6962726174E4
:102BF000696F6E206F66206669727374203420706E
:102C00006F696E74732E20496620746865206E6F3C
:102C10007A7A6C6520636174636865732074686593
:102C20002070617065722C20706F776572206F66FE
:102C30006620746865207072696E74657220696DB3
:102C40006D6564696174656C792E006F6B004F6609
:102C500066004E6F206D6F76652E005A61646E615E
:102C6000205344206B61727461004E6F20534420E6
:102C70006361726400547279736B61004E6F7A7A8B
:102C80006C650046696C616D656E74206E657A6175
:102C9000766564656E0046696C616D656E74206E64
:102CA0006F74206C6F6164656400426172766120AC
:102CB0006E656E6920636973746100436F6C6F7237
:102CC000206E6F7420636F7272656374004E6500CE
:102CD0004E6F0050726F73696D20616B7475616C1B
:102CE000697A756A74652E00506C6561736520752C
:102CF0007067726164652E005679736C61206E6F27
:102D00007661207665727A65206669726D77617288
:102D1000653A004E6577206669726D77617265204D
:102D200076657273696F6E20617661696C61626C41
:102D3000653A00506F73756E6F7574205A004D6F51
:102D40007665205A00506F73756E6F757420590048
:102D50004D6F7665205900506F73756E6F757420D6
:102D600058004D6F7665205800457874727564651B
:102D70007200506F73756E6F7574206F7375004DB0
:102D80006F76652061786973004D657368204265D0
:102D900064204C6576656C696E67004E6170657481
:102DA0006900566F6C7461676573005465706C6F71
:102DB00074790054656D7065726174757265730025
:102DC0004B616C6962726163650043616C69627238
:102DD0006174696F6E00537461762072656D656E03
:102DE000750042656C742073746174757300207A89
:102DF000203900206F662039004D6572696D2072A0
:102E000065666572656E636E69207679736B752091
:102E10006B616C69627261636E69686F20626F6476
:102E200075004D6561737572696E672072656665C0
:102E300072656E636520686569676874206F6620D7
:102E400063616C6962726174696F6E20706F696E24
:102E500074004D6572656E65207A6B6F73656E697F
:102E60003A004D6561737572656420736B65773ADE
:102E700000486C61766E69206E616269646B610006
:102E80004D61696E004D32323120496E76616C6958
:102E90006420657874727564657220004D32313833
:102EA00020496E76616C696420657874727564651A
:102EB0007220004D32303020496E76616C6964209A
:102EC000657874727564657220005265706F7274F3
:102ED000696E6720656E6473746F702073746174BB
:102EE0007573004D313137204B616C2E2070727636
:102EF0006E6920767273747679004D3131372046D1
:102F000069727374206C617965722063616C2E0044
:102F10004649524D574152455F4E414D453A4D61EC
:102F2000726C696E2056312E302E323B20537072F7
:102F3000696E7465722F6772626C206D617368755B
:102F40007020666F722067656E36204649524D5775
:102F50004152455F55524C3A68747470733A2F2F42
:102F60006769746875622E636F6D2F707275736117
:102F700033642F50727573612D69332D506C7573E6
:102F80002F2050524F544F434F4C5F564552534998
:102F90004F4E3A312E30204D414348494E455F5403
:102FA0005950453A5072757361206933204D4B3347
:102FB0002045585452554445525F434F554E543A5C
:102FC0003120555549443A30303030303030302D92
:102FD000303030302D303030302D303030302D30FA
:102FE00030303030303030303030300A004D313019
:102FF0003920496E76616C696420657874727564F5
:10300000657220004D31303520496E76616C6964FF
:1030100020657874727564657220004D31303420FB
:10302000496E76616C696420657874727564657246
:10303000200055766F6C6E656E612072656D656EF1
:1030400069636B61004C6F6F73652070756C6C65A4
:1030500079005A61766573742066696C616D656E7E
:1030600074004C6F61642066696C616D656E7400FC
:103070005A61766164656E692066696C616D656E22
:103080007475004C6F6164696E672066696C616D70
:10309000656E740043697374656E6920626172764F
:1030A00079004C6F6164696E6720636F6C6F7200AA
:1030B0004C6576793A004C6566743A0056796265DB
:1030C00072206A617A796B610053656C6563742064
:1030D0006C616E67756167650043657374696E61E5
:1030E00000456E676C697368004B494C4C45442E33
:1030F0002000496E76616C6964206578747275642D
:10310000657200566C6F7A74652066696C616D65D6
:103110006E7400496E736572742066696C616D65CA
:103120006E74005469736B2E2076656E743A00508D
:1031300072696E742046414E3A2000547279736B66
:103140002E2076656E743A004E6F7A7A6C65204652
:10315000414E3A00457874727564657220696E66F6
:103160006F00207A203400206F662034005A6C658E
:103170007073756A6920707265736E6F7374206BFB
:10318000616C69627261636E69686F20626F6475F9
:1031900000496D70726F76696E67206265642063A6
:1031A000616C6962726174696F6E20706F696E74B0
:1031B000004B616C696272756A69205A0043616CE8
:1031C0006962726174696E67205A004B616C696252
:1031D00072616365204F4B0043616C696272617478
:1031E000696F6E20646F6E65004B616C6962726F0F
:1031F000766174205A0043616C6962726174652063
:103200005A005A6168726976616E69204F4B2E00D0
:1032100048656174696E6720646F6E652E005A613F
:1032200068726976616E690048656174696E6700ED
:103230005641524F56414E493A204E657A6E616D65
:10324000612C206E65706F64706F726F76616E6155
:10325000207665727A65206669726D776172652E77
:1032600020506F757A697469206E6120766C617385
:10327000746E69206E6562657A70656369210057B6
:1032800041524E494E473A20546869732069732071
:10329000616E20756E6F6666696369616C2C20755E
:1032A0006E737570706F72746564206275696C649A
:1032B0002E2055736520617420796F7572206F77A9
:1032C0006E207269736B210043485942413A20468F
:1032D000696C616D656E742073656E7A6F72206EB5
:1032E0006572656167756A652C207A6B6F6E7472A2
:1032F0006F6C756A7465207A61706F6A656E692E8D
:10330000004552524F523A2046696C616D656E74A9
:103310002073656E736F72206973206E6F742072F4
:103320006573706F6E64696E672C20706C65617375
:103330006520636865636B20636F6E6E6563746997
:103340006F6E2E00462E206175746F7A61762E2086
:103350005B7A61705D00462E206175746F6C6F61E1
:103360006420205B6F6E5D00462E206175746F7A5D
:1033700061762E205B7679705D00462E2061757433
:103380006F6C6F6164205B6F66665D00462E206126
:1033900075746F7A61762E205B4E2F415D00462E4C
:1033A000206175746F6C6F6164205B4E2F415D000E
:1033B00046696C2E2073656E7A6F72205B7A61703D
:1033C0005D0046696C2E2073656E736F7220205B02
:1033D0006F6E5D0046696C2E2073656E7A6F722089
:1033E0005B7679705D0046696C2E2073656E736F35
:1033F00072205B6F66665D0046696C2E2073656E99
:103400007A6F72205B4E2F415D0046696C2E2073EF
:10341000656E736F72205B4E2F415D0020467265B2
:1034200065204D656D6F72793A20005469736B6148
:10343000726E61206E6562796C61206A6573746575
:10344000207A6B616C6962726F76616E612E2050BA
:103450006F73747570756A74652070726F73696DBF
:1034600020706F646C65206D616E75616C752C20C9
:103470006B617069746F6C61205A6163696E616D14
:10348000652C206F6473746176656320506F73746C
:103490007570206B616C6962726163652E00507299
:1034A000696E74657220686173206E6F7420626546
:1034B000656E2063616C6962726174656420796510
:1034C000742E20506C6561736520666F6C6C6F772D
:1034D00020746865206D616E75616C2C2063686175
:1034E00070746572204669727374207374657073AA
:1034F0002C2073656374696F6E2043616C6962721E
:103500006174696F6E20666C6F772E0050727574EF
:103510006F6B00466C6F7700446F6B6F6E636F76F6
:10352000616E6920706F687962750046696E6973B3
:1035300068696E67206D6F76656D656E74730020C7
:103540007A203400206F66203400486C6564616D19
:10355000206B616C69627261636E6920626F6420C6
:10356000706F646C6F7A6B79005365617263686920
:103570006E67206265642063616C69627261746960
:103580006F6E20706F696E74004974657261636557
:103590002000497465726174696F6E2000446F6E1B
:1035A0006520736176696E672066696C652E0044DC
:1035B0006F6E65207072696E74696E672066696CE3
:1035C0006500536F75626F72206E656B6F6D706C06
:1035D00065746E692E20506F6B7261636F766174D3
:1035E0003F0046696C6520696E636F6D706C657431
:1035F000652E20436F6E74696E756520616E7977F4
:1036000061793F004E656B7465726520736F7562FA
:103610006F7279206E656275646F75207365747260
:103620006964656E792E204D6178696D616C6E6993
:1036300020706F63657420736F75626F7275207090
:10364000726F20736574726964656E69206A6520A3
:103650003130302E00536F6D652066696C657320C4
:1036600077696C6C206E6F7420626520736F727462
:1036700065642E204D61782E204E6F2E206F6620BF
:1036800066696C657320696E203120666F6C6465B5
:103690007220666F7220736F7274696E672069732F
:1036A000203130302E0053656E7A6F722066696C5F
:1036B000616D656E74750046696C616D656E742030
:1036C00073656E736F720046696C616D656E742010
:1036D0007679746C6163656E2061207370726176B7
:1036E0006E652062617276793F0046696C616D6536
:1036F0006E7420657874727564696E672026207711
:1037000069746820636F727265637420636F6C6F95
:10371000723F0056796D656E69742066696C616DE3
:10372000656E74004368616E67652066696C616DE3
:10373000656E7400527963686C6F73742076656E81
:10374000742E0046616E207370656564004B6F6E69
:1037500074722E2076656E742E5B7A61705D004601
:10376000616E7320636865636B2020205B6F6E5D04
:10377000004B6F6E74722E2076656E742E5B7679B8
:10378000705D0046616E7320636865636B20205B2B
:103790006F66665D00656E717565696E67202200F3
:1037A0004578747275646572002045787465726E30
:1037B000616C205265736574005072696E74657235
:1037C0002073746F707065642064756520746F2059
:1037D0006572726F72732E20466978207468652056
:1037E0006572726F7220616E6420757365204D3949
:1037F000393920746F20726573746172742E2028B9
:1038000054656D706572617475726520697320729C
:10381000657365742E205365742069742061667425
:1038200065722072657374617274696E6729004EE7
:103830006F204C696E65204E756D626572207769E8
:10384000746820636865636B73756D2C204C6173BD
:1038500074204C696E653A20004E6F2043686563A2
:103860006B73756D2077697468206C696E65206E66
:10387000756D6265722C204C617374204C696E65A5
:103880003A200020746F6F206C6F6E67206578742B
:10389000727573696F6E2070726576656E7465649B
:1038A000004C696E65204E756D62657220697320EB
:1038B0006E6F74204C617374204C696E65204E7578
:1038C0006D6265722B312C204C617374204C696ED3
:1038D000653A20005072696E7465722068616C747C
:1038E00065642E206B696C6C28292063616C6C65A3
:1038F00064210020636F6C6420657874727573694D
:103900006F6E2070726576656E74656400636865BD
:10391000636B73756D206D69736D617463682C20C2
:103920004C617374204C696E653A200043485942DB
:10393000413A004552524F523A00456E6420666942
:103940006C65206C697374006F70656E0054524929
:1039500047474552454400656E6473746F70732029
:103960006869743A2000536C6565702E2E2E0056DF
:1039700079706E6F7574206D6F746F727900446921
:103980007361626C65207374657070657273004E4C
:10399000616872616E6F20767963686F7A69206EF4
:1039A0006173746176656E690044656661756C74F7
:1039B0002073657474696E6773206C6F61646564ED
:1039C00000446174756D3A00446174653A00506F4B
:1039D000757A6520616B7475616C6E6900437572F0
:1039E00072656E74001B5B324A504F5A4F523A1B3D
:1039F0005B313B3048437261736820646574656B6A
:103A000063651B5B323B30486465616B7469766F3C
:103A100076616E612076651B5B333B30485374657D
:103A2000616C7468206D6F6475001B5B324A57418E
:103A3000524E494E473A1B5B313B304843726173EB
:103A40006820646574656374696F6E1B5B323B301C
:103A50004864697361626C656420696E1B5B333B0B
:103A60003048537465616C7468206D6F6465001B29
:103A70005B324A437261736820646574656B636589
:103A8000206D757A651B5B313B3048627974207A12
:103A900061706E75746120706F757A6520761B5B3E
:103AA000323B30484E6F726D616C206D6F647500F3
:103AB0001B5B324A4372617368206465746563748A
:103AC000696F6E2063616E1B5B313B30486265201D
:103AD0007475726E6564206F6E206F6E6C792069EC
:103AE0006E1B5B323B30484E6F726D616C206D6FA8
:103AF000646500446574656B6F76616E206E6172FB
:103B0000617A2E0043726173682064657465637422
:103B100065642E004372617368206465742E2020F2
:103B20005B7A61705D004372617368206465742E16
:103B30002020205B6F6E5D004372617368206465B6
:103B4000742E20205B7679705D004372617368206B
:103B50006465742E20205B6F66665D00437261733E
:103B600068206465742E20205B4E2F415D00204349
:103B70006F756E7420583A200056796D656E61201D
:103B80006F6B3F004368616E67656420636F72729C
:103B90006563746C793F005A63686C616469740092
:103BA000436F6F6C646F776E0050726F2075737027
:103BB00065736E6F75206B616C69627261636920F9
:103BC0006F636973746574652070726F73696D20BB
:103BD0007469736B6F766F7520747279736B752E61
:103BE00020506F74767264746520746C61636974BC
:103BF0006B656D2E00506C6561736520636C65614B
:103C00006E20746865206E6F7A7A6C6520666F72BC
:103C10002063616C6962726174696F6E2E20436CFF
:103C200069636B207768656E20646F6E652E002077
:103C30004C61737420557064617465643A20005659
:103C40007962657274652065787472756465723A1C
:103C50000043686F6F736520657874727564657270
:103C60003A0050726F73696D206F74657672657477
:103C7000652069646C65722061206D616E75616C90
:103C80006E65206F64737472616E74652066696C12
:103C9000616D656E742E00506C65617365206F7088
:103CA000656E2069646C657220616E642072656D5A
:103CB0006F76652066696C616D656E74206D616EEE
:103CC00075616C6C792E005A6D656E61207573702C
:103CD00065736E6121004368616E6765207375636B
:103CE0006365737321005469736B207A2053440019
:103CF0005072696E742066726F6D20534400546573
:103D0000706C6F742E206B616C6962726163650008
:103D100054656D702E2063616C6962726174696FA5
:103D20006E004B616C696272756A69205A0043616A
:103D30006C6962726174696E67205A005A6B616CBB
:103D40006962726F7661740043616C69627261745A
:103D5000650052657365742058595A206B616C690F
:103D600062722E0052657365742058595A2063613F
:103D70006C6962722E004B616C69627261636520CE
:103D800058595A0043616C696272617465205859D0
:103D90005A002042726F776E206F757420526573DF
:103DA000657400426567696E2066696C65206C69A0
:103DB0007374004B616C6962726163652058595A73
:103DC000206E65707265736E612E204C6576792069
:103DD000707265646E6920626F64206D6F63207617
:103DE00070726564752E0058595A2063616C69625F
:103DF000726174696F6E20636F6D70726F6D69733D
:103E000065642E204C6566742066726F6E74206344
:103E1000616C6962726174696F6E20706F696E7433
:103E2000206E6F7420726561636861626C652E003C
:103E30004B616C6962726163652058595A206E65E6
:103E4000707265736E612E20507265646E69206BAE
:103E5000616C69627261636E6920626F6479206D62
:103E60006F63207670726564752E0058595A20630E
:103E7000616C6962726174696F6E20636F6D7072DC
:103E80006F6D697365642E2046726F6E7420636176
:103E90006C6962726174696F6E20706F696E7473A1
:103EA000206E6F7420726561636861626C652E00BC
:103EB0004B616C6962726163652058595A207620A3
:103EC000706F7261646B752E20582F59206F737953
:103ED000206D69726E65207A6B6F73656E652E203A
:103EE000446F627261207072616365210058595A93
:103EF0002063616C6962726174696F6E20616C6CC1
:103F00002072696768742E20582F59206178657374
:103F10002061726520736C696768746C7920736BBB
:103F2000657765642E20476F6F64206A6F62210099
:103F30004B616C6962726163652058595A20762022
:103F4000706F7261646B752E205A6B6F73656E694A
:103F50002062756465206175746F6D617469636B4F
:103F600079207679726F766E616E6F20707269203B
:103F70007469736B752E0058595A2063616C6962BD
:103F8000726174696F6E20616C6C2072696768740D
:103F90002E20536B65772077696C6C2062652063F7
:103FA0006F72726563746564206175746F6D61749E
:103FB0006963616C6C792E004B616C69627261633C
:103FC000652058595A2073656C68616C612E204BCE
:103FD000616C69627261636E6920626F6420706FE8
:103FE000646C6F7A6B79206E656E616C657A656E54
:103FF0002E0058595A2063616C6962726174696F4E
:104000006E206661696C65642E2042656420636180
:104010006C6962726174696F6E20706F696E742072
:10402000776173206E6F7420666F756E642E004B1F
:10403000616C6962726163652058595A20762070FC
:104040006F7261646B752E20582F59206F73792021
:104050006A736F75206B6F6C6D652E20477261748B
:10406000756C756A69210058595A2063616C6962E0
:10407000726174696F6E206F6B2E20582F5920610A
:10408000786573206172652070657270656E646911
:1040900063756C61722E20436F6E67726174756C0C
:1040A0006174696F6E7321004B616C696272616348
:1040B000652058595A2073656C68616C612E204EDA
:1040C00061686C65646E65746520646F206D616EF7
:1040D00075616C752E0058595A2063616C69627263
:1040E0006174696F6E206661696C65642E20506C26
:1040F0006561736520636F6E73756C742074686599
:10410000206D616E75616C2E004B616C696272612D
:1041100063652058595A2073656C68616C612E2064
:104120004C65767920707265646E6920626F6420D8
:104130006D6F63207670726564752E2053726F7692
:104140006E656A7465207469736B61726E752E009A
:1041500058595A2063616C6962726174696F6E208C
:104160006661696C65642E204C6566742066726FAA
:104170006E742063616C6962726174696F6E207025
:104180006F696E74206E6F7420726561636861621E
:104190006C652E004B616C696272616365205859D1
:1041A0005A2073656C68616C612E20507265646E74
:1041B00069206B616C69627261636E6920626F6411
:1041C00079206D6F63207670726564752E2053724E
:1041D0006F766E656A7465207469736B61726E7553
:1041E0002E0058595A2063616C6962726174696F5C
:1041F0006E206661696C65642E2046726F6E742055
:1042000063616C6962726174696F6E20706F696E50
:104210007473206E6F7420726561636861626C658F
:104220002E004B616C696272616365205A20736570
:104230006C68616C612E2053656E736F72206A65C5
:10424000206F64706F6A656E79206E65626F207092
:104250007265727573656E79206B6162656C2E2074
:1042600043656B616D206E612072657365742E000D
:10427000426564206C6576656C696E67206661696D
:104280006C65642E2053656E736F7220646973636E
:104290006F6E6E6563746564206F72206361626C1B
:1042A000652062726F6B656E2E2057616974696E4E
:1042B0006720666F722072657365742E004B616CA7
:1042C000696272616365205A2073656C68616C6114
:1042D0002E2053656E736F72206E657365706E75F8
:1042E0006C2E205A6E6563697374656E61207472FA
:1042F00079736B613F2043656B616D206E61207245
:10430000657365742E00426564206C6576656C6922
:104310006E67206661696C65642E2053656E736FED
:1043200072206469646E7420747269676765722EA6
:1043300020446562726973206F6E206E6F7A7A6CAA
:10434000653F2057616974696E6720666F722072DD
:10435000657365742E004B616C69627261636520E0
:104360005A2073656C68616C612E2053656E736FA3
:1043700072207365706E756C207072696C69732041
:104380007679736F6B6F2E2043656B616D206E6164
:104390002072657365742E00426564206C657665D5
:1043A0006C696E67206661696C65642E2053656E6A
:1043B000736F722074726967676572656420746FC9
:1043C0006F20686967682E2057616974696E67207D
:1043D000666F722072657365742E005A6168726927
:1043E00076616E692062656400426564204865619B
:1043F00074696E6700426564204F4B2E004265640D
:1044000020646F6E650056707261766F205B756D0B
:104410005D00526967687420736964655B756D5DE2
:1044200000526573657400567A61647520205B756F
:104430006D5D00526561722073696465205B756D06
:104440005D004B6F72656B636520706F646C6F7A93
:104450006B7900426564206C6576656C20636F72D1
:104460007265637400566C65766F20205B756D5DB8
:10447000004C6566742073696465205B756D5D0032
:10448000567072656475205B756D5D0046726F6E67
:104490007420736964655B756D5D00426564004EF0
:1044A000656E69207A6B616C6962726F76616E61AC
:1044B00020767A64616C656E6F73742074727973A0
:1044C0006B79206F64207469736B6F766520706FF1
:1044D000646C6F7A6B792E20506F73747570756A87
:1044E00074652070726F73696D20706F646C6520E5
:1044F0006D616E75616C752C206B617069746F6C89
:1045000061205A6163696E616D652C206F647374FC
:1045100061766563204E6173746176656E692070A3
:1045200072766E69207672737476792E00446973A0
:1045300074616E6365206265747765656E20746969
:1045400070206F6620746865206E6F7A7A6C6520C3
:10455000616E64207468652062656420737572669C
:1045600061636520686173206E6F74206265656E9B
:1045700020736574207965742E20506C65617365B5
:1045800020666F6C6C6F7720746865206D616E7546
:10459000616C2C2063686170746572204669727367
:1045A000742073746570732C2073656374696F6E07
:1045B000204669727374206C617965722063616C46
:1045C0006962726174696F6E2E00446F6C6164651C
:1045D0006E69206F7379205A004C6976652061649A
:1045E0006A757374205A0041646A757374696E67E2
:1045F000205A004175746F20686F6D6500417574B5
:104600006F5A61766564656E692066696C2E00413B
:1046100075746F4C6F61642066696C616D656E7452
:10462000004175746F6D617469636B65207A6176A2
:104630006164656E692066696C616D656E74752074
:10464000646F737475706E6520706F757A65207015
:104650007269207A61706E7574656D2066696C612F
:104660006D656E742073656E7A6F72752E2E2E00D6
:104670004175746F6C6F6164696E672066696C6107
:104680006D656E7420617661696C61626C65206F26
:104690006E6C79207768656E2066696C616D656EF9
:1046A000742073656E736F72206973207475726EF7
:1046B0006564206F6E2E2E2E004175746F6D6174CF
:1046C00069636B65207A61766164656E69206669ED
:1046D0006C616D656E747520616B7469766E692CA2
:1046E00020737469736B6E65746520746C616369A3
:1046F000746B6F206120766C6F7A74652066696CCC
:10470000616D656E742E2E2E004175746F6C6F6135
:1047100064696E672066696C616D656E742069738B
:10472000206163746976652C206A757374207072D9
:1047300065737320746865206B6E6F6220616E64B0
:1047400020696E736572742066696C616D656E7444
:104750002E2E2E00207C20417574686F723A200046
:1047600056736500416C6C00416374697665204541
:10477000787472756465723A20000B12FB111F1277
:1047800027122F12381240125D124812761272123E
:104790007A1282129B128A12C612AC121C13E412F5
:1047A0007A135A13FE139D130C1561140316C015CA
:1047B000A91650165C17F0160718BB179B18581847
:1047C000EC18D8185A190019F119A2195F1A3B1AD6
:1047D000941A7F1AB71AA81A021BD41A8D1B301B01
:1047E000ED1BF41B0E1C041C421C1A1C771C651CC0
:1047F000881CAD1C991CE01CBF1C111D001D331D25
:10480000211D461D5F1D591D641D761D881DE11D5E
:10481000CF1D051EF31D521E171E9F1E8A1EBC1E95
:10482000B41ED01EC81EE61ED81EF11EFB1E2B1F76
:104830000F1F541F461F791F671F981F8A1FB31F22
:10484000A61FD11FC41F0720DE1F3B20322053208C
:104850004120772065209B208920BD20AD20CB20E2
:10486000EA20DB200921F7202D211B2150213F21A7
:104870006E215F218D217B21A8219E21C021B121A4
:10488000D721CD21DF210022F1211A220B2229225A
:1048900045223622532259227D226B2296228E22D5
:1048A000A9229F22C822B622E922D8220423F2227A
:1048B000222316234523302356236723772380237F
:1048C0009D238823C023AE23E423D2230824F62388
:1048D0002C241A244F243E247324612497248524F5
:1048E000BB24A924CD24E424DA24F424F024F924DC
:1048F0001D250B2541252F255325652578258E253A
:1049000080259B25AD25C125DF25D125ED25FA255F
:10491000082616262C26372654264D266C265B267E
:104920008A267B26A4269926B126E326BA26322794
:104930000B2769275427A0277E27D627C527F927C5
:10494000E82716280B28322822284D283F285B28E4
:10495000A1287028FF28CA283F292A296629522918
:1049600084297A298C29A3299429D529AF290E2AAB
:10497000F529262A652A3D2A9A2A8A2ABC2AA82AA3
:10498000E22AD02A022BF42A222B122BB52B2E2B13
:104990004B2C4E2C522C6A2C5B2C7C2C752C962C80
:1049A000832CBB2CAA2CD02CCD2CE82CD32C132D53
:1049B000F82C3E2D332D502D452D622D572D692D70
:1049C0007F2D722D892DA22D9B2DB32DAB2DCA2DA0
:1049D000C02DE22DD62DF32DEE2D222EF92D622E97
:1049E000522E802E712E852E9C2EB32ECA2EFA2E7C
:1049F000E32E102FED2F04301B3045303230623063
:104A0000523083307030A2309430B630B030C9307C
:104A1000BC30E130D930E930F230133103312F317D
:104A2000233148313B3154316731623191316D313D
:104A3000BD31B131D831CB31F631E93110320232EA
:104A400028321E327F3230320133C832563344337B
:104A50007A3368339E338C33C233B033E633D43386
:104A60000A34F8331C349E342B3413350C352B3573
:104A7000183544353F3569354A35923589359D3588
:104A8000AF35E235C23555360436B736A636EA3686
:104A9000C73624371337433734375F374D378337BB
:104AA00071379537A037A937B9372F385938833838
:104AB000A138D438F3380D3933392C393A394839DB
:104AC0004D39573966397E396F39A9398F39C83927
:104AD000C139DD39CE392A3AE539B03A6F3A043B6B
:104AE000F33A263B143B4A3B383B5C3B6E3B843BF2
:104AF000793BA03B973BF53BA93B2F3C513C3F3CCE
:104B0000973C623CD63CC73CF03CE63C103DFE3C4A
:104B10002E3D223D483D3C3D643D523D843D763D29
:104B2000923DA33DE73DB33D6B3E303EED3EB03E92
:104B3000773F303FF23FB83F67402F40D640A84014
:104B400050410941E2419441704222420643BD4234
:104B500098435643E943DB43FD43F543124406447F
:104B600021443344274453444244714465448C44B3
:104B700080449B442D459F44D945CA45E745F345AC
:104B80000F46FD45704621460947B94654476447DC
:104B900060476847457872656D65207370616E2067
:104BA0006F6620746865205A2076616C7565732184
:104BB0000043616C63756C6174696F6E206F662071
:104BC000746865206D616368696E6520736B6577D5
:104BD00020616E64206F6666736574206661696C1F
:104BE00065642E00203C20005741524E494E473A02
:104BF0002046726F6E7420706F696E74206E6F74D1
:104C000020726561636861626C652E205920636F54
:104C10006F7264696E6174653A000049746572610F
:104C200074696F6E3A200000004041FFFFBF4000F2
:104C3000005C43FFFFBF4000005C430000464300B0
:104C40000040410000464300004041FFFFBF4000DC
:104C500000E442FFFFBF4000005743FFFFBF40009A
:104C60000057430000CC420000E4420000CC420068
:104C70000040410000CC420000404100004643009B
:104C800000E442000046430000574300004643064C
:104C90002833D036C23E013F154132423B43F244F5
:104CA0003B45F24622473B48F2493B4AF058985967
:104CB0000C5A085B0C5C086110679B6E22710772CE
:104CC00008FF095A0D000EFF19045E0820642B6DC1
:104CD000322FFF5A00205A3A00590020593A005802
:104CE0000020583A0024F4D43050C38E20C2A24091
:104CF00017828B7011127A910D816CD90AA861E12B
:104D000008C7586607615143061E4B5D05C145A79C
:104D1000041A411104093D9803713931034036DB0F
:104D20000265339102D4305402802E1D02632CEEB2
:104D300001752AC501B028A001102781018F2564C3
:104D4000012B244B01E0223401AC211F018D200DE9
:104D500001801FFC00841EED00971DDF00B81CD2EF
:104D600000E61BC600201BBC00641AB200B219A8E2
:104D7000000A19A0006A189900D117910040178BFA
:104D800000B516840031167E00B31579003A15730C
:104D900000C7146F0058146A00EE1366008813638E
:104DA0000025135E00C7125B006C125700151254E9
:104DB00000C111510070114F0021114B00D6104954
:104DC000008D1047004610440002104200C00F4002
:104DD00000800F3E00420F3C00060F3B00CB0E3818
:104DE00000930E37005C0E3500270E3400F30D32B1
:104DF00000C10D3100900D3000600D2E00320D2DE0
:104E000000050D2C00D90C2B00AE0C2900850C29B7
:104E1000005C0C2700350C27000E0C2600E80B2444
:104E200000C40B2400A00B23007D0B23005A0B2190
:104E300000390B2100180B2000F80A1F00D90A1EA8
:104E400000BB0A1E009D0A1D00800A1D00630A1C8B
:104E500000470A1B002C0A1B00110A1A00F7091A46
:104E600000DD091900C4091900AB091900920917DE
:104E7000007B091800630917004C09160036091653
:104E800000200916000A091500F5081500E00814AD
:104E900000CC081400B8081400A4081400900813EB
:104EA000007D0812006B0813005808120046081213
:104EB0000034081100230811001208110001081124
:104EC00000F0071000E0071000D0071000C0071026
:104ED00000B0070F00A107100091070E0083070F15
:104EE0000074070F0065070E0057070E0049070EF4
:104EF000003B070D002E070E0020070D0013070DC5
:104F00000006070D00F9060C00ED060D00E0060C8A
:104F100000D4060C00C8060C00BC060C00B0060C41
:104F200000A4060B0099060C008D060B0082060BF0
:104F30000077060B006C060B0061060A0057060B93
:104F4000004C060A0042060A0038060A002E060A2D
:104F50000024060A001A060A001006090007060ABD
:104F600000FD050900F4050900EB050900E205094B
:104F700000D9050900D0050900C7050900BE0509CB
:104F800000B5050800AD050800A50509009C050849
:104F900000940508008C050800840508007C0508BD
:104FA00000740508006C050700650508005D05072D
:104FB00000560508004E0507004705070040050894
:104FC0000038050700310507002A050700230507FB
:104FD000001C050600160507000F0507000805065A
:104FE0000002050700FB040600F5040700EE0406B6
:104FF00000E8040600E2040700DB040600D504060E
:1050000000CF040600C9040600C3040600BD040660
:1050100000B7040600B1040500AC040600A60406AF
:1050200000A00405009B04060095040500900406FA
:10503000008A04050085040500800406007A040542
:105040000075040500700405006B04050066040586
:1050500000610405005C04050057040500520405C6
:10506000004D04050048040500430405003E040407
:10507000003A04050035040500300404002C040542
:105080000027040400230405001E0404001A04047D
:105090000016040500110404000D040400090405B1
:1050A000000404040000040400FC030400F80304EA
:1050B00000F4030400F0030400EC030400E803041C
:1050C00000E4030400E0030400DC030400D803044C
:1050D00000D4030400D0030400CC030400C803037D
:1050E00000C503030024F404D9201BC40C5C0E98F3
:1050F00004C4095F0265077101F405F900FB04B3FC
:105100000048048700C103690058035500030345A4
:1051100000BE023A008402310053022A002902250F
:105120000004022000E4011C00C8011900AF0117AF
:105130000098011400840113007101100061011036
:105140000051010E0043010D0036010B002B010B35
:105150000020010B00150109000C010900030108E2
:1051600000FB000800F3000800EB000700E4000665
:1051700000DE000600D8000600D2000600CC0005C4
:1051800000C7000500C2000500BD000400B900040E
:1051900000B5000400B1000400AD000400A9000443
:1051A00000A5000300A20003009F0004009B000371
:1051B0000098000300950002009300030090000394
:1051C000008D0002008B00030088000200860002B0
:1051D0000084000300810002007F0002007D0002C5
:1051E000007B0002007900020077000100760002D7
:1051F000007400020072000100710002006F0002E2
:10520000006D0001006C0002006A000100690002EC
:1052100000670001006600010065000100640002F3
:10522000006200010061000100600001005F0002F7
:10523000005D0001005C0001005B0001005A0001FC
:1052400000590001005800010057000100560001FC
:1052500000550001005400010053000000530001FC
:10526000005200010051000100500001004F0001F8
:10527000004E0000004E0001004D0001004C0001F6
:10528000004B0000004B0001004A000100490001F2
:1052900000480000004800010047000100460000EF
:1052A00000460001004500000045000100440001E7
:1052B00000430000004300010042000000420001E2
:1052C000004100000041000100400001003F0000DB
:1052D000003F0001003E0000003E0001003D0000D4
:1052E000003D0001003C0000003C0000003C0001CB
:1052F000003B0000003B0001003A0000003A0001C2
:1053000000390000003900010038000000380000BA
:1053100000380001003700000037000100360000AF
:1053200000360000003600010035000000350000A6
:10533000003500010034000000340000003400019A
:105340000033000000330000003300010032000091
:105350000032000000320001003100000031000086
:10536000003100010030000000300000003000017A
:10537000002F0000002F0000002F0000002F000170
:10538000002E0000002E0000002E0001002D000065
:10539000002D0000002D0000002D0001002C000059
:1053A000002C0000002C0000002C0001002B00004D
:1053B000002B0000002B0000002B0001002A000041
:1053C000002A0000002A0000002A00010029000035
:1053D0000029000000290000002900000029000128
:1053E000002800000028000000280000002800001D
:1053F000002800010027000000270000002700000F
:105400000027000000270001002600000026000001
:1054100000260000002600000026000100250000F4
:1054200000250000002500000025000000250000E8
:1054300000250001002400000024000000240000DA
:1054400000240000002400010023000000230000CD
:1054500000230000002300000023000000230000C0
:1054600000230001002200000022000000220000B2
:1054700000220000002200000022000100210000A4
:105480000021000000210000002100000021000098
:105490000021000000210001002000000020000089
:1054A000002000000020000000200000002000007C
:1054B0000020000000200001001F0000001F00006D
:1054C000001F0000001F0000001F0000001F000060
:1054D000001F0001001E0000001E0000001E000052
:1054E000001E0000004572723A204D494E54454D51
:1054F00050204245440054656D7065726174757248
:1055000065206865617465642062656420737769ED
:105510007463686564206F66662E204D494E54455D
:105520004D5020747269676765726564202100457B
:1055300072723A204D415854454D50204245440026
:1055400054656D706572617475726520686561740B
:10555000656420626564207377697463686564209C
:105560006F66662E204D415854454D502074726927
:105570006767657265642021004572723A204D4963
:105580004E54454D50003A204578747275646572EA
:10559000207377697463686564206F66662E204D9A
:1055A000494E54454D502074726967676572656451
:1055B0002021004572723A204D415854454D50000B
:1055C0003A204578747275646572207377697463E4
:1055D000686564206F66662E204D415854454D50D5
:1055E0002074726967676572656420210020484FE6
:1055F00054454E4420544845524D414C2052554E3E
:10560000415741590020484541544245442054489F
:1056100045524D414C2052554E4157415900544836
:1056200045524D414C2052554E415741590042453B
:105630004420544845524D414C2052554E4157410B
:10564000590020544845524D414C2052554E415727
:1056500041592028205052454845415420484F5434
:10566000454E44290020544845524D414C20525546
:105670004E41574159202820505245484541542019
:1056800048454154424544290050524548454154FB
:10569000204552524F520042454420505245484501
:1056A0004154204552524F52004572723A20505296
:1056B000494E542046414E204552524F520050729E
:1056C000696E742066616E2073706565642069730D
:1056D000206C6F776572207468656E2065787065E0
:1056E00063746564004572723A20455854522E2006
:1056F00046414E204552524F5200457874727564AF
:1057000065722066616E2073706565642069732020
:105710006C6F776572207468656E2065787065635C
:10572000746564002F2F20616374696F6E3A706135
:1057300075736500504944204175746F74756E65CA
:105740002066696E697368656421205075742074E1
:105750006865206C617374204B702C204B6920614C
:105760006E64204B6420636F6E7374616E7473207B
:1057700066726F6D2061626F766520696E746F204E
:10578000436F6E66696775726174696F6E2E68002B
:10579000504944204175746F74756E652066616967
:1057A0006C6564212074696D656F75740020403AE2
:1057B00000543A00423A00504944204175746F74D5
:1057C000756E65206661696C6564212054656D7035
:1057D0006572617475726520746F6F20686967689F
:1057E00000204B643A2000204B693A2000204B7087
:1057F0003A200020436C6173736963205049442050
:10580000002054753A2000204B753A2000206D612D
:10581000783A2000206D696E3A200020643A20001A
:1058200020626961733A200090137D00B015780002
:10583000F0177300601A6E00F01C6900A01F64006E
:1058400050225F0020255A00E0275500902A500082
:10585000202D4B00A02F4600F031410010343C00B9
:10586000F0353700A037320020392D00603A28008B
:10587000703B2300603C1E00203D1900C03D140019
:10588000403E0F00A03E0A00F03E0500403F0000F1
:10589000703FFBFF903FF6FFB03FF1FFC03FECFFD2
:1058A000D03FE7FFE03FE2FFF03FDDFFF03FD8FFF2
:1058B0001000C90210012C014001220170011801E1
:1058C000B0010E01F00104015002FA00B002F00034
:1058D0003003E600D003DC009004D2007005C8005D
:1058E000A006BE000008B400B009AA00D00BA000BA
:1058F000600E960060118C0000158200201978005F
:10590000C01D6E00A0226400B0275A00902C5000E9
:1059100000314600E0343C0010383200903A280054
:10592000603C1E00A03D1400803E0A00203F0000A5
:1059300070012C0190012701B0012201C0011D015D
:10594000F00118011002130130020E01600209017A
:1059500090020401C002FF000003FA004003F500BA
:105960008003F000D003EB002004E6007004E100A7
:10597000E004DC004005D700C005D2004006CD00A1
:10598000D006C8008007C3003008BE00F008B90088
:10599000C009B400B00AAF00B00BAA00D00CA5003B
:1059A000000EA000500F9B00C010960050129100F6
:1059B00000148C00C0158700B0178200B0197D005C
:1059C000D01B7800001E730040206E0090226900FA
:1059D000F024640040275F0090295A00E02B550016
:1059E000102E500020304B0010324600E0334100B2
:1059F00090353C001037370070383200A0392D0048
:105A0000B03A2800A03B2300603C1E00103D190066
:105A1000903D1400103E0F00703E0A00C03E05008D
:105A2000003F0000746D63323133305F7072696E15
:105A3000745F63757272656E747328290A09480968
:105A4000520A580925640925640A5909256409255B
:105A5000640A5A0925640925640A4509256409254B
:105A6000640A00746D63323133305F7365745F6351
:105A7000757272656E745F7228617869733D256412
:105A80002C2063757272656E743D25640A00746D16
:105A900063323133305F7365745F63757272656E44
:105AA000745F6828617869733D25642C2063757282
:105AB00072656E743D25640A00544D43204452497A
:105AC000564552204F56455254454D502000746D56
:105AD00063323133305F696E697428292C206D6F11
