:100000000C94600F0C94910F0C94910F0C94910F21
:100010000C94910F0C94910F0C94910F0C94910FE0
:100020000C94910F0C94910F0C94910F0C94910FD0
:100030000C94910F0C94BBAD0C94910F0C94910FF8
:100040000C94910F0C94948C0C94910F0C94910F30
:100050000C94910F0C94910F0C9474260C9481A91C
:100060000C94910F0C949F890C94910F0C94910F08
:100070000C94910F0C94910F0C94910F0C94910F80
:100080000C94910F0C94910F0C94910F0C94910F70
:100090000C94910F0C94910F0C94910F0C94B3A6A7
:1000A0000C94910F0C94910F0C94910F0C94910F50
:1000B0000C94910F0C94910F0C94910F0C94910F40
:1000C0000C94910F0C94910F0C94910F0C94910F30
:1000D0000C94910F0C94910F0C94910F0C94910F20
:1000E0000C94910FC126CF26EB26F9261327212742
:1000F0003B273F27412745274D2705A80AA80FA8DA
:1001000019A892A823A82BA833A83DA847A851A8AE
:1001100060A86AA892A874A87EA888A8B0A8B3A866
:10012000A6A8AAA8EAA8B7A8BBA8C1A8C5A8C9A894
:10013000CFA8D3A8D7A8EAA8DDA8E1A8E5A8084ACF
:10014000D73B3BCE016E84BCBFFDC12F3D6C7431EB
:100150009ABD56833DDA3D00C77F11BED9E4BB4C42
:100160003E916BAAAABE000000803F05A84CCDB20C
:10017000D44EB93836A9020C50B9918688083CA6ED
:10018000AAAA2ABE000000803F007C3C3E5E2B3DB8
:100190003F2F5B5D3B2C2A225C004572723A204D5A
:1001A000415854454D50204245440054656D70659A
:1001B000726174757265206865617465642062653A
:1001C00064207377697463686564206F66662E20A7
:1001D0004D415854454D502074726967676572658A
:1001E00064202121004572723A204D494E54454DFC
:1001F00050003A204578747275646572207377698F
:100200007463686564206F66662E204D494E5445C0
:100210004D502074726967676572656420210045DE
:1002200072723A204D415854454D50003A2045785D
:10023000747275646572207377697463686564208D
:100240006F66662E204D415854454D50207472699A
:10025000676765726564202100202D20496E7661F4
:100260006C6964206578747275646572206E756D52
:10027000626572202100504944204175746F747585
:100280006E652066696E69736865642120507574B7
:1002900020746865206C617374204B702C204B694E
:1002A00020616E64204B6420636F6E7374616E74A2
:1002B000732066726F6D2061626F766520696E745F
:1002C0006F20436F6E66696775726174696F6E2E19
:1002D0006800504944204175746F74756E652066DE
:1002E00061696C6564212074696D656F75740020A7
:1002F000403A006F6B20543A006F6B20423A005036
:100300004944204175746F74756E65206661696C2F
:100310006564212054656D70657261747572652025
:10032000746F6F206869676800204B643A20002072
:100330004B693A2000204B703A200020436C6173D7
:100340007369632050494420002054753A200020EE
:100350004B753A2000206D61783A2000206D696E5F
:100360003A200020643A200020626961733A20003C
:1003700070012C0190012701B0012201C0011D0173
:10038000F00118011002130130020E016002090190
:1003900090020401C002FF000003FA004003F500D0
:1003A0008003F000D003EB002004E6007004E100BD
:1003B000E004DC004005D700C005D2004006CD00B7
:1003C000D006C8008007C3003008BE00F008B9009E
:1003D000C009B400B00AAF00B00BAA00D00CA50051
:1003E000000EA000500F9B00C0109600501291000C
:1003F00000148C00C0158700B0178200B0197D0072
:10040000D01B7800001E730040206E00902269000F
:10041000F024640040275F0090295A00E02B55002B
:10042000102E500020304B0010324600E0334100C7
:1004300090353C001037370070383200A0392D005D
:10044000B03A2800A03B2300603C1E00103D19007C
:10045000903D1400103E0F00703E0A00C03E0500A3
:10046000003F00004D383420582059205A204500C4
:1004700043616E6E6F7420656E7465722073756271
:100480006469723A20004D3234004D3233202573B6
:10049000006175746F25692E67006572726F722036
:1004A00077726974696E6720746F2066696C650085
:1004B0004E6F74207072696E74696E67000A002F47
:1004C000005344207072696E74696E67206279749B
:1004D0006520000A002E0044656C6574696F6E200B
:1004E0006661696C65642C2046696C653A2000463B
:1004F000696C652064656C657465643A002E006FF4
:1005000070656E206661696C65642C2046696C6557
:100510003A200057726974696E6720746F206669AB
:100520006C653A20002E006F70656E206661696C04
:1005300065642C2046696C653A20002E006F70655A
:100540006E206661696C65642C2046696C653A2092
:100550000046696C652073656C6563746564002092
:1005600053697A653A200046696C65206F70656E44
:1005700065643A20002E006F70656E206661696CBC
:1005800065642C2046696C653A20004E6F772066C2
:10059000726573682066696C653A20004E6F77203B
:1005A000646F696E672066696C653A20002220706E
:1005B0006F73002220706172656E743A2200535589
:1005C00042524F5554494E452043414C4C20746192
:1005D000726765743A2200747279696E6720746F6D
:1005E0002063616C6C207375622D67636F64652096
:1005F00066696C6573207769746820746F6F206D0D
:10060000616E79206C6576656C732E204D415820A3
:100610006C6576656C2069733A005344206361729F
:1006200064206F6B006F70656E526F6F742066612F
:10063000696C656400766F6C756D652E696E6974A2
:10064000206661696C656400534420696E6974209A
:100650006661696C0000002110422063308440A56F
:1006600050C660E770088129914AA16BB18CC1AD79
:10067000D1CEE1EFF13112100273325222B5529411
:1006800042F772D662399318837BB35AA3BDD39CC9
:10069000C3FFF3DEE36224433420040114E664C79D
:1006A00074A44485546AA54BB528850995EEE5CF19
:1006B000F5ACC58DD55336722611163006D776F6B1
:1006C000669556B4465BB77AA719973887DFF7FE69
:1006D000E79DD7BCC7C448E5588668A7784008613D
:1006E0001802282338CCC9EDD98EE9AFF9488969B9
:1006F000990AA92BB9F55AD44AB77A966A711A5051
:100700000A333A122AFDDBDCCBBFFB9EEB799B5808
:100710008B3BBB1AABA66C877CE44CC55C222C03DC
:100720003C600C411CAEED8FFDECCDCDDD2AAD0B58
:10073000BD688D499D977EB66ED55EF44E133E32F0
:100740002E511E700E9FFFBEEFDDDFFCCF1BBF3AA8
:10075000AF599F788F8891A981CAB1EBA10CD12D97
:10076000C14EF16FE18010A100C230E3200450259A
:100770004046706760B9839893FBA3DAB33DC31C0E
:10078000D37FE35EF3B1029012F322D232354214EA
:100790005277625672EAB5CBA5A89589856EF54F5A
:1007A000E52CD50DC5E234C324A01481046674473A
:1007B0006424540544DBA7FAB79987B8975FE77EAE
:1007C000F71DC73CD7D326F2369106B0165766768A
:1007D00076154634564CD96DC90EF92FE9C899E9FA
:1007E000898AB9ABA94458654806782768C018E1DA
:1007F000088238A3287DCB5CDB3FEB1EFBF98BD84E
:100800009BBBAB9ABB754A545A376A167AF10AD029
:100810001AB32A923A2EFD0FED6CDD4DCDAABD8B99
:10082000ADE89DC98D267C076C645C454CA23C8379
:100830002CE01CC10C1FEF3EFF5DCF7CDF9BAFBAED
:10084000BFD98FF89F176E367E554E745E932EB2C9
:100850003ED10EF01E53544F505045442E200050B0
:1008600072696E7465722073746F70706564206451
:10087000756520746F206572726F72732E204669E1
:100880007820746865206572726F7220616E6420D2
:10089000757365204D39393920746F207265737412
:1008A0006172742E202854656D7065726174757262
:1008B000652069732072657365742E2053657420FA
:1008C00069742061667465722072657374617274F4
:1008D000696E6729004B494C4C45442E20005072EC
:1008E000696E7465722068616C7465642E206B6932
:1008F0006C6C28292063616C6C656421006F6B004F
:10090000526573656E643A20002200556E6B6E6FFF
:10091000776E20636F6D6D616E643A2022004D32F8
:10092000323020532569005A204F66667365742063
:100930003A20007A5F6D61783A20007A5F6D696EC7
:100940003A20005A204F6666736574005A204F663D
:1009500066736574206F6B002200556E6B6E6F7747
:100960006E20636F6D6D616E643A2022007A5F6D58
:1009700061783A20007A5F6D696E3A2000795F6D88
:1009800061783A2000795F6D696E3A2000785F6D7A
:1009900061783A2000785F6D696E3A2000205A3AFB
:1009A0000020593A0020436F756E7420583A200099
:1009B00020453A00205A3A0020593A00583A004659
:1009C00049524D574152455F4E414D453A4D617236
:1009D0006C696E2056312E302E323B205370726976
:1009E0006E7465722F6772626C206D6173687570CA
:1009F00020666F722067656E36204649524D57411A
:100A000052455F55524C3A68747470733A2F2F6791
:100A100069746875622E636F6D2F4D61726C696EBB
:100A20004669726D776172652F4D61726C696E20D7
:100A300050524F544F434F4C5F56455253494F4EBF
:100A40003A312E30204D414348494E455F5459506C
:100A5000453A507275736120693320455854525598
:100A60004445525F434F554E543A31205555494401
:100A70003A30303030303030302D303030302D3072
:100A80003030302D303030302D303030303030306C
:100A900030303030300A0050727573612069332075
:100AA0004F66662E00507275736120693320707234
:100AB0006970726176656E6100426564204F4B2EED
:100AC0000020423A0020453A00543A005A616872C8
:100AD0006976616E69206265642E2E2E005A616807
:100AE000726976616E69204F4B2E0020573A0020C4
:100AF000453A00543A005A6168726976616E692E0F
:100B00002E2E002042403A0020403A00202F003A8A
:100B100000205400202F0020423A00202F006F6B4D
:100B200020543A002569206D696E2C2025692073B8
:100B3000656300456E642066696C65206C6973743A
:100B400000426567696E2066696C65206C69737424
:100B5000004E6F206D6F76652E00507275736120A8
:100B600069332070726970726176656E61004F62E0
:100B70006E6F76656E69207469736B750057616975
:100B80007420666F7220757365722E2E2E00536C62
:100B90006565702E2E2E00256920686F7572732092
:100BA0002569206D696E7574657300446F6E6520EC
:100BB0007072696E74696E672066696C6500535463
:100BC0004F505045442E20005072696E746572205B
:100BD00073746F707065642064756520746F206530
:100BE00072726F72732E2046697820746865206572
:100BF00072726F7220616E6420757365204D393991
:100C00003920746F20726573746172742E202854B9
:100C1000656D7065726174757265206973207265A7
:100C20007365742E20536574206974206166746541
:100C3000722072657374617274696E6729004E6FF9
:100C4000204C696E65204E756D62657220776974FF
:100C50006820636865636B73756D2C204C617374D9
:100C6000204C696E653A20004E6F20436865636BC7
:100C700073756D2077697468206C696E65206E7578
:100C80006D6265722C204C617374204C696E653AFC
:100C90002000636865636B73756D206D69736D61AA
:100CA0007463682C204C617374204C696E653A2023
:100CB000004C696E65204E756D6265722069732007
:100CC0006E6F74204C617374204C696E65204E7594
:100CD0006D6265722B312C204C617374204C696EEF
:100CE000653A20004D31313000446F6E65207361EC
:100CF00076696E672066696C652E006F6B004D32F9
:100D000039002020506C616E6E65724275666665B2
:100D10007242797465733A20002046726565204DF1
:100D2000656D6F72793A20004A616E20323620324A
:100D300030313600436F6D70696C65643A2000286D
:100D40006E6F6E652C2064656661756C7420636FD0
:100D50006E6669672900207C20417574686F723A5D
:100D600020004A616E20323620323031362031394F
:100D70003A33383A323600204C617374205570642F
:100D8000617465643A2000312E302E32004D61725C
:100D90006C696E0020536F667477617265205265CE
:100DA00073657400205761746368646F67205265CF
:100DB000736574002042726F776E206F75742052D5
:100DC00065736574002045787465726E616C20529D
:100DD0006573657400506F77657255700073746148
:100DE0007274002200656E717565696E672022005D
:100DF0002200656E717565696E67202200FFFFFF36
:100E00000000A0400000A040000000400000564349
:100E1000000046431FC548430000000000000000DA
:100E20001F856B3E000056430000464300004943C7
:100E300000000000000000001F856B3E6563686FC6
:100E40003A004572726F723A004B6172746120769B
:100E5000796A6D757461004B6172746120766C6F94
:100E60007A656E610047312045343020463130309C
:100E7000004731204536352046343030004D383378
:100E800000473120452D38302046343030004D3871
:100E900033002D2D3A2D2D002D2D2D005344000112
:100EA00020000120004D3630300056796D656E69A6
:100EB000742066696C616D656E7400507275746F34
:100EC0006B00507275746F6B00527963686C6F734E
:100ED000742076656E742E00527963686C6F73743B
:100EE0002076656E742E004265640042656400548D
:100EF0007279736B6100547279736B61005279631C
:100F0000686C6F737400527963686C6F7374004817
:100F10006C61766E69206E616269646B61005A6310
:100F2000686C6164697400464C4558202D2020325D
:100F300035302F35300050502020202D20203235E4
:100F4000342F3130300048495053202D2020323288
:100F5000302F3130300050455420202D20203234A5
:100F6000302F393000504C4120202D20203232309B
:100F70002F35300041425320202D20203238352F8C
:100F800031303000486C61766E69206E6162696450
:100F90006B61004D3834004D383420582059205AA8
:100FA0002045004D3234004D323320257300052E8C
:100FB0002E00486C61766E69206E616269646B61B7
:100FC00000527963686C6F73742076656E742E00BE
:100FD000527963686C6F73742076656E742E00426C
:100FE00065640042656400547279736B61005472E9
:100FF00079736B61004E6173746176656E69005838
:101000000059005A0045787472756465720045781D
:1010100074727564657200506F73756E6F757420AD
:101020005A00506F73756E6F7574205900506F734E
:10103000756E6F75742058004E6173746176656EBD
:101040006900473238004175746F20686F6D650024
:101050004D3834005679706E6F7574206D6F746FF3
:10106000727900473238205A004B616C6962726FA6
:10107000766174205A00506F73756E6F7574206FAF
:101080007375005465706C6F746100486C61766EA6
:1010900069206E616269646B61005265763A203343
:1010A00030302D316100686F77746F2E70727573F8
:1010B0006133642E636F6D00666F72756D2E707292
:1010C00075736133642E636F6D0070727573613375
:1010D000642E636F6D004669726D77617265202DB5
:1010E00020322E322E3200486C61766E69206E619D
:1010F0006269646B6100506F64706F7261004E6171
:1011000073746176656E690056796A6D6F757420C7
:1011100066696C616D656E74005A617665737420E2
:1011200066696C616D656E74005A61646E6120530E
:1011300044206B61727461005469736B207A205390
:1011400044005A61737461766974207469736B002A
:10115000506F6B7261636F76617400506F7A617368
:101160007461766974207469736B0050726564658C
:1011700068726576004C6164697400496E666F72CE
:101180006D6163650048617264636F6465642044E7
:10119000656661756C742053657474696E6773203D
:1011A0004C6F616465640046696C616D656E7420A6
:1011B00073657474696E67733A2044697361626C15
:1011C0006564002020204D32303020440046696C98
:1011D000616D656E742073657474696E67733A002F
:1011E0002020204D3230392053004175746F2D522C
:1011F0006574726163743A20533D3020746F2064CB
:10120000697361626C652C203120746F20696E7483
:1012100065727072657420657874727564652D6F7F
:101220006E6C79206D6F76657320617320726574C2
:101230007261637473206F72207265636F7665727A
:10124000696573002046002020204D32303820533D
:10125000005265636F7665723A20533D457874722B
:1012600061206C656E67746820286D6D2920463A90
:10127000537065656420286D6D2F6D2900205A001C
:101280002046002020204D32303720530052657414
:10129000726163743A20533D4C656E677468202810
:1012A0006D6D2920463A537065656420286D6D2F59
:1012B0006D29205A3A205A4C69667420286D6D2990
:1012C000002044002049002020204D3330312050A0
:1012D000005049442073657474696E67733A002046
:1012E0005A0020590020204D323036205800486FD7
:1012F0006D65206F666673657420286D6D293A00F0
:10130000204500205A002058002042002054002090
:10131000204D323035205300416476616E63656440
:10132000207661726961626C65733A20533D4D6944
:101330006E20666565647261746520286D6D2F731B
:10134000292C20543D4D696E2074726176656C20A5
:10135000666565647261746520286D6D2F73292C34
:1013600020423D6D696E696D756D207365676D65B1
:101370006E742074696D6520286D73292C20583D8A
:101380006D6178696D756D205859206A65726B20A2
:10139000286D6D2F73292C20205A3D6D6178696D61
:1013A000756D205A206A65726B20286D6D2F732928
:1013B0002C2020453D6D6178696D756D2045206A52
:1013C00065726B20286D6D2F73290020540020203A
:1013D0004D323034205300416363656C6572617433
:1013E000696F6E3A20533D616363656C6572617429
:1013F000696F6E2C20543D72657472616374206154
:101400006363656C65726174696F6E0020450020CE
:101410005A0020590020204D3230312058004D61B3
:1014200078696D756D20416363656C65726174697F
:101430006F6E20286D6D2F7332293A0020450020F1
:101440005A0020590020204D3230332058004D6181
:1014500078696D756D206665656472617465732069
:10146000286D6D2F73293A00204500205A0020591D
:101470000020204D3932205800537465707320705D
:10148000657220756E69743A0045303A20005A3A08
:101490002000593A2000583A20004D53312C4D532A
:1014A000322050696E730A00656E6473746F7073D6
:1014B000206869743A205A00205A3A00656E6473B5
:1014C000746F7073206869743A20590020593A008B
:1014D000656E6473746F7073206869743A20580085
:1014E00020583A00656E6473746F70732068697475
:1014F0003A200024F4D43050C38E20C2A240178278
:101500008B7011127A910D816CD90AA861E108C71C
:10151000586607615143061E4B5D05C145A7041A75
:10152000411104093D9803713931034036DB0265EE
:10153000339102D4305402802E1D02632CEE0175CB
:101540002AC501B028A001102781018F2564012B35
:10155000244B01E0223401AC211F018D200D0180BC
:101560001FFC00841EED00971DDF00B81CD200E6B2
:101570001BC600201BBC00641AB200B219A8000AE6
:1015800019A0006A189900D117910040178B00B577
:1015900016840031167E00B31579003A157300C722
:1015A000146F0058146A00EE136600881363002558
:1015B000135E00C7125B006C12570015125400C175
:1015C00011510070114F0021114B00D61049008DB0
:1015D0001047004610440002104200C00F40008037
:1015E0000F3E00420F3C00060F3B00CB0E3800932D
:1015F0000E37005C0E3500270E3400F30D3200C1AB
:101600000D3100900D3000600D2E00320D2D0005C3
:101610000D2C00D90C2B00AE0C2900850C29005C88
:101620000C2700350C27000E0C2600E80B2400C404
:101630000B2400A00B23007D0B23005A0B21003943
:101640000B2100180B2000F80A1F00D90A1E00BB4E
:101650000A1E009D0A1D00800A1D00630A1C004727
:101660000A1B002C0A1B00110A1A00F7091A00DDD8
:10167000091900C4091900AB091900920917007B68
:10168000091800630917004C0916003609160020D6
:101690000916000A091500F5081500E0081400CC29
:1016A000081400B8081400A4081400900813007D62
:1016B0000812006B08130058081200460812003484
:1016C000081100230811001208110001081100F090
:1016D000071000E0071000D0071000C0071000B08E
:1016E000070F00A107100091070E0083070F007479
:1016F000070F0065070E0057070E0049070E003B55
:10170000070D002E070E0020070D0013070D000621
:10171000070D00F9060C00ED060D00E0060C00D4E4
:10172000060C00C8060C00BC060C00B0060C00A499
:10173000060B0099060C008D060B0082060B007745
:10174000060B006C060B0061060A0057060B004CE6
:10175000060A0042060A0038060A002E060A00247D
:10176000060A001A060A001006090007060A00FD0C
:10177000050900F4050900EB050900E2050900D997
:10178000050900D0050900C7050900BE050900B517
:10179000050800AD050800A50509009C0508009492
:1017A0000508008C050800840508007C0508007405
:1017B0000508006C050700650508005D0507005673
:1017C0000508004E050700470507004005080038DA
:1017D000050700310507002A050700230507001C3F
:1017E000050600160507000F05070008050600029C
:1017F000050700FB040600F5040700EE040600E8F8
:10180000040600E2040700DB040600D5040600CF4E
:10181000040600C9040600C3040600BD040600B7A0
:10182000040600B1040500AC040600A6040600A0EE
:101830000405009B04060095040500900406008A38
:1018400004050085040500800406007A040500757F
:10185000040500700405006B0405006604050061C2
:101860000405005C04050057040500520405004D02
:1018700004050048040500430405003E0404003A42
:1018800004050035040500300404002C040500277D
:10189000040400230405001E0404001A04040016B6
:1018A000040500110404000D0404000904050004EB
:1018B00004040000040400FC030400F8030400F422
:1018C000030400F0030400EC030400E8030400E454
:1018D000030400E0030400DC030400D8030400D484
:1018E000030400D0030400CC030400C8030300C5B4
:1018F00003030024F404D9201BC40C5C0E9804C418
:10190000095F0265077101F405F900FB04B30048A3
:10191000048700C10369005803550003034500BE56
:10192000023A008402310053022A002902250004F1
:10193000022000E4011C00C8011900AF0117009843
:1019400001140084011300710110006101100051A5
:10195000010E0043010D0036010B002B010B00208E
:10196000010B00150109000C01090003010800FB2F
:10197000000800F3000800EB000700E4000600DEAA
:10198000000600D8000600D2000600CC000500C703
:10199000000500C2000500BD000400B9000400B548
:1019A000000400B1000400AD000400A9000400A57B
:1019B000000300A20003009F0004009B00030098A6
:1019C0000003009500020093000300900003008DC7
:1019D0000002008B000300880002008600020084E1
:1019E000000300810002007F0002007D0002007BF6
:1019F0000002007900020077000100760002007406
:101A000000020072000100710002006F0002006D10
:101A10000001006C0002006A00010069000200671A
:101A20000001006600010065000100640002006220
:101A300000010061000100600001005F0002005D24
:101A40000001005C0001005B0001005A0001005928
:101A50000001005800010057000100560001005528
:101A60000001005400010053000000530001005227
:101A700000010051000100500001004F0001004E24
:101A80000000004E0001004D0001004C0001004B21
:101A90000000004B0001004A00010049000100481D
:101AA0000000004800010047000100460000004619
:101AB0000001004500000045000100440001004312
:101AC000000000430001004200000042000100410C
:101AD00000000041000100400001003F0000003F05
:101AE0000001003E0000003E0001003D0000003DFE
:101AF0000001003C0000003C0000003C0001003BF5
:101B00000000003B0001003A0000003A00010039EB
:101B100000000039000100380000003800000038E3
:101B200000010037000000370001003600000036D9
:101B300000000036000100350000003500000035CF
:101B400000010034000000340000003400010033C4
:101B500000000033000000330001003200000032BA
:101B600000000032000100310000003100000031AF
:101B70000001003000000030000000300001002FA4
:101B80000000002F0000002F0000002F0001002E99
:101B90000000002E0000002E0001002D0000002D8E
:101BA0000000002D0000002D0001002C0000002C82
:101BB0000000002C0000002C0001002B0000002B76
:101BC0000000002B0000002B0001002A0000002A6A
:101BD0000000002A0000002A00010029000000295E
:101BE0000000002900000029000000290001002851
:101BF0000000002800000028000000280000002845
:101C00000001002700000027000000270000002737
:101C1000000000270001002600000026000000262A
:101C2000000000260000002600010025000000251D
:101C30000000002500000025000000250000002510
:101C40000001002400000024000000240000002403
:101C500000000024000100230000002300000023F6
:101C600000000023000000230000002300000023E8
:101C700000010022000000220000002200000022DB
:101C800000000022000000220001002100000021CD
:101C900000000021000000210000002100000021C0
:101CA00000000021000100200000002000000020B2
:101CB00000000020000000200000002000000020A4
:101CC000000000200001001F0000001F0000001F96
:101CD0000000001F0000001F0000001F0000001F88
:101CE0000001001E0000001E0000001E0000001E7B
:101CF00000000020746F6F206C6F6E672065787431
:101D0000727573696F6E2070726576656E74656446
:101D10000020636F6C6420657874727573696F6EF0
:101D20002070726576656E746564000000090A02B1
:101D3000080B0C0D07060304010000000000000062
:101D40000000000000000000000000000000000093
:101D50000000000000000011100F00000000000053
:101D60000000000000000000000000000000000073
:101D70000000000000000000000000000000000063
:101D8000000102102020080810204010204080028E
:101D900001020108040201010204081020408080B1
:101DA0004020100804020180040201804020100835
:101DB000040201080402010102040810204080010D
:101DC00002040810204080100804088010204004FD
:101DD0004080102040048005050505070508080817
:101DE00008020202020A0A080804040404010101AC
:101DF00001010101010303030303030303040707B4
:101E0000070C0C0C0C0C0C0C0C0202020206060651
:101E100006060606060B0B0B0B0B0B0B0B07070A34
:101E20000A0A0A0A0A050505040404080800002035
:101E3000002300260029002C002F003200000100A2
:101E40000003010601090100002200250028002BE3
:101E5000002E003100340002010000050108010BD2
:101E60000100002100240027002A002D003000334B
:101E70000001010000040107010A01024E414E4920
:101E80004E495459494E46CDCCCC3D0AD7233C1738
:101E9000B7D13877CC2B329595E6241FB14F0A0085
:101EA0000020410000C84200401C4620BCBE4CCA75
:101EB0001B0E5AAEC59D74006D64917E87A6716439
:101EC00011241FBECFEFD1E2DEBFCDBF00E00CBFBB
:101ED00015E0A0E0B2E0E6E9F3E701E00BBF02C0E5
:101EE00007900D92A03EB107D9F724E1A0EEB5E02E
:101EF00001C01D92AB3BB207E1F71EE1CEEBDEE184
:101F000000E006C022970109FE010BBF0E9472B3D8
:101F1000C83BD10780E00807A9F70E948BAA0C9460
:101F2000BAB90C940000CF93DF93EC019C012C5FB5
:101F30003F4F41E050E060E070E0898D9A8D0E9453
:101F4000351A882399F04D895E896F89788D452BE4
:101F5000462B472B59F44C815D816E817F814D8BDF
:101F60005E8B6F8B788F998190689983DF91CF9189
:101F70000895CF92DF92EF92FF920F931F93CF932A
:101F8000DF93EC0189899A89AB89BC89803E9F4F98
:101F9000AF41B10510F080E06BC0CE01C4DF8823F3
:101FA000D1F30E944918182F8823A9F3E98DFA8DDF
:101FB000CC80DD80EE80FF8032E0C31AD108E108DA
:101FC000F108058404C0CC0CDD1CEE1CFF1C0A9437
:101FD000D2F786859785A089B189C80ED91EEA1ED9
:101FE000FB1E81E08093E605C092E907D092EA07E4
:101FF000E092EB07F092EC0780E092E0E9EEF5E08A
:10200000DF019C011D9221503040E1F701E0E98D94
:10201000FA8D8481081790F429EE35E0B701A60106
:10202000400F511D611D711D8091E7059091E805DC
:102030000E94CF3C8823E1F00F5FE9CFC12C82E002
:10204000D82EE12CF12C058404C0CC0CDD1CEE1C38
:10205000FF1C0A94D2F749895A896B897C894C0DF7
:102060005D1D6E1D7F1D498B5A8B6B8B7C8B812F69
:10207000DF91CF911F910F91FF90EF90DF90CF9064
:102080000895CF93DF93EC0141E0611101C040E07E
:102090006C857D858E859F850E948918882341F0F7
:1020A000888920E2829FC001112487519A4F02C083
:1020B00080E090E0DF91CF91089530E020E04EE2A3
:1020C000DC015C91503271F0383029F4FB01E20FF1
:1020D000F11D40832F5FFB01E20FF11DDC015C91DC
:1020E00050832F5F3F5F01963B3051F7FB01E20FBA
:1020F000F11D10820895CF93DF93EB01FC01238142
:10210000211102C080E00EC02250223020F48FE264
:102110008883198206C060E0B4DF009799F3BE019E
:10212000CCDF81E0DF91CF910895FB012BE030E21D
:1021300031932150E9F7DC0190E027E03A2FEB2FB3
:102140008D9181110AC0DA013C931196EC9381E0E4
:10215000FB019081903239F525C08F32A1F38E3288
:1021600019F0EAE8F1E008C02A30E1F098E02AE04E
:10217000E5CF31963817B1F034913111FACF2917E4
:1021800088F03FED380F3E3568F431E0390FFB0140
:10219000E90FF11D9FE9980F9A3108F4805280836E
:1021A000932FCCCF80E008950F931F93CF93DF93AD
:1021B000EC018B018B81882311F080E042C0FB0190
:1021C0008789803139F18032C1F783E08B83F80150
:1021D000428D538D648D758D4D8B5E8B6F8B788F9B
:1021E0009E012F5E3F4FC8010E944019882329F3AA
:1021F0001A8F098F81E089831C821D821E821F82B3
:10220000188619861A861B861C861D861E861F86C2
:10221000188A17C082E08B831D8A1E8A1F8A188E37
:10222000FB01408D518D60E070E095E0440F551F3B
:10223000661F771F9A95D1F7498B5A8B6B8B7C8BD6
:10224000D7CFDF91CF911F910F9108952F923F9299
:102250004F925F926F927F928F929F92AF92BF92B6
:10226000CF92DF92EF92FF920F931F93CF93DF9362
:10227000EC015B016A018B81811103C08FEF9FEF3D
:10228000C7C0898180FFFACF49895A896B897C89C7
:1022900088859985AA85BB852601612C712C8A01C8
:1022A0009B01081B190B2A0B3B0B401651066206BB
:1022B000730618F06A01C81AD90A76013E0124E0B3
:1022C000620E711CE114F10409F476C04885598549
:1022D0006A857B854A0181E098222B811A012B01B6
:1022E000E9E05694479437942794EA95D1F7898D7D
:1022F0009A8DFC01223049F4628D738D848D958D09
:10230000620D731D841D951D3CC014811150122156
:1023100081149104C1F4111116C0452B462B472B93
:1023200049F48D899E89AF89B88D8C839D83AE8356
:10233000BF8309C04C815D816E817F81930121D76C
:10234000882309F49BCFE98DFA8D6C817D818E8184
:102350009F816250710981099109058404C0660F4B
:10236000771F881F991F0A94D2F7268537854089E1
:102370005189620F731F841F951F610F711D811D8D
:10238000911D20E032E02819390987012E153F05FB
:1023900008F489010115F2E01F0769F52091E907AA
:1023A0003091EA074091EB075091EC0762177307F1
:1023B0008407950719F41FC0C6012AC09501AB0117
:1023C000BC018091E7059091E8050E945A3C882362
:1023D00009F454CFA00EB11E88859985AA85BB85C6
:1023E000800F911FA11DB11D88879987AA87BB8780
:1023F000E01AF10A67CF40E08CD6882309F43ECF7B
:10240000B40167517A4FA801C5010E948FB6E2CF8F
:10241000DF91CF911F910F91FF90EF90DF90CF90C0
:10242000BF90AF909F908F907F906F905F904F90F4
:102430003F902F900895CF93DF931F92CDB7DEB7D3
:1024400041E050E0BE016F5F7F4F00DF019719F45C
:10245000898190E002C08FEF9FEF0F90DF91CF91C5
:102460000895CF92DF92EF92FF920F931F93CF9335
:10247000DF936C01EB017A01FC018381823060F013
:1024800000851185228533850F7111272227332777
:10249000012B022B032B11F08FEF5CC0411551056E
:1024A00011F0F70110821DE040E250E0BE01C601CC
:1024B000CDDE8032910539F021E0892B09F420E04E
:1024C000822F819547C028812223C1F0253E61F3E8
:1024D0002E3251F33B853F733F3061F4E114F10438
:1024E00049F04A8D5B8D452B29F42F713FEF320F58
:1024F000343030F02B8523FDD7CF2CC080E02AC0AC
:1025000030E021503109129FC001139F900D11241A
:10251000F701E80FF91F298120832B8121832D8169
:1025200022832F812383298524832E85258328894F
:1025300026832A8927832C8920872E892187288D25
:1025400022872C8D23872E8D2487288126FFD2CFAA
:102550001586D0CFDF91CF911F910F91FF90EF9013
:10256000DF90CF9008951F93CF93DF93EC018B8181
:10257000823018F480E090E023C0488559856A8550
:102580007B85A5E07695679557954795AA95D1F7F0
:10259000142F1F70CE014FDF97FDECCF4885598572
:1025A0006A857B85415E5F4F6F4F7F4F48875987B4
:1025B0006A877B8720E2129FC001112487519A4FBE
:1025C000DF91CF911F9108954F925F926F927F920A
:1025D000AF92BF92CF92DF92EF92FF920F931F9331
:1025E000CF93DF93EC016A017B012B81222349F019
:1025F00089899A89AB89BC8984179507A607B7078B
:1026000010F480E06BC0223009F463C0C114D1041F
:10261000E104F10449F41C821D821E821F82188687
:1026200019861A861B8659C088859985AA85BB8517
:10263000E98DFA8DE585F0E03996AC01BD01415098
:102640005109610971090E2E04C076956795579559
:1026500047950A94D2F79701860101501109210983
:10266000310904C03695279517950795EA95D2F755
:10267000041715072607370720F0892B8A2B8B2B89
:1026800049F48D899E89AF89B88D8C839D83AE83F3
:10269000BF8304C0041B150B260B370B280139011F
:1026A0005E0184E0A80EB11C411451046104710460
:1026B00081F04C815D816E817F819501898D9A8D3C
:1026C00060D591E0491A5108610871088111ECCF79
:1026D00005C0C886D986EA86FB8681E0DF91CF9166
:1026E0001F910F91FF90EF90DF90CF90BF90AF9030
:1026F0007F906F905F904F9008950F931F93CF93AB
:10270000DF93EC018B818823D1F1898187FF32C06F
:1027100061E0CE01B6DC8C01009789F1FC0180817B
:10272000853E69F18B81823040F449895A896B89F1
:102730007C89448F558F668F778F4D895E896F892D
:10274000788DF801538F428F758B648BE091E00593
:10275000F091E105309759F0B8016A5E7F4FC801EA
:1027600048961995F801808D918D938B828B898184
:102770008F778983DF91CF911F910F918AC481E078
:10278000888380E0DF91CF911F910F910895CF93BF
:10279000DF93EC01B2DF1B82DF91CF910895FC0142
:1027A00023812111F4CF08954F925F926F927F920F
:1027B000AF92BF92CF92DF92EF92FF920F931F934F
:1027C000CF93DF9300D01F92CDB7DEB75C016A01D3
:1027D0007B01FC0183818130E9F4818181FF1AC092
:1027E000F50181899289A389B48984179507A60781
:1027F000B70780F0892B8A2B8B2B09F472C0F50167
:102800004084518462847384B701A601C501DCDE73
:10281000811102C080E066C0F501818D928DC114E6
:10282000D104E104F10469F4458956896789708D02
:1028300025D7882379F3F501158A168A178A108E11
:1028400037C0F50144815581668177819E012F5FF4
:102850003F4F97D48823F1F249815A816B817C8163
:10286000F501818D928DFC012789203139F4483F93
:10287000FFEF5F0761057105D8F407C0483F2FEFF0
:10288000520762072FE0720798F4F8D6882309F4FC
:10289000C1CFF50144815581668177810FEF1FEF2C
:1028A0002FEF3FE0818D928D51D5882309F4B2CF6F
:1028B000F501C18AD28AE38AF48A818180688183A2
:1028C000C5011BDF882309F4A5CFB701A6014C146D
:1028D0005D046E047F0410F4B301A201C50174DE2F
:1028E00001C081E00F900F900F900F90DF91CF917A
:1028F0001F910F91FF90EF90DF90CF90BF90AF901E
:102900007F906F905F904F900895FF920F931F9369
:10291000CF93DF93EC01F42E80E2689FF001112445
:10292000E751FA4F8385817121F0842F827109F07C
:102930004EC08091E9079091EA07A091EB07B09112
:10294000EC078C879D87AE87BF87688B4489558944
:1029500060E070E0BA0155274427028D138D20E016
:1029600030E0402B512B622B732B4D8B5E8B6F8B8A
:10297000788F8385887151F4048D158D268D378D60
:10298000098B1A8B2B8B3C8B81E00BC08031F9F4C7
:102990009E012F5E3F4F898D9A8D72D48823B9F0A6
:1029A00084E08B838F2D8F7089831C821D821E8211
:1029B0001F82188619861A861B86F4FE0BC040E01B
:1029C00050E0BA01CE01F0DE811104C011C01B82BB
:1029D00080E00EC0F5FE0BC049895A896B897C895D
:1029E000CE01DF91CF911F910F91FF90EDCD81E04E
:1029F000DF91CF911F910F91FF900895AF92BF92F9
:102A0000CF92DF92EF92FF920F931F93CF93DF93BA
:102A10007C01EB016A01B22E898D9A8DF701928FAC
:102A2000818F40E050E0BA01CE01CEDDA12C0885B7
:102A300019852A853B8589899A89AB89BC890817BC
:102A400019072A073B07A0F585E0369527951795C6
:102A500007958A95D1F70F70CE0185DD009709F4AF
:102A600081C0FC012081222311F0253EB9F4A11080
:102A70000EC04091E9075091EA076091EB07709111
:102A8000EC07F7014487558766877787008BFC0141
:102A90008081AA24A3948111CACF0AC04BE050E0E0
:102AA000BC01C6010E9482B6892B09F0C0CF58C074
:102AB0008B2D8274823409F055C0AA2049F0F701A9
:102AC000008961E0C701DDDAEC01009769F44AC0D2
:102AD0008B81823009F446C0CE014BDA882309F499
:102AE00041C0C9EED5E000E080E2FE0111928A9576
:102AF000E9F78BE0F601DE0101900D928A95E1F78E
:102B0000E091E005F091E105309739F0BE01625F98
:102B10007F4FCE014096199508C081E298E2998BCB
:102B2000888B80E098E09F878E87888999899B8B26
:102B30008A8B998F888F8E859F859F8B8E8BA9D24C
:102B4000882381F04B2D602FC701DF91CF911F911A
:102B50000F91FF90EF90DF90CF90BF90AF90D5CEC8
:102B6000B7FEF0CF80E0DF91CF911F910F91FF90E2
:102B7000EF90DF90CF90BF90AF9008953F924F922B
:102B80005F926F927F928F929F92AF92BF92CF92FD
:102B9000DF92EF92FF920F931F93CF93DF93CDB706
:102BA000DEB7C354D1090FB6F894DEBF0FBECDBF58
:102BB0005C016B0124965FAF4EAF2497522E1C8EA2
:102BC0001F8E19821C826115710511F410E073C00B
:102BD000FC0183818111FACF2496EEADFFAD2497DD
:102BE00080818F3211F076011DC02496EEADFFADCD
:102BF000249780818F3231F431962496FFAFEEAF67
:102C00002497F3CFF60183818250823060F3F6017E
:102C1000618D728DCE010196C7DA8823B9F2CE019B
:102C200001967C018E01045E1F4F3801FE01319632
:102C30004F01402E312E19C08823A9F121E0AE01A9
:102C4000495C5F4FB701C801D9DE882309F4BECFC4
:102C5000EC14FD0411F0C7019ADD0615170501F10A
:102C6000942D832D7801092F182FAE014E5B5F4FF5
:102C7000BE01695C7F4F24968EAD9FAD249755DAD7
:102C8000882309F4A3CF2496EEADFFAD249780816D
:102C90008F3291F631962496FFAFEEAF2497F3CFA3
:102CA000982D892DDFCF252DAE01495C5F4FB701EF
:102CB000C501A4DE182FCE01019671DDCE014C9620
:102CC0006EDD812FCD5BDF4F0FB6F894DEBF0FBEF8
:102CD000CDBFDF91CF911F910F91FF90EF90DF90CB
:102CE000CF90BF90AF909F908F907F906F905F90AC
:102CF0004F903F900895CF93DF93EC0140E050E078
:102D0000BA0152DD882361F061E0CE01BAD90097A3
:102D100039F025EEFC0120831B82DF91CF91B9C1F0
:102D200080E0DF91CF9108951F93CF93DF93CDB7CC
:102D3000DEB76B970FB6F894DEBF0FBECDBFAB0109
:102D400019821C8222E0BC01CE01019617DF182FE8
:102D5000882321F0CE010196CEDF182FCE010196F7
:102D60001EDD812F6B960FB6F894DEBF0FBECDBF70
:102D7000DF91CF911F9108952F923F924F925F92D2
:102D80006F927F928F929F92AF92BF92CF92DF927B
:102D9000EF92FF920F931F93CF93DF9300D01F9278
:102DA0001F92CDB7DEB78C015B013A01DC011396AF
:102DB0008C9113978130C1F411968C9181FF14C0CE
:102DC00082FF18C0F801418952896389748980851E
:102DD0009185A285B38584179507A607B70751F09B
:102DE000C801F2DB811106C081E0F80180838FEF1A
:102DF0009FEF37C1630183C0D80159968D919C9193
:102E00005A97FC01F481F1501A012B0169E05694A4
:102E10004794379427946A95D1F7F221FD834A01AC
:102E200021E09222FF2309F476C080E092E0881925
:102E3000990976018C159D0508F47C01D8015996F5
:102E4000ED91FC915A9714962D903D904D905C9089
:102E50001797B2E02B1A310841085108058404C0C5
:102E6000220C331C441C551C0A94D2F78685978586
:102E7000A089B189280E391E4A1E5B1EED812E0ED7
:102E8000311C411C511CE114F2E0FF0609F089C01D
:102E90008091E9079091EA07A091EB07B091EC07C8
:102EA00082159305A405B50569F41092E6058FEF28
:102EB0009FEFDC018093E9079093EA07A093EB076B
:102EC000B093EC079501B201A1018091E7059091C3
:102ED000E8050E94CF3C882309F486CFF80180855D
:102EE0009185A285B3858E0D9F1DA11DB11D808783
:102EF0009187A287B387AE0CBF1CCE18DF08D8011C
:102F000018964D915D916D917C911B97C114D104E0
:102F100009F072CF7AC08114910409F086CF14961B
:102F20004D915D916D917C9117974115510561050A
:102F3000710559F455968D919D910D90BC91A02DE0
:102F40000097A105B10539F520C09E012F5F3F4FC5
:102F500018D1882309F448CF89819A81AB81BC813B
:102F6000F801218D328DF9012789203139F4883F0C
:102F7000FFEF9F07A105B10540F40DC0883F2FEF7B
:102F80009207A2072FE0B20730F0C8010E94930F0A
:102F900081114BCF29CFF80184839583A683B78312
:102FA00044CF8114910411F5D80118964D915D918B
:102FB0006D917C911B9751968D919D910D90BC9137
:102FC000A02D481759076A077B0780F062D0882335
:102FD00009F40ACF81E08093E6052092E907309258
:102FE000EA074092EB075092EC0707C041E0C201AC
:102FF000B1018FD0882309F4F7CEA701B501C40130
:1030000087519A4F0E948FB669CF51968D919D91AD
:103010000D90BC91A02DF801218184179507A6077A
:10302000B70738F4418B528B638B748B20682183F4
:103030000CC08091E0059091E105892B31F061147D
:10304000710419F02068F8012183D80111968C9140
:1030500083FD02C0C30105C0C8014FDB8111FACF57
:10306000C3CE0F900F900F900F900F90DF91CF91E4
:103070001F910F91FF90EF90DF90CF90BF90AF9096
:103080009F908F907F906F905F904F903F902F9088
:103090000895CF938091E6058823B9F14091E9071F
:1030A0005091EA076091EB077091EC0729EE35E04B
:1030B0008091E7059091E8050E94CF3CC82F8111CF
:1030C00002C0C0E023C04091E2055091E305609149
:1030D000E4057091E505411551056105710591F013
:1030E00029EE35E08091E7059091E8050E94CF3CFC
:1030F000882339F31092E2051092E3051092E4055B
:103100001092E5051092E60501C0C1E08C2FCF9129
:103110000895CF92DF92EF92FF92CF936B017C01E3
:10312000C42F8091E9079091EA07A091EB07B09135
:10313000EC078C159D05AE05BF05C9F0AADF81110E
:1031400002C080E018C029EE35E0B701A6018091E9
:10315000E7059091E8050E945A3C882391F3C092BC
:10316000E907D092EA07E092EB07F092EC0781E0E2
:10317000C1118093E605CF91FF90EF90DF90CF9043
:1031800008958F929F92AF92BF92CF92DF92EF926B
:10319000FF920F931F93CF93DF93EC016A017B01A2
:1031A000890189859A85AB85BC850196A11DB11DD4
:1031B00084179507A607B70710F480E054C08F89DD
:1031C000803129F49927872F762F652F0BC0803205
:1031D000A1F7CB01BA0127E096958795779567957A
:1031E0002A95D1F78B889C88AD88BE88680D791D9B
:1031F0008A1D9B1D8090E9079090EA07A090EB073D
:10320000B090EC07681579058A059B0581F48F89D4
:10321000803191F4DD24EE24FF24F601EE0FFF1F30
:10322000E751FA4F80819181A0E0B0E016C040E004
:1032300070DF8111ECCFC1CFE894C7F8DD24EE2414
:10324000FF24F601EE0FFF1FEE0FFF1FE751FA4FAD
:1032500080819181A281B381BF70F80180839183C5
:10326000A283B38381E0DF91CF911F910F91FF90F3
:10327000EF90DF90CF90BF90AF909F908F90089588
:103280004F925F926F927F92AF92BF92CF92DF92F6
:10329000EF92FF920F931F93CF93DF9300D01F9273
:1032A000CDB7DEB78C0149835A836B837C83590188
:1032B000C12CD12C7601412C42E0542E612C712C72
:1032C00049815A816B817C819E012F5F3F4FC801EC
:1032D00058DF882341F1D301C201F801058404C0FD
:1032E000880F991FAA1FBB1F0A94D2F7C80ED91EB8
:1032F000EA1EFB1E49815A816B817C81878980315E
:1033000039F481E0483F5F4F6105710538F4D8CF4B
:1033100081E0483F5F4F6F4F7F4090F2F501C082E0
:10332000D182E282F3820F900F900F900F90DF9185
:10333000CF911F910F91FF90EF90DF90CF90BF90B2
:10334000AF907F906F905F904F9008954F925F92F3
:103350006F927F928F929F92AF92BF92CF92DF92A5
:10336000EF92FF920F931F93CF93DF93EC014A01EB
:103370005B0128013901423051056105710508F4EE
:1033800062C049855A856B857C854F5F5F4F6F4F63
:103390007F4F481559056A057B0508F454C08F898D
:1033A000803129F4FF24EB2CDA2CC92C0CC080329C
:1033B00009F049C07501640177E0F694E794D79469
:1033C000C7947A95D1F74B895C896D897E89C40E43
:1033D000D51EE61EF71E41E0C701B6019ADE88231E
:1033E00091F19F89903159F49924AA24BB24F401C6
:1033F000EE0FFF1FE751FA4F5182408210C0E89450
:1034000087F89924AA24BB24F401EE0FFF1FEE0FC6
:10341000FF1FE751FA4F40825182628273829A897C
:10342000923090F04D815E816F8178854C0D5D1DED
:103430006E1D7F1D4093E2055093E3056093E40504
:103440007093E50501C080E0DF91CF911F910F914E
:10345000FF90EF90DF90CF90BF90AF909F908F90B4
:103460007F906F905F904F9008952F923F924F9270
:103470005F926F927F928F929F92AF92BF92CF9204
:10348000DF92EF92FF920F931F93CF93DF93CDB70D
:10349000DEB72F970FB6F894DEBF0FBECDBF1C016D
:1034A0004C875D876E877F873B872A87DC0119966B
:1034B0000D911D912D913C911C970F5F1F4F2F4F28
:1034C0003F4F0D831E832F833887EA85FB858080DD
:1034D0009180A280B38081149104A104B10431F0E1
:1034E000FFEF8F1A9F0AAF0ABF0A10C0DC018D9050
:1034F0009D90AD90BC90B1E0B9870C851D852E855F
:103500003F85013011052105310509F01986750146
:103510006401412C512C3201F10181859285A385F2
:10352000B485481659066A067B0608F04EC00D8120
:103530001E812F8138850C151D052E053F0550F481
:10354000F2E0CF2ED12CE12CF12CA2E08A2E912C8E
:10355000A12CB12C9E012F5F3F4FB701A601C101E5
:1035600010DE882391F149815A816B817C81D701DA
:10357000C6010196A11DB11D452B462B472B19F005
:103580004C015D010FC0AC01BD01481959096A0920
:103590007B090C851D852E853F85401751076207E5
:1035A000730741F01FEF411A510A610A710A6C0159
:1035B0007D01B2CF0FEF1FEF2FEF3FE0B701A60164
:1035C000C101C4DE8D83811113C01D823DC026015F
:1035D000370121E0421A51086108710897018601FC
:1035E000B301A201C101B2DE882379F37301620144
:1035F0008C149D04AE04BF0450F3AA85BB854D9185
:103600005D916D917C914115510561057105A9F49C
:10361000EA85FB8580829182A282B382F985FF23AD
:1036200099F00FEF801A900AA00AB00AD1018D928A
:103630009D92AD92BC92139707C095018401C10180
:1036400085DE8111E5CFC1CF8D812F960FB6F8941D
:10365000DEBF0FBECDBFDF91CF911F910F91FF90C5
:10366000EF90DF90CF90BF90AF909F908F907F9022
:103670006F905F904F903F902F900895AF92BF92C0
:10368000CF92DF92EF92FF920F931F93CF93DF932E
:1036900000D01F92CDB7DEB75C016A017B0182E0EA
:1036A00090E0A0E0B0E0F50180839183A283B38332
:1036B0009E012F5F3F4FB701A601C50162DD811159
:1036C00002C080E023C000E010E09801B701A6012D
:1036D000C5013CDE8823A9F3C980DA80EB80FC8039
:1036E000F5018789803149F481E0F8EFCF16FFEFCB
:1036F000DF06E104F10450F4DBCF81E098EFC91656
:103700009FEFD906E9069FE0F90690F20F900F901F
:103710000F900F90DF91CF911F910F91FF90EF903D
:10372000DF90CF90BF90AF9008957F928F929F923D
:10373000AF92BF92CF92DF92EF92FF920F931F93BF
:10374000CF93DF93EC01142F7093E8056093E705A6
:103750001F8A82E090E0A0E0B0E088839983AA838A
:10376000BB831092E6051092E2051092E3051092D9
:10377000E4051092E5058FEF9FEFDC018093E907E8
:103780009093EA07A093EB07B093EC07442349F129
:10379000453008F0DEC040E060E070E0CB01B9DC0D
:1037A000882309F4D6C020E1129FF0011124E956C4
:1037B000F84F80818F7709F0CCC084859585A685E8
:1037C000B78584369105A105B10508F4C2C0C0844F
:1037D000D184E284F384C114D104E104F10421F41E
:1037E000B8C0C12CD12C760140E0C701B60191DCF4
:1037F000782E882309F4ADC08091F4059091F505E9
:103800008115924009F0A5C03091F905332309F4E0
:10381000A0C08091F7059091F805892B09F499C013
:103820002091F605222309F494C03A8B2C831D863F
:1038300030E041E050E06D85062FCA01062E02C03F
:10384000880F991F0A94E2F72817390731F081E0B1
:10385000860F8D87683078F37CC02091FF0530910A
:1038600000062115310519F040E050E008C0209114
:103870000D0630910E0640910F06509110062D83D3
:103880003E834F8358878091F7059091F805460154
:103890005701880E991EA11CB11C8B8A9C8AAD8A87
:1038A000BE8AE091FA05F091FB05F98FE88FA091AF
:1038B000F905B0E00E9462B3680D791D8A1D9B1D59
:1038C0006A8F7B8F8C8F9D8FB5E0EE0FFF1FBA95AF
:1038D000E1F7E150FE4FEF2FFF27E695DC01CB012A
:1038E0008E0F9F1FA11DB11D8E879F87A88BB98B3F
:1038F0008090FC059090FD058114910419F0A12C95
:10390000B12C08C08090090690900A06A0900B0682
:10391000B0900C06A7019601281B390B4A0B5B0BD4
:10392000DA01C901880D991DAA1DBB1D04C0B695F9
:10393000A795979587950A95D2F789879A87AB8738
:10394000BC87853F3FE09307A105B10520F48CE0DB
:103950008F8B712C15C0853F9F4FA105B10510F4C9
:1039600080E10DC08091150690911606A091170672
:10397000B09118068A8F9B8FAC8FBD8F80E28F8BA2
:10398000872DDF91CF911F910F91FF90EF90DF90E6
:10399000CF90BF90AF909F908F907F9008954F925F
:1039A0005F926F927F928F929F92AF92BF92CF92CF
:1039B000DF92EF92FF920F931F93CF93DF932C012F
:1039C00024E733E081E090E0F901459154914416F9
:1039D00055060CF062C0AC0141505109DA01AA0F42
:1039E000BB1FAA0FBB1FAE58BC4FFD016591749160
:1039F000440F551F440F551F40595C4FFA01659005
:103A00007490FC01EE0FFF1FEE0FFF1FEE58FC4FEE
:103A1000A590B490FD0105911491F901C591D4913F
:103A2000FA0185909490882777FD8095982F0E94C1
:103A3000DCAF6B017C01B20166197709882777FD3D
:103A40008095982F0E94DCAF2B013C01B501601BD3
:103A5000710B882777FD8095982F0E94DCAF9B0122
:103A6000AC01C301B2010E940FB22B013C01BE01A7
:103A700068197909882777FD8095982F0E94DCAF17
:103A80009B01AC01C301B2010E9441AF9B01AC019B
:103A9000C701B6010E9461AE11C001962C5F3F4F75
:103AA0008D33910509F090CFE2E6F4E065917491D1
:103AB000882777FD8095982F0E94DCAFDF91CF910A
:103AC0001F910F91FF90EF90DF90CF90BF90AF903C
:103AD0009F908F907F906F905F904F9008954F923E
:103AE0005F926F927F928F929F92AF92BF92CF928E
:103AF000DF92EF92FF920F931F93CF93DF932C01EE
:103B0000662371F1E2E4FEE08491882341F0909114
:103B1000C00095FFFCCF8093C6003196F5CF70E0D2
:103B20004AE050E08AE99DE00E94F48AE9E5F2E08B
:103B30008491882341F09091C00095FFFCCF809341
:103B4000C6003196F5CF8091C00085FFFCCF8AE09A
:103B50008093C6000E940A4660E070E0CB017EC000
:103B600024E733E081E090E0F90145915491441657
:103B700055060CF062C0AC0141505109DA01AA0FA0
:103B8000BB1FAA0FBB1FAE58BC4FFD0165917491BE
:103B9000440F551F440F551F40595C4FFA01659063
:103BA0007490FC01EE0FFF1FEE0FFF1FEE58FC4F4D
:103BB000A590B490FD0105911491F901C591D4919E
:103BC000FA0185909490882777FD8095982F0E9420
:103BD000DCAF6B017C01B20166197709882777FD9C
:103BE0008095982F0E94DCAF2B013C01B501601B32
:103BF000710B882777FD8095982F0E94DCAF9B0181
:103C0000AC01C301B2010E940FB22B013C01BE0105
:103C100068197909882777FD8095982F0E94DCAF75
:103C20009B01AC01C301B2010E9441AF9B01AC01F9
:103C3000C701B6010E9461AE11C001962C5F3F4FD3
:103C40008D33910509F090CFE2E6F4E0659174912F
:103C5000882777FD8095982F0E94DCAFDF91CF9168
:103C60001F910F91FF90EF90DF90CF90BF90AF909A
:103C70009F908F907F906F905F904F90089560E03D
:103C800080914208909143082ADF60933E08709328
:103C90003F08809340089093410880913C089091A0
:103CA0003D087DDE609338087093390880933A08A8
:103CB00090933B088FB7F894109230088FBF089507
:103CC0002091140230911502409116025091170272
:103CD00060E070E08FE793E40E9441AF60931008CA
:103CE000709311088093120890931308089597FF1A
:103CF00003C08091370804C0FC01E65FF74F808164
:103D000090E00895CF93DF93D82FC62FC19561E03F
:103D10000E94EBA86C2F8D2F0E9424A96C2F70E0BD
:103D20008D2FDF91CF910C94E1A7CF93C1E020E0DC
:103D300030E048E452E460913E0870913F08809181
:103D40004008909141080E943DB118160CF0C0E067
:103D50006C2F86E090E0CF91D5CF2F923F924F927B
:103D60005F926F927F928F929F92AF92BF92CF920B
:103D7000DF92EF92FF920F931F93CF93DF93CDB714
:103D8000DEB728970FB6F894DEBF0FBECDBF809187
:103D90003008882309F4F8C172DF80903E089090C3
:103DA0003F08A0904008B09041080091460810914B
:103DB0004708B801882777FD8095982F0E94DCAFCF
:103DC000A50194010E9460AE6B017C01609318080C
:103DD0007093190880931A0890931B0820E030E034
:103DE00040E251E40E943DB1181624F481E0809332
:103DF0000F08F7C020E030E040E251ECC701B60107
:103E00000E943AAF87FD02C0012B21F481E080932C
:103E10000F080CC180910F08882351F010922C08D4
:103E200010922D0810922E0810922F0810920F0851
:103E3000209118023091190240911A0250911B02F0
:103E4000C701B6010E940FB269837A838B839C837A
:103E50006093240870932508809326089093270880
:103E600020912C0830912D0840912E0850912F0858
:103E7000C701B6010E9461AE2B013C0120901408DD
:103E80003090150810911608009117089101412FE4
:103E9000502F0E943AAF87FD14C020901008309038
:103EA000110810911208009113089101412F502F11
:103EB000B201C3010E943DB118161CF01201162D6B
:103EC000072DC101A12FB02F80932C0890932D08AE
:103ED000A0932E08B0932F08209114023091150260
:103EE0004091160250911702B101812F902F0E942C
:103EF0000FB26D837E838F839887609320087093C1
:103F0000210880932208909323082091280830915B
:103F1000290840912A0850912B08C501B4010E943C
:103F200060AE209110023091110240911202509126
:103F300013020E940FB220ED3CEC4CE45DE30E94C2
:103F40000FB22B013C0123E333E343E75FE36091CE
:103F50001C0870911D0880911E0890911F080E94F6
:103F60000FB29B01AC01C301B2010E9461AE2B01F3
:103F70003C0160931C0870931D0880931E08909369
:103F80001F082D813E814F81588569817A818B81FF
:103F90009C810E9461AEA30192010E9460AE2B0140
:103FA0003C0120E030E04FE753E40E943DB120E0C7
:103FB00030E0A9011816E4F4C701B6010E943DB132
:103FC00018167CF4A7019601B101812F902F0E9451
:103FD00060AE60932C0870932D0880932E08909308
:103FE0002F08412C512C9FE7692E93E4792E21C094
:103FF000C301B2010E943AAF87FF1BC020E030E04E
:10400000A901C701B6010E943AAF87FF0FC0A701FF
:104010009601B101812F902F0E9460AE60932C0811
:1040200070932D0880932E0890932F08412C512CCB
:1040300032018092280890922908A0922A08B09212
:104040002B086091020870910308882777FD8095FE
:10405000982F0E94DCAF9B01AC01C501B4010E9406
:104060003DB11816DCF460910802709109028827AE
:1040700077FD8095982F0E94DCAF9B01AC01C501B4
:10408000B4010E943AAF87FF09C0C301B2010E9488
:10409000A9AF7595679560930A0802C010920A0847
:1040A0000E94CBA9009106081091070820910808EA
:1040B00030910908601B710B820B930B653C7940B2
:1040C0008105910558F031DE0E94CBA96093060866
:1040D0007093070880930808909309080E94CBA961
:1040E00000910B0810910C0820910D0830910E08DA
:1040F000601B710B820B930B68387341810591052E
:1041000008F442C00E94CBA960930B0870930C087E
:1041100080930D0890930E08C0903808D09039080D
:10412000E0903A08F0903B0820E030E040E751E4AE
:10413000C701B6010E943DB118161CF520E030E021
:1041400046E153E4C701B6010E943AAF87FF19C0A8
:104150006091440870914508882777FD8095982FD5
:104160000E94DCAF9B01AC01C701B6010E943DB1CA
:1041700087FD03C01092370807C08FE78093370888
:1041800003C010923708A59828960FB6F894DEBFA2
:104190000FBECDBFDF91CF911F910F91FF90EF9098
:1041A000DF90CF90BF90AF909F908F907F906F9057
:1041B0005F904F903F902F900895CF93DF93109290
:1041C00014081092150810921608109217082091E2
:1041D000140230911502409116025091170260E0CE
:1041E00070E08FE793E40E9441AF609310087093F2
:1041F000110880931208909313086D9A8091010121
:104200008061809301019D9A809101018062809379
:10421000010187ED80937A0010927E0010927D005C
:1042200080917E00816080937E0080917E0082601C
:1042300080937E0080917E00846080937E0080E881
:1042400088BD80916E00846080936E006AEF70E09C
:1042500080E090E00E94FAA98FE090E0909303083C
:104260008093020860E080910A0290910B0237DC93
:1042700020E030E040E751E40E943AAF87FF0AC0F7
:1042800080910A0290910B02409790930B028093C9
:104290000A02E8CF8BE391E0909309028093080231
:1042A00060E0809104089091050819DC20E030E876
:1042B0004DE953E40E943DB1181654F4809104086E
:1042C0009091050840969093050880930408E8CFE4
:1042D000C0910008D0910108CE0161DB20E030E000
:1042E00046E153E40E943DB1181634F46096D09331
:1042F0000108C0930008ECCFDF91CF910895089595
:1043000010924708109246081092450810924408EF
:1043100010920A087598109245081092440810925D
:104320003708A59808952F923F924F925F926F920F
:104330007F928F929F92AF92BF92CF92DF92EF9235
:10434000FF920F931F93CF93DF93CDB7DEB7AE9756
:104350000FB6F894DEBF0FBECDBF6B8F7C8F8D8FF5
:10436000292E5A8749873CA72BA70E94CBA96F8F7C
:1043700078A389A39AA30E94CBA96FA378A789A742
:104380009AA729853A85121613061CF0E4E2F3E099
:1043900017C0E7E3F3E08191882339F09091C000E2
:1043A00095FFFCCF8093C600F6CF8091C00085FFBB
:1043B000FCCF1BC29091C00095FFFCCF8093C6003C
:1043C00081918111F7CF8091C00085FFFCCF8AE0F9
:1043D0008093C60095DF49855A858FE7452B99F173
:1043E000809337088F8D98A1A9A1BAA1898B9A8B48
:1043F000AB8BBC8B8D879E87AF87B88B1D8290E47B
:10440000988FACE1A98FB6E4BA8F1DA61D8A1E8ACB
:104410001F8A2FE730E040E050E029833A834B8346
:104420005C83EFE74E2E512C612C712C1BA21CA239
:104430001DA21EA231E03E8F1C861B86312C00E09F
:1044400010E01EA605C080930A08CCCF0E943377E7
:1044500080913008882309F4F6C011DC49855A851B
:10446000452B51F0309038080091390810913A08E6
:1044700050913B085EA709C030903E0800913F086C
:1044800010914008809141088EA7232D302F412F95
:104490005EA56DA57D898E899F890E943DB1181604
:1044A0002CF03DA60D8B1E8B9EA59F8B232D302FB0
:1044B000412F5EA56D81788D898D9A8D0E943AAFCE
:1044C00087FD05C03D82088F198FAEA5AA8F0E9477
:1044D000CBA92FA138A549A55AA5621B730B840B44
:1044E000950B653C79408105910538F01EDC0E94F2
:1044F000CBA96FA378A789A79AA74E8D442309F467
:104500004FC02B8D3C8D4D8D522D632D702F812FE3
:104510009EA50E943DB118160CF095C00E94CBA933
:1045200029893A894B895C89621B730B840B950B33
:10453000693873418105910508F485C0D301C20132
:1045400029813A814B815C81821B930BA40BB50BB3
:1045500049855A85B595A79597958795452B19F067
:104560008093370802C080930A080E94CBA96D8708
:104570007E878F87988BDC01CB0129893A894B890B
:104580005C89821B930BA40BB50B8BA39CA3ADA3DF
:10459000BEA33B8D3DA74C8D4D8B5D8D5E8B2F8AD1
:1045A0002B8D3C8D4D8D522D632D702F812F9EA50F
:1045B0000E943AAF87FFEEC20E94CBA92D853E85AF
:1045C0004F855889621B730B840B950B69387341B7
:1045D0008105910508F4DEC20E94CBA9698B7A8B14
:1045E0008B8B9C8BDC01CB012D853E854F855889BB
:1045F000821B930BA40BB50B4B855C85452B09F0F7
:1046000010C189819A81AB81BC81840D951DA61D45
:10461000B71D29853A85B595A79597958795232B3D
:1046200009F4B5C2809337084B855C854F5F5F4FB7
:104630005C874B875B8D5D838C8D888F9D8D998F7B
:104640002A8EA1E0AE8F20E030E040EA51E46B8D8D
:104650007C8D8D8D922D0E9461AE9B01AC01632DEE
:10466000702F812F9EA50E943DB1181694F4EFEF94
:10467000F2E08491882341F09091C00095FFFCCF37
:104680008093C6003196F5CF8091C00085FFFCCFA6
:10469000ACC00E94CBA92F8D38A149A15AA1621BA1
:1046A000730B840B950B613D77408105910508F4F0
:1046B0004FC049855A85452B81F0E0903708F12C91
:1046C000E9EFF2E084918823C1F09091C00095FF5A
:1046D000FCCF8093C6003196F5CFE0900A08F12C0C
:1046E000E3EFF2E08491882341F09091C00095FFC0
:1046F000FCCF8093C6003196F5CF22E030E0432D09
:10470000502F612F7EA58AE99DE00E94CA8BEFEEB3
:10471000F2E08491882341F09091C00095FFFCCF96
:104720008093C6003196F5CF4AE050E0B7018AE9A0
:104730009DE00E94F48A8091C00085FFFCCF8AE052
:104740008093C6000E94CBA96F8F78A389A39AA3F8
:104750000E94CBA96B017C010E94CBA989889A8811
:10476000AB88BC882D853E854F855889820E931E67
:10477000A41EB51EC818D908EA08FB08C60ED71E25
:10478000E81EF91E31E8C3163FE4D30632E1E30622
:10479000F10490F0E2EDF2E08491882341F09091F1
:1047A000C00095FFFCCF8093C6003196F5CF809175
:1047B000C00085FFFCCF19C04B855C858BA59CA5EF
:1047C000841795070CF042CEE6E7F2E08491882347
:1047D00041F09091C00095FFFCCF8093C6003196C8
:1047E000F5CF8091C00085FFFCCF8AE08093C600A2
:1047F000AE960FB6F894DEBF0FBECDBFDF91CF915E
:104800001F910F91FF90EF90DF90CF90BF90AF90EE
:104810009F908F907F906F905F904F903F902F90E0
:1048200008958BA09CA0ADA0BEA0880E991EAA1EC4
:10483000BB1E2BA13CA14DA15EA1281B390B4A0B2D
:104840005B0BCA01B90129813A814B815C810E94CD
:10485000D5B2A50194010E943AB3240D351D461D21
:10486000571D243131054105510504F129013A0153
:104870003CEE43165104610471042CF06BEE462E9D
:10488000512C612C712C40E84416510461047104D0
:10489000DCF08EEF90E0A0E0B0E084199509A60965
:1048A000B70989839A83AB83BC8312C054E1452E38
:1048B000512C612C712C24E130E040E050E0298340
:1048C0003A834B835C8304C049825A826B827C8228
:1048D000E8E6F3E08491882341F09091C00095FFD1
:1048E000FCCF8093C6003196F5CF2AE030E0B301CB
:1048F000A2018AE99DE00E94C98AE3E6F3E084917F
:10490000882341F09091C00095FFFCCF8093C600B2
:104910003196F5CF2AE030E049815A816B817C8164
:104920008AE99DE00E94C98AECE5F3E0849188233E
:1049300041F09091C00095FFFCCF8093C600319666
:10494000F5CF22E030E04D81588D698D7A8D8AE96E
:104950009DE00E94CA8BE5E5F3E08491882341F055
:104960009091C00095FFFCCF8093C6003196F5CFA3
:1049700022E030E04DA55D896E897F898AE99DE05E
:104980000E94CA8B8091C00085FFFCCF8AE0809393
:10499000C6002B853C85233031050CF432CE69816D
:1049A0007A818B819C810E94DCAF20E030E040E87E
:1049B00050E40E940FB26B017C012D81388D498D2E
:1049C0005A8D6DA57D898E899F890E9460AE20EDEC
:1049D0003FE049E450E40E940FB220E030E040E0C4
:1049E0005FE30E940FB29B01AC01C701B6010E94B8
:1049F00041AF6B017C01C501B4010E94DCAF20E036
:104A000030E04AE754E40E9441AF4B015C01EFE41F
:104A1000F3E08491882341F09091C00095FFFCCF92
:104A20008093C6003196F5CF22E030E0B701A601B1
:104A30008AE99DE00E94CA8BE9E4F3E0849188232F
:104A400041F09091C00095FFFCCF8093C600319655
:104A5000F5CF22E030E0B501A4018AE99DE00E9493
:104A6000CA8B8091C00085FFFCCF8AE08093C6008E
:104A70002AE939E949E15FE3C701B6010E940FB2B3
:104A80006B017C019B01AC010E9461AEA501940108
:104A90000E9441AF6D837E838F839887A501940127
:104AA000C701B6010E940FB220E030E040E05EE3B3
:104AB0000E940FB24B015C01EBE3F3E08491882389
:104AC00041F09091C00095FFFCCF8093C6003196D5
:104AD000F5CF8091C00085FFFCCF8AE08093C600AF
:104AE000E5E3F3E08491882341F09091C00095FFC5
:104AF000FCCF8093C6003196F5CF22E030E0B701BD
:104B0000A6018AE99DE00E94CA8B8091C00085FFC2
:104B1000FCCF8AE08093C600EFE2F3E08491882323
:104B200041F09091C00095FFFCCF8093C600319674
:104B3000F5CF22E030E04D815E816F8178858AE992
:104B40009DE00E94CA8B8091C00085FFFCCF8AE067
:104B50008093C600E9E2F3E08491882341F09091CC
:104B6000C00095FFFCCF8093C6003196F5CF22E0C0
:104B700030E0B501A4018AE99DE00E94CA8B8091D2
:104B8000C00085FFFCCF8AE08093C6003ACD8093B9
:104B90000A084ACD1E8E57CDCF93C82FB1DB0E9495
:104BA000D14A811134C0E2E4FEE09491992341F0AE
:104BB0008091C00085FFFCCF9093C6003196F5CF61
:104BC0006C2F70E04AE050E08AE99DE00E94F48A90
:104BD0008091C00085FFFCCF8AE08093C600ECE2A4
:104BE000F2E08491882341F09091C00095FFFCCFC2
:104BF0008093C6003196F5CF8091C00085FFFCCF31
:104C00008AE08093C6008FE192E00E94A476CF9163
:104C10000C94924ACF93C82F73DB0E94D14A811122
:104C200034C0E2E4FEE09491992341F08091C00009
:104C300085FFFCCF9093C6003196F5CF6C2F70E0C6
:104C40004AE050E08AE99DE00E94F48A8091C00029
:104C500085FFFCCF8AE08093C600E2EFF1E084910B
:104C6000882341F09091C00095FFFCCF8093C6004F
:104C70003196F5CF8091C00085FFFCCF8AE080930C
:104C8000C60085EE91E00E94A476CF910C94924AE2
:104C9000A5980E94D14A811125C0E2E4FEE08491EA
:104CA000882341F09091C00095FFFCCF8093C6000F
:104CB0003196F5CFEBEAF1E08491882341F09091B1
:104CC000C00095FFFCCF8093C6003196F5CF809150
:104CD000C00085FFFCCF8AE08093C6008AE991E09E
:104CE0000E94A4760C94924A1F920F920FB60F92D4
:104CF00011240BB60F920F931F932F933F934F9353
:104D00005F936F937F938F939F93AF93BF93CF9353
:104D1000DF93EF93FF9380910702811112C080917E
:104D20000A088093FF07882311F0759A01C07598CF
:104D3000809137088093FE07882311F0A59A01C05F
:104D4000A5989091FF0780910702981708F475982D
:104D50009091FE0780910702981708F4A59880911A
:104D600007028F5F8F77809307028091060290E0A1
:104D70008B30910508F093C0FC01EE58FF4F0C9466
:104D800056B310927B0080E480937C0080917A007F
:104D9000806480937A000E94AD7681E019C02091F2
:104DA0007800309179008091FA079091FB07A091EB
:104DB000FC07B091FD07820F931FA11DB11D8093C9
:104DC000FA079093FB07A093FC07B093FD0782E0DE
:104DD0008093060264C010927B0082E480937C0082
:104DE00080917A00806480937A000E94AD7683E09F
:104DF000EFCF20917800309179008091F607909163
:104E0000F707A091F807B091F907820F931FA11D32
:104E1000B11D8093F6079093F707A093F807B0931E
:104E2000F90784E0D5CF10927B0081E480937C0069
:104E300080917A00806480937A000E94AD7685E04C
:104E4000C7CF20917800309179008091F20790913E
:104E5000F307A091F407B091F507820F931FA11DEE
:104E6000B11D8093F2079093F307A093F407B093DA
:104E7000F50786E0ADCF0E94AD7687E0A9CF88E048
:104E8000A7CF0E94AD7689E0A3CF10920602809151
:104E9000F1078F5F8093F10702C0109206028091A4
:104EA000F107803108F463C080913008811110C08F
:104EB0008091FA079091FB079093430880934208F2
:104EC0008091F6079091F70790933D0880933C08F6
:104ED00081E0809330081092F1071092FA07109247
:104EE000FB071092FC071092FD071092F207109238
:104EF000F3071092F4071092F5071092ED07109245
:104F0000EE071092EF071092F0071092F60710923A
:104F1000F7071092F8071092F90720914208309194
:104F2000430880910408909105088217930714F0B4
:104F300080E032DE209142083091430880910A02DD
:104F400090910B022817390714F080E063DE20915E
:104F50003C0830913D08809100089091010882172B
:104F600093072CF0109245081092440891DE00E05F
:104F700010E0E801CC0FDD1FCF5CD74F888199810D
:104F80001816190644F461E0802F0E946F948881FE
:104F90009981019709C0892B49F060E0802F0E9418
:104FA0006F94888199810196998388830F5F1F4F41
:104FB00003301105F1F6FF91EF91DF91CF91BF9191
:104FC000AF919F918F917F916F915F914F913F91A1
:104FD0002F911F910F910F900BBE0F900FBE0F904E
:104FE0001F9018952CEA35EC47E25EE30C940FB263
:104FF0002CEA35EC47E25EE30C9441AF2CEA35EC49
:1050000047E25EE30C9441AF2CEA35EC47E25EE305
:105010000C940FB2CF93DF93EC0160E08E810E947D
:1050200024A981E090E00E941EAA61E08E810E9486
:1050300024A981E090E00E941EAA60E08E810E9477
:1050400024A984E690E0DF91CF910C941EAACF9220
:10505000DF92EF92FF920F931F93CF93DF937C0128
:10506000C0E0D0E0C62ED12C87010C0F1D1F61E0DF
:10507000F80187810E94EBA8B6010C2E02C075953D
:1050800067950A94E2F76170F80187810E9424A96C
:105090002196C430D10541F7C701DF91CF911F910F
:1050A0000F91FF90EF90DF90CF90B4CFCF92DF922F
:1050B000EF92FF920F931F93CF93DF937C01C0E099
:1050C000D0E0C62ED12C87010C0F1D1F61E0F80126
:1050D00087810E94EBA8B6010C2E02C075956795DA
:1050E0000A94E2F76170F80187810E9424A9219651
:1050F000C830D10541F7C701DF91CF911F910F91C2
:10510000FF90EF90DF90CF9085CF1F93CF93DF93E9
:10511000EC01162F642F8C810E9424A98D818F3F72
:1051200019F060E00E9424A98F85612F84FF05C0DB
:10513000CE01DF91CF911F91B9CF70E084E07595DA
:1051400067958A95E1F7CE0182DF612FCE01DF916D
:10515000CF911F917CCF40E0D8CF61E0FCDF80E4AD
:1051600096E00C941EAA62E0F6DF80E496E00C94D0
:105170001EAACF93DF93CDB7DEB728970FB6F8946A
:10518000DEBF0FBECDBF28E0E7EAF2E0DE011196F8
:1051900001900D922A95E1F7FC012389421710F046
:1051A0004FEF420FFE013196E40FF11DE40FF11DA8
:1051B0002081260F2068622F28960FB6F894DEBF54
:1051C0000FBECDBFDF91CF91C6CFFC016089262FE6
:1051D0002460208B6C60BFCFCF93DF93EC01423013
:1051E00018F08F8588608F874B8B1C8A222329F0CB
:1051F000413019F48F8584608F8780E593EC0E949D
:105200001EAA60E08C810E9424A960E08E810E9429
:1052100024A98D818F3F19F060E00E9424A96F8539
:1052200064FD19C063E0CE0112DF84E991E10E94C0
:105230001EAA63E0CE010BDF84E991E10E941EAA61
:1052400063E0CE0104DF86E990E00E941EAA62E0DE
:10525000CE01FDDE13C06062CE017DDF84E991E105
:105260000E941EAA6F856062CE0175DF86E990E01C
:105270000E941EAA6F856062CE016DDF6F8560623D
:10528000CE0169DF8CE390E00E941EAA84E0888B47
:10529000CE019BDF8CE390E00E941EAACE015DDF71
:1052A00088EB9BE00E941EAA82E0898B66E0CE011B
:1052B00052DF8CE390E0DF91CF910C941EAA6F92A5
:1052C0007F928F92AF92CF92EF920F931F93CF93D3
:1052D000DF93CDB7DEB73C01162F842F5E854F8557
:1052E00038899989F301848325830683E782C08600
:1052F000A1868286538744873587968761E00E941E
:10530000EBA8F30185818F3F19F061E00E94EBA8C3
:1053100061E0F30186810E94EBA8112319F0F301EB
:10532000178603C080E1F301878720E041E060E158
:10533000C301DF91CF911F910F91EF90CF90AF906C
:105340008F907F906F9048CF8F92AF92CF92EF92D5
:105350000F93DC0113961C921E921297E5E6F3E080
:10536000ED93FC931F921F921F921F928C2CAE2CD8
:10537000C02EE22E042F2FEF462F61E0A0DF0F900A
:105380000F900F900F900F91EF90CF90AF908F9064
:105390000895CF93DF93EC01423018F08F85886039
:1053A0008F874B8B1C8A222329F0413019F48F857B
:1053B00084608F8780E593EC0E941EAA60E08C8158
:1053C0000E9424A960E08E810E9424A98D818F3FD4
:1053D00019F060E00E9424A96F8564FD19C063E0A4
:1053E000CE0135DE84E991E10E941EAA63E0CE0180
:1053F0002EDE84E991E10E941EAA63E0CE0127DE41
:1054000086E990E00E941EAA62E0CE0120DE13C071
:105410006062CE01A0DE84E991E10E941EAA6F8540
:105420006062CE0198DE86E990E00E941EAA6F8538
:105430006062CE0190DE6F856062CE018CDE8CE30F
:1054400090E00E941EAA84E0888BCE01BEDE8CE331
:1054500090E00E941EAACE0186DE80E496E00E94C3
:105460001EAA82E0898B66E0CE0175DE8CE390E0B7
:105470000E941EAA40E068E0CE017BDE6EE873E089
:10548000CE010E9458AE41E068E0CE0172DE6EE8C7
:1054900073E0CE010E9458AE42E066E0CE0169DEC4
:1054A0006CE873E0CE01DF91CF910C9458AECF92AF
:1054B000DF92EF92FF920F931F93CF93DF931F9290
:1054C0001F92CDB7DEB78C01677088E0689FB0018E
:1054D00011246064C80149835A833DDE4981C42E8A
:1054E0005A81D52EE12CF12CD6016D916D01D80198
:1054F000ED91FC910190F081E02DC8011995BFEF6D
:10550000EB1AFB0AE8E0EE16F10471F70F900F902A
:10551000DF91CF911F910F91FF90EF90DF90CF908F
:10552000089541E0F2DD81E090E008952F923F92EE
:105530004F925F926F927F928F929F92AF92BF92A3
:10554000CF92DF92EF92FF920F931F93CF93DF934F
:10555000CDB7DEB7CF54D1090FB6F894DEBF0FBE7A
:10556000CDBF1C017E8F6D8F4A012FAB09AF2896EE
:10557000EFAE28972C96ACAEBDAECEAEDFAE2C977C
:1055800034E0239F50011124FC01EA0DFB1D8081B2
:105590009181A281B381898F9A8FAB8FBC8FDA0101
:1055A000AA0DBB1DBCAFABAF4D905D906D907C90D4
:1055B000A3019201698D7A8D8B8D9C8D0E9461AEC5
:1055C00021966CAF7DAF8EAF9FAF2197B4E00B9F5C
:1055D00080011124F101E00FF11F2081318142810E
:1055E00053812F8F38A349A35AA3A401400F511F01
:1055F00023965FAF4EAF2397DA01CD90DD90ED900B
:10560000FC90A70196016F8D78A189A19AA10E94B3
:1056100061AE27966CAF7DAF8EAF9FAF2797289670
:10562000EFAD2897B4E0EB9FC0011124F101E80F22
:10563000F91F20813181428153812BA33CA34DA3CB
:105640005EA3ED8DFE8DE80FF91F6081718182816F
:1056500093810E9460AE6FA378A789A79AA7AD8DAA
:10566000BE8D1C968D919D910D90BC91A02D609644
:105670008CAF9DAFAEAFBFAF6097D1011C962D919F
:105680003D914D915C911F972BA73CA74DA75EA71D
:10569000A301920150582D8B3E8B4F8B588FD70111
:1056A000C601B058898B9A8BAB8BBC8BED8DFE8D70
:1056B000EA0DFB1D20813181428153812FA738AB38
:1056C00049AB5AAB21962CAD3DAD4EAD5FAD2197A8
:1056D0006FA578A989A99AA90E9460AE6B017C0187
:1056E000ED8DFE8DE00FF11F80819181A281B3814C
:1056F0008BAB9CABADABBEAB27962CAD3DAD4EADF1
:105700005FAD2797BC01CD010E9460AE4B015C01EB
:10571000A70196016D897E898F89988D0E940FB2AD
:105720002B013C01A501940169897A898B899C89A7
:105730000E940FB29B01AC01C301B2010E9461AE95
:105740002B013C01A50194016D897E898F89988D7B
:105750000E940FB24B015C01A701960169897A8909
:105760008B899C890E940FB29B01AC01C501B401D9
:105770000E9460AEA30192010E94D4AE6B017C0135
:1057800020E030E0A9010E943AAF87FF0AC02BED6C
:105790003FE049EC50E4C701B6010E9461AE6B01E5
:1057A0007C01AA968FADAA97882351F02BED3FE09C
:1057B00049EC50E4C701B6010E9460AE6B017C0168
:1057C0002FA538A949A95AA9698D7A8D8B8D9C8DF1
:1057D0000E943AAF81111FC02BA93CA94DA95EA917
:1057E0006F8D78A189A19AA10E943AAF811113C04F
:1057F00020E030E0A901C701B6010E943AAF811153
:105800000AC02BED3FE049EC50E4C701B6010E940D
:1058100061AE6B017C01A9962CAD3DAD4EAD5FAD87
:10582000A997C701B6010E940FB22FA138A549A5BB
:105830005AA55F770E944AB14B015C012FE632E125
:1058400043E85AE30E943AAF87FDC8C1C501B401DD
:105850000E9417B00E94AEAF7A8F698FDB01AB2B2D
:1058600021F4E1E0F0E0FA8FE98F298D3A8DB9015A
:1058700080E090E00E94DAAF4B015C019B01AC013B
:10588000C701B6010E9441AF2B013C01A501940163
:105890006FA178A589A59AA50E9441AF6FA778ABA3
:1058A00089AB9AAB2BA53CA54DA55EA560966CADCA
:1058B0007DAD8EAD9FAD60970E9460AEA501940155
:1058C0000E9441AF6BAB7CAB8DAB9EAB20E030E078
:1058D00040E05FE3C301B2010E940FB2A301920155
:1058E0000E940FB29B01AC0160E070E080E89FE392
:1058F0000E9460AE6FA378A789A79AA7CE010196F0
:10590000FC0128964FAD289734E0439FE00DF11D30
:1059100011242BA13CA14DA15EA1208331834283A0
:1059200053832BA53CA54DA55EA52D873E874F87AC
:10593000588BB12C41E050E058A34F8F1C01BFA9F8
:10594000A4E0BA9F800D911D112498AF8FAB9101F7
:1059500059AD44E0549F200D311D11243AAF29AFB9
:10596000FCA7EBA74F8D58A1898D9A8D4817590731
:1059700008F01AC188E18B150CF444C02FA138A59A
:1059800049A55AA569897A898B899C890E940FB299
:105990006B017C01A30192016D897E898F89988DAD
:1059A0000E940FB2A70196010E9461AEA62E172F8A
:1059B000982E892E2FA138A549A55AA56D897E89D3
:1059C0008F89988D0E940FB26B017C01A301920117
:1059D00069897A898B899C890E940FB29B01AC01ED
:1059E000C701B6010E9460AE6D8B7E8B8F8B988F46
:1059F000B3948A2D912FA92DB82D898B9A8BAB8BBF
:105A0000BC8B6CC0AF8DB8A1BD0180E090E00E945E
:105A1000DAAFA30192010E940FB26B017C010E94D8
:105A20003EAF698B7A8B8B8B9C8BC701B6010E9432
:105A300072B24B015C01EBADFCADC080D180E28065
:105A4000F380F7FAF094F7F8F0942396AEADBFAD7B
:105A500023972D913D914D915C912BA33CA34DA398
:105A60005EA329893A894B895C89C701B6010E94E6
:105A70000FB26D8B7E8B8F8B988FA50194016BA1DC
:105A80007CA18DA19EA10E940FB29B01AC016D89EA
:105A90007E898F89988D0E9461AE6D8B7E8B8F8BF6
:105AA000988FA5019401C701B6010E940FB26B0146
:105AB0007C0129893A894B895C896BA17CA18DA1E4
:105AC0009EA10E940FB29B01AC01C701B6010E94CA
:105AD00060AE698B7A8B8B8B9C8BB12C2D893E8928
