:100000000C94832B0C94B42B0C94B42B0C94B42B25
:100010000C94B42B0C94B42B0C94B42B0C94B42BE4
:100020000C94B42B0C94B42B0C94B42B0C94B42BD4
:100030000C94B42B0C946CDB0C94B42B0C94B42B5C
:100040000C94B42B0C9479B90C94B42B0C94B42B61
:100050000C94B42B0C94B42B0C94A2420C9432D775
:100060000C94B42B0C9447B60C94B42B0C94B42B76
:100070000C94B42B0C94B42B0C94B42B0C94B42B84
:100080000C94B42B0C94B42B0C94B42B0C94B42B74
:100090000C94B42B0C94B42B0C94B42B0C9452D41D
:1000A0000C94B42B0C94B42B0C94B42B0C94B42B54
:1000B0000C94B42B0C94B42B0C94B42B0C94B42B44
:1000C0000C94B42B0C94B42B0C94B42B0C94B42B34
:1000D0000C94B42B0C94B42B0C94B42B0C94B42B24
:1000E0000C94B42B00430E432A43384352436043DD
:1000F0007A437E43804384438C43B6D5BBD5C0D579
:10010000CAD543D6D4D5DCD5E4D5EED5F8D502D6BC
:1001100011D61BD643D625D62FD639D661D664D66E
:1001200057D65BD69BD668D66CD672D676D67AD69C
:1001300080D684D688D69BD68ED692D696D6084AB6
:10014000D73B3BCE016E84BCBFFDC12F3D6C7431EB
:100150009ABD56833DDA3D00C77F11BED9E4BB4C42
:100160003E916BAAAABE000000803F05A84CCDB20C
:10017000D44EB93836A9020C50B9918688083CA6ED
:10018000AAAA2ABE000000803F007C3C3E5E2B3DB8
:100190003F2F5B5D3B2C2A225C004572723A204D5A
:1001A000415854454D50204245440054656D70659A
:1001B000726174757265206865617465642062653A
:1001C00064207377697463686564206F66662E20A7
:1001D0004D415854454D502074726967676572658A
:1001E00064202121004572723A204D494E54454DFC
:1001F00050003A204578747275646572207377698F
:100200007463686564206F66662E204D494E5445C0
:100210004D502074726967676572656420210045DE
:1002200072723A204D415854454D50003A2045785D
:10023000747275646572207377697463686564208D
:100240006F66662E204D415854454D50207472699A
:10025000676765726564202100202D20496E7661F4
:100260006C6964206578747275646572206E756D52
:10027000626572202100504944204175746F747585
:100280006E652066696E69736865642120507574B7
:1002900020746865206C617374204B702C204B694E
:1002A00020616E64204B6420636F6E7374616E74A2
:1002B000732066726F6D2061626F766520696E745F
:1002C0006F20436F6E66696775726174696F6E2E19
:1002D0006800504944204175746F74756E652066DE
:1002E00061696C6564212074696D656F75740020A7
:1002F000403A006F6B20543A006F6B20423A005036
:100300004944204175746F74756E65206661696C2F
:100310006564212054656D70657261747572652025
:10032000746F6F206869676800204B643A20002072
:100330004B693A2000204B703A200020436C6173D7
:100340007369632050494420002054753A200020EE
:100350004B753A2000206D61783A2000206D696E5F
:100360003A200020643A200020626961733A20003C
:1003700070012C0190012701B0012201C0011D0173
:10038000F00118011002130130020E016002090190
:1003900090020401C002FF000003FA004003F500D0
:1003A0008003F000D003EB002004E6007004E100BD
:1003B000E004DC004005D700C005D2004006CD00B7
:1003C000D006C8008007C3003008BE00F008B9009E
:1003D000C009B400B00AAF00B00BAA00D00CA50051
:1003E000000EA000500F9B00C0109600501291000C
:1003F00000148C00C0158700B0178200B0197D0072
:10040000D01B7800001E730040206E00902269000F
:10041000F024640040275F0090295A00E02B55002B
:10042000102E500020304B0010324600E0334100C7
:1004300090353C001037370070383200A0392D005D
:10044000B03A2800A03B2300603C1E00103D19007C
:10045000903D1400103E0F00703E0A00C03E0500A3
:10046000003F0000686F77746F2E70727573613390
:10047000642E637A00686F77746F2E707275736183
:1004800033642E636F6D00686F77746F2E707275B2
:10049000736133642E636F6D00686F77746F2E70B5
:1004A0007275736133642E637A00686F77746F2E90
:1004B000707275736133642E636F6D00666F727551
:1004C0006D2E707275736133642E637A00666F727D
:1004D000756D2E707275736133642E636F6D006677
:1004E0006F72756D2E707275736133642E636F6DEC
:1004F00000666F72756D2E707275736133642E6352
:100500007A00666F72756D2E707275736133642E2A
:10051000636F6D00707275736133642E637A00705F
:100520007275736133642E636F6D007072757361E1
:1005300033642E636F6D00707275736133642E6364
:100540007A00707275736133642E636F6D00577932
:10055000626F72206A657A796B61202020202020EA
:1005600020200043616D626961206C61206C656EC2
:10057000677561200053656C657A2E206C61206C74
:10058000696E677561005679626572206A617A7971
:100590006B6120202020202020200053656C6563A3
:1005A00074206C616E6775616765202020202000D3
:1005B000506F6C736B6900457370616E6F6C0049AE
:1005C00074616C69616E6F0043657374696E61007C
:1005D000456E676C697368004572726F7220696E50
:1005E000206D656E75207374727563747572650025
:1005F0004572726F7220696E206D656E752073741E
:1006000072756374757265004572726F7220696EDF
:10061000206D656E752073747275637475726500F4
:100620004572726F7220696E206D656E75207374ED
:1006300072756374757265004572726F7220696EAF
:10064000206D656E752073747275637475726500C4
:10065000446F737461766F76616E69205A004164ED
:100660006A757374696E67205A0041646A757374A1
:10067000696E67205A00446F737461766F76616E9D
:1006800069205A0041646A757374696E67205A0064
:10069000426162797374657070696E6720590042B7
:1006A0006162797374657070696E67205900426188
:1006B00062797374657070696E6720590042616277
:1006C000797374657070696E672059004261627950
:1006D0007374657070696E67205900426162797346
:1006E00074657070696E6720580042616279737436
:1006F000657070696E672058004261627973746535
:100700007070696E67205800426162797374657019
:1007100070696E6720580042616279737465707009
:10072000696E6720580020746F6F206C6F6E6720B1
:10073000657874727573696F6E2070726576656E18
:100740007465640020746F6F206C6F6E672065782D
:1007500074727573696F6E2070726576656E7465FC
:10076000640020746F6F206C6F6E67206578747200
:100770007573696F6E2070726576656E746564005E
:1007800020746F6F206C6F6E67206578747275735C
:10079000696F6E2070726576656E74656400207492
:1007A0006F6F206C6F6E6720657874727573696FF8
:1007B0006E2070726576656E7465640020636F6C80
:1007C0006420657874727573696F6E2070726576D7
:1007D000656E7465640020636F6C64206578747264
:1007E0007573696F6E2070726576656E74656400EE
:1007F00020636F6C6420657874727573696F6E2006
:1008000070726576656E7465640020636F6C642039
:10081000657874727573696F6E2070726576656E37
:100820007465640020636F6C6420657874727573FE
:10083000696F6E2070726576656E74656400656EB2
:100840006473746F7073206869743A2000656E6415
:1008500073746F7073206869743A2000656E6473F6
:10086000746F7073206869743A2000656E647374E5
:100870006F7073206869743A2000656E6473746FDA
:100880007073206869743A200053746570726174E3
:100890006520746F6F20686967683A20005374653B
:1008A000707261746520746F6F20686967683A20A0
:1008B00000537465707261746520746F6F2068698D
:1008C00067683A2000537465707261746520746FB4
:1008D0006F20686967683A200053746570726174AC
:1008E0006520746F6F20686967683A200043616E05
:1008F0006E6F7420656E74657220737562646972C0
:100900003A200043616E6E6F7420656E74657220CC
:100910007375626469723A200043616E6E6F742071
:10092000656E746572207375626469723A20004363
:10093000616E6E6F7420656E74657220737562648B
:1009400069723A200043616E6E6F7420656E746543
:1009500072207375626469723A20006572726F72F8
:100960002077726974696E6720746F2066696C65A0
:10097000006572726F722077726974696E67207495
:100980006F2066696C65006572726F72207772699C
:1009900074696E6720746F2066696C650065727299
:1009A0006F722077726974696E6720746F20666950
:1009B0006C65006572726F722077726974696E6718
:1009C00020746F2066696C65004E6F74205344205C
:1009D0007072696E74696E67004E6F7420534420A4
:1009E0007072696E74696E67004E6F742053442094
:1009F0007072696E74696E67004E6F742053442084
:100A00007072696E74696E67004E6F742053442073
:100A10007072696E74696E67005344207072696EFB
:100A200074696E6720627974652000534420707287
:100A3000696E74696E672062797465200053442082
:100A40007072696E74696E672062797465200053F4
:100A500044207072696E74696E67206279746520D3
:100A6000005344207072696E74696E6720627974F5
:100A700065200057726974696E6720746F2066691B
:100A80006C653A200057726974696E6720746F2034
:100A900066696C653A200057726974696E672074E4
:100AA0006F2066696C653A200057726974696E67D9
:100AB00020746F2066696C653A200057726974690A
:100AC0006E6720746F2066696C653A200046696C19
:100AD000652073656C65637465640046696C6520A8
:100AE00073656C65637465640046696C6520736545
:100AF0006C65637465640046696C652073656C653C
:100B0000637465640046696C652073656C65637425
:100B10006564002053697A653A20002053697A653C
:100B20003A20002053697A653A20002053697A659B
:100B30003A20002053697A653A200046696C6520A6
:100B40006F70656E65643A200046696C65206F7051
:100B5000656E65643A200046696C65206F70656E4D
:100B600065643A200046696C65206F70656E656447
:100B70003A200046696C65206F70656E65643A20A6
:100B8000006F70656E206661696C65642C20466933
:100B90006C653A20006F70656E206661696C6564F3
:100BA0002C2046696C653A20006F70656E20666186
:100BB000696C65642C2046696C653A20006F70652D
:100BC0006E206661696C65642C2046696C653A200C
:100BD000006F70656E206661696C65642C204669E3
:100BE0006C653A2000776F726B446972206F706594
:100BF0006E206661696C656400776F726B44697220
:100C0000206F70656E206661696C656400776F7235
:100C10006B446972206F70656E206661696C6564F3
:100C200000776F726B446972206F70656E20666129
:100C3000696C656400776F726B446972206F7065D0
:100C40006E206661696C6564005344206361726460
:100C5000206F6B0053442063617264206F6B0053FC
:100C6000442063617264206F6B005344206361729F
:100C700064206F6B0053442063617264206F6B00CB
:100C80006F70656E526F6F74206661696C65640089
:100C90006F70656E526F6F74206661696C65640079
:100CA0006F70656E526F6F74206661696C65640069
:100CB0006F70656E526F6F74206661696C65640059
:100CC0006F70656E526F6F74206661696C65640049
:100CD000766F6C756D652E696E6974206661696CDE
:100CE000656400766F6C756D652E696E697420663B
:100CF00061696C656400766F6C756D652E696E69EF
:100D000074206661696C656400766F6C756D652E24
:100D1000696E6974206661696C656400766F6C75D4
:100D20006D652E696E6974206661696C6564005337
:100D30004420696E6974206661696C0053442069BF
:100D40006E6974206661696C00534420696E697431
:100D5000206661696C00534420696E697420666185
:100D6000696C00534420696E6974206661696C0087
:100D700043616E6E6F74206F70656E207375626470
:100D800069720043616E6E6F74206F70656E2073C0
:100D900075626469720043616E6E6F74206F706576
:100DA0006E207375626469720043616E6E6F7420A9
:100DB0006F70656E207375626469720043616E6E58
:100DC0006F74206F70656E2073756264697200487D
:100DD0006F74656E64206F6666736574733A00485D
:100DE0006F74656E64206F6666736574733A00484D
:100DF0006F74656E64206F6666736574733A00483D
:100E00006F74656E64206F6666736574733A00482C
:100E10006F74656E64206F6666736574733A006FF5
:100E200070656E006F70656E006F70656E006F703C
:100E3000656E006F70656E005452494747455245D4
:100E4000440054524947474552454400545249478B
:100E5000474552454400545249474745524544008E
:100E6000545249474745524544005265706F727469
:100E7000696E6720656E6473746F7020737461743B
:100E80007573005265706F7274696E6720656E6469
:100E900073746F7020737461747573005265706F32
:100EA0007274696E6720656E6473746F70207374FA
:100EB00061747573005265706F7274696E67206536
:100EC0006E6473746F70207374617475730052650F
:100ED000706F7274696E6720656E6473746F7020D2
:100EE000737461747573007A5F6D61783A20007A6B
:100EF0005F6D61783A20007A5F6D61783A20007A00
:100F00005F6D61783A20007A5F6D61783A20007AEF
:100F10005F6D696E3A20007A5F6D696E3A20007AE3
:100F20005F6D696E3A20007A5F6D696E3A20007AD3
:100F30005F6D696E3A2000795F6D61783A200079C3
:100F40005F6D61783A2000795F6D61783A200079B1
:100F50005F6D61783A2000795F6D61783A200079A1
:100F60005F6D696E3A2000795F6D696E3A20007995
:100F70005F6D696E3A2000795F6D696E3A20007985
:100F80005F6D696E3A2000785F6D61783A20007875
:100F90005F6D61783A2000785F6D61783A20007863
:100FA0005F6D61783A2000785F6D61783A20007853
:100FB0005F6D696E3A2000785F6D696E3A20007847
:100FC0005F6D696E3A2000785F6D696E3A20007837
:100FD0005F6D696E3A2000496E76616C69642065C8
:100FE0007874727564657200496E76616C6964200C
:100FF000657874727564657200496E76616C6964B7
:1010000020657874727564657200496E76616C69EA
:101010006420657874727564657200496E76616CDF
:1010200069642065787472756465720041637469DF
:1010300076652045787472756465723A2000416364
:10104000746976652045787472756465723A20001B
:101050004163746976652045787472756465723A87
:101060002000416374697665204578747275646503
:10107000723A200041637469766520457874727510
:101080006465723A2000556E6B6E6F776E20636FE9
:101090006D6D616E643A202200556E6B6E6F776ED7
:1010A00020636F6D6D616E643A202200556E6B6E29
:1010B0006F776E20636F6D6D616E643A202200550C
:1010C0006E6B6E6F776E20636F6D6D616E643A202C
:1010D0002200556E6B6E6F776E20636F6D6D616E63
:1010E000643A202200526573656E643A20005265AE
:1010F00073656E643A2000526573656E643A200031
:10110000526573656E643A2000526573656E643A89
:1011100020005072696E7465722073746F70706510
:10112000642064756520746F206572726F72732E0F
:101130002046697820746865206572726F7220613C
:101140006E6420757365204D39393920746F2072B3
:101150006573746172742E202854656D70657261B8
:10116000747572652069732072657365742E2053DF
:101170006574206974206166746572207265737489
:10118000617274696E6729005072696E74657220AD
:1011900073746F707065642064756520746F20656A
:1011A00072726F72732E20466978207468652065AC
:1011B00072726F7220616E6420757365204D3939CB
:1011C0003920746F20726573746172742E202854F4
:1011D000656D7065726174757265206973207265E2
:1011E0007365742E2053657420697420616674657C
:1011F000722072657374617274696E67290050722F
:10120000696E7465722073746F70706564206475A4
:101210006520746F206572726F72732E2046697834
:1012200020746865206572726F7220616E6420752B
:101230007365204D39393920746F2072657374617C
:1012400072742E202854656D7065726174757265B4
:101250002069732072657365742E2053657420694C
:10126000742061667465722072657374617274694A
:101270006E6729005072696E7465722073746F70A6
:101280007065642064756520746F206572726F727A
:10129000732E2046697820746865206572726F72BB
:1012A00020616E6420757365204D39393920746F63
:1012B00020726573746172742E202854656D706598
:1012C0007261747572652069732072657365742E1E
:1012D000205365742069742061667465722072659C
:1012E0007374617274696E6729005072696E7465F7
:1012F000722073746F707065642064756520746FFC
:10130000206572726F72732E20466978207468654A
:10131000206572726F7220616E6420757365204D56
:1013200039393920746F20726573746172742E209C
:101330002854656D706572617475726520697320DB
:1013400072657365742E205365742069742061661C
:101350007465722072657374617274696E672900B6
:101360005072696E7465722068616C7465642E20B9
:101370006B696C6C28292063616C6C65642100507A
:1013800072696E7465722068616C7465642E206B7E
:10139000696C6C28292063616C6C65642100507253
:1013A000696E7465722068616C7465642E206B6967
:1013B0006C6C28292063616C6C6564210050726933
:1013C0006E7465722068616C7465642E206B696C44
:1013D0006C28292063616C6C656421005072696E11
:1013E0007465722068616C7465642E206B696C6C26
:1013F00028292063616C6C6564210020436F756E41
:101400007420583A200020436F756E7420583A209B
:101410000020436F756E7420583A200020436F758A
:101420006E7420583A200020436F756E7420583A2D
:1014300020004649524D574152455F4E414D453A75
:101440004D61726C696E2056312E302E323B205326
:101450007072696E7465722F6772626C206D617351
:1014600068757020666F722067656E362046495237
:101470004D574152455F55524C3A68747470733AF7
:101480002F2F6769746875622E636F6D2F70727588
:10149000736133642F50727573612D69332D506CF5
:1014A00075732F2050524F544F434F4C5F56455247
:1014B00053494F4E3A312E30204D414348494E4515
:1014C0005F545950453A5072757361206933204515
:1014D000585452554445525F434F554E543A31206B
:1014E000555549443A30303030303030302D30307E
:1014F00030302D303030302D303030302D303030F5
:101500003030303030303030300A004649524D579C
:101510004152455F4E414D453A4D61726C696E20B6
:1015200056312E302E323B20537072696E746572C4
:101530002F6772626C206D617368757020666F72C0
:101540002067656E36204649524D574152455F55DA
:10155000524C3A68747470733A2F2F6769746875C7
:10156000622E636F6D2F707275736133642F5072CA
:101570007573612D69332D506C75732F2050524F48
:10158000544F434F4C5F56455253494F4E3A312EBC
:1015900030204D414348494E455F545950453A50DB
:1015A0007275736120693320455854525544455231
:1015B0005F434F554E543A3120555549443A3030E7
:1015C0003030303030302D303030302D3030303021
:1015D0002D303030302D3030303030303030303011
:1015E00030300A004649524D574152455F4E414DF9
:1015F000453A4D61726C696E2056312E302E323B69
:1016000020537072696E7465722F6772626C206D00
:10161000617368757020666F722067656E3620464C
:1016200049524D574152455F55524C3A6874747057
:10163000733A2F2F6769746875622E636F6D2F7010
:101640007275736133642F50727573612D69332D18
:10165000506C75732F2050524F544F434F4C5F5670
:10166000455253494F4E3A312E30204D414348495F
:101670004E455F545950453A507275736120693335
:101680002045585452554445525F434F554E543AA5
:101690003120555549443A30303030303030302DDB
:1016A000303030302D303030302D303030302D3043
:1016B00030303030303030303030300A004649522F
:1016C0004D574152455F4E414D453A4D61726C69EF
:1016D0006E2056312E302E323B20537072696E745C
:1016E00065722F6772626C206D6173687570206619
:1016F0006F722067656E36204649524D57415245FC
:101700005F55524C3A68747470733A2F2F6769743E
:101710006875622E636F6D2F707275736133642FFD
:1017200050727573612D69332D506C75732F205075
:10173000524F544F434F4C5F56455253494F4E3AC8
:10174000312E30204D414348494E455F5459504554
:101750003A5072757361206933204558545255448C
:1017600045525F434F554E543A3120555549443AFE
:1017700030303030303030302D303030302D30306F
:1017800030302D303030302D30303030303030305F
:10179000303030300A004649524D574152455F4E75
:1017A000414D453A4D61726C696E2056312E302E96
:1017B000323B20537072696E7465722F6772626C6F
:1017C000206D617368757020666F722067656E3674
:1017D000204649524D574152455F55524C3A687424
:1017E0007470733A2F2F6769746875622E636F6D1A
:1017F0002F707275736133642F50727573612D6928
:10180000332D506C75732F2050524F544F434F4C13
:101810005F56455253494F4E3A312E30204D414389
:1018200048494E455F545950453A5072757361208E
:1018300069332045585452554445525F434F554EE5
:10184000543A3120555549443A30303030303030F8
:10185000302D303030302D303030302D3030303091
:101860002D3030303030303030303030300A0053AE
:10187000746F6C696B204F4B2E0042617365206C56
:101880006973746F2E0050696174746F206661749F
:10189000746F2E00426564204F4B2E004265642019
:1018A000646F6E652E0047727A616E69652073748D
:1018B0006F6C696B612E2E00426173652043616C11
:1018C000656E74616E646F0050696174746F20722C
:1018D000697363616C64616D2E005A616872697628
:1018E000616E69206265642E2E2E00426564204878
:1018F000656174696E672E0047727A616E69652052
:101900004F4B2E0043616C656E74616E646F206C8A
:101910006973746F2E0052697363616C64616D65E5
:101920006E746F20666174746F2E005A61687269FC
:1019300076616E69204F4B2E0048656174696E6751
:1019400020646F6E652E0047727A616E69652E2E77
:101950002E0043616C656E74616E646F2E2E2E00D6
:1019600052697363616C64616D656E746F2E2E2EA7
:10197000005A6168726976616E692E2E2E00486584
:101980006174696E672E2E2E004D31303920496EFC
:1019900076616C6964206578747275646572200084
:1019A0004D31303920496E76616C696420657874F8
:1019B000727564657220004D31303920496E766150
:1019C0006C696420657874727564657220004D31AD
:1019D000303920496E76616C69642065787472755F
:1019E00064657220004D31303920496E76616C6932
:1019F0006420657874727564657220004E6F20747F
:101A00006865726D6973746F7273202D206E6F201C
:101A100074656D7065726174757265004E6F2074C7
:101A20006865726D6973746F7273202D206E6F20FC
:101A300074656D7065726174757265004E6F2074A7
:101A40006865726D6973746F7273202D206E6F20DC
:101A500074656D7065726174757265004E6F207487
:101A60006865726D6973746F7273202D206E6F20BC
:101A700074656D7065726174757265004E6F207467
:101A80006865726D6973746F7273202D206E6F209C
:101A900074656D7065726174757265004D323231B6
:101AA00020496E76616C696420657874727564652E
:101AB0007220004D32323120496E76616C696420AB
:101AC000657874727564657220004D323231204938
:101AD0006E76616C696420657874727564657220D5
:101AE000004D32323120496E76616C696420657830
:101AF00074727564657220004D32323120496E7601
:101B0000616C696420657874727564657220004D3B
:101B100032313820496E76616C6964206578747260
:101B20007564657220004D32313820496E76616CE3
:101B3000696420657874727564657220004D323175
:101B40003820496E76616C696420657874727564BA
:101B5000657220004D32313820496E76616C6964BF
:101B600020657874727564657220004D32313820BA
:101B7000496E76616C69642065787472756465720B
:101B800020004D32303020496E76616C69642065EA
:101B90007874727564657220004D32303020496E61
:101BA00076616C6964206578747275646572200072
:101BB0004D32303020496E76616C696420657874EE
:101BC000727564657220004D32303020496E766146
:101BD0006C696420657874727564657220004D329A
:101BE000303020496E76616C696420657874727556
:101BF00064657220004D31303520496E76616C6924
:101C00006420657874727564657220004D313035DA
:101C100020496E76616C69642065787472756465BC
:101C20007220004D31303520496E76616C69642038
:101C3000657874727564657220004D3130352049C5
:101C40006E76616C69642065787472756465722063
:101C5000004D31303520496E76616C6964206578BD
:101C600074727564657220004D31303420496E768F
:101C7000616C696420657874727564657220004DCA
:101C800031303420496E76616C69642065787472F5
:101C90007564657220004D31303420496E76616C78
:101CA000696420657874727564657220004D313006
:101CB0003420496E76616C6964206578747275644D
:101CC000657220004D31303420496E76616C696454
:101CD0002065787472756465722000456E642066B4
:101CE000696C65206C69737400456E642066696C6C
:101CF00065206C69737400456E642066696C6520AC
:101D00006C69737400456E642066696C65206C694B
:101D1000737400456E642066696C65206C69737429
:101D200000426567696E2066696C65206C69737432
:101D300000426567696E2066696C65206C69737422
:101D400000426567696E2066696C65206C69737412
:101D500000426567696E2066696C65206C69737402
:101D600000426567696E2066696C65206C697374F2
:101D700000446F6E65207072696E74696E672066CC
:101D8000696C6500446F6E65207072696E74696E6F
:101D9000672066696C6500446F6E65207072696EBD
:101DA00074696E672066696C6500446F6E652070AB
:101DB00072696E74696E672066696C6500446F6E47
:101DC00065207072696E74696E672066696C650063
:101DD0004E6F204C696E65204E756D62657220777E
:101DE00069746820636865636B73756D2C204C6142
:101DF0007374204C696E653A20004E6F204C696EFA
:101E000065204E756D62657220776974682063681D
:101E100065636B73756D2C204C617374204C696E17
:101E2000653A20004E6F204C696E65204E756D62DC
:101E30006572207769746820636865636B73756D7C
:101E40002C204C617374204C696E653A20004E6FF3
:101E5000204C696E65204E756D62657220776974DD
:101E60006820636865636B73756D2C204C617374B7
:101E7000204C696E653A20004E6F204C696E6520DB
:101E80004E756D626572207769746820636865635A
:101E90006B73756D2C204C617374204C696E653AC0
:101EA00020004E6F20436865636B73756D20776902
:101EB0007468206C696E65206E756D6265722C2089
:101EC0004C617374204C696E653A20004E6F20435C
:101ED0006865636B73756D2077697468206C696ED3
:101EE00065206E756D6265722C204C617374204C98
:101EF000696E653A20004E6F20436865636B7375A9
:101F00006D2077697468206C696E65206E756D62EE
:101F100065722C204C617374204C696E653A200008
:101F20004E6F20436865636B73756D2077697468C5
:101F3000206C696E65206E756D6265722C204C6137
:101F40007374204C696E653A20004E6F20436865BB
:101F5000636B73756D2077697468206C696E65209A
:101F60006E756D6265722C204C617374204C696EC5
:101F7000653A2000636865636B73756D206D6973E6
:101F80006D617463682C204C617374204C696E65BC
:101F90003A2000636865636B73756D206D69736DBE
:101FA000617463682C204C617374204C696E653ACF
:101FB0002000636865636B73756D206D69736D6177
:101FC0007463682C204C617374204C696E653A20F0
:101FD00000636865636B73756D206D69736D617403
:101FE00063682C204C617374204C696E653A200044
:101FF000636865636B73756D206D69736D61746380
:10200000682C204C617374204C696E653A20004C3A
:10201000696E65204E756D626572206973206E6F02
:1020200074204C617374204C696E65204E756D622E
:1020300065722B312C204C617374204C696E653AAB
:1020400020004C696E65204E756D62657220697363
:10205000206E6F74204C617374204C696E65204E45
:10206000756D6265722B312C204C617374204C6944
:102070006E653A20004C696E65204E756D62657222
:10208000206973206E6F74204C617374204C696EEC
:1020900065204E756D6265722B312C204C61737416
:1020A000204C696E653A20004C696E65204E756D56
:1020B000626572206973206E6F74204C61737420A6
:1020C0004C696E65204E756D6265722B312C204C0B
:1020D000617374204C696E653A20004C696E65200E
:1020E0004E756D626572206973206E6F74204C614D
:1020F0007374204C696E65204E756D6265722B316C
:102100002C204C617374204C696E653A2000446F3A
:102110006E6520736176696E672066696C652E0056
:10212000446F6E6520736176696E672066696C65C1
:102130002E00446F6E6520736176696E6720666954
:102140006C652E00446F6E6520736176696E672042
:1021500066696C652E00446F6E6520736176696EEA
:10216000672066696C652E006F6B006F6B006F6B8C
:10217000006F6B006F6B002020506C616E6E65729B
:1021800042756666657242797465733A2000202054
:10219000506C616E6E6572427566666572427974E6
:1021A00065733A20002020506C616E6E6572427536
:1021B0006666657242797465733A20002020506C1F
:1021C000616E6E657242756666657242797465739A
:1021D0003A20002020506C616E6E65724275666612
:1021E000657242797465733A2000204672656520F5
:1021F0004D656D6F72793A20002046726565204DFD
:10220000656D6F72793A20002046726565204D65D4
:102210006D6F72793A20002046726565204D656DBC
:102220006F72793A20002046726565204D656D6FAA
:1022300072793A2000204C61737420557064617487
:1022400065643A2000204C61737420557064617499
:1022500065643A2000204C61737420557064617489
:1022600065643A2000204C61737420557064617479
:1022700065643A2000204C61737420557064617469
:1022800065643A2000207C20417574686F723A20A2
:1022900000207C20417574686F723A2000207C20F9
:1022A000417574686F723A2000207C204175746813
:1022B0006F723A2000207C20417574686F723A205A
:1022C0000020536F66747761726520526573657480
:1022D0000020536F66747761726520526573657470
:1022E0000020536F66747761726520526573657460
:1022F0000020536F66747761726520526573657450
:102300000020536F6674776172652052657365743F
:1023100000205761746368646F6720526573657449
:1023200000205761746368646F6720526573657439
:1023300000205761746368646F6720526573657429
:1023400000205761746368646F6720526573657419
:1023500000205761746368646F6720526573657409
:10236000002042726F776E206F757420526573651E
:1023700074002042726F776E206F757420526573FF
:102380006574002042726F776E206F7574205265FD
:10239000736574002042726F776E206F75742052DF
:1023A00065736574002042726F776E206F757420BC
:1023B0005265736574002045787465726E616C2097
:1023C0005265736574002045787465726E616C2087
:1023D0005265736574002045787465726E616C2077
:1023E0005265736574002045787465726E616C2067
:1023F0005265736574002045787465726E616C2057
:10240000526573657400506F776572557000506F38
:10241000776572557000506F776572557000506F18
:10242000776572557000506F776572557000656EF4
:10243000717565696E67202200656E717565696EDC
:1024400067202200656E717565696E6720220065E0
:102450006E717565696E67202200656E71756569BC
:102460006E672022007770726F772E207A6D696117
:102470006E007061726120746F6D617220656665B7
:1024800063746F0020706572206D6F737472617277
:102490006520692063616D622E002070726F20706C
:1024A000726F6A6576656E69207A6D656E0020666A
:1024B0006F722074616B6520656666656374005297
:1024C000657374617274206472756B61726B6900FC
:1024D0005265696E6963696172206C6120696D7013
:1024E0002E005269617676696F206C612073746189
:1024F0006D702E0052657374617274756A74652014
:102500007469736B61726E75005265626F6F7420CF
:10251000746865207072696E746572004D6F642016
:102520005B7720777964616A6E6F73635D004D6FCE
:10253000646F205B6D617320667565727A615D0002
:102540004D6F646F205B70697520666F727A615D94
:10255000004D6F6420205B7679732E2076796B6F47
:102560006E5D004D6F6465205B6869676820706F01
:102570007765725D004D6F64202020202020205B55
:1025800063696368795D004D6F646F2020202020AF
:102590005B73696C656E63696F5D004D6F646F207E
:1025A000202020205B73696C656E7A696F736F5DA4
:1025B000004D6F64202020202020205B7469636818
:1025C000795D004D6F646520202020205B73696C6D
:1025D000656E745D0057796D69616E612066696C26
:1025E000616D656E74750043616D6269616E646FE3
:1025F0002066696C2E21004D757465766F6C6520C0
:1026000066696C2E210056796D656E612066696C75
:10261000616D656E747521004368616E67696E67F0
:102620002066696C616D656E7421005770726F77FA
:1026300061647A2066696C616D656E7400496E73C1
:10264000657274612066696C616D656E746F0049B6
:102650006E7365726972652066696C616D656E7412
:102660006F00566C6F7A74652066696C616D656E7B
:102670007400496E736572742066696C616D656E75
:1026800074004E616369736E696A2070727A79634F
:1026900069736B00592070756C736520656C206DD3
:1026A000616E646F00592070756C736520656C20D5
:1026B0006D616E646F004120737469736B6E657435
:1026C0006520746C616369746B6F00416E64207087
:1026D0007265737320746865206B6E6F6200577942
:1026E0006D69616E61206F6B210043616D6269618C
:1026F00072206269656E210043616D6269612E20FE
:10270000726975736369746F21005A6D656E61201B
:1027100075737065736E6121004368616E67652033
:10272000737563636573732100437A79737A637A8F
:102730002E206B6F6C6F72750043617267616E64FF
:102740006F20636F6C6F720043617267616E646FBC
:1027500020636F6C6F720043697374656E692062E9
:1027600061727679004C6F6164696E6720636F6C8B
:102770006F720050726F737A6520637A656B616364
:102780000045737065726100417370657474610017
:1027900050726F73696D2063656B656A7465005074
:1027A0006C656173652077616974005770726F772B
:1027B0002E2066696C616D656E7475004361726789
:1027C000616E646F2066696C2E0043617267616E92
:1027D000646F2066696C2E005A61766164656E696B
:1027E0002066696C616D656E7475004C6F6164691B
:1027F0006E672066696C616D656E74004B6F6C6FFF
:1028000072207A616E6965637A79737A2E00436FFC
:102810006C6F72206E6F20636C61726F00436F6C1F
:102820006F72206E6F20636C61726F00426172760E
:1028300061206E656E6920636973746100436F6C1B
:102840006F72206E6F7420636C65617200427261FA
:102850006B2066696C616D656E74750046696C2EDF
:10286000206E6F206361726761646F0046696C2E31
:10287000206E6F206361726761646F0046696C61EE
:102880006D656E74206E657A61766564656E00466E
:10289000696C616D656E74206E6F74206C6F61641D
:1028A0006564004E6965004E6F004E6F004E650016
:1028B0004E6F0054616B00536900536900416E6FA5
:1028C000005965730057796D69616E61206F6B3FC8
:1028D0000043616D626961646F20636F727265634A
:1028E0002E3F0043616D626961746F20636F727285
:1028F0002E3F0056796D656E61206F6B3F00436817
:10290000616E67656420636F72726563746C793F92
:1029100000506F6D6F6300537570706F7274005369
:102920007570706F727400506F64706F72610053D5
:102930007570706F7274004E6167727A656A206498
:1029400079737A65210050726563616C2E20657819
:10295000747275736F7221005072657269732E20E4
:102960007567656C6C6F210050726564656872658F
:102970006A746520747279736B7521005072656892
:1029800065617420746865206E6F7A7A6C652100C9
:10299000424C41443A004552524F523A004552523D
:1029A0004F523A0043485942413A004552524F5221
:1029B0003A005265637472616374005265637472A5
:1029C000616374005265637472616374005265637D
:1029D000747261637400526563747261637400574A
:1029E00070726F7761647A2066696C616D656E7470
:1029F00000496E74726F64756369722066696C61F8
:102A00006D656E746F004361726963617265206603
:102A1000696C616D656E746F005A617665737420C0
:102A200066696C616D656E74004C6F6164206669E7
:102A30006C616D656E740057796A61632066696CBC
:102A4000616D656E740053616361722066696C61CB
:102A50006D656E746F0053636172696361726520A6
:102A600066696C2E0056796A6D6F75742066696CA4
:102A7000616D656E7400556E6C6F61642066696C83
:102A8000616D656E740047727A616E69650050729F
:102A90006563616C656E7461720050726572697312
:102AA00063616C646100507265646568726576008C
:102AB0005072656865617400557374617769656EFD
:102AC000696100416A7573746500496D706F737454
:102AD000617A696F6E69004E6173746176656E69C3
:102AE0000053657474696E6773004B616C69627240
:102AF0006F776163205A0047726164756172205A72
:102B00000043616C696272617465205A004B616CAC
:102B10006962726F766174205A0043616C696272F7
:102B2000617465205A004175746F646F7374726FBD
:102B30006963205A3F004175746F204D6963726F5D
:102B40007061736F205A3F004175746F2072656722
:102B50006F6C617265205A203F004175746F20646C
:102B60006F6C61646974205A203F004175746F2056
:102B700061646A757374205A203F00456E647374F3
:102B80006F702061626F727400456E6473746F7051
:102B90002061626F727400456E6473746F7020619F
:102BA000626F727400456E6473746F702061626F3F
:102BB000727400456E6473746F702061626F72741A
:102BC00000446F7374726F6A656E6965206F737904
:102BD000205A004D6963726F7061736F205A004212
:102BE00061627973746570205A00446F6C6164652A
:102BF0006E69206F7379205A004C69766520616494
:102C00006A757374205A004261627973746570202A
:102C100059004261627973746570205900426162A3
:102C200079737465702059004261627973746570BC
:102C300020590042616279737465702059004261C5
:102C400062797374657020580042616279737465AB
:102C50007020580042616279737465702058004298
:102C6000616279737465702058004261627973748F
:102C700065702058005A204F6666736574005A20AC
:102C80004F6666736574005A204F666673657400FC
:102C90005A204F6666736574005A204F66667365E6
:102CA0007400486F6D6520582F59206265666F72F9
:102CB00065205A00486F6D6520582F59206265665F
:102CC0006F7265205A00486F6D6520582F59206239
:102CD00065666F7265205A00486F6D6520582F59E0
:102CE000206265666F7265205A00486F6D652058D6
:102CF0002F59206265666F7265205A005A207072E3
:102D00006F6265206F75742E20626564005A2070B2
:102D1000726F6265206F75742E20626564005A20A0
:102D200070726F6265206F75742E20626564005A40
:102D30002070726F6265206F75742E20626564006A
:102D40005A2070726F6265206F75742E2062656400
:102D50000056796D656E6974205344004368616E56
:102D600067652053442063617264004368616E6745
:102D70006520534420636172640056796D656E6905
:102D800074205344004368616E6765205344206398
:102D900061726400496E69632E20534400496E6974
:102DA000742E205344206361726400496E69742E4E
:102DB000205344206361726400496E69632E20537E
:102DC0004400496E69742E2053442063617264008C
:102DD00057796D69656E69632066696C616D656EB2
:102DE000740043616D626961722066696C616D6532
:102DF0006E746F0043616D62696172652066696C13
:102E0000616D656E746F0056796D656E69742066CC
:102E1000696C616D656E74004368616E67652066FC
:102E2000696C616D656E74004175746F5265747282
:102E30002E004175746F526574722E004175746F67
:102E4000526574722E004175746F526574722E0053
:102E50004175746F526574722E00556E5265742000
:102E6000205600556E52657420205600556E5265EE
:102E70007420205600556E52657420205600556E01
:102E8000526574202056005320556E5265742B6D88
:102E90006D005320556E5265742B6D6D0053205597
:102EA0006E5265742B6D6D005320556E5265742BF8
:102EB0006D6D005320556E5265742B6D6D00556E0F
:102EC000526574202B6D6D00556E526574202B6D0C
:102ED0006D00556E526574202B6D6D00556E5265F8
:102EE00074202B6D6D00556E526574202B6D6D0036
:102EF000486F70206D6D00486F70206D6D00486FD9
:102F000070206D6D00486F70206D6D00486F7020EF
:102F10006D6D0052657472616374202056005265B5
:102F20007472616374202056005265747261637418
:102F3000202056005265747261637420205600523E
:102F4000657472616374202056005377617020525B
:102F5000652E6D6D00537761702052652E6D6D008A
:102F6000537761702052652E6D6D0053776170202C
:102F700052652E6D6D00537761702052652E6D6D18
:102F80000052657472616374206D6D0052657472D5
:102F9000616374206D6D0052657472616374206D9D
:102FA0006D0052657472616374206D6D00526574BA
:102FB00072616374206D6D0053544F505045442E20
:102FC0002000504152414441004152524553544126
:102FD000544F200053544F505045442E200053541A
:102FE0004F505045442E20004B494C4C45442E2018
:102FF0000050415241444120444520454D455247EF
:103000002E0055434349534F20004B494C4C4544F7
:103010002E20004B494C4C45442E20004E6F206D15
:103020006F76652E0053696E206D6F76696D6965E8
:103030006E746F004E657373756E204D6F76696D9B
:10304000656E746F004E6F206D6F76652E004E6F4B
:10305000206D6F76652E004472756B2070727A65F4
:103060007277616E79005072696E742061626F725E
:10307000746564005374616D70612061626F727475
:10308000697461005469736B207072657275736541
:103090006E005072696E742061626F7274656400B4
:1030A000577A6E6F7769656E6965206472756B75A6
:1030B00000526573756D69656E646F20696D70721D
:1030C000652E0052697072656E6469205374616D7B
:1030D0007061004F626E6F76656E69207469736B04
:1030E0007500526573756D696E67207072696E74D4
:1030F000005761697420666F7220757365722E2E99
:103100002E004573706572616E646F206F72646526
:103110006E657300417474656E6469205574656EE4
:1031200074652E2E2E005761697420666F722075AB
:103130007365722E2E2E005761697420666F72209F
:10314000757365722E2E2E00536C6565702E2E2EB3
:10315000005265706F736F2E2E2E00536F73706563
:103160006E73696F6E652E2E2E00536C6565702E22
:103170002E2E00536C6565702E2E2E004272616BF0
:10318000206B61727479205344004E6F206861791E
:10319000207461726A657461205344004E6F20533D
:1031A00044204361727461005A61646E612053442B
:1031B000206B61727461004E6F2053442063617212
:1031C00064004472756B207A205344004D656E751F
:1031D000206465205344004D656E752053442043A0
:1031E00061727461005469736B207A2053440050FB
:1031F00072696E742066726F6D205344005A617458
:10320000727A796D6163206472756B0044657465D0
:103210006E657220696D70726573696F6E004172C0
:103220007265737461207374616D7061005A6173AB
:103230007461766974207469736B0053746F7020C5
:103240007072696E74004B6F6E74796E756F776112
:1032500063005265616E7564617220696D7072659C
:10326000732E0052697072656E6469207374616DAB
:10327000706100506F6B7261636F766174005265AC
:1032800073756D65207072696E740050727A657224
:10329000776163206472756B005061757361722091
:1032A000696D70726573696F6E005061757361004E
:1032B000506F7A61737461766974207469736B00FE
:1032C0005061757365207072696E74004E6173741D
:1032D000726F696300416A75737461720041646161
:1032E000747461004C616469740054756E650050BB
:1032F000726970726176610050726570617265000A
:1033000050726570617265005072697072617661A9
:10331000005072657061726500496E666F726D6112
:10332000636A65004D6F6E69746F72697A617200CD
:1033300047756172646100496E666F726D616365A5
:1033400000496E666F2073637265656E004F626E32
:103350006F766974005265667265736800526566BF
:1033600072657368004F626E6F76697400526566AD
:1033700072657368004F626E6F7669742076796348
:10338000686F7A6900526573746F7265206661694F
:103390006C7361666500526573746F726520666157
:1033A000696C73616665004F626E6F766974207632
:1033B0007963686F7A6900526573746F726520660D
:1033C00061696C7361666500556C6F7A6974207011
:1033D000616D6574004C6F6164206D656D6F72790D
:1033E000004C6F6164206D656D6F727900556C6F74
:1033F0007A69742070616D6574004C6F6164206D32
:10340000656D6F72790053746F7265206D656D6FB5
:1034100072790053746F7265206D656D6F727900FB
:1034200053746F7265206D656D6F72790053746FA0
:103430007265206D656D6F72790053746F726520CF
:103440006D656D6F7279004C434420636F6E7472CA
:10345000617374004C434420636F6E7472617374C3
:10346000004C434420636F6E7472617374004C436C
:103470004420636F6E7472617374004C4344206324
:103480006F6E74726173740046696C2E20446961BA
:103490002E20330046696C2E204469612E203300B3
:1034A00046696C2E204469612E20330046696C2EDB
:1034B000204469612E20330046696C2E20446961E6
:1034C0002E20330046696C2E204469612E20320084
:1034D00046696C2E204469612E20320046696C2EAC
:1034E000204469612E20320046696C2E20446961B7
:1034F0002E20320046696C2E204469612E20320055
:1035000046696C2E204469612E20310046696C2E7C
:10351000204469612E20310046696C2E2044696187
:103520002E20310046696C2E204469612E20310026
:1035300046696C2E204469612E2031004520696E59
:10354000206D6D33004520696E206D6D3300452080
:10355000696E206D6D33004520696E206D6D3300FE
:103560004520696E206D6D330046696C616D656E36
:10357000740046696C616D656E740046696C616DBE
:10358000656E740046696C616D656E740046696CA9
:10359000616D656E7400506F687962004D6F74697B
:1035A0006F6E004D6F74696F6E00506F68796200C6
:1035B0004D6F74696F6E0054656D706572617475DE
:1035C00072610054656D706572617475726100544A
:1035D000656D7065726174757261005465706C6FB1
:1035E00074610054656D7065726174757265004533
:1035F00073746570732F6D6D004573746570732FF0
:103600006D6D004573746570732F6D6D0045737437
:103610006570732F6D6D004573746570732F6D6DDC
:10362000005A73746570732F6D6D005A73746570F2
:10363000732F6D6D005A73746570732F6D6D005A22
:1036400073746570732F6D6D005A73746570732F8A
:103650006D6D005973746570732F6D6D00597374BF
:103660006570732F6D6D005973746570732F6D6D78
:10367000005973746570732F6D6D005973746570A4
:10368000732F6D6D005873746570732F6D6D0058D6
:1036900073746570732F6D6D005873746570732F3C
:1036A0006D6D005873746570732F6D6D0058737471
:1036B0006570732F6D6D00412D7265747261637456
:1036C00000412D7265747261637400412D726574DE
:1036D0007261637400412D7265747261637400419C
:1036E0002D7265747261637400416D6178200041D0
:1036F0006D61782000416D61782000416D61782016
:1037000000416D617820005654726176206D696EBB
:10371000005654726176206D696E0056547261765F
:10372000206D696E005654726176206D696E005688
:1037300054726176206D696E00566D696E00566D2B
:10374000696E00566D696E00566D696E00566D6942
:103750006E00650065006500650065007A007A000E
:103760007A007A007A00790079007900790079008E
:1037700078007800780078007800566D6178200035
:10378000566D61782000566D61782000566D617825
:103790002000566D6178200056652D6A65726B00B9
:1037A00056652D6A65726B0056652D6A65726B00F1
:1037B00056652D6A65726B0056652D6A65726B00E1
:1037C000567A2D6A65726B00567A2D6A65726B00A7
:1037D000567A2D6A65726B00567A2D6A65726B0097
:1037E000567A2D6A65726B005678792D6A65726B10
:1037F000005678792D6A65726B005678792D6A6566
:10380000726B005678792D6A65726B005678792D47
:103810006A65726B00416363656C00416363656C4C
:1038200000416363656C00416363656C00416363E1
:10383000656C005049442D43005049442D430050CD
:1038400049442D43005049442D43005049442D43E1
:10385000005049442D44005049442D4400504944EF
:103860002D44005049442D44005049442D440050FB
:1038700049442D49005049442D49005049442D499F
:10388000005049442D49005049442D4900504944B5
:103890002D50005049442D50005049442D500050A7
:1038A00049442D50005049442D50004F6666004F4A
:1038B0006666004F6666004F6666004F6666004F9C
:1038C0006E20004F6E20004F6E20004F6E20004F84
:1038D0006E20004175746F74656D70004175746F72
:1038E00074656D70004175746F74656D700041751D
:1038F000746F74656D70004175746F74656D7000E0
:103900002002204661637400200220466163740037
:103910002002204661637400200220466163740027
:1039200020022046616374002002204D617800204F
:1039300002204D6178002002204D61780020022095
:103940004D6178002002204D6178002002204D69F1
:103950006E002002204D696E002002204D696E002D
:103960002002204D696E002002204D696E004B6FD1
:103970006E74726F6C6100436F6E74726F6C004393
:103980006F6E74726F6C004B6F6E74726F6C61004F
:10399000436F6E74726F6C00507275746F6B20326F
:1039A00000466C6F77203200466C6F7720320050F3
:1039B0007275746F6B203200466C6F772032005046
:1039C0007275746F6B203100466C6F772031004642
:1039D0006C6F77203100507275746F6B2031004628
:1039E0006C6F77203100507275746F6B2030004619
:1039F0006C6F77203000466C6F7720300050727506
:103A0000746F6B203000466C6F7720300050727AF4
:103A100065706C797700466C756A6F00466C7573DB
:103A2000736F00507275746F6B00466C6F77005047
:103A30007265646B6F73632077656E742E005665D4
:103A40006E74696C61646F720056656E746F6C6140
:103A500000527963686C6F73742076656E742E0003
:103A600046616E2073706565640053746F6C696B9A
:103A700000426173650050696174746F004265644F
:103A80000042656400547279736B6133004E6F7A43
:103A90007A6C6533004E6F7A7A6C653300547279B4
:103AA000736B6133004E6F7A7A6C653300547279B0
:103AB000736B6132004E6F7A7A6C6532004E6F7AAA
:103AC0007A6C653200547279736B6132004E6F7A92
:103AD0007A6C6532004479737A61004675736F724F
:103AE000005567656C6C6F00547279736B61004EA2
:103AF0006F7A7A6C6500507265646B6F7363005601
:103B0000656C6F63696461640056656C636974C356
:103B1000A000527963686C6F7374005370656564BC
:103B200000506F73756E6F7574206F2031306D6D3E
:103B3000004D6F76652031306D6D004D6F766520DC
:103B400031306D6D00506F73756E6F7574206F201E
:103B500031306D6D004D6F76652031306D6D0050E8
:103B60006F73756E6F7574206F20316D6D004D6FC2
:103B7000766520316D6D004D6F766520316D6D007D
:103B8000506F73756E6F7574206F20316D6D004DC1
:103B90006F766520316D6D00506F73756E6F757443
:103BA000206F20302E316D6D004D6F766520302EE8
:103BB000316D6D004D6F766520302E316D6D00508A
:103BC0006F73756E6F7574206F20302E316D6D00C0
:103BD0004D6F766520302E316D6D004578747275AD
:103BE000646572330045787472756465723300459C
:103BF00078747275646572330045787472756465A3
:103C00007233004578747275646572330045787458
:103C100072756465723200457874727564657232CB
:103C200000457874727564657232004578747275F7
:103C3000646572320045787472756465723200454D
:103C400078747275646572004578747275736F72FA
:103C5000004573747275736F726500457874727580
:103C60006465720045787472756465720050727A8A
:103C70006573756E6163205A004D6F766572205AC8
:103C8000004D756F7669205A00506F73756E6F75B1
:103C900074205A004D6F7665205A0050727A657311
:103CA000756E61632059004D6F7665722059004D25
:103CB000756F7669205900506F73756E6F7574203B
:103CC00059004D6F766520590050727A6573756E94
:103CD00061632058004D6F7665722058004D756FF6
:103CE0007669205800506F73756E6F757420580098
:103CF0004D6F766520580052756368206F736900B8
:103D00004D6F76657220656A6573004D756F7669D3
:103D1000204173736500506F73756E6F7574206FFB
:103D20007375004D6F766520617869730052657414
:103D300072616374005265747261637400526574D9
:103D400072616374005265747261637400526574C9
:103D500072616374004578747275646F7661740083
:103D60004578747275646500457874727564650091
:103D70004578747275646F766174004578747275F5
:103D80006465005A61706E6F7574207A64726F6A30
:103D90000053776974636820706F776572206F666F
:103DA000660053776974636820706F776572206F5F
:103DB0006666005A61706E6F7574207A64726F6AFD
:103DC0000053776974636820706F776572206F663F
:103DD00066005679706E6F7574207A64726F6A002F
:103DE00053776974636820706F776572206F6E0017
:103DF00053776974636820706F776572206F6E0007
:103E00005679706E6F7574207A64726F6A0053779A
:103E10006974636820706F776572206F6E005779E0
:103E200063686C6F647A696300456E66726961727B
:103E300000526166667265646461005A63686C6111
:103E400064697400436F6F6C646F776E00507265C5
:103E50006465687265762041425320636F6E660028
:103E6000507265686561742041425320636F6E66CD
:103E700000507265686561742041425320636F6E23
:103E80006600507265646568726576204142532011
:103E9000636F6E66005072656865617420414253BD
:103EA00020636F6E66005072656465687265762087
:103EB0004142532042656400507265686561742018
:103EC0004142532042656400507265686561742008
:103ED00041425320426564005072656465687265B2
:103EE00076204142532042656400507265686561E6
:103EF00074204142532042656400507265646568D5
:103F00007265762041425320416C6C0050726568A6
:103F10006561742041425320416C6C0050726568A9
:103F20006561742041425320416C6C00507265649D
:103F300065687265762041425320416C6C00507276
:103F400065686561742041425320416C6C00507279
:103F50006564656872657620414253203300507273
:103F60006568656174204142532033005072656872
:103F70006561742041425320330050726564656866
:103F80007265762041425320330050726568656146
:103F90007420414253203300507265646568726535
:103FA000762041425320320050726568656174206A
:103FB000414253203200507265686561742041426D
:103FC0005320320050726564656872657620414204
:103FD000532032005072656865617420414253205D
:103FE00032005072656465687265762041425320E4
:103FF0003100507265686561742041425320310080
:1040000050726568656174204142532031005072DE
:1040100065646568726576204142532031005072B4
:1040200065686561742041425320310050726564B7
:10403000656872657620414253005072656865611B
:10404000742041425300507265686561742041429A
:104050005300507265646568726576204142530072
:104060005072656865617420414253005072656406
:10407000656872657620504C4120636F6E66005013
:1040800072656865617420504C4120636F6E6600F4
:104090005072656865617420504C4120636F6E6694
:1040A0000050726564656872657620504C412063EB
:1040B0006F6E66005072656865617420504C4120D7
:1040C000636F6E6600507265646568726576205035
:1040D0004C412042656400507265686561742050EF
:1040E0004C412042656400507265686561742050DF
:1040F0004C41204265640050726564656872657663
:1041000020504C41204265640050726568656174BE
:1041100020504C41204265640050726564656872AD
:10412000657620504C4120416C6C0050726568658A
:10413000617420504C4120416C6C00507265686580
:10414000617420504C4120416C6C00507265646574
:104150006872657620504C4120416C6C005072654D
:104160006865617420504C4120416C6C0050726550
:1041700064656872657620504C412033005072654A
:104180006865617420504C41203300507265686549
:10419000617420504C412033005072656465687230
:1041A000657620504C41203300507265686561741B
:1041B00020504C412033005072656465687265760A
:1041C00020504C4120320050726568656174205067
:1041D0004C412032005072656865617420504C413A
:1041E00020320050726564656872657620504C41DB
:1041F0002032005072656865617420504C41203255
:104200000050726564656872657620504C412031BB
:10421000005072656865617420504C412031005037
:1042200072656865617420504C41203100507265A0
:1042300064656872657620504C412031005072658B
:104240006865617420504C4120310050726564658E
:104250006872657620504C410050726568656174E3
:1042600020504C41005072656865617420504C418B
:104270000050726564656872657620504C4100504C
:1042800072656865617420504C41004E61737461C1
:104290007620706F636174656B00536574206F7274
:1042A0006967696E00536574206F726967696E0093
:1042B0004E617374617620706F636174656B005337
:1042C0006574206F726967696E004E617374617600
:1042D00020706F636174656B20686F6D6500536556
:1042E0007420686F6D65206F666673657473005324
:1042F000657420686F6D65206F6666736574730002
:104300004E617374617620706F636174656B2068B1
:104310006F6D650053657420686F6D65206F66660C
:1043200073657473004175746F20686F6D65004C20
:104330006C6576617220616C206F726967656E00D2
:104340004175746F20486F6D65004175746F20680A
:104350006F6D65004175746F20686F6D65005779EA
:104360006C61637A79632073696C6E696B69004173
:104370007061676172206D6F746F7265730044695C
:10438000736162696C697461204D6F746F7269004A
:104390005679706E6F7574206D6F746F727900440A
:1043A000697361626C652073746570706572730007
:1043B0004175746F7374617274004175746F7374B6
:1043C000617274004175746F737461727400417529
:1043D000746F7374617274004175746F7374617279
:1043E00074004D656E7520676C6F776E65004D6566
:1043F0006E75207072696E636970616C004D656ED8
:1044000075207072696E636970616C6500486C61DB
:10441000766E69206E616269646B61004D61696EE0
:10442000004B617274612077796A65746100546130
:10443000726A6574612072657469726164610053A7
:104440004420436172642072696D6F737361004B25
:10445000617274612076796A6D757461004361726E
:10446000642072656D6F766564004B6172746120C3
:10447000776C6F7A6F6E61005461726A6574612047
:10448000636F6C6F636164610053442043617264C5
:1044900020696E736572697461004B61727461208A
:1044A000766C6F7A656E61004361726420696E7329
:1044B000657274656400507275736120693320679A
:1044C0006F746F7761005072757361206933206C6F
:1044D0006973746100507275736120693320707262
:1044E0006F6E746F2E005072757361206933207087
:1044F000726970726176656E6100507275736120C9
:1045000069332072656164792E004D38342058205B
:1045100059205A2045004D3234004D323320257346
:10452000006175746F25692E67000A002F000A006C
:104530002E0044656C6574696F6E206661696C65F8
:10454000642C2046696C653A200046696C652064DD
:10455000656C657465643A002E002E002E002E00F6
:104560004E6F772066726573682066696C653A20C5
:10457000004E6F7720646F696E672066696C653ADC
:1045800020002220706F73002220706172656E74AB
:104590003A2200535542524F5554494E452043410B
:1045A0004C4C207461726765743A220074727969A8
:1045B0006E6720746F2063616C6C207375622D6769
:1045C000636F64652066696C657320776974682021
:1045D000746F6F206D616E79206C6576656C732EDB
:1045E000204D4158206C6576656C2069733A000057
:1045F000002110422063308440A550C660E7700857
:104600008129914AA16BB18CC1ADD1CEE1EFF131DD
:1046100012100273325222B5529442F772D66239A6
:104620009318837BB35AA3BDD39CC3FFF3DEE3622D
:1046300024433420040114E664C774A44485546AF6
:10464000A54BB528850995EEE5CFF5ACC58DD553BD
:1046500036722611163006D776F6669556B4465B46
:10466000B77AA719973887DFF7FEE79DD7BCC7C48D
:1046700048E5588668A7784008611802282338CC96
:10468000C9EDD98EE9AFF9488969990AA92BB9F51D
:104690005AD44AB77A966A711A500A333A122AFDE6
:1046A000DBDCCBBFFB9EEB799B588B3BBB1AABA6ED
:1046B0006C877CE44CC55C222C033C600C411CAE36
:1046C000ED8FFDECCDCDDD2AAD0BBD688D499D97FD
:1046D0007EB66ED55EF44E133E322E511E700E9F86
:1046E000FFBEEFDDDFFCCF1BBF3AAF599F788F884D
:1046F00091A981CAB1EBA10CD12DC14EF16FE1801E
:1047000010A100C230E3200450254046706760B914
:10471000839893FBA3DAB33DC31CD37FE35EF3B16D
:10472000029012F322D2323542145277625672EA64
:10473000B5CBA5A89589856EF54FE52CD50DC5E2BD
:1047400034C324A01481046674476424540544DBF4
:10475000A7FAB79987B8975FE77EF71DC73CD7D30D
:1047600026F2369106B01657667676154634564CC4
:10477000D96DC90EF92FE9C899E9898AB9ABA9445D
:1047800058654806782768C018E1088238A3287D54
:10479000CB5CDB3FEB1EFBF98BD89BBBAB9ABB75AD
:1047A0004A545A376A167AF10AD01AB32A923A2E24
:1047B000FD0FED6CDD4DCDAABD8BADE89DC98D26FD
:1047C0007C076C645C454CA23C832CE01CC10C1F34
:1047D000EF3EFF5DCF7CDF9BAFBABFD98FF89F174D
:1047E0006E367E554E745E932EB23ED10EF01E2272
:1047F000004D3232302053256900203A2000004C11
:10480000414E472053454C20464F524345440022D9
:1048100000205A3A0020593A0020453A00205A3ADE
:104820000020593A00583A0020002E0020423A0059
:1048300020453A00543A0020573A0020453A0054A7
:104840003A002042403A0020403A00202F003A002F
:10485000205400202F0020423A00202F006F6B20B0
:10486000543A002569206D696E2C202569207365F6
:104870006300256920686F757273202569206D6952
:104880006E75746573004D313130004D3239004D15
:104890006172203135203230313600436F6D7069DE
:1048A0006C65643A2000286E6F6E652C2064656626
:1048B00061756C7420636F6E66696729004D617263
:1048C00020313520323031362031313A34323A33EA
:1048D000310073746172740022002200FFFFFF0038
:1048E00000A0400000A0400000004000005643002F
:1048F0000046431FC5484300000000000000001FA1
:10490000856B3E00005643000046430000494300CB
:10491000000000000000001F856B3E6563686F3A71
:10492000004572726F723A0047312045343020469C
:1049300031303000473120453635204634303000A4
:104940004D383300473120452D3830204634303043
:10495000004D3833002D2D3A2D2D002D2D2D0053D7
:1049600044000120000120004D36303000464C4507
:1049700058202D20203235302F3530005050202047
:10498000202D20203235342F31303000484950530B
:10499000202D20203232302F31303000504554202D
:1049A000202D20203234302F393000504C4120202F
:1049B0002D20203232302F35300041425320202D1F
:1049C00020203238352F313030004D3834004D380A
:1049D0003420582059205A2045004D3234004D32A1
:1049E0003320257300580059005A004578747275B9
:1049F00064657200473238004D3834004732382041
:104A00005A0050727573614E6D6B320052414D42C7
:104A10006F42696700336D6D002D2D2D2D2D2D2DCD
:104A20002D2D2D2D2D004669726D77617265202D1B
:104A300020322E322E340048617264636F646564E4
:104A40002044656661756C742053657474696E6783
:104A500073204C6F616465640046696C616D656EBE
:104A6000742073657474696E67733A204469736166
:104A7000626C6564002020204D32303020440046B6
:104A8000696C616D656E742073657474696E6773AB
:104A90003A002020204D3230392053004175746F88
:104AA0002D526574726163743A20533D3020746FE7
:104AB0002064697361626C652C203120746F2069F9
:104AC0006E74657270726574206578747275646551
:104AD0002D6F6E6C79206D6F766573206173207217
:104AE00065747261637473206F72207265636F7690
:104AF0006572696573002046002020204D323038F1
:104B00002053005265636F7665723A20533D4578B5
:104B1000747261206C656E67746820286D6D292041
:104B2000463A537065656420286D6D2F6D2900200D
:104B30005A002046002020204D32303720530052AA
:104B40006574726163743A20533D4C656E67746896
:104B500020286D6D2920463A537065656420286DC4
:104B60006D2F6D29205A3A205A4C69667420286DA1
:104B70006D29002044002049002020204D33303191
:104B80002050005049442073657474696E67733A0D
:104B900000205A0020590020204D32303620580085
:104BA000486F6D65206F666673657420286D6D298A
:104BB0003A00204500205A0020580020420020548E
:104BC0000020204D323035205300416476616E6301
:104BD0006564207661726961626C65733A20533D49
:104BE0004D696E20666565647261746520286D6D1F
:104BF0002F73292C20543D4D696E207472617665A7
:104C00006C20666565647261746520286D6D2F7314
:104C1000292C20423D6D696E696D756D2073656745
:104C20006D656E742074696D6520286D73292C2064
:104C3000583D6D6178696D756D205859206A6572AF
:104C40006B20286D6D2F73292C20205A3D6D6178C3
:104C5000696D756D205A206A65726B20286D6D2F05
:104C600073292C2020453D6D6178696D756D204557
:104C7000206A65726B20286D6D2F73290020540007
:104C800020204D323034205300416363656C6572DF
:104C90006174696F6E3A20533D616363656C657240
:104CA0006174696F6E2C20543D7265747261637417
:104CB00020616363656C65726174696F6E00204585
:104CC00000205A0020590020204D32303120580059
:104CD0004D6178696D756D20416363656C657261C6
:104CE00074696F6E20286D6D2F7332293A0020454C
:104CF00000205A0020590020204D32303320580027
:104D00004D6178696D756D20666565647261746565
:104D10007320286D6D2F73293A00204500205A001A
:104D200020590020204D393220580053746570738B
:104D30002070657220756E69743A0045313A200022
:104D400045303A20005A3A2000593A2000583A207B
:104D5000004D53312C4D53322050696E730A005A66
:104D600000205A3A00590020593A00580020583A79
:104D70000024F4D43050C38E20C2A24017828B701E
:104D800011127A910D816CD90AA861E108C75866A1
:104D900007615143061E4B5D05C145A7041A411129
:104DA00004093D9803713931034036DB02653391C4
:104DB00002D4305402802E1D02632CEE01752AC5E8
:104DC00001B028A001102781018F2564012B244BFD
:104DD00001E0223401AC211F018D200D01801FFC58
:104DE00000841EED00971DDF00B81CD200E61BC634
:104DF00000201BBC00641AB200B219A8000A19A056
:104E0000006A189900D117910040178B00B51684DD
:104E10000031167E00B31579003A157300C7146F80
:104E20000058146A00EE1366008813630025135EB1
:104E300000C7125B006C12570015125400C11151CB
:104E40000070114F0021114B00D61049008D104702
:104E5000004610440002104200C00F4000800F3E88
:104E600000420F3C00060F3B00CB0E3800930E377C
:104E7000005C0E3500270E3400F30D3200C10D31F9
:104E800000900D3000600D2E00320D2D00050D2C10
:104E900000D90C2B00AE0C2900850C29005C0C27D6
:104EA00000350C27000E0C2600E80B2400C40B2450
:104EB00000A00B23007D0B23005A0B2100390B218E
:104EC00000180B2000F80A1F00D90A1E00BB0A1E9A
:104ED000009D0A1D00800A1D00630A1C00470A1B72
:104EE000002C0A1B00110A1A00F7091A00DD091923
:104EF00000C4091900AB091900920917007B0918B1
:104F000000630917004C091600360916002009161F
:104F1000000A091500F5081500E0081400CC081473
:104F200000B8081400A4081400900813007D0812AB
:104F3000006B0813005808120046081200340811CC
:104F400000230811001208110001081100F00710D9
:104F500000E0071000D0071000C0071000B0070FD6
:104F600000A107100091070E0083070F0074070FC0
:104F70000065070E0057070E0049070E003B070D9E
:104F8000002E070E0020070D0013070D0006070D69
:104F900000F9060C00ED060D00E0060C00D4060C2E
:104FA00000C8060C00BC060C00B0060C00A4060BE2
:104FB0000099060C008D060B0082060B0077060B8D
:104FC000006C060B0061060A0057060B004C060A2F
:104FD0000042060A0038060A002E060A0024060AC5
:104FE000001A060A001006090007060A00FD050956
:104FF00000F4050900EB050900E2050900D90509DF
:1050000000D0050900C7050900BE050900B505085F
:1050100000AD050800A50509009C050800940508D9
:10502000008C050800840508007C0508007405084C
:10503000006C050700650508005D050700560508BA
:10504000004E050700470507004005080038050722
:1050500000310507002A050700230507001C050687
:1050600000160507000F05070008050600020507E2
:1050700000FB040600F5040700EE040600E8040641
:1050800000E2040700DB040600D5040600CF040696
:1050900000C9040600C3040600BD040600B70406E8
:1050A00000B1040500AC040600A6040600A0040537
:1050B000009B04060095040500900406008A040580
:1050C0000085040500800406007A040500750405C7
:1050D00000700405006B040500660405006104050A
:1050E000005C04050057040500520405004D04054A
:1050F0000048040500430405003E0404003A04058A
:105100000035040500300404002C040500270404C5
:1051100000230405001E0404001A040400160405FC
:1051200000110404000D0404000904050004040433
:105130000000040400FC030400F8030400F403046A
:1051400000F0030400EC030400E8030400E403049B
:1051500000E0030400DC030400D8030400D40304CB
:1051600000D0030400CC030400C8030300C50303FC
:105170000024F404D9201BC40C5C0E9804C4095FFD
:105180000265077101F405F900FB04B300480487C8
:1051900000C10369005803550003034500BE023AED
:1051A000008402310053022A002902250004022053
:1051B00000E4011C00C8011900AF01170098011498
:1051C0000084011300710110006101100051010EF3
:1051D0000043010D0036010B002B010B0020010BD9
:1051E00000150109000C01090003010800FB00087B
:1051F00000F3000800EB000700E4000600DE0006F4
:1052000000D8000600D2000600CC000500C700054B
:1052100000C2000500BD000400B9000400B5000490
:1052200000B1000400AD000400A9000400A50003C3
:1052300000A20003009F0004009B000300980003ED
:10524000009500020093000300900003008D00020F
:10525000008B000300880002008600020084000327
:1052600000810002007F0002007D0002007B00023E
:10527000007900020077000100760002007400024D
:105280000072000100710002006F0002006D000159
:10529000006C0002006A0001006900020067000162
:1052A0000066000100650001006400020062000168
:1052B0000061000100600001005F0002005D00016C
:1052C000005C0001005B0001005A00010059000170
:1052D0000058000100570001005600010055000170
:1052E000005400010053000000530001005200016F
:1052F0000051000100500001004F0001004E00006D
:10530000004E0001004D0001004C0001004B000068
:10531000004B0001004A0001004900010048000064
:10532000004800010047000100460000004600015F
:10533000004500000045000100440001004300005A
:105340000043000100420000004200010041000053
:105350000041000100400001003F0000003F00014B
:10536000003E0000003E0001003D0000003D000145
:10537000003C0000003C0000003C0001003B00003D
:10538000003B0001003A0000003A00010039000033
:10539000003900010038000000380000003800012A
:1053A0000037000000370001003600000036000022
:1053B0000036000100350000003500000035000116
:1053C000003400000034000000340001003300000D
:1053D0000033000000330001003200000032000002
:1053E00000320001003100000031000000310001F6
:1053F000003000000030000000300001002F0000ED
:10540000002F0000002F0000002F0001002E0000E0
:10541000002E0000002E0001002D0000002D0000D5
:10542000002D0000002D0001002C0000002C0000C9
:10543000002C0000002C0001002B0000002B0000BD
:10544000002B0000002B0001002A0000002A0000B1
:10545000002A0000002A00010029000000290000A5
:105460000029000000290000002900010028000098
:10547000002800000028000000280000002800018B
:105480000027000000270000002700000027000080
:105490000027000100260000002600000026000072
:1054A0000026000000260001002500000025000065
:1054B0000025000000250000002500000025000157
:1054C000002400000024000000240000002400004C
:1054D000002400010023000000230000002300003E
:1054E000002300000023000000230000002300012F
:1054F0000022000000220000002200000022000024
:105500000022000000220001002100000021000014
:105510000021000000210000002100000021000007
:1055200000210001002000000020000000200000F9
:1055300000200000002000000020000000200000EB
:1055400000200001001F0000001F0000001F0000DD
:10555000001F0000001F0000001F0000001F0001CE
:10556000001E0000001E0000001E0000001E0000C3
:10557000000000090A02080B0C0D070603040100D5
:10558000000000000000000000000000000000001B
:105590000000000000000000000000000011100FDB
:1055A00000000000000000000000000000000000FB
:1055B00000000000000000000000000000000000EB
:1055C0000000000000000001021020200808102048
:1055D000401020408002010201080402010102047F
:1055E000081020408080402010080402018004023E
:1055F0000180402010080402010804020101020495
:105600000810204080010204081020408010080487
:1056100008801020400440801020400480050505CB
:1056200005070508080808020202020A0A08080419
:105630000404040101010101010101030303030347
:10564000030303040707070C0C0C0C0C0C0C0C02D6
:1056500002020206060606060606060B0B0B0B0BDD
:105660000B0B0B07070A0A0A0A0A0A0505050404B8
:10567000040808000020002300260029002C002F29
:1056800000320000010000030106010901000022B0
:1056900000250028002B002E0031003400020100FC
:1056A00000050108010B0100002100240027002A49
:1056B000002D003000330001010000040107010A41
:1056C00001024E414E494E495459494E46CDCCCC2B
:1056D0003D0AD7233C17B7D13877CC2B329595E6C6
:1056E000241FB14F0A000020410000C84200401CA6
:1056F0004620BCBE4CCA1B0E5AAEC59D74006886BF
:10570000D7A026D46C8611241FBECFEFD1E2DEBF16
:10571000CDBF00E00CBF1DE0A0E0B2E0EAE2FFEC8C
:1057200001E00BBF02C007900D92AC32B107D9F770
:105730002CE1ACE2BDE001C01D92A134B207E1F75B
:1057400016E5C4E0D7E500E006C022970109FE0196
:105750000BBF0E941DE1CE3FD10780E00807A9F7EB
:105760000E943CD80C9484E70C940000CF93DF9304
:10577000EC019C012C5F3F4F41E050E060E070E0A5
:10578000898D9A8D0E945836882399F04D895E89BB
:105790006F89788D452B462B472B59F44C815D81C1
:1057A0006E817F814D8B5E8B6F8B788F9981906836
:1057B0009983DF91CF910895CF92DF92EF92FF927C
:1057C0000F931F93CF93DF93EC0189899A89AB895B
:1057D000BC89803E9F4FAF41B10510F080E06BC0A7
:1057E000CE01C4DF8823D1F30E946C34182F8823A4
:1057F000A9F3E98DFA8DCC80DD80EE80FF8032E068
:10580000C31AD108E108F108058404C0CC0CDD1CE2
:10581000EE1CFF1C0A94D2F786859785A089B18972
:10582000C80ED91EEA1EFB1E81E08093320DC09285
:10583000350FD092360FE092370FF092380F80E09C
:1058400092E0E5E3FDE0DF019C011D922150304034
:10585000E1F701E0E98DFA8D8481081790F425E3E2
:105860003DE0B701A601400F511D611D711D8091E2
:10587000330D9091340D0E94435A8823E1F00F5F5D
:10588000E9CFC12C82E0D82EE12CF12C058404C094
:10589000CC0CDD1CEE1CFF1C0A94D2F749895A89F6
:1058A0006B897C894C0D5D1D6E1D7F1D498B5A8B4C
:1058B0006B8B7C8B812FDF91CF911F910F91FF908C
:1058C000EF90DF90CF900895CF93DF93EC0141E00C
:1058D000611101C040E06C857D858E859F850E94A9
:1058E000AC34882341F0888920E2829FC0011124D2
:1058F0008B5C924F02C080E090E0DF91CF910895E1
:1059000030E020E04EE2DC015C91503271F0383042
:1059100029F4FB01E20FF11D40832F5FFB01E20F31
:10592000F11DDC015C9150832F5F3F5F01963B309E
:1059300051F7FB01E20FF11D10820895CF93DF9321
:10594000EB01FC012381211102C080E00EC0225036
:10595000223020F48FE28883198206C060E0B4DF31
:10596000009799F3BE01CCDF81E0DF91CF910895DC
:10597000FB012BE030E231932150E9F7DC0190E0AC
:1059800027E03A2FEB2F8D9181110AC0DA013C9369
:105990001196EC9381E0FB019081903239F525C09E
:1059A0008F32A1F38E3219F0EAE8F1E008C02A3014
:1059B000E1F098E02AE0E5CF31963817B1F0349164
:1059C0003111FACF291788F03FED380F3E3568F4D2
:1059D00031E0390FFB01E90FF11D9FE9980F9A3172
:1059E00008F480528083932FCCCF80E008950F93EA
:1059F0001F93CF93DF93EC018B018B81882311F0F0
:105A000080E042C0FB018789803139F18032C1F7E3
:105A100083E08B83F801428D538D648D758D4D8BA2
:105A20005E8B6F8B788F9E012F5E3F4FC8010E9467
:105A30006335882329F31A8F098F81E089831C82BB
:105A40001D821E821F82188619861A861B861C8656
:105A50001D861E861F86188A17C082E08B831D8ACA
:105A60001E8A1F8A188EFB01408D518D60E070E008
:105A700095E0440F551F661F771F9A95D1F7498B04
:105A80005A8B6B8B7C8BD7CFDF91CF911F910F916E
:105A900008952F923F924F925F926F927F928F92D2
:105AA0009F92AF92BF92CF92DF92EF92FF920F93AD
:105AB0001F93CF93DF93EC015B016A018B8181110E
:105AC00003C08FEF9FEFC7C0898180FFFACF49895C
:105AD0005A896B897C8988859985AA85BB85260129
