:100000000C9426300C9457300C9457300C94573085
:100010000C9457300C9457300C9457300C94573044
:100020000C9457300C9457300C9457300C94573034
:100030000C9457300C943FF40C9457300C94573078
:100040000C9457300C946AD20C9457300C9457305F
:100050000C9457300C9457300C94D3480C94FFEF09
:100060000C9457300C9438CF0C9457300C94573074
:100070000C9457300C9457300C9457300C945730E4
:100080000C9457300C9457300C9457300C945730D4
:100090000C9457300C9457300C9457300C9431ED2D
:1000A0000C9457300C9457300C9457300C945730B4
:1000B0000C9457300C9457300C9457300C945730A4
:1000C0000C9457300C9457300C9457300C94573094
:1000D0000C9457300C9457300C9457300C94573084
:1000E0000C94573020492E494A4958497249804951
:1000F0009A499E49A049A449AC4983EE88EE8DEE09
:1001000097EE10EFA1EEA9EEB1EEBBEEC5EECFEE8D
:10011000DEEEE8EE10EFF2EEFCEE06EF2EEF31EF42
:1001200024EF28EF68EF35EF39EF3FEF43EF47EF6C
:100130004DEF51EF55EF68EF5BEF5FEF63EF084A6C
:10014000D73B3BCE016E84BCBFFDC12F3D6C7431EB
:100150009ABD56833DDA3D00C77F11BED9E4BB4C42
:100160003E916BAAAABE000000803F05A84CCDB20C
:10017000D44EB93836A9020C50B9918688083CA6ED
:10018000AAAA2ABE000000803F007C3C3E5E2B3DB8
:100190003F2F5B5D3B2C2A225C004572723A204D5A
:1001A000415854454D50204245440054656D70659A
:1001B000726174757265206865617465642062653A
:1001C00064207377697463686564206F66662E20A7
:1001D0004D415854454D502074726967676572658A
:1001E000642021004572723A204D494E54454D50CD
:1001F000003A20457874727564657220737769746B
:1002000063686564206F66662E204D494E54454DE7
:1002100050207472696767657265642021004572B9
:10022000723A204D415854454D50003A204578745B
:100230007275646572207377697463686564206F92
:1002400066662E204D415854454D502074726967A2
:100250006765726564202100544845524D414C2029
:1002600052554E4157415900202D20496E76616C00
:100270006964206578747275646572206E756D624C
:100280006572202100504944204175746F74756E69
:10029000652066696E6973686564212050757420F5
:1002A000746865206C617374204B702C204B69203E
:1002B000616E64204B6420636F6E7374616E74733F
:1002C0002066726F6D2061626F766520696E746F53
:1002D00020436F6E66696775726174696F6E2E6810
:1002E00000504944204175746F74756E65206661D5
:1002F000696C6564212074696D656F7574002040B8
:100300003A006F6B20543A006F6B20423A0050491C
:1003100044204175746F74756E65206661696C6503
:1003200064212054656D7065726174757265207406
:100330006F6F206869676800204B643A2000204B8B
:10034000693A2000204B703A200020436C6173739F
:1003500069632050494420002054753A2000204B06
:10036000753A2000206D61783A2000206D696E3A60
:10037000200020643A200020626961733A200070F6
:10038000012C0190012701B0012201C0011D01F0E3
:100390000118011002130130020E016002090190E0
:1003A000020401C002FF000003FA004003F50080D0
:1003B00003F000D003EB002004E6007004E100E04D
:1003C00004DC004005D700C005D2004006CD00D0B7
:1003D00006C8008007C3003008BE00F008B900C09E
:1003E00009B400B00AAF00B00BAA00D00CA5000001
:1003F0000EA000500F9B00C01096005012910000FC
:10040000148C00C0158700B0178200B0197D00D091
:100410001B7800001E730040206E0090226900F0DF
:1004200024640040275F0090295A00E02B550010FB
:100430002E500020304B0010324600E03341009037
:10044000353C001037370070383200A0392D00B02D
:100450003A2800A03B2300603C1E00103D1900908C
:100460003D1400103E0F00703E0A00C03E05000023
:100470003F00004472756B207A20555342202000C3
:10048000496D70726573696F6E20646520555342C3
:1004900020005374616D70612064612055534200E7
:1004A0005469736B207A20555342202000555342E3
:1004B000207072696E74696E6720200053746174D5
:1004C000797374796B61202000457374616469737A
:1004D0007469636120200053746174697374696383
:1004E00068650053746174697374696B61202000DE
:1004F0005374617469737469637320200053656C6D
:100500006674657374206E69657564616E79004107
:1005100075746F746573742066616C6C61646F00D0
:100520004175746F746573742066616C6C69746F67
:100530000053656C66746573742073656C68616CD8
:1005400020200053656C6674657374206661696C65
:10055000656420200053656C6674657374202020E8
:10056000202020202020004175746F746573740072
:100570004175746F746573740053656C667465734C
:10058000742020202020202020200053656C6674D9
:100590006573742020202020202020200057737AAB
:1005A0007973746B6F204F4B202020202020005443
:1005B0006F646F2062696520004E657373756E20ED
:1005C0006572726F726500567365204F4B20202054
:1005D000202020202020202000416C6C20636F729E
:1005E00072656374202020202020004B6F6E74728F
:1005F0006F6C6120626564202020202000436F6EB4
:1006000074726F6C2064652063616D610056657261
:1006100069666963612070696173747261004B6F10
:100620006E74726F6C61206265642020202020004F
:10063000436865636B696E672062656420202020D3
:1006400020004B6F6E74726F6C61205A2061786964
:1006500073202000436F6E74726F6C2064656C2091
:10066000656A65205A005665726966696361206132
:10067000737365205A004B6F6E74726F6C61205AF1
:100680002061786973202000436865636B696E6739
:10069000205A20617869732020004B6F6E74726F4E
:1006A0006C6120592061786973202000436F6E745B
:1006B000726F6C2064656C20656A65205900566510
:1006C00072696669636120617373652059004B6FBD
:1006D0006E74726F6C6120592061786973202000FC
:1006E000436865636B696E67205920617869732080
:1006F00020004B6F6E74726F6C61205820617869B6
:1007000073202000436F6E74726F6C2064656C20E0
:10071000656A652058005665726966696361206183
:100720007373652058004B6F6E74726F6C61205844
:100730002061786973202000436865636B696E6788
:10074000205820617869732020004B6F6E74726F9F
:100750006C6120686F74656E64202000436F6E7456
:10076000726F6C20686F74656E64200056657269E4
:1007700066696361206C696D2074656D70004B6FF4
:100780006E74726F6C6120686F74656E64202000F7
:10079000436865636B696E6720686F74656E64207B
:1007A00020004B6F6E74726F6C6120656E647374A1
:1007B0006F707300436F6E742E20746F70657320BA
:1007C00066696E616C005665726966696361206C6A
:1007D000696D697469004B6F6E74726F6C6120652E
:1007E0006E6473746F707300436865636B696E67E2
:1007F00020656E6473746F70730053656C6620744B
:100800006573742073746172742020004175746F75
:10081000746573742073616C69646100496E697AF0
:100820006961206175746F746573740053656C66DB
:100830002074657374207374617274202000536592
:100840006C66207465737420737461727420200068
:10085000437A6173206472756B75203A20200054CE
:1008600069656D706F20646520696D702E3A005463
:10087000656D706F207374616D70613A00436173D0
:10088000207469736B75203A2020005072696E7471
:100890002074696D653A20200046696C616D656E53
:1008A00074203A20200046696C616D656E746F207B
:1008B0003A20200046696C616D656E746F3A00469F
:1008C000696C616D656E74203A20200046696C6128
:1008D0006D656E7420757365643A202000437A61FB
:1008E000732063616C6B6F77697479203A00546987
:1008F000656D706F20746F74616C203A0054656D83
:10090000706F207374616D706120746F743A00436E
:10091000656C6B6F767920636173203A00546F7455
:10092000616C207072696E742074696D65203A0084
:1009300046696C616D656E74206C61637A6E696581
:10094000203A0046696C616D656E746F20746F7437
:10095000616C3A0046696C616D656E746F20746FEE
:10096000743A0046696C616D656E742063656C6BEA
:10097000656D203A00546F74616C2066696C616D1E
:10098000656E74203A0053656C662074657374203C
:100990004F4B0053656C662074657374204F4B0099
:1009A0004175746F74657374204F4B0053656C66AA
:1009B0002074657374204F4B0053656C662074651A
:1009C0007374204F4B00456E6473746F70206E6FAC
:1009D000742068697400546F70652066696E2E20FB
:1009E0006E6F20746F632E004C696D2E2066756FDC
:1009F0007269706F727461746100456E6473746FB4
:100A000070206E6F742068697400456E6473746F33
:100A100070206E6F742068697400456E6473746F23
:100A20007000546F70652066696E616C004C696D72
:100A300069746520636F72736100456E6473746FCF
:100A40007000456E6473746F700053696C6E696BEF
:100A5000004D6F746F72004D6F746F7265004D6F53
:100A6000746F72004D6F746F7200456E6473746FB3
:100A7000707300546F7065732066696E616C004C12
:100A8000696D69746920636F72736100456E647388
:100A9000746F707300456E6473746F707300426C92
:100AA000616420706F6C61637A656E696100457284
:100AB000726F7220646520636F6E657869C383C648
:100AC00092C382C2B36E004572726F726520636119
:100AD000626C616767696F004368796261207A615F
:100AE000706F6A656E6900576972696E672065721A
:100AF000726F7200426564202F20486561746572D0
:100B00000043616D612F43616C656E7461646F7247
:100B100000506961737472612F52697363616C6410
:100B200061746F726500426564202F2048656174AE
:100B3000657200426564202F20486561746572000B
:100B40004865617465722F546865726D6973746F5E
:100B5000720043616C656E742E2F5465726D6973FB
:100B6000746F720052697363616C642E2F546572E6
:100B70006D6973746F7265004865617465722F5496
:100B80006865726D6973746F72004865617465722F
:100B90002F546865726D6973746F72004E696520B9
:100BA000706F646C61637A6F6E6F202020004E6FEF
:100BB0002068617920636F6E6578696F6E20200010
:100BC0004E6F6E20636F6E6E6573736F004E657A45
:100BD00061706F6A656E6F20202020004E6F742058
:100BE000636F6E6E656374656400536B6F6E7472D1
:100BF0006F6C756A203A00436F6E74726F6C61207F
:100C00003A0056657269666963613A005A6B6F6EA5
:100C100074726F6C756A7465203A00506C6561730C
:100C20006520636865636B203A0053656C66746584
:100C30007374206572726F72202100C383E2809A00
:100C4000C382C2A14175746F74657374206572723A
:100C50006F7221004175746F74657374206E6567DF
:100C6000617469766F0053656C6674657374206592
:100C700072726F7220210053656C66746573742004
:100C80006572726F72202100686F77746F2E7072B8
:100C900075736133642E637A00686F77746F2E709A
:100CA0007275736133642E636F6D00686F77746F54
:100CB0002E707275736133642E636F6D00686F7789
:100CC000746F2E707275736133642E637A00686F6F
:100CD00077746F2E707275736133642E636F6D005D
:100CE000666F72756D2E707275736133642E637AE0
:100CF00000666F72756D2E707275736133642E634A
:100D00006F6D00666F72756D2E70727573613364EE
:100D10002E636F6D00666F72756D2E7072757361E4
:100D200033642E637A00666F72756D2E7072757300
:100D30006133642E636F6D00707275736133642E5E
:100D4000637A00707275736133642E636F6D007027
:100D50007275736133642E636F6D007072757361A9
:100D600033642E637A00707275736133642E636F1F
:100D70006D005779626F72206A657A796B61202005
:100D80002020202020200043616D626961206C6179
:100D9000206C656E677561200053656C657A2E2046
:100DA0006C61206C696E67756100567962657220AE
:100DB0006A617A796B612020202020202020005356
:100DC000656C656374206C616E6775616765202072
:100DD00020202000506F6C736B6900457370616E4A
:100DE0006F6C004974616C69616E6F004365737468
:100DF000696E6100456E676C697368004572726F59
:100E00007220696E206D656E7520737472756374DF
:100E1000757265004572726F7220696E206D656E25
:100E20007520737472756374757265004572726FA4
:100E30007220696E206D656E7520737472756374AF
:100E4000757265004572726F7220696E206D656EF5
:100E50007520737472756374757265004572726F74
:100E60007220696E206D656E75207374727563747F
:100E700075726500446F737461766F76616E692078
:100E80005A0041646A757374696E67205A00416440
:100E90006A757374696E67205A00446F7374617663
:100EA0006F76616E69205A0041646A757374696E69
:100EB00067205A00426162797374657070696E6769
:100EC000205900426162797374657070696E6720A1
:100ED0005900426162797374657070696E67205958
:100EE00000426162797374657070696E67205900A1
:100EF000426162797374657070696E67205900424F
:100F00006162797374657070696E67205800426120
:100F100062797374657070696E672058004261620F
:100F2000797374657070696E6720580042616279E8
:100F30007374657070696E672058004261627973DE
:100F400074657070696E6720580020746F6F206C34
:100F50006F6E6720657874727573696F6E2070723A
:100F60006576656E7465640020746F6F206C6F6EBB
:100F70006720657874727573696F6E20707265761C
:100F8000656E7465640020746F6F206C6F6E6720EF
:100F9000657874727573696F6E2070726576656EB0
:100FA0007465640020746F6F206C6F6E67206578C5
:100FB00074727573696F6E2070726576656E746594
:100FC000640020746F6F206C6F6E67206578747298
:100FD0007573696F6E2070726576656E74656400F6
:100FE00020636F6C6420657874727573696F6E200E
:100FF00070726576656E7465640020636F6C642042
:10100000657874727573696F6E2070726576656E3F
:101010007465640020636F6C642065787472757306
:10102000696F6E2070726576656E7465640020630A
:101030006F6C6420657874727573696F6E2070725E
:101040006576656E7465640020636F6C64206578F6
:1010500074727573696F6E2070726576656E7465F3
:101060006400656E6473746F7073206869743A20ED
:1010700000656E6473746F7073206869743A200041
:10108000656E6473746F7073206869743A200065CC
:101090006E6473746F7073206869743A2000656EB3
:1010A0006473746F7073206869743A2000537465B8
:1010B000707261746520746F6F20686967683A2088
:1010C00000537465707261746520746F6F20686975
:1010D00067683A2000537465707261746520746F9C
:1010E0006F20686967683A20005374657072617494
:1010F0006520746F6F20686967683A2000537465D3
:10110000707261746520746F6F20686967683A2037
:101110000043616E6E6F7420656E74657220737526
:10112000626469723A200043616E6E6F7420656E6E
:10113000746572207375626469723A200043616E4F
:101140006E6F7420656E7465722073756264697267
:101150003A200043616E6E6F7420656E7465722074
:101160007375626469723A200043616E6E6F742019
:10117000656E746572207375626469723A200065E9
:1011800072726F722077726974696E6720746F2053
:1011900066696C65006572726F7220777269746936
:1011A0006E6720746F2066696C65006572726F727D
:1011B0002077726974696E6720746F2066696C6548
:1011C000006572726F722077726974696E6720743D
:1011D0006F2066696C65006572726F722077726944
:1011E00074696E6720746F2066696C65004E6F7459
:1011F000205344207072696E74696E67004E6F747C
:10120000205344207072696E74696E67004E6F746B
:10121000205344207072696E74696E67004E6F745B
:10122000205344207072696E74696E67004E6F744B
:10123000205344207072696E74696E6700534420B5
:101240007072696E74696E672062797465200053EC
:1012500044207072696E74696E67206279746520CB
:10126000005344207072696E74696E6720627974ED
:101270006520005344207072696E74696E67206245
:1012800079746520005344207072696E74696E67CA
:101290002062797465200057726974696E672074E2
:1012A0006F2066696C653A200057726974696E67D1
:1012B00020746F2066696C653A2000577269746902
:1012C0006E6720746F2066696C653A2000577269FA
:1012D00074696E6720746F2066696C653A200057E8
:1012E000726974696E6720746F2066696C653A2054
:1012F0000046696C652073656C65637465640046BF
:10130000696C652073656C65637465640046696C1F
:10131000652073656C65637465640046696C65205F
:1013200073656C65637465640046696C65207365FC
:101330006C6563746564002053697A653A20002007
:1013400053697A653A20002053697A653A20002073
:1013500053697A653A20002053697A653A2000463D
:10136000696C65206F70656E65643A200046696C33
:1013700065206F70656E65643A200046696C652073
:101380006F70656E65643A200046696C65206F7009
:10139000656E65643A200046696C65206F70656E05
:1013A00065643A20006F70656E206661696C6564E3
:1013B0002C2046696C653A20006F70656E2066616E
:1013C000696C65642C2046696C653A20006F706515
:1013D0006E206661696C65642C2046696C653A20F4
:1013E000006F70656E206661696C65642C204669CB
:1013F0006C653A20006F70656E206661696C65648B
:101400002C2046696C653A2000776F726B446972D4
:10141000206F70656E206661696C656400776F721D
:101420006B446972206F70656E206661696C6564DB
:1014300000776F726B446972206F70656E20666111
:10144000696C656400776F726B446972206F7065B8
:101450006E206661696C656400776F726B446972B7
:10146000206F70656E206661696C6564005344206E
:1014700063617264206F6B00534420636172642067
:101480006F6B0053442063617264206F6B005344A0
:101490002063617264206F6B005344206361726447
:1014A000206F6B006F70656E526F6F74206661699C
:1014B0006C6564006F70656E526F6F742066616951
:1014C0006C6564006F70656E526F6F742066616941
:1014D0006C6564006F70656E526F6F742066616931
:1014E0006C6564006F70656E526F6F742066616921
:1014F0006C656400766F6C756D652E696E6974201D
:101500006661696C656400766F6C756D652E696ED9
:101510006974206661696C656400766F6C756D65D1
:101520002E696E6974206661696C656400766F6C03
:10153000756D652E696E6974206661696C656400FD
:10154000766F6C756D652E696E6974206661696C65
:10155000656400534420696E6974206661696C009B
:10156000534420696E6974206661696C005344209D
:10157000696E6974206661696C00534420696E6904
:1015800074206661696C00534420696E697420663A
:1015900061696C0043616E6E6F74206F70656E20C0
:1015A0007375626469720043616E6E6F74206F7050
:1015B000656E207375626469720043616E6E6F744C
:1015C000206F70656E207375626469720043616E8E
:1015D0006E6F74206F70656E20737562646972003F
:1015E00043616E6E6F74206F70656E2073756264F8
:1015F000697200486F74656E64206F666673657407
:10160000733A00486F74656E64206F666673657424
:10161000733A00486F74656E64206F666673657414
:10162000733A00486F74656E64206F666673657404
:10163000733A00486F74656E64206F6666736574F4
:10164000733A006F70656E006F70656E006F706545
:101650006E006F70656E006F70656E005452494782
:101660004745524544005452494747455245440076
:10167000545249474745524544005452494747450B
:10168000524544005452494747455245440052652B
:10169000706F7274696E6720656E6473746F70200A
:1016A000737461747573005265706F7274696E67DC
:1016B00020656E6473746F70207374617475730049
:1016C0005265706F7274696E6720656E6473746FB3
:1016D0007020737461747573005265706F727469F1
:1016E0006E6720656E6473746F70207374617475B7
:1016F00073005265706F7274696E6720656E6473F3
:10170000746F7020737461747573007A5F6D6178A3
:101710003A20007A5F6D61783A20007A5F6D6178D7
:101720003A20007A5F6D61783A20007A5F6D6178C7
:101730003A20007A5F6D696E3A20007A5F6D696EBB
:101740003A20007A5F6D696E3A20007A5F6D696EAB
:101750003A20007A5F6D696E3A2000795F6D61789A
:101760003A2000795F6D61783A2000795F6D617889
:101770003A2000795F6D61783A2000795F6D617879
:101780003A2000795F6D696E3A2000795F6D696E6D
:101790003A2000795F6D696E3A2000795F6D696E5D
:1017A0003A2000795F6D696E3A2000785F6D61784C
:1017B0003A2000785F6D61783A2000785F6D61783B
:1017C0003A2000785F6D61783A2000785F6D61782B
:1017D0003A2000785F6D696E3A2000785F6D696E1F
:1017E0003A2000785F6D696E3A2000785F6D696E0F
:1017F0003A2000785F6D696E3A2000496E76616C20
:10180000696420657874727564657200496E7661EA
:101810006C696420657874727564657200496E76CF
:10182000616C696420657874727564657200496ED4
:1018300076616C69642065787472756465720049BC
:101840006E76616C69642065787472756465720087
:101850004163746976652045787472756465723A7F
:1018600020004163746976652045787472756465FB
:10187000723A200041637469766520457874727508
:101880006465723A20004163746976652045787416
:1018900072756465723A200041637469766520450B
:1018A000787472756465723A2000556E6B6E6F774E
:1018B0006E20636F6D6D616E643A202200556E6B11
:1018C0006E6F776E20636F6D6D616E643A202200DB
:1018D000556E6B6E6F776E20636F6D6D616E643ADF
:1018E000202200556E6B6E6F776E20636F6D6D6199
:1018F0006E643A202200556E6B6E6F776E20636FB8
:101900006D6D616E643A202200526573656E643AB3
:101910002000526573656E643A2000526573656EEF
:10192000643A2000526573656E643A200052657314
:10193000656E643A20005072696E7465722073742B
:101940006F707065642064756520746F20657272B5
:101950006F72732E204669782074686520657272F4
:101960006F7220616E6420757365204D393939209E
:10197000746F20726573746172742E202854656DC3
:101980007065726174757265206973207265736524
:10199000742E20536574206974206166746572200A
:1019A00072657374617274696E6729005072696E32
:1019B0007465722073746F7070656420647565203F
:1019C000746F206572726F72732E2046697820746E
:1019D0006865206572726F7220616E642075736530
:1019E000204D39393920746F2072657374617274B7
:1019F0002E202854656D706572617475726520695A
:101A0000732072657365742E205365742069742089
:101A100061667465722072657374617274696E6751
:101A200029005072696E7465722073746F707065EE
:101A3000642064756520746F206572726F72732EF6
:101A40002046697820746865206572726F72206123
:101A50006E6420757365204D39393920746F20729A
:101A60006573746172742E202854656D706572619F
:101A7000747572652069732072657365742E2053C6
:101A80006574206974206166746572207265737470
:101A9000617274696E6729005072696E7465722094
:101AA00073746F707065642064756520746F206551
:101AB00072726F72732E2046697820746865206593
:101AC00072726F7220616E6420757365204D3939B2
:101AD0003920746F20726573746172742E202854DB
:101AE000656D7065726174757265206973207265C9
:101AF0007365742E20536574206974206166746563
:101B0000722072657374617274696E672900507215
:101B1000696E7465722073746F707065642064758B
:101B20006520746F206572726F72732E204669781B
:101B300020746865206572726F7220616E64207512
:101B40007365204D39393920746F20726573746163
:101B500072742E202854656D70657261747572659B
:101B60002069732072657365742E20536574206933
:101B70007420616674657220726573746172746931
:101B80006E6729005072696E7465722068616C74AA
:101B900065642E206B696C6C28292063616C6C6510
:101BA0006421005072696E7465722068616C74659E
:101BB000642E206B696C6C28292063616C6C6564F1
:101BC00021005072696E7465722068616C7465647E
:101BD0002E206B696C6C28292063616C6C65642114
:101BE000005072696E7465722068616C7465642E51
:101BF000206B696C6C28292063616C6C6564210022
:101C00005072696E7465722068616C7465642E2010
:101C10006B696C6C28292063616C6C656421002001
:101C2000436F756E7420583A200020436F756E74B0
:101C300020583A200020436F756E7420583A2000D7
:101C400020436F756E7420583A200020436F756EE4
:101C50007420583A20004649524D574152455F4E34
:101C6000414D453A4D61726C696E2056312E302ED1
:101C7000323B20537072696E7465722F6772626CAA
:101C8000206D617368757020666F722067656E36AF
:101C9000204649524D574152455F55524C3A68745F
:101CA0007470733A2F2F6769746875622E636F6D55
:101CB0002F707275736133642F50727573612D6963
:101CC000332D506C75732F2050524F544F434F4C4F
:101CD0005F56455253494F4E3A312E30204D4143C5
:101CE00048494E455F545950453A507275736120CA
:101CF00069332045585452554445525F434F554E21
:101D0000543A3120555549443A3030303030303033
:101D1000302D303030302D303030302D30303030CC
:101D20002D3030303030303030303030300A0046F6
:101D300049524D574152455F4E414D453A4D6172B2
:101D40006C696E2056312E302E323B2053707269F2
:101D50006E7465722F6772626C206D617368757046
:101D600020666F722067656E36204649524D574196
:101D700052455F55524C3A68747470733A2F2F670E
:101D800069746875622E636F6D2F7072757361333D
:101D9000642F50727573612D69332D506C75732FDC
:101DA0002050524F544F434F4C5F56455253494F6A
:101DB0004E3A312E30204D414348494E455F5459EB
:101DC00050453A507275736120693320455854521A
:101DD000554445525F434F554E543A31205555496D
:101DE000443A30303030303030302D303030302DDB
:101DF000303030302D303030302D303030303030E9
:101E00003030303030300A004649524D574152454B
:101E10005F4E414D453A4D61726C696E2056312ED0
:101E2000302E323B20537072696E7465722F677268
:101E3000626C206D617368757020666F72206765D3
:101E40006E36204649524D574152455F55524C3AE5
:101E500068747470733A2F2F6769746875622E63A3
:101E60006F6D2F707275736133642F50727573616B
:101E70002D69332D506C75732F2050524F544F43A2
:101E80004F4C5F56455253494F4E3A312E30204DFC
:101E9000414348494E455F545950453A5072757315
:101EA000612069332045585452554445525F434F91
:101EB000554E543A3120555549443A30303030303F
:101EC0003030302D303030302D303030302D30301B
:101ED00030302D3030303030303030303030300A2B
:101EE000004649524D574152455F4E414D453A4D8E
:101EF00061726C696E2056312E302E323B20537049
:101F000072696E7465722F6772626C206D6173689E
:101F1000757020666F722067656E36204649524D97
:101F2000574152455F55524C3A68747470733A2F5A
:101F30002F6769746875622E636F6D2F7072757389
:101F40006133642F50727573612D69332D506C7538
:101F5000732F2050524F544F434F4C5F56455253AE
:101F6000494F4E3A312E30204D414348494E455F4E
:101F7000545950453A507275736120693320455861
:101F80005452554445525F434F554E543A312055B3
:101F90005549443A30303030303030302D303030E8
:101FA000302D303030302D303030302D303030303A
:101FB00030303030303030300A004649524D5741D1
:101FC00052455F4E414D453A4D61726C696E2056E7
:101FD000312E302E323B20537072696E7465722F31
:101FE0006772626C206D617368757020666F722015
:101FF00067656E36204649524D574152455F5552EE
:102000004C3A68747470733A2F2F676974687562FC
:102010002E636F6D2F707275736133642F507275FC
:1020200073612D69332D506C75732F2050524F54AE
:102030004F434F4C5F56455253494F4E3A312E3025
:10204000204D414348494E455F545950453A5072DE
:102050007573612069332045585452554445525F89
:10206000434F554E543A3120555549443A3030305B
:1020700030303030302D303030302D303030302D69
:10208000303030302D303030303030303030303053
:10209000300A0053746F6C696B204F4B2E00426105
:1020A0007365206C6973746F2E0050696174746F6E
:1020B00020666174746F2E00426564204F4B2E00C1
:1020C00042656420646F6E650047727A616E69656F
:1020D0002073746F6C696B612E2E004261736520F2
:1020E00043616C656E74616E646F005069617474F5
:1020F0006F2072697363616C64616D2E005A616850
:10210000726976616E692062656400426564204888
:10211000656174696E670047727A616E6965204F08
:102120004B2E0043616C656E74616E646F206C6948
:1021300073746F2E0052697363616C64616D656EB8
:10214000746F20666174746F2E005A6168726976CC
:10215000616E69204F4B2E0048656174696E67207F
:10216000646F6E652E0047727A616E69652E2E2E41
:102170000043616C656E74616E646F2E2E2E00528A
:10218000697363616C64616D656E746F2E2E2E00D1
:102190005A6168726976616E690048656174696E3A
:1021A00067004D31303920496E76616C6964206575
:1021B0007874727564657220004D31303920496E33
:1021C00076616C696420657874727564657220004C
:1021D0004D31303920496E76616C696420657874C0
:1021E000727564657220004D31303920496E766118
:1021F0006C696420657874727564657220004D3175
:10220000303920496E76616C696420657874727526
:1022100064657220004E6F20746865726D69737416
:102220006F7273202D206E6F2074656D7065726102
:1022300074757265004E6F20746865726D69737491
:102240006F7273202D206E6F2074656D70657261E2
:1022500074757265004E6F20746865726D69737471
:102260006F7273202D206E6F2074656D70657261C2
:1022700074757265004E6F20746865726D69737451
:102280006F7273202D206E6F2074656D70657261A2
:1022900074757265004E6F20746865726D69737431
:1022A0006F7273202D206E6F2074656D7065726182
:1022B00074757265004D32323120496E76616C69F9
:1022C0006420657874727564657220004D32323115
:1022D00020496E76616C69642065787472756465F6
:1022E0007220004D32323120496E76616C69642073
:1022F000657874727564657220004D323231204900
:102300006E76616C6964206578747275646572209C
:10231000004D32323120496E76616C6964206578F7
:1023200074727564657220004D32313820496E76C2
:10233000616C696420657874727564657220004D03
:1023400032313820496E76616C6964206578747228
:102350007564657220004D32313820496E76616CAB
:10236000696420657874727564657220004D32313D
:102370003820496E76616C69642065787472756482
:10238000657220004D32313820496E76616C696487
:1023900020657874727564657220004D323030208B
:1023A000496E76616C6964206578747275646572D3
:1023B00020004D32303020496E76616C69642065B2
:1023C0007874727564657220004D32303020496E29
:1023D00076616C696420657874727564657220003A
:1023E0004D32303020496E76616C696420657874B6
:1023F000727564657220004D32303020496E76610E
:102400006C696420657874727564657220004D3162
:10241000303520496E76616C696420657874727518
:1024200064657220004D31303520496E76616C69EB
:102430006420657874727564657220004D313035A2
:1024400020496E76616C6964206578747275646584
:102450007220004D31303520496E76616C69642000
:10246000657874727564657220004D31303520498D
:102470006E76616C6964206578747275646572202B
:10248000004D31303420496E76616C696420657886
:1024900074727564657220004D31303420496E7657
:1024A000616C696420657874727564657220004D92
:1024B00031303420496E76616C69642065787472BD
:1024C0007564657220004D31303420496E76616C40
:1024D000696420657874727564657220004D3130CE
:1024E0003420496E76616C69642065787472756415
:1024F00065722000456E642066696C65206C6973A6
:102500007400456E642066696C65206C69737400A4
:10251000456E642066696C65206C69737400456E55
:10252000642066696C65206C69737400456E642074
:1025300066696C65206C69737400426567696E201A
:1025400066696C65206C69737400426567696E200A
:1025500066696C65206C69737400426567696E20FA
:1025600066696C65206C69737400426567696E20EA
:1025700066696C65206C69737400426567696E20DA
:1025800066696C65206C69737400446F6E652070B9
:1025900072696E74696E672066696C6500446F6E5F
:1025A00065207072696E74696E672066696C65007B
:1025B000446F6E65207072696E74696E672066691B
:1025C0006C6500446F6E65207072696E74696E6729
:1025D0002066696C6500446F6E65207072696E7468
:1025E000696E672066696C65004E6F204C696E6588
:1025F000204E756D62657220776974682063686526
:10260000636B73756D2C204C617374204C696E651F
:102610003A20004E6F204C696E65204E756D6265E4
:1026200072207769746820636865636B73756D2CBD
:10263000204C617374204C696E653A20004E6F2007
:102640004C696E65204E756D62657220776974689D
:1026500020636865636B73756D2C204C6173742007
:102660004C696E653A20004E6F204C696E65204EB5
:10267000756D626572207769746820636865636B45
:1026800073756D2C204C617374204C696E653A2013
:10269000004E6F204C696E65204E756D626572202C
:1026A0007769746820636865636B73756D2C204C63
:1026B000617374204C696E653A20004E6F20436848
:1026C00065636B73756D2077697468206C696E65DE
:1026D000206E756D6265722C204C617374204C699C
:1026E0006E653A20004E6F20436865636B73756DAD
:1026F0002077697468206C696E65206E756D6265FF
:10270000722C204C617374204C696E653A20004E27
:102710006F20436865636B73756D207769746820FB
:102720006C696E65206E756D6265722C204C6173EC
:1027300074204C696E653A20004E6F2043686563D3
:102740006B73756D2077697468206C696E65206E97
:10275000756D6265722C204C617374204C696E65D6
:102760003A20004E6F20436865636B73756D207768
:10277000697468206C696E65206E756D6265722C77
:10278000204C617374204C696E653A200063686563
:10279000636B73756D206D69736D617463682C2054
:1027A0004C617374204C696E653A20006368656300
:1027B0006B73756D206D69736D617463682C204C4B
:1027C000617374204C696E653A2000636865636BC1
:1027D00073756D206D69736D617463682C204C6135
:1027E0007374204C696E653A2000636865636B738F
:1027F000756D206D69736D617463682C204C617315
:1028000074204C696E653A2000636865636B73756C
:102810006D206D69736D617463682C204C617374F5
:10282000204C696E653A20004C696E65204E756DCE
:10283000626572206973206E6F74204C617374201E
:102840004C696E65204E756D6265722B312C204C83
:10285000617374204C696E653A20004C696E652086
:102860004E756D626572206973206E6F74204C61C5
:102870007374204C696E65204E756D6265722B31E4
:102880002C204C617374204C696E653A20004C69B1
:102890006E65204E756D626572206973206E6F746F
:1028A000204C617374204C696E65204E756D6265B5
:1028B000722B312C204C617374204C696E653A2068
:1028C000004C696E65204E756D62657220697320DB
:1028D0006E6F74204C617374204C696E65204E7568
:1028E0006D6265722B312C204C617374204C696EC3
:1028F000653A20004C696E65204E756D62657220E8
:102900006973206E6F74204C617374204C696E651E
:10291000204E756D6265722B312C204C61737420D2
:102920004C696E653A2000446F6E6520736176696C
:102930006E672066696C652E00446F6E652073615A
:1029400076696E672066696C652E00446F6E65203F
:10295000736176696E672066696C652E00446F6EE0
:102960006520736176696E672066696C652E004428
:102970006F6E6520736176696E672066696C652E7F
:10298000006F6B006F6B006F6B006F6B006F6B0005
:102990002020506C616E6E6572427566666572428B
:1029A000797465733A20002020506C616E6E6572F8
:1029B00042756666657242797465733A200020201C
:1029C000506C616E6E6572427566666572427974AE
:1029D00065733A20002020506C616E6E65724275FE
:1029E0006666657242797465733A20002020506CE7
:1029F000616E6E6572427566666572427974657362
:102A00003A20002046726565204D656D6F72793AF7
:102A100020002046726565204D656D6F72793A2001
:102A2000002046726565204D656D6F72793A200011
:102A30002046726565204D656D6F72793A200020E1
:102A400046726565204D656D6F72793A2000204CA5
:102A500061737420557064617465643A2000204C81
:102A600061737420557064617465643A2000204C71
:102A700061737420557064617465643A2000204C61
:102A800061737420557064617465643A2000204C51
:102A900061737420557064617465643A2000207C11
:102AA00020417574686F723A2000207C2041757453
:102AB000686F723A2000207C20417574686F723A0A
:102AC0002000207C20417574686F723A2000207CC1
:102AD00020417574686F723A200020536F667477D6
:102AE0006172652052657365740020536F66747758
:102AF0006172652052657365740020536F66747748
:102B00006172652052657365740020536F66747737
:102B10006172652052657365740020536F66747727
:102B20006172652052657365740020576174636833
:102B3000646F672052657365740020576174636821
:102B4000646F672052657365740020576174636811
:102B5000646F672052657365740020576174636801
:102B6000646F6720526573657400205761746368F1
:102B7000646F67205265736574002042726F776ED0
:102B8000206F7574205265736574002042726F77F0
:102B90006E206F7574205265736574002042726FE9
:102BA000776E206F757420526573657400204272D1
:102BB0006F776E206F7574205265736574002042C4
:102BC000726F776E206F7574205265736574002084
:102BD00045787465726E616C20526573657400206F
:102BE00045787465726E616C20526573657400205F
:102BF00045787465726E616C20526573657400204F
:102C000045787465726E616C20526573657400203E
:102C100045787465726E616C2052657365740050FE
:102C20006F776572557000506F7765725570005000
:102C30006F776572557000506F77657255700050F0
:102C40006F776572557000656E717565696E672086
:102C50002200656E717565696E67202200656E7170
:102C60007565696E67202200656E717565696E67AE
:102C7000202200656E717565696E6720220077708D
:102C8000726F772E207A6D69616E007061726120BB
:102C9000746F6D61722065666563746F0020706586
:102CA00072206D6F73747261726520692063616D4B
:102CB000622E002070726F2070726F6A6576656E8A
:102CC00069207A6D656E0020666F722074616B6595
:102CD0002065666665637400526573746172742062
:102CE0006472756B61726B69005265696E696369C4
:102CF0006172206C6120696D702E00526961767678
:102D0000696F206C61207374616D702E0052657361
:102D100074617274756A7465207469736B61726E24
:102D200075005265626F6F742074686520707269F7
:102D30006E746572004D6F64205B772077796461F3
:102D40006A6E6F73635D004D6F646F205B6D6173BE
:102D500020667565727A615D004D6F646F205B70EF
:102D6000697520666F727A615D004D6F6420205B2B
:102D70007679732E2076796B6F6E5D004D6F64658A
:102D8000205B6869676820706F7765725D004D6FC2
:102D900064202020202020205B63696368795D0027
:102DA0004D6F646F20202020205B73696C656E631B
:102DB000696F5D004D6F646F20202020205B736978
:102DC0006C656E7A696F736F5D004D6F64202020B3
:102DD000202020205B74696368795D004D6F646515
:102DE00020202020205B73696C656E745D0057792C
:102DF0006D69616E612066696C616D656E747500E8
:102E000043616D6269616E646F2066696C2E21009A
:102E10004D757465766F6C652066696C2E21005661
:102E2000796D656E612066696C616D656E74752182
:102E3000004368616E67696E672066696C616D65E5
:102E40006E7421005770726F7761647A2066696CC6
:102E5000616D656E7400496E736572746120666998
:102E60006C616D656E746F00496E73657269726531
:102E70002066696C616D656E746F00566C6F7A7454
:102E8000652066696C616D656E7400496E7365726C
:102E9000742066696C616D656E74004E6163697360
:102EA0006E696A2070727A796369736B0059207059
:102EB000756C736520656C206D616E646F005920C0
:102EC00070756C736520656C206D616E646F004178
:102ED00020737469736B6E65746520746C616369CB
:102EE000746B6F00416E6420707265737320746838
:102EF00065206B6E6F620057796D69616E61206F3E
:102F00006B210043616D62696172206269656E21A7
:102F10000043616D6269612E207269757363697423
:102F20006F21005A6D656E612075737065736E61F7
:102F300021004368616E6765207375636365737311
:102F40002100437A79737A637A2E206B6F6C6F72EB
:102F5000750043617267616E646F20636F6C6F729E
:102F60000043617267616E646F20636F6C6F720003
:102F700043697374656E69206261727679004C6F83
:102F80006164696E6720636F6C6F720050726F735B
:102F90007A6520637A656B61630045737065726161
:102FA00000417370657474610050726F73696D20B5
:102FB00063656B656A746500506C65617365207745
:102FC000616974005770726F772E2066696C616D4D
:102FD000656E74750043617267616E646F20666927
:102FE0006C2E0043617267616E646F2066696C2E9F
:102FF000005A61766164656E692066696C616D6511
:103000006E7475004C6F6164696E672066696C61EF
:103010006D656E74004B6F6C6F72207A616E6965BE
:10302000637A79737A2E00436F6C6F72206E6F2013
:10303000636C61726F00436F6C6F72206E6F206300
:103040006C61726F004261727661206E656E6920FC
:10305000636973746100436F6C6F72206E6F7420CC
:10306000636C656172004272616B2066696C616DB0
:10307000656E74750046696C2E206E6F20636172F8
:103080006761646F0046696C2E206E6F2063617209
:103090006761646F0046696C616D656E74206E6572
:1030A0007A61766564656E0046696C616D656E7403
:1030B000206E6F74206C6F61646564004E696500FA
:1030C0004E6F004E6F004E65004E6F0054616B00F6
:1030D000536900536900416E6F0059657300577959
:1030E0006D69616E61206F6B3F0043616D62696164
:1030F000646F20636F727265632E3F0043616D627F
:103100006961746F20636F72722E3F0056796D652E
:103110006E61206F6B3F004368616E67656420637A
:103120006F72726563746C793F00506F6D6F6300EE
:10313000537570706F727400537570706F72740095
:10314000506F64706F726100537570706F727400AD
:103150004E6167727A656A206479737A65210050DE
:10316000726563616C2E206578747275736F72215D
:10317000005072657269732E207567656C6C6F21E3
:103180000050726564656872656A7465207472794E
:10319000736B752100507265686561742074686591
:1031A000206E6F7A7A6C652100424C41443A0045AA
:1031B00052524F523A004552524F523A00434859E8
:1031C00042413A004552524F523A0052656374727E
:1031D0006163740052656374726163740052656365
:1031E0007472616374005265637472616374005237
:1031F00065637472616374005770726F7761647A8B
:103200002066696C616D656E7400496E74726F64DE
:10321000756369722066696C616D656E746F0043D9
:10322000617269636172652066696C616D656E7457
:103230006F005A61766573742066696C616D656EA6
:1032400074004C6F61642066696C616D656E74001A
:1032500057796A61632066696C616D656E740053AD
:10326000616361722066696C616D656E746F005395
:1032700063617269636172652066696C2E005679BC
:103280006A6D6F75742066696C616D656E7400554A
:103290006E6C6F61642066696C616D656E74004769
:1032A000727A616E69650050726563616C656E74F7
:1032B00061720050726572697363616C6461005081
:1032C00072656465687265760050726568656174E0
:1032D00000557374617769656E696100416A757341
:1032E000746500496D706F7374617A696F6E6900FF
:1032F0004E6173746176656E690053657474696EAE
:103300006773004B616C69627261636A61204F4B45
:103310000043616C696272616369C383C692C38250
:10332000C2B36E204F4B0043616C69627261747569
:103330007261204F4B004B616C6962726163652062
:103340004F4B0043616C6962726174696F6E2064F7
:103350006F6E65004B616C696272756A65205A0018
:1033600043616C696272616E646F205A0043616CE4
:10337000696272616E646F205A004B616C6962729F
:10338000756A69205A0043616C6962726174696E82
:1033900067205A004B616C696272756A205A00435B
:1033A000616C6962726172205A0043616C69627279
:1033B00061205A004B616C6962726F766174205AA9
:1033C0000043616C696272617465205A00567962CB
:1033D000657274652076797469736B0056796265DD
:1033E0007274652076797469736B005679626572C0
:1033F00074652076797469736B00567962657274AE
:10340000652076797469736B005069636B20707204
:10341000696E74004175746F646F7374726F696361
:10342000205A3F004175746F204D6963726F70615F
:10343000736F205A3F004175746F207265676F6C1F
:10344000617265205A203F004175746F20646F6C73
:1034500061646974205A203F004175746F20616473
:103460006A757374205A203F00456E6473746F70E0
:103470002061626F727400456E6473746F702061B6
:10348000626F727400456E6473746F702061626F56
:10349000727400456E6473746F702061626F727431
:1034A00000456E6473746F702061626F72740044C3
:1034B0006F7374726F6A656E6965206F7379205AD5
:1034C000004D6963726F7061736F205A00426162D0
:1034D0007973746570205A00446F6C6164656E691D
:1034E000206F7379205A004C6976652061646A7593
:1034F0007374205A004261627973746570205900B8
:103500004261627973746570205900426162797317
:103510007465702059004261627973746570205936
:10352000004261627973746570205900426162796A
:1035300073746570205800426162797374657020FD
:10354000580042616279737465702058004261626C
:103550007973746570205800426162797374657084
:103560002058005A204F6666736574005A204F66D3
:1035700066736574005A204F6666736574005A203E
:103580004F6666736574005A204F666673657400F3
:10359000486F6D6520582F59206265666F726520EF
:1035A0005A00486F6D6520582F59206265666F720A
:1035B00065205A00486F6D6520582F592062656656
:1035C0006F7265205A00486F6D6520582F59206230
:1035D00065666F7265205A00486F6D6520582F59D7
:1035E000206265666F7265205A005A2070726F62A1
:1035F00065206F75742E20626564005A2070726FAA
:103600006265206F75742E20626564005A207072A6
:103610006F6265206F75742E20626564005A207099
:10362000726F6265206F75742E20626564005A2087
:1036300070726F6265206F75742E2062656400562B
:10364000796D656E6974205344004368616E6765E7
:103650002053442063617264004368616E67652093
:10366000534420636172640056796D656E697420FD
:103670005344004368616E67652053442063617260
:103680006400496E69632E20534400496E69742EAC
:10369000205344206361726400496E69742E205384
:1036A00044206361726400496E69632E20534400B4
:1036B000496E69742E205344206361726400577907
:1036C0006D69656E69632066696C616D656E740015
:1036D00043616D626961722066696C616D656E74CB
:1036E0006F0043616D62696172652066696C616D2E
:1036F000656E746F0056796D656E69742066696CCD
:10370000616D656E74004368616E67652066696C03
:10371000616D656E74004175746F526574722E0030
:103720004175746F526574722E004175746F5265E5
:1037300074722E004175746F526574722E0041755B
:10374000746F526574722E00556E52657420205647
:1037500000556E52657420205600556E52657420D7
:10376000205600556E52657420205600556E5265E5
:1037700074202056005320556E5265742B6D6D00D9
:103780005320556E5265742B6D6D005320556E524B
:1037900065742B6D6D005320556E5265742B6D6DE5
:1037A000005320556E5265742B6D6D00556E526539
:1037B00074202B6D6D00556E526574202B6D6D005D
:1037C000556E526574202B6D6D00556E52657420D8
:1037D0002B6D6D00556E526574202B6D6D00486F1A
:1037E00070206D6D00486F70206D6D00486F702007
:1037F0006D6D00486F70206D6D00486F70206D6DAD
:1038000000526574726163742020560052657472B0
:1038100061637420205600526574726163742020C5
:1038200056005265747261637420205600526574AC
:103830007261637420205600537761702052652EA8
:103840006D6D00537761702052652E6D6D0053775A
:1038500061702052652E6D6D005377617020526546
:103860002E6D6D00537761702052652E6D6D005284
:10387000657472616374206D6D005265747261636A
:1038800074206D6D0052657472616374206D6D00FB
:1038900052657472616374206D6D0052657472615B
:1038A0006374206D6D0053544F505045442E2000DA
:1038B0005041524144410041525245535441544FAA
:1038C000200053544F505045442E200053544F5025
:1038D0005045442E20004B494C4C45442E2000506E
:1038E000415241444120444520454D4552472E0018
:1038F00055434349534F20004B494C4C45442E20DF
:10390000004B494C4C45442E20004E6F206D6F7685
:10391000652E0053696E206D6F76696D69656E74F2
:103920006F004E657373756E204D6F76696D656EB1
:10393000746F004E6F206D6F76652E004E6F206D98
:103940006F76652E004472756B2070727A6572779F
:10395000616E79005072696E742061626F72746575
:1039600064005374616D70612061626F7274697478
:1039700061005469736B20707265727573656E00B7
:103980005072696E742061626F7274656400577A58
:103990006E6F7769656E6965206472756B7500522C
:1039A0006573756D69656E646F20696D7072652EE3
:1039B0000052697072656E6469205374616D706144
:1039C000004F626E6F76656E69207469736B750067
:1039D000526573756D696E67207072696E740057F9
:1039E00061697420666F7220757365722E2E2E00C9
:1039F0004573706572616E646F206F7264656E6589
:103A00007300417474656E6469205574656E7465E5
:103A10002E2E2E005761697420666F7220757365B3
:103A2000722E2E2E005761697420666F7220757396
:103A300065722E2E2E00536C6565702E2E2E005250
:103A400065706F736F2E2E2E00536F7370656E73DB
:103A5000696F6E652E2E2E00536C6565702E2E2EAE
:103A600000536C6565702E2E2E004272616B206BC8
:103A700061727479205344004E6F2068617920741C
:103A800061726A657461205344004E6F2053442074
:103A90004361727461005A61646E61205344206B0B
:103AA00061727461004E6F20534420636172640040
:103AB0004472756B207A205344004D656E75206406
:103AC00065205344004D656E752053442043617258
:103AD0007461005469736B207A20534400507269FA
:103AE0006E742066726F6D205344005A6174727A4E
:103AF000796D6163206472756B00446574656E65F1
:103B00007220696D70726573696F6E0041727265C3
:103B1000737461207374616D7061005A61737461B4
:103B2000766974207469736B0053746F70207072BF
:103B3000696E74004B6F6E74796E756F7761630098
:103B40005265616E7564617220696D707265732E65
:103B50000052697072656E6469207374616D706182
:103B600000506F6B7261636F76617400526573759C
:103B70006D65207072696E740050727A657277613B
:103B800063206472756B0050617573617220696D9A
:103B900070726573696F6E00506175736100506F6C
:103BA0007A61737461766974207469736B00506113
:103BB000757365207072696E74004E617374726FF4
:103BC000696300416A757374617200416461747461
:103BD00061004C616469740054756E6500507269CF
:103BE000707261766100507265706172650050722A
:103BF0006570617265005072697072617661005023
:103C000072657061726500496E666F726D61636A9C
:103C100065004D6F6E69746F72697A6172004775E5
:103C20006172646100496E666F726D61636500491F
:103C30006E666F2073637265656E004F626E6F769D
:103C400069740052656672657368005265667265D4
:103C50007368004F626E6F766974005265667265B4
:103C60007368004F626E6F76697420767963686F4F
:103C70007A6900526573746F7265206661696C734E
:103C800061666500526573746F7265206661696C68
:103C900073616665004F626E6F7669742076796332
:103CA000686F7A6900526573746F72652066616926
:103CB0006C7361666500556C6F7A69742070616D14
:103CC0006574004C6F6164206D656D6F7279004C96
:103CD0006F6164206D656D6F727900556C6F7A69E4
:103CE000742070616D6574004C6F6164206D656D4A
:103CF0006F72790053746F7265206D656D6F7279A4
:103D00000053746F7265206D656D6F727900537426
:103D10006F7265206D656D6F72790053746F726597
:103D2000206D656D6F72790053746F7265206D65DB
:103D30006D6F7279004C434420636F6E74726173CF
:103D400074004C434420636F6E7472617374004C52
:103D5000434420636F6E7472617374004C4344205B
:103D6000636F6E7472617374004C434420636F6EB2
:103D700074726173740046696C2E204469612E2050
:103D8000330046696C2E204469612E203300466959
:103D90006C2E204469612E20330046696C2E20442D
:103DA00069612E20330046696C2E204469612E2003
:103DB000330046696C2E204469612E20320046692A
:103DC0006C2E204469612E20320046696C2E2044FE
:103DD00069612E20320046696C2E204469612E20D4
:103DE000320046696C2E204469612E2032004669FB
:103DF0006C2E204469612E20310046696C2E2044CF
:103E000069612E20310046696C2E204469612E20A4
:103E1000310046696C2E204469612E2031004669CC
:103E20006C2E204469612E2031004520696E206D82
:103E30006D33004520696E206D6D33004520696E3D
:103E4000206D6D33004520696E206D6D3300452077
:103E5000696E206D6D330046696C616D656E74002E
:103E600046696C616D656E740046696C616D656E66
:103E7000740046696C616D656E740046696C616DB5
:103E8000656E7400506F687962004D6F74696F6E73
:103E9000004D6F74696F6E00506F687962004D6FEE
:103EA00074696F6E0054656D7065726174757261CE
:103EB0000054656D70657261747572610054656D52
:103EC0007065726174757261005465706C6F7461B5
:103ED0000054656D70657261747572650045737428
:103EE0006570732F6D6D004573746570732F6D6D04
:103EF000004573746570732F6D6D00457374657044
:103F0000732F6D6D004573746570732F6D6D005A5E
:103F100073746570732F6D6D005A73746570732FB1
:103F20006D6D005A73746570732F6D6D005A7374E4
:103F30006570732F6D6D005A73746570732F6D6D9E
:103F4000005973746570732F6D6D005973746570CB
:103F5000732F6D6D005973746570732F6D6D0059FB
:103F600073746570732F6D6D005973746570732F62
:103F70006D6D005873746570732F6D6D0058737498
:103F80006570732F6D6D005873746570732F6D6D50
:103F9000005873746570732F6D6D0058737465707D
:103FA000732F6D6D00412D726574726163740041F1
:103FB0002D7265747261637400412D726574726153
:103FC000637400412D7265747261637400412D72D7
:103FD00065747261637400416D61782000416D61A8
:103FE000782000416D61782000416D6178200041AA
:103FF0006D617820005654726176206D696E0056AE
:1040000054726176206D696E005654726176206D2F
:10401000696E005654726176206D696E0056547256
:104020006176206D696E00566D696E00566D696E21
:1040300000566D696E00566D696E00566D696E00B2
:10404000650065006500650065007A007A007A0009
:104050007A007A0079007900790079007900780097
:104060007800780078007800566D61782000566DF1
:1040700061782000566D61782000566D61782000CF
:10408000566D6178200056652D6A65726B00566525
:104090002D6A65726B0056652D6A65726B005665F8
:1040A0002D6A65726B0056652D6A65726B00567AD3
:1040B0002D6A65726B00567A2D6A65726B00567AAE
:1040C0002D6A65726B00567A2D6A65726B00567A9E
:1040D0002D6A65726B005678792D6A65726B005691
:1040E00078792D6A65726B005678792D6A65726BE6
:1040F000005678792D6A65726B005678792D6A655D
:10410000726B00416363656C00416363656C0041E1
:104110006363656C00416363656C00416363656C58
:10412000005049442D43005049442D430050494418
:104130002D43005049442D43005049442D43005025
:1041400049442D44005049442D44005049442D44D5
:10415000005049442D44005049442D4400504944E6
:104160002D49005049442D49005049442D490050E3
:1041700049442D49005049442D49005049442D508F
:10418000005049442D50005049442D50005049449E
:104190002D50005049442D50004F6666004F666612
:1041A000004F6666004F6666004F6666004F6E20E1
:1041B000004F6E20004F6E20004F6E20004F6E208B
:1041C000004175746F74656D70004175746F74652E
:1041D0006D70004175746F74656D70004175746F1A
:1041E00074656D70004175746F74656D70002002A8
:1041F000204661637400200220466163740020023F
:10420000204661637400200220466163740020022E
:104210002046616374002002204D61780020022056
:104220004D6178002002204D6178002002204D6110
:1042300078002002204D6178002002204D696E0038
:104240002002204D696E002002204D696E00200280
:10425000204D696E002002204D696E004B6F6E7418
:10426000726F6C6100436F6E74726F6C00436F6E9F
:1042700074726F6C004B6F6E74726F6C6100436F81
:104280006E74726F6C00507275746F6B20320046E2
:104290006C6F77203200466C6F7720320050727559
:1042A000746F6B203200466C6F772032005072754D
:1042B000746F6B203100466C6F77203100466C6F55
:1042C00077203100507275746F6B203100466C6F2F
:1042D00077203100507275746F6B203000466C6F20
:1042E00077203000466C6F77203000507275746F05
:1042F0006B203000466C6F7720300050727A65700A
:104300006C797700466C756A6F00466C7573736FD5
:1043100000507275746F6B00466C6F770050726559
:10432000646B6F73632077656E742E0056656E74D0
:10433000696C61646F720056656E746F6C610052D7
:104340007963686C6F73742076656E742E004661B5
:104350006E2073706565640053746F6C696B004206
:104360006173650050696174746F00426564004256
:10437000656400547279736B6133004E6F7A7A6CA6
:104380006533004E6F7A7A6C653300547279736BC3
:104390006133004E6F7A7A6C653300547279736BB7
:1043A0006132004E6F7A7A6C6532004E6F7A7A6CA9
:1043B000653200547279736B6132004E6F7A7A6C99
:1043C0006532004479737A61004675736F720055E7
:1043D00067656C6C6F00547279736B61004E6F7A15
:1043E0007A6C6500507265646B6F73630056656C20
:1043F0006F63696461640056656C636974C383C6E6
:1044000092C386E28099C383E2809AC382C2A000ED
:10441000527963686C6F7374005370656564005003
:104420006F73756E6F7574206F2031306D6D004D38
:104430006F76652031306D6D004D6F7665203130BF
:104440006D6D00506F73756E6F7574206F20313015
:104450006D6D004D6F76652031306D6D00506F735E
:10446000756E6F7574206F20316D6D004D6F7665C0
:1044700020316D6D004D6F766520316D6D00506F90
:1044800073756E6F7574206F20316D6D004D6F7692
:104490006520316D6D00506F73756E6F7574206F90
:1044A00020302E316D6D004D6F766520302E316DD0
:1044B0006D004D6F766520302E316D6D00506F733D
:1044C000756E6F7574206F20302E316D6D004D6FDD
:1044D000766520302E316D6D004578747275646597
:1044E0007233004578747275646572330045787470
:1044F00072756465723300457874727564657233E1
:10450000004578747275646572330045787472750D
:104510006465723200457874727564657232004564
:10452000787472756465723200457874727564656A
:104530007232004578747275646572320045787421
:104540007275646572004578747275736F72004598
:1045500073747275736F72650045787472756465F3
:10456000720045787472756465720050727A657372
:10457000756E6163205A004D6F766572205A004D4A
:10458000756F7669205A00506F73756E6F75742061
:104590005A004D6F7665205A0050727A6573756EB9
:1045A00061632059004D6F7665722059004D756F1B
:1045B0007669205900506F73756E6F7574205900BD
:1045C0004D6F766520590050727A6573756E616320
:1045D0002058004D6F7665722058004D756F7669D2
:1045E000205800506F73756E6F75742058004D6FB2
:1045F000766520580052756368206F7369004D6FAF
:1046000076657220656A6573004D756F7669204125
:1046100073736500506F73756E6F7574206F73756B
:10462000004D6F7665206178697300526574726120
:1046300063740052657472616374005265747261D0
:1046400063740052657472616374005265747261C0
:104650006374004578747275646F76617400457890
:104660007472756465004578747275646500457888
:10467000747275646F7661740045787472756465E0
:10468000005A61706E6F7574207A64726F6A00539D
:10469000776974636820706F776572206F66660053
:1046A00053776974636820706F776572206F6666F0
:1046B000005A61706E6F7574207A64726F6A00536D
:1046C000776974636820706F776572206F66660023
:1046D0005679706E6F7574207A64726F6A005377C2
:1046E0006974636820706F776572206F6E0053770E
:1046F0006974636820706F776572206F6E005679F9
:10470000706E6F7574207A64726F6A005377697483
:10471000636820706F776572206F6E0057796368E9
:104720006C6F647A696300456E66726961720052EB
:104730006166667265646461005A63686C6164698D
:104740007400436F6F6C646F776E005072656465C0
:10475000687265762041425320636F6E6600507226
:1047600065686561742041425320636F6E66005036
:104770007265686561742041425320636F6E660004
:104780005072656465687265762041425320636F9C
:104790006E66005072656865617420414253206303
:1047A0006F6E66005072656465687265762041427E
:1047B000532042656400507265686561742041420F
:1047C00053204265640050726568656174204142FF
:1047D0005320426564005072656465687265762096
:1047E00041425320426564005072656865617420DF
:1047F0004142532042656400507265646568726589
:10480000762041425320416C6C00507265686561AE
:10481000742041425320416C6C00507265686561A0
:10482000742041425320416C6C005072656465688D
:104830007265762041425320416C6C00507265686D
:104840006561742041425320416C6C005072656474
:104850006568726576204142532033005072656866
:104860006561742041425320330050726568656170
:10487000742041425320330050726564656872654C
:104880007620414253203300507265686561742080
:10489000414253203300507265646568726576202A
:1048A0004142532032005072656865617420414274
:1048B0005320320050726568656174204142532074
:1048C00032005072656465687265762041425320FB
:1048D0003200507265686561742041425320320095
:1048E00050726564656872657620414253203100DC
:1048F00050726568656174204142532031005072E6
:1049000065686561742041425320310050726564CE
:1049100065687265762041425320310050726568A7
:1049200065617420414253203100507265646568AE
:10493000726576204142530050726568656174204B
:1049400041425300507265686561742041425300D2
:1049500050726564656872657620414253005072FA
:1049600065686561742041425300507265646568F2
:1049700072657620504C4120636F6E660050726500
:104980006865617420504C4120636F6E6600507200
:10499000656865617420504C4120636F6E660050FD
:1049A000726564656872657620504C4120636F6E55
:1049B00066005072656865617420504C4120636FD9
:1049C0006E660050726564656872657620504C4171
:1049D00020426564005072656865617420504C41E6
:1049E00020426564005072656865617420504C41D6
:1049F0002042656400507265646568726576205077
:104A00004C412042656400507265686561742050B5
:104A10004C41204265640050726564656872657639
:104A200020504C4120416C6C005072656865617487
:104A300020504C4120416C6C005072656865617477
:104A400020504C4120416C6C005072656465687266
:104A5000657620504C4120416C6C00507265686551
:104A6000617420504C4120416C6C0050726564654B
:104A70006872657620504C4120330050726568653D
:104A8000617420504C412033005072656865617438
:104A900020504C4120330050726564656872657621
:104AA00020504C412033005072656865617420507D
:104AB0004C41203300507265646568726576205001
:104AC0004C412032005072656865617420504C4141
:104AD0002032005072656865617420504C4120326C
:104AE0000050726564656872657620504C412032D2
:104AF000005072656865617420504C41203200504E
:104B0000726564656872657620504C4120310050B2
:104B100072656865617420504C41203100507265A7
:104B20006865617420504C412031005072656465A5
:104B30006872657620504C4120310050726568657E
:104B4000617420504C412031005072656465687278
:104B5000657620504C410050726568656174205044
:104B60004C41005072656865617420504C410050A2
:104B7000726564656872657620504C4100507265BC
:104B80006865617420504C41004E617374617620F9
:104B9000706F636174656B00536574206F72696731
:104BA000696E00536574206F726967696E004E61AB
:104BB0007374617620706F636174656B0053657404
:104BC000206F726967696E004E6173746176207040
:104BD0006F636174656B20686F6D65005365742049
:104BE000686F6D65206F66667365747300536574D6
:104BF00020686F6D65206F666673657473004E6123
:104C00007374617620706F636174656B20686F6D7B
:104C1000650053657420686F6D65206F6666736507
:104C20007473004175746F20686F6D65004C6C651E
:104C300076617220616C206F726967656E004175E4
:104C4000746F20486F6D65004175746F20686F6DDB
:104C500065004175746F20686F6D650057796C61F0
:104C6000637A79632073696C6E696B690041706166
:104C7000676172206D6F746F726573004469736150
:104C800062696C697461204D6F746F726900567946
:104C9000706E6F7574206D6F746F727900446973F4
:104CA00061626C6520737465707065727300417524
:104CB000746F7374617274004175746F7374617290
:104CC00074004175746F7374617274004175746F10
:104CD0007374617274004175746F737461727400DF
:104CE0004D656E7520676C6F776E65004D656E75EE
:104CF000207072696E636970616C004D656E75201D
:104D00007072696E636970616C6500486C61766E83
:104D100069206E616269646B61004D61696E004B70
:104D2000617274612077796A657461005461726A96
:104D30006574612072657469726164610053442016
:104D4000436172642072696D6F737361004B6172AD
:104D500074612076796A6D757461004361726420B4
:104D600072656D6F766564004B6172746120776C5B
:104D70006F7A6F6E61005461726A65746120636F4F
:104D80006C6F636164610053442043617264206905
:104D90006E736572697461004B6172746120766C28
:104DA0006F7A656E61004361726420696E7365722B
:104DB00074656400507275736120693320676F7485
:104DC0006F7761005072757361206933206C69736D
:104DD00074610050727573612069332070726F6E58
:104DE000746F2E005072757361206933206F6B00F1
:104DF00050727573612069332072656164792E0089
:104E00004D383420582059205A2045004D32340066
:104E10004D3233202573006175746F25692E67004C
:104E20000A002F000A002E0044656C6574696F6EDD
:104E3000206661696C65642C2046696C653A2000C7
:104E400046696C652064656C657465643A002E0083
:104E50002E002E002E004E6F77206672657368203C
:104E600066696C653A20004E6F7720646F696E67E3
:104E70002066696C653A20002220706F7300222042
:104E8000706172656E743A2200535542524F555408
:104E9000494E452043414C4C207461726765743A19
:104EA0002200747279696E6720746F2063616C6C84
:104EB000207375622D67636F64652066696C657326
:104EC000207769746820746F6F206D616E79206C33
:104ED0006576656C732E204D4158206C6576656C47
:104EE0002069733A0000002110422063308440A5FD
:104EF00050C660E770088129914AA16BB18CC1ADA1
:104F0000D1CEE1EFF13112100273325222B5529438
:104F100042F772D662399318837BB35AA3BDD39CF0
:104F2000C3FFF3DEE36224433420040114E664C7C4
:104F300074A44485546AA54BB528850995EEE5CF40
:104F4000F5ACC58DD55336722611163006D776F6D8
:104F5000669556B4465BB77AA719973887DFF7FE90
:104F6000E79DD7BCC7C448E5588668A77840086164
:104F70001802282338CCC9EDD98EE9AFF9488969E0
:104F8000990AA92BB9F55AD44AB77A966A711A5078
:104F90000A333A122AFDDBDCCBBFFB9EEB799B5830
:104FA0008B3BBB1AABA66C877CE44CC55C222C0304
:104FB0003C600C411CAEED8FFDECCDCDDD2AAD0B80
:104FC000BD688D499D977EB66ED55EF44E133E3218
:104FD0002E511E700E9FFFBEEFDDDFFCCF1BBF3AD0
:104FE000AF599F788F8891A981CAB1EBA10CD12DBF
:104FF000C14EF16FE18010A100C230E320045025C2
:105000004046706760B9839893FBA3DAB33DC31C35
:10501000D37FE35EF3B1029012F322D23235421411
:105020005277625672EAB5CBA5A89589856EF54F81
:10503000E52CD50DC5E234C324A014810466744761
:105040006424540544DBA7FAB79987B8975FE77ED5
:10505000F71DC73CD7D326F2369106B016576676B1
:1050600076154634564CD96DC90EF92FE9C899E921
:10507000898AB9ABA94458654806782768C018E101
:10508000088238A3287DCB5CDB3FEB1EFBF98BD875
:105090009BBBAB9ABB754A545A376A167AF10AD051
:1050A0001AB32A923A2EFD0FED6CDD4DCDAABD8BC1
:1050B000ADE89DC98D267C076C645C454CA23C83A1
:1050C0002CE01CC10C1FEF3EFF5DCF7CDF9BAFBA15
:1050D000BFD98FF89F176E367E554E745E932EB2F1
:1050E0003ED10EF01E22004D323230205325690091
:1050F000203A2000004C414E472053454C20464F5B
:1051000052434544002200205A3A0020593A0020D8
:10511000453A00205A3A0020593A00583A002000F7
:105120002E0020423A0020453A00543A0020573AD7
:105130000020453A00543A002042403A0020403ACC
:1051400000202F003A00205400202F0020423A0077
:10515000202F006F6B20543A002569206D696E2C5A
:105160002025692073656300256920686F75727357
:10517000202569206D696E75746573004D3131307D
:10518000004D3239004D61792033302032303136D4
:1051900000436F6D70696C65643A2000286E6F6E15
:1051A000652C2064656661756C7420636F6E66693A
:1051B0006729004D6179203330203230313620317B
:1051C000363A32333A34300073746172740022001C
:1051D0002200FFFFFF0000A0400000A040000000F0
:1051E0004000005643000046431FC54843000000EE
:1051F00000000000001F856B3E0000564300004683
:10520000430000494300000000000000001F856BC0
:105210003E6563686F3A004572726F723A004731BB
:1052200020452D38302046343030004D383300478B
:1052300031205A3135204631353030004739310080
:1052400047312058353020593138302045302046FC
:105250003730303000473930004D3834004D383366
:105260000047312045363520463430300047312064
:105270004534302046313030002E002020202020C0
:105280002020202020202020002D2D3A2D2D002D03
:105290002D2D003E555342005344002D2D0001207A
:1052A000000120004D36303000464C4558202D205E
:1052B000203235302F35300050502020202D202036
:1052C0003235342F3130300048495053202D2020C2
:1052D0003232302F3130300050455420202D2020E4
:1052E0003234302F393000504C4120202D202032D4
:1052F00032302F35300041425320202D20203238CB
:10530000352F313030004D3234004D32332025738B
:1053100000580059005A004578747275646572002F
:10532000473238004D383400473238205A004D613A
:1053300079203330203230313600446174653A20B0
:10534000002D2D2D2D2D2D2D2D2D2D2D2D0050727F
:105350007573614E6D6B320052414D426F31336156
:1053600000336D6D002D2D2D2D2D2D2D2D2D2D2D41
:105370002D004669726D77617265202D20332E30C5
:105380002E310048617264636F6465642044656611
:1053900061756C742053657474696E6773204C6F0B
:1053A000616465640046696C616D656E7420736547
:1053B0007474696E67733A2044697361626C6564E2
:1053C000002020204D32303020440046696C616D51
:1053D000656E742073657474696E67733A0020207B
:1053E000204D3230392053004175746F2D52657451
:1053F000726163743A20533D3020746F2064697386
:1054000061626C652C203120746F20696E74657246
:105410007072657420657874727564652D6F6E6C3A
:1054200079206D6F76657320617320726574726187
:10543000637473206F72207265636F76657269653D
:1054400073002046002020204D3230382053005277
:1054500065636F7665723A20533D457874726120BA
:105460006C656E67746820286D6D2920463A53700C
:1054700065656420286D6D2F6D2900205A00204637
:10548000002020204D323037205300526574726165
:1054900063743A20533D4C656E67746820286D6DC7
:1054A0002920463A537065656420286D6D2F6D295B
:1054B000205A3A205A4C69667420286D6D290020C4
:1054C00044002049002020204D333031205000502E
:1054D00049442073657474696E67733A00205A00FA
:1054E00020590020204D323036205800486F6D651D
:1054F000206F666673657420286D6D293A0020451B
:1055000000205A0020580020420020540020204D46
:10551000323035205300416476616E6365642076D5
:1055200061726961626C65733A20533D4D696E200A
:10553000666565647261746520286D6D2F73292C12
:1055400020543D4D696E2074726176656C206665ED
:1055500065647261746520286D6D2F73292C20425B
:105560003D6D696E696D756D207365676D656E74EF
:105570002074696D6520286D73292C20583D6D615C
:1055800078696D756D205859206A65726B20286D99
:105590006D2F73292C20205A3D6D6178696D756DD2
:1055A000205A206A65726B20286D6D2F73292C207C
:1055B00020453D6D6178696D756D2045206A657285
:1055C0006B20286D6D2F73290020540020204D3250
:1055D0003034205300416363656C65726174696F98
:1055E0006E3A20533D616363656C65726174696FE7
:1055F0006E2C20543D726574726163742061636324
:10560000656C65726174696F6E00204500205A00F8
:1056100020590020204D3230312058004D617869EA
:105620006D756D20416363656C65726174696F6E41
:1056300020286D6D2F7332293A00204500205A0032
:1056400020590020204D3230332058004D617869B8
:105650006D756D2066656564726174657320286D73
:105660006D2F73293A00204500205A002059002050
:10567000204D393220580053746570732070657264
:1056800020756E69743A0045303A20005A3A20007D
:10569000593A2000583A20004D53312C4D533220B6
:1056A00050696E730A005A00205A3A005900205976
:1056B0003A00580020583A0024F4D43050C38E20C9
:1056C000C2A24017828B7011127A910D816CD90A97
:1056D000A861E108C7586607615143061E4B5D0586
:1056E000C145A7041A411104093D980371393103DA
:1056F0004036DB0265339102D4305402802E1D0205
:10570000632CEE01752AC501B028A0011027810184
:105710008F2564012B244B01E0223401AC211F01B1
:105720008D200D01801FFC00841EED00971DDF0001
:10573000B81CD200E61BC600201BBC00641AB200D5
:10574000B219A8000A19A0006A189900D11791008F
:1057500040178B00B516840031167E00B315790012
:105760003A157300C7146F0058146A00EE136600F0
:105770008813630025135E00C7125B006C1257008C
:1057800015125400C111510070114F0021114B002E
:10579000D61049008D104700461044000210420008
:1057A000C00F4000800F3E00420F3C00060F3B0040
:1057B000CB0E3800930E37005C0E3500270E3400F8
:1057C000F30D3200C10D3100900D3000600D2E0040
:1057D000320D2D00050D2C00D90C2B00AE0C29002C
:1057E000850C29005C0C2700350C27000E0C2600C8
:1057F000E80B2400C40B2400A00B23007D0B230026
:105800005A0B2100390B2100180B2000F80A1F0049
:10581000D90A1E00BB0A1E009D0A1D00800A1D0039
:10582000630A1C00470A1B002C0A1B00110A1A00FD
:10583000F7091A00DD091900C4091900AB0919009C
:10584000920917007B091800630917004C0916001C
:1058500036091600200916000A091500F50815007A
:10586000E0081400CC081400B8081400A4081400C0
:10587000900813007D0812006B08130058081200EE
:105880004608120034081100230811001208110004
:1058900001081100F0071000E0071000D007100009
:1058A000C0071000B0070F00A107100091070E00FD
:1058B00083070F0074070F0065070E0057070E00DF
:1058C00049070E003B070D002E070E0020070D00B4
:1058D00013070D0006070D00F9060C00ED060D007C
:1058E000E0060C00D4060C00C8060C00BC060C0038
:1058F000B0060C00A4060B0099060C008D060B00E8
:1059000082060B0077060B006C060B0061060A008E
:1059100057060B004C060A0042060A0038060A0029
:105920002E060A0024060A001A060A0010060900BC
:1059300007060A00FD050900F4050900EB0509004A
:10594000E2050900D9050900D0050900C7050900CD
:10595000BE050900B5050800AD050800A50509004C
:105960009C050800940508008C05080084050800C3
:105970007C050800740508006C0507006505080033
:105980005D050700560508004E050700470507009E
:105990004005080038050700310507002A05070003
:1059A000230507001C050600160507000F05070064
:1059B0000805060002050700FB040600F5040700C1
:1059C000EE040600E8040600E2040700DB0406001B
:1059D000D5040600CF040600C9040600C30406006F
:1059E000BD040600B7040600B1040500AC040600BF
:1059F000A6040600A00405009B040600950405000B
:105A0000900406008A040500850405008004060051
:105A10007A04050075040500700405006B04050098
:105A200066040500610405005C04050057040500D8
:105A3000520405004D040500480405004304050018
:105A40003E0404003A040500350405003004040057
:105A50002C04050027040400230405001E04040090
:105A60001A04040016040500110404000D040400C7
:105A7000090405000404040000040400FC030400FD
:105A8000F8030400F4030400F0030400EC03040032
:105A9000E8030400E4030400E0030400DC03040062
:105AA000D8030400D4030400D0030400CC03040092
:105AB000C8030300C503030024F404D9201BC40C4D
:105AC0005C0E9804C4095F0265077101F405F900D2
:105AD000FB04B30048048700C10369005803550064
