:100000000C940E180C943F180C943F180C943F1845
:100010000C943F180C943F180C943F180C943F1804
:100020000C943F180C943F180C943F180C943F18F4
:100030000C943F180C94B8C60C943F180C943F18BD
:100040000C943F180C94E9A40C943F180C943F189E
:100050000C943F180C943F180C94222F0C947EC2E1
:100060000C943F180C94B7A10C943F180C943F18B3
:100070000C943F180C943F180C943F180C943F18A4
:100080000C943F180C943F180C943F180C943F1894
:100090000C943F180C943F180C943F180C94B0BF6C
:1000A0000C943F180C943F180C943F180C943F1874
:1000B0000C943F180C943F180C943F180C943F1864
:1000C0000C943F180C943F180C943F180C943F1854
:1000D0000C943F180C943F180C943F180C943F1844
:1000E0000C943F186F2F7D2F992FA72FC12FCF2F43
:1000F000E92FED2FEF2FF32FFB2F02C107C10CC10A
:1001000016C18FC120C128C130C13AC144C14EC1FE
:100110005DC167C18FC171C17BC185C1ADC1B0C1B6
:10012000A3C1A7C1E7C1B4C1B8C1BEC1C2C1C6C1E4
:10013000CCC1D0C1D4C1E7C1DAC1DEC1E2C1084A35
:10014000D73B3BCE016E84BCBFFDC12F3D6C7431EB
:100150009ABD56833DDA3D00C77F11BED9E4BB4C42
:100160003E916BAAAABE000000803F05A84CCDB20C
:10017000D44EB93836A9020C50B9918688083CA6ED
:10018000AAAA2ABE000000803F007C3C3E5E2B3DB8
:100190003F2F5B5D3B2C2A225C004572723A204D5A
:1001A000415854454D50204245440054656D70659A
:1001B000726174757265206865617465642062653A
:1001C00064207377697463686564206F66662E20A7
:1001D0004D415854454D502074726967676572658A
:1001E00064202121004572723A204D494E54454DFC
:1001F00050003A204578747275646572207377698F
:100200007463686564206F66662E204D494E5445C0
:100210004D502074726967676572656420210045DE
:1002200072723A204D415854454D50003A2045785D
:10023000747275646572207377697463686564208D
:100240006F66662E204D415854454D50207472699A
:10025000676765726564202100202D20496E7661F4
:100260006C6964206578747275646572206E756D52
:10027000626572202100504944204175746F747585
:100280006E652066696E69736865642120507574B7
:1002900020746865206C617374204B702C204B694E
:1002A00020616E64204B6420636F6E7374616E74A2
:1002B000732066726F6D2061626F766520696E745F
:1002C0006F20436F6E66696775726174696F6E2E19
:1002D0006800504944204175746F74756E652066DE
:1002E00061696C6564212074696D656F75740020A7
:1002F000403A006F6B20543A006F6B20423A005036
:100300004944204175746F74756E65206661696C2F
:100310006564212054656D70657261747572652025
:10032000746F6F206869676800204B643A20002072
:100330004B693A2000204B703A200020436C6173D7
:100340007369632050494420002054753A200020EE
:100350004B753A2000206D61783A2000206D696E5F
:100360003A200020643A200020626961733A20003C
:1003700070012C0190012701B0012201C0011D0173
:10038000F00118011002130130020E016002090190
:1003900090020401C002FF000003FA004003F500D0
:1003A0008003F000D003EB002004E6007004E100BD
:1003B000E004DC004005D700C005D2004006CD00B7
:1003C000D006C8008007C3003008BE00F008B9009E
:1003D000C009B400B00AAF00B00BAA00D00CA50051
:1003E000000EA000500F9B00C0109600501291000C
:1003F00000148C00C0158700B0178200B0197D0072
:10040000D01B7800001E730040206E00902269000F
:10041000F024640040275F0090295A00E02B55002B
:10042000102E500020304B0010324600E0334100C7
:1004300090353C001037370070383200A0392D005D
:10044000B03A2800A03B2300603C1E00103D19007C
:10045000903D1400103E0F00703E0A00C03E0500A3
:10046000003F0000686F77746F2E70727573613390
:10047000642E637A00686F77746F2E707275736183
:1004800033642E636F6D00666F72756D2E707275BA
:10049000736133642E637A00666F72756D2E7072AD
:1004A00075736133642E636F6D00707275736133A1
:1004B000642E637A00707275736133642E636F6D9E
:1004C000005679626572206A617A796B612020201A
:1004D00020202020200053656C656374206C616EC1
:1004E000677561676520202020200043657374696B
:1004F0006E6100456E676C697368004572726F7259
:1005000020696E206D656E752073747275637475E5
:100510007265004572726F7220696E206D656E752E
:100520002073747275637475726500446F737461BF
:10053000766F76616E69205A0041646A75737469DA
:100540006E67205A00426162797374657070696EDB
:1005500067205900426162797374657070696E67D3
:10056000205900426162797374657070696E67200A
:100570005800426162797374657070696E672058C3
:100580000020746F6F206C6F6E67206578747275D1
:1005900073696F6E2070726576656E746564002095
:1005A000746F6F206C6F6E672065787472757369F5
:1005B0006F6E2070726576656E7465640020636F7F
:1005C0006C6420657874727573696F6E20707265E3
:1005D00076656E7465640020636F6C642065787462
:1005E000727573696F6E2070726576656E7465647E
:1005F00000656E6473746F7073206869743A2000CC
:10060000656E6473746F7073206869743A20005368
:100610007465707261746520746F6F2068696768B3
:100620003A2000537465707261746520746F6F2096
:10063000686967683A200043616E6E6F7420656E6A
:10064000746572207375626469723A200043616E4A
:100650006E6F7420656E7465722073756264697262
:100660003A20006572726F722077726974696E67E2
:1006700020746F2066696C65006572726F722077F6
:10068000726974696E6720746F2066696C65004ECC
:100690006F74205344207072696E74696E67004EE7
:1006A0006F74205344207072696E74696E670053D2
:1006B00044207072696E74696E6720627974652077
:1006C000005344207072696E74696E672062797499
:1006D00065200057726974696E6720746F206669BF
:1006E0006C653A200057726974696E6720746F20D8
:1006F00066696C653A200046696C652073656C65B7
:10070000637465640046696C652073656C65637429
:100710006564002053697A653A20002053697A6540
:100720003A200046696C65206F70656E65643A20FA
:100730000046696C65206F70656E65643A20006FD5
:1007400070656E206661696C65642C2046696C6515
:100750003A20006F70656E206661696C65642C20BC
:1007600046696C653A2000776F726B446972206F3E
:1007700070656E206661696C656400776F726B44AA
:100780006972206F70656E206661696C65640053E4
:10079000442063617264206F6B0053442063617274
:1007A00064206F6B006F70656E526F6F74206661AE
:1007B000696C6564006F70656E526F6F742066615E
:1007C000696C656400766F6C756D652E696E697411
:1007D000206661696C656400766F6C756D652E6965
:1007E0006E6974206661696C656400534420696EAB
:1007F0006974206661696C00534420696E697420D5
:100800006661696C0043616E6E6F74206F70656E17
:10081000207375626469720043616E6E6F74206F3D
:1008200070656E2073756264697200486F74656EDE
:1008300064206F6666736574733A00486F74656E02
:1008400064206F6666736574733A006F70656E003E
:100850006F70656E005452494747455245440054F5
:100860005249474745524544005265706F7274695A
:100870006E6720656E6473746F7020737461747535
:1008800073005265706F7274696E6720656E647371
:10089000746F7020737461747573007A5F6D617822
:1008A0003A20007A5F6D61783A20007A5F6D696E58
:1008B0003A20007A5F6D696E3A2000795F6D617849
:1008C0003A2000795F6D61783A2000795F6D696E3A
:1008D0003A2000795F6D696E3A2000785F6D61782B
:1008E0003A2000785F6D61783A2000785F6D696E1C
:1008F0003A2000785F6D696E3A2000496E76616C2F
:10090000696420657874727564657200496E7661F9
:100910006C696420657874727564657200416374F3
:100920006976652045787472756465723A20004175
:1009300063746976652045787472756465723A20CF
:1009400000556E6B6E6F776E20636F6D6D616E64B8
:100950003A202200556E6B6E6F776E20636F6D6D5F
:10096000616E643A202200526573656E643A20001D
:10097000526573656E643A20005072696E746572D8
:100980002073746F707065642064756520746F20C7
:100990006572726F72732E204669782074686520C4
:1009A0006572726F7220616E6420757365204D39B7
:1009B000393920746F20726573746172742E202827
:1009C00054656D706572617475726520697320720B
:1009D000657365742E205365742069742061667494
:1009E00065722072657374617274696E6729005054
:1009F00072696E7465722073746F707065642064C0
:100A0000756520746F206572726F72732E2046694F
:100A10007820746865206572726F7220616E642040
:100A2000757365204D39393920746F207265737480
:100A30006172742E202854656D70657261747572D0
:100A4000652069732072657365742E205365742068
:100A50006974206166746572207265737461727462
:100A6000696E6729005072696E7465722068616CE6
:100A70007465642E206B696C6C28292063616C6C32
:100A8000656421005072696E7465722068616C74CF
:100A900065642E206B696C6C28292063616C6C6521
:100AA00064210020436F756E7420583A2000204363
:100AB0006F756E7420583A20004649524D57415286
:100AC000455F4E414D453A4D61726C696E2056311D
:100AD0002E302E323B20537072696E7465722F6710
:100AE00072626C206D617368757020666F7220672A
:100AF000656E36204649524D574152455F55524C1E
:100B00003A68747470733A2F2F6769746875622E2F
:100B1000636F6D2F707275736133642F50727573CC
:100B2000612D69332D506C75732F2050524F544FE7
:100B3000434F4C5F56455253494F4E3A312E302069
:100B40004D414348494E455F545950453A5072759E
:100B500073612069332045585452554445525F43D0
:100B60004F554E543A3120555549443A3030303083
:100B7000303030302D303030302D303030302D307E
:100B80003030302D30303030303030303030303068
:100B90000A004649524D574152455F4E414D453A34
:100BA0004D61726C696E2056312E302E323B2053CF
:100BB0007072696E7465722F6772626C206D6173FA
:100BC00068757020666F722067656E3620464952E0
:100BD0004D574152455F55524C3A68747470733AA0
:100BE0002F2F6769746875622E636F6D2F70727531
:100BF000736133642F50727573612D69332D506C9E
:100C000075732F2050524F544F434F4C5F564552EF
:100C100053494F4E3A312E30204D414348494E45BD
:100C20005F545950453A50727573612069332045BD
:100C3000585452554445525F434F554E543A312013
:100C4000555549443A30303030303030302D303026
:100C500030302D303030302D303030302D3030309D
:100C60003030303030303030300A00426564204F50
:100C70004B2E0042656420646F6E652E005A6168D9
:100C8000726976616E69206265642E2E2E0042655F
:100C9000642048656174696E672E005A61687269E4
:100CA00076616E69204F4B2E0048656174696E67EE
:100CB00020646F6E652E005A6168726976616E6994
:100CC0002E2E2E0048656174696E672E2E2E004D03
:100CD00031303920496E76616C69642065787472B0
:100CE0007564657220004D31303920496E76616C33
:100CF000696420657874727564657220004E6F2097
:100D0000746865726D6973746F7273202D206E6FD5
:100D10002074656D7065726174757265004E6F2028
:100D2000746865726D6973746F7273202D206E6FB5
:100D30002074656D7065726174757265004D323234
:100D40003120496E76616C696420657874727564CF
:100D5000657220004D32323120496E76616C6964D3
:100D600020657874727564657220004D32313820C8
:100D7000496E76616C696420657874727564657219
:100D800020004D32313820496E76616C69642065EF
:100D90007874727564657220004D32303020496E6F
:100DA00076616C6964206578747275646572200080
:100DB0004D32303020496E76616C696420657874FC
:100DC000727564657220004D31303520496E766150
:100DD0006C696420657874727564657220004D31A9
:100DE000303520496E76616C69642065787472755F
:100DF00064657220004D31303420496E76616C6933
:100E00006420657874727564657220004D313034E9
:100E100020496E76616C69642065787472756465CA
:100E2000722000456E642066696C65206C6973747D
:100E300000456E642066696C65206C6973740042BD
:100E40006567696E2066696C65206C697374004221
:100E50006567696E2066696C65206C69737400440F
:100E60006F6E65207072696E74696E672066696C5A
:100E70006500446F6E65207072696E74696E6720DC
:100E800066696C65004E6F204C696E65204E756D0D
:100E9000626572207769746820636865636B737537
:100EA0006D2C204C617374204C696E653A20004EA5
:100EB0006F204C696E65204E756D62657220776992
:100EC000746820636865636B73756D2C204C617367
:100ED00074204C696E653A20004E6F20436865634C
:100EE0006B73756D2077697468206C696E65206E10
:100EF000756D6265722C204C617374204C696E654F
:100F00003A20004E6F20436865636B73756D2077E0
:100F1000697468206C696E65206E756D6265722CEF
:100F2000204C617374204C696E653A2000636865DB
:100F3000636B73756D206D69736D617463682C20CC
:100F40004C617374204C696E653A20006368656378
:100F50006B73756D206D69736D617463682C204CC3
:100F6000617374204C696E653A20004C696E65208F
:100F70004E756D626572206973206E6F74204C61CE
:100F80007374204C696E65204E756D6265722B31ED
:100F90002C204C617374204C696E653A20004C69BA
:100FA0006E65204E756D626572206973206E6F7478
:100FB000204C617374204C696E65204E756D6265BE
:100FC000722B312C204C617374204C696E653A2071
:100FD00000446F6E6520736176696E672066696C88
:100FE000652E00446F6E6520736176696E672066BA
:100FF000696C652E006F6B006F6B002020506C6178
:101000006E6E657242756666657242797465733A92
:1010100020002020506C616E6E65724275666665B8
:101020007242797465733A20002046726565204DDE
:10103000656D6F72793A20002046726565204D65B6
:101040006D6F72793A2000204C6173742055706482
:10105000617465643A2000204C617374205570649B
:10106000617465643A2000207C20417574686F7259
:101070003A2000207C20417574686F723A2000206D
:10108000536F6674776172652052657365740020D2
:10109000536F6674776172652052657365740020C2
:1010A0005761746368646F672052657365740020CC
:1010B0005761746368646F672052657365740020BC
:1010C00042726F776E206F7574205265736574007D
:1010D0002042726F776E206F75742052657365744D
:1010E000002045787465726E616C2052657365747A
:1010F000002045787465726E616C2052657365746A
:1011000000506F776572557000506F77657255703B
:1011100000656E717565696E67202200656E717578
:1011200065696E672022002070726F2070726F6A8E
:101130006576656E69207A6D656E0020666F722037
:1011400074616B65206566666563740052657374CF
:10115000617274756A7465207469736B61726E75FF
:10116000005265626F6F7420746865207072696EDA
:10117000746572004D6F6420205B7679732E207643
:10118000796B6F6E5D004D6F6465205B68696768A1
:1011900020706F7765725D004D6F642020202020E5
:1011A00020205B74696368795D004D6F6465202061
:1011B0002020205B73696C656E745D0056796D65E7
:1011C0006E612066696C616D656E7475210043689F
:1011D000616E67696E672066696C616D656E74210A
:1011E00000566C6F7A74652066696C616D656E740B
:1011F00000496E736572742066696C616D656E740A
:10120000004120737469736B6E65746520746C6142
:101210006369746B6F00416E642070726573732034
:10122000746865206B6E6F62005A6D656E61207523
:10123000737065736E6121004368616E676520732A
:10124000756363657373210043697374656E692008
:101250006261727679004C6F6164696E6720636FBA
:101260006C6F720050726F73696D2063656B656A95
:10127000746500506C656173652077616974005A0C
:1012800061766164656E692066696C616D656E7416
:1012900075004C6F6164696E672066696C616D658D
:1012A0006E74004261727661206E656E69206369BA
:1012B00073746100436F6C6F72206E6F7420636C87
:1012C0006561720046696C616D656E74206E657A49
:1012D00061766564656E0046696C616D656E74204B
:1012E0006E6F74206C6F61646564004E65004E6FB4
:1012F00000416E6F005965730056796D656E61200F
:101300006F6B3F004368616E67656420636F727244
:101310006563746C793F00506F64706F7261005345
:101320007570706F72740050726564656872656A7A
:10133000746520747279736B7521005072656865ED
:10134000617420746865206E6F7A7A6C6521004341
:10135000485942413A004552524F523A0052656351
:101360007472616374005265637472616374005ACD
:1013700061766573742066696C616D656E74004C8E
:101380006F61642066696C616D656E740056796A80
:101390006D6F75742066696C616D656E7400556E55
:1013A0006C6F61642066696C616D656E740050726B
:1013B0006564656872657600507265686561740081
:1013C0004E6173746176656E690053657474696EFD
:1013D0006773004B616C6962726F766174205A00AA
:1013E00043616C696272617465205A004175746F63
:1013F00020646F6C61646974205A203F00417574E9
:101400006F2061646A757374205A203F00456E64D2
:1014100073746F702061626F727400456E647374D0
:101420006F702061626F727400446F6C6164656EEE
:1014300069206F7379205A004C6976652061646A6F
:10144000757374205A004261627973746570205913
:10145000004261627973746570205900426162795B
:1014600073746570205800426162797374657020EE
:1014700058005A204F6666736574005A204F66669E
:1014800073657400486F6D6520582F59206265663A
:101490006F7265205A00486F6D6520582F59206281
:1014A00065666F7265205A005A2070726F626520FF
:1014B0006F75742E20626564005A2070726F6265C9
:1014C000206F75742E206265640056796D656E69B3
:1014D00074205344004368616E6765205344206361
:1014E00061726400496E69632E20534400496E693D
:1014F000742E20534420636172640056796D656ECA
:1015000069742066696C616D656E74004368616E14
:1015100067652066696C616D656E74004175746FF6
:10152000526574722E004175746F526574722E008C
:10153000556E52657420205600556E5265742020F9
:1015400056005320556E5265742B6D6D0053205517
:101550006E5265742B6D6D00556E526574202B6D47
:101560006D00556E526574202B6D6D00486F7020B4
:101570006D6D00486F70206D6D005265747261630F
:1015800074202056005265747261637420205600E6
:10159000537761702052652E6D6D00537761702016
:1015A00052652E6D6D0052657472616374206D6DAD
:1015B0000052657472616374206D6D0053544F5016
:1015C0005045442E200053544F505045442E200087
:1015D0004B494C4C45442E20004B494C4C45442E25
:1015E00020004E6F206D6F76652E004E6F206D6F60
:1015F00076652E005469736B207072657275736521
:101600006E005072696E742061626F72746564005E
:101610004F626E6F76656E69207469736B750052E8
:101620006573756D696E67207072696E74005761BD
:10163000697420666F7220757365722E2E2E0057A6
:1016400061697420666F7220757365722E2E2E008C
:10165000536C6565702E2E2E00536C6565702E2EB2
:101660002E005A61646E61205344206B6172746174
:10167000004E6F2053442063617264005469736BA1
:10168000207A205344005072696E742066726F6D28
:10169000205344005A6173746176697420746973CD
:1016A0006B0053746F70207072696E7400506F6BB2
:1016B0007261636F76617400526573756D65207039
:1016C00072696E7400506F7A617374617669742008
:1016D0007469736B005061757365207072696E7404
:1016E000004C616469740054756E650050726970D5
:1016F00072617661005072657061726500496E6654
:101700006F726D61636500496E666F207363726509
:10171000656E004F626E6F76697400526566726521
:101720007368004F626E6F76697420767963686FB4
:101730007A6900526573746F7265206661696C73B3
:1017400061666500556C6F7A69742070616D6574AF
:10175000004C6F6164206D656D6F72790053746F1A
:101760007265206D656D6F72790053746F726520BC
:101770006D656D6F7279004C434420636F6E7472B7
:10178000617374004C434420636F6E7472617374B0
:101790000046696C2E204469612E20330046696C36
:1017A0002E204469612E20330046696C2E20446946
:1017B000612E20320046696C2E204469612E203251
:1017C0000046696C2E204469612E20310046696C08
:1017D0002E204469612E2031004520696E206D6DF8
:1017E00033004520696E206D6D330046696C616D74
:1017F000656E740046696C616D656E7400506F684B
:101800007962004D6F74696F6E005465706C6F740F
:10181000610054656D706572617475726500457321
:10182000746570732F6D6D004573746570732F6DE3
:101830006D005A73746570732F6D6D005A73746503
:1018400070732F6D6D005973746570732F6D6D001B
:101850005973746570732F6D6D0058737465707370
:101860002F6D6D005873746570732F6D6D00412D71
:101870007265747261637400412D72657472616384
:101880007400416D61782000416D617820005654EC
:10189000726176206D696E005654726176206D69B2
:1018A0006E00566D696E00566D696E0065006500CC
:1018B0007A007A007900790078007800566D6178B6
:1018C0002000566D6178200056652D6A65726B00A8
:1018D00056652D6A65726B00567A2D6A65726B00CB
:1018E000567A2D6A65726B005678792D6A65726B2F
:1018F000005678792D6A65726B00416363656C00F0
:10190000416363656C005049442D43005049442DA8
:1019100043005049442D44005049442D440050494F
:10192000442D49005049442D49005049442D500050
:101930005049442D50004F6666004F6666004F6E5A
:1019400020004F6E20004175746F74656D7000410A
:1019500075746F74656D70002002204661637400B9
:1019600020022046616374002002204D617800202F
:1019700002204D6178002002204D696E0020022077
:101980004D696E004B6F6E74726F6C6100436F6EC9
:1019900074726F6C00507275746F6B203200466CFD
:1019A0006F77203200507275746F6B203100466C77
:1019B0006F77203100507275746F6B203000466C69
:1019C0006F77203000507275746F6B00466C6F77C4
:1019D00000527963686C6F73742076656E742E00A4
:1019E00046616E20737065656400426564004265FF
:1019F0006400547279736B6133004E6F7A7A6C6550
:101A00003300547279736B6132004E6F7A7A6C6571
:101A10003200547279736B61004E6F7A7A6C650094
:101A2000527963686C6F737400537065656400501D
:101A30006F73756E6F7574206F2031306D6D004D52
:101A40006F76652031306D6D00506F73756E6F75F8
:101A500074206F20316D6D004D6F766520316D6D96
:101A600000506F73756E6F7574206F20302E316D5E
:101A70006D004D6F766520302E316D6D00457874A8
:101A8000727564657233004578747275646572337B
:101A900000457874727564657232004578747275A9
:101AA00064657232004578747275646572004578B9
:101AB00074727564657200506F73756E6F75742003
:101AC0005A004D6F7665205A00506F73756E6F75B2
:101AD000742059004D6F7665205900506F73756EF4
:101AE0006F75742058004D6F7665205800506F73E5
:101AF000756E6F7574206F7375004D6F766520611C
:101B0000786973005265747261637400526574720F
:101B1000616374004578747275646F766174004512
:101B2000787472756465005A61706E6F7574207A8E
:101B300064726F6A0053776974636820706F7765A9
:101B400072206F6666005679706E6F7574207A64C5
:101B5000726F6A0053776974636820706F7765727B
:101B6000206F6E005A63686C6164697400436F6F24
:101B70006C646F776E00507265646568726576207C
:101B800041425320636F6E660050726568656174F0
:101B90002041425320636F6E660050726564656831
:101BA0007265762041425320426564005072656838
:101BB000656174204142532042656400507265643F
:101BC00065687265762041425320416C6C0050720A
:101BD00065686561742041425320416C6C0050720D
:101BE0006564656872657620414253203300507207
:101BF000656865617420414253203300507265640A
:101C000065687265762041425320320050726568E3
:101C100065617420414253203200507265646568EA
:101C200072657620414253203100507265686561CB
:101C300074204142532031005072656465687265BA
:101C400076204142530050726568656174204142BC
:101C5000530050726564656872657620504C41206F
:101C6000636F6E66005072656865617420504C4108
:101C700020636F6E660050726564656872657620D9
:101C8000504C412042656400507265686561742063
:101C9000504C41204265640050726564656872650D
:101CA0007620504C4120416C6C0050726568656133
:101CB0007420504C4120416C6C0050726564656822
:101CC00072657620504C4120330050726568656122
:101CD0007420504C41203300507265646568726511
:101CE0007620504C41203200507265686561742046
:101CF000504C4120320050726564656872657620F0
:101D0000504C412031005072656865617420504C20
:101D10004120310050726564656872657620504CD0
:101D200041005072656865617420504C41004E61FD
:101D30007374617620706F636174656B00536574B2
:101D4000206F726967696E004E61737461762070EE
:101D50006F636174656B20686F6D650053657420F7
:101D6000686F6D65206F6666736574730041757486
:101D70006F20686F6D65004175746F20686F6D65C9
:101D8000005679706E6F7574206D6F746F72790084
:101D900044697361626C65207374657070657273F9
:101DA000004175746F7374617274004175746F7360
:101DB0007461727400486C61766E69206E6162694C
:101DC000646B61004D61696E004B617274612076D5
:101DD000796A6D75746100436172642072656D6F1C
:101DE000766564004B6172746120766C6F7A656E03
:101DF00061004361726420696E736572746564008A
:101E000050727573612069332070726970726176E7
:101E1000656E61005072757361206933207265616F
:101E200064792E004D383420582059205A2045001E
:101E30004D3234004D3233202573006175746F25A7
:101E4000692E67000A002F000A002E0044656C65A9
:101E500074696F6E206661696C65642C2046696CDC
:101E6000653A200046696C652064656C657465643C
:101E70003A002E002E002E002E004E6F7720667244
:101E80006573682066696C653A20004E6F77206440
:101E90006F696E672066696C653A20002220706F5A
:101EA00073002220706172656E743A2200535542AD
:101EB000524F5554494E452043414C4C2074617259
:101EC0006765743A2200747279696E6720746F20B6
:101ED00063616C6C207375622D67636F6465206647
:101EE000696C6573207769746820746F6F206D6109
:101EF0006E79206C6576656C732E204D4158206C90
:101F00006576656C2069733A0000002110422063F9
:101F1000308440A550C660E770088129914AA16BC2
:101F2000B18CC1ADD1CEE1EFF1311210027332525A
:101F300022B5529442F772D662399318837BB35A12
:101F4000A3BDD39CC3FFF3DEE3622443342004012A
:101F500014E664C774A44485546AA54BB528850962
:101F600095EEE5CFF5ACC58DD553367226111630FA
:101F700006D776F6669556B4465BB77AA7199738B2
:101F800087DFF7FEE79DD7BCC7C448E5588668A73A
:101F9000784008611802282338CCC9EDD98EE9AF02
:101FA000F9488969990AA92BB9F55AD44AB77A969A
:101FB0006A711A500A333A122AFDDBDCCBBFFB9E52
:101FC000EB799B588B3BBB1AABA66C877CE44CC56A
:101FD0005C222C033C600C411CAEED8FFDECCDCDA2
:101FE000DD2AAD0BBD688D499D977EB66ED55EF43A
:101FF0004E133E322E511E700E9FFFBEEFDDDFFCF2
:10200000CF1BBF3AAF599F788F8891A981CAB1EB96
:10201000A10CD12DC14EF16FE18010A100C230E3BF
:10202000200450254046706760B9839893FBA3DA7B
:10203000B33DC31CD37FE35EF3B1029012F322D20F
:10204000323542145277625672EAB5CBA5A895890B
:10205000856EF54FE52CD50DC5E234C324A014815F
:10206000046674476424540544DBA7FAB79987B81B
:10207000975FE77EF71DC73CD7D326F2369106B0AF
:102080001657667676154634564CD96DC90EF92F1B
:10209000E9C899E9898AB9ABA944586548067827FF
:1020A00068C018E1088238A3287DCB5CDB3FEB1EBB
:1020B000FBF98BD89BBBAB9ABB754A545A376A164F
:1020C0007AF10AD01AB32A923A2EFD0FED6CDD4D4B
:1020D000CDAABD8BADE89DC98D267C076C645C459F
:1020E0004CA23C832CE01CC10C1FEF3EFF5DCF7C5B
:1020F000DF9BAFBABFD98FF89F176E367E554E74EF
:102100005E932EB23ED10EF01E22004D32323020B0
:1021100053256900203A2000004C414E472053458A
:102120004C20464F52434544002200205A3A00209A
:10213000593A0020453A00205A3A0020593A0058AE
:102140003A0020002E0020423A0020453A00543A3E
:102150000020573A0020453A00543A002042403AC5
:102160000020403A00202F003A00205400202F0089
:1021700020423A00202F006F6B20543A002569203E
:102180006D696E2C202569207365630025692068C0
:102190006F757273202569206D696E7574657300A3
:1021A0004D313130004D32390046656220313920E1
:1021B0003230313600436F6D70696C65643A2000CF
:1021C000286E6F6E652C2064656661756C74206383
:1021D0006F6E6669672900466562203139203230AA
:1021E00031362031373A34373A33360073746172FE
:1021F000740022002200FFFFFF0000A0400000A0AA
:10220000400000004000005643000046431FC54800
:102210004300000000000000001F856B3E000056D8
:102220004300004643000049430000000000000056
:10223000001F856B3E6563686F3A004572726F726E
:102240003A004731204534302046313030004731A4
:10225000204536352046343030004D383300473184
:1022600020452D38302046343030004D3833002D95
:102270002D3A2D2D002D2D2D00534400012000015D
:1022800020004D36303000464C4558202D2020325D
:1022900035302F35300050502020202D2020323571
:1022A000342F3130300048495053202D2020323215
:1022B000302F3130300050455420202D2020323432
:1022C000302F393000504C4120202D202032323028
:1022D0002F35300041425320202D20203238352F19
:1022E000313030004D3834004D38342058205920DA
:1022F0005A2045004D3234004D32332025730058AA
:102300000059005A0045787472756465720047324E
:1023100038004D383400473238205A0050727573F7
:10232000614E6D6B320052414D426F2D3130610074
:10233000336D6D002D2D2D2D2D2D2D2D2D2D2D2D74
:10234000004669726D77617265202D20322E322E23
:10235000330048617264636F64656420446566613C
:10236000756C742053657474696E6773204C6F616B
:102370006465640046696C616D656E742073657494
:1023800074696E67733A2044697361626C656400B6
:102390002020204D32303020440046696C616D654C
:1023A0006E742073657474696E67733A0020202020
:1023B0004D3230392053004175746F2D526574725F
:1023C0006163743A20533D3020746F2064697361F7
:1023D000626C652C203120746F20696E7465727098
:1023E00072657420657874727564652D6F6E6C7992
:1023F000206D6F76657320617320726574726163FE
:102400007473206F72207265636F7665726965738D
:10241000002046002020204D3230382053005265E5
:10242000636F7665723A20533D4578747261206C13
:10243000656E67746820286D6D2920463A53706573
:10244000656420286D6D2F6D2900205A00204600FC
:102450002020204D32303720530052657472616362
:10246000743A20533D4C656E67746820286D6D2961
:1024700020463A537065656420286D6D2F6D2920C4
:102480005A3A205A4C69667420286D6D2900204400
:10249000002049002020204D333031205000504989
:1024A000442073657474696E67733A00205A002083
:1024B000590020204D323036205800486F6D65207D
:1024C0006F666673657420286D6D293A002045009B
:1024D000205A0020580020420020540020204D3275
:1024E0003035205300416476616E63656420766107
:1024F000726961626C65733A20533D4D696E206666
:102500006565647261746520286D6D2F73292C20B8
:10251000543D4D696E2074726176656C2066656508
:10252000647261746520286D6D2F73292C20423DE3
:102530006D696E696D756D207365676D656E74206C
:1025400074696D6520286D73292C20583D6D617864
:10255000696D756D205859206A65726B20286D6D04
:102560002F73292C20205A3D6D6178696D756D207F
:102570005A206A65726B20286D6D2F73292C2020DC
:10258000453D6D6178696D756D2045206A65726B9A
:1025900020286D6D2F73290020540020204D3230EB
:1025A00034205300416363656C65726174696F6EBA
:1025B0003A20533D616363656C65726174696F6E47
:1025C0002C20543D7265747261637420616363658D
:1025D0006C65726174696F6E00204500205A00209E
:1025E000590020204D3230312058004D6178696DFE
:1025F000756D20416363656C65726174696F6E20EF
:10260000286D6D2F7332293A00204500205A002092
:10261000590020204D3230332058004D6178696DCB
:10262000756D2066656564726174657320286D6DD3
:102630002F73293A00204500205A002059002020FD
:102640004D393220580053746570732070657220C4
:10265000756E69743A0045303A20005A3A200059A4
:102660003A2000583A20004D53312C4D533220501F
:10267000696E730A005A00205A3A00590020593AEC
:1026800000580020583A0024F4D43050C38E20C2A1
:10269000A24017828B7011127A910D816CD90AA811
:1026A00061E108C7586607615143061E4B5D05C1CD
:1026B00045A7041A411104093D98037139310340BB
:1026C00036DB0265339102D4305402802E1D026342
:1026D0002CEE01752AC501B028A001102781018FB9
:1026E0002564012B244B01E0223401AC211F018D14
:1026F000200D01801FFC00841EED00971DDF00B837
:102700001CD200E61BC600201BBC00641AB200B23B
:1027100019A8000A19A0006A189900D11791004061
:10272000178B00B516840031167E00B31579003A78
:10273000157300C7146F0058146A00EE1366008802
:1027400013630025135E00C7125B006C125700155F
:10275000125400C111510070114F0021114B00D6CD
:102760001049008D1047004610440002104200C07E
:102770000F4000800F3E00420F3C00060F3B00CB95
:102780000E3800930E37005C0E3500270E3400F330
:102790000D3200C10D3100900D3000600D2E003261
:1027A0000D2D00050D2C00D90C2B00AE0C29008539
:1027B0000C29005C0C2700350C27000E0C2600E8C5
:1027C0000B2400C40B2400A00B23007D0B23005A14
:1027D0000B2100390B2100180B2000F80A1F00D92B
:1027E0000A1E00BB0A1E009D0A1D00800A1D006310
:1027F0000A1C00470A1B002C0A1B00110A1A00F7CA
:10280000091A00DD091900C4091900AB0919009261
:102810000917007B091800630917004C09160036D8
:10282000091600200916000A091500F5081500E030
:10283000081400CC081400B8081400A40814009070
:102840000813007D0812006B081300580812004698
:1028500008120034081100230811001208110001A9
:10286000081100F0071000E0071000D0071000C0AA
:10287000071000B0070F00A107100091070E00839A
:10288000070F0074070F0065070E0057070E004979
:10289000070E003B070D002E070E0020070D00134A
:1028A000070D0006070D00F9060C00ED060D00E00F
:1028B000060C00D4060C00C8060C00BC060C00B0C8
:1028C000060C00A4060B0099060C008D060B008276
:1028D000060B0077060B006C060B0061060A00571A
:1028E000060B004C060A0042060A0038060A002EB3
:1028F000060A0024060A001A060A00100609000744
:10290000060A00FD050900F4050900EB050900E2CF
:10291000050900D9050900D0050900C7050900BE51
:10292000050900B5050800AD050800A50509009CCE
:10293000050800940508008C050800840508007C43
:10294000050800740508006C050700650508005DB2
:10295000050700560508004E05070047050700401B
:1029600005080038050700310507002A0507002380
:102970000507001C050600160507000F05070008DF
:1029800005060002050700FB040600F5040700EE3B
:10299000040600E8040600E2040700DB040600D594
:1029A000040600CF040600C9040600C3040600BDE7
:1029B000040600B7040600B1040500AC040600A636
:1029C000040600A00405009B040600950405009081
:1029D0000406008A04050085040500800406007AC8
:1029E00004050075040500700405006B040500660D
:1029F000040500610405005C04050057040500524D
:102A00000405004D04050048040500430405003E8C
:102A10000404003A04050035040500300404002CC9
:102A200004050027040400230405001E0404001A02
:102A300004040016040500110404000D0404000938
:102A40000405000404040000040400FC030400F86E
:102A5000030400F4030400F0030400EC030400E8A2
:102A6000030400E4030400E0030400DC030400D8D2
:102A7000030400D4030400D0030400CC030400C802
:102A8000030300C503030024F404D9201BC40C5C19
:102A90000E9804C4095F0265077101F405F900FB93
:102AA00004B30048048700C10369005803550003BC
:102AB000034500BE023A008402310053022A002975
:102AC00002250004022000E4011C00C8011900AF27
:102AD00001170098011400840113007101100061B6
:102AE00001100051010E0043010D0036010B002BB7
:102AF000010B0020010B00150109000C0109000366
:102B0000010800FB000800F3000800EB000700E4E8
:102B1000000600DE000600D8000600D2000600CC49
:102B2000000500C7000500C2000500BD000400B993
:102B3000000400B5000400B1000400AD000400A9C9
:102B4000000400A5000300A20003009F0004009BF6
:102B5000000300980003009500020093000300901A
:102B60000003008D0002008B000300880002008635
:102B700000020084000300810002007F0002007D4B
:102B80000002007B0002007900020077000100765D
:102B90000002007400020072000100710002006F68
:102BA0000002006D0001006C0002006A0001006973
:102BB000000200670001006600010065000100647A
:102BC0000002006200010061000100600001005F7E
:102BD0000002005D0001005C0001005B0001005A82
:102BE0000001005900010058000100570001005683
:102BF0000001005500010054000100530000005383
:102C00000001005200010051000100500001004F7E
:102C10000001004E0000004E0001004D0001004C7C
:102C20000001004B0000004B0001004A0001004978
:102C30000001004800000048000100470001004674
:102C4000000000460001004500000045000100446E
:102C50000001004300000043000100420000004268
:102C60000001004100000041000100400001003F60
:102C70000000003F0001003E0000003E0001003D5A
:102C80000000003D0001003C0000003C0000003C52
:102C90000001003B0000003B0001003A0000003A48
:102CA0000001003900000039000100380000003840
:102CB0000000003800010037000000370001003636
:102CC000000000360000003600010035000000352D
:102CD0000000003500010034000000340000003422
:102CE0000001003300000033000000330001003217
:102CF000000000320000003200010031000000310D
:102D00000000003100010030000000300000003001
:102D10000001002F0000002F0000002F0000002FF6
:102D20000001002E0000002E0000002E0001002DEA
:102D30000000002D0000002D0000002D0001002CDF
:102D40000000002C0000002C0000002C0001002BD3
:102D50000000002B0000002B0000002B0001002AC7
:102D60000000002A0000002A0000002A00010029BB
:102D700000000029000000290000002900000029AF
:102D800000010028000000280000002800000028A2
:102D90000000002800010027000000270000002795
:102DA0000000002700000027000100260000002688
:102DB000000000260000002600000026000100257B
:102DC000000000250000002500000025000000256F
:102DD0000000002500010024000000240000002461
:102DE0000000002400000024000100230000002354
:102DF0000000002300000023000000230000002347
:102E00000000002300010022000000220000002238
:102E1000000000220000002200000022000100212A
:102E2000000000210000002100000021000000211E
:102E3000000000210000002100010020000000200F
:102E40000000002000000020000000200000002002
:102E500000000020000000200001001F0000001FF3
:102E60000000001F0000001F0000001F0000001FE6
:102E70000000001F0001001E0000001E0000001ED8
:102E80000000001E0000000000090A02080B0C0DE3
:102E9000070603040100000000000000000000001D
:102EA0000000000000000000000000000000000022
:102EB00000000011100F00000000000000000000E2
:102EC0000000000000000000000000000000000002
:102ED00000000000000000000000000000010210DF
:102EE0002020080810204010204080020102010824
:102EF00004020101020408102040808040201008D4
:102F0000040201800402018040201008040201082C
:102F1000040201010204081020408001020408108C
:102F200020408010080408801020400440801020B9
:102F30004004800505050507050808080802020287
:102F4000020A0A0808040404040101010101010144
:102F5000010303030303030303040707070C0C0C1B
:102F60000C0C0C0C0C0202020206060606060606F3
:102F7000060B0B0B0B0B0B0B0B07070A0A0A0A0AB3
:102F80000A050505040404080800002000230026A3
:102F90000029002C002F0032000001000003010670
:102FA00001090100002200250028002B002E00311D
:102FB00000340002010000050108010B010000219E
:102FC00000240027002A002D0030003300010100FA
:102FD00000040107010A01024E414E494E4954596D
:102FE000494E46CDCCCC3D0AD7233C17B7D13877D4
:102FF000CC2B329595E6241FB14F0A0000204100EA
:1030000000C84200401C4620BCBE4CCA1B0E5AAE33
:10301000C59D74003C72AF8C84BF407211241FBEEA
:10302000CFEFD1E2DEBFCDBF00E00CBF17E0A0E0E4
:10303000B2E0EEECF5EA01E00BBF02C007900D92A2
:10304000A23FB107D9F727E1A2EFB7E001C01D9277
:10305000A730B207E1F710E3CAE1D0E300E006C011
:1030600022970109FE010BBF0E946FCCC431D1072A
:1030700080E00807A9F70E9488C30C94D6D20C946C
:103080000000CF93DF93EC019C012C5F3F4F41E0A8
:1030900050E060E070E0898D9A8D0E94E3228823E1
:1030A00099F04D895E896F89788D452B462B472B8A
:1030B00059F44C815D816E817F814D8B5E8B6F8B6E
:1030C000788F998190689983DF91CF910895CF92FD
:1030D000DF92EF92FF920F931F93CF93DF93EC0158
:1030E00089899A89AB89BC89803E9F4FAF41B105E0
:1030F00010F080E06BC0CE01C4DF8823D1F30E94C2
:10310000F720182F8823A9F3E98DFA8DCC80DD8074
:10311000EE80FF8032E0C31AD108E108F10805848F
:1031200004C0CC0CDD1CEE1CFF1C0A94D2F7868573
:103130009785A089B189C80ED91EEA1EFB1E81E0C1
:103140008093F807C092FB09D092FC09E092FD0938
:10315000F092FE0980E092E0EBEFF7E0DF019C01E6
:103160001D9221503040E1F701E0E98DFA8D848114
:10317000081790F42BEF37E0B701A601400F511D5F
:10318000611D711D8091F9079091FA070E94B24666
:103190008823E1F00F5FE9CFC12C82E0D82EE12C2B
:1031A000F12C058404C0CC0CDD1CEE1CFF1C0A9421
:1031B000D2F749895A896B897C894C0D5D1D6E1D3A
:1031C0007F1D498B5A8B6B8B7C8B812FDF91CF912D
:1031D0001F910F91FF90EF90DF90CF900895CF93C4
:1031E000DF93EC0141E0611101C040E06C857D8519
:1031F0008E859F850E943721882341F0888920E2AF
:10320000829FC00111248550984F02C080E090E059
:10321000DF91CF91089530E020E04EE2DC015C9137
:10322000503271F0383029F4FB01E20FF11D408378
:103230002F5FFB01E20FF11DDC015C9150832F5FDA
:103240003F5F01963B3051F7FB01E20FF11D108209
:103250000895CF93DF93EB01FC012381211102C07C
:1032600080E00EC02250223020F48FE28883198241
:1032700006C060E0B4DF009799F3BE01CCDF81E0C7
:10328000DF91CF910895FB012BE030E23193215083
:10329000E9F7DC0190E027E03A2FEB2F8D918111C7
:1032A0000AC0DA013C931196EC9381E0FB01908116
:1032B000903239F525C08F32A1F38E3219F0EAE849
:1032C000F1E008C02A30E1F098E02AE0E5CF31963D
:1032D0003817B1F034913111FACF291788F03FED4A
:1032E000380F3E3568F431E0390FFB01E90FF11D6D
:1032F0009FE9980F9A3108F480528083932FCCCFA6
:1033000080E008950F931F93CF93DF93EC018B011F
:103310008B81882311F080E042C0FB0187898031D6
:1033200039F18032C1F783E08B83F801428D538DF0
:10333000648D758D4D8B5E8B6F8B788F9E012F5EAC
:103340003F4FC8010E94EE21882329F31A8F098F6D
:1033500081E089831C821D821E821F821886198645
:103360001A861B861C861D861E861F86188A17C015
:1033700082E08B831D8A1E8A1F8A188EFB01408D76
:10338000518D60E070E095E0440F551F661F771F78
:103390009A95D1F7498B5A8B6B8B7C8BD7CFDF916A
:1033A000CF911F910F9108952F923F924F925F926C
:1033B0006F927F928F929F92AF92BF92CF92DF9245
:1033C000EF92FF920F931F93CF93DF93EC015B017A
:1033D0006A018B81811103C08FEF9FEFC7C0898184
:1033E00080FFFACF49895A896B897C8988859985BC
:1033F000AA85BB852601612C712C8A019B01081BC3
:10340000190B2A0B3B0B401651066206730618F087
:103410006A01C81AD90A76013E0124E0620E711CC5
:10342000E114F10409F476C0488559856A857B85E5
:103430004A0181E098222B811A012B01E9E0569480
:10344000479437942794EA95D1F7898D9A8DFC019A
:10345000223049F4628D738D848D958D620D731DBC
:10346000841D951D3CC014811150122181149104BA
:10347000C1F4111116C0452B462B472B49F48D89F9
:103480009E89AF89B88D8C839D83AE83BF8309C02D
:103490004C815D816E817F81930121D7882309F45E
:1034A0009BCFE98DFA8D6C817D818E819F816250E9
:1034B000710981099109058404C0660F771F881F6F
:1034C000991F0A94D2F72685378540895189620F62
:1034D000731F841F951F610F711D811D911D20E0B9
:1034E00032E02819390987012E153F0508F48901B2
:1034F0000115F2E01F0769F52091FB093091FC09E5
:103500004091FD095091FE096217730784079507E2
:1035100019F41FC0C6012AC09501AB01BC018091FE
:10352000F9079091FA070E943D46882309F454CF89
:10353000A00EB11E88859985AA85BB85800F911F35
:10354000A11DB11D88879987AA87BB87E01AF10A58
:1035500067CF40E08CD6882309F43ECFB401655094
:10356000784FA801C5010E9495CFE2CFDF91CF919E
:103570001F910F91FF90EF90DF90CF90BF90AF9091
:103580009F908F907F906F905F904F903F902F9083
:103590000895CF93DF931F92CDB7DEB741E050E09F
:1035A000BE016F5F7F4F00DF019719F4898190E0C2
:1035B00002C08FEF9FEF0F90DF91CF910895CF92D0
:1035C000DF92EF92FF920F931F93CF93DF936C01E3
:1035D000EB017A01FC018381823060F00085118566
:1035E000228533850F71112722273327012B022BC8
:1035F000032B11F08FEF5CC04115510511F0F7015D
:1036000010821DE040E250E0BE01C601CDDE8032F6
:10361000910539F021E0892B09F420E0822F819572
:1036200047C028812223C1F0253E61F32E3251F399
:103630003B853F733F3061F4E114F10449F04A8D5A
:103640005B8D452B29F42F713FEF320F343030F072
:103650002B8523FDD7CF2CC080E02AC030E021503D
:103660003109129FC001139F900D1124F701E80F3B
:10367000F91F298120832B8121832D8122832F8192
:103680002383298524832E852583288926832A89D7
:1036900027832C8920872E892187288D22872C8DAE
:1036A00023872E8D2487288126FFD2CF1586D0CF61
:1036B000DF91CF911F910F91FF90EF90DF90CF900E
:1036C00008951F93CF93DF93EC018B81823018F420
:1036D00080E090E023C0488559856A857B85A5E018
:1036E0007695679557954795AA95D1F7142F1F7032
:1036F000CE014FDF97FDECCF488559856A857B85E4
:10370000415E5F4F6F4F7F4F488759876A877B873E
:1037100020E2129FC00111248550984FDF91CF9174
:103720001F9108954F925F926F927F92AF92BF92D6
:10373000CF92DF92EF92FF920F931F93CF93DF937D
:10374000EC016A017B012B81222349F089899A8946
:10375000AB89BC8984179507A607B70710F480E0EA
:103760006BC0223009F463C0C114D104E104F10438
:1037700049F41C821D821E821F82188619861A86B1
:103780001B8659C088859985AA85BB85E98DFA8DE8
:10379000E585F0E03996AC01BD0141505109610960
:1037A00071090E2E04C076956795579547950A9432
:1037B000D2F797018601015011092109310904C08E
:1037C0003695279517950795EA95D2F704171507AB
:1037D0002607370720F0892B8A2B8B2B49F48D89FC
:1037E0009E89AF89B88D8C839D83AE83BF8304C0CF
:1037F000041B150B260B370B280139015E0184E0F1
:10380000A80EB11C411451046104710481F04C8173
:103810005D816E817F819501898D9A8D60D591E062
:10382000491A5108610871088111ECCF05C0C8869A
:10383000D986EA86FB8681E0DF91CF911F910F91B7
:10384000FF90EF90DF90CF90BF90AF907F906F9000
:103850005F904F9008950F931F93CF93DF93EC01E8
:103860008B818823D1F1898187FF32C061E0CE014D
:10387000B6DC8C01009789F1FC018081853E69F1FD
:103880008B81823040F449895A896B897C89448FC5
:10389000558F668F778F4D895E896F89788DF80196
:1038A000538F428F758B648BE091F207F091F30791
:1038B000309759F0B8016A5E7F4FC8014896199554
:1038C000F801808D918D938B828B89818F7789838D
:1038D000DF91CF911F910F918AC481E0888380E0AE
:1038E000DF91CF911F910F910895CF93DF93EC015A
:1038F000B2DF1B82DF91CF910895FC01238121115A
:10390000F4CF08954F925F926F927F92AF92BF92E1
:10391000CF92DF92EF92FF920F931F93CF93DF939B
:1039200000D01F92CDB7DEB75C016A017B01FC01BC
:1039300083818130E9F4818181FF1AC0F501818999
:103940009289A389B48984179507A607B70780F0E1
:10395000892B8A2B8B2B09F472C0F501408451848A
:1039600062847384B701A601C501DCDE811102C047
:1039700080E066C0F501818D928DC114D104E1040F
:10398000F10469F4458956896789708D25D78823A4
:1039900079F3F501158A168A178A108E37C0F5015A
:1039A00044815581668177819E012F5F3F4F97D477
:1039B0008823F1F249815A816B817C81F501818DE7
:1039C000928DFC012789203139F4483FFFEF5F07D2
:1039D00061057105D8F407C0483F2FEF5207620711
:1039E0002FE0720798F4F8D6882309F4C1CFF501C7
:1039F00044815581668177810FEF1FEF2FEF3FE004
:103A0000818D928D51D5882309F4B2CFF501C18AF9
:103A1000D28AE38AF48A818180688183C5011BDFB1
:103A2000882309F4A5CFB701A6014C145D046E04E8
:103A30007F0410F4B301A201C50174DE01C081E06E
:103A40000F900F900F900F90DF91CF911F910F91DA
:103A5000FF90EF90DF90CF90BF90AF907F906F90EE
:103A60005F904F900895FF920F931F93CF93DF9332
:103A7000EC01F42E80E2689FF0011124E550F84F2C
:103A80008385817121F0842F827109F04EC080916D
:103A9000FB099091FC09A091FD09B091FE098C876A
:103AA0009D87AE87BF87688B4489558960E070E049
:103AB000BA0155274427028D138D20E030E0402BBA
:103AC000512B622B732B4D8B5E8B6F8B788F838585
:103AD000887151F4048D158D268D378D098B1A8BC5
:103AE0002B8B3C8B81E00BC08031F9F49E012F5E63
:103AF0003F4F898D9A8D72D48823B9F084E08B83EF
:103B00008F2D8F7089831C821D821E821F821886D2
:103B100019861A861B86F4FE0BC040E050E0BA01FD
:103B2000CE01F0DE811104C011C01B8280E00EC006
:103B3000F5FE0BC049895A896B897C89CE01DF91DA
:103B4000CF911F910F91FF90EDCD81E0DF91CF914B
:103B50001F910F91FF900895AF92BF92CF92DF9285
:103B6000EF92FF920F931F93CF93DF937C01EB01B2
:103B70006A01B22E898D9A8DF701928F818F40E074
:103B800050E0BA01CE01CEDDA12C088519852A8529
:103B90003B8589899A89AB89BC89081719072A0747
:103BA0003B07A0F585E036952795179507958A95EB
:103BB000D1F70F70CE0185DD009709F481C0FC01BB
:103BC0002081222311F0253EB9F4A1100EC04091AE
:103BD000FB095091FC096091FD097091FE09F70104
:103BE0004487558766877787008BFC018081AA24EC
:103BF000A3948111CACF0AC04BE050E0BC01C601BA
:103C00000E9488CF892B09F0C0CF58C08B2D8274B9
:103C1000823409F055C0AA2049F0F701008961E01B
:103C2000C701DDDAEC01009769F44AC08B8182306C
:103C300009F446C0CE014BDA882309F441C0CBEF2A
:103C4000D7E000E080E2FE0111928A95E9F78BE06F
:103C5000F601DE0101900D928A95E1F7E091F207FD
:103C6000F091F307309739F0BE01625F7F4FCE01CC
:103C70004096199508C081E298E2998B888B80E084
:103C800098E09F878E87888999899B8B8A8B998FEB
:103C9000888F8E859F859F8B8E8BA9D2882381F0FC
:103CA0004B2D602FC701DF91CF911F910F91FF9096
:103CB000EF90DF90CF90BF90AF90D5CEB7FEF0CF12
:103CC00080E0DF91CF911F910F91FF90EF90DF90F7
:103CD000CF90BF90AF9008953F924F925F926F92B6
:103CE0007F928F929F92AF92BF92CF92DF92EF928C
:103CF000FF920F931F93CF93DF93CDB7DEB7C354DB
:103D0000D1090FB6F894DEBF0FBECDBF5C016B01C9
:103D100024965FAF4EAF2497522E1C8E1F8E1982B1
:103D20001C826115710511F410E073C0FC018381E0
:103D30008111FACF2496EEADFFAD249780818F32AA
:103D400011F076011DC02496EEADFFAD2497808161
:103D50008F3231F431962496FFAFEEAF2497F3CF34
:103D6000F60183818250823060F3F601618D728D9D
:103D7000CE010196C7DA8823B9F2CE0101967C0103
:103D80008E01045E1F4F3801FE0131964F01402E17
:103D9000312E19C08823A9F121E0AE01495C5F4FA3
:103DA000B701C801D9DE882309F4BECFEC14FD04A5
:103DB00011F0C7019ADD0615170501F1942D832D29
:103DC0007801092F182FAE014E5B5F4FBE01695C71
:103DD0007F4F24968EAD9FAD249755DA882309F442
:103DE000A3CF2496EEADFFAD249780818F3291F65C
:103DF00031962496FFAFEEAF2497F3CF982D892DFF
:103E0000DFCF252DAE01495C5F4FB701C501A4DEB0
:103E1000182FCE01019671DDCE014C966EDD812FFB
:103E2000CD5BDF4F0FB6F894DEBF0FBECDBFDF9185
:103E3000CF911F910F91FF90EF90DF90CF90BF90A7
:103E4000AF909F908F907F906F905F904F903F903A
:103E50000895CF93DF93EC0140E050E0BA0152DDCA
:103E6000882361F061E0CE01BAD9009739F025EEE0
:103E7000FC0120831B82DF91CF91B9C180E0DF91EB
:103E8000CF9108951F93CF93DF93CDB7DEB76B9794
:103E90000FB6F894DEBF0FBECDBFAB0119821C82F6
:103EA00022E0BC01CE01019617DF182F882321F0F4
:103EB000CE010196CEDF182FCE0101961EDD812F97
:103EC0006B960FB6F894DEBF0FBECDBFDF91CF91DA
:103ED0001F9108952F923F924F925F926F927F921F
:103EE0008F929F92AF92BF92CF92DF92EF92FF920A
:103EF0000F931F93CF93DF9300D01F921F92CDB7E4
:103F0000DEB78C015B013A01DC0113968C911397AB
:103F10008130C1F411968C9181FF14C082FF18C0CA
:103F2000F801418952896389748980859185A285C8
:103F3000B38584179507A607B70751F0C801F2DBD0
:103F4000811106C081E0F80180838FEF9FEF37C1B8
:103F5000630183C0D80159968D919C915A97FC01B9
:103F6000F481F1501A012B0169E05694479437947B
:103F700027946A95D1F7F221FD834A0121E092222C
:103F8000FF2309F476C080E092E088199909760150
:103F90008C159D0508F47C01D8015996ED91FC9192
:103FA0005A9714962D903D904D905C901797B2E0E3
:103FB0002B1A310841085108058404C0220C331C17
:103FC000441C551C0A94D2F786859785A089B1892F
:103FD000280E391E4A1E5B1EED812E0E311C411C1F
:103FE000511CE114F2E0FF0609F089C08091FB0941
:103FF0009091FC09A091FD09B091FE0982159305ED
:10400000A405B50569F41092F8078FEF9FEFDC0166
:104010008093FB099093FC09A093FD09B093FE09DE
:104020009501B201A1018091F9079091FA070E94D0
:10403000B246882309F486CFF80180859185A28550
:10404000B3858E0D9F1DA11DB11D80879187A2870D
:10405000B387AE0CBF1CCE18DF08D80118964D915F
:104060005D916D917C911B97C114D10409F072CFC1
:104070007AC08114910409F086CF14964D915D9118
:104080006D917C911797411551056105710559F4A2
:1040900055968D919D910D90BC91A02D0097A105F5
:1040A000B10539F520C09E012F5F3F4F18D18823FD
:1040B00009F448CF89819A81AB81BC81F801218DB7
:1040C000328DF9012789203139F4883FFFEF9F07AE
:1040D000A105B10540F40DC0883F2FEF9207A2075C
:1040E0002FE0B20730F0C8010E94411881114BCF78
:1040F00029CFF80184839583A683B78344CF8114A5
:10410000910411F5D80118964D915D916D917C91B6
:104110001B9751968D919D910D90BC91A02D4817A4
:1041200059076A077B0780F062D0882309F40ACF19
:1041300081E08093F8072092FB093092FC094092BD
:10414000FD095092FE0907C041E0C201B1018FD0C4
:10415000882309F4F7CEA701B501C4018550984F13
:104160000E9495CF69CF51968D919D910D90BC91F4
:10417000A02DF801218184179507A607B70738F409
:10418000418B528B638B748B206821830CC0809190
:10419000F2079091F307892B31F06114710419F043
:1041A0002068F8012183D80111968C9183FD02C00B
:1041B000C30105C0C8014FDB8111FACFC3CE0F90F8
:1041C0000F900F900F900F90DF91CF911F910F9153
:1041D000FF90EF90DF90CF90BF90AF909F908F9027
:1041E0007F906F905F904F903F902F900895CF9366
:1041F0008091F8078823B9F14091FB095091FC099F
:104200006091FD097091FE092BEF37E08091F9076D
:104210009091FA070E94B246C82F811102C0C0E0F7
:1042200023C04091F4075091F5076091F607709113
:10423000F707411551056105710591F02BEF37E046
:104240008091F9079091FA070E94B246882339F3CA
:104250001092F4071092F5071092F6071092F707E4
:104260001092F80701C0C1E08C2FCF910895CF9232
:10427000DF92EF92FF92CF936B017C01C42F80916C
:10428000FB099091FC09A091FD09B091FE098C15E4
:104290009D05AE05BF05C9F0AADF811102C080E00F
:1042A00018C02BEF37E0B701A6018091F907909174
:1042B000FA070E943D46882391F3C092FB09D092F1
:1042C000FC09E092FD09F092FE0981E0C1118093A2
:1042D000F807CF91FF90EF90DF90CF9008958F92E5
:1042E0009F92AF92BF92CF92DF92EF92FF920F9385
:1042F0001F93CF93DF93EC016A017B0189018985CC
:104300009A85AB85BC850196A11DB11D84179507C3
:10431000A607B70710F480E054C08F89803129F4D4
:104320009927872F762F652F0BC08032A1F7CB01FD
:10433000BA0127E096958795779567952A95D1F7E5
:104340008B889C88AD88BE88680D791D8A1D9B1D51
:104350008090FB099090FC09A090FD09B090FE09A7
:10436000681579058A059B0581F48F89803191F460
:10437000DD24EE24FF24F601EE0FFF1FE550F84F79
:1043800080819181A0E0B0E016C040E070DF811133
:10439000ECCFC1CFE894C7F8DD24EE24FF24F6016A
:1043A000EE0FFF1FEE0FFF1FE550F84F8081918148
:1043B000A281B381BF70F80180839183A283B3830C
:1043C00081E0DF91CF911F910F91FF90EF90DF90EF
:1043D000CF90BF90AF909F908F9008954F925F9233
:1043E0006F927F92AF92BF92CF92DF92EF92FF9245
:1043F0000F931F93CF93DF9300D01F92CDB7DEB7FB
:104400008C0149835A836B837C835901C12CD12C45
:104410007601412C42E0542E612C712C49815A8145
:104420006B817C819E012F5F3F4FC80158DF88233D
:1044300041F1D301C201F801058404C0880F991F1E
:10444000AA1FBB1F0A94D2F7C80ED91EEA1EFB1E74
:1044500049815A816B817C818789803139F481E07F
:10446000483F5F4F6105710538F4D8CF81E0483F80
:104470005F4F6F4F7F4090F2F501C082D182E282A0
:10448000F3820F900F900F900F90DF91CF911F91BB
:104490000F91FF90EF90DF90CF90BF90AF907F9003
:1044A0006F905F904F9008954F925F926F927F92BE
:1044B0008F929F92AF92BF92CF92DF92EF92FF9234
:1044C0000F931F93CF93DF93EC014A015B01280107
:1044D0003901423051056105710508F462C0498512
:1044E0005A856B857C854F5F5F4F6F4F7F4F4815B7
:1044F00059056A057B0508F454C08F89803129F479
:10450000FF24EB2CDA2CC92C0CC0803209F049C0F6
:104510007501640177E0F694E794D794C7947A958F
:10452000D1F74B895C896D897E89C40ED51EE61E44
:10453000F71E41E0C701B6019ADE882391F19F89F9
:10454000903159F49924AA24BB24F401EE0FFF1FE3
:10455000E550F84F5182408210C0E89487F89924C2
:10456000AA24BB24F401EE0FFF1FEE0FFF1FE5503E
:10457000F84F40825182628273829A89923090F021
:104580004D815E816F8178854C0D5D1D6E1D7F1D97
:104590004093F4075093F5076093F6077093F7077D
:1045A00001C080E0DF91CF911F910F91FF90EF90BC
:1045B000DF90CF90BF90AF909F908F907F906F9043
:1045C0005F904F9008952F923F924F925F926F921B
:1045D0007F928F929F92AF92BF92CF92DF92EF9293
:1045E000FF920F931F93CF93DF93CDB7DEB72F9733
:1045F0000FB6F894DEBF0FBECDBF1C014C875D87A0
:104600006E877F873B872A87DC0119960D911D9164
:104610002D913C911C970F5F1F4F2F4F3F4F0D83E4
:104620001E832F833887EA85FB8580809180A28056
:10463000B38081149104A104B10431F0FFEF8F1A0B
:104640009F0AAF0ABF0A10C0DC018D909D90AD900B
:10465000BC90B1E0B9870C851D852E853F85013062
:1046600011052105310509F0198675016401412CF8
:10467000512C3201F10181859285A385B4854816BC
:1046800059066A067B0608F04EC00D811E812F81F7
:1046900038850C151D052E053F0550F4F2E0CF2E90
:1046A000D12CE12CF12CA2E08A2E912CA12CB12C42
:1046B0009E012F5F3F4FB701A601C10110DE882385
:1046C00091F149815A816B817C81D701C6010196A4
:1046D000A11DB11D452B462B472B19F04C015D0147
:1046E0000FC0AC01BD01481959096A097B090C8545
:1046F0001D852E853F85401751076207730741F0DE
:104700001FEF411A510A610A710A6C017D01B2CF93
:104710000FEF1FEF2FEF3FE0B701A601C101C4DE8D
:104720008D83811113C01D823DC02601370121E018
:10473000421A51086108710897018601B301A2016C
:10474000C101B2DE882379F3730162018C149D04E8
:10475000AE04BF0450F3AA85BB854D915D916D9168
:104760007C914115510561057105A9F4EA85FB8528
:1047700080829182A282B382F985FF2399F00FEFA4
:10478000801A900AA00AB00AD1018D929D92AD9232
:10479000BC92139707C095018401C10185DE811188
:1047A000E5CFC1CF8D812F960FB6F894DEBF0FBE37
:1047B000CDBFDF91CF911F910F91FF90EF90DF90D0
:1047C000CF90BF90AF909F908F907F906F905F90B1
:1047D0004F903F902F900895AF92BF92CF92DF926B
:1047E000EF92FF920F931F93CF93DF9300D01F920E
:1047F000CDB7DEB75C016A017B0182E090E0A0E00A
:10480000B0E0F50180839183A283B3839E012F5F83
:104810003F4FB701A601C50162DD811102C080E0F2
:1048200023C000E010E09801B701A601C5013CDEFD
:104830008823A9F3C980DA80EB80FC80F5018789A1
:10484000803149F481E0F8EFCF16FFEFDF06E10495
:10485000F10450F4DBCF81E098EFC9169FEFD90641
:10486000E9069FE0F90690F20F900F900F900F90DD
:10487000DF91CF911F910F91FF90EF90DF90CF903C
:10488000BF90AF9008957F928F929F92AF92BF9208
:10489000CF92DF92EF92FF920F931F93CF93DF930C
:1048A000EC01142F7093FA076093F9071F8A82E0D6
:1048B00090E0A0E0B0E088839983AA83BB83109244
:1048C000F8071092F4071092F5071092F60710926D
:1048D000F7078FEF9FEFDC018093FB099093FC09B2
:1048E000A093FD09B093FE09442349F1453008F037
:1048F000DEC040E060E070E0CB01B9DC882309F461
:10490000D6C020E1129FF0011124E755F64F8081B7
:104910008F7709F0CCC084859585A685B7858436C8
:104920009105A105B10508F4C2C0C084D184E28418
:10493000F384C114D104E104F10421F4B8C0C12C02
:10494000D12C760140E0C701B60191DC782E882396
:1049500009F4ADC080910608909107088115924036
:1049600009F0A5C030910B08332309F4A0C0809151
:10497000090890910A08892B09F499C02091080828
:10498000222309F494C03A8B2C831D8630E041E049
:1049900050E06D85062FCA01062E02C0880F991FB0
:1049A0000A94E2F72817390731F081E0860F8D87E6
:1049B000683078F37CC020911108309112082115DD
:1049C000310519F040E050E008C020911F083091F7
:1049D000200840912108509122082D833E834F8367
:1049E00058878091090890910A0846015701880E5E
:1049F000991EA11CB11C8B8A9C8AAD8ABE8AE0914B
:104A00000C08F0910D08F98FE88FA0910B08B0E029
:104A10000E945FCC680D791D8A1D9B1D6A8F7B8F5C
:104A20008C8F9D8FB5E0EE0FFF1FBA95E1F7E15037
:104A3000FE4FEF2FFF27E695DC01CB018E0F9F1F66
:104A4000A11DB11D8E879F87A88BB98B80900E0802
:104A500090900F088114910419F0A12CB12C08C07A
:104A600080901B0890901C08A0901D08B0901E0814
:104A7000A7019601281B390B4A0B5B0BDA01C90110
:104A8000880D991DAA1DBB1D04C0B695A7959795C5
:104A900087950A95D2F789879A87AB87BC87853F28
:104AA0003FE09307A105B10520F48CE08F8B712CBA
:104AB00015C0853F9F4FA105B10510F480E10DC0E1
:104AC0008091270890912808A0912908B0912A0880
:104AD0008A8F9B8FAC8FBD8F80E28F8B872DDF916C
:104AE000CF911F910F91FF90EF90DF90CF90BF90EB
:104AF000AF909F908F907F9008954F925F926F92AA
:104B00007F928F929F92AF92BF92CF92DF92EF925D
:104B1000FF920F931F93CF93DF932C0124E733E091
:104B200081E090E0F90145915491441655060CF04E
:104B300062C0AC0141505109DA01AA0FBB1FAA0F94
:104B4000BB1FAE58BC4FFD0165917491440F551FBA
:104B5000440F551F40595C4FFA0165907490FC0159
:104B6000EE0FFF1FEE0FFF1FEE58FC4FA590B49005
:104B7000FD0105911491F901C591D491FA01859037
:104B80009490882777FD8095982F0E94D9C86B0153
:104B90007C01B20166197709882777FD8095982FE7
:104BA0000E94D9C82B013C01B501601B710B8827FD
:104BB00077FD8095982F0E94D9C89B01AC01C30155
:104BC000B2010E940CCB2B013C01BE01681979098E
:104BD000882777FD8095982F0E94D9C89B01AC014A
:104BE000C301B2010E943EC89B01AC01C701B601DE
:104BF0000E945EC711C001962C5F3F4F8D33910517
:104C000009F090CFE2E6F4E065917491882777FD92
:104C10008095982F0E94D9C8DF91CF911F910F9155
:104C2000FF90EF90DF90CF90BF90AF909F908F90CC
:104C30007F906F905F904F9008954F925F926F9228
:104C40007F928F929F92AF92BF92CF92DF92EF921C
:104C5000FF920F931F93CF93DF932C01662371F183
:104C6000EBE3F2E28491882341F09091C00095FF3C
:104C7000FCCF8093C6003196F5CF70E04AE050E05B
:104C800085EE9FE00E940CA3E9E5F2E08491882381
:104C900041F09091C00095FFFCCF8093C600319603
:104CA000F5CF8091C00085FFFCCF8AE08093C600DD
:104CB0000E94A45060E070E0CB017EC024E733E0A6
:104CC00081E090E0F90145915491441655060CF0AD
:104CD00062C0AC0141505109DA01AA0FBB1FAA0FF3
:104CE000BB1FAE58BC4FFD0165917491440F551F19
:104CF000440F551F40595C4FFA0165907490FC01B8
:104D0000EE0FFF1FEE0FFF1FEE58FC4FA590B49063
:104D1000FD0105911491F901C591D491FA01859095
:104D20009490882777FD8095982F0E94D9C86B01B1
:104D30007C01B20166197709882777FD8095982F45
:104D40000E94D9C82B013C01B501601B710B88275B
:104D500077FD8095982F0E94D9C89B01AC01C301B3
:104D6000B2010E940CCB2B013C01BE0168197909EC
:104D7000882777FD8095982F0E94D9C89B01AC01A8
:104D8000C301B2010E943EC89B01AC01C701B6013C
:104D90000E945EC711C001962C5F3F4F8D33910575
:104DA00009F090CFE2E6F4E065917491882777FDF1
:104DB0008095982F0E94D9C8DF91CF911F910F91B4
:104DC000FF90EF90DF90CF90BF90AF909F908F902B
:104DD0007F906F905F904F90089560E08091540AAB
:104DE0009091550A2ADF6093500A7093510A80937C
:104DF000520A9093530A80914E0A90914F0A7DDE99
:104E000060934A0A70934B0A80934C0A90934D0A20
:104E10008FB7F8941092420A8FBF08952091140220
:104E200030911502409116025091170260E070E037
:104E30008FE793E40E943EC86093220A7093230A8E
:104E40008093240A9093250A089597FF03C08091C8
:104E5000490A04C0FC01E45EF54F808190E00895AA
:104E6000CF93DF93D82FC62FC19561E00E94E8C190
:104E70006C2F8D2F0E9421C26C2F70E08D2FDF913F
:104E8000CF910C94DEC0CF93C1E020E030E048E445
:104E900052E46091500A7091510A8091520A9091A7
:104EA000530A0E943ACA18160CF0C0E06C2F86E034
:104EB00090E0CF91D5CF2F923F924F925F926F9219
:104EC0007F928F929F92AF92BF92CF92DF92EF929A
:104ED000FF920F931F93CF93DF93CDB7DEB7289741
:104EE0000FB6F894DEBF0FBECDBF8091420A882373
:104EF00009F4F8C172DF8090500A9090510AA09096
:104F0000520AB090530A0091580A1091590AB801F8
:104F1000882777FD8095982F0E94D9C8A501940114
:104F20000E945DC76B017C0160932A0A70932B0A73
:104F300080932C0A90932D0A20E030E040E251E467
:104F40000E943ACA181624F481E08093210AF7C01F
:104F500020E030E040E251ECC701B6010E9437C8C2
:104F600087FD02C0012B21F481E08093210A0CC14E
:104F70008091210A882351F010923E0A10923F0A34
:104F80001092400A1092410A1092210A20911802B0
:104F90003091190240911A0250911B02C701B601CB
:104FA0000E940CCB69837A838B839C836093360A3F
:104FB0007093370A8093380A9093390A20913E0AF9
:104FC00030913F0A4091400A5091410AC701B60111
:104FD0000E945EC72B013C012090260A3090270AD0
:104FE0001091280A0091290A9101412F502F0E9407
:104FF00037C887FD14C02090220A3090230A1091F0
:10500000240A0091250A9101412F502FB201C301BA
:105010000E943ACA18161CF01201162D072DC10164
:10502000A12FB02F80933E0A90933F0AA093400A8D
:10503000B093410A2091140230911502409116025A
:1050400050911702B101812F902F0E940CCB6D83DC
:105050007E838F8398876093320A7093330A80939C
:10506000340A9093350A20913A0A30913B0A4091D4
:105070003C0A50913D0AC501B4010E945DC72091D0
:1050800010023091110240911202509113020E94BD
:105090000CCB20ED3CEC4CE45DE30E940CCB2B01EF
:1050A0003C0123E333E343E75FE360912E0A709111
:1050B0002F0A8091300A9091310A0E940CCB9B01FB
:1050C000AC01C301B2010E945EC72B013C01609399
:1050D0002E0A70932F0A8093300A9093310A2D8103
:1050E0003E814F81588569817A818B819C810E94A4
:1050F0005EC7A30192010E945DC72B013C0120E025
:1051000030E04FE753E40E943ACA20E030E0A901C2
:105110001816E4F4C701B6010E943ACA18167CF4C6
:10512000A7019601B101812F902F0E945DC7609366
:105130003E0A70933F0A8093400A9093410A412CA3
:10514000512C9FE7692E93E4792E21C0C301B2014F
:105150000E9437C887FF1BC020E030E0A901C701CB
:10516000B6010E9437C887FF0FC0A7019601B101A1
:10517000812F902F0E945DC760933E0A70933F0A73
:105180008093400A9093410A412C512C3201809225
:105190003A0A90923B0AA0923C0AB0923D0A609172
:1051A000140A7091150A882777FD8095982F0E9420
:1051B000D9C89B01AC01C501B4010E943ACA1816B6
:1051C000DCF46091080270910902882777FD8095D0
:1051D000982F0E94D9C89B01AC01C501B4010E945F
:1051E00037C887FF09C0C301B2010E94A6C87595E0
:1051F000679560931C0A02C010921C0A0E94C8C2E4
:105200000091180A1091190A20911A0A30911B0A6C
:10521000601B710B820B930B653C794081059105F6
:1052200058F031DE0E94C8C26093180A7093190AC0
:1052300080931A0A90931B0A0E94C8C200911D0A0B
:1052400010911E0A20911F0A3091200A601B710BD9
:10525000820B930B683873418105910508F442C0B5
:105260000E94C8C260931D0A70931E0A80931F0A91
:105270009093200AC0904A0AD0904B0AE0904C0AC2
:10528000F0904D0A20E030E040E751E4C701B6015C
:105290000E943ACA18161CF520E030E046E153E4BB
:1052A000C701B6010E9437C887FF19C06091560A2E
:1052B0007091570A882777FD8095982F0E94D9C84A
:1052C0009B01AC01C701B6010E943ACA87FD03C029
:1052D0001092490A07C08FE78093490A03C01092D1
:1052E000490AA59828960FB6F894DEBF0FBECDBF29
:1052F000DF91CF911F910F91FF90EF90DF90CF90B2
:10530000BF90AF909F908F907F906F905F904F90E5
:105310003F902F900895CF93DF931092260A10921A
:10532000270A1092280A1092290A2091140230911B
:105330001502409116025091170260E070E08FE76D
:1053400093E40E943EC86093220A7093230A8093DC
:10535000240A9093250A6D9A8091010180618093BF
:1053600001019D9A8091010180628093010187ED86
:1053700080937A0010927E0010927D0080917E00D2
:10538000816080937E0080917E00826080937E00A9
:1053900080917E00846080937E0080E888BD80914B
:1053A0006E00846080936E006AEF70E080E090E0B1
:1053B0000E94F7C28FE090E09093150A8093140A40
:1053C00060E080910A0290910B0237DC20E030E02F
:1053D00040E751E40E9437C887FF0AC080910A0263
:1053E00090910B02409790930B0280930A02E8CFB2
:1053F0008BE391E0909309028093080260E0809132
:10540000160A9091170A19DC20E030E84DE953E4C0
:105410000E943ACA181654F48091160A9091170AFD
:1054200040969093170A8093160AE8CFC091120A0B
:10543000D091130ACE0161DB20E030E046E153E475
:105440000E943ACA181634F46096D093130AC09397
:10545000120AECCFDF91CF91089508951092590A66
:105460001092580A1092570A1092560A10921C0A6B
:1054700075981092570A1092560A1092490AA598E8
:1054800008952F923F924F925F926F927F928F92E8
:105490009F92AF92BF92CF92DF92EF92FF920F93C3
:1054A0001F93CF93DF93CDB7DEB7AE970FB6F894C7
:1054B000DEBF0FBECDBF6B8F7C8F8D8F292E5A879D
:1054C00049873CA72BA70E94C8C26F8F78A389A3E6
:1054D0009AA30E94C8C26FA378A789A79AA7298513
:1054E0003A85121613061CF0E4EAF6E017C0E7EB63
:1054F000F6E08191882339F09091C00095FFFCCFB0
:105500008093C600F6CF8091C00085FFFCCF1BC200
:105510009091C00095FFFCCF8093C60081918111CE
:10552000F7CF8091C00085FFFCCF8AE08093C60052
:1055300095DF49855A858FE7452B99F18093490A74
:105540008F8D98A1A9A1BAA1898B9A8BAB8BBC8BAB
:105550008D879E87AF87B88B1D8290E4988FACE1D2
:10556000A98FB6E4BA8F1DA61D8A1E8A1F8A2FE74F
:1055700030E040E050E029833A834B835C83EFE7DF
:105580004E2E512C612C712C1BA21CA21DA21EA2FE
:1055900031E03E8F1C861B86312C00E010E01EA6F9
:1055A00005C080931C0ACCCF0E9445848091420A9A
:1055B000882309F4F6C011DC49855A85452B51F042
:1055C00030904A0A00914B0A10914C0A50914D0AB2
:1055D0005EA709C03090500A0091510A1091520AFA
:1055E0008091530A8EA7232D302F412F5EA56DA5E4
:1055F0007D898E899F890E943ACA18162CF03DA693
:105600000D8B1E8B9EA59F8B232D302F412F5EA5CA
:105610006D81788D898D9A8D0E9437C887FD05C070
:105620003D82088F198FAEA5AA8F0E94C8C22FA1F4
:1056300038A549A55AA5621B730B840B950B653CD5
:1056400079408105910538F01EDC0E94C8C26FA325
:1056500078A789A79AA74E8D442309F44FC02B8DB4
:105660003C8D4D8D522D632D702F812F9EA50E9454
:105670003ACA18160CF095C00E94C8C229893A8906
:105680004B895C89621B730B840B950B69387341E2
:105690008105910508F485C0D301C20129813A81B1
:1056A0004B815C81821B930BA40BB50B49855A85FA
:1056B000B595A79597958795452B19F08093490A3D
:1056C00002C080931C0A0E94C8C26D877E878F87A4
:1056D000988BDC01CB0129893A894B895C89821B33
:1056E000930BA40BB50B8BA39CA3ADA3BEA33B8DC7
:1056F0003DA74C8D4D8B5D8D5E8B2F8A2B8D3C8D08
:105700004D8D522D632D702F812F9EA50E9437C87D
:1057100087FFEEC20E94C8C22D853E854F855889FD
:10572000621B730B840B950B6938734181059105DE
:1057300008F4DEC20E94C8C2698B7A8B8B8B9C8B6B
:10574000DC01CB012D853E854F855889821B930B4B
:10575000A40BB50B4B855C85452B09F010C18981E5
:105760009A81AB81BC81840D951DA61DB71D29852D
:105770003A85B595A79597958795232B09F4B5C2DA
:105780008093490A4B855C854F5F5F4F5C874B87F1
:105790005B8D5D838C8D888F9D8D998F2A8EA1E086
:1057A000AE8F20E030E040EA51E46B8D7C8D8D8D32
:1057B000922D0E945EC79B01AC01632D702F812F3B
:1057C0009EA50E943ACA181694F4EFEFF2E0849175
:1057D000882341F09091C00095FFFCCF8093C600D4
:1057E0003196F5CF8091C00085FFFCCFACC00E9400
:1057F000C8C22F8D38A149A15AA1621B730B840B1B
:10580000950B613D77408105910508F44FC04985AE
:105810005A85452B81F0E090490AF12CE9EFF2E03E
:1058200084918823C1F09091C00095FFFCCF8093B4
:10583000C6003196F5CFE0901C0AF12CE3EFF2E0C0
:105840008491882341F09091C00095FFFCCF809314
:10585000C6003196F5CF22E030E0432D502F612F66
:105860007EA585EE9FE00E94E2A3EFEEF2E0849138
:10587000882341F09091C00095FFFCCF8093C60033
:105880003196F5CF4AE050E0B70185EE9FE00E94E7
:105890000CA38091C00085FFFCCF8AE08093C600F6
:1058A0000E94C8C26F8F78A389A39AA30E94C8C21E
:1058B0006B017C010E94C8C289889A88AB88BC8829
:1058C0002D853E854F855889820E931EA41EB51ED8
:1058D000C818D908EA08FB08C60ED71EE81EF91E2C
:1058E00031E8C3163FE4D30632E1E306F10490F059
:1058F000E2EDF2E08491882341F09091C00095FFA1
:10590000FCCF8093C6003196F5CF8091C00085FF13
:10591000FCCF19C04B855C858BA59CA5841795078A
:105920000CF042CEE6E7F2E08491882341F09091BA
:10593000C00095FFFCCF8093C6003196F5CF8091D3
:10594000C00085FFFCCF8AE08093C600AE960FB6FC
:10595000F894DEBF0FBECDBFDF91CF911F910F91A5
:10596000FF90EF90DF90CF90BF90AF909F908F907F
:105970007F906F905F904F903F902F9008958BA0F5
:105980009CA0ADA0BEA0880E991EAA1EBB1E2BA176
:105990003CA14DA15EA1281B390B4A0B5B0BCA0130
:1059A000B90129813A814B815C810E94D2CBA5014A
:1059B00094010E9437CC240D351D461D571D2431FE
:1059C00031054105510504F129013A013CEE431628
:1059D0005104610471042CF06BEE462E512C612CA5
:1059E000712C40E84416510461047104DCF08EEF20
:1059F00090E0A0E0B0E084199509A609B709898371
:105A00009A83AB83BC8312C054E1452E512C612C88
:105A1000712C24E130E040E050E029833A834B834D
:105A20005C8304C049825A826B827C82E8E6F3E0A0
:105A30008491882341F09091C00095FFFCCF809322
:105A4000C6003196F5CF2AE030E0B301A20185EE21
:105A50009FE00E94E1A2E3E6F3E08491882341F015
:105A60009091C00095FFFCCF8093C6003196F5CF92
:105A70002AE030E049815A816B817C8185EE9FE08C
:105A80000E94E1A2ECE5F3E08491882341F090913B
:105A9000C00095FFFCCF8093C6003196F5CF22E081
:105AA00030E04D81588D698D7A8D85EE9FE00E94A2
:105AB000E2A3E5E5F3E08491882341F09091C000F2
:105AC00095FFFCCF8093C6003196F5CF22E030E001
:105AD0004DA55D896E897F8985EE9FE00E94E2A3D6
