:100000000C94B14B0C94E24B0C94E24B0C94E24BED
:100010000C94E24B0C94A6840C94E24B0C94E24BAF
:100020000C9427840C94E24B0C94E24B0C94C2E5A4
:100030000C94E24B0D940DD70C94E24B0C94E24BD4
:100040000C94E24B0D94A8390C94E24B0C94E24BC7
:100050000C94E24B0C94E24B0D9410500D9434CF61
:100060000C94E24B0C941D5C0C94E24B0C94E24B10
:100070000C94E24B0C94E24B0C94E24B0C94E24B4C
:100080000C94E24B0C94E24B0C94E24B0C94E24B3C
:100090000C94E24B0C94E24B0C94E24B0C94E24B2C
:1000A0000C94E24B0C94E24B0C94E24B0C94E24B1C
:1000B0000C94E24B0C94E24B0C94E24B0C94E24B0C
:1000C0000C94E24B0C94E24B0C94E24B0C945D5C70
:1000D0000C94E24B0C94E24B0C94E24B0C94E24BEC
:1000E0000C94E24B205B245B295B315B465B5F5BDE
:1000F000845BAE5B4901BB01D901E501E701510118
:10010000ED0139010302970159018301D701B701BC
:100110005501C5016901DF01F7017701BF013B010D
:10012000B901C701430147010702F901E901B30120
:10013000DB014D01DD01D301AD017F0181019101A1
:100140005D015D015D010102010201026B0193018C
:100150000102E101E30173016F010902FB01750175
:100160008B01F301B1016301FF01C301CD014F0117
:100170007501EB01D101A301D5015B010F02F10172
:100180009F01BD01CB01A9014B01650179018901E5
:1001900011026101BD016D0185018701084AD73B4C
:1001A0003BCE016E84BCBFFDC12F3D6C74319ABD46
:1001B00056833DDA3D00C77F11BED9E4BB4C3E916A
:1001C0006BAAAABE000000803F05A84CCDB2D44E59
:1001D000B93836A9020C50B9918688083CA6AAAA5B
:1001E0002ABE000000803F07634236B79BD8A71A9B
:1001F00039685618AEBAAB558C1D3CB7CC5763BDA9
:100200006DEDFD753EF6177231BF000000803F08AE
:10021000000000BE922449123EABAAAA2ABECDCC51
:10022000CC4C3E00000080BEABAAAAAA3E00000053
:1002300000BF000000803F0000000000084178D3AC
:10024000BB4387D1133D190E3CC3BD4282AD2B3E4B
:1002500068EC8276BED98FE1A93E4C80EFFFBE01EB
:10026000C4FF7F3F0000000000000D94A7620D94C2
:1002700088800D9413510D9499870D9408780D94EE
:10028000615D0D942D8E0D94C99D0D94FFD10D943B
:10029000E19D0D9495500D943FD10D941A9F0D94AE
:1002A000E4D00D94F5500D9484600D9471510D942B
:1002B00097BF0D941B510D9431D10D94C69F0D9491
:1002C00026AC0D9455D10D94B7D00D9443D10D9417
:1002D000F58A0D941A870D94CE9F0D945BD10D94E1
:1002E0007FD00D948F830D947AD00D940CD10D9402
:1002F00085870D9447D10D94656F0D94DF5E0D9445
:100300008D9F0D94B69F0D9429510D945FD10D943E
:1003100063D10D944DD10D949DD00D946FBC0D946F
:10032000FDB20D94BE9F0D94FC9F0D9487860D9495
:1003300019510D9498830D9454840D94C1720D94A9
:100340002AD10D944A730D9402D10D9496C40D9444
:1003500020640D9439D10D9446670D946A9F0D94D5
:100360004E760D94ADD00D94359E0D9415B40D942C
:1003700051510D94B3870D94A3500D9468D10D94F1
:100380008F870D9480850D94CBD00D9400870D94AC
:10039000CD870D94C8930D9435D10D94DAD00D947A
:1003A0008A3C0D94F8D00D944D9F0D942ED10D9450
:1003B00043510D94BF500D94529E0D943C9F0D944B
:1003C00037870D94D89F0D9475D00D94CD500D9412
:1003D000E7500D94219E0D94EED00D940F510D9485
:1003E000AA830D9424D10D94A5D00D949D160D943F
:1003F00056870D940D9E0D9493D00D9423820D94E9
:10040000C1D00D94EC9F0D9415510D94A1830D94C2
:10041000F89D0D9489D00D941C610D9422610D946A
:1004200020D10D9451D10D940D610D94CEB748613A
:100430007264636F6465642044656661756C7420E2
:1004400053657474696E6773204C6F6164656400F2
:1004500053746F7265642073657474696E6773207A
:1004600072657472696576656400202020452F44AA
:10047000203D20002020204D393030204B004C6999
:100480006E65617220616476616E63652073657468
:1004900074696E67733A0046696C616D656E7420AD
:1004A00073657474696E67733A2044697361626C32
:1004B0006564002020204D32303020440046696CB5
:1004C000616D656E742073657474696E67733A004C
:1004D0002020204D3230392053004175746F2D5249
:1004E0006574726163743A20533D3020746F2064E8
:1004F000697361626C652C203120746F20696E74A1
:1005000065727072657420657874727564652D6F9C
:100510006E6C79206D6F76657320617320726574DF
:100520007261637473206F72207265636F76657297
:10053000696573002046002020204D32303820535A
:10054000005265636F7665723A20533D4578747248
:1005500061206C656E67746820286D6D2920463AAD
:10056000537065656420286D6D2F6D2900205A0039
:100570002046002020204D32303720530052657431
:10058000726163743A20533D4C656E67746820282D
:100590006D6D2920463A537065656420286D6D2F76
:1005A0006D29205A3A205A4C69667420286D6D29AD
:1005B000002044002049002020204D3330342050BA
:1005C00000504944206865617462656420736574F5
:1005D00074696E67733A002044002049002020208F
:1005E0004D33303120500050494420736574746994
:1005F0006E67733A00205A0020590020204D323097
:1006000036205800486F6D65206F666673657420EC
:10061000286D6D293A00204500205A0020590020FD
:10062000580020420020540020204D323035205305
:1006300000416476616E636564207661726961620F
:100640006C65733A20533D4D696E20666565647232
:1006500061746520286D6D2F73292C20543D4D69E0
:100660006E2074726176656C206665656472617473
:100670006520286D6D2F73292C20423D6D696E69B0
:100680006D756D207365676D656E742074696D6539
:1006900020286D73292C20583D6D6178696D756D2A
:1006A000205859206A65726B20286D6D2F73292C94
:1006B00020205A3D6D6178696D756D205A206A65FC
:1006C000726B20286D6D2F73292C2020453D6D61A4
:1006D00078696D756D2045206A65726B20286D6D97
:1006E0002F73290020540020204D32303420530035
:1006F000416363656C65726174696F6E3A20533D46
:10070000616363656C65726174696F6E2C20543D22
:100710007265747261637420616363656C65726194
:1007200074696F6E00204500205A00205900202077
:100730004D3230312058004D6178696D756D204122
:100740006363656C65726174696F6E20286D6D2FCF
:100750007332293A00204500205A002059002020F9
:100760004D3230332058004D6178696D756D2066CB
:10077000656564726174657320286D6D2F73293A05
:1007800000204500205A0020590020204D393220F9
:10079000580053746570732070657220756E6974AB
:1007A0003A0053657474696E67732053746F726591
:1007B0006400454550524F4D204572726F720000E3
:1007C00020006D65736820626564206C6576656CD9
:1007D000696E673A200029002C20002C20007068E8
:1007E00079736963616C20636F6F7264696E6174A1
:1007F00065733A20280029002C20002C2000776FF8
:10080000726C6420636F6F7264696E617465733AB1
:100810002028002046002045004731205A004D3254
:1008200034004D32362053256C75004D3130362062
:10083000530047312046256400473120453120468A
:10084000343830004731205A0020463230303000F2
:1008500020590047312058004D383300506F7369DC
:1008600074696F6E20726561642066726F6D2065B9
:100870006570726F6D3A004D3233202573002E671C
:10088000636F0046656564726174653A0072656302
:100890006F7665725F6D616368696E655F737461C1
:1008A00074655F61667465725F706F7765725F70A3
:1008B000616E69632C20696E697469616C200072D5
:1008C00065636F7665725F6D616368696E655F739E
:1008D000746174655F61667465725F706F7765726D
:1008E0005F70616E69632C20696E697469616C2048
:1008F000007265636F7665725F6D616368696E65CE
:100900005F73746174655F61667465725F706F7741
:1009100065725F70616E69632C20696E69746961CC
:100920006C200063757272656E745F706F736974AA
:10093000696F6E5B5A5F415849535D3A0043757267
:1009400072656E7420706F736974696F6E20595F81
:10095000415849533A0043757272656E7420706F46
:10096000736974696F6E20585F415849533A00416A
:10097000667465722077616974696E6720666F724C
:100980002074656D703A00473120452D3120463482
:1009900038300047312045352046313230004D385F
:1009A00033004D31393020532564004D313039202A
:1009B0005325640047323820582059004731205AC7
:1009C00032352046383030004D31343020532564E4
:1009D000004D3130342053256400494E54340055C5
:1009E000564C4F202D20656E640073747073005553
:1009F000564C4F0020423A0020453A00543A005AE3
:100A0000206C6976652061646A757374206F7574F3
:100A1000206F662072616E67652E2053657474695D
:100A20006E6720746F20302E20436C69636B2074D6
:100A30006F20636F6E74696E75652E005A206C6945
:100A400076652061646A757374206F7574206F66B3
:100A50002072616E67652E2053657474696E67201D
:100A6000746F20300020573A0020453A00543A0075
:100A70004B494C4C3A20004175746F0020452F447F
:100A80003D00416476616E6365204B3D0022283253
:100A900029005400496E76616C6964205420636FAC
:100AA00064652E00496E76616C6964204D20636F29
:100AB00064652E004D3232302053256900203A20E3
:100AC00000004C414E472053454C20464F52434571
:100AD0004400222831290020453A00205A3A0020BB
:100AE000593A0020453A00205A3A0020593A005815
:100AF0003A004D31313320530020002E0020423A7D
:100B00000020453A00543A0020413A0020503A0073
:100B10002042403A0020403A00202F003A00205462
:100B200000202F0020423A00202F006F6B20543A03
:100B3000002569206D696E2C20256920736563008E
:100B4000496E76616C6964204D20636F6465004D69
:100B500065736820626564206C6576656C696E6794
:100B6000206E6F74206163746976652E000A002020
:100B700020000A4D6561737572656420706F696E3F
:100B800074733A000A5A207365617263682068655D
:100B9000696768743A20002C004E756D20582C59F6
:100BA0003A2000476F20686F6D652066696E697333
:100BB000686564004D65736820626564206C6576C5
:100BC000656C696E67206163746976617465640041
:100BD000557073616D706C652066696E69736865C8
:100BE0006400426564206C6576656C696E6720639D
:100BF0006F7272656374696F6E2066696E6973687F
:100C0000656400206D6963726F6E7300457863657B
:100C1000737369766520626564206C6576656C69BE
:100C20006E6720636F7272656374696F6E3A20003D
:100C30006261627973746570206170706C6965645B
:100C400000636C65616E2075702066696E697368FB
:100C50006564200000206F66667365743A20006D3D
:100C600065736820626564206C6576656C696E6783
:100C70003A2000473238205730003A200054656D42
:100C800070657261747572652063616C696272610E
:100C900074696F6E20646F6E652E20436F6E746989
:100CA0006E75652077697468207072657373696EFC
:100CB0006720746865206B6E6F622E0000205A20DA
:100CC000736869667420286D6D293A0050494E4456
:100CD000412074656D70657261747572653A2000AB
:100CE000002F3600537465703A200000205A20739C
:100CF0006869667420286D6D293A0050494E444158
:100D00002074656D70657261747572653A20002F8C
:100D1000362028736B6970706564290053746570A0
:100D20003A2000005A45524F3A2000007374617215
:100D3000742074656D70657261747572653A200017
:100D400050494E44412070726F62652063616C6946
:100D500062726174696F6E207374617274004732DD
:100D600038205730000A00205A3A200020593A20F3
:100D70000020583A20004732382C2066696E616C9A
:100D800020004732382C2066696E616C20004732A3
:100D9000382C2066696E616C20004732382C20693F
:100DA0006E697469616C20004732382C20696E6965
:100DB0007469616C200043524153485F4445544577
:100DC00043544544004D323900627573793A2070BE
:100DD000617573656420666F7220696E707574004A
:100DE000627573793A2070617573656420666F72FD
:100DF000207573657200627573793A2070726F6343
:100E0000657373696E67002055706C6F616420694B
:100E10006E2070726F677265737300696E697469B2
:100E2000616C207A737465707320616674657220DA
:100E300072657365743A2000696E697469616C202B
:100E40007A7374657073206F6E20706F776572208F
:100E500075703A2000466163746F72792052455371
:100E60004554004E6F762032362032303137004301
:100E70006F6D70696C65643A2000286E6F6E652C2A
:100E80002064656661756C7420636F6E666967299E
:100E9000004E6F7620323620323031372031393AE9
:100EA00030393A3339007374617274001B5B324A13
:100EB0001B5B313B31484F726967696E616C205032
:100EC000727573612069331B5B323B334850727516
:100ED000736120526573656172636800250020208C
:100EE0002020202000202020202020004552415397
:100EF000494E4720616C6C206461746100466163F7
:100F0000746F7279205245534554004352415348FF
:100F10005F5245434F5645520047323820590047EB
:100F20003238205800FFFFFF0000A0400000A04022
:100F30000000004000007F43000056439AD951430F
:100F400000000000000080C09A99193E00007F4315
:100F5000000052430000524300000000000080C027
:100F60009A99193E6563686F3A004572726F723ADA
:100F70000000002110422063308440A550C660E785
:100F800070088129914AA16BB18CC1ADD1CEE1EF3E
:100F9000F13112100273325222B5529442F772D6D6
:100FA00062399318837BB35AA3BDD39CC3FFF3DE8E
:100FB000E36224433420040114E664C774A4448526
:100FC000546AA54BB528850995EEE5CFF5ACC58DDE
:100FD000D55336722611163006D776F6669556B476
:100FE000465BB77AA719973887DFF7FEE79DD7BC2E
:100FF000C7C448E5588668A77840086118022823C6
:1010000038CCC9EDD98EE9AFF9488969990AA92B7D
:10101000B9F55AD44AB77A966A711A500A333A1215
:101020002AFDDBDCCBBFFB9EEB799B588B3BBB1ACD
:10103000ABA66C877CE44CC55C222C033C600C4165
:101040001CAEED8FFDECCDCDDD2AAD0BBD688D491D
:101050009D977EB66ED55EF44E133E322E511E70B5
:101060000E9FFFBEEFDDDFFCCF1BBF3AAF599F786D
:101070008F8891A981CAB1EBA10CD12DC14EF16F1E
:10108000E18010A100C230E3200450254046706783
:1010900060B9839893FBA3DAB33DC31CD37FE35EAF
:1010A000F3B1029012F322D23235421452776256D3
:1010B00072EAB5CBA5A89589856EF54FE52CD50DBF
:1010C000C5E234C324A01481046674476424540523
:1010D00044DBA7FAB79987B8975FE77EF71DC73C4F
:1010E000D7D326F2369106B0165766767615463473
:1010F000564CD96DC90EF92FE9C899E9898AB9AB5F
:10110000A94458654806782768C018E1088238A3C2
:10111000287DCB5CDB3FEB1EFBF98BD89BBBAB9AEE
:10112000BB754A545A376A167AF10AD01AB32A9212
:101130003A2EFD0FED6CDD4DCDAABD8BADE89DC9FE
:101140008D267C076C645C454CA23C832CE01CC162
:101150000C1FEF3EFF5DCF7CDF9BAFBABFD98FF88E
:101160009F176E367E554E745E932EB23ED10EF0B2
:101170001E7C3C3E5E2B3D3F2F5B5D3B2C2A225C60
:10118000004D383420582059205A2045004D323423
:10119000004D3233202573006175746F25692E6709
:1011A000000A002F000A002E0044656C6574696F08
:1011B0006E206661696C65642C2046696C653A2016
:1011C0000046696C652064656C657465643A002E40
:1011D000002E002E002E004E6F7720667265736819
:1011E0002066696C653A20004E6F7720646F696EE7
:1011F000672066696C653A20002220706F730022B8
:1012000020706172656E743A2200535542524F55F8
:1012100054494E452043414C4C20746172676574BB
:101220003A2200747279696E6720746F2063616C72
:101230006C207375622D67636F64652066696C65E9
:1012400073207769746820746F6F206D616E7920E8
:101250006C6576656C732E204D4158206C65766503
:101260006C2069733A00256920686F7572732025B8
:1012700069206D696E757465730054494D454F550D
:10128000543A004D3131300046756C6C2052582074
:101290004275666665720022206661696C65643A13
:1012A000204275666665722066756C6C2100456E1D
:1012B000717565696E6720746F2074686520667249
:1012C0006F6E743A2022002200456E717565696E5A
:1012D0006720746F207468652066726F6E743A20A0
:1012E000220022206661696C65643A204275666658
:1012F00065722066756C6C210022004D363030001E
:101300005072757361206933204D4B3320626572D2
:101310006569742E005072757361206933204D4BDE
:101320003320707265702E005072757361206933BE
:10133000204D4B332070726F6E74612E00507275A9
:101340007361206933204D4B33206F6B00507275F1
:101350007361206933204D4B332072656164792EAF
:10136000007A5F6D696E3A20007A5F6D61783A208D
:10137000005A204F666673657400795F6D696E3A36
:101380002000795F6D61783A20005920456E7466BF
:1013900065726E756E6720766F6D206D696E0044A4
:1013A000697374616E7A612059206461206D696E81
:1013B0003A005920767A64616C656E6F7374206FA1
:1013C00064206D696E3A00592064697374616E63BC
:1013D000652066726F6D206D696E3A004A61005338
:1013E0006900536900416E6F0059657300785F6D45
:1013F000696E3A2000785F6D61783A200058595A3A
:10140000204B616C2E2044657461696C73005859DF
:101410005A2043616C2E206465747461676C6900A6
:1014200044657461696C792058595A206B616C2E3F
:101430000058595A2063616C2E2064657461696C90
:101440007300496368207765726465206A65747A01
:101450007420646965205A204B616C696272696509
:1014600072756E672064757263686675656872650B
:101470006E2E00566F79206120686163657220438B
:10148000616C6962726163696F6E205A2061686F76
:1014900072612E0041646573736F206176766965B1
:1014A000726F20756E612043616C696272617A6946
:1014B0006F6E65205A2E004E796E692070726F76BD
:1014C000656475207A206B616C6962726163692E54
:1014D00000492077696C6C2072756E207A206361F8
:1014E0006C6962726174696F6E206E6F772E00494D
:1014F0006368207765726465206A65747A74206415
:1015000069652058595A2D4B616C69627269657220
:10151000756E672064757263686675656872656E5E
:101520002E20457320776972642063612E2031324A
:10153000204D696E7574656E2064617565726E000C
:1015400048617265206C612063616C6962726163DD
:10155000696F6E2058595A2E20546172646172610D
:10156000203132206D696E2E206170726F78696D46
:101570006164616D656E74652E0041646573736F9F
:10158000206176766965726F20756E612043616CAB
:10159000696272617A696F6E652058595A2E2050BF
:1015A000756F206475726172652063697263612072
:1015B0003132206D696E2E004E796E692070726F27
:1015C000766564752078797A206B616C69627261E6
:1015D00063692E205A616265726520746F20707293
:1015E00069626C697A6E65203132206D696E2E00F9
:1015F000492077696C6C2072756E2078797A206347
:10160000616C6962726174696F6E206E6F772E20F3
:1016100049742077696C6C2074616B65206170700F
:10162000726F782E203132206D696E732E004A65FC
:10163000747A7420776572646520696368206469D0
:1016400065204475657365206675657220504C4150
:1016500020766F726865697A656E2E2000566F7904
:1016600020612070726563616C656E7461722065C3
:101670006C206E6F7A7A6C65207061726120504CBC
:10168000412061686F72612E0041646573736F2041
:1016900070726572697363616C6465726F206C2728
:1016A0007567656C6C6F2070657220504C412E0020
:1016B0004E796E692070726564656872656A69202A
:1016C000747279736B752070726F20504C412E00CC
:1016D0004E6F7720492077696C6C20707265686561
:1016E0006174206E6F7A7A6C6520666F7220504C40
:1016F000412E0048616C6C6F2C2069636820626920
:101700006E206465696E204F726967696E616C2036
:10171000507275736120693320447275636B657212
:101720002E204D6F65636874656E20536965206D6A
:1017300065696E652048696C6665206475726368CA
:101740002064656E2053657475702D50726F7A65D4
:1017500073733F00486F6C612C20736F7920747530
:1017600020696D707265736F7261204F726967696D
:101770006E616C2050727573612069332E20517533
:101780006965726573207175652074652067756978
:1017900065206120747261766573206465206C61D8
:1017A00020636F6E66696775726163696F6E3F0073
:1017B0004369616F2C20736F6E6F206C61207475AC
:1017C00061207374616D70616E7465204F7269671A
:1017D000696E616C2050727573612069332E2047E9
:1017E00072616469726573746920616975746F20D0
:1017F0006174747261766572736F20696C207072A7
:101800006F636573736F20646920636F6E666967C9
:101810007572617A696F6E653F00446F62727920FC
:1018200064656E2C206A73656D2076617365207423
:1018300069736B61726E61204F726967696E616C6A
:101840002050727573612069332E2043686365747C
:1018500065206162796368205661732070726F76CB
:1018600065646C61206B616C69627261636E696D45
:101870002070726F636573656D3F0048692C204965
:1018800020616D20796F7572204F726967696E6192
:101890006C205072757361206933207072696E74A8
:1018A00065722E20576F756C6420796F75206C6996
:1018B0006B65206D6520746F20677569646520799C
:1018C0006F75207468726F7567682074686520731F
:1018D000657475702070726F636573733F00496340
:1018E00068207765726465206A65747A7420657211
:1018F000737465204C696E696520647275636B65ED
:101900006E2E205761656872656E64206465732071
:10191000447275636B6573206B6F656E6E656E20C8
:101920005369652064696520447565736520616C41
:101930006C6D6165686C6963682073656E6B656E5C
:1019400020696E64656D205369652064656E204B67
:101950006E6F70662064726568656E2C20626973B4
:101960002053696520646965206F7074696D616CCE
:101970006520486F65686520657272656963686592
:101980006E2E2055656265727072756566656E2093
:10199000536965206469652042696C6465722069D9
:1019A0006E20756E736572656D2048616E64627538
:1019B000636820696D204B61706974656C204B61B0
:1019C0006C696272696572756E6700566F79206125
:1019D00020636F6D656E7A6172206120696D70722F
:1019E000696D6972206C61206C696E656120792077
:1019F00074752062616A6172617320656C206E6F1C
:101A00007A7A6C65206772616475616C6D656E745D
:101A10006520616C20726F74617220656C206D614D
:101A20006E646F2C20686173746120717565206C21
:101A30006C65677565732061206C6120616C7475DD
:101A40007261206F7074696D612E204D6972612022
:101A50006C617320696D6167656E65732064656C88
:101A6000206361706974756C6F2043616C69627288
:101A70006163696F6E20656E20656C206D616E75A7
:101A8000616C2E0041646573736F20696E697A69B9
:101A900065726F2061207374616D7061726520756D
:101AA0006E61206C696E6561206520747520646FBD
:101AB0007672616920616262617373617265206C24
:101AC000277567656C6C6F20706F636F207065722F
:101AD00020766F6C74612072756F74616E646F2014
:101AE0006C61206D616E6F706F6C612073696E6FD9
:101AF0002061207261676769756E67657265207520
:101B00006E6120616C74657A7A61206F7474696D9E
:101B1000616C652E20506572206661766F7265205B
:101B200064616920756E6F207367756172646F20E0
:101B3000616C6C27696D6D6167696E652064656CA9
:101B4000206E6F7374726F206D616E75616C652CA1
:101B5000206361702E43616C696272617A696F6E95
:101B6000652E005A61636E75207469736B6E6F75B4
:101B700074206C696E6B75206120567920627564E3
:101B800065746520706F737475706E6520736E690F
:101B90007A6F76617420747279736B75206F7461DB
:101BA00063656E696D20746C616369746B61206438
:101BB0006F6B7564206E65646F7361686E657465C4
:101BC000206F7074696D616C6E69207679736B79C2
:101BD0002E2050726F686C65646E65746520736941
:101BE000206F6272617A6B792076206E6173692052
:101BF00070726972756363652076206B61706974B9
:101C00006F6C65204B616C6962726163650049208D
:101C100077696C6C20737461727420746F207072B9
:101C2000696E74206C696E6520616E6420796F75D1
:101C30002077696C6C206772616475616C6C7920C7
:101C40006C6F77657220746865206E6F7A7A6C6548
:101C500020627920726F746174696E6720746865A0
:101C6000206B6E6F622C20756E74696C20796F75B5
:101C7000207265616368206F7074696D616C2068A3
:101C800065696768742E20436865636B20746865B6
:101C900020706963747572657320696E206F757248
:101CA0002068616E64626F6F6B20696E206368618B
:101CB000707465722043616C6962726174696F6EE1
:101CC0002E004A65747A74207765726465206963B2
:101CD000682064656E2041627374616E64207A7757
:101CE00069736368656E2044756573656E737069AA
:101CF000747A6520756E6420447275636B626574D6
:101D000074206B616C696272696572656E2E005633
:101D10006F7920612063616C6962726172206C610D
:101D20002064697374616E63696120656E747265A5
:101D3000206C612070756E74612064656C206E6F1C
:101D40007A7A6C652079206C612073757065726693
:101D500069636965206465206C61206865617462EF
:101D600065642E0041646573736F207461726572DF
:101D70006F206C6F2073746163636F2066726120E3
:101D80007567656C6C6F2065207375706572666928
:101D900063652064656C2070696174746F2E004EF9
:101DA000796E69207A6B616C696272756A692076F6
:101DB0007A64616C656E6F7374206D657A69206BEF
:101DC0006F6E63656D20747279736B79206120701A
:101DD0006F76726368656D206865617462656475AD
:101DE0002E004E6F7720492077696C6C2063616C00
:101DF0006962726174652064697374616E636520E1
:101E00006265747765656E20746970206F662074F2
:101E10006865206E6F7A7A6C6520616E64206865F3
:101E2000617462656420737572666163652E005A21
:101E3000756E616563687374206675656872652088
:101E40006963682064656E2053656C6273747465A1
:101E5000737420647572636820756D2064696520F1
:101E6000686165756669677374656E2050726F622C
:101E70006C656D65206265692064657220417566D8
:101E8000626175207A75207565626572707275651C
:101E900066656E2E005072696D65726F2C206861E8
:101EA000726520656C2053656C6674657374207070
:101EB00061726120636F6D70726F626172206C6F0E
:101EC000732070726F626C656D6173206465206D44
:101ED0006F6E74616A65206D617320636F6D756EDE
:101EE00065732E00416E7A69747574746F20617623
:101EF000766965726F20696C2053656C6620546545
:101F000073742070657220636F6E74726F6C6C6195
:101F1000726520676C69206572726F7269206469EE
:101F200020617373656D626C616767696F207069AA
:101F30007520636F6D756E692E004E656A647269F7
:101F40007620706F6D6F63692073656C667465735E
:101F50007475207A6B6F6E746F6C756A69206E652C
:101F60006A63617374656A73692063687962792052
:101F7000767A6E696B616A69636920707269207331
:101F80006573746176656E69207469736B61726ED6
:101F9000792E0046697273742C20492077696C6C25
:101FA0002072756E207468652073656C6674657345
:101FB0007420746F20636865636B206D6F73742089
:101FC000636F6D6D6F6E20617373656D626C7920E8
:101FD00070726F626C656D732E00446572206C6167
:101FE0007566656E646520417373697374656E749C
:101FF000206C6F65736368742064696520616B741D
:1020000075656C6C65204B616C696272696572659F
:10201000726765626E6973736520756E6420776997
:10202000726420766F6E20416E66616E6720616E0D
:1020300020626567696E6E656E2E20466F727473DE
:1020400065747A656E3F00456A65637574617220D8
:10205000656C2057697A61726420626F7272617276
:1020600061206C6F732076616C6F7265732064659C
:102070002063616C6962726163696F6E2061637471
:1020800075616C6573207920636F6D656E7A61721E
:1020900061206465206E7565766F2E20436F6E74C7
:1020A000696E7561723F00536520617676692069BB
:1020B0006C2057697A617264207065726465726120
:1020C00069206C612063616C696272617A696F6E0C
:1020D00065207072656573697374656E74652065DB
:1020E00020646F76726169207269636F6D696E63D7
:1020F000696172652064616C6C27696E697A696FC9
:102100002E20436F6E74696E756172653F00537067
:10211000757374656E692057697A6172646120769F
:10212000796D617A6520756C6F7A656E6520767958
:10213000736C65646B79207673656368206B616C82
:1021400069627261636920612073707573746920BC
:102150006B616C69627261636E692070726F636536
:1021600073206F64207A616361746B752E20506FE9
:102170006B7261636F7661743F0052756E6E696E4B
:10218000672057697A6172642077696C6C20646596
:102190006C6574652063757272656E742063616C22
:1021A0006962726174696F6E20726573756C7473A5
:1021B00020616E642073746172742066726F6D208A
:1021C00074686520626567696E6E696E672E20436C
:1021D0006F6E74696E75653F004D6F6563687465F9
:1021E0006E205369652064656E206C65747A746531
:1021F0006E205363687269747420776965646572D0
:10220000686F6C656E20756D2064656E2041627329
:1022100074616E64207A7769736368656E204475B3
:1022200065736520756E6420447275636B626574B6
:1022300074206E65752065696E7A757374656C6C53
:10224000656E3F00517569657265732072657065D2
:1022500074697220656C20756C74696D6F20706193
:10226000736F2070617261207265616A7573746149
:1022700072206C612064697374616E636961206EA1
:102280006F7A7A6C652D686561746265643F00449D
:1022900065736964657269207269706574657265D9
:1022A000206C27756C74696D6F2070617373616742
:1022B00067696F20706572206D69676C696F726104
:1022C0007265206C612064697374616E7A61206646
:1022D0007261207567656C6C6F2065207069617430
:1022E000746F3F00436863657465206F70616B6F46
:1022F00076617420706F736C65646E69206B726FA9
:102300006B206120706F7A6D656E697420767A64D7
:10231000616C656E6F7374206D657A692074727973
:10232000736B6F75206120686561746265643F003E
:10233000446F20796F752077616E7420746F2072FE
:102340006570656174206C617374207374657020AE
:10235000746F20726561646A757374206469737444
:10236000616E6365206265747765656E206E6F7A55
:102370007A6C6520616E6420686561746265643F93
:1023800000536965206B6F656E6E656E20696D6DBB
:1023900065722064656E204173697374656E74653F
:1023A0006E20696D204D656E75206E6575206175B6
:1023B00066727566656E3A204B616C69627269651A
:1023C00072756E67202D3E20417373697374616E60
:1023D00074005369656D707265207075656465730E
:1023E000206163636564657220616C206173697349
:1023F00074656E74652064657364652043616C69FF
:1024000062726163696F6E202D3E2057697A617236
:1024100064004520706F73736962696C6520707227
:102420006F73656775697265206C61206775696493
:10243000652057697A61726420696E207175616CDC
:102440007369617369206D6F6D656E746F2061745F
:10245000747261766572736F2043616C6962726138
:102460007A696F6E65202D3E2057697A6172642EFD
:102470000057697A61726461206D757A65746520B0
:102480006B64796B6F6C6976207A6E6F76752073EA
:10249000707573746974207A206D656E7520436160
:1024A0006C6962726174696F6E202D3E2057697A83
:1024B00061726400596F752063616E20616C776191
:1024C000797320726573756D65207468652057692E
:1024D0007A6172642066726F6D2043616C6962720A
:1024E0006174696F6E202D3E2057697A6172642E87
:1024F00000497374206573207769726B6C69636837
:1025000020504C412046696C616D656E743F0045FA
:102510007320656C2066696C616D656E746F205008
:102520004C413F00452071756573746F20756E20B6
:1025300066696C616D656E746F20646920504C41F2
:102540003F004A6520746F20504C412066696C61E1
:102550006D656E743F00497320697420504C4120B2
:1025600066696C616D656E743F004675656872657D
:102570006E2053696520626974746520504C412057
:1025800046696C616D656E7420696E2064656E20AD
:10259000457874727564657220756E642062657327
:1025A000746165746967656E205369652064656E42
:1025B000204B6E6F706620756D206573207A7520D4
:1025C0006C6164656E2E00496E73657274612C20B7
:1025D000706F72206661766F722C2066696C616D17
:1025E000656E746F20504C4120656E20656C2065CF
:1025F00078747275736F722E20446573707565738D
:102600002068617A20636C69632070617261206365
:1026100061726761726C6F2E005065722066617620
:102620006F726520696E7365726973636920696C86
:102630002066696C616D656E746F20646920504C12
:1026400041206E656C6C276573747275736F72656B
:102650002C20706F69207072656D69206C61206D2F
:10266000616E6F706F6C612070657220636172695A
:10267000636172652E0050726F73696D20766C6FA6
:102680007A746520504C412066696C616D656E748A
:1026900020646F206578747275646572752C207083
:1026A0006F20746520737469736B6E657465207434
:1026B0006C616369746B6F2070726F207A617665EC
:1026C00064656E692066696C616D656E74752E0057
:1026D000506C6561736520696E7365727420504C2F
:1026E000412066696C616D656E7420746F2074683A
:1026F000652065787472756465722C207468656EE7
:10270000207072657373206B6E6F6220746F206C23
:102710006F61642069742E004269747465206C6175
:1027200064656E2053696520504C412D46696C618B
:102730006D656E7420756E642066616872656E20CA
:10274000536965206D69742064656D2041737369F8
:102750007374656E74656E20666F72742C20696E7A
:1027600064656D205369652064656E2044727563ED
:102770006B6572206E6575207374617274656E2E60
:102780000043617267612066696C616D656E746F8C
:1027900020504C412C20706F72206661766F722C35
:1027A0002079207265696E69636961206C612069B6
:1027B0006D707265736F7261207061726120636FFA
:1027C0006E74696E75617220636F6E20656C205740
:1027D000697A61726400506572206661766F726515
:1027E000206361726963612066696C616D656E74F6
:1027F0006F20646920504C412065207269707265B9
:102800006E646920696C2057697A61726420646F14
:10281000706F206176657220726961767669617485
:102820006F206C61207374616D70616E74652E0031
:1028300050726F73696D207A61766564746520509B
:102840004C412066696C616D656E74206120706F0B
:10285000207465206F626E6F7674652057697A61A7
:1028600072646120737469736B6E7574696D207224
:102870006573657420746C616369746B612E0050BC
:102880006C65617365206C6F616420504C412066FB
:10289000696C616D656E7420616E64207468656E2C
:1028A00020726573756D652057697A617264206264
:1028B00079207265626F6F74696E67207468652035
:1028C0007072696E7465722E00566F726865697AEF
:1028D000656E206465722044756573652E204269BB
:1028E0007474652077617274656E2E005072656332
:1028F000616C656E74616E646F206E6F7A7A6C6560
:102900002E2045737065726120706F72206661764B
:102910006F722E0053746F207072657269736361F9
:102920006C64616E646F206C277567656C6C6F2ECC
:1029300020506572206661766F72652061747465DF
:102940006E64692E00507265646568726976616DA7
:1029500020747279736B752E2050726F73696D20BD
:1029600063656B656A74652E005072656865617495
:10297000696E67206E6F7A7A6C652E20506C656187
:10298000736520776169742E0049737420646173E4
:102990002046696C616D656E742067656C61646565
:1029A0006E3F004573746120656C2066696C616DD3
:1029B000656E746F206361726761646F3F00496C7C
:1029C0002066696C616D656E746F2065207374613B
:1029D000746F20636172696361746F3F004A6520A0
:1029E00066696C616D656E74207A61766564656E8A
:1029F0003F0049732066696C616D656E74206C6F71
:102A0000616465643F00416C6C6573207775726426
:102A10006520676574616E2E205669656C20537061
:102A2000617373206265696D20447275636B656EB6
:102A300021005465726D696E61646F212046656C7A
:102A4000697A20696D70726573696F6E21004265E5
:102A50006E20666174746F2E2042756F6E612073F4
:102A600074616D70612100567365206A6520686F1E
:102A7000746F766F2E00416C6C20697320646F6EEA
:102A8000652E204861707079207072696E74696E6D
:102A90006721004269747465207265696E696765B3
:102AA0006E2053696520646173204865697A6265A8
:102AB000747420756E642064727565636B656E2036
:102AC0005369652064616E6E2064656E204B6E6F85
:102AD00070662E004C696D706961206C61207375A1
:102AE0007065726669636965206465206C61206841
:102AF0006561746265642C20706F72206661766F08
:102B0000722C20792068617A20636C6963005065BB
:102B100072206661766F72652070756C6973636987
:102B200020696C2070696174746F2C20706F69204B
:102B30007072656D69206C61206D616E6F706F6C75
:102B4000612E0050726F73696D206F6369737465D5
:102B500074652068656174626564206120737469BE
:102B6000736B6E65746520746C616369746B6F2E32
:102B700000506C6561736520636C65616E206865EB
:102B8000617462656420616E64207468656E207093
:102B90007265737320746865206B6E6F622E0042DD
:102BA00069747465207565626572707275656665B5
:102BB0006E2053696520756E7365722048616E647E
:102BC0006275636820756E64206265686562656E13
:102BD00020536965206461732050726F626C656D6B
:102BE0002E2046616872656E205369652064616EAF
:102BF0006E206D69742064656D2041737369737410
:102C0000656E74656E20666F72742C20696E6465E3
:102C10006D205369652064656E20447275636B6531
:102C200072206E6575207374617274656E2E004C2F
:102C3000656520656C206D616E75616C2079207210
:102C4000657375656C766520656C2070726F626C5B
:102C5000656D612E20446573707565732C207265F7
:102C6000696E69636961206C6120696D707265735A
:102C70006F7261207920636F6E74696E7561206375
:102C80006F6E20656C2057697A61726400506572BE
:102C9000206661766F726520636F6E73756C746108
:102CA00020696C206E6F7374726F206D616E756138
:102CB0006C6520706572207269736F6C76657265E1
:102CC00020696C2070726F626C656D612E20506F90
:102CD000692072697072656E646920696C20576939
:102CE0007A61726420646F706F2061766572207201
:102CF000696176766961746F206C61207374616DAF
:102D000070616E74652E0050726F73696D206E6114
:102D1000686C65646E65746520646F206D616E75A6
:102D2000616C752061206F707261767465207072BD
:102D30006F626C656D2E20506F207465206F626E1F
:102D40006F7674652057697A61726461207265627A
:102D50006F6F746F76616E696D207469736B6172E9
:102D60006E792E00506C6561736520636865636BD6
:102D7000206F75722068616E64626F6F6B20616E88
:102D80006420666978207468652070726F626C6573
:102D90006D2E205468656E20726573756D652074A4
:102DA00068652057697A6172642062792072656271
:102DB0006F6F74696E6720746865207072696E74D5
:102DC00065722E0057697A617264002057617463DE
:102DD00068646F6720526573657400496E666F7230
:102DE0006D6174696F6E004D6F6E69746F72697A90
:102DF00061720053636865726D61746120696E660B
:102E00006F00496E666F726D61636500496E666F33
:102E10002073637265656E0045727374652D53632C
:102E20006869636874204B616C0043616C2E20708C
:102E300072696D657261206361702E0043616C2E52
:102E4000207072696D6F206C617965722E004B6124
:102E50006C2E207072766E692076727374767900AB
:102E60004669727374206C617965722063616C2E9F
:102E70000057617274652061756620757365722EE6
:102E80002E2E004573706572616E646F206F7264E0
:102E9000656E657300417474656E64656E646F2061
:102EA0007574656E7465005761697420666F722071
:102EB000757365722E2E2E004265696D2044727501
:102EC000636B2062656E75747A7465005573616416
:102ED0006F20656E20696D70726573696F6E005545
:102EE00073617469206E656C6C61207374616D70C0
:102EF0006100506F757A69746520626568656D2040
:102F00007469736B75005573656420647572696EBE
:102F100067207072696E740046696C616D656E74CD
:102F200020656E746C6164656E00536F6C746172C1
:102F30002066696C616D656E746F005363617269C0
:102F400063612066696C616D656E746F0056796AA5
:102F50006D6F75742066696C616D656E7400556E79
:102F60006C6F61642066696C616D656E74004669A2
:102F70006C616D656E742061757377657266656EE0
:102F800000536F6C74616E646F2066696C616D656F
:102F90006E746F0052696C6173632E2066696C6198
:102FA0006D656E746F005679736F7576616D20660E
:102FB000696C616D656E7400556E6C6F6164696EED
:102FC000672066696C616D656E7400556E6B6E6F1F
:102FD000776E20636F6D6D616E643A2022004665E6
:102FE000696E65696E7374656C6C756E6700416AB5
:102FF0007573746172005265676F6C61004C616437
:1030000069740054756E65005344204B6172746599
:10301000205B466C6173684169725D0053442063B4
:10302000617264205B466C73684169725D00534451
:10303000204B61727465205B6E6F726D616C5D0018
:1030400053442063617264205B6E6F726D616C5DCE
:103050000054656D702E204B616C2E205B4F4E5DD1
:103060000043616C2E2074656D702E205B4F4E5DA9
:103070000043616C2E2074656D702E205B4F4E5D99
:10308000005465706C2E206B616C2E205B4F4E5D82
:103090000054656D702E2063616C2E205B4F4E5D79
:1030A0000054656D702E204B616C2E205B4F4646A0
:1030B0005D0043616C2E2074656D702E205B4F4661
:1030C000465D0043616C2E2074656D702E205B4F51
:1030D00046465D005465706C2E206B616C2E205B43
:1030E0004F46465D0054656D702E2063616C2E2046
:1030F0005B4F46465D0054656D702E204B616C69D8
:103100006272696572756E67206665727469672E92
:10311000204B6C69636B656E20756D2077656974F3
:103120006572207A7520676568656E2E0043616C54
:1031300069627261636F6E2074656D70657261742F
:10314000757261207465726D696E6164612E2048CC
:10315000617A20636C6963207061726120636F6EB5
:1031600074696E7561722E0054617261747572615A
:103170002074656D7065726174757261207465721A
:103180006D696E6174612E204661726520636C69A1
:10319000636B2070657220636F6E74696E75617207
:1031A000652E005465706C6F746E69206B616C697C
:1031B000627261636520646F6B6F6E63656E612E12
:1031C00020506F6B726163756A74652073746973E4
:1031D0006B656D20746C616369746B612E0054655E
:1031E0006D70657261747572652063616C6962727D
:1031F0006174696F6E2069732066696E69736865B2
:10320000642E20436C69636B20746F20636F6E744F
:10321000696E75652E0054656D70204B616C696236
:103220002E2020202020202020200043616C2E20F2
:1032300074656D702E20202020202020202020006A
:1032400043616C2E2074656D702E2020202020207C
:1032500020202020005465706C2E206B616C2E2085
:103260002020202020202020200054656D702E205A
:1032700063616C2E2020202020202020202000545C
:10328000656D706572617475720054656D706572FC
:1032900061747572610054656D70657261747572E8
:1032A00061005465706C6F74610054656D70657277
:1032B000617475726500536F706F72746500506F42
:1032C00064706F726100537570706F727400447235
:1032D00075636B2061626272656368656E00446548
:1032E00074656E657220696D70726573696F6E00CA
:1032F00041727265737461207374616D7061005AFC
:1033000061737461766974207469736B0053746FB0
:1033100070207072696E7400474553544F5050547A
:103320002E200050415241444100415252455354D5
:1033300041544F2E0053544F505045442E200053BB
:103340007465707261746520746F6F206869676856
:103350003A2000497320737465656C207368656555
:1033600074206F6E20686561746265643F00546FFD
:1033700074616C6520447275636B7A6569743A0098
:103380005469656D706F20746F74616C203A0054DD
:10339000656D706F207374616D706120746F743A25
:1033A0000043656C6B6F767920636173203A00543B
:1033B0006F74616C207072696E742074696D652021
:1033C0003A00476573616D7466696C616D656E7412
:1033D0003A0046696C616D656E746F20746F74613C
:1033E0006C3A0046696C616D656E746F20746F7421
:1033F0003A0046696C616D656E742063656C6B653F
:103400006D203A00546F74616C2066696C616D6563
:103410006E74203A00447275636B7A6569743A2061
:1034200020005469656D706F20646520696D702E91
:103430003A0054656D706F206469207374616D701B
:10344000613A00436173207469736B75203A2020E0
:10345000005072696E742074696D653A20200046D0
:10346000696C616D656E74766572627261756368B0
:103470003A0046696C616D656E746F2075736164A6
:103480006F3A20200046696C616D656E746F20751F
:103490007361746F3A0046696C616D656E74203AB1
:1034A00020200046696C616D656E742075736564DB
:1034B0003A20200053746174697374696B656E20DF
:1034C00000457374616469737469636173202000DB
:1034D00053746174697374696368650053746174CB
:1034E000697374696B61202000537461746973742B
:1034F0006963732020004572726F72202D207374EF
:1035000061746963206D656D6F72792068617320E5
:103510006265656E206F7665727772697474656E28
:1035200000476573636877696E6469676B65697482
:103530000056656C6F63696461640056656C6F6307
:1035400069746100527963686C6F737400537065BD
:1035500065640020536F66747761726520526573ED
:103560006574004C656963687465722053636872A2
:103570002E3A00496E636C2E206C65676765726138
:103580003A004C65686B65207A6B6F73656E693ABB
:1035900000536C6967687420736B65773A004D6FF0
:1035A000646520202020205B6C656973655D004D9B
:1035B0006F646F2020205B73696C656E63696F5D5B
:1035C000004D6F646F205B73696C656E7A696F7311
:1035D0006F5D004D6F64202020202020205B7469E7
:1035E0006368795D004D6F646520202020205B7347
:1035F000696C656E745D004D6F6465205B486F6833
:1036000065204C656973745D004D6F646F205B725B
:10361000656E642E706C656E6F5D004D6F64652025
:1036200020202020205B666F7274655D004D6F6402
:1036300020205B7679732E2076796B6F6E5D004D5E
:103640006F6465205B6869676820706F7765725D7D
:1036500000456E64736368616C74657220537461B5
:10366000742E00456E73656E6120746F7065206600
:10367000696E616C00537461746F2066696E656376
:103680006F7273610053746176206B6F6E632E20CE
:103690007370696E2E0053686F7720656E642073B7
:1036A000746F70730053636877657265722053633B
:1036B00068722E3A00496E632E2072696C657661DD
:1036C0006E74653A0054657A6B65207A6B6F73652A
:1036D0006E693A0053657665726520736B65773A5B
:1036E0000054656D702E2065696E7365747A656E21
:1036F0000045737461626C656365722074656D70FA
:103700002E3A00496D706F7374612074656D706539
:10371000726174757261004E6173746176746520B4
:103720007465706C6F74753A005365742074656DC0
:1037300070657261747572653A0045696E7374657F
:103740006C6C756E67656E00436F6E666967757247
:103750006163696F6E00496D706F7374617A696F30
:103760006E69004E6173746176656E6900536574AD
:1037700074696E6773005665726472616874756E01
:10378000676665686C6572004572726F7220646569
:1037900020636F6E6578696F6E004572726F726537
:1037A000206361626C616767696F00436879626179
:1037B000207A61706F6A656E6900576972696E6719
:1037C000206572726F720053656C627374746573F6
:1037D000742073746172742000496E6963696F208C
:1037E00053656C6674657374004176766961206117
:1037F00075746F746573740053656C6620746573BB
:10380000742073746172742020004269747465209E
:103810007072756566653A00436F6E74726F6C61A5
:10382000203A00566572696669636172653A005AAA
:103830006B6F6E74726F6C756A7465203A00506CB1
:103840006561736520636865636B203A0053656C3E
:1038500062737474657374204F4B004175746F7498
:10386000657374204F4B0053656C662074657374E8
:10387000204F4B004E6963687420616E6765736307
:10388000686C6F7373656E004E6F2068617920639A
:103890006F6E6578696F6E2020004E6F6E20636FCB
:1038A0006E6E6573736F004E657A61706F6A656ED8
:1038B0006F20202020004E6F7420636F6E6E656352
:1038C000746564004D6F746F7265004D6F746F7234
:1038D00000486F74656E640052697363616C642E96
:1038E0002F5465726D6973742E004865617465723A
:1038F0002F546865726D6973746F72004C756566DC
:103900007465727465737400546573742076656EA3
:1039100074696C61646F7265730050726F766120B8
:1039200064656C2076656E74696C61746F720054A6
:103930006573742076656E74696C61746F7275005E
:1039400046616E20746573740053656C62737474A1
:10395000657374206D6973736C756E672E004661B4
:103960006C6C6F2053656C6674657374004175747C
:103970006F746573742066616C6C69746F00536555
:103980006C66746573742073656C68616C202000CC
:1039900053656C6674657374206661696C65642038
:1039A00020004C696E6B6572204C7565667465729B
:1039B0003F0056656E742E20697A71756965726470
:1039C0006F3F0056656E742053582073756C6C27DA
:1039D0007567656C6C6F3F004C6576792076656E17
:1039E00074206E61207472797363653F004C656664
:1039F0007420686F74656E642066616E3F00536565
:103A00006C6274657374204665686C657221004150
:103A100075746F74657374206572726F72210041E2
:103A200075746F74657374206E6567617469766F01
:103A30000053656C6674657374206572726F7220D2
:103A40002100456E6465206E696368742067657443
:103A5000726F662E00546F7065206E6F20616C630C
:103A6000616E7A61646F0046696E65632E206675CB
:103A70006F726920706F722E00456E6473746F7080
:103A8000206E6F742068697400456E6473636861AA
:103A90006C74657200546F7065732066696E616C3A
:103AA00065730046696E65636F7273612028322901
:103AB00000456E6473746F707300546F7065206698
:103AC000696E616C0046696E65636F727361004573
:103AD0006E6473746F7000566F72646572657220E5
:103AE0004C7565667465723F0056656E742E20666F
:103AF000726F6E74616C3F0056656E74206469204D
:103B00007374616D706120616E742E3F0050726538
:103B1000646E69207469736B6F76792076656E7454
:103B20003F0046726F6E74207072696E7420666119
:103B30006E3F00507275656665205A204163687358
:103B4000652020202000436F6E74726F6C20746FAC
:103B50007065205A005665726966696361206173F9
:103B60007365205A004B6F6E74726F6C61205A201F
:103B700061786973202000436865636B696E672014
:103B80005A2061786973202000507275656665203F
:103B9000592041636873652020202000436F6E74B4
:103BA000726F6C20746F706520590056657269667B
:103BB00069636120617373652059004B6F6E747285
:103BC0006F6C61205920617869732020004368651B
:103BD000636B696E672059206178697320200050FB
:103BE00072756566652058204163687365202020E2
:103BF0002000436F6E74726F6C20746F7065205874
:103C00000056657269666963612061737365205847
:103C1000004B6F6E74726F6C61205820617869730D
:103C2000202000436865636B696E672058206178C7
:103C30006973202000507275656665204475657350
:103C40006500436F6E74726F6C20686F74656E648C
:103C500020005665726966696361207567656C6CE2
:103C60006F004B6F6E74726F6C6120686F74656E5D
:103C700064202000436865636B696E6720686F7419
:103C8000656E6420200050727565666520456E641F
:103C9000736368616C746572202000436F6E747288
:103CA0006F6C20746F706573005665726966696326
:103CB000612066696E65636F727361004B6F6E742D
:103CC000726F6C6120656E6473746F70730043680B
:103CD00065636B696E6720656E6473746F707300E3
:103CE000507275656665204265747420202020201E
:103CF00020202000436F6E74726F6C2068656174C1
:103D0000626564005665726966696361206C6574FA
:103D1000746F004B6F6E74726F6C6120626564200B
:103D20002020202000436865636B696E6720626510
:103D300064202020202000416C6C65732072696330
:103D4000687469672020202000546F646F206269C6
:103D5000656E004E657373756E206572726F726565
:103D600000567365204F4B2020202020202020204B
:103D7000202000416C6C20636F7272656374202098
:103D8000202020200042657474202F204865617433
:103D900065720048656174626564004C6574746F97
:103DA0002F52697363616C642E00426564202F207A
:103DB0004865617465720041786973206C656E674F
:103DC000746800417869730053656C62737474653C
:103DD0007374202020202020200053656C667465B9
:103DE0007374004175746F746573740053656C6609
:103DF000746573742020202020202020200057721A
:103E00006974696E6720746F2066696C653A20007A
:103E1000766F6C756D652E696E6974206661696C6C
:103E20006564002053697A653A2000534420656E2A
:103E3000746665726E7420005461726A65746120E4
:103E400072657469726164610053442072696D6FB8
:103E5000737361004B617274612076796A6D757459
:103E60006100436172642072656D6F766564005312
:103E700044207072696E74696E672062797465207F
:103E8000006F70656E206661696C65642C20466900
:103E90006C653A20006F70656E526F6F74206661BA
:103EA000696C65640053442065696E676573657469
:103EB0007A74005461726A65746120696E73657208
:103EC0007461646100534420696E73657269746142
:103ED000004B6172746120766C6F7A656E6100438D
:103EE00061726420696E7365727465640053442066
:103EF000696E6974206661696C0046696C6520733F
:103F0000656C65637465640046696C65206F7065F7
:103F10006E65643A20006572726F72207772697400
:103F2000696E6720746F2066696C65005344206376
:103F3000617264206F6B0043616E6E6F7420656EFA
:103F4000746572207375626469723A200052656309
:103F50006874733A004465737472613A0050726118
:103F600076793A0052696768743A00447275636BF7
:103F700020776569746572676568656E0052656172
:103F80006E7564617220696D70726573696F6E0021
:103F90005374616D706120696E207269707265730F
:103FA00061004F626E6F766F76616E69207469731F
:103FB0006B7500526573756D696E67207072696EFE
:103FC0007400447275636B20666F72746765736505
:103FD000747A7400526573756D69656E646F2069DB
:103FE0006D70726573696F6E0052697072656E6490
:103FF00069207374616D7061004F626E6F76656EDB
:1040000069207469736B7500526573756D696E67AD
:10401000207072696E7400466F72747365747A658D
:104020006E005265616E7564617220696D707265B3
:10403000732E0052697072656E6469207374616DCD
:10404000706100506F6B7261636F766174005265CE
:1040500073756D65207072696E7400526573656E5C
:10406000643A2000506C656173652072656D6F76EF
:104070006520737465656C2073686565742066726D
:104080006F6D20686561746265642E00426C6163C7
:104090006B6F7574206F636375727265642E205246
:1040A00065636F766572207072696E743F00526549
:1040B000636F766572696E67207072696E74202016
:1040C000202000686F77746F2E707275736133648F
:1040D0002E637A00686F77746F2E70727573613318
:1040E000642E636F6D00666F72756D2E70727573DE
:1040F0006133642E637A00666F72756D2E7072750F
:10410000736133642E636F6D007072757361336415
:104110002E637A00707275736133642E636F6D0065
:10412000447275636B2070617573696572740049C0
:104130006D70726573696F6E20656E207061757346
:1041400061005374616D706120696E2070617573D8
:1041500061005469736B20706F7A61737461766566
:104160006E005072696E74207061757365640044EE
:104170007275636B206162676562726F6368656EFA
:1041800000496D70726573696F6E2063616E63655F
:104190006C616461005374616D70612061626F7263
:1041A00074697461005469736B2070726572757301
:1041B000656E005072696E742061626F727465641E
:1041C000005072696E74657220646973636F6E6EFD
:1041D000656374656400756E64204B6E6F70662055
:1041E00064727565636B656E0048617A20636C6903
:1041F00063006520636C696363617265206D616E45
:104200006F706F6C61006120737469736B6E65749D
:104210006520746C616369746B6F00616E642070FB
:104220007265737320746865206B6E6F62004475ED
:1042300065736520566F72776165726D656E0050AB
:10424000726563616C656E746172206578747275F5
:10425000736F72005072657269732E207567656C9A
:104260006C6F210050726564656872656A746520C0
:10427000747279736B752100507265686561742082
:10428000746865206E6F7A7A6C652100566F72775C
:104290006165726D656E0050726563616C656E7408
:1042A00061720050726572697363616C6461005081
:1042B00072656465687265760050726568656174E0
:1042C00000506F776572557000426974746520778D
:1042D000617274656E00506F72204661766F722055
:1042E000457370657261720041737065747461002A
:1042F00050726F73696D2063656B656A74650050F9
:104300006C656173652077616974004269747465D6
:10431000206C6164656E20536965207A75657273DF
:104320007420504C412046696C616D656E742E009E
:10433000436172676120656C2066696C616D656EB2
:10434000746F20504C41207072696D65726F2070DF
:104350006F72206661766F722E0050657220666102
:10436000766F7265207072696D6120636172696336
:104370006172652066696C616D656E746F20646939
:1043800020504C412E004E656A6472697665207A31
:1043900061766564746520504C412066696C616D7E
:1043A000656E742070726F73696D2E00506C65615C
:1043B0007365206C6F616420504C412066696C61AC
:1043C0006D656E742066697273742E004973742073
:1043D000504C412046696C616D656E742067656C58
:1043E0006164656E3F004573746120656C20666989
:1043F0006C616D656E746F20504C41206361726713
:1044000061646F3F00496C20504C412065207374FB
:1044100061746F20636172696361746F3F004A6504
:1044200020504C412066696C616D656E74207A6124
:10443000766564656E3F00497320504C4120666983
:104440006C616D656E74206C6F616465643F002003
:1044500020506C616E6E6572427566666572427957
:104460007465733A2000506C6561736520706C61EF
:10447000636520737465656C207368656574206F6F
:104480006E20686561746265642E0050494E444137
:10449000206572776165726D656E0043616C656E53
:1044A00074616E646F2050494E44410052697363D9
:1044B000616C642E2050494E4441004E616872691F
:1044C00076616E692050494E44410050494E444146
:1044D0002048656174696E670054656D706572612E
:1044E000747572207775726465206E6963687420D4
:1044F0006B616C69627269657274004C61207465ED
:104500006D70657261747572612064652063616CA1
:104510006962726163696F6E206E6F2068612073DB
:1045200069646F20616A75737461646100546172BB
:1045300061747572612064656C6C612074656D7066
:1045400065726174757261206E6F6E20616E636F4B
:104550007261206573656775697461005469736B76
:1045600061726E61206E6562796C61207465706C39
:104570006F746E65207A6B616C6962726F76616EC2
:10458000610054656D706572617475726520636158
:104590006C6962726174696F6E20686173206E6FFE
:1045A00074206265656E2072756E207965740050A6
:1045B0004944204B616C69622E0043616C2E20508F
:1045C000494420202020202020202020200043615A
:1045D0006C2E2050494400504944206B616C2E20C1
:1045E000202020202020202020200050494420632B
:1045F000616C2E2020202020202020202020005010
:104600004944204B616C69622E206665727469674B
:104610000043616C2E20504944207465726D696EB0
:104620006164610043616C2E2050494420636F6DCA
:10463000706C65746100504944206B616C2E20756C
:104640006B6F6E63656E61005049442063616C2E30
:104650002066696E697368656400504944204B6147
:104660006C696272696572756E670043616C69623C
:10467000726163696F6E205049440043616C6962E6
:1046800072617A696F6E6520504944005049442038
:104690006B616C69627261636500504944206361BB
:1046A0006C6962726174696F6E00447275636B202D
:1046B000756E74657262726563682E005061757301
:1046C000617220696D70726573696F6E004D6574FB
:1046D000746920696E20706175736100506F7A6132
:1046E000737461766974207469736B0050617573BB
:1046F00065207072696E74004C6567656E2065692F
:104700006E20426C6174742050617069657220750E
:104710006E746572206469652044756573652077E1
:1047200061656872656E6420646572204B616C69B6
:104730006272696572756E67206465722065727356
:1047400074656E20342050756E6B74652E2057652D
:104750006E6E2064696520447565736520646173BD
:10476000205061706965722065696E6B6C656D6D56
:10477000742C20447275636B657220736F666F7260
:104780007420617573736368616C74656E00436F48
:104790006C6F63617220756E6120686F6A6120645E
:1047A0006520706170656C20736F627265206C614A
:1047B0002073757065726669636965206465206938
:1047C0006D70726573696F6E20647572616E746569
:1047D000206C612063616C6962726163696F6E2035
:1047E0006465206C6F73207072696D65726F7320E1
:1047F000342070756E746F732E205369206C6120A5
:10480000626F7175696C6C61206D75657665206588
:104810006C20706170656C2C206170616761722022
:10482000696D707265736F726120696E6D65646920
:104830006174616D656E74652E00506F72726520D3
:10484000756E20666F676C696F20736F74746F206C
:104850006C277567656C6C6F20647572616E74652A
:10486000206C612063616C696272617A696F6E6548
:1048700020646569207072696D6920342070756EDE
:1048800074692E20496E206361736F206C277567F1
:10489000656C6C6F206D756F766120696C20666F3A
:1048A000676C696F20737065676E657265207072E2
:1048B0006F6E74616D656E7465206C6120737461D8
:1048C0006D70616E74652E00556D697374657465E5
:1048D000206C69737420706170697275206E61203C
:1048E000706F646C6F7A6B752061207564727A7575
:1048F0006A7465206A656A20706F642074727973C7
:104900006B6F7520626568656D206D6572656E6997
:10491000207072766E696368203420626F64752E31
:1049200020506F6B756420747279736B61207A61AB
:1049300063687974692070617069722C207679706F
:104940006E657465207469736B61726E752E0050AC
:104950006C6163652061207368656574206F6620F3
:10496000706170657220756E646572207468652070
:104970006E6F7A7A6C6520647572696E67207468F0
:10498000652063616C6962726174696F6E206F6625
:10499000206669727374203420706F696E74732E90
:1049A00020496620746865206E6F7A7A6C65206392
:1049B00061746368657320746865207061706572E6
:1049C0002C20706F776572206F6666207468652092
:1049D0007072696E74657220696D6D656469617469
:1049E000656C792E006F6B004F6666004B65696ED3
:1049F00065204265776567756E672E0053696E2086
:104A00006D6F76696D69656E746F004E6573737551
:104A10006E206D6F76696D656E746F2E004E6F201F
:104A20006D6F76652E004B65696E65205344204B93
:104A300061727465004E6F20686179207461726ADA
:104A4000657461205344004E657373756E61205325
:104A500044005A61646E61205344206B617274613A
:104A6000004E6F2053442063617264004475657387
:104A700065005567656C6C6F00547279736B6100EB
:104A80004E6F7A7A6C650046696C2E206E69636899
:104A9000742067656C6164656E0046696C2E206EDB
:104AA0006F20696E74726F64756369646F00466924
:104AB0006C2E206E6F6E20636172696361746F008B
:104AC00046696C616D656E74206E657A61766564A9
:104AD000656E0046696C616D656E74206E6F742042
:104AE0006C6F6164656400466172626520756E6B0F
:104AF0006C617200436F6C6F72206E6F20686F6D17
:104B00006F67656E656F00436F6C6F7265206E6FC7
:104B10006E207075726F004261727661206E656EF4
:104B20006920636973746100436F6C6F72206E6FEC
:104B30007420636C656172004E65696E004E65009D
:104B40004E6F00426974746520616B7475616C69A5
:104B500073696572656E2E0041637475616C697A64
:104B6000617220706F72206661766F72005072659C
:104B7000676120616767696F726E612E0050726FA6
:104B800073696D20616B7475616C697A756A74659F
:104B90002E00506C65617365207570677261646585
:104BA0002E004E657565204669726D7761726520CD
:104BB00056657273696F6E20766572667565676299
:104BC00061723A004E7565766F206669726D776125
:104BD000726520646973706F6E69626C653A004E2D
:104BE000756F76612076657273696F6E6520646596
:104BF0006C206669726D7761726520646973706F8D
:104C00006E6962696C65005679736C61206E6F76AF
:104C100061207665727A65206669726D776172656A
:104C20003A004E6577206669726D7761726520760D
:104C3000657273696F6E20617661696C61626C6523
:104C40003A00426577656765205A004D6F76657258
:104C5000205A004D756F7669205A00506F73756E3B
:104C60006F7574205A004D6F7665205A0042657743
:104C70006567652059004D6F7665722059004D7546
:104C80006F7669205900506F73756E6F7574205977
:104C9000004D6F766520590042657765676520583D
:104CA000004D6F7665722058004D756F76692058FB
:104CB00000506F73756E6F75742058004D6F766578
:104CC00020580045787472756972004D756F766969
:104CD000204573747275736F7265004578747275D0
:104CE00064657200416368736265776567756E67B6
:104CF000004D6F76657220656A6573004D756F763D
:104D000069206173736500506F73756E6F757420E1
:104D10006F7375004D6F76652061786973004D651E
:104D200073682042657474204C6576656C696E67A3
:104D3000004D657368206C6976656C2E206C657417
:104D4000746F004D65736820426564204C6576651C
:104D50006C696E67004B616C696272696572756E31
:104D6000670043616C6962726163696F6E004361E1
:104D70006C696272617A696F6E65004B616C696221
:104D8000726163650043616C6962726174696F6E20
:104D90000020766F6E203900206465203900207372
:104DA00075203900207A203900206F662039004DA7
:104DB000657373656E206465722052656665726501
:104DC0006E7A686F65686520646573204B616C69F5
:104DD000627269657270756E6B746573004D69649B
:104DE00069656E646F20616C747572612064656CB6
:104DF0002070756E746F2064652063616C696272E7
:104E00006163696F6E004D69737572617265206CC4
:104E100027616C74657A7A612064692072696665BD
:104E200072696D656E746F2064656C2070756E7448
:104E30006F2064692063616C696272617A696F6E68
:104E400065004D6572696D207265666572656E6399
:104E50006E69207679736B75206B616C6962726123
:104E6000636E69686F20626F6475004D656173756C
:104E700072696E67207265666572656E636520682B
:104E80006569676874206F662063616C696272612E
:104E900074696F6E20706F696E740053636872611D
:104EA00065676C6175663A00496E636C2E206D69AA
:104EB0007375726174613A004D6572656E65207A32
:104EC0006B6F73656E693A004D65617375726564E9
:104ED00020736B65773A0048617570746D656E7507
:104EE00065004D656E75207072696E636970616CE6
:104EF000004D656E75207072696E636970616C65D6
:104F000000486C61766E69206E616269646B610055
:104F10004D61696E004D32323120496E76616C69A7
:104F20006420657874727564657220004D32313882
:104F300020496E76616C6964206578747275646569
:104F40007220004D32303020496E76616C696420E9
:104F5000657874727564657220005265706F727442
:104F6000696E6720656E6473746F7020737461740A
:104F70007573004D3131372045727374652D53635D
:104F80006869636874204B616C2E004D31313720A5
:104F900043616C2E207072696D657261206361706F
:104FA0002E004D3131372043616C2E207072696DB7
:104FB0006F206C617965722E004D313137204B6165
:104FC0006C2E207072766E6920767273747679001A
:104FD0004D313137204669727374206C6179657286
:104FE0002063616C2E004649524D574152455F4E39
:104FF000414D453A4D61726C696E2056312E302E0E
:10500000323B20537072696E7465722F6772626CE6
:10501000206D617368757020666F722067656E36EB
:10502000204649524D574152455F55524C3A68749B
:105030007470733A2F2F6769746875622E636F6D91
:105040002F707275736133642F50727573612D699F
:10505000332D506C75732F2050524F544F434F4C8B
:105060005F56455253494F4E3A312E30204D414301
:1050700048494E455F545950453A50727573612006
:105080006933204D4B332045585452554445525FA7
:10509000434F554E543A3120555549443A303030FB
:1050A00030303030302D303030302D303030302D09
:1050B000303030302D3030303030303030303030F3
:1050C000300A004D31303920496E76616C696420B8
:1050D000657874727564657220004D3130352049F1
:1050E0006E76616C6964206578747275646572208F
:1050F000004D31303420496E76616C6964206578EA
:1051000074727564657220004C6F73652052696516
:105110006D656E7363686569626500506F6C65618B
:10512000207375656C74610050756C6567676961A3
:10513000206C656E74610055766F6C6E656E6120D3
:1051400072656D656E69636B61004C6F6F7365208E
:1051500070756C6C65790046696C616D656E742064
:105160006C6164656E00496E74726F647563697218
:105170002066696C616D2E0043617269636120660F
:10518000696C616D656E746F005A61766573742029
:1051900066696C616D656E74004C6F616420666950
:1051A0006C616D656E740046696C616D656E74202E
:1051B0006C6561647400496E74726F6475636965CF
:1051C0006E646F2066696C616D2E00436172696365
:1051D000616E646F2066696C616D2E005A61766144
:1051E00064656E692066696C616D656E7475004CEE
:1051F0006F6164696E672066696C616D656E7400CD
:105200004C6164652046617262650043616D62694C
:10521000616E646F20636F6C6F72004361726963CB
:10522000616E646F20636F6C6F72650043697374A5
:10523000656E69206261727679004C6F6164696E97
:105240006720636F6C6F72004C696E6B733A00532A
:10525000696E69737472613A004C6576793A004CF4
:105260006566743A00576165686C652053707261B9
:105270006368650043616D6269616520656C2069E2
:1052800064696F6D610053656C657A696F6E61204A
:105290006C696E677561005679626572206A617A21
:1052A000796B610053656C656374206C616E677522
:1052B0006167650044657574736368004573706168
:1052C0006E6F6C004974616C69616E6F0043657349
:1052D00074696E6100456E676C697368004142478E
:1052E0004542524F4348454E2E20005041524144C2
:1052F0004120444520454D455247454E43494100D4
:10530000494E2054494C542E004B494C4C45442E98
:105310002000496E76616C696420657874727564EA
:1053200065720046696C616D656E742065696E6CAE
:105330006567656E00496E74726F6475636972208B
:1053400066696C616D656E746F00496E7365726934
:1053500072652066696C616D656E746F00566C6F66
:105360007A74652066696C616D656E7400496E7350
:105370006572742066696C616D656E740050726947
:105380006E742046414E3A20004E6F7A7A6C65204A
:1053900046414E3A00457874727564657220696EB4
:1053A000666F0020766F6E20340020646520340024
:1053B000207375203400207A203400206F6620345A
:1053C00000566572626573736572756E672042651B
:1053D0007474204B616C69627269657270756E6B72
:1053E00074004D656A6F72616E646F2070756E74C3
:1053F0006F2064652063616C6962726163696F6EBE
:1054000020686561746265640050657266657A69DA
:105410006F6E2E20696C206C6574746F2070756ED1
:10542000746F2064692063616C696272617A2E0016
:105430005A6C657073756A6920707265736E6F73EC
:1054400074206B616C69627261636E69686F20625F
:105450006F647500496D70726F76696E6720626562
:10546000642063616C6962726174696F6E20706F31
:10547000696E74004B616C69627269657265205A6D
:105480000043616C696272616E646F205A0043610F
:105490006C696272616E646F205A004B616C696264
:1054A00072756A69205A0043616C6962726174693D
:1054B0006E67205A004B616C696272696572756E25
:1054C00067204F4B0043616C6962726163696F6E64
:1054D000204F4B0043616C696272617A696F6E653F
:1054E000204F4B004B616C696272616365204F4BCA
:1054F0000043616C6962726174696F6E20646F6EE3
:1055000065004B616C696272696572656E205A0054
:1055100043616C6962726172205A0043616C696216
:105520007261205A004B616C6962726F76617420FF
:105530005A0043616C696272617465205A0041755A
:1055400066776165726D656E204F4B0043616C65D7
:105550006E74616D69656E746F2066696E616C2E24
:105560000052697363616C642E20636F6D706C65AB
:10557000746F005A6168726976616E69204F4B2EB4
:105580000048656174696E6720646F6E652E004126
:105590007566776165726D656E0043616C656E74EA
:1055A000616E646F2E2E2E0052697363616C6461AC
:1055B0006D656E746F2E2E2E005A61687269766169
:1055C0006E690048656174696E670046696C2E20DB
:1055D00073656E736F7220205B6F6E5D0046696C41
:1055E0002E2073656E736F72205B6F66665D0020A0
:1055F00046726565204D656D6F72793A200044658D
:105600007220447275636B657220777572646520D1
:105610006E6F6368206E69636874206B616C696289
:1056200072696572742E20426974746520666F6CAD
:1056300067656E20536965206461732048616E64FC
:10564000627563682C204B61706974656C204669D3
:105650007273742073746570732C20416273636875
:105660006E6974742043616C6962726174696F6EF3
:1056700020666C6F772E00496D707265736F726172
:10568000206E6F20657374612063616C6962726162
:10569000646120746F64617669612E20506F72209E
:1056A0006661766F722075736120656C206D616E26
:1056B00075616C2C206361706974756C6F2046692C
:1056C0007273742073746570732C2043616C69620B
:1056D000726174696F6E20666C6F772E005374610F
:1056E0006D70616E746520616E636F7261206E6FA4
:1056F0006E2063616C6962726174612E205369204F
:105700007072656761206469207365677569726589
:1057100020696C206D616E75616C652C2063617011
:1057200069746F6C6F205052494D4920504153535A
:10573000492C2073657A696F6E652064656C6C61B5
:105740002063616C696272617A696F6E652E0054C4
:1057500069736B61726E61206E6562796C61206A3B
:1057600065737465207A6B616C6962726F76616EC5
:10577000612E20506F73747570756A746520707235
:105780006F73696D20706F646C65206D616E7561FB
:105790006C752C206B617069746F6C61205A616349
:1057A000696E616D652C206F64737461766563202A
:1057B000506F73747570206B616C696272616365A0
:1057C0002E005072696E74657220686173206E6F6E
:1057D00074206265656E2063616C696272617465D4
:1057E00064207965742E20506C6561736520666F46
:1057F0006C6C6F7720746865206D616E75616C2CC0
:1058000020636861707465722046697273742073D6
:10581000746570732C2073656374696F6E204361C7
:105820006C6962726174696F6E20666C6F772E00AE
:105830004475726368666C75737300466C756A6F45
:1058400000466C7573736F00507275746F6B004611
:105850006C6F77004265776567756E672062656576
:105860006E64656E005465726D2E206D6F76696D85
:1058700069656E746F73004172726573746F20692D
:105880006E20636F72736F00446F6B6F6E636F7621
:10589000616E6920706F687962750046696E697320
:1058A00068696E67206D6F76656D656E7473002034
:1058B000766F6E20340020646520340020737520DC
:1058C0003400207A203400206F6620340053756342
:1058D00068656E2042657474204B616C6962726900
:1058E000657270756E6B740042757363616E646F80
:1058F0002070756E746F2064652063616C696272DC
:105900006163696F6E2068656174626564005269E5
:1059100063657263612064656C206C6574746F20CC
:1059200070756E746F2064692063616C6962726166
:105930007A2E00486C6564616D206B616C696272DF
:1059400061636E6920626F6420706F646C6F7A6B44
:105950007900536561726368696E672062656420CF
:1059600063616C6962726174696F6E20706F696ED9
:1059700074005265697465726163696F6E200052CC
:105980006569746572617A696F6E65200049746536
:10599000726163652000497465726174696F6E207D
:1059A00000446F6E6520736176696E672066696C6E
:1059B000652E00446F6E65207072696E74696E6743
:1059C0002066696C650049737420466172626520C7
:1059D0007265696E3F00457320656C206E75657653
:1059E0006F20636F6C6F72206E697469646F3F0023
:1059F000496C20636F6C6F7265206527206E697437
:105A000069646F3F004A6520626172766120636954
:105A10007374613F00497320636F6C6F7220636C15
:105A20006561723F0046696C616D656E742D5765E6
:105A3000636873656C0043616D62696172206669B9
:105A40006C616D656E746F0043616D622E206669D6
:105A50006C616D656E746F0056796D656E6974204A
:105A600066696C616D656E74004368616E67652080
:105A700066696C616D656E74004C756566746572FF
:105A80002D54656D706F0056656C6F636964616459
:105A90002056656E742E0056656C6F6369746120C4
:105AA00076656E742E00527963686C6F737420761D
:105AB000656E742E0046616E2073706565640065C6
:105AC0006E717565696E6720220045787472757312
:105AD0006F72004573747275736F726500457874E8
