:100000000C945E310C948F310C948F310C948F31A1
:100010000C948F310C94CC6E0C948F310C948F31E6
:100020000C944D6E0C948F310C948F310C94EFCF57
:100030000C948F310D9433C50C948F310C948F3107
:100040000C948F310D944E230C948F310C948F317E
:100050000C948F310C948F310D94DE390D945ABD70
:100060000C948F310C942B440C948F310C948F3161
:100070000C948F310C948F310C948F310C948F3100
:100080000C948F310C948F310C948F310C948F31F0
:100090000C946F440C948F310C948F310C948F31ED
:1000A0000C948F310C948F310C948F310C948F31D0
:1000B0000C948F310C948F310C948F310C948F31C0
:1000C0000C948F310C948F310C948F310C948F31B0
:1000D0000C948F310C948F310C948F310C948F31A0
:1000E0000C948F311A431E4323432B4340435943FF
:1000F0007E43A8436C017E01AA012801CA01C60102
:10010000BC019E017201EE01E401A801CC01BA011B
:1001100044015401C201C4019001680160018A01D7
:10012000DE01E6012C014601460146013C013C018D
:100130003C012E01DC013C01960162018601AE0109
:100140008001F201E001F40152013801A0017A01BD
:10015000D60158014C01E001CE01C0017401B20189
:1001600088014A013E01D201340132013001A2016D
:1001700094015E014801EA015A013401E2018C0157
:100180005001084AD73B3BCE016E84BCBFFDC12F56
:100190003D6C74319ABD56833DDA3D00C77F11BE78
:1001A000D9E4BB4C3E916BAAAABE000000803F057B
:1001B000A84CCDB2D44EB93836A9020C50B99186AC
:1001C00088083CA6AAAA2ABE000000803F07634216
:1001D00036B79BD8A71A39685618AEBAAB558C1DDE
:1001E0003CB7CC5763BD6DEDFD753EF6177231BF60
:1001F000000000803F08000000BE922449123EAB80
:10020000AAAA2ABECDCCCC4C3E00000080BEABAA30
:10021000AAAA3E00000000BF000000803F000000CE
:100220000000084178D3BB4387D1133D190E3CC36E
:10023000BD4282AD2B3E68EC8276BED98FE1A93EED
:100240004C80EFFFBE01C4FF7F3F000000000000B4
:100250000D9411670D940B640D94F8770D94087844
:100260000D945FBF0D945BBF0D948EBF0D944B52E8
:100270000D94D3BE0D9461630D9426780D944ABFFE
:100280000D943C440D94AD930D9425760D94007817
:100290000D9473BF0D9446BF0D940ABF0D94466331
:1002A0000D9489BF0D94CBBE0D9439760D942D6EAF
:1002B0000D9400BF0D947BBF0D94DA610D946DBF5A
:1002C0000D9480770D949BBE0D94516B0D9414008A
:1002D0000D946F770D944F8B0D94DD660D944F2622
:1002E0000D9478510D9474670D9428BF0D94269F3A
:1002F0000D9425C00D94E7BE0D94BA450D94F26699
:100300000D94AFBE0D943F600D944F630D94A0BE4D
:100310000D9457BF0D949D770D9485BF0D9466473E
:100320000D944C770D94E6480D9469BF0D941278A6
:100330000D94944A0D94E0480D9419A70D945F67AD
:100340000D94DDBE0D9465BF0D946E840D94E695FD
:100350000D94E0750D94F7660D94169B0D94A5BE53
:100360000D940D570D9454BF0D9481AD0D94E6512D
:100370000D94D1480D940F760D9445670D94A15AB4
:100380000D941EBF0D9467760D9484760D943B6793
:100390000D9437650D9436670D94F8750D9414BF60
:1003A0000D946A660D9450BF0D94ACB20D94F1BEDD
:1003B0000D9496570D9459470D9436780D94C67741
:1003C0000D9432BF0D9481BF0D94B6670D94F077F4
:1003D0000D944B510D9477BF0D946B8C0D948E67DB
:1003E0000D9458630D94B9BE0D94C3BE48617264F8
:1003F000636F6465642044656661756C7420536541
:100400007474696E6773204C6F6164656400537423
:100410006F7265642073657474696E6773207265AA
:100420007472696576656400202020452F44203D64
:1004300020002020204D393030204B004C696E6563
:10044000617220616476616E63652073657474699E
:100450006E67733A0046696C616D656E74207365F2
:100460007474696E67733A2044697361626C656481
:10047000002020204D32303020440046696C616DF0
:10048000656E742073657474696E67733A0020201A
:10049000204D3230392053004175746F2D526574F0
:1004A000726163743A20533D3020746F2064697325
:1004B00061626C652C203120746F20696E746572E6
:1004C0007072657420657874727564652D6F6E6CDA
:1004D00079206D6F76657320617320726574726127
:1004E000637473206F72207265636F7665726965DD
:1004F00073002046002020204D3230382053005217
:1005000065636F7665723A20533D45787472612059
:100510006C656E67746820286D6D2920463A5370AB
:1005200065656420286D6D2F6D2900205A002046D6
:10053000002020204D323037205300526574726104
:1005400063743A20533D4C656E67746820286D6D66
:100550002920463A537065656420286D6D2F6D29FA
:10056000205A3A205A4C69667420286D6D29002063
:1005700044002049002020204D33303420500050CA
:1005800049442068656174626564207365747469A8
:100590006E67733A002044002049002020204D332C
:1005A00030312050005049442073657474696E677F
:1005B000733A00205A0020590020204D3230362056
:1005C0005800486F6D65206F666673657420286DEE
:1005D0006D293A00204500205A002059002058007B
:1005E00020420020540020204D323035205300415D
:1005F0006476616E636564207661726961626C65C0
:10060000733A20533D4D696E20666565647261746E
:100610006520286D6D2F73292C20543D4D696E2067
:1006200074726176656C20666565647261746520BC
:10063000286D6D2F73292C20423D6D696E696D7593
:100640006D207365676D656E742074696D65202813
:100650006D73292C20583D6D6178696D756D20583A
:1006600059206A65726B20286D6D2F73292C20200C
:100670005A3D6D6178696D756D205A206A65726B9F
:1006800020286D6D2F73292C2020453D6D617869E0
:100690006D756D2045206A65726B20286D6D2F7316
:1006A000290020540020204D323034205300416373
:1006B00063656C65726174696F6E3A20533D616366
:1006C00063656C65726174696F6E2C20543D726550
:1006D000747261637420616363656C6572617469CF
:1006E0006F6E00204500205A0020590020204D3216
:1006F00030312058004D6178696D756D204163631C
:10070000656C65726174696F6E20286D6D2F733230
:10071000293A00204500205A0020590020204D325F
:1007200030332058004D6178696D756D20666565C0
:1007300064726174657320286D6D2F73293A0020EF
:100740004500205A0020590020204D393220580001
:1007500053746570732070657220756E69743A0009
:1007600053657474696E67732053746F72656400A7
:10077000454550524F4D204572726F72004D656174
:10078000737375726520617667203D2025640A00C9
:100790004432313330202D20544D43323133300A2E
:1007A0000041444325643D2534640A000941444323
:1007B00025643D25346409282553290A004439203D
:1007C0002D20526561642F5772697465204144433E
:1007D0000A00564F4C545F4245440054454D505F0B
:1007E000414D4249454E5400564F4C545F5057526C
:1007F0000054454D505F50494E44410054454D50C2
:100800005F4245440054454D505F48454154455270
:10081000310054454D505F484541544552300074B5
:10082000656D705F70696E64613D2564206F6666FA
:100830007365745F7A3D25642E253033640A007435
:10084000656D705F70696E64613D256443207465F9
:100850006D705F73686966743D2564756D0A006329
:10086000616C5F7374617475733D25640A0044386C
:10087000202D20526561642F57726974652050499C
:100880004E44410A0029002C20002C200070687979
:10089000736963616C20636F6F7264696E61746504
:1008A000733A20280029002C20002C2000776F723A
:1008B0006C6420636F6F7264696E617465733A2053
:1008C00028006F6B0A002046002045004731205A5F
:1008D000004D3234004D32362053256C75004D31B9
:1008E00030362053004D3832004731204625640011
:1008F00047312045322A31204634383000473120F4
:100900005A002046323030300020590047312058FC
:10091000004D383300506F736974696F6E207265D3
:1009200061642066726F6D20656570726F6D3A004C
:100930004D3233202573002E67636F004665656472
:10094000726174653A007265636F7665725F6D619E
:100950006368696E655F73746174655F6166746511
:10096000725F706F7765725F70616E69632C20696A
:100970006E697469616C20007265636F7665725F81
:100980006D616368696E655F73746174655F6166EC
:100990007465725F706F7765725F70616E69632CEA
:1009A00020696E697469616C200047393220450006
:1009B00063757272656E745F706F736974696F6E60
:1009C0005B455F415849535D3A0063757272656ECD
:1009D000745F706F736974696F6E5B5A5F415849D9
:1009E000535D3A0043757272656E7420706F73695F
:1009F00074696F6E20595F415849533A00437572CC
:100A000072656E7420706F736974696F6E20585FC1
:100A1000415849533A0041667465722077616974A0
:100A2000696E6720666F722074656D703A00473199
:100A300020452D31204634383000473120453520BF
:100A400046313230004D3833004D31393020532596
:100A500064004D3130392053256400473238205826
:100A60002059004731205A32352046383030004D69
:100A700031343020532564004D3130342053256407
:100A800000494E54340055564C4F202D20656E645D
:100A900000737470730020423A0020453A00543AC3
:100AA000005A206C6976652061646A757374206FE2
:100AB0007574206F662072616E67652E20536574B1
:100AC00074696E6720746F20302E20436C69636BED
:100AD00020746F20636F6E74696E75652E005A20E6
:100AE0006C6976652061646A757374206F75742013
:100AF0006F662072616E67652E2053657474696E2F
:100B00006720746F20300020573A0020453A005487
:100B10003A004B494C4C3A20004D3730310041757A
:100B2000746F0020452F443D00416476616E63651B
:100B3000204B3D0022283229005400496E76616C1A
:100B40006964205420636F64652E00496E76616C81
:100B50006964204D20636F64652E004D3232302071
:100B600053256900203A2000004C414E4720534550
:100B70004C20464F5243454400222831290020454D
:100B80003A00205A3A0020593A0020453A00205AAB
:100B90003A0020593A00583A004D31313320530081
:100BA00020002E0020423A0020453A00543A00200E
:100BB000413A0020503A002042403A0020403A009A
:100BC000202F003A00205400202F0020423A00201D
:100BD0002F006F6B20543A002569206D696E2C2020
:100BE00025692073656300496E76616C6964204DE8
:100BF00020636F6465004D65736820626564206CD6
:100C00006576656C696E67206E6F742061637469C8
:100C100076652E000A002020000A4D65617375720A
:100C2000656420706F696E74733A000A5A207365A8
:100C300061726368206865696768743A20002C00F7
:100C40004E756D20582C593A2000206D6963726FE3
:100C50006E730045786365737369766520626564B9
:100C6000206C6576656C696E6720636F7272656370
:100C700074696F6E3A2000473238205730003A20AE
:100C80000054656D70657261747572652063616C86
:100C90006962726174696F6E20646F6E652E2043A5
:100CA0006F6E74696E7565207769746820707265FF
:100CB0007373696E6720746865206B6E6F622E00B7
:100CC00000205A20736869667420286D6D293A00E7
:100CD00050494E44412074656D706572617475723F
:100CE000653A2000002F3600537465703A200000EA
:100CF000205A20736869667420286D6D293A005067
:100D0000494E44412074656D7065726174757265F9
:100D10003A20002F362028736B69707065642900B3
:100D2000537465703A2000005A45524F3A20000033
:100D300073746172742074656D706572617475721C
:100D4000653A200050494E44412070726F62652020
:100D500063616C6962726174696F6E207374617231
:100D60007400473238205730000A00205A3A2000D9
:100D700020593A200020583A200043616C69627281
:100D80006174696F6E206661696C656421204368D7
:100D900065636B20746865206178657320616E649B
:100DA0002072756E20616761696E2E004352415357
:100DB000485F4445544543544544004D3239006230
:100DC0007573793A2070617573656420666F72205F
:100DD000696E70757400627573793A20706175730D
:100DE000656420666F722075736572006275737931
:100DF0003A2070726F63657373696E670020557077
:100E00006C6F616420696E2070726F6772657373B6
:100E10000044495341424C45440A00454E41424C2E
:100E200045440A004653656E736F7220005041546A
:100E3000393132355F696E69743A25640A00696E2A
:100E4000697469616C207A7374657073206166746B
:100E500065722072657365743A2000696E69746901
:100E6000616C207A7374657073206F6E20706F7779
:100E700065722075703A2000446563203239203253
:100E800030313700436F6D70696C65643A2000281B
:100E90006E6F6E652C2064656661756C7420636F7F
:100EA0006E6669672900446563203239203230312B
:100EB000372032333A33383A303900737461727400
:100EC00000466163746F7279205245534554001B8C
:100ED0005B324A1B5B313B31484F726967696E6117
:100EE0006C2050727573612069331B5B323B334851
:100EF0005072757361205265736561726368002575
:100F0000002020202020200020202020202000451C
:100F1000524153494E4720616C6C206461746100FA
:100F2000466163746F7279205245534554004352B1
:100F30004153485F5245434F56455200473238208F
:100F40005900473238205800FFFFFF0000A0400042
:100F500000A0400000004000007F43000056439A7C
:100F6000D9514300000000000080C09A99193E004A
:100F7000007F430000524300005243000000000085
:100F80000080C09A99193E6563686F3A0045727295
:100F90006F723A0000002110422063308440A55057
:100FA000C660E770088129914AA16BB18CC1ADD1AF
:100FB000CEE1EFF13112100273325222B552944257
:100FC000F772D662399318837BB35AA3BDD39CC3FF
:100FD000FFF3DEE36224433420040114E664C774A3
:100FE000A44485546AA54BB528850995EEE5CFF54F
:100FF000ACC58DD55336722611163006D776F666F7
:101000009556B4465BB77AA719973887DFF7FEE79E
:101010009DD7BCC7C448E5588668A77840086118C2
:1010200002282338CCC9EDD98EE9AFF948896999EE
:101030000AA92BB9F55AD44AB77A966A711A500A96
:10104000333A122AFDDBDCCBBFFB9EEB799B588B3E
:101050003BBB1AABA66C877CE44CC55C222C033CE2
:10106000600C411CAEED8FFDECCDCDDD2AAD0BBD8E
:10107000688D499D977EB66ED55EF44E133E322E36
:10108000511E700E9FFFBEEFDDDFFCCF1BBF3AAFDE
:10109000599F788F8891A981CAB1EBA10CD12DC13C
:1010A0004EF16FE18010A100C230E32004502540D2
:1010B00046706760B9839893FBA3DAB33DC31CD332
:1010C0007FE35EF3B1029012F322D2323542145222
:1010D00077625672EAB5CBA5A89589856EF54FE57E
:1010E0002CD50DC5E234C324A01481046674476472
:1010F00024540544DBA7FAB79987B8975FE77EF7D2
:101100001DC73CD7D326F2369106B01657667676C1
:10111000154634564CD96DC90EF92FE9C899E9899D
:101120008AB9ABA94458654806782768C018E10811
:101130008238A3287DCB5CDB3FEB1EFBF98BD89B71
:10114000BBAB9ABB754A545A376A167AF10AD01A61
:10115000B32A923A2EFD0FED6CDD4DCDAABD8BADBD
:10116000E89DC98D267C076C645C454CA23C832CB1
:10117000E01CC10C1FEF3EFF5DCF7CDF9BAFBABF11
:10118000D98FF89F176E367E554E745E932EB23E01
:10119000D10EF01E7C3C3E5E2B3D3F2F5B5D3B2C19
:1011A0002A225C004D3234004D3233202573006119
:1011B00075746F25692E67000A002F000A002E0043
:1011C00044656C6574696F6E206661696C65642C3A
:1011D0002046696C653A200046696C652064656C40
:1011E000657465643A002E002E002E002E004E6FAE
:1011F000772066726573682066696C653A20004ED8
:101200006F7720646F696E672066696C653A2000AD
:101210002220706F73002220706172656E743A2212
:1012200000535542524F5554494E452043414C4C72
:10123000207461726765743A2200747279696E670E
:1012400020746F2063616C6C207375622D67636F0F
:1012500064652066696C6573207769746820746FB3
:101260006F206D616E79206C6576656C732E204DF4
:101270004158206C6576656C2069733A00256920B9
:10128000686F757273202569206D696E757465735A
:101290000054494D454F55543A004D3131300046C8
:1012A000756C6C205258204275666665720022206B
:1012B0006661696C65643A2042756666657220668F
:1012C000756C6C2100456E717565696E6720746F71
:1012D000207468652066726F6E743A2022002200C6
:1012E000456E717565696E6720746F20746865203E
:1012F00066726F6E743A20220022206661696C6506
:10130000643A204275666665722066756C6C2100D1
:1013100022004D36303000507275736120693320E1
:101320004D4B33206F6B0050727573612069332011
:101330004D4B332072656164792E007A5F6D696E62
:101340003A20007A5F6D61783A20005A204F666635
:1013500073657400795F6D696E3A2000795F6D6125
:10136000783A20005920767A64616C656E6F7374E8
:10137000206F64206D696E3A00592064697374614E
:101380006E63652066726F6D206D696E3A00416E06
:101390006F0059657300785F6D696E3A2000785F61
:1013A0006D61783A200044657461696C7920585900
:1013B0005A206B616C2E0058595A2063616C2E20A4
:1013C00064657461696C73004E796E692070726F28
:1013D00076656475207A206B616C696272616369FD
:1013E0002E00492077696C6C2072756E207A20631C
:1013F000616C6962726174696F6E206E6F772E0026
:101400004E796E692070726F766564752078797A8E
:10141000206B616C6962726163692E205A6162653A
:10142000726520746F20707269626C697A6E6520D3
:101430003132206D696E2E00492077696C6C207204
:10144000756E2078797A2063616C69627261746963
:101450006F6E206E6F772E2049742077696C6C2038
:1014600074616B6520617070726F782E203132204C
:101470006D696E732E004E796E69207072656465B9
:101480006872656A6920747279736B752070726F07
:1014900020504C412E004E6F7720492077696C6CAC
:1014A0002070726568656174206E6F7A7A6C652051
:1014B000666F7220504C412E00446F627279206436
:1014C000656E2C206A73656D207661736520746982
:1014D000736B61726E61204F726967696E616C2017
:1014E00050727573612069332E204368636574659B
:1014F000206162796368205661732070726F76652F
:10150000646C61206B616C69627261636E696D20ED
:1015100070726F636573656D3F0048692C204920C8
:10152000616D20796F7572204F726967696E616CA9
:10153000205072757361206933207072696E746512
:10154000722E20576F756C6420796F75206C696BF3
:1015500065206D6520746F20677569646520796FFB
:1015600075207468726F756768207468652073658C
:101570007475702070726F636573733F005A616396
:101580006E75207469736B6E6F7574206C696E6B09
:101590007520612056792062756465746520706FCE
:1015A000737475706E6520736E697A6F76617420DE
:1015B000747279736B75206F746163656E696D20E9
:1015C000746C616369746B6120646F6B7564206E09
:1015D00065646F7361686E657465206F7074696DA2
:1015E000616C6E69207679736B792E2050726F680A
:1015F0006C65646E657465207369206F6272617AD0
:101600006B792076206E61736920707269727563E0
:1016100063652076206B617069746F6C65204B6127
:101620006C69627261636500492077696C6C207334
:101630007461727420746F207072696E74206C69AA
:101640006E6520616E6420796F752077696C6C20FF
:101650006772616475616C6C79206C6F776572205C
:10166000746865206E6F7A7A6C6520627920726F7B
:10167000746174696E6720746865206B6E6F622C8C
:1016800020756E74696C20796F752072656163686E
:10169000206F7074696D616C206865696768742E6D
:1016A00020436865636B2074686520706963747596
:1016B00072657320696E206F75722068616E646256
:1016C0006F6F6B20696E2063686170746572204370
:1016D000616C6962726174696F6E2E004E796E6919
:1016E000207A6B616C696272756A6920767A6461CE
:1016F0006C656E6F7374206D657A69206B6F6E63B5
:10170000656D20747279736B79206120706F7672C9
:101710006368656D2068656174626564752E004E4E
:101720006F7720492077696C6C2063616C69627205
:101730006174652064697374616E636520626574A9
:101740007765656E20746970206F66207468652007
:101750006E6F7A7A6C6520616E6420686561746270
:10176000656420737572666163652E004E656A64F8
:1017700072697620706F6D6F63692073656C667433
:1017800065737475207A6B6F6E746F6C756A6920FF
:101790006E656A63617374656A73692063687962F0
:1017A0007920767A6E696B616A6963692070726903
:1017B00020736573746176656E69207469736B61FB
:1017C000726E792E0046697273742C2049207769F5
:1017D0006C6C2072756E207468652073656C66741D
:1017E00065737420746F20636865636B206D6F731D
:1017F0007420636F6D6D6F6E20617373656D626CC5
:10180000792070726F626C656D732E005370757302
:1018100074656E692057697A617264612076796DAA
:10182000617A6520756C6F7A656E65207679736C68
:1018300065646B79207673656368206B616C69629F
:1018400072616369206120737075737469206B61C4
:101850006C69627261636E692070726F6365732078
:101860006F64207A616361746B752E20506F6B72A8
:1018700061636F7661743F0052756E6E696E6720AA
:1018800057697A6172642077696C6C2064656C6555
:1018900074652063757272656E742063616C696231
:1018A000726174696F6E20726573756C74732061F8
:1018B0006E642073746172742066726F6D20746838
:1018C0006520626567696E6E696E672E20436F6E74
:1018D00074696E75653F00436863657465206F7059
:1018E000616B6F76617420706F736C65646E6920D4
:1018F0006B726F6B206120706F7A6D656E697420FA
:10190000767A64616C656E6F7374206D657A692098
:10191000747279736B6F752061206865617462659C
:10192000643F00446F20796F752077616E74207476
:101930006F20726570656174206C617374207374BC
:10194000657020746F20726561646A7573742064B9
:10195000697374616E6365206265747765656E2076
:101960006E6F7A7A6C6520616E642068656174625E
:1019700065643F0057697A61726461206D757A65AC
:101980007465206B64796B6F6C6976207A6E6F7604
:10199000752073707573746974207A206D656E7527
:1019A0002043616C6962726174696F6E202D3E2004
:1019B00057697A61726400596F752063616E2061A6
:1019C0006C7761797320726573756D6520746865D5
:1019D0002057697A6172642066726F6D2043616C72
:1019E0006962726174696F6E202D3E2057697A6159
:1019F00072642E004A6520746F20504C4120666945
:101A00006C616D656E743F00497320697420504CA1
:101A1000412066696C616D656E743F0050726F7332
:101A2000696D20766C6F7A746520504C4120666930
:101A30006C616D656E7420646F2065787472756476
:101A40006572752C20706F20746520737469736BD8
:101A50006E65746520746C616369746B6F2070725D
:101A60006F207A61766564656E692066696C616D68
:101A7000656E74752E00506C6561736520696E73B8
:101A800065727420504C412066696C616D656E749E
:101A900020746F207468652065787472756465724F
:101AA0002C207468656E207072657373206B6E6F86
:101AB0006220746F206C6F61642069742E00507214
:101AC0006F73696D207A61766564746520504C414E
:101AD0002066696C616D656E74206120706F207482
:101AE00065206F626E6F7674652057697A617264E3
:101AF0006120737469736B6E7574696D20726573A0
:101B0000657420746C616369746B612E00506C6540
:101B1000617365206C6F616420504C412066696C74
:101B2000616D656E7420616E64207468656E2072EC
:101B30006573756D652057697A61726420627920DA
:101B40007265626F6F74696E672074686520707269
:101B5000696E7465722E005072656465687269768C
:101B6000616D20747279736B752E2050726F73697A
:101B70006D2063656B656A74652E005072656865DB
:101B80006174696E67206E6F7A7A6C652E20506C76
:101B90006561736520776169742E004A6520666906
:101BA0006C616D656E74207A61766564656E3F0068
:101BB00049732066696C616D656E74206C6F616439
:101BC00065643F00567365206A6520686F746F76A0
:101BD0006F2E00416C6C20697320646F6E652E203F
:101BE0004861707079207072696E74696E67210047
:101BF00050726F73696D206F6369737465746520CB
:101C000068656174626564206120737469736B6ECA
:101C100065746520746C616369746B6F2E00506C21
:101C20006561736520636C65616E206865617462CF
:101C3000656420616E64207468656E2070726573DF
:101C40007320746865206B6E6F622E0050726F7324
:101C5000696D206E61686C65646E65746520646F83
:101C6000206D616E75616C752061206F7072617698
:101C700074652070726F626C656D2E20506F2074D9
:101C800065206F626E6F7674652057697A61726441
:101C900061207265626F6F746F76616E696D20741A
:101CA00069736B61726E792E00506C65617365208B
:101CB000636865636B206F75722068616E64626F24
:101CC0006F6B20616E64206669782074686520708F
:101CD000726F626C656D2E205468656E207265733C
:101CE000756D65207468652057697A617264206239
:101CF00079207265626F6F74696E67207468652001
:101D00007072696E7465722E0057697A6172640030
:101D1000205761746368646F67205265736574004F
:101D2000496E666F726D61636500496E666F207300
:101D3000637265656E0043656B616E69206E61203C
:101D40007A63686C61646E75746920747279736B00
:101D500079206120706F646C6F7A6B792E00576107
:101D60006974696E6720666F72206E6F7A7A6C652F
:101D700020616E642062656420636F6F6C696E67BA
:101D8000004B616C2E207072766E692076727374CF
:101D90007679004669727374206C6179657220638C
:101DA000616C2E005761697420666F7220757365CF
:101DB000722E2E2E00506F757A69746520626568E8
:101DC000656D207469736B75005573656420647567
:101DD00072696E67207072696E74004F70616B6F0C
:101DE00076617420767973756E7574692066696C96
:101DF000616D656E74753F00526570656174207524
:101E00006E6C6F6164696E672066696C616D656E8A
:101E1000743F0056796A6D6F75742066696C616DE8
:101E2000656E7400556E6C6F61642066696C616DDF
:101E3000656E74005679736F7576616D2066696C96
:101E4000616D656E7400556E6C6F6164696E6720BC
:101E500066696C616D656E7400556E6B6E6F776E42
:101E600020636F6D6D616E643A2022004C6164697D
:101E7000740054756E650053442063617264205B86
:101E8000466C73684169725D0053442063617264FB
:101E900020205B6E6F726D616C5D005465706C2EFE
:101EA000206B616C2E20205B7A61705D0054656D43
:101EB000702E2063616C2E2020205B6F6E5D0054BD
:101EC00065706C2E206B616C2E20205B7679705DC6
:101ED0000054656D702E2063616C2E20205B6F6650
:101EE000665D005465706C6F746E69206B616C691F
:101EF000627261636520646F6B6F6E63656E612EE5
:101F000020506F6B726163756A74652073746973B6
:101F10006B656D20746C616369746B612E00546530
:101F20006D70657261747572652063616C6962724F
:101F30006174696F6E2069732066696E6973686584
:101F4000642E20436C69636B20746F20636F6E7422
:101F5000696E75652E005465706C2E206B616C2E59
:101F6000202020202020202020200054656D702E6D
:101F70002063616C2E2020202020202020202000A3
:101F80005465706C6F74610054656D706572617436
:101F900075726500506F64706F7261005375707078
:101FA0006F7274005A617374617669742074697316
:101FB0006B0053746F70207072696E740053544FCD
:101FC000505045442E200053746570726174652032
:101FD000746F6F20686967683A20004A65207469E9
:101FE000736B6F767920706C6174206E6120686508
:101FF00061746265643F00497320737465656C2089
:102000007368656574206F6E2068656174626564CD
:102010003F0043656C6B6F767920636173203A00F3
:10202000546F74616C207072696E742074696D6590
:10203000203A0046696C616D656E742063656C6B57
:10204000656D203A00546F74616C2066696C616D37
:10205000656E74203A00436173207469736B752058
:102060003A2020005072696E742074696D653A20C0
:10207000200046696C616D656E74203A2020004630
:10208000696C616D656E7420757365643A2020001B
:1020900053746174697374696B61202000537461B7
:1020A00074697374696373202000436879626120E6
:1020B0002D20446F736C6F206B2070726570697394
:1020C00075207374617469636B652070616D6574EC
:1020D0006921004572726F72202D207374617469DA
:1020E00063206D656D6F727920686173206265652C
:1020F0006E206F7665727772697474656E005279BE
:1021000063686C6F73740053706565640054726922
:1021100064656E6920202020205B4361735D00535D
:102120006F72743A2020202020205B54696D655D19
:102130000054726964656E692020205B5A61646E88
:10214000655D00536F72743A2020202020205B4E82
:102150006F6E655D0054726964656E69205B4162F3
:1021600065636564615D00536F72743A20205B4162
:102170006C7068616265745D0054726964656E6953
:1021800020736F75626F727500536F7274696E673A
:102190002066696C65730020536F667477617265A1
:1021A000205265736574004C65686B65207A6B6FAF
:1021B00073656E693A00536C6967687420736B6568
:1021C000773A004D6F6420202020205B53746561B6
:1021D0006C74685D004D6F6465202020205B537433
:1021E00065616C74685D004D6F64202020202020A4
:1021F0005B4E6F726D616C5D004D6F6465202020D9
:1022000020205B4E6F726D616C5D005374617620AF
:102210006B6F6E632E207370696E2E0053686F773C
:1022200020656E642073746F70730054657A6B65FB
:10223000207A6B6F73656E693A00536576657265D7
:1022400020736B65773A004E617374617674652014
:102250007465706C6F74753A005365742074656DA5
:1022600070657261747572653A004E61737461765F
:10227000656E690053657474696E677300436879AD
:102280006261207A61706F6A656E69005769726970
:102290006E67206572726F720050726F686F7A6538
:1022A0006E6500537761707065640053656C6620DD
:1022B00074657374207374617274202000546973A0
:1022C0006B6F76792076656E742E3A005072696E67
:1022D000742066616E3A005A6B6F6E74726F6C7523
:1022E0006A7465203A00506C6561736520636865A7
:1022F000636B203A0053656C662074657374204FDD
:102300004B004E657A61706F6A656E6F20202020E9
:10231000004E6F7420636F6E6E6563746564004D6C
:102320006F746F72004865617465722F54686572CE
:102330006D6973746F720053656E7A6F722066698F
:102340006C616D656E74753A0046696C616D656EA1
:10235000742073656E736F723A00507265646E69B3
:102360002F6C6576792076656E742E0046726F6EDE
:10237000742F6C6566742066616E730054657374A7
:102380002076656E74696C61746F72750046616E5B
:1023900020746573740053656C6674657374207380
:1023A000656C68616C20200053656C66746573749D
:1023B000206661696C65642020004C657679207622
:1023C000656E742E3A004578747275646572206685
:1023D000616E3A004C6576792076656E74206E6188
:1023E000207472797363653F004C65667420686F72
:1023F00074656E642066616E3F0053656C6674653B
:102400007374206572726F72202100456E6473745C
:102410006F70206E6F742068697400456E64737409
:102420006F707300456E6473746F700050726564F2
:102430006E69207469736B6F76792076656E743F70
:102440000046726F6E74207072696E742066616EE1
:102450003F004B6F6E74726F6C61205A2061786917
:1024600073202000436865636B696E67205A2061A2
:102470007869732020004B6F6E74726F6C61205905
:102480002061786973202000436865636B696E671B
:10249000205920617869732020004B6F6E74726F31
:1024A0006C6120582061786973202000436865635F
:1024B0006B696E67205820617869732020004B6F2C
:1024C0006E74726F6C6120686F74656E642020009A
:1024D000436865636B696E6720686F74656E64201E
:1024E00020004B6F6E74726F6C612073656E7A6F33
:1024F000727500436865636B696E672073656E7300
:102500006F727320004B6F6E74726F6C6120656E1A
:102510006473746F707300436865636B696E6720E2
:10252000656E6473746F7073004B6F6E74726F6C52
:102530006120626564202020202000436865636B71
:10254000696E672062656420202020200056736534
:10255000204F4B2020202020202020202020004120
:102560006C6C20636F7272656374202020202020C1
:1025700000426564202F20486561746572004465DF
:102580006C6B61206F73790041786973206C656EA4
:10259000677468004F736100417869730053656C1C
:1025A0006674657374202020202020202020005293
:1025B000506920706F7274202020205B7A61705DFA
:1025C0000052506920706F727420202020205B6FB1
:1025D0006E5D0052506920706F7274202020205B65
:1025E0007679705D0052506920706F7274202020DF
:1025F000205B6F66665D0057726974696E67207450
:102600006F2066696C653A2000766F6C756D652E7B
:10261000696E6974206661696C6564002053697A2B
:10262000653A20004B617274612076796A6D757429
:102630006100436172642072656D6F76656400535A
:1026400044207072696E74696E67206279746520C7
:10265000006F70656E206661696C65642C20466948
:102660006C653A20006F70656E526F6F7420666102
:10267000696C6564004B6172746120766C6F7A6579
:102680006E61004361726420696E73657274656483
:1026900000534420696E6974206661696C00466964
:1026A0006C652073656C65637465640046696C6570
:1026B000206F70656E65643A20006572726F7220DB
:1026C00077726974696E6720746F2066696C650043
:1026D00053442063617264206F6B0043616E6E6FC0
:1026E0007420656E746572207375626469723A2035
:1026F0000050726176793A0052696768743A004F07
:10270000626E6F766F76616E69207469736B7500A7
:10271000526573756D696E67207072696E74004FD3
:10272000626E6F76656E69207469736B75005265B1
:1027300073756D696E67207072696E7400506F6B8F
:102740007261636F76617400526573756D65207098
:1027500072696E7400526573656E643A20004F644E
:10276000737472616E7465207469736B6F7679200F
:10277000706C6174207A2068656174626564207091
:10278000726F73696D2E00506C65617365207265A0
:102790006D6F766520737465656C2073686565740C
:1027A0002066726F6D20686561746265642E0044F6
:1027B0006574656B6F76616E207679706164656BA8
:1027C0002070726F7564752E4F626E6F766974201B
:1027D0007469736B3F00426C61636B6F7574206F3B
:1027E000636375727265642E205265636F766572DD
:1027F000207072696E743F004F626E6F766F766103
:102800006E69207469736B75202020200052656307
:102810006F766572696E67207072696E7420202011
:102820002000686F77746F2E707275736133642E39
:10283000637A00686F77746F2E707275736133649A
:102840002E636F6D00666F72756D2E707275736199
:1028500033642E637A00666F72756D2E70727573B5
:102860006133642E636F6D00707275736133642E13
:10287000637A00707275736133642E636F6D0054F8
:1028800069736B20706F7A6173746176656E005046
:1028900072696E7420706175736564005469736B3E
:1028A00020707265727573656E005072696E742067
:1028B00061626F72746564005072696E7465722033
:1028C000646973636F6E6E65637465640050726FE4
:1028D00020767973756E7574692066696C616D65B3
:1028E0006E747520737469736B6E65746520707295
:1028F0006F73696D20746C616369746B6F00506CE9
:102900006561736520707265737320746865206BF0
:102910006E6F6220746F20756E6C6F6164206669E3
:102920006C616D656E74006120737469736B6E65A4
:10293000746520746C616369746B6F00616E6420F0
:10294000707265737320746865206B6E6F620050DF
:10295000726564656872656A746520747279736BF8
:102960007521005072656865617420746865206E19
:102970006F7A7A6C6521005072656465687265765D
:10298000005072656865617400506F7765725570AC
:102990000050726F73696D2063656B656A746500C2
:1029A000506C656173652077616974004E656A6477
:1029B00072697665207A61766564746520504C4151
:1029C0002066696C616D656E742070726F73696DDD
:1029D0002E00506C65617365206C6F616420504CF3
:1029E000412066696C616D656E74206669727374EE
:1029F0002E004A6520504C412066696C616D656E01
:102A000074207A61766564656E3F00497320504C8E
:102A1000412066696C616D656E74206C6F616465E0
:102A2000643F002020506C616E6E65724275666670
:102A3000657242797465733A2000556D69737465E7
:102A400074652070726F73696D207469736B6F7633
:102A50007920706C6174206E6120686561746265B4
:102A60006400506C6561736520706C6163652073F0
:102A70007465656C207368656574206F6E20686589
:102A800061746265642E004E6168726976616E6978
:102A90002050494E44410050494E44412048656110
:102AA00074696E6700504944206B616C2E202020B1
:102AB0002020202020202020005049442063616CE9
:102AC0002E2020202020202020202020005049449B
:102AD000206B616C2E20756B6F6E63656E610050AC
:102AE00049442063616C2E2066696E697368656471
:102AF00000504944206B616C6962726163650050EB
:102B000049442063616C6962726174696F6E005040
:102B10006F7A61737461766974207469736B0050A5
:102B200061757365207072696E7400556D69737498
:102B3000657465206C6973742070617069727520AA
:102B40006E6120706F646C6F7A6B752061207564A4
:102B5000727A756A7465206A656A20706F64207481
:102B60007279736B6F7520626568656D206D657233
:102B7000656E69207072766E696368203420626FBA
:102B800064752E20506F6B756420747279736B615D
:102B9000207A6163687974692070617069722C2091
:102BA0007679706E657465207469736B61726E7589
:102BB0002E00506C61636520612073686565742028
:102BC0006F6620706170657220756E646572207426
:102BD0006865206E6F7A7A6C6520647572696E67BD
:102BE000207468652063616C6962726174696F6EDC
:102BF000206F66206669727374203420706F696E6E
:102C000074732E20496620746865206E6F7A7A6C22
:102C10006520636174636865732074686520706102
:102C20007065722C20706F776572206F66662074F5
:102C30006865207072696E74657220696D6D656477
:102C4000696174656C792E006F6B004F6666004E8B
:102C50006F206D6F76652E005A61646E612053445B
:102C6000206B61727461004E6F2053442063617267
:102C70006400547279736B61004E6F7A7A6C6500F0
:102C800046696C616D656E74206E657A6176656407
:102C9000656E0046696C616D656E74206E6F7420A0
:102CA0006C6F61646564004261727661206E656E6E
:102CB0006920636973746100436F6C6F72206E6F7B
:102CC0007420636F7272656374004E65004E6F000E
:102CD00050726F73696D20616B7475616C697A7580
:102CE0006A74652E00506C6561736520757067723B
:102CF0006164652E005679736C61206E6F76612079
:102D00007665727A65206669726D776172653A00E0
:102D10004E6577206669726D77617265207665729F
:102D200073696F6E20617661696C61626C653A00EF
:102D3000506F73756E6F7574205A004D6F766520F5
:102D40005A00506F73756E6F75742059004D6F7611
:102D500065205900506F73756E6F75742058004D63
:102D60006F766520580045787472756465720050FE
:102D70006F73756E6F7574206F7375004D6F766528
:102D80002061786973004D65736820426564204C4A
:102D90006576656C696E67004E6170657469005692
:102DA0006F6C7461676573005465706C6F74790043
:102DB00054656D706572617475726573004B616CFA
:102DC0006962726163650043616C69627261746912
:102DD0006F6E00537461762072656D656E7500428A
:102DE000656C742073746174757300207A203900E7
:102DF000206F662039004D6572696D2072656665C9
:102E000072656E636E69207679736B75206B616C89
:102E100069627261636E69686F20626F6475004DEC
:102E20006561737572696E67207265666572656E3D
:102E3000636520686569676874206F662063616CEC
:102E40006962726174696F6E20706F696E74004D93
:102E50006572656E65207A6B6F73656E693A004DB9
:102E60006561737572656420736B65773A00486CB1
:102E700061766E69206E616269646B61004D6169A3
:102E80006E004D32323120496E76616C6964206586
:102E90007874727564657220004D32313820496E45
:102EA00076616C696420657874727564657220005F
:102EB0004D32303020496E76616C696420657874DB
:102EC000727564657220005265706F7274696E6706
:102ED00020656E6473746F70207374617475730011
:102EE0004D313137204B616C2E207072766E692027
:102EF000767273747679004D31313720466972737A
:102F000074206C617965722063616C2E00464952B1
:102F10004D574152455F4E414D453A4D61726C6986
:102F20006E2056312E302E323B20537072696E74F3
:102F300065722F6772626C206D61736875702066B0
:102F40006F722067656E36204649524D5741524593
:102F50005F55524C3A68747470733A2F2F676974D6
:102F60006875622E636F6D2F707275736133642F95
:102F700050727573612D69332D506C75732F20500D
:102F8000524F544F434F4C5F56455253494F4E3A60
:102F9000312E30204D414348494E455F54595045EC
:102FA0003A5072757361206933204D4B3320455878
:102FB0005452554445525F434F554E543A31205573
:102FC0005549443A30303030303030302D303030A8
:102FD000302D303030302D303030302D30303030FA
:102FE00030303030303030300A004D313039204907
:102FF0006E76616C696420657874727564657220A0
:10300000004D31303520496E76616C6964206578F9
:1030100074727564657220004D31303420496E76CB
:10302000616C6964206578747275646572200055FE
:10303000766F6C6E656E612072656D656E69636B2F
:1030400061004C6F6F73652070756C6C6579005A08
:1030500061766573742066696C616D656E74004C91
:103060006F61642066696C616D656E74005A61768B
:103070006164656E692066696C616D656E7475006A
:103080004C6F6164696E672066696C616D656E7412
:103090000043697374656E69206261727679004CD1
:1030A0006F6164696E6720636F6C6F72004C657648
:1030B000793A004C6566743A005679626572206A06
:1030C000617A796B610053656C656374206C616E25
:1030D00067756167650043657374696E6100456E6D
:1030E000676C697368004B494C4C45442E2000497D
:1030F0006E76616C696420657874727564657200BF
:10310000566C6F7A74652066696C616D656E7400CB
:10311000496E736572742066696C616D656E7400CA
:103120005469736B2E2076656E743A005072696E26
:10313000742046414E3A2000547279736B2E2076EB
:10314000656E743A004E6F7A7A6C652046414E3A4D
:1031500000457874727564657220696E666F002030
:103160007A203400206F662034005A6C65707375C5
:103170006A6920707265736E6F7374206B616C691D
:10318000627261636E69686F20626F647500496D79
:1031900070726F76696E67206265642063616C6926
:1031A00062726174696F6E20706F696E74004B613A
:1031B0006C696272756A69205A0043616C69627257
:1031C0006174696E67205A004B616C696272616359
:1031D00065204F4B0043616C6962726174696F6E68
:1031E00020646F6E65004B616C6962726F7661740A
:1031F000205A0043616C696272617465205A005AFA
:103200006168726976616E69204F4B2E0048656176
:1032100074696E6720646F6E652E005A616872690A
:1032200076616E690048656174696E67004348594C
:1032300042413A2046696C616D656E742073656E1B
:103240007A6F72206E6572656167756A652C207A87
:103250006B6F6E74726F6C756A7465207A61706FD3
:103260006A656E692E004552524F523A2046696C8B
:10327000616D656E742073656E736F722069732063
:103280006E6F7420726573706F6E64696E672C2048
:10329000706C6561736520636865636B20636F6E36
:1032A0006E656374696F6E2E00462E206175746FB3
:1032B0007A61762E205B7A61705D00462E20617502
:1032C000746F6C6F616420205B6F6E5D00462E2012
:1032D0006175746F7A61762E205B7679705D004639
:1032E0002E206175746F6C6F6164205B6F66665D24
:1032F00000462E206175746F7A61762E205B4E2F0A
:10330000415D00462E206175746F6C6F6164205BB7
:103310004E2F415D0046696C2E2073656E7A6F7288
:10332000205B7A61705D0046696C2E2073656E7358
:103330006F7220205B6F6E5D0046696C2E20736596
:103340006E7A6F72205B7679705D0046696C2E2014
:1033500073656E736F72205B6F66665D0046696CA5
:103360002E2073656E7A6F72205B4E2F415D004692
:10337000696C2E2073656E736F72205B4E2F415DFA
:10338000002046726565204D656D6F72793A2000A8
:103390005469736B61726E61206E6562796C612035
:1033A0006A65737465207A6B616C6962726F7661AD
:1033B0006E612E20506F73747570756A746520701D
:1033C000726F73696D20706F646C65206D616E75CE
:1033D000616C752C206B617069746F6C61205A612F
:1033E00063696E616D652C206F64737461766563CB
:1033F00020506F73747570206B616C6962726163C9
:10340000652E005072696E74657220686173206E5B
:103410006F74206265656E2063616C6962726174AD
:103420006564207965742E20506C65617365206633
:103430006F6C6C6F7720746865206D616E75616C60
:103440002C20636861707465722046697273742001
:1034500073746570732C2073656374696F6E204399
:10346000616C6962726174696F6E20666C6F772E31
:1034700000507275746F6B00466C6F7700446F6B11
:103480006F6E636F76616E6920706F687962750028
:1034900046696E697368696E67206D6F76656D65E4
:1034A0006E747300207A203400206F662034004848
:1034B0006C6564616D206B616C69627261636E69D9
:1034C00020626F6420706F646C6F7A6B7900536553
:1034D00061726368696E67206265642063616C690C
:1034E00062726174696F6E20706F696E74004974E6
:1034F00065726163652000497465726174696F6EFD
:103500002000446F6E6520736176696E672066697E
:103510006C652E00446F6E65207072696E74696E02
:10352000672066696C6500536F75626F72206E6507
:103530006B6F6D706C65746E692E20506F6B72616D
:10354000636F7661743F0046696C6520696E636FD6
:103550006D706C6574652E20436F6E74696E756551
:1035600020616E797761793F004E656B7465726595
:1035700020736F75626F7279206E656275646F7506
:1035800020736574726964656E792E204D61786967
:103590006D616C6E6920706F63657420736F756206
:1035A0006F72752070726F20736574726964656ED6
:1035B00069206A65203130302E00536F6D652066BA
:1035C000696C65732077696C6C206E6F742062651E
:1035D00020736F727465642E204D61782E204E6FBB
:1035E0002E206F662066696C657320696E2031201D
:1035F000666F6C64657220666F7220736F72746997
:103600006E67206973203130302E0053656E7A6FFB
:10361000722066696C616D656E74750046696C61D7
:103620006D656E742073656E736F720046696C61B0
:103630006D656E74207679746C6163656E206120AF
:1036400073707261766E652062617276793F0046B2
:10365000696C616D656E7420657874727564696EED
:10366000672026207769746820636F7272656374BF
:1036700020636F6C6F723F0056796D656E697420C0
:1036800066696C616D656E74004368616E67652084
:1036900066696C616D656E7400527963686C6F73F6
:1036A000742076656E742E0046616E2073706565B9
:1036B00064004B6F6E74722E2076656E742E5B7A8A
:1036C00061705D0046616E7320636865636B2020E6
:1036D000205B6F6E5D004B6F6E74722E2076656E90
:1036E000742E5B7679705D0046616E732063686549
:1036F000636B20205B6F66665D00656E7175656942
:103700006E672022004578747275646572002045EA
:10371000787465726E616C205265736574005072C6
:10372000696E7465722073746F707065642064755F
:103730006520746F206572726F72732E20466978EF
:1037400020746865206572726F7220616E642075E6
:103750007365204D39393920746F20726573746137
:1037600072742E202854656D70657261747572656F
:103770002069732072657365742E20536574206907
:103780007420616674657220726573746172746905
:103790006E6729004E6F204C696E65204E756D6214
:1037A0006572207769746820636865636B73756DF3
:1037B0002C204C617374204C696E653A20004E6F6A
:1037C00020436865636B73756D2077697468206C3E
:1037D000696E65206E756D6265722C204C61737424
:1037E000204C696E653A200020746F6F206C6F6EFC
:1037F0006720657874727573696F6E207072657674
:10380000656E746564004C696E65204E756D626509
:1038100072206973206E6F74204C617374204C6940
:103820006E65204E756D6265722B312C204C617374
:1038300074204C696E653A20005072696E7465722E
:103840002068616C7465642E206B696C6C2829207B
:1038500063616C6C6564210020636F6C6420657823
:1038600074727573696F6E2070726576656E7465BB
:103870006400636865636B73756D206D69736D615A
:103880007463682C204C617374204C696E653A2017
:103890000043485942413A004552524F523A00457E
:1038A0006E642066696C65206C697374006F706566
:1038B0006E0054524947474552454400656E647353
:1038C000746F7073206869743A2000536C6565707A
:1038D0002E2E2E005679706E6F7574206D6F746F7A
:1038E00072790044697361626C65207374657070ED
:1038F00065727300446174756D3A00446174653A91
:1039000000506F757A6520616B7475616C6E69002B
:1039100043757272656E7400504F5A4F523A20438D
:103920007261736820646574656B636520646561AA
:103930006B7469766F76616E61207665205374656D
:10394000616C7468206D6F6475005741524E494E2A
:10395000473A2043726173682064657465637469D3
:103960006F6E2064697361626C656420696E2053B8
:103970007465616C7468206D6F6465004372617377
:103980006820646574656B6365206D757A65206277
:103990007974207A61706E75746120706F757A65C4
:1039A0002076204E6F726D616C206D6F64750043E0
:1039B0007261736820646574656374696F6E2063F7
:1039C000616E206265207475726E6564206F6E2072
:1039D0006F6E6C7920696E204E6F726D616C206D18
:1039E0006F64652E004372617368206465742E20D5
:1039F000205B7A61705D0043726173682064657456
:103A00002E2020205B6F6E5D00437261736820641E
:103A100065742E20205B7679705D00437261736857
:103A2000206465742E20205B6F66665D00437261C2
:103A30007368206465742E20205B4E2F415D00204A
:103A4000436F756E7420583A200056796D656E612B
:103A5000206F6B3F004368616E67656420636F721F
:103A6000726563746C793F005A63686C6164697451
:103A700000436F6F6C646F776E0050726F207573C8
:103A80007065736E6F75206B616C696272616369DA
:103A9000206F636973746574652070726F73696DEC
:103AA000207469736B6F766F7520747279736B75A0
:103AB0002E20506F74767264746520746C61636933
:103AC000746B656D2E00506C6561736520636C6569
:103AD000616E20746865206E6F7A7A6C6520666FFF
:103AE000722063616C6962726174696F6E2E20432B
:103AF0006C69636B207768656E20646F6E652E005D
:103B0000204C61737420557064617465643A2000C0
:103B10005679626572746520657874727564657231
:103B20003A0043686F6F73652065787472756465D9
:103B3000723A005A6D656E612075737065736E61BF
:103B400021004368616E67652073756363657373F5
:103B500021005469736B207A205344005072696EBF
:103B6000742066726F6D205344005465706C6F74DE
:103B70002E206B616C6962726163650054656D70C3
:103B80002E2063616C6962726174696F6E004B61B3
:103B90006C696272756A69205A0043616C6962726D
:103BA0006174696E67205A005A6B616C6962726F4A
:103BB0007661740043616C6962726174650052657C
:103BC0007365742058595A206B616C6962722E00BB
:103BD00052657365742058595A2063616C6962722A
:103BE0002E004B616C6962726163652058595A00FE
:103BF00043616C6962726174652058595A002042B1
:103C0000726F776E206F7574205265736574004211
:103C10006567696E2066696C65206C697374004B1A
:103C2000616C6962726163652058595A206E6570D3
:103C30007265736E612E204C6576792070726564B2
:103C40006E6920626F64206D6F63207670726564A8
:103C5000752E0058595A2063616C696272617469EB
:103C60006F6E20636F6D70726F6D697365642E2067
:103C70004C6566742066726F6E742063616C696255
:103C8000726174696F6E20706F696E74206E6F74EC
:103C900020726561636861626C652E004B616C69BE
:103CA00062726163652058595A206E65707265733F
:103CB0006E612E20507265646E69206B616C696262
:103CC0007261636E6920626F6479206D6F63207624
:103CD00070726564752E0058595A2063616C696270
:103CE000726174696F6E20636F6D70726F6D69734E
:103CF00065642E2046726F6E742063616C69627217
:103D00006174696F6E20706F696E7473206E6F746A
:103D100020726561636861626C652E004B616C693D
:103D200062726163652058595A207620706F726103
:103D3000646B752E20582F59206F7379206D69722E
:103D40006E65207A6B6F73656E652E20446F6272AC
:103D500061207072616365210058595A2063616C5B
:103D60006962726174696F6E20616C6C2072696740
:103D700068742E20582F5920617865732061726510
:103D800020736C696768746C7920736B6577656400
:103D90002E20476F6F64206A6F6221004B616C694F
:103DA00062726163652058595A207620706F726183
:103DB000646B752E205A6B6F73656E692062756433
:103DC00065206175746F6D617469636B79207679B4
:103DD000726F766E616E6F20707269207469736B9A
:103DE000752E0058595A2063616C6962726174695A
:103DF0006F6E20616C6C2072696768742E20536B43
:103E000065772077696C6C20626520636F727265DC
:103E100063746564206175746F6D61746963616C4E
:103E20006C792E004B616C69627261636520585930
:103E30005A2073656C68616C612E204B616C6962FD
:103E40007261636E6920626F6420706F646C6F7A58
:103E50006B79206E656E616C657A656E2E005859BF
:103E60005A2063616C6962726174696F6E20666169
:103E7000696C65642E204265642063616C696272BE
:103E80006174696F6E20706F696E74207761732042
:103E90006E6F7420666F756E642E004B616C696284
:103EA000726163652058595A207620706F72616480
:103EB0006B752E20582F59206F7379206A736F7598
:103EC000206B6F6C6D652E2047726174756C756A1E
:103ED00069210058595A2063616C69627261746982
:103EE0006F6E206F6B2E20582F59206178657320DC
:103EF0006172652070657270656E646963756C616E
:103F0000722E20436F6E67726174756C6174696F95
:103F10006E7321004B616C69627261636520585950
:103F20005A2073656C68616C612E204E61686C6507
:103F3000646E65746520646F206D616E75616C756B
:103F40002E0058595A2063616C6962726174696FFE
:103F50006E206661696C65642E20506C65617365C6
:103F600020636F6E73756C7420746865206D616E6C
:103F700075616C2E004B616C6962726163652058DB
:103F8000595A2073656C68616C612E204C65767996
:103F900020707265646E6920626F64206D6F6320AB
:103FA0007670726564752E2053726F766E656A74D2
:103FB00065207469736B61726E752E0058595A20B2
:103FC00063616C6962726174696F6E206661696CAD
:103FD00065642E204C6566742066726F6E74206373
:103FE000616C6962726174696F6E20706F696E7462
:103FF000206E6F7420726561636861626C652E006B
:104000004B616C6962726163652058595A2073650F
:104010006C68616C612E20507265646E69206B6102
:104020006C69627261636E6920626F6479206D6F82
:1040300063207670726564752E2053726F766E659C
:104040006A7465207469736B61726E752E005859BD
:104050005A2063616C6962726174696F6E20666177
:10406000696C65642E2046726F6E742063616C69A2
:1040700062726174696F6E20706F696E7473206E06
:104080006F7420726561636861626C652E004B61BC
:104090006C696272616365205A2073656C68616C3B
:1040A000612E2053656E736F72206A65206F647095
:1040B0006F6A656E79206E65626F207072657275C9
:1040C00073656E79206B6162656C2E2043656B6150
:1040D0006D206E612072657365742E0042656420E8
:1040E0006C6576656C696E67206661696C65642EC7
:1040F0002053656E736F7220646973636F6E6E65B3
:1041000063746564206F72206361626C6520627203
:104110006F6B656E2E2057616974696E6720666FDC
:10412000722072657365742E004B616C69627261F6
:104130006365205A2073656C68616C612E2053653D
:104140006E736F72206E657365706E756C2E205A7B
:104150006E6563697374656E6120747279736B61E7
:104160003F2043656B616D206E61207265736574DD
:104170002E00426564206C6576656C696E6720660A
:1041800061696C65642E2053656E736F722064697B
:10419000646E7420747269676765722E204465626C
:1041A000726973206F6E206E6F7A7A6C653F20574C
:1041B000616974696E6720666F72207265736574D9
:1041C0002E004B616C696272616365205A207365D1
:1041D0006C68616C612E2053656E736F722073651D
:1041E000706E756C207072696C6973207679736F6C
:1041F0006B6F2E2043656B616D206E61207265735D
:1042000065742E00426564206C6576656C696E6726
:10421000206661696C65642E2053656E736F722031
:1042200074726967676572656420746F6F2068696E
:1042300067682E2057616974696E6720666F722007
:1042400072657365742E005A6168726976616E6971
:1042500020626564004265642048656174696E6728
:1042600000426564204F4B2E0042656420646F6EEF
:10427000650056707261766F205B756D5D005269E6
:1042800067687420736964655B756D5D0052657362
:10429000657400567A61647520205B756D5D00520F
:1042A0006561722073696465205B756D5D004B6F9D
:1042B00072656B636520706F646C6F7A6B79004216
:1042C0006564206C6576656C20636F7272656374DB
:1042D00000566C65766F20205B756D5D004C6566E1
:1042E000742073696465205B756D5D00567072653E
:1042F0006475205B756D5D0046726F6E7420736926
:1043000064655B756D5D00426564004E656E692095
:104310007A6B616C6962726F76616E6120767A6425
:10432000616C656E6F737420747279736B79206F32
:1043300064207469736B6F766520706F646C6F7A3C
:104340006B792E20506F73747570756A7465207068
:10435000726F73696D20706F646C65206D616E752E
:10436000616C752C206B617069746F6C61205A618F
:1043700063696E616D652C206F647374617665632B
:10438000204E6173746176656E69207072766E6915
:10439000207672737476792E0044697374616E634B
:1043A00065206265747765656E20746970206F663C
:1043B00020746865206E6F7A7A6C6520616E642067
:1043C0007468652062656420737572666163652038
:1043D000686173206E6F74206265656E207365740A
:1043E000207965742E20506C6561736520666F6C52
:1043F0006C6F7720746865206D616E75616C2C2020
:104400006368617074657220466972737420737496
:104410006570732C2073656374696F6E20466972D2
:104420007374206C617965722063616C696272617A
:1044300074696F6E2E00446F6C6164656E69206FE5
:104440007379205A004C6976652061646A757374CB
:10445000205A0041646A757374696E67205A00417E
:1044600075746F20686F6D65004175746F5A617661
:104470006564656E692066696C2E004175746F4CC9
:104480006F61642066696C616D656E74004175745E
:104490006F6D617469636B65207A61766164656EC6
:1044A000692066696C616D656E747520646F7374E4
:1044B00075706E6520706F757A6520707269207AEC
:1044C00061706E7574656D2066696C616D656E7482
:1044D0002073656E7A6F72752E2E2E004175746F83
:1044E0006C6F6164696E672066696C616D656E747E
:1044F00020617661696C61626C65206F6E6C7920F9
:104500007768656E2066696C616D656E7420736591
:104510006E736F72206973207475726E6564206F9C
:104520006E2E2E2E004175746F6D617469636B651C
:10453000207A61766164656E692066696C616D657B
:104540006E747520616B7469766E692C2073746962
:10455000736B6E65746520746C616369746B6F2036
:104560006120766C6F7A74652066696C616D656E2A
:10457000742E2E2E004175746F6C6F6164696E67C6
:104580002066696C616D656E742069732061637467
:104590006976652C206A7573742070726573732058
:1045A000746865206B6E6F6220616E6420696E7343
:1045B0006572742066696C616D656E742E2E2E00B6
:1045C000207C20417574686F723A20005673650034
:1045D000416C6C004163746976652045787472752E
:1045E0006465723A2000271317133B1343134B13D0
:1045F00054135C137913641392138E1396139E1342
:10460000B713A613E213C8133814001496147614C3
:104610001A15B91428167D151F17DC16C5176C1747
:1046200078180C182319D718B7197419081AF4191F
:10463000761A1C1A0D1BBE1A7B1B571BB01B9B1B2B
:10464000D31BC41B1E1CF01BA91C4C1C091D101DD8
:104650002A1D201D5E1D361D931D811DA41DC91D13
:10466000B51DF81DDB1D241E131E461E341E591ECB
:10467000721E6C1E771E891EAD1E9B1ED11EBF1E94
:104680001E1FE31E6B1F561F881F801F9C1F941F39
:10469000B21FA41FBD1FC71FF71FDB1F2020122042
:1046A00045203320642056207F2072209D209020BA
:1046B000D320AA200721FE201F210D2143213121D3
:1046C00067215521892179219721B621A721D5215B
:1046D000C321F921E7211C220B223A222B22592245
:1046E000472274226A228C227D22A3229922AB22A5
:1046F000CC22BD22E622D722F522112302231F233A
:104700002523492337236C235A238D237C23A82375
:104710009623C623BA23E923D423FA230B241B248C
:10472000242441242C246424522488247624AC2478
:104730009A24D024BE24F324E224172505253B2502
:1047400029255F254D25712588257E2598259425C9
:104750009D25C125AF25E525D325F72509261C264E
:10476000322624263F265126652683267526912645
:104770009E26AC26BA26D026DB26F826F126102760
:10478000FF262E271F2748273D27552787275E27E7
:10479000D627AF270D28F827332822285628452862
:1047A000732868288F287F28AA289C28B828FE28E4
:1047B000CD283C29272963294F298129772989294F
:1047C000A0299129D229AC290B2AF229232A622A6D
:1047D0003A2A972A872AB92AA52ADF2ACD2AFF2A28
:1047E000F12A1F2B0F2BB22B2B2B482C4B2C4F2C91
:1047F000672C582C792C722C932C802CB82CA72C3D
:10480000CD2CCA2CE52CD02C102DF52C3B2D302D89
:104810004D2D422D5F2D542D662D7C2D6F2D862D17
:104820009F2D982DB02DA82DC72DBD2DDF2DD32D5B
:10483000F02DEB2D1F2EF62D5F2E4F2E7D2E6E2E82
:10484000822E992EB02EC72EF72EE02E0D2FEA2F96
:104850000130183042302F305F304F3080306D30B3
:104860009F309130B330AD30C630B930DE30D63005
:10487000E630EF30103100312C3120314531383104
:10488000513164315F318E316A31BA31AE31D53157
:10489000C831F331E6310D32FF3125321B32663239
:1048A0002D32BB32A932DF32CD320333F13227331E
:1048B00015334B3339336F335D33813303349033E6
:1048C0007834713490347D34A934A434CE34AF3488
:1048D000F734EE340235143547352735BA356935A6
:1048E0001C360B364F362C3689367836A836993634
:1048F000C436B236E836D636FA3605370E371E37A6
:104900009437BE37E837063839385838723898380F
:1049100091389F38AD38B238BC38CB38E338D4380A
:10492000FB38F438103901394A391839AF397C3934
:10493000F739E5391B3A093A2D3A3F3A553A4A3A9E
:10494000713A683AC63A7A3A003B223B103B423B06
:10495000333B5C3B523B7C3B6A3B9A3B8E3BB43BDC
:10496000A83BD03BBE3BF03BE23BFE3B0F3C533C05
:104970001F3CD73C9C3C593D1C3DE33D9C3D5E3E6D
:10498000243ED33E9B3E423F143FBC3F753F4E40CA
:104990000040DC408E40724129410442C2415542F0
:1049A0004742694261427E4272428D429F42934237
:1049B000BF42AE42DD42D142F842EC420743994346
:1049C0000B434544364453445F447B446944DC44D0
:1049D0008D4475452545C045D045CC45D4454578E1
:1049E00072656D65207370616E206F6620746865F6
:1049F000205A2076616C756573210043616C637584
:104A00006C6174696F6E206F6620746865206D61DB
:104A10006368696E6520736B657720616E64206FD3
:104A20006666736574206661696C65642E00203C5F
:104A300020005741524E494E473A2046726F6E74DD
:104A400020706F696E74206E6F7420726561636888
:104A500061626C652E205920636F6F7264696E61AC
:104A600074653A0000497465726174696F6E3A202A
:104A70000000004041FFFFBF4000005C43FFFFBF5C
:104A80004000005C430000464300004041000046F7
:104A90004300004041FFFFBF400000E442FFFFBF72
:104AA0004000005743FFFFBF40000057430000CCC9
:104AB000420000E4420000CC42000040410000CC33
:104AC0004200004041000046430000E4420000462E
:104AD0004300005743000046435A00205A3A005909
:104AE0000020593A00580020583A0024F4D430509D
:104AF000C38E20C2A24017828B7011127A910D8151
:104B00006CD90AA861E108C7586607615143061EBF
:104B10004B5D05C145A7041A411104093D98037175
:104B20003931034036DB0265339102D430540280C0
:104B30002E1D02632CEE01752AC501B028A00110BC
:104B40002781018F2564012B244B01E0223401AC25
:104B5000211F018D200D01801FFC00841EED009798
:104B60001DDF00B81CD200E61BC600201BBC006481
:104B70001AB200B219A8000A19A0006A189900D147
:104B800017910040178B00B516840031167E00B3D4
:104B90001579003A157300C7146F0058146A00EEB7
:104BA0001366008813630025135E00C7125B006C58
:104BB00012570015125400C111510070114F0021FD
:104BC000114B00D61049008D1047004610440002DA
:104BD000104200C00F4000800F3E00420F3C000614
:104BE0000F3B00CB0E3800930E37005C0E350027CC
:104BF0000E3400F30D3200C10D3100900D30006015
:104C00000D2E00320D2D00050D2C00D90C2B00AE01
:104C10000C2900850C29005C0C2700350C27000EA0
:104C20000C2600E80B2400C40B2400A00B23007DFD
:104C30000B23005A0B2100390B2100180B2000F820
:104C40000A1F00D90A1E00BB0A1E009D0A1D008013
:104C50000A1D00630A1C00470A1B002C0A1B0011D6
:104C60000A1A00F7091A00DD091900C4091900AB76
:104C7000091900920917007B091800630917004CF5
:104C800009160036091600200916000A091500F554
:104C9000081500E0081400CC081400B8081400A49B
:104CA000081400900813007D0812006B08130058C8
:104CB00008120046081200340811002308110012DF
:104CC00008110001081100F0071000E0071000D0E3
:104CD000071000C0071000B0070F00A107100091D7
:104CE000070E0083070F0074070F0065070E0057BB
:104CF000070E0049070E003B070D002E070E00208F
:104D0000070D0013070D0006070D00F9060C00ED56
:104D1000060D00E0060C00D4060C00C8060C00BC12
:104D2000060C00B0060C00A4060B0099060C008DC2
:104D3000060B0082060B0077060B006C060B006169
:104D4000060A0057060B004C060A0042060A003805
:104D5000060A002E060A0024060A001A060A001097
:104D600006090007060A00FD050900F4050900EB25
:104D7000050900E2050900D9050900D0050900C7A9
:104D8000050900BE050900B5050800AD050800A528
:104D90000509009C050800940508008C050800849E
:104DA0000508007C050800740508006C050700650F
:104DB0000508005D050700560508004E0507004779
:104DC0000507004005080038050700310507002ADF
:104DD000050700230507001C050600160507000F40
:104DE0000507000805060002050700FB040600F59C
:104DF000040700EE040600E8040600E2040700DBF6
:104E0000040600D5040600CF040600C9040600C34A
:104E1000040600BD040600B7040600B1040500AC9A
:104E2000040600A6040600A00405009B04060095E5
:104E3000040500900406008A04050085040500802E
:104E40000406007A04050075040500700405006B73
:104E500004050066040500610405005C04050057B4
:104E6000040500520405004D0405004804050043F4
:104E70000405003E0404003A040500350405003032
:104E80000404002C04050027040400230405001E6C
:104E90000404001A04040016040500110404000DA3
:104EA000040400090405000404040000040400FCD8
:104EB000030400F8030400F4030400F0030400EC0E
:104EC000030400E8030400E4030400E0030400DC3E
:104ED000030400D8030400D4030400D0030400CC6E
:104EE000030400C8030300C503030024F404D9200D
:104EF0001BC40C5C0E9804C4095F0265077101F4C1
:104F000005F900FB04B30048048700C10369005899
:104F100003550003034500BE023A008402310053EA
:104F2000022A002902250004022000E4011C00C816
:104F3000011900AF011700980114008401130071DA
:104F40000110006101100051010E0043010D0036F7
:104F5000010B002B010B0020010B00150109000CB7
:104F600001090003010800FB000800F3000800EB42
:104F7000000700E4000600DE000600D8000600D2AC
:104F8000000600CC000500C7000500C2000500BDFA
:104F9000000400B9000400B5000400B1000400AD35
:104FA000000400A9000400A5000300A20003009F64
:104FB0000004009B0003009800030095000200938A
:104FC000000300900003008D0002008B00030088A6
:104FD0000002008600020084000300810002007FBE
:104FE0000002007D0002007B0002007900020077D1
:104FF00000010076000200740002007200010071DE
:105000000002006F0002006D0001006C0002006AE7
:1050100000010069000200670001006600010065F0
:1050200000010064000200620001006100010060F4
:105030000001005F0002005D0001005C0001005BF8
:105040000001005A000100590001005800010057FA
:1050500000010056000100550001005400010053FA
:1050600000000053000100520001005100010050F7
:105070000001004F0001004E0000004E0001004DF5
:105080000001004C0001004B0000004B0001004AF1
:1050900000010049000100480000004800010047ED
:1050A00000010046000000460001004500000045E8
:1050B00000010044000100430000004300010042E1
:1050C00000000042000100410000004100010040DA
:1050D0000001003F0000003F0001003E0000003ED4
:1050E0000001003D0000003D0001003C0000003CCC
:1050F0000000003C0001003B0000003B0001003AC2
:105100000000003A000100390000003900010038B9
:1051100000000038000000380001003700000037B0
:1051200000010036000000360000003600010035A6
:10513000000000350000003500010034000000349C
:105140000000003400010033000000330000003391
:105150000001003200000032000000320001003186
:10516000000000310000003100010030000000307C
:10517000000000300001002F0000002F0000002F71
:105180000000002F0001002E0000002E0000002E65
:105190000001002D0000002D0000002D0000002D5A
:1051A0000001002C0000002C0000002C0000002C4E
:1051B0000001002B0000002B0000002B0000002B42
:1051C0000001002A0000002A0000002A0000002A36
:1051D000000100290000002900000029000000292A
:1051E000000000290001002800000028000000281D
:1051F0000000002800000028000100270000002710
:105200000000002700000027000000270001002602
:1052100000000026000000260000002600000026F6
:1052200000010025000000250000002500000025E9
:1052300000000025000000250001002400000024DB
:1052400000000024000000240000002400010023CE
:1052500000000023000000230000002300000023C2
:1052600000000023000000230001002200000022B3
:1052700000000022000000220000002200000022A6
:105280000001002100000021000000210000002199
:10529000000000210000002100000021000100208A
:1052A000000000200000002000000020000000207E
:1052B0000000002000000020000000200001001F6E
:1052C0000000001F0000001F0000001F0000001F62
:1052D0000000001F0000001F0001001E0000001E53
:1052E0000000001E0000001E0000004572723A20FF
:1052F0004D494E54454D50204245440054656D7013
:105300006572617475726520686561746564206298
:105310006564207377697463686564206F66662EC0
:10532000204D494E54454D5020747269676765722F
:1053300065642021004572723A204D415854454D14
:1053400050204245440054656D70657261747572F9
:10535000652068656174656420626564207377699F
:105360007463686564206F66662E204D415854450D
:105370004D5020747269676765726564202100452D
:1053800072723A204D494E54454D50003A204578AE
:1053900074727564657220737769746368656420DC
:1053A0006F66662E204D494E54454D5020747269EB
:1053B0006767657265642021004572723A204D412D
:1053C0005854454D50003A204578747275646572A2
:1053D000207377697463686564206F66662E204D5C
:1053E000415854454D502074726967676572656411
:1053F00020210020484F54454E4420544845524DEA
:10540000414C2052554E4157415900204845415486
:1054100042454420544845524D414C2052554E413E
:1054200057415900544845524D414C2052554E4128
:105430005741590042454420544845524D414C2063
:1054400052554E415741590020544845524D414C08
:105450002052554E41574159202820505245484529
:10546000415420484F54454E442900205448455249
:105470004D414C2052554E41574159202820505201
:10548000454845415420484541544245442900502F
:10549000524548454154204552524F5200424544DE
:1054A0002050524548454154204552524F520045E4
:1054B00072723A205052494E542046414E20455275
:1054C000524F52004552524F523A205072696E74F8
:1054D0002066616E207370656564206973206C6F4F
:1054E000776572207468656E206578706563746591
:1054F00064004572723A20455854522E2046414E5F
:10550000204552524F52004552524F523A20457850
:105510007472756465722066616E2073706565646F
:10552000206973206C6F776572207468656E2065E2
:105530007870656374656400504944204175746FE8
:1055400074756E652066696E6973686564212050A4
:10555000757420746865206C617374204B702C2006
:105560004B6920616E64204B6420636F6E737461BD
:105570006E74732066726F6D2061626F766520694C
:105580006E746F20436F6E66696775726174696FC0
:105590006E2E6800504944204175746F74756E65B5
:1055A000206661696C6564212074696D656F75742E
:1055B0000020403A006F6B20543A006F6B20423A53
:1055C00000504944204175746F74756E65206661A2
:1055D000696C6564212054656D70657261747572C3
:1055E0006520746F6F206869676800204B643A20FB
:1055F00000204B693A2000204B703A200020436C79
:1056000061737369632050494420002054753A2027
:1056100000204B753A2000206D61783A2000206D03
:10562000696E3A200020643A200020626961733A72
:10563000200090137D00B0157800F0177300601AF9
:105640006E00F01C6900A01F640050225F0020253E
:105650005A00E0275500902A5000202D4B00A02F23
:105660004600F031410010343C00F0353700A037DF
:10567000320020392D00603A2800703B2300603C46
:105680001E00203D1900C03D1400403E0F00A03E0A
:105690000A00F03E0500403F0000703FFBFF903FD6
:1056A000F6FFB03FF1FFC03FECFFD03FE7FFE03F28
:1056B000E2FFF03FDDFFF03FD8FF1000C90210010C
:1056C0002C014001220170011801B0010E01F0010E
:1056D00004015002FA00B002F0003003E600D003EB
:1056E000DC009004D2007005C800A006BE000008CF
:1056F000B400B009AA00D00BA000600E96006011A3
:105700008C000015820020197800C01D6E00A022B8
:105710006400B0275A00902C500000314600E0345D
:105720003C0010383200903A2800603C1E00A03D3A
:105730001400803E0A00203F000070012C019001FF
:105740002701B0012201C0011D01F0011801100262
:10575000130130020E016002090190020401C0022F
:10576000FF000003FA004003F5008003F000D003BF
:10577000EB002004E6007004E100E004DC004005DA
:10578000D700C005D2004006CD00D006C800800773
:10579000C3003008BE00F008B900C009B400B00A68
:1057A000AF00B00BAA00D00CA500000EA000500F57
:1057B0009B00C01096005012910000148C00C01580
:1057C0008700B0178200B0197D00D01B7800001E42
:1057D000730040206E0090226900F024640040278E
:1057E0005F0090295A00E02B5500102E5000203009
:1057F0004B0010324600E033410090353C0010373A
:10580000370070383200A0392D00B03A2800A03B94
:105810002300603C1E00103D1900903D1400103E16
:105820000F00703E0A00C03E0500003F0000746D8E
:1058300063323133305F7072696E745F6375727298
:10584000656E747328290A094809520A58092564A3
:105850000925640A590925640925640A5A09256439
:105860000925640A450925640925640A00746D63E5
:10587000323133305F7365745F63757272656E7455
:105880005F7228617869733D25642C20637572729C
:10589000656E743D25640A00746D63323133305F88
:1058A0007365745F63757272656E745F6828617882
:1058B00069733D25642C2063757272656E743D2595
:1058C000640A00544D4320445249564552204F56D5
:1058D000455254454D502000746D63323133305F72
:1058E000696E697428292C206D6F64653D25530A03
:1058F00000535445414C5448004E4F524D414C00CA
:10590000436F6E74696E7565207769746820616E87
:105910006F7468657220626F7764656E3F005374C0
:105920006174653A2000473736004D3435205A00FF
:105930004D3435004738300020003E003E00200046
:105940003E003E003E003E0020003E003E002000A3
:1059500000002D2D2D2D2D2D2D2D2D2D2D2D2D2DD1
:105960002D2D2D2D2D2D004E2F41004E2F41006D40
:105970006D00004D373031004D37303200496E76C2
:10598000616C6964205049442063616C2E2072650B
:1059900073756C74732E204E6F742073746F726500
:1059A0006420746F20454550524F4D2E004D3530C8
:1059B00030004731205A31352046313530300047EC
:1059C00039310047312058353020593139302045A0
:1059D0003020463730303000473930004D373032D4
:1059E000004D3730322043004D3730322055004DC6
:1059F000373032004731205A31352046313530308A
:105A0000004739310047312058353020593139307D
:105A1000204530204637303030004D38330047398C
:105A200030004D3834004D313034205330004D3883
:105A30003400473120583130205931383020463435
:105A4000303030004731205A313020463133303049
:105A50002E303030004D313430205330004D313055
:105A600034205330004D31303700473120452D3040
:105A70002E30373530302046323130302E30303015
:105A800030300047312058353020593535204533E6
:105A90002E363237373300473120583230302059D4
:105AA00035352045302E34393338360047312058CB
:105AB000323030205937352045332E3632373733A0
:105AC00000473120583530205937352045302E34A5
:105AD0003933383600473120583530205939352090
