:100000000C9461300C9492300C9492300C94923099
:100010000C9492300C94D88A0C9492300C949230B8
:100020000C94698E0C9492300C9492300D944C5D2B
:100030000C9492300D9457250C9492300C9492307D
:100040000C9492300C94EACF0C9492300C94923031
:100050000C9492300C9492300D948C1C0D94C588A5
:100060000C9492300D94BA0B0C9492300C94923004
:100070000C9492300C9492300C9492300C949230F8
:100080000C9492300C9492300C9492300C949230E8
:100090000D94760B0C9492300C9492300C94923018
:1000A0000C9492300C9492300C9492300C949230C8
:1000B0000C9492300C9492300C9492300C949230B8
:1000C0000C9492300C9492300C9492300C9402A7C1
:1000D0000C9492300C9492300C9492300C94923098
:1000E0000C949230FF9E089FCB9EB49E159E65A0F7
:1000F0002A9FA69F2FA088C09EC0B1C0BEC0C8C006
:10010000E0C001C107C115C12DC149C153C164C1BE
:1001100075C1A901A1014B014101B30157018B0137
:100120005F012B016F015B01930183019F014D0171
:10013000AB01B70147016701630135018101270167
:100140006B0129012F015101A701750165014501CD
:10015000AD01550129016D0191018F0199018D01B9
:1001600097013701690187013D019501B5014F01F3
:1001700059013F017F01890187017D01A3017901B7
:10018000084AD73B3BCE016E84BCBFFDC12F3D6CFE
:1001900074319ABD56833DDA3D00C77F11BED9E464
:1001A000BB4C3E916BAAAABE000000803F05A84C44
:1001B000CDB2D44EB93836A9020C50B99186880810
:1001C0003CA6AAAA2ABE000000803F07634236B7B9
:1001D0009BD8A71A39685618AEBAAB558C1D3CB7D8
:1001E000CC5763BD6DEDFD753EF6177231BF000053
:1001F00000803F08000000BE922449123EABAAAA2C
:100200002ABECDCCCC4C3E00000080BEABAAAAAA30
:100210003E00000000BF000000803F000000000022
:10022000084178D3BB4387D1133D190E3CC3BD426F
:1002300082AD2B3E68EC8276BED98FE1A93E4C8020
:10024000EFFFBE01C4FF7F3F0000000000000D94DF
:10025000ED830D9431840D94332D0D94B0890D945C
:10026000FE830D94DC890D94120C0D94FA830D9489
:1002700063860D943C890D940A240D9477860D9421
:10028000A5860D94EF2C0D940E240D9416840D94D8
:100290006D5A0D94ED890D94DD2C0D94FA590D9441
:1002A00091860D9402840D94CD890D941E840D9435
:1002B000112D0D949B860D94582D0D9435A00D9401
:1002C000252D0D9414240D94F7830D9410840D9412
:1002D000A45A0D946D860D94F3830D9424840D948B
:1002E000412D0D94019D0D9476890D940C840D94EF
:1002F0001F890D94DC860D94A0240D94C8860D945E
:10030000B4860D94E9830D94EB590D9492240D94C9
:10031000E6860D94BE860D94172D0D9454860D948B
:100320002C840D9428840D94E7590D947F860D94A8
:1003300059860D944F860D94D45A0D9493890D943B
:10034000F1590D94D72C0D94D2860D94BE290D949D
:1003500008840D94C92C0D94135A0D941A840D948D
:1003600059890D9419240D940B2D0D9487860D94A5
:10037000305A6E616E00696E66004E414E494E49BC
:100380005459494E46CDCCCC3D0AD7233C17B7D162
:100390003877CC2B329595E6241FB14F0A00002008
:1003A000410000C84200401C4620BCBE4CCA1B0E87
:1003B0005AAEC59D7400407A10F35A00A0724E18D0
:1003C000090010A5D4E80000E87648170000E40B07
:1003D00054020000CA9A3B000000E1F505000080CD
:1003E000969800000040420F000000A08601000027
:1003F00000102700000000E8030000000064000077
:100400000000000A00000000000100000000002CB5
:1004100076D888DC674F0823DFC1DFAE59E1B1B77A
:1004200096E5E3E453C63AE651997696E8E6C28447
:1004300026EB898C9B62ED407C6FFCEFBC9C9F405F
:10044000F2BAA56FA5F490055A2AF75C936B6CF984
:10045000676DC11BFCE0E40D47FEF520E6B500D05A
:10046000ED902E0300943577050080841E0800006F
:10047000204E0A000000C80C333333330F986E123D
:10048000831141EF8D2114893BE65516CFFEE6DB43
:1004900018D1844B381BF77C1D901DA4BBE424208D
:1004A0003284725E228100C9F124ECA1E53D27630C
:1004B00064696E6F70737578585B0025642062798B
:1004C000746573207772697474656E20746F20454B
:1004D0004550524F4D20617420616464726573739E
:1004E00020307825303478004433202D2052656147
:1004F000642F577269746520454550524F4D0A006C
:1005000020436F756E7420583A2000534420707257
:10051000696E74696E67206279746520004E6F742D
:1005200020696E206661726D206D6F64652E0041DA
:1005300063746976652045787472756465723A20D3
:1005400000496E76616C69642065787472756465C3
:100550007200746D63323133305F73675F74687239
:100560005B25635D3D25640A005A204F666673650E
:100570007400556E6B6E6F776E20636F6D6D616E7C
:10058000643A2022007A5F6D61783A20007A5F6DCC
:10059000696E3A2000795F6D61783A2000795F6D6D
:1005A000696E3A2000785F6D61783A2000785F6D5F
:1005B000696E3A20005265706F7274696E672065CB
:1005C0006E6473746F70207374617475730000537C
:1005D000494C454E54004E4F524D414C002553203E
:1005E0004D4F44453A2050657263656E7420646FC8
:1005F0006E653A2025643B207072696E74207469C0
:100600006D652072656D61696E696E6720696E2027
:100610006D696E733A2025640A00456E6420666930
:100620006C65206C69737400426567696E20666949
:100630006C65206C6973740025643A2025640A0097
:100640000A50494E44412074656D7065726174753D
:1006500072653A20252E3166205A207368696674C7
:1006600020286D6D293A20252E3366000A537465C3
:10067000703A2025642F360A000A537465703A20B8
:1006800025642F362028736B6970706564290A50C1
:10069000494E44412074656D706572617475726570
:1006A0003A202564205A20736869667420286D6D8D
:1006B000293A300A000A5A45524F3A20252E33660D
:1006C0000A0073746172742074656D706572617470
:1006D0007572653A20252E31660A00256420202592
:1006E0002E326600255320583A20252E3566205993
:1006F0003A20252E3566205A3A20252E35660A00E6
:100700004E6F7420696E206661726D206D6F646536
:100710002E0025640045303A25642052504D0A5081
:10072000524E303A25642052504D0A002564004153
:1007300075746F0020452F443D00416476616E63FF
:1007400065204B3D004D3232302053256900255342
:1007500046696C616D656E742073657474696E674B
:10076000733A2044697361626C65640A00255346DC
:10077000696C616D656E742073657474696E6773FE
:100780003A0A25532020204D3230302044252E3285
:10079000660A002553526574726163743A20533DB2
:1007A0004C656E67746820286D6D2920463A537039
:1007B00065656420286D6D2F6D29205A3A205A4CAA
:1007C00069667420286D6D290A25532020204D323A
:1007D00030372053252E32662046252E3266205A89
:1007E000252E32660A25535265636F7665723A206C
:1007F000533D4578747261206C656E67746820287B
:100800006D6D2920463A537065656420286D6D2F03
:100810006D290A25532020204D3230382053252EB3
:1008200032662046252E32660A25534175746F2D97
:10083000526574726163743A20533D3020746F20A6
:1008400064697361626C652C203120746F20696E5D
:100850007465727072657420657874727564652D44
:100860006F6E6C79206D6F76657320617320726591
:10087000747261637473206F72207265636F766542
:10088000726965730A25532020204D323039205378
:1008900025640A00255350494420686561746265E7
:1008A000642073657474696E67733A0A2553202057
:1008B000204D3330342050252E32662049252E32EB
:1008C000662044252E32660A002553504944207381
:1008D000657474696E67733A0A25532020204D337E
:1008E00030312050252E32662049252E3266204494
:1008F000252E32660A002553537465707320706587
:100900007220756E69743A0A255320204D393220C1
:1009100058252E32662059252E3266205A252E3231
:10092000662045252E32660A25534D6178696D751E
:100930006D20666565647261746573202D206E6F2D
:10094000726D616C20286D6D2F73293A0A25532032
:10095000204D3230332058252E32662059252E3234
:1009600066205A252E32662045252E32660A2553EA
:100970004D6178696D756D20666565647261746539
:1009800073202D20737465616C746820286D6D2F41
:1009900073293A0A255320204D3230332058252E12
:1009A00032662059252E3266205A252E3266204581
:1009B000252E32660A25534D6178696D756D20616B
:1009C0006363656C65726174696F6E202D206E6F54
:1009D000726D616C20286D6D2F7332293A0A255390
:1009E00020204D3230312058256C752059256C75EA
:1009F000205A256C752045256C750A25534D617864
:100A0000696D756D20616363656C65726174696F92
:100A10006E202D20737465616C746820286D6D2FB5
:100A20007332293A0A255320204D3230312058257F
:100A30006C752059256C75205A256C752045256CE0
:100A4000750A2553416363656C65726174696F6EE5
:100A50003A20533D616363656C65726174696F6EC2
:100A60002C20543D72657472616374206163636508
:100A70006C65726174696F6E0A255320204D3230A7
:100A8000342053252E32662054252E32660A2553F3
:100A9000416476616E636564207661726961626C3F
:100AA00065733A20533D4D696E20666565647261D9
:100AB000746520286D6D2F73292C20543D4D696E6F
:100AC0002074726176656C20666565647261746518
:100AD00020286D6D2F73292C20423D6D696E696D44
:100AE000756D207365676D656E742074696D652022
:100AF000286D73292C20583D6D6178696D756D20C6
:100B00005859206A65726B20286D6D2F73292C202F
:100B1000205A3D6D6178696D756D205A206A657245
:100B20006B20286D6D2F73292C2020453D6D617839
:100B3000696D756D2045206A65726B20286D6D2F7B
:100B400073290A255320204D3230352053252E326B
:100B5000662054252E32662042252E3266205825E6
:100B60002E32662059252E3266205A252E326620D6
:100B700045252E32660A2553486F6D65206F6666DF
:100B800073657420286D6D293A0A255320204D3253
:100B900030362058252E32662059252E3266205AAE
:100BA000252E32660A004625642025640A004D4D34
:100BB00055203C3D2027462564202564270A005007
:100BC0004944204175746F74756E652066696E695D
:100BD00073686564212050757420746865206C61A9
:100BE0007374204B702C204B6920616E64204B6421
:100BF00020636F6E7374616E74732066726F6D2004
:100C000061626F766520696E746F20436F6E6669EE
:100C10006775726174696F6E2E6800504944204197
:100C200075746F74756E65206661696C65642120EA
:100C300074696D656F75740020403A00543A004243
:100C40003A00504944204175746F74756E65206692
:100C500061696C6564212054656D7065726174759D
:100C6000726520746F6F206869676800204B643A72
:100C70002000204B693A2000204B703A200020438E
:100C80006C61737369632050494420002054753AA5
:100C90002000204B753A2000206D61783A2000201A
:100CA0006D696E3A200020643A2000206269617309
:100CB0003A200020453A00205A3A0020593A0020B4
:100CC000453A00205A3A0020593A00583A00005A52
:100CD00030005A3100593000593100583000583135
:100CE00000456E642073746F7073206469616700DF
:100CF0002E0044656C6574696F6E206661696C6571
:100D0000642C2046696C653A200046696C65206455
:100D1000656C657465643A004E6F742053442070AE
:100D200072696E74696E67005072696E74207361C7
:100D3000766564005344207072696E74207061752A
:100D4000736564000A002F000A002F2F206163746E
:100D5000696F6E3A63616E63656C0043524153483C
:100D60005F43414E43454C0043524153485F524517
:100D7000434F5645520043524153485F5245434FFB
:100D80005645520022283229005400496E76616C83
:100D90006964205420636F64652E00556E6B6E6F1E
:100DA000776E204D20636F64653A202573200A001A
:100DB0006E6F2076616C696420636F6D6D616E6427
:100DC000002C20002C20002C20006E2F61002C20F5
:100DD000002C20002C20006E2F61002F00503A00C4
:100DE0005761697420666F722050494E44412074E7
:100DF00061726765742074656D7065726174757277
:100E0000653A004C414E472053454C20464F5243D3
:100E10004544002228312900303030303030303025
:100E20002D303030302D303030302D303030302DCE
:100E300030303030303030303030303000205555A8
:100E400049443A0031002045585452554445525FB8
:100E5000434F554E543A00507275736120693320E8
:100E60004D4B3300204D414348494E455F54595046
:100E7000453A00312E3000206261736564206F6E48
:100E8000204D61726C696E204649524D5741524562
:100E90005F55524C3A68747470733A2F2F676974B7
:100EA0006875622E636F6D2F707275736133642F76
:100EB00050727573612D4669726D7761726520504D
:100EC000524F544F434F4C5F56455253494F4E3A41
:100ED000004649524D574152455F4E414D453A50AB
:100EE000727573612D4669726D7761726520004D70
:100EF00031313320530020423A0020453A00543A21
:100F00000020413A0020503A002042403A00204060
:100F10003A00202F003A00205400202F0020423AAF
:100F200000202F006F6B20543A002569206D696EF8
:100F30002C2025692073656300496E76616C6964B5
:100F4000204D20636F64653A202573200A00556E9A
:100F50006B6E6F776E204720636F64653A20257350
:100F6000200A004D65736820626564206C657665B3
:100F70006C696E67206E6F74206163746976652E8C
:100F8000000A002020000A4D6561737572656420B7
:100F9000706F696E74733A000A5A207365617263E8
:100FA00068206865696768743A20002C004E756D8A
:100FB00020582C593A2000206D6963726F6E7300BF
:100FC00045786365737369766520626564206C6536
:100FD00076656C696E6720636F7272656374696FA2
:100FE0006E3A20004732382057300050494E444175
:100FF0002070726F62652063616C696272617469EE
:101000006F6E20737461727400473238205730005D
:101010004D3234005345545F43484F505F005345B1
:10102000545F535445505F005345545F57415645F4
:101030005F00544D435F0043524153485F0050727C
:10104000657373206B6E6F6220746F2070726568B9
:10105000656174206E6F7A7A6C6520616E642063BE
:101060006F6E74696E75652E00506C6561736520D6
:10107000707265737320746865206B6E6F62207484
:101080006F20756E6C6F61642066696C616D656E52
:10109000740052656D6F7665206F6C642066696CB4
:1010A000616D656E7420616E64207072657373206B
:1010B000746865206B6E6F6220746F207374617248
:1010C00074206C6F6164696E67206E657720666955
:1010D0006C616D656E742E00616E64207072657354
:1010E0007320746865206B6E6F6200496E73657261
:1010F000742066696C616D656E740046696C2E20A3
:1011000073656E736F7220726573706F6E73652096
:10111000697320706F6F722C2064697361626C65F3
:101120002069743F00436F6C6F72206E6F74206390
:101130006F72726563740046696C616D656E7420D0
:101140006E6F74206C6F61646564004368616E67E4
:10115000656420636F72726563746C793F004C6FD5
:101160006164696E6720636F6C6F72004368616EC3
:10117000676520737563636573732100506C6561E7
:101180007365206F70656E2069646C657220616E96
:10119000642072656D6F76652066696C616D656E41
:1011A00074206D616E75616C6C792E0057617320CF
:1011B00066696C616D656E7420756E6C6F6164201C
:1011C0007375636365737366756C3F00506C65611E
:1011D000736520757067726164652E004E657720B7
:1011E0006669726D776172652076657273696F6E7C
:1011F00020617661696C61626C653A00576169745F
:10120000696E6720666F722050494E4441207072AB
:101210006F626520636F6F6C696E67004372617304
:10122000682064657465637465642E205265737507
:101230006D65207072696E743F004372617368203F
:1012400064657465637465642E00457874727564B2
:1012500065720043686F6F7365206578747275649A
:1012600065723A0043686F6F73652066696C616DE3
:10127000656E743A004D32303020496E76616C698B
:101280006420657874727564657220006F70656E95
:1012900000545249474745524544004E6F206D6FF8
:1012A00076652E005761697420666F7220757365CC
:1012B000722E2E2E00426564206C6576656C696E18
:1012C00067206661696C65642E2053656E736F726A
:1012D0002074726967676572656420746F6F206837
:1012E0006967682E2057616974696E6720666F723E
:1012F0002072657365742E00426564206C657665A6
:101300006C696E67206661696C65642E2053656E3A
:10131000736F7220646973636F6E6E656374656466
:10132000206F72206361626C652062726F6B656E04
:101330002E2057616974696E6720666F722072652E
:101340007365742E00537461626C6520616D62690F
:10135000656E742074656D70657261747572652058
:1013600032312D323643206973206E6565646564C1
:101370002061207269676964207374616E642069FA
:10138000732072657175697265642E00506C6561B9
:1013900073652072756E2058595A2063616C6962BA
:1013A000726174696F6E2066697273742E00536C7B
:1013B0006565702E2E2E0073746172740A0061646C
:1013C000635F696E69740A001B5B324A1B5B313BC9
:1013D00031484F726967696E616C20507275736134
:1013E0002069331B5B323B33485072757361205266
:1013F0006573656172636800466163746F7279201A
:101400005245534554004E6F762020322032303101
:101410003800436F6D70696C65643A2000286E6F08
:101420006E652C2064656661756C7420636F6E66F2
:10143000696729004E6F7620203220323031382003
:1014400032323A30383A30310020332E342E322DB9
:10145000313336300A002055706C6F616420696E3C
:101460002070726F677265737300205A3A002059BA
:101470003A0020583A0043524153485F444554458E
:101480004354454458590043524153485F444554DE
:101490004543544544590043524153485F444554E1
:1014A000454354454458004D3239005072757361BC
:1014B000206933204D4B332072656164792E0042E0
:1014C0006C61636B6F7574206F63637572726564B2
:1014D0002E205265636F766572207072696E743F5C
:1014E0000053656C66746573742077696C6C206258
:1014F000652072756E20746F2063616C6962726121
:1015000074652061636375726174652073656E73C1
:101510006F726C657373207265686F6D696E672E8C
:10152000005468657265206973207374696C6C205F
:1015300061206E65656420746F206D616B65205A53
:101540002063616C6962726174696F6E2E20506CE9
:101550006561736520666F6C6C6F772074686520B9
:101560006D616E75616C2C206368617074657220AA
:1015700046697273742073746570732C207365638D
:1015800074696F6E2043616C6962726174696F6E19
:1015900020666C6F772E005072696E7465722068D9
:1015A0006173206E6F74206265656E2063616C6983
:1015B000627261746564207965742E20506C656177
:1015C000736520666F6C6C6F7720746865206D6141
:1015D0006E75616C2C206368617074657220466959
:1015E0007273742073746570732C207365637469EF
:1015F0006F6E2043616C6962726174696F6E206600
:101600006C6F772E004F6C642073657474696E671D
:101610007320666F756E642E2044656661756C7408
:10162000205049442C2045737465707320657463A1
:101630002E2077696C6C206265207365742E0057CC
:1016400061726E696E673A20626F746820707269A9
:101650006E746572207479706520616E64206D6FA0
:1016600074686572626F617264207479706520635A
:1016700068616E6765642E005761726E696E673AC5
:10168000207072696E746572207479706520636869
:10169000616E6765642E005761726E696E673A20ED
:1016A0006D6F74686572626F6172642074797065C1
:1016B000206368616E6765642E002020506C616E47
:1016C0006E657242756666657242797465733A201A
:1016D000002046726565204D656D6F72793A200075
:1016E000204C61737420557064617465643A200005
:1016F000506F77657255700045787465726E616CD5
:101700002053504920666C61736820573235583237
:1017100030434C206E6F7420726573706F6E646915
:101720006E672E006572726F722077726974696ECF
:101730006720746F2066696C6500656E6473746FF2
:101740007073206869743A20006F6B004372617394
:10175000684465746563742044495341424C454470
:1017600000437261736844657465637420454E413B
:10177000424C45442100207C20417574686F723AC8
:10178000200020536F66747761726520526573651F
:101790007400205761746368646F672052657365D5
:1017A00074002042726F776E206F757420526573DB
:1017B0006574002045787465726E616C20526573A3
:1017C000657400446F6E6520736176696E6720668C
:1017D000696C652E0058595A2063616C69627261A8
:1017E00074696F6E20616C6C2072696768742E205A
:1017F000536B65772077696C6C20626520636F722C
:10180000726563746564206175746F6D617469637A
:10181000616C6C792E0058595A2063616C69627250
:101820006174696F6E20616C6C2072696768742ED8
:1018300020582F5920617865732061726520736C80
:10184000696768746C7920736B657765642E2047CF
:101850006F6F64206A6F62210058595A2063616C6F
:101860006962726174696F6E206F6B2E20582F59F8
:101870002061786573206172652070657270656E95
:10188000646963756C61722E20436F6E6772617458
:10189000756C6174696F6E73210058595A206361C9
:1018A0006C6962726174696F6E206661696C6564EF
:1018B0002E2052696768742066726F6E74206361AF
:1018C0006C6962726174696F6E20706F696E7420EA
:1018D0006E6F7420726561636861626C652E00587A
:1018E000595A2063616C6962726174696F6E206617
:1018F00061696C65642E2046726F6E742063616C42
:101900006962726174696F6E20706F696E747320A2
:101910006E6F7420726561636861626C652E005839
:10192000595A2063616C6962726174696F6E2066D6
:1019300061696C65642E20506C6561736520636F0E
:101940006E73756C7420746865206D616E75616C62
:101950002E0058595A2063616C6962726174696F14
:101960006E20636F6D70726F6D697365642E2052A7
:10197000696768742066726F6E742063616C696257
:10198000726174696F6E20706F696E74206E6F740F
:1019900020726561636861626C652E0058595A2037
:1019A00063616C6962726174696F6E20636F6D70E0
:1019B000726F6D697365642E2046726F6E7420635A
:1019C000616C6962726174696F6E20706F696E74A8
:1019D00073206E6F7420726561636861626C652E3E
:1019E0000058595A2063616C6962726174696F6E44
:1019F000206661696C65642E204265642063616CB9
:101A00006962726174696F6E20706F696E7420779D
:101A10006173206E6F7420666F756E642E00506C5B
:101A20006561736520706C61636520737465656CB6
:101A3000207368656574206F6E20686561746265E7
:101A4000642E0043616C6962726174696E67205A2A
:101A50000044697374616E636520626574776565BF
:101A60006E20746970206F6620746865206E6F7ACE
:101A70007A6C6520616E64207468652062656420FC
:101A80007375726661636520686173206E6F742080
:101A90006265656E20736574207965742E20506CC4
:101AA0006561736520666F6C6C6F77207468652064
:101AB0006D616E75616C2C20636861707465722055
:101AC00046697273742073746570732C2073656338
:101AD00074696F6E204669727374206C61796572E7
:101AE0002063616C6962726174696F6E2E00206F91
:101AF00066203400536561726368696E67206265B1
:101B0000642063616C6962726174696F6E20706FCA
:101B1000696E7400506C616365206120736865654F
:101B200074206F6620706170657220756E646572D6
:101B300020746865206E6F7A7A6C652064757269AE
:101B40006E67207468652063616C69627261746994
:101B50006F6E206F66206669727374203420706F18
:101B6000696E74732E20496620746865206E6F7AE2
:101B70007A6C65206361746368657320746865209E
:101B800070617065722C20706F776572206F666669
:101B900020746865207072696E74657220696D6D5D
:101BA0006564696174656C792E00506C656173655C
:101BB00020636C65616E20746865206E6F7A7A6C44
:101BC0006520666F722063616C6962726174696F0F
:101BD0006E2E20436C69636B207768656E20646F9E
:101BE0006E652E00506C656173652072656D6F7651
:101BF0006520737465656C20736865657420667212
:101C00006F6D20686561746265642E00497320738E
:101C10007465656C207368656574206F6E206865F7
:101C200061746265643F004175746F20686F6D6513
:101C30000078797A63616C5F6D6561737375726545
:101C40005F656E7465720A0078797A63616C5F73A0
:101C5000706972616C382063783D25642063793D3A
:101C60002564207A303D256420647A3D2564207205
:101C700061646975733D25642061643D25640A00D3
:101C800078797A63616C5F7365617263685A206EFC
:101C90006F207369676E616C0A20783D256C642043
:101CA000793D256C64207A3D256C640A00204F4EF6
:101CB0002D5349474E414C20617420783D256420C6
:101CC000793D2564207A3D25642061643D25640AC0
:101CD0000078797A63616C5F7365617263685A201A
:101CE000783D256C6420793D256C64207A3D256C17
:101CF000640A000A00253032780078797A63616CD2
:101D00005F7363616E5F706978656C735F3332789F
:101D100033322063783D25642063793D2564206D4E
:101D2000696E5F7A3D2564206D61785F7A3D256438
:101D30000A00202532642025640A000A002530327A
:101D40007800206D696E3D2564206D61783D2564C5
:101D5000206469663D25640A006D61785F633D25F6
:101D60003264206D61785F6C3D25640A006D617896
:101D70005F633D2564206D61785F723D2564206D51
:101D800061785F6D617463683D25640A0020783D69
:101D9000256420793D2564207A3D25640A00207061
:101DA00061747465726E20666F756E642061742054
:101DB00025642025640A000000F000F801FC03FE01
:101DC00007FE07FE07FE07FC03F801F000000073A2
:101DD000697A656F6628746F74616C293D25640AA1
:101DE0000073697A656F6628626C6F636B5F6275FA
:101DF00066666572293D25640A0078797A63616CAC
:101E00005F6D656173737572655F6C656176650A98
:101E100000706F696E743D256420783D25642079DB
:101E20003D2564207A3D25640A0058025802584D29
:101E3000584DB004F055F055B00478797A63616C70
:101E40005F66696E645F6265645F696E6475637422
:101E5000696F6E5F73656E736F725F706F696E74BA
:101E60005F787920783D256C6420793D256C64206D
:101E70007A3D256C640A00203C20005741524E49AF
:101E80004E473A2046726F6E7420706F696E7420F0
:101E90006E6F7420726561636861626C652E205993
:101EA00020636F6F7264696E6174653A00000000B0
:101EB00040410000C04000005C430000C040000002
:101EC0005C43000046430000404100004643497423
:101ED00065726174696F6E3A200000007F43008074
:101EE00058439AD95143FFFFFF43616C69627261A5
:101EF00074696F6E206661696C6564212043686552
:101F0000636B20746865206178657320616E64205E
:101F100072756E20616761696E2E004B494C4C45AD
:101F2000442E20005072696E7465722068616C7472
:101F300065642E206B696C6C28292063616C6C656C
:101F40006421004D31303420496E76616C69642023
:101F5000657874727564657220004D3130352049A2
:101F60006E76616C69642065787472756465722040
:101F7000004D31303920496E76616C696420657896
:101F800074727564657220004D32313820496E7666
:101F9000616C696420657874727564657220004DA7
:101FA00032323120496E76616C69642065787472D2
:101FB0007564657220005265636F766572696E673D
:101FC000207072696E7420202020004B494C4C3ADE
:101FD0002025640A0055564C4F202D20656E642044
:101FE00025640A007374707325640A00776F726C3D
:101FF0006420636F6F7264696E617465733A202840
:10200000252E33662C20252E33662C20252E336674
:10201000290A00706879736963616C20636F6F725D
:1020200064696E617465733A2028252E33662C200E
:10203000252E33662C20252E3366290A004375721F
:1020400072656E7420706F73205A5F415849533A1D
:10205000252E33660A43757272656E7420706F7335
:1020600020455F415849533A252E33660A004166A0
:102070007465722077616974696E6720666F72207B
:1020800074656D703A0A43757272656E7420706F74
:102090007320585F415849533A252E33660A4375D9
:1020A0007272656E7420706F7320595F4158495386
:1020B0003A252E33660A0020573A0020453A00544C
:1020C0003A005A206C6976652061646A75737420E1
:1020D0006F7574206F662072616E67652E20536580
:1020E0007474696E6720746F20302E20436C6963AE
:1020F0006B20746F20636F6E74696E75652E005A65
:10210000206C6976652061646A757374206F7574DC
:10211000206F662072616E67652E20536574746946
:102120006E6720746F20300020423A0020453A004C
:10213000543A00494E5434007265636F7665725F9D
:102140006D616368696E655F73746174655F616614
:102150007465725F706F7765725F70616E69632C12
:1021600020696E697469616C20007265636F7665C1
:10217000725F6D616368696E655F73746174655FDA
:1021800061667465725F706F7765725F70616E69AA
:10219000632C20696E697469616C200047393220B4
:1021A000450050525553412075766C6F00473420DE
:1021B0005330004D32362053256C75004D3130368A
:1021C0002053004D38320047312046256400473106
:1021D0002045322A64656661756C745F726574723D
:1021E000616374696F6E2046343830004731205A7D
:1021F000002046323030300020590047312058004E
:102200004D383300506F736974696F6E2072656169
:10221000642066726F6D20656570726F6D3A004D57
:102220003233202573002E67636F00466565647244
:102230006174653A00473120452D64656661756CAF
:10224000745F72657472616374696F6E20463438AE
:10225000300047312045352046313230004D38338B
:10226000004D31393020532564004D313039205331
:1022700025640047323820582059004731205A320F
:10228000352046383030006F6B0A00737461727409
:102290000A0046420A004D4D5532206669726D773C
:1022A0006172652076657273696F6E20696E766102
:1022B0006C69642E2052657175697265642076655B
:1022C0007273696F6E3A206275696C64206E756D09
:1022D000626572202564206F722068696768657284
:1022E0002E006E6F745F6F6B0A004D4D55203D3EA2
:1022F00020276E6F74206F6B2F70726F636573731E
:10230000696E67270A004D4D55203D3E20276F6BB3
:10231000270A004D363030004D36303020415554BC
:102320004F004653454E534F525F5245434F56451B
:102330005200256868750050300A0052300A004586
:1023400025640A0055300A0043300A004C25640A0F
:10235000005425640A004D4D55202D20454E414224
:102360004C454400256868750050300A0050300A1A
:10237000004D4D552076657273696F6E2076616CE5
:1023800069640025750053320A002575004D4D55CE
:10239000206E6F7420726573706F6E64696E672053
:1023A0002D2044495341424C45440046420A004DC9
:1023B0003130392053323130004D4D55203D3E20D3
:1023C000272553656E7365642046696C616D656E83
:1023D0007420617420426F6F74270A0053310A0021
:1023E0004D4D552073746172747320726573706FF4
:1023F0006E64696E670A004D4D55206E6F742072D1
:102400006573706F6E64696E670A000000803F55E7
:102410005585410000803F0000C841000000405544
:102420005505420000C03F000048420000204055D2
:10243000558542000070C1ABAAA642000060C100F1
:1024400000A0410000C0C00000204100002041ABBE
:10245000AA3A41000020C15555D540000048C25558
:102460005505424D373031204530004D3730312051
:102470004531004D373031204532004D3730312065
:102480004533004D373031204534004D3730312051
:102490004534004D373031204533004D3730312041
:1024A0004532004D373031204531004D3730312035
:1024B00045300046696C616D656E74206E72206FE8
:1024C0007574206F662072616E6765210077323502
:1024D000783230636C5F63666D0A0077323578322C
:1024E00030636C5F656E7465720A00504154393117
:1024F00032355F5245535F593D256868750A005073
:102500004154393132355F5245535F583D25686833
:10251000750A00062833D036C23E013F15413242CB
:102520003B43F2443B45F24622473B48F2493B4A93
:10253000F05898590C5A085B0C5C086110679B6E48
:102540002271077208FF095A0D000EF019045E0887
:1025500020642B6D322FFF506C65617365207570A0
:1025600064617465206669726D7761726520696E59
:1025700020796F7572204D4D55322E205761697448
:10258000696E6720666F722072657365742E004DE8
:102590004D55204F4B2E20526573756D696E672E19
:1025A0002E2E004D4D55204F4B2E20526573756DCC
:1025B000696E6720706F736974696F6E2E2E2E00BE
:1025C0004D4D55204F4B2E20526573756D696E67CA
:1025D0002074656D70657261747572652E2E2E00A3
:1025E0004D4D55206E65656473207573657220616D
:1025F0007474656E74696F6E2E20466978207468F5
:102600006520697373756520616E64207468656EFA
:1026100020707265737320627574746F6E206F6EB4
:10262000204D4D5520756E69742E00506C65617398
:10263000652072656D6F76652066696C616D656E8B
:102640007420616E64207468656E207072657373A7
:1026500020746865206B6E6F622E00456A65637436
:10266000696E672066696C616D656E7400544D43D8
:1026700020445249564552204F56455254454D50DC
:10268000005A25362E326620005A2020202D2D2D6E
:10269000200025632533642F2564256300256325E9
:1026A00033642525002D2D2D002533686864002511
:1026B0003353253373252500205344002020200068
:1026C000555342002025753E25750020462575008E
:1026D00020463020200025632D2D3A2D2D2020006E
:1026E0002563253032753A25303275256325630020
:1026F000726573756C742076616C75653A2025641B
:102700000A0020693D25326420636E743D253264E1
:102710002076616C3D2532640A00636C75737465C4
:1027200072733A0A0020693D253264207374657023
:102730003D2532640A00736F727465642073616DA5
:10274000706C65733A0A00555341525432207278C6
:102750002046756C6C2121210A003A20002020209F
:102760002020202020202020202020202020202069
:1027700000203A200020202020202020202020207F
:102780002020202020202020200020202020202069
:10279000202020202020200025730050494E444155
:1027A0002048656174696E670054656D702E206302
:1027B000616C2E202020202020202020200043613A
:1027C0006C6962726174696F6E20646F6E6500423D
:1027D000656420646F6E65004265642048656174BD
:1027E000696E670048656174696E6720646F6E6525
:1027F0002E0048656174696E6700000E1315110E96
:1028000000000004120912040000001C1F11111F17
:1028100000000006191803130C00040E1F041C000E
:102820000000040A0A0A0A11110E001F1511151FD3
:102830000000000103161C0800000000110A04112A
:102840000A040C12120C000000002563252D3138FB
:10285000532563002563252E3135533A25732533DF
:1028600064002563252E3132533A257325004578BF
:1028700072656D65207370616E206F662074686587
:10288000205A2076616C756573210000004041007C
:102890000000400000E442000000400000574300F8
:1028A000000040000057430000C4420000E4420022
:1028B00000C442000040410000C44200004041000A
:1028C0000042430000E4420000424300005743003E
:1028D000004243205B6F66665D00426564206C6564
:1028E00076656C696E67206661696C65642E20533D
:1028F000656E736F72206469646E742074726967A8
:102900006765722E20446562726973206F6E206E57
:102910006F7A7A6C653F2057616974696E672066CB
:102920006F722072657365742E00206F6620390007
:102930004D6561737572696E672072656665726553
:102940006E636520686569676874206F66206361DF
:102950006C6962726174696F6E20706F696E740069
:102960004D3435004D3435205A004737360057690D
:102970007A6172642073746174653A20256400443E
:10298000697361626C65206661726D206D6F64654C
:10299000004661726D206E756D626572004D38344F
:1029A000004D34340047323820570047393900444D
:1029B000697361626C65206661726D206D6F64651C
:1029C0003F0043616C69627261746500506C6561BF
:1029D0007365206C6F616420504C412066696C61A6
:1029E0006D656E742066697273742E004973205091
:1029F0004C412066696C616D656E74206C6F61641A
:102A000065643F0043616E63656C0046696C616D8F
:102A1000656E740053656C65637420504C4120668C
:102A2000696C616D656E743A0052756E6E696E67A1
:102A30002057697A6172642077696C6C2064656CD8
:102A40006574652063757272656E742063616C696C
:102A500062726174696F6E20726573756C74732035
:102A6000616E642073746172742066726F6D20747D
:102A7000686520626567696E6E696E672E20436FB8
:102A80006E74696E75653F00507265686561746942
:102A90006E67206E6F7A7A6C652E20506C6561735C
:102AA0006520776169742E00596F752063616E200F
:102AB000616C7761797320726573756D65207468D8
:102AC000652057697A6172642066726F6D20436178
:102AD0006C6962726174696F6E202D3E2057697A4D
:102AE0006172642E00506C65617365206368656374
:102AF0006B206F75722068616E64626F6F6B20610E
:102B00006E6420666978207468652070726F626CEC
:102B1000656D2E205468656E20726573756D652035
:102B20007468652057697A617264206279207265E1
:102B3000626F6F74696E6720746865207072696E69
:102B40007465722E00416C6C20697320646F6E6531
:102B50002E204861707079207072696E74696E679A
:102B60002100506C6561736520636C65616E20683F
:102B700065617462656420616E64207468656E20AE
:102B8000707265737320746865206B6E6F622E00BF
:102B9000446F20796F752077616E7420746F207296
:102BA0006570656174206C61737420737465702046
:102BB000746F20726561646A7573742064697374DC
:102BC000616E6365206265747765656E206E6F7AED
:102BD0007A6C6520616E6420686561746265643F2B
:102BE00000492077696C6C20737461727420746F73
:102BF000207072696E74206C696E6520616E64204D
:102C0000796F752077696C6C206772616475616C8F
:102C10006C79206C6F77657220746865206E6F7AAE
:102C20007A6C6520627920726F746174696E6720B6
:102C3000746865206B6E6F622C20756E74696C20F1
:102C4000796F75207265616368206F7074696D615A
:102C50006C206865696768742E20436865636B2023
:102C600074686520706963747572657320696E207D
:102C70006F75722068616E64626F6F6B20696E2081
:102C8000636861707465722043616C69627261741B
:102C9000696F6E2E004E6F7720492077696C6C202B
:102CA00063616C6962726174652064697374616EDA
:102CB0006365206265747765656E20746970206F46
:102CC0006620746865206E6F7A7A6C6520616E6428
:102CD00020686561746265642073757266616365FE
:102CE0002E00497320697420504C412066696C6144
:102CF0006D656E743F004C6F6164696E6720666934
:102D00006C616D656E7400506C6561736520696EF1
:102D10007365727420504C412066696C616D656EFC
:102D20007420746F207468652065787472756465AA
:102D3000722C207468656E207072657373206B6EE0
:102D40006F6220746F206C6F61642069742E005074
:102D50006C6561736520696E7365727420504C41B7
:102D60002066696C616D656E7420746F207468658F
:102D70002066697273742074756265206F66204DD9
:102D80004D552C207468656E2070726573732074C5
:102D90006865206B6E6F6220746F206C6F616420B9
:102DA00069742E00456A65637400556E6C6F6164CA
:102DB0000055736520756E6C6F616420746F2072AE
:102DC000656D6F76652066696C616D656E74203126
:102DD0002069662069742070726F747275646573FF
:102DE000206F757473696465206F66207468652050
:102DF00072656172204D4D5520747562652E2055A7
:102E0000736520656A65637420696620697420694A
:102E1000732068696464656E20696E2074756265EC
:102E20002E0053656C656374206E6F7A7A6C652032
:102E3000707265686561742074656D706572617427
:102E4000757265207768696368206D617463686571
:102E50007320796F7572206D6174657269616C2E73
:102E6000004E6F7720492077696C6C20707265681E
:102E7000656174206E6F7A7A6C6520666F7220507F
:102E80004C412E0049732066696C616D656E74203B
:102E90006C6F616465643F0049732066696C616DA5
:102EA000656E742031206C6F616465643F00492059
:102EB00077696C6C2072756E207A2063616C696230
:102EC000726174696F6E206E6F772E00492077698A
:102ED0006C6C2072756E2078797A2063616C6962FF
:102EE000726174696F6E206E6F772E20497420773F
:102EF000696C6C2074616B6520617070726F782EE4
:102F0000203132206D696E732E0046697273742C05
:102F100020492077696C6C2072756E20746865207A
:102F200073656C667465737420746F206368656381
:102F30006B206D6F737420636F6D6D6F6E206173A6
:102F400073656D626C792070726F626C656D732E43
:102F50000048692C204920616D20796F7572204FDF
:102F6000726967696E616C20507275736120693394
:102F7000207072696E7465722E20576F756C6420B4
:102F8000796F75206C696B65206D6520746F2067A3
:102F90007569646520796F75207468726F756768EC
:102FA000207468652073657475702070726F636536
:102FB00073733F00452D636F7272656374005A2D01
:102FC000636F727265637400592D636F727265630B
:102FD0007400582D636F727265637400536F756E61
:102FE000642020202020205B6C6F75645D00536F8F
:102FF000756E642020202020205B6D7574655D0057
:10300000536F756E64202020205B73696C656E744D
:103010005D00536F756E642020202020205B6F6E52
:1030200063655D00536F756E642020202020205B57
:103030006C6F75645D00536F72743A2020202020FD
:10304000205B6E6F6E655D00536F72743A20205B7B
:10305000616C7068616265745D00536F72743A20D0
:1030600020202020205B74696D655D00534420633F
:1030700061726420205B6E6F726D616C5D00534401
:103080002063617264205B666C73684169725D00E5
:1030900052506920706F727420202020205B6F6E68
:1030A0005D0052506920706F7274202020205B6F89
:1030B00066665D0054656D702E2063616C2E202065
:1030C000205B6F6E5D0054656D702E2063616C2E09
:1030D00020205B6F66665D004C696E2E20636F7208
:1030E00072656374696F6E0046616E732063686514
:1030F000636B20205B6F66665D0046616E732063C4
:103100006865636B2020205B6F6E5D004175746F96
:10311000206465706C6574655B6F66665D00417503
:10312000746F206465706C657465205B6F6E5D0004
:10313000462E204F51206D656173732E5B6F66665E
:103140005D00462E204F51206D656173732E205B0C
:103150006F6E5D00462E206175746F6C6F61642028
:103160005B6F66665D00462E206175746F6C6F61E3
:103170006420205B6F6E5D00462E206175746F6C5D
:103180006F6164205B4E2F415D0046696C2E207399
:10319000656E736F72205B4E2F415D0044697361F1
:1031A000626C65207374657070657273004D6F7624
:1031B0006520617869730054656D7065726174751E
:1031C00072650054656D702E2063616C6962726176
:1031D00074696F6E0052657365742058595A206384
:1031E000616C6962722E0053686F772070696E643B
:1031F00061207374617465005049442063616C6997
:1032000062726174696F6E00426564206C657665F8
:103210006C20636F7272656374004D657368204241
:103220006564204C6576656C696E670043616C6906
:103230006272617465205A0043616C6962726174E4
:10324000652058595A0053656C6674657374202064
:1032500020202020202020004669727374206C6199
:103260007965722063616C2E0057697A617264001F
:103270004C6F61642066696C616D656E7420350009
:103280004C6F61642066696C616D656E74203400FA
:103290004C6F61642066696C616D656E74203300EB
:1032A0004C6F61642066696C616D656E74203200DC
:1032B0004C6F61642066696C616D656E74203100CD
:1032C0004C6F616420616C6C00456A6563742066B4
:1032D000696C616D656E74203500456A65637420A4
:1032E00066696C616D656E74203400456A6563744F
:1032F0002066696C616D656E74203300456A656394
:10330000742066696C616D656E74203200456A6573
:1033100063742066696C616D656E74203100556E52
:103320006C6F61642066696C616D656E7420350038
:10333000556E6C6F61642066696C616D656E74209A
:103340003400556E6C6F61642066696C616D656EEA
:1033500074203300556E6C6F61642066696C616D1A
:10336000656E74203200556E6C6F61642066696C06
:10337000616D656E74203100556E6C6F6164206103
:103380006C6C004578747275646572203400457801
:103390007472756465722033004578747275646563
:1033A0007220320045787472756465722031005065
:1033B0006C656173652070756C6C206F7574206628
:1033C000696C616D656E7420696D6D6564696174A9
:1033D000656C7900556E6C6F6164696E6720666913
:1033E0006C616D656E740057697A61726420656EF8
:1033F000642073746174653A2025640A0046696C20
:103400002E2058643A2533642059643A2533640ADF
:10341000496E743A202533642020536875743A202D
:103420002533640046696C616D656E742073656E4A
:10343000736F720A69732064697361626C65642ECC
:10344000001B5B303B30484E6F7A7A6C65204641FA
:103450004E3A202534642052504D0A5072696E74E1
:103460002046414E3A20202534642052504D0A0017
:103470001B5B324A2553203A1B5B313B39482538C8
:103480002E3266206D0A2553203A0A25376C646473
:10349000203A253268686468203A253032686864CA
:1034A000206D001B5B324A25533A1B5B313B36488B
:1034B00025382E32666D200A2553203A1B5B333B9C
:1034C00038482532646820253032646D202530323A
:1034D00064730025362E32666D6D004E2F41001B41
:1034E0005B303B304825533A0A25530A25533A0AA4
:1034F00025533A001B5B303B3135484E2F41001BB2
:103500005B303B31354825342E326601001B5B3081
:103510003B304825533A0A25530A25533A202025A3
:10352000352E3266010A25533A202025352E326683
:1035300001001B5B303B3048546F74616C20666146
:10354000696C757265731B5B313B3148506F7765F1
:1035500072206661696C757265732020252D336455
:103560001B5B323B314846696C616D2E2072756E73
:103570006F7574732020252D33641B5B333B3148FA
:10358000437261736820205820252D336420205910
:1035900020252D3364001B5B303B30484C61737435
:1035A000207072696E74206661696C757265731B38
:1035B0005B313B3148506F776572206661696C758D
:1035C0007265732020252D33641B5B323B314846E6
:1035D000696C616D2E2072756E6F75747320202575
:1035E0002D33641B5B333B31484372617368202089
:1035F0005820252D336420205920252D3364005474
:103600006F74616C004C617374207072696E740029
:103610001B5B323B3148416D6269656E743A202014
:10362000256425631B5B333B314850494E44413A86
:103630002020202025642563001B5B303B31484E51
:103640006F7A7A6C653A202020256425631B5B31F4
:103650003B31484265643A20202020202025642503
:1036600063001B5B313B31485057523A20202020E9
:10367000202025642E2530316456001B5B303B3101
:103680004842656C74207374617475731B5B313BC5
:103690003248582025641B5B323B32485920256450
:1036A00000464C4558202D20203234302F35300034
:1036B00050502020202D20203235342F3130300042
:1036C00048495053202D20203232302F31303000E5
:1036D00041425320202D20203235352F313030000B
:1036E00050455420202D20203233302F38350050C3
:1036F0004C4120202D20203231352F3630004142E0
:1037000053202020202D20203235352F313030001D
:103710006E6F7A7A6C65202D20203235302F300084
:103720006661726D2020202D20203235302F3630FA
:1037300000466C617368416972204950204164649D
:10374000723A004D4D5532202020202020204E2F4F
:103750004100756E6B6E6F776E0025642E25642EAA
:1037600025642D2564002046573A004D4D553220E2
:10377000636F6E6E6563746564004E6F76202032F1
:10378000203230313800453344763666756C6C0033
:1037900045494E53795F31306100315F37356D6D8A
:1037A0005F4D4B33002D2D2D2D2D2D2D2D2D2D2D00
:1037B0002D00207265706F20556E6B6E6F776E00F6
:1037C00020332E342E322D31333630004669726D5F
:1037D000776172653A0025642E25642E25642E25B6
:1037E00064004D373032004D373031004578747207
:1037F00075646572006D6D000059005800580059DD
:10380000005A002563252E3132533A2573252B307B
:10381000362E336600436F6F6C646F776E00566FA1
:103820006C74616765730054656D70657261747561
:103830007265730042656C742073746174757300F3
:10384000457874727564657220696E666F005859A8
:103850005A2063616C2E2064657461696C73004446
:103860006174653A00686F77746F2E70727573615A
:1038700033642E636F6D00666F72756D2E70727596
:10388000736133642E636F6D00707275736133649E
:103890002E636F6D004175746F6C6F6164696E6744
:1038A0002066696C616D656E742069732061637454
:1038B0006976652C206A7573742070726573732045
:1038C000746865206B6E6F6220616E6420696E7330
:1038D0006572742066696C616D656E742E2E2E00A3
:1038E000546F74616C207072696E742074696D65B8
:1038F00000546F74616C2066696C616D656E740054
:103900005072696E742074696D650046696C616DF2
:10391000656E7420757365640050726568656174C6
:1039200020746865206E6F7A7A6C6521004552526A
:103930004F523A005269676874004C6566740059CA
:103940002064697374616E63652066726F6D206DAB
:10395000696E0053657665726520736B65770053F9
:103960006C6967687420736B6577004D656173756A
:1039700072656420736B6577005B303B305D20704F
:103980006F696E74206F66667365740041646A7552
:103990007374696E67205A005265736574005265CE
:1039A00061722073696465205B756D5D0046726F9E
:1039B0006E7420736964655B756D5D00526967683C
:1039C0007420736964655B756D5D004C6566742079
:1039D00073696465205B756D5D0053657420746563
:1039E0006D70657261747572653A0024F4D430505C
:1039F000C38E20C2A24017828B7011127A910D8162
:103A00006CD90AA861E108C7586607615143061ED0
:103A10004B5D05C145A7041A411104093D98037186
:103A20003931034036DB0265339102D430540280D1
:103A30002E1D02632CEE01752AC501B028A00110CD
:103A40002781018F2564012B244B01E0223401AC36
:103A5000211F018D200D01801FFC00841EED0097A9
:103A60001DDF00B81CD200E61BC600201BBC006492
:103A70001AB200B219A8000A19A0006A189900D158
:103A800017910040178B00B516840031167E00B3E5
:103A90001579003A157300C7146F0058146A00EEC8
:103AA0001366008813630025135E00C7125B006C69
:103AB00012570015125400C111510070114F00210E
:103AC000114B00D61049008D1047004610440002EB
:103AD000104200C00F4000800F3E00420F3C000625
:103AE0000F3B00CB0E3800930E37005C0E350027DD
:103AF0000E3400F30D3200C10D3100900D30006026
:103B00000D2E00320D2D00050D2C00D90C2B00AE12
:103B10000C2900850C29005C0C2700350C27000EB1
:103B20000C2600E80B2400C40B2400A00B23007D0E
:103B30000B23005A0B2100390B2100180B2000F831
:103B40000A1F00D90A1E00BB0A1E009D0A1D008024
:103B50000A1D00630A1C00470A1B002C0A1B0011E7
:103B60000A1A00F7091A00DD091900C4091900AB87
:103B7000091900920917007B091800630917004C06
:103B800009160036091600200916000A091500F565
:103B9000081500E0081400CC081400B8081400A4AC
:103BA000081400900813007D0812006B08130058D9
:103BB00008120046081200340811002308110012F0
:103BC00008110001081100F0071000E0071000D0F4
:103BD000071000C0071000B0070F00A107100091E8
:103BE000070E0083070F0074070F0065070E0057CC
:103BF000070E0049070E003B070D002E070E0020A0
:103C0000070D0013070D0006070D00F9060C00ED67
:103C1000060D00E0060C00D4060C00C8060C00BC23
:103C2000060C00B0060C00A4060B0099060C008DD3
:103C3000060B0082060B0077060B006C060B00617A
:103C4000060A0057060B004C060A0042060A003816
:103C5000060A002E060A0024060A001A060A0010A8
:103C600006090007060A00FD050900F4050900EB36
:103C7000050900E2050900D9050900D0050900C7BA
:103C8000050900BE050900B5050800AD050800A539
:103C90000509009C050800940508008C05080084AF
:103CA0000508007C050800740508006C0507006520
:103CB0000508005D050700560508004E050700478A
:103CC0000507004005080038050700310507002AF0
:103CD000050700230507001C050600160507000F51
:103CE0000507000805060002050700FB040600F5AD
:103CF000040700EE040600E8040600E2040700DB07
:103D0000040600D5040600CF040600C9040600C35B
:103D1000040600BD040600B7040600B1040500ACAB
:103D2000040600A6040600A00405009B04060095F6
:103D3000040500900406008A04050085040500803F
:103D40000406007A04050075040500700405006B84
:103D500004050066040500610405005C04050057C5
:103D6000040500520405004D040500480405004305
:103D70000405003E0404003A040500350405003043
:103D80000404002C04050027040400230405001E7D
:103D90000404001A04040016040500110404000DB4
:103DA000040400090405000404040000040400FCE9
:103DB000030400F8030400F4030400F0030400EC1F
:103DC000030400E8030400E4030400E0030400DC4F
:103DD000030400D8030400D4030400D0030400CC7F
:103DE000030400C8030300C503030024F404D9201E
:103DF0001BC40C5C0E9804C4095F0265077101F4D2
:103E000005F900FB04B30048048700C103690058AA
:103E100003550003034500BE023A008402310053FB
:103E2000022A002902250004022000E4011C00C827
:103E3000011900AF011700980114008401130071EB
:103E40000110006101100051010E0043010D003608
:103E5000010B002B010B0020010B00150109000CC8
:103E600001090003010800FB000800F3000800EB53
:103E7000000700E4000600DE000600D8000600D2BD
:103E8000000600CC000500C7000500C2000500BD0B
:103E9000000400B9000400B5000400B1000400AD46
:103EA000000400A9000400A5000300A20003009F75
:103EB0000004009B0003009800030095000200939B
:103EC000000300900003008D0002008B00030088B7
:103ED0000002008600020084000300810002007FCF
:103EE0000002007D0002007B0002007900020077E2
:103EF00000010076000200740002007200010071EF
:103F00000002006F0002006D0001006C0002006AF8
:103F10000001006900020067000100660001006501
:103F20000001006400020062000100610001006005
:103F30000001005F0002005D0001005C0001005B09
:103F40000001005A0001005900010058000100570B
:103F5000000100560001005500010054000100530B
:103F60000000005300010052000100510001005008
:103F70000001004F0001004E0000004E0001004D06
:103F80000001004C0001004B0000004B0001004A02
:103F900000010049000100480000004800010047FE
:103FA00000010046000000460001004500000045F9
:103FB00000010044000100430000004300010042F2
:103FC00000000042000100410000004100010040EB
:103FD0000001003F0000003F0001003E0000003EE5
:103FE0000001003D0000003D0001003C0000003CDD
:103FF0000000003C0001003B0000003B0001003AD3
:104000000000003A000100390000003900010038CA
:1040100000000038000000380001003700000037C1
:1040200000010036000000360000003600010035B7
:1040300000000035000000350001003400000034AD
:1040400000000034000100330000003300000033A2
:104050000001003200000032000000320001003197
:10406000000000310000003100010030000000308D
:10407000000000300001002F0000002F0000002F82
:104080000000002F0001002E0000002E0000002E76
:104090000001002D0000002D0000002D0000002D6B
:1040A0000001002C0000002C0000002C0000002C5F
:1040B0000001002B0000002B0000002B0000002B53
:1040C0000001002A0000002A0000002A0000002A47
:1040D000000100290000002900000029000000293B
:1040E000000000290001002800000028000000282E
:1040F0000000002800000028000100270000002721
:104100000000002700000027000000270001002613
:104110000000002600000026000000260000002607
:1041200000010025000000250000002500000025FA
:1041300000000025000000250001002400000024EC
:1041400000000024000000240000002400010023DF
:1041500000000023000000230000002300000023D3
:1041600000000023000000230001002200000022C4
:1041700000000022000000220000002200000022B7
:1041800000010021000000210000002100000021AA
:10419000000000210000002100000021000100209B
:1041A000000000200000002000000020000000208F
:1041B0000000002000000020000000200001001F7F
:1041C0000000001F0000001F0000001F0000001F73
:1041D0000000001F0000001F0001001E0000001E64
:1041E0000000001E0000001E00000043686F6F7397
:1041F0006520636F6C6F723A004661696C2073745E
:10420000617473004D3730322043004661726D2077
:104210006E756D626572004D363030004D3234007F
:104220004D323320257300052E2E00526573756DB7
:10423000696E67207072696E7400537570706F726A
:10424000740053746174697374696373202000434C
:10425000616C6962726174696F6E004175746F4C54
:104260006F61642066696C616D656E74004368619E
:104270006E676520657874727564657200556E6C42
:104280006F61642066696C616D656E7400456A6576
:1042900063742066696C616D656E74004C6F616457
:1042A0002066696C616D656E74004E6F205344200A
:1042B00063617264005072696E742066726F6D2063
:1042C000534400526573756D65207072696E740099
:1042D0005061757365207072696E74005072656804
:1042E0006561740054756E65004C69766520616483
:1042F0006A757374205A00496E666F207363726525
:10430000656E0046696E697368696E67206D6F76C9
:10431000656D656E747300536F756E642020202088
:1043200020205B6C6F75645D00536F756E64202098
:10433000202020205B6D7574655D00536F756E6481
:10434000202020205B73696C656E745D00536F756F
:104350006E642020202020205B6F6E63655D00531B
:104360006F756E642020202020205B6C6F75645D6B
:10437000004372617368206465742E20205B4E2FA9
:10438000415D004372617368206465742E202020B3
:104390005B6F6E5D004372617368206465742E20EC
:1043A000205B6F66665D004D6F6465202020205B9A
:1043B000537465616C74685D004D6F6465202020E6
:1043C00020205B4E6F726D616C5D0046696C2E2023
:1043D00073656E736F7220205B6F6E5D0046696C53
:1043E0002E2073656E736F72205B6F66665D00438F
:1043F00068616E67652066696C616D656E74004604
:104400006C6F770053706565640046616E20737051
:1044100065656400426564004E6F7A7A6C6500538E
:10442000657474696E6773005072696E742061629E
:104430006F7274656400596573004E6F0053746F3A
:1044400070207072696E740046696C6520696E63D5
:104450006F6D706C6574652E20436F6E74696E7538
:104460006520616E797761793F004D61696E00204A
:10447000003E003E0020003E003E0054656D706529
:104480007261747572652063616C696272617469CE
:104490006F6E206661696C65642E20436F6E74696F
:1044A0006E75652077697468207072657373696EC4
:1044B0006720746865206B6E6F622E0054656D70A6
:1044C000657261747572652063616C696272617492
:1044D000696F6E20646F6E652E20436F6E74696E17
:1044E00075652077697468207072657373696E678B
:1044F00020746865206B6E6F622E005A3020284C45
:104500004544206F6E2920005A3120284C45442014
:104510006F66662900502E492E4E2E442E412E20C5
:104520007374617465004738300054656D7065724E
:1045300061747572652063616C6962726174696F20
:104540006E206661696C65640054656D70657261AA
:10455000747572652063616C6962726174696F6EF3
:104560002069732066696E697368656420616E6492
:10457000206163746976652E2054656D702E20630A
:10458000616C6962726174696F6E2063616E206232
:10459000652064697361626C656420696E206D6575
:1045A0006E752053657474696E67732D3E54656D26
:1045B000702E2063616C2E0045787472756465728C
:1045C000004D6F7665205A004D6F76652059004D7D
:1045D0006F76652058001B5B324A43726173682016
:1045E000646574656374696F6E2063616E1B5B3113
:1045F0003B30486265207475726E6564206F6E2072
:104600006F6E6C7920696E1B5B323B30484E6F7267
:104610006D616C206D6F6465001B5B324A574152BF
:104620004E494E473A1B5B313B30484372617368D9
:1046300020646574656374696F6E1B5B323B304840
:1046400064697361626C656420696E1B5B333B3027
:1046500048537465616C7468206D6F6465004175C2
:10466000746F6C6F6164696E672066696C616D65FB
:104670006E7420617661696C61626C65206F6E6C2E
:1046800079207768656E2066696C616D656E74204F
:1046900073656E736F72206973207475726E6564D2
:1046A000206F6E2E2E2E004552524F523A204669F0
:1046B0006C616D656E742073656E736F72206973C3
:1046C000206E6F7420726573706F6E64696E672CF4
:1046D00020706C6561736520636865636B20636F30
:1046E0006E6E656374696F6E2E00627573793A2021
:1046F00070617573656420666F7220696E70757481
:1047000000627573793A2070617573656420666F15
:1047100072207573657200627573793A2070726FDA
:1047200063657373696E67002046004731205A0045
:1047300020460047312045004D3833006F6B0A009A
:1047400000002110422063308440A550C660E7700D
:10475000088129914AA16BB18CC1ADD1CEE1EFF1B5
:104760003112100273325222B5529442F772D6625D
:10477000399318837BB35AA3BDD39CC3FFF3DEE305
:104780006224433420040114E664C774A4448554AD
:104790006AA54BB528850995EEE5CFF5ACC58DD555
:1047A0005336722611163006D776F6669556B446FD
:1047B0005BB77AA719973887DFF7FEE79DD7BCC7A5
:1047C000C448E5588668A77840086118022823384D
:1047D000CCC9EDD98EE9AFF9488969990AA92BB9F5
:1047E000F55AD44AB77A966A711A500A333A122A9D
:1047F000FDDBDCCBBFFB9EEB799B588B3BBB1AAB45
:10480000A66C877CE44CC55C222C033C600C411CEC
:10481000AEED8FFDECCDCDDD2AAD0BBD688D499D94
:10482000977EB66ED55EF44E133E322E511E700E3C
:104830009FFFBEEFDDDFFCCF1BBF3AAF599F788FE4
:104840008891A981CAB1EBA10CD12DC14EF16FE1C4
:104850008010A100C230E3200450254046706760FC
:10486000B9839893FBA3DAB33DC31CD37FE35EF314
:10487000B1029012F322D23235421452776256724C
:10488000EAB5CBA5A89589856EF54FE52CD50DC564
:10489000E234C324A014810466744764245405449C
:1048A000DBA7FAB79987B8975FE77EF71DC73CD7B4
:1048B000D326F2369106B0165766767615463456EC
:1048C0004CD96DC90EF92FE9C899E9898AB9ABA904
:1048D0004458654806782768C018E1088238A3283C
:1048E0007DCB5CDB3FEB1EFBF98BD89BBBAB9ABB54
:1048F000754A545A376A167AF10AD01AB32A923A8C
:104900002EFD0FED6CDD4DCDAABD8BADE89DC98DA3
:10491000267C076C645C454CA23C832CE01CC10CDB
:104920001FEF3EFF5DCF7CDF9BAFBABFD98FF89FF3
:10493000176E367E554E745E932EB23ED10EF01E2B
:104940007C3C3E5E2B3D3F2F5B5D3B2C2A225C0076
:1049500043757272656E7400557365642064757278
:10496000696E67207072696E7400504944206361FB
:104970006C2E2066696E6973686564005049442036
:1049800063616C2E20202020202020202020200069
:10499000506C656173652077616974004D31313702
:1049A000204669727374206C617965722063616C52
:1049B0002E005072696E74207061757365640049D1
:1049C0006E76616C6964205049442063616C2E20CE
:1049D000726573756C74732E204E6F742073746FD0
:1049E00072656420746F20454550524F4D2E004D26
:1049F000353030004731205A31352046313530309E
:104A0000004739310047312058353020593139308D
:104A100020453020463730303000473930004D37A0
:104A20003032004D3730322043004D373032205580
:104A3000004D373032004D373032204300473120AF
:104A40005A31352046313530300047393100473151
:104A50002058353020593139302045302046373004
:104A60003030004D383300473930004D3834004D78
:104A7000313034205330004D3834004D373032203F
:104A800043004731205831302059313830204634E6
:104A9000303030004731205A313020463133303009
:104AA0002E303030004D313430205330004D313015
:104AB0003420533000473120452D302E30373530EB
:104AC000302046323130302E3030303030004D31F1
:104AD000303700473120583530205935352045339F
:104AE0002E36323737330047312058323030205994
:104AF00035352045302E343933383600473120588B
:104B0000323030205937352045332E36323737335F
:104B100000473120583530205937352045302E3464
:104B2000393338360047312058353020593935204F
:104B300045332E3632373733004731205832303044
:104B4000205939352045302E343933383600473135
:104B5000205832303020593131352045332E36320D
:104B6000373733004731205835302059313135201F
:104B700045302E343933383600473120583530200F
:104B8000593133352045332E3632373733004731EC
:104B9000205832303020593133352045302E3636CA
:104BA00031373400473120583230302059313535D3
:104BB0002045322E363237373300473120583130D6
:104BC00030205931353520453200473120583735AE
:104BD00020593135352045322E35004731204631B8
:104BE000303830004731205A302E313530204637AA
:104BF0003230302E30303000473120583530205997
:104C0000313535004731204634303030004D3230B8
:104C100034205331303030004731205A3520463768
:104C20003230302E30303000473120452D312E3596
:104C3000303030302046323130302E30303030306D
:104C4000004D3833004739300047323100473932A0
:104C50002045302E3000473120583130302E302062
:104C60004531322E352046313030302E300047313C
:104C7000205836302E302045392E30204631303005
:104C8000302E300047312058352E302045342E301C
:104C90002046313030302E30004731205A302E320D
:104CA000302046313030302E3000473120583535F5
:104CB0002E30204532352046313430302E300047FA
:104CC0003120592D322E302046313030302E3000F8
:104CD000473120583234302E30204532352E3020A6
:104CE0002046323230302E30004739322045302EC7
:104CF00030004731205A302E332046313030302EAC
:104D000030004731205835352E302045382E3020A0
:104D100046323030302E300047312058352E30208A
:104D20004533322E302046313830302E3000473176
:104D3000205835352E30204533322E302046313044
:104D400037332E30004731205A302E342046313050
:104D500030302E3000473120592D332E302046314F
:104D60003030302E30004D38330047393220453056
:104D70002E3000473238004D313039205332313532
:104D8000004D31393020533630004D31343020530E
:104D90003630004D3130342053323135004D313012
:104DA000370053657474696E67732053746F72654E
:104DB000640053746F7265642073657474696E6700
:104DC0007320726574726965766564004861726407
:104DD000636F6465642044656661756C7420536517
:104DE0007474696E6773204C6F6164656400563239
:104DF00000000000C8420000C8420000C843000094
:104E00008C4300004843000048430000404100003C
:104E1000F042E8030000E8030000C8000000881327
:104E2000000000409C4400409C4400000000000042
:104E30000000204E00000000204100002041CDCCA9
:104E4000CC3E0000204000000000000000000000F8
:104E50000000CDCCCC3E3D0A8141FF08433EB099D5
:104E6000AB438F42FC42E65A343F4C62B0450000EF
:104E7000000000404000003442000000000000003C
:104E80000000000041000000E03F0000C8420000B8
:104E9000C842000040410000F042C0030000C003CF
:104EA0000000C800000088130000454550524F4DD7
:104EB000204572726F7200436F6E74696E75652063
:104EC0007769746820616E6F7468657220626F77AD
:104ED00064656E3F00250020202020202000202037
:104EE000202020200045524153494E4720616C6CE0
:104EF000206461746100466163746F727920524569
:104F00005345540000007F43008054430000524347
:104F100000000000000080C09A99193E00000000C7
:104F2000000080C09A99193E43616E6E6F742065CF
:104F30006E746572207375626469723A200053441E
:104F40002063617264206F6B006F70656E526F6FCB
:104F500074206661696C656400766F6C756D652E92
:104F6000696E6974206661696C65640053442069E8
:104F70006E6974206661696C00536F7274696E6744
:104F80002066696C657300536F6D652066696C659A
:104F9000732077696C6C206E6F7420626520736F6C
:104FA000727465642E204D61782E204E6F2E206F16
:104FB000662066696C657320696E203120666F6CAF
:104FC00064657220666F7220736F7274696E6720F9
:104FD0006973203130302E001F1F1F1F1F1F1F1F1E
:104FE0002E002E004E6F772066726573682066690A
:104FF0006C653A20004E6F7720646F696E6720669B
:10500000696C653A20002220706F73002220706165
:1050100072656E743A2200535542524F5554494EB0
:10502000452043414C4C207461726765743A2200FC
:10503000747279696E6720746F2063616C6C207381
:1050400075622D67636F64652066696C6573207790
:1050500069746820746F6F206D616E79206C65765D
:10506000656C732E204D4158206C6576656C206907
:10507000733A0057726974696E6720746F206669AD
:105080006C653A200046696C652073656C656374D5
:105090006564002053697A653A200046696C652092
:1050A0006F70656E65643A20001000C90210012C13
:1050B000014001220170011801B0010E01F001044C
:1050C000015002FA00B002F0003003E600D003DC29
:1050D000009004D2007005C800A006BE000008B40D
:1050E00000B009AA00D00BA000600E960060118CE1
:1050F000000015820020197800C01D6E00A02264F7
:1051000000B0275A00902C500000314600E0343C9B
:105110000010383200903A2800603C1E00A03D1478
:1051200000803E0A00203F000070012C0190012702
:1051300001B0012201C0011D01F00118011002138C
:105140000130020E016002090190020401C002FF59
:10515000000003FA004003F5008003F000D003EBE9
:10516000002004E6007004E100E004DC004005D704
:1051700000C005D2004006CD00D006C8008007C39D
:10518000003008BE00F008B900C009B400B00AAF92
:1051900000B00BAA00D00CA500000EA000500F9B81
:1051A00000C01096005012910000148C00C01587AA
:1051B00000B0178200B0197D00D01B7800001E736C
:1051C0000040206E0090226900F024640040275FB8
:1051D0000090295A00E02B5500102E500020304B33
:1051E0000010324600E033410090353C0010373764
:1051F0000070383200A0392D00B03A2800A03B23BF
:1052000000603C1E00103D1900903D1400103E0F40
:1052100000703E0A00C03E0500003F000090137D74
:1052200000B0157800F0177300601A6E00F01C696A
:1052300000A01F640050225F0020255A00E027557F
:1052400000902A5000202D4B00A02F4600F0314145
:105250000010343C00F0353700A037320020392DE3
:1052600000603A2800703B2300603C1E00203D197E
:1052700000C03D1400403E0F00A03E0A00F03E0575
:1052800000403F0000703FFBFF903FF6FFB03FF152
:10529000FFC03FECFFD03FE7FFE03FE2FFF03FDD24
:1052A000FFF03FD8FF20484F54454E442054484516
:1052B000524D414C2052554E4157415900204845CE
:1052C000415442454420544845524D414C2052558A
:1052D0004E4157415900544845524D414C2052557A
:1052E0004E415741590042454420544845524D4192
:1052F0004C2052554E415741590020544845524D7B
:10530000414C2052554E415741592028205052457A
:105310004845415420484F54454E442900205448A4
:1053200045524D414C2052554E415741592028205D
:10533000505245484541542048454154424544292E
:105340000050524548454154204552524F52004268
:1053500045442050524548454154204552524F52F1
:10536000004572723A204D415854454D50003A2044
:1053700045787472756465722073776974636865C3
:1053800064206F66662E204D415854454D50207460
:1053900072696767657265642021004572723A2000
:1053A0004D415854454D50204245440054656D7060
:1053B00065726174757265206865617465642062E8
:1053C0006564207377697463686564206F66662E10
:1053D000204D415854454D5020747269676765727D
:1053E00065642021004572723A204D494E54454D66
:1053F00050204245440054656D7065726174757249
:1054000065206865617465642062656420737769EE
:105410007463686564206F66662E204D494E54455E
:105420004D5020747269676765726564202100457C
:1054300072723A204D494E54454D50003A204578FD
:10544000747275646572207377697463686564202B
:105450006F66662E204D494E54454D50207472693A
:10546000676765726564202100746D633231333083
:105470005F686F6D655F656E7465722861786573CE
:105480005F6D61736B3D307825303278290A007486
:105490006D63323133305F686F6D655F6578697455
:1054A00020746D63323133305F73675F686F6D698D
:1054B0006E675F617865735F6D61736B3D307825F2
:1054C0003032780A0046696C616D656E74207365D0
:1054D0006E736F7200537761707065640046726F0F
:1054E0006E742F6C6566742066616E730041786916
:1054F000730041786973206C656E677468004C6F47
:105500006F73652070756C6C657900456E6473749B
:105510006F70206E6F742068697400456E647374D8
:105520006F70004D6F746F7200456E6473746F70AE
:105530007300576972696E67206572726F720042FC
:105540006564202F20486561746572004E6F742079
:10555000636F6E6E6563746564004865617465723F
:105560002F546865726D6973746F7200506C656159
:10557000736520636865636B203A0053656C6674DD
:10558000657374206572726F7220210046696C61C8
:105590006D656E742073656E736F723A0050726938
:1055A0006E742066616E3A00457874727564657237
:1055B0002066616E3A0053656C667465737420668C
:1055C00061696C6564202000416C6C20636F7272AD
:1055D00065637420202020202000436865636B6988
:1055E0006E672073656E736F727320004368656326
:1055F0006B696E672062656420202020200043686C
:1056000065636B696E67205A20617869732020009A
:10561000436865636B696E67205920617869732000
:105620002000436865636B696E6720582061786964
:1056300073202000436865636B696E6720686F7430
:10564000656E64202000436865636B696E67206542
:105650006E6473746F7073004572726F72202D20C8
:10566000737461746963206D656D6F727920686110
:1056700073206265656E206F7665727772697474E7
:10568000656E00436172642072656D6F76656400BB
:105690004361726420696E736572746564002D2DB8
:1056A0002D2D2D2D2D2D2D2D2D2D2D2D2D2D2D2D2A
:1056B0002D2D0043616C6962726174696E672068A8
:1056C0006F6D65000000000000110A045052555330
:1056D0004133444657002079303D25640A00207844
:1056E000303D25640A004F4B0A004552524F52206C
:1056F00061643D25640A002020207A303D25640A3B
:1057000000207A303D25640A002079303D25640A66
:10571000002078303D25640A0078797A63616C5FF7
:1057200066696E645F706F696E745F63656E7465E1
:1057300072320A0020746F6F206C6F6E672065787C
:1057400074727573696F6E2070726576656E7465BC
:10575000640020636F6C6420657874727573696F80
:105760006E2070726576656E74656400332E342E1B
:1057700032007263006265746100616C7068610080
:105780006465760078797A63616C5F7370697261C1
:105790006C322063783D25642063793D2564207A4E
:1057A000303D256420647A3D25642072616469750A
:1057B000733D25642061643D25640A0001021020C8
:1057C0002008081020401020408002010201080437
:1057D00002010102040810204080804020100804CB
:1057E0000201800402018040201008040201080424
:1057F0000201010204081020408001020408102068
:105800004080100804088010204004408010204090
:10581000048000002200250028002B002E0031000B
:10582000340002010000050108010B010505050512
:10583000070508080808020202020A0A0808040408
:105840000404010101010101010103030303030336
:105850000303040707070C0C0C0C0C0C0C0C0202C5
:10586000020206060606060606060B0B0B0B0B0BC2
:105870000B0B07070A0A0A0A0A0A050505040404AD
:10588000080802746D63323133305F676F746F5F85
:1058900073746570202564202564202564202564A8
:1058A000200A002E006F70656E206661696C656469
:1058B0002C2046696C653A200022206661696C657F
:1058C000643A204275666665722066756C6C2100CC
:1058D0002200256920686F757273202569206D6923
:1058E0006E757465730054494D454F55543A004DDB
:1058F0003131300046756C6C205258204275666616
:10590000657200656E717565696E6720220053547B
:105910004F505045442E20005072696E74657220BD
:1059200073746F707065642064756520746F206592
:1059300072726F72732E20466978207468652065D4
:1059400072726F7220616E6420757365204D3939F3
:105950003920746F20726573746172742E2028541C
:10596000656D70657261747572652069732072650A
:105970007365742E205365742069742061667465A4
:10598000722072657374617274696E6729004E6F5C
:1059900020436865636B73756D2077697468206C4C
:1059A000696E65206E756D6265722C204C61737432
:1059B000204C696E653A2000636865636B73756D92
:1059C000206D69736D617463682C204C6173742061
:1059D0004C696E653A2000446F6E65207072696E86
:1059E00074696E672066696C65004E6F204C696E45
:1059F00065204E756D6265722077697468206368F2
:105A000065636B73756D2C204C617374204C696EEB
:105A1000653A20004C696E65204E756D6265722096
:105A20006973206E6F74204C617374204C696E65CD
:105A3000204E756D6265722B312C204C6173742081
:105A40004C696E653A20006673656E736F725F73A2
:105A5000746F705F616E645F736176655F707269A9
:105A60006E740A006673656E736F725F726573742D
:105A70006F72655F7072696E745F616E645F636F91
:105A80006E74696E75650A0044495341424C454441
:105A90000A00454E41424C4544004653656E736FC3
:105AA000722025530A00504154393132355F696EF6
:105AB00069743A256868750A0050415439313235A5
:105AC0005F696E69743A256868750A0050415439F7
:105AD0003132355F696E69743A256868750A006607
