:100000000C94732F0C94A42F0C94A42F0C94A42F55
:100010000C94A42F0C94296A0C94A42F0C94A42F54
:100020000C94AA690C94A42F0C94A42F0C944DCE7C
:100030000C94A42F0D9415C20C94A42F0C94A42FEF
:100040000C94A42F0D94CB220C94A42F0C94A42FC9
:100050000C94A42F0C94A42F0D9445390D943CBA04
:100060000C94A42F0C944D410C94A42F0C94A42F09
:100070000C94A42F0C94A42F0C94A42F0C94A42FB4
:100080000C94A42F0C94A42F0C94A42F0C94A42FA4
:100090000C94A42F0C94A42F0C94A42F0C94A42F94
:1000A0000C94A42F0C94A42F0C94A42F0C94A42F84
:1000B0000C94A42F0C94A42F0C94A42F0C94A42F74
:1000C0000C94A42F0C94A42F0C94A42F0C948D4169
:1000D0000C94A42F0C94A42F0C94A42F0C94A42F54
:1000E0000C94A42F504054405940614076408F40BA
:1000F000B440DE4083014B010D0213024501ED01C6
:100100007301A301BF016701C301D301BD01D9017F
:1001100011020102D101A701910187019D014F0147
:100120006101470117023F01CD01D7017D01AB01FC
:100130006301B1018901AF017101F901BB01030242
:10014000650165016501F101F101F1015B01A101A9
:10015000F101B701FD010F02E101E701B9019701CA
:1001600043018F01AD01590179013701F5016D019D
:1001700097010B026F015501EF01C701FF019901C2
:100180000902750169018D0115029B0107029301A6
:10019000DF01B3017501CF0151013B01084AD73B93
:1001A0003BCE016E84BCBFFDC12F3D6C74319ABD46
:1001B00056833DDA3D00C77F11BED9E4BB4C3E916A
:1001C0006BAAAABE000000803F05A84CCDB2D44E59
:1001D000B93836A9020C50B9918688083CA6AAAA5B
:1001E0002ABE000000803F07634236B79BD8A71A9B
:1001F00039685618AEBAAB558C1D3CB7CC5763BDA9
:100200006DEDFD753EF6177231BF000000803F08AE
:10021000000000BE922449123EABAAAA2ABECDCC51
:10022000CC4C3E00000080BEABAAAAAA3E00000053
:1002300000BF000000803F0000000000084178D3AC
:10024000BB4387D1133D190E3CC3BD4282AD2B3E4B
:1002500068EC8276BED98FE1A93E4C80EFFFBE01EB
:10026000C4FF7F3F0000000000000D947F990D94B3
:10027000D3BB0D94D6690D946BBC0D94BF250D9422
:1002800045840D94B7590D94A5BB0D941C3A0D945B
:100290000D6E0D94479E0D94D8390D94684B0D94B6
:1002A000DE6D0D9467BC0D94DF690D940ABC0D944E
:1002B00031540D94BFBB0D9438860D942E590D9476
:1002C00003A60D94F86D0D94B6840D9430860D94AC
:1002D0004E3A0D943DBC0D946C540D94ECBB0D94B2
:1002E00000BC0D94CE850D94443A0D9470BC0D94D1
:1002F000979A0D94C9BB0D94CC490D9485840D94A7
:10030000F1690D94AF460D94CA390D942D480D94A2
:10031000CF6D0D94A0850D94727A0D9441BC0D940F
:10032000ADBB0D94AA6D0D9455BC0D946A680D94E7
:1003300014BC0D942CBC0D944BBC0D94D46D0D9439
:10034000C76B0D9466860D94483A0D947D4B0D94C1
:10035000906D0D9407BD0D9499840D94B5BB0D94CB
:10036000B1850D947E850D945DBC0D94F06C0D945B
:1003700042860D949BBB0D9420860D94783A0D9483
:100380004A3A0D9430B00D94503A0D945D710D942D
:1003900039BC0D94E8690D949E920D945C840D9483
:1003A00063BC0D94786D0D945E3A0D9404540D94D5
:1003B00071840D94863A0D947E5E0D94C25C0D940A
:1003C00059BC0D9487BB0D94CF660D94774B0D945B
:1003D00091BB0D949B6A0D9495740D942A3A0D94DB
:1003E00036BC0D9456860D94D9490D94E2BB0D94FC
:1003F0004C4D0D94F7850D94C8A30D947DBB0D94C1
:1004000028BC0D94636D0D9428860D9405AB0D9456
:100410004FBC0D9432BC0D94F6BB0D94F4390D9481
:1004200082BB0D94A63A0D94023A0D9447BC0D94EC
:100430002D8448617264636F6465642044656661FD
:10044000756C742053657474696E6773204C6F61AA
:100450006465640053746F726564207365747469B5
:100460006E6773207265747269657665640020201A
:1004700020452F44203D20002020204D39303020C1
:100480004B004C696E65617220616476616E6365D4
:100490002073657474696E67733A0046696C616DA8
:1004A000656E742073657474696E67733A2044696D
:1004B0007361626C6564002020204D32303020442E
:1004C0000046696C616D656E742073657474696E45
:1004D00067733A002020204D323039205300417597
:1004E000746F2D526574726163743A20533D3020ED
:1004F000746F2064697361626C652C203120746FA5
:1005000020696E7465727072657420657874727596
:1005100064652D6F6E6C79206D6F766573206173E5
:10052000207265747261637473206F7220726563E8
:100530006F766572696573002046002020204D3279
:1005400030382053005265636F7665723A20533D10
:100550004578747261206C656E67746820286D6DD3
:100560002920463A537065656420286D6D2F6D29EA
:1005700000205A002046002020204D3230372053E2
:1005800000526574726163743A20533D4C656E6726
:10059000746820286D6D2920463A53706565642083
:1005A000286D6D2F6D29205A3A205A4C69667420A7
:1005B000286D6D29002044002049002020204D3363
:1005C000303420500050494420686561746265648D
:1005D0002073657474696E67733A00204400204983
:1005E000002020204D3330312050005049442073EA
:1005F000657474696E67733A00205A0020590020B0
:10060000204D323036205800486F6D65206F666689
:1006100073657420286D6D293A00204500205A002A
:1006200020590020580020420020540020204D3244
:100630003035205300416476616E636564207661D5
:10064000726961626C65733A20533D4D696E206634
:100650006565647261746520286D6D2F73292C2087
:10066000543D4D696E2074726176656C20666565D7
:10067000647261746520286D6D2F73292C20423DB2
:100680006D696E696D756D207365676D656E74203B
:1006900074696D6520286D73292C20583D6D617833
:1006A000696D756D205859206A65726B20286D6DD3
:1006B0002F73292C20205A3D6D6178696D756D204E
:1006C0005A206A65726B20286D6D2F73292C2020AB
:1006D000453D6D6178696D756D2045206A65726B69
:1006E00020286D6D2F73290020540020204D3230BA
:1006F00034205300416363656C65726174696F6E89
:100700003A20533D616363656C65726174696F6E15
:100710002C20543D7265747261637420616363655B
:100720006C65726174696F6E00204500205A00206C
:10073000590020204D3230312058004D6178696DCC
:10074000756D20416363656C65726174696F6E20BD
:10075000286D6D2F7332293A00204500205A002061
:10076000590020204D3230332058004D6178696D9A
:10077000756D2066656564726174657320286D6DA2
:100780002F73293A00204500205A002059002020CC
:100790004D39322058005374657073207065722093
:1007A000756E69743A0053657474696E677320538B
:1007B000746F72656400454550524F4D204572720A
:1007C0006F72004D65617373757265206176672085
:1007D0003D2025640A004432313330202D20544D11
:1007E00043323133300A0074656D705F70696E6436
:1007F000613D2564206F66667365745F7A3D25648C
:100800002E253033640A0074656D705F70696E6404
:10081000613D2564432074656D705F73686966741B
:100820003D2564756D0A0063616C5F737461747556
:10083000733D25640A004438202D20526561642FE1
:1008400057726974652050494E44410A00002000E7
:100850006D65736820626564206C6576656C696E91
:10086000673A200029002C20002C20007068797342
:100870006963616C20636F6F7264696E6174657324
:100880003A20280029002C20002C2000776F726C61
:100890006420636F6F7264696E617465733A2028B7
:1008A000002046002045004731205A004D323400D8
:1008B0004D32362053256C75004D313036205300B3
:1008C00047312046256400473120453120463438E1
:1008D00030004731205A0020463230303000205955
:1008E0000047312058004D383300506F73697469E8
:1008F0006F6E20726561642066726F6D2065657031
:10090000726F6D3A004D3233202573002E67636F8E
:100910000046656564726174653A007265636F765E
:1009200065725F6D616368696E655F73746174653C
:100930005F61667465725F706F7765725F70616E1C
:1009400069632C20696E697469616C20007265634B
:100950006F7665725F6D616368696E655F73746100
:1009600074655F61667465725F706F7765725F70E2
:10097000616E69632C20696E697469616C20007214
:1009800065636F7665725F6D616368696E655F73DD
:10099000746174655F61667465725F706F776572AC
:1009A0005F70616E69632C20696E697469616C2087
:1009B0000063757272656E745F706F736974696FCE
:1009C0006E5B455F415849535D3A006375727265CD
:1009D0006E745F706F736974696F6E5B5A5F4158B4
:1009E00049535D3A0043757272656E7420706F737F
:1009F0006974696F6E20595F415849533A004375D5
:100A00007272656E7420706F736974696F6E2058AE
:100A10005F415849533A00416674657220776169B5
:100A200074696E6720666F722074656D703A004756
:100A300039322045004D383200473120452D3120D4
:100A400046343830004731204535204631323000B9
:100A50004D3833004D31393020532564004D31304D
:100A60003920532564004732382058205900473137
:100A7000205A32352046383030004D313430205342
:100A80002564004D3130342053256400494E5434E0
:100A90000055564C4F202D20656E640073747073A2
:100AA0000055564C4F0020423A0020453A00543A37
:100AB000005A206C6976652061646A757374206FD2
:100AC0007574206F662072616E67652E20536574A1
:100AD00074696E6720746F20302E20436C69636BDD
:100AE00020746F20636F6E74696E75652E005A20D6
:100AF0006C6976652061646A757374206F75742003
:100B00006F662072616E67652E2053657474696E1E
:100B10006720746F20300020573A0020453A005477
:100B20003A004B494C4C3A20004175746F00204507
:100B30002F443D00416476616E6365204B3D002289
:100B4000283229005400496E76616C696420542073
:100B5000636F64652E00496E76616C6964204D2078
:100B6000636F64652E004D323230205325690020BA
:100B70003A2000004C414E472053454C20464F52EE
:100B800043454400222831290020453A00205A3AA2
:100B90000020593A0020453A00205A3A0020593A9C
:100BA00000583A004D31313320530020002E0020F0
:100BB000423A0020453A00543A0020413A00205081
:100BC0003A002042403A0020403A00202F003A00EC
:100BD000205400202F0020423A00202F006F6B206D
:100BE000543A002569206D696E2C202569207365B3
:100BF0006300496E76616C6964204D20636F6465A3
:100C0000004D65736820626564206C6576656C696B
:100C10006E67206E6F74206163746976652E000ABA
:100C2000002020000A4D6561737572656420706F45
:100C3000696E74733A000A5A2073656172636820A2
:100C40006865696768743A20002C004E756D2058FD
:100C50002C593A2000476F20686F6D652066696ED9
:100C60006973686564004D65736820626564206C13
:100C70006576656C696E6720616374697661746519
:100C80006400557073616D706C652066696E697380
:100C900068656400426564206C6576656C696E67A2
:100CA00020636F7272656374696F6E2066696E6926
:100CB0007368656400206D6963726F6E73004578B8
:100CC0006365737369766520626564206C6576651B
:100CD0006C696E6720636F7272656374696F6E3AD8
:100CE00020006261627973746570206170706C6954
:100CF000656400636C65616E2075702066696E695D
:100D000073686564200000206F66667365743A201E
:100D1000006D65736820626564206C6576656C693A
:100D20006E673A2000473238205730003A2000548E
:100D3000656D70657261747572652063616C69625E
:100D4000726174696F6E20646F6E652E20436F6EE2
:100D500074696E7565207769746820707265737345
:100D6000696E6720746865206B6E6F622E000020CC
:100D70005A20736869667420286D6D293A005049BD
:100D80004E44412074656D70657261747572653A88
:100D90002000002F3600537465703A200000205A5E
:100DA00020736869667420286D6D293A0050494E99
:100DB00044412074656D70657261747572653A2086
:100DC000002F362028736B69707065642900537496
:100DD00065703A2000005A45524F3A200000737463
:100DE0006172742074656D70657261747572653AB4
:100DF000200050494E44412070726F62652063614B
:100E00006C6962726174696F6E20737461727400D0
:100E1000473238205730000A00205A3A2000205923
:100E20003A200020583A20004732382C2066696E5C
:100E3000616C20004732382C2066696E616C20009E
:100E40004732382C2066696E616C20004732382C9E
:100E500020696E697469616C20004732382C206902
:100E60006E697469616C200043524153485F444588
:100E7000544543544544004D323900627573793A04
:100E80002070617573656420666F7220696E70757D
:100E90007400627573793A207061757365642066B9
:100EA0006F72207573657200627573793A20707283
:100EB0006F63657373696E67002055706C6F616452
:100EC00020696E2070726F677265737300696E6956
:100ED0007469616C207A73746570732061667465DF
:100EE000722072657365743A2000696E6974696175
:100EF0006C207A7374657073206F6E20706F7765E5
:100F0000722075703A2000466163746F72792052C6
:100F1000455345540044495341424C45440A004519
:100F20004E41424C45440A004653656E736F722031
:100F300000504154393132355F696E69743A256425
:100F40000A00446563203131203230313700436F6D
:100F50006D70696C65643A2000286E6F6E652C2098
:100F600064656661756C7420636F6E6669672900DD
:100F700044656320313120323031372031383A3006
:100F8000393A3434007374617274001B5B324A1B4B
:100F90005B313B31484F726967696E616C205072FA
:100FA0007573612069331B5B323B33485072757334
:100FB00061205265736561726368002500202020FE
:100FC000202020002020202020200045524153498D
:100FD0004E4720616C6C20646174610046616374EB
:100FE0006F72792052455345540043524153485F34
:100FF0005245434F56455200473238205900473238
:1010000038205800FFFFFF0000A0400000A0400073
:1010100000004000007F43000056439AD95143002E
:10102000000000000080C09A99193E00007F430034
:101030000052430000524300000000000080C09AAC
:1010400099193E6563686F3A004572726F723A0093
:1010500000002110422063308440A550C660E77034
:10106000088129914AA16BB18CC1ADD1CEE1EFF1DC
:101070003112100273325222B5529442F772D66284
:10108000399318837BB35AA3BDD39CC3FFF3DEE32C
:101090006224433420040114E664C774A4448554D4
:1010A0006AA54BB528850995EEE5CFF5ACC58DD57C
:1010B0005336722611163006D776F6669556B44624
:1010C0005BB77AA719973887DFF7FEE79DD7BCC7CC
:1010D000C448E5588668A778400861180228233874
:1010E000CCC9EDD98EE9AFF9488969990AA92BB91C
:1010F000F55AD44AB77A966A711A500A333A122AC4
:10110000FDDBDCCBBFFB9EEB799B588B3BBB1AAB6B
:10111000A66C877CE44CC55C222C033C600C411C13
:10112000AEED8FFDECCDCDDD2AAD0BBD688D499DBB
:10113000977EB66ED55EF44E133E322E511E700E63
:101140009FFFBEEFDDDFFCCF1BBF3AAF599F788F0B
:101150008891A981CAB1EBA10CD12DC14EF16FE1EB
:101160008010A100C230E320045025404670676023
:10117000B9839893FBA3DAB33DC31CD37FE35EF33B
:10118000B1029012F322D232354214527762567273
:10119000EAB5CBA5A89589856EF54FE52CD50DC58B
:1011A000E234C324A01481046674476424540544C3
:1011B000DBA7FAB79987B8975FE77EF71DC73CD7DB
:1011C000D326F2369106B016576676761546345613
:1011D0004CD96DC90EF92FE9C899E9898AB9ABA92B
:1011E0004458654806782768C018E1088238A32863
:1011F0007DCB5CDB3FEB1EFBF98BD89BBBAB9ABB7B
:10120000754A545A376A167AF10AD01AB32A923AB2
:101210002EFD0FED6CDD4DCDAABD8BADE89DC98DCA
:10122000267C076C645C454CA23C832CE01CC10C02
:101230001FEF3EFF5DCF7CDF9BAFBABFD98FF89F1A
:10124000176E367E554E745E932EB23ED10EF01E52
:101250007C3C3E5E2B3D3F2F5B5D3B2C2A225C009D
:101260004D3234004D3233202573006175746F2583
:10127000692E67000A002F000A002E0044656C6585
:1012800074696F6E206661696C65642C2046696CB8
:10129000653A200046696C652064656C6574656418
:1012A0003A002E002E002E002E004E6F7720667220
:1012B0006573682066696C653A20004E6F7720641C
:1012C0006F696E672066696C653A20002220706F36
:1012D00073002220706172656E743A220053554289
:1012E000524F5554494E452043414C4C2074617235
:1012F0006765743A2200747279696E6720746F2092
:1013000063616C6C207375622D67636F6465206622
:10131000696C6573207769746820746F6F206D61E4
:101320006E79206C6576656C732E204D4158206C6B
:101330006576656C2069733A00256920686F75725F
:1013400073202569206D696E757465730054494D6D
:10135000454F55543A004D3131300046756C6C2084
:101360005258204275666665720022206661696C7B
:1013700065643A204275666665722066756C6C21FC
:1013800000456E717565696E6720746F20746865BD
:101390002066726F6E743A2022002200456E7175CD
:1013A00065696E6720746F207468652066726F6E61
:1013B000743A20220022206661696C65643A2042FA
:1013C00075666665722066756C6C210022004D366C
:1013D00030300070617439313235206E6F74207294
:1013E0006573706F6E64696E672E0A006673656E52
:1013F000736F725F64697361626C650A0050415477
:10140000393132355F696E69743A25640A00667352
:10141000656E736F725F656E61626C650A00507213
:10142000757361206933204D4B33206F6B00507210
:10143000757361206933204D4B3320726561647987
:101440002E007A5F6D696E3A20007A5F6D61783A9E
:1014500020005A204F666673657400795F6D696E6F
:101460003A2000795F6D61783A20005920767A64DD
:10147000616C656E6F7374206F64206D696E3A00E5
:10148000592064697374616E63652066726F6D20A4
:101490006D696E3A00416E6F0059657300785F6D3B
:1014A000696E3A2000785F6D61783A200044657477
:1014B00061696C792058595A206B616C2E0058591B
:1014C0005A2063616C2E2064657461696C73004EF0
:1014D000796E692070726F76656475207A206B6111
:1014E0006C6962726163692E00492077696C6C20B7
:1014F00072756E207A2063616C6962726174696FC3
:101500006E206E6F772E004E796E692070726F7646
:101510006564752078797A206B616C6962726163A9
:10152000692E205A616265726520746F207072693D
:10153000626C697A6E65203132206D696E2E0049C9
:101540002077696C6C2072756E2078797A206361DF
:101550006C6962726174696F6E206E6F772E2049BC
:10156000742077696C6C2074616B65206170707297
:101570006F782E203132206D696E732E004E796E99
:10158000692070726564656872656A692074727931
:10159000736B752070726F20504C412E004E6F7728
:1015A00020492077696C6C207072656865617420D1
:1015B0006E6F7A7A6C6520666F7220504C412E00F7
:1015C000446F6272792064656E2C206A73656D20A9
:1015D00076617365207469736B61726E61204F72FE
:1015E0006967696E616C2050727573612069332E72
:1015F0002043686365746520616279636820566181
:10160000732070726F7665646C61206B616C6962C7
:101610007261636E696D2070726F636573656D3F93
:101620000048692C204920616D20796F7572204F28
:10163000726967696E616C205072757361206933DD
:10164000207072696E7465722E20576F756C6420FD
:10165000796F75206C696B65206D6520746F2067EC
:101660007569646520796F75207468726F75676835
:10167000207468652073657475702070726F63657F
:1016800073733F005A61636E75207469736B6E6F7C
:101690007574206C696E6B752061205679206275B7
:1016A0006465746520706F737475706E6520736EF9
:1016B000697A6F76617420747279736B75206F74B8
:1016C0006163656E696D20746C616369746B612020
:1016D000646F6B7564206E65646F7361686E6574AA
:1016E00065206F7074696D616C6E69207679736BBB
:1016F000792E2050726F686C65646E657465207316
:1017000069206F6272617A6B792076206E617369ED
:101710002070726972756363652076206B617069F1
:10172000746F6C65204B616C69627261636500491E
:101730002077696C6C20737461727420746F2070F0
:1017400072696E74206C696E6520616E6420796FB9
:10175000752077696C6C206772616475616C6C7957
:10176000206C6F77657220746865206E6F7A7A6C72
:101770006520627920726F746174696E6720746885
:1017800065206B6E6F622C20756E74696C20796FAA
:1017900075207265616368206F7074696D616C207B
:1017A0006865696768742E20436865636B20746898
:1017B0006520706963747572657320696E206F753A
:1017C000722068616E64626F6F6B20696E2063685F
:1017D00061707465722043616C6962726174696FD3
:1017E0006E2E004E796E69207A6B616C696272753B
:1017F0006A6920767A64616C656E6F7374206D65BA
:101800007A69206B6F6E63656D20747279736B7982
:10181000206120706F76726368656D206865617401
:10182000626564752E004E6F7720492077696C6C75
:101830002063616C696272617465206469737461AC
:101840006E6365206265747765656E2074697020CB
:101850006F6620746865206E6F7A7A6C6520616EA1
:101860006420686561746265642073757266616383
:10187000652E004E656A6472697620706F6D6F63C5
:10188000692073656C667465737475207A6B6F6E0E
:10189000746F6C756A69206E656A63617374656ADA
:1018A000736920636879627920767A6E696B616A00
:1018B0006963692070726920736573746176656EFF
:1018C00069207469736B61726E792E004669727358
:1018D000742C20492077696C6C2072756E207468B6
:1018E000652073656C667465737420746F2063681B
:1018F00065636B206D6F737420636F6D6D6F6E2009
:10190000617373656D626C792070726F626C656D66
:10191000732E005370757374656E692057697A6110
:101920007264612076796D617A6520756C6F7A6575
:101930006E65207679736C65646B79207673656368
:1019400068206B616C6962726163692061207370E9
:1019500075737469206B616C69627261636E692072
:1019600070726F636573206F64207A616361746B5A
:10197000752E20506F6B7261636F7661743F0052F9
:10198000756E6E696E672057697A61726420776937
:101990006C6C2064656C6574652063757272656E2D
:1019A000742063616C6962726174696F6E20726524
:1019B00073756C747320616E64207374617274202B
:1019C00066726F6D2074686520626567696E6E6906
:1019D0006E672E20436F6E74696E75653F004368B5
:1019E00063657465206F70616B6F76617420706FD2
:1019F000736C65646E69206B726F6B206120706F11
:101A00007A6D656E697420767A64616C656E6F7349
:101A100074206D657A6920747279736B6F752061BB
:101A200020686561746265643F00446F20796F755A
:101A30002077616E7420746F207265706561742008
:101A40006C617374207374657020746F20726561AB
:101A5000646A7573742064697374616E636520626F
:101A600065747765656E206E6F7A7A6C6520616E3D
:101A70006420686561746265643F0057697A6172C9
:101A80006461206D757A657465206B64796B6F6C29
:101A90006976207A6E6F76752073707573746974C9
:101AA000207A206D656E752043616C696272617485
:101AB000696F6E202D3E2057697A61726400596FFC
:101AC000752063616E20616C776179732072657334
:101AD000756D65207468652057697A617264206647
:101AE000726F6D2043616C6962726174696F6E2000
:101AF0002D3E2057697A6172642E004A6520746F0A
:101B000020504C412066696C616D656E743F0049E0
:101B10007320697420504C412066696C616D656E5C
:101B2000743F0050726F73696D20766C6F7A7465C4
:101B300020504C412066696C616D656E7420646F45
:101B4000206578747275646572752C20706F2074CE
:101B50006520737469736B6E65746520746C616362
:101B600069746B6F2070726F207A61766564656E40
:101B7000692066696C616D656E74752E00506C65C8
:101B800061736520696E7365727420504C412066E4
:101B9000696C616D656E7420746F20746865206572
:101BA000787472756465722C207468656E2070722A
:101BB000657373206B6E6F6220746F206C6F61644D
:101BC0002069742E0050726F73696D207A6176659A
:101BD00064746520504C412066696C616D656E745B
:101BE000206120706F207465206F626E6F7674655F
:101BF0002057697A6172646120737469736B6E75C2
:101C000074696D20726573657420746C61636974A6
:101C10006B612E00506C65617365206C6F61642090
:101C2000504C412066696C616D656E7420616E6414
:101C3000207468656E20726573756D652057697ACA
:101C4000617264206279207265626F6F74696E6779
:101C500020746865207072696E7465722E0050720F
:101C600065646568726976616D20747279736B75ED
:101C70002E2050726F73696D2063656B656A7465A1
:101C80002E0050726568656174696E67206E6F7AA8
:101C90007A6C652E20506C6561736520776169747C
:101CA0002E004A652066696C616D656E74207A61EC
:101CB000766564656E3F0049732066696C616D6589
:101CC0006E74206C6F616465643F00567365206AB2
:101CD0006520686F746F766F2E00416C6C2069739D
:101CE00020646F6E652E2048617070792070726973
:101CF0006E74696E67210050726F73696D206F6337
:101D000069737465746520686561746265642061D7
:101D100020737469736B6E65746520746C6163699C
:101D2000746B6F2E00506C6561736520636C656128
:101D30006E206865617462656420616E64207468F9
:101D4000656E20707265737320746865206B6E6FAA
:101D5000622E0050726F73696D206E61686C6564ED
:101D60006E65746520646F206D616E75616C7520A1
:101D700061206F7072617674652070726F626C653D
:101D80006D2E20506F207465206F626E6F767465C3
:101D90002057697A61726461207265626F6F746F37
:101DA00076616E696D207469736B61726E792E0055
:101DB000506C6561736520636865636B206F757235
:101DC0002068616E64626F6F6B20616E642066696B
:101DD00078207468652070726F626C656D2E205477
:101DE00068656E20726573756D652074686520572F
:101DF000697A617264206279207265626F6F7469BA
:101E00006E6720746865207072696E7465722E004A
:101E100057697A61726400205761746368646F6700
:101E200020526573657400496E666F726D616365FB
:101E300000496E666F2073637265656E004B616C5E
:101E40002E207072766E69207672737476790046F1
:101E500069727374206C617965722063616C2E0005
:101E60005761697420666F7220757365722E2E2E0D
:101E700000506F757A69746520626568656D2074BD
:101E800069736B75005573656420647572696E675C
:101E9000207072696E74004F70616B6F7661742090
:101EA000767973756E7574692066696C616D656E9F
:101EB00074753F0052657065617420756E6C6F615A
:101EC00064696E672066696C616D656E743F00566B
:101ED000796A6D6F75742066696C616D656E7400EA
:101EE000556E6C6F61642066696C616D656E74001F
:101EF0005679736F7576616D2066696C616D656E7C
:101F00007400556E6C6F6164696E672066696C6100
:101F10006D656E7400556E6B6E6F776E20636F6DBE
:101F20006D616E643A2022004C61646974005475DE
:101F30006E650053442063617264205B466C736875
:101F40004169725D0053442063617264205B6E6F6F
:101F5000726D616C5D005465706C2E206B616C2E2F
:101F600020205B7A61705D0054656D702E20636186
:101F70006C2E2020205B6F6E5D005465706C2E20EF
:101F80006B616C2E20205B7679705D0054656D70FE
:101F90002E2063616C2E20205B6F66665D005465A9
:101FA000706C6F746E69206B616C696272616365DD
:101FB00020646F6B6F6E63656E612E20506F6B7265
:101FC0006163756A746520737469736B656D2074E1
:101FD0006C616369746B612E0054656D706572612C
:101FE000747572652063616C6962726174696F6E89
:101FF0002069732066696E69736865642E20436C7E
:1020000069636B20746F20636F6E74696E75652EE3
:10201000005465706C2E206B616C2E2020202020D7
:1020200020202020200054656D702E2063616C2ECE
:1020300020202020202020202020005465706C6F5C
:1020400074610054656D70657261747572650050DD
:102050006F64706F726100537570706F7274005AA4
:1020600061737461766974207469736B0053746F63
:1020700070207072696E740053544F505045442E56
:102080002000537465707261746520746F6F2068EE
:102090006967683A20004A65207469736B6F7679C6
:1020A00020706C6174206E61206865617462656483
:1020B0003F00497320737465656C207368656574AF
:1020C000206F6E20686561746265643F0043656CD3
:1020D0006B6F767920636173203A00546F74616C82
:1020E000207072696E742074696D65203A004669CB
:1020F0006C616D656E742063656C6B656D203A0074
:10210000546F74616C2066696C616D656E74203A01
:1021100000436173207469736B75203A202000506E
:1021200072696E742074696D653A20200046696C8E
:10213000616D656E74203A20200046696C616D65A2
:102140006E7420757365643A20200053746174695D
:102150007374696B612020005374617469737469CE
:1021600063732020004572726F72202D207374619A
:10217000746963206D656D6F727920686173206288
:1021800065656E206F7665727772697474656E002E
:10219000527963686C6F73740053706565640054A2
:1021A000726964656E69205B4361735D00536F7291
:1021B000743A205B54696D655D0054726964656EA4
:1021C00069205B5A61646E655D00536F72743A20DA
:1021D0005B4E6F6E655D0054726964656E69205B6D
:1021E000416265636564615D00536F72743A205BA0
:1021F000416C7068616265745D00536F7274696EE2
:10220000672066696C65730020536F66747761722E
:1022100065205265736574004C65686B65207A6B48
:102220006F73656E693A00536C6967687420736BED
:1022300065773A004D6F6420202020205B53746541
:10224000616C74685D004D6F6465202020205B53D5
:102250007465616C74685D004D6F642020202020DF
:10226000205B4E6F726D616C5D004D6F6465202068
:102270002020205B4E6F726D616C5D00537461763F
:10228000206B6F6E632E207370696E2E0053686F23
:102290007720656E642073746F70730054657A6B79
:1022A00065207A6B6F73656E693A00536576657267
:1022B0006520736B65773A004E617374617674655F
:1022C000207465706C6F74753A0053657420746582
:1022D0006D70657261747572653A004E61737461F8
:1022E00076656E690053657474696E677300436840
:1022F000796261207A61706F6A656E6900576972F0
:10230000696E67206572726F720053656C66207427
:102310006573742073746172742020005A6B6F6E41
:1023200074726F6C756A7465203A00506C656173E5
:102330006520636865636B203A0053656C662074A2
:10234000657374204F4B004E657A61706F6A656EDD
:102350006F20202020004E6F7420636F6E6E6563C7
:10236000746564004D6F746F7200486561746572C6
:102370002F546865726D6973746F7200546573745D
:102380002076656E74696C61746F72750046616E5B
:1023900020746573740053656C6674657374207380
:1023A000656C68616C20200053656C66746573749D
:1023B000206661696C65642020004C657679207622
:1023C000656E74206E61207472797363653F004C92
:1023D00065667420686F74656E642066616E3F0088
:1023E00053656C6674657374206572726F72202118
:1023F00000456E6473746F70206E6F74206869742A
:1024000000456E6473746F707300456E6473746F0F
:102410007000507265646E69207469736B6F7679B1
:102420002076656E743F0046726F6E74207072691C
:102430006E742066616E3F004B6F6E74726F6C61DC
:10244000205A2061786973202000436865636B69B6
:102450006E67205A20617869732020004B6F6E747C
:10246000726F6C6120592061786973202000436885
:1024700065636B696E67205920617869732020005D
:102480004B6F6E74726F6C61205820617869732095
:102490002000436865636B696E6720582061786926
:1024A000732020004B6F6E74726F6C6120686F74C4
:1024B000656E64202000436865636B696E67206801
:1024C0006F74656E642020004B6F6E74726F6C6168
:1024D00020656E6473746F707300436865636B6925
:1024E0006E6720656E6473746F7073004B6F6E74EB
:1024F000726F6C6120626564202020202000436898
:1025000065636B696E67206265642020202020006F
:10251000567365204F4B2020202020202020202093
:102520002000416C6C20636F727265637420202000
:1025300020202000426564202F2048656174657268
:102540000044656C6B61206F73790041786973207A
:102550006C656E677468004F736100417869730041
:1025600053656C6674657374202020202020202021
:10257000200057726974696E6720746F2066696CF9
:10258000653A2000766F6C756D652E696E697420F2
:102590006661696C6564002053697A653A20004B76
:1025A000617274612076796A6D757461004361723D
:1025B000642072656D6F76656400534420707269A3
:1025C0006E74696E67206279746520006F70656E45
:1025D000206661696C65642C2046696C653A200050
:1025E0006F70656E526F6F74206661696C65640010
:1025F0004B6172746120766C6F7A656E6100436125
:10260000726420696E736572746564005344206956
:102610006E6974206661696C0046696C652073653B
:102620006C65637465640046696C65206F70656EE7
:1026300065643A20006572726F72207772697469FE
:102640006E6720746F2066696C6500534420636177
:102650007264206F6B0043616E6E6F7420656E74E0
:102660006572207375626469723A200050726176F7
:10267000793A0052696768743A004F626E6F766FFC
:1026800076616E69207469736B7500526573756D40
:10269000696E67207072696E74004F626E6F766546
:1026A0006E69207469736B7500526573756D696E20
:1026B00067207072696E7400506F6B7261636F7621
:1026C000617400526573756D65207072696E740077
:1026D000526573656E643A20004F64737472616E64
:1026E0007465207469736B6F767920706C617420E7
:1026F0007A20686561746265642070726F73696DB9
:102700002E00506C656173652072656D6F76652073
:10271000737465656C2073686565742066726F6D8F
:1027200020686561746265642E00446574656B6F32
:1027300076616E207679706164656B2070726F755A
:1027400064752E4F626E6F766974207469736B3F87
:1027500000426C61636B6F7574206F636375727296
:1027600065642E205265636F766572207072696EA3
:10277000743F004F626E6F766F76616E6920746988
:10278000736B7520202020005265636F7665726937
:102790006E67207072696E742020202000686F7749
:1027A000746F2E707275736133642E637A00686F74
:1027B00077746F2E707275736133642E636F6D0062
:1027C000666F72756D2E707275736133642E637AE5
:1027D00000666F72756D2E707275736133642E634F
:1027E0006F6D00707275736133642E637A0070725E
:1027F00075736133642E636F6D005469736B207061
:102800006F7A6173746176656E005072696E7420C0
:10281000706175736564005469736B2070726572C2
:102820007573656E005072696E742061626F7274A8
:102830006564005072696E74657220646973636FB9
:102840006E6E65637465640050726F20767973757F
:102850006E7574692066696C616D656E7475207340
:102860007469736B6E6574652070726F73696D2027
:10287000746C616369746B6F00506C656173652083
:10288000707265737320746865206B6E6F6220745C
:102890006F20756E6C6F61642066696C616D656E2A
:1028A00074006120737469736B6E65746520746C59
:1028B000616369746B6F00616E642070726573731D
:1028C00020746865206B6E6F620050726564656885
:1028D00072656A746520747279736B752100507229
:1028E000656865617420746865206E6F7A7A6C65BE
:1028F0002100507265646568726576005072656883
:1029000065617400506F77657255700050726F7317
:10291000696D2063656B656A746500506C656173F1
:10292000652077616974004E656A64726976652016
:102930007A61766564746520504C412066696C61EB
:102940006D656E742070726F73696D2E00506C65CA
:10295000617365206C6F616420504C412066696C26
:10296000616D656E742066697273742E004A65200D
:10297000504C412066696C616D656E74207A617699
:102980006564656E3F00497320504C412066696C58
:10299000616D656E74206C6F616465643F0020201A
:1029A000506C616E6E6572427566666572427974CE
:1029B00065733A2000556D69737465746520707293
:1029C0006F73696D207469736B6F767920706C61B9
:1029D00074206E61206865617462656400506C6586
:1029E00061736520706C61636520737465656C202C
:1029F0007368656574206F6E2068656174626564D4
:102A00002E004E6168726976616E692050494E44AD
:102A1000410050494E44412048656174696E670029
:102A2000504944206B616C2E202020202020202043
:102A3000202020005049442063616C2E202020205B
:102A40002020202020202000504944206B616C2E43
:102A500020756B6F6E63656E610050494420636141
:102A60006C2E2066696E6973686564005049442065
:102A70006B616C69627261636500504944206361F7
:102A80006C6962726174696F6E00506F7A61737401
:102A900061766974207469736B0050617573652089
:102AA0007072696E7400556D697374657465206C1D
:102AB00069737420706170697275206E6120706F27
:102AC000646C6F7A6B752061207564727A756A74B4
:102AD00065206A656A20706F6420747279736B6F09
:102AE0007520626568656D206D6572656E69207020
:102AF00072766E696368203420626F64752E205090
:102B00006F6B756420747279736B61207A6163688E
:102B10007974692070617069722C207679706E65A5
:102B20007465207469736B61726E752E00506C61F0
:102B300063652061207368656574206F662070612D
:102B400070657220756E64657220746865206E6FA2
:102B50007A7A6C6520647572696E67207468652086
:102B600063616C6962726174696F6E206F66206662
:102B700069727374203420706F696E74732E2049EB
:102B80006620746865206E6F7A7A6C652063617464
:102B900063686573207468652070617065722C20AD
:102BA000706F776572206F6666207468652070723A
:102BB000696E74657220696D6D6564696174656CB8
:102BC000792E006F6B004F6666004E6F206D6F763A
:102BD000652E005A61646E61205344206B617274EB
:102BE00061004E6F20534420636172640054727917
:102BF000736B61004E6F7A7A6C650046696C616D2B
:102C0000656E74206E657A61766564656E004669EE
:102C10006C616D656E74206E6F74206C6F6164659D
:102C200064004261727661206E656E69206369732B
:102C3000746100436F6C6F72206E6F7420636C65FB
:102C40006172004E65004E6F0050726F73696D20A7
:102C5000616B7475616C697A756A74652E00506C6D
:102C60006561736520757067726164652E005679C1
:102C7000736C61206E6F7661207665727A6520666E
:102C800069726D776172653A004E65772066697288
:102C90006D776172652076657273696F6E206176FB
:102CA00061696C61626C653A00506F73756E6F7527
:102CB00074205A004D6F7665205A00506F73756E00
:102CC0006F75742059004D6F7665205900506F73F1
:102CD000756E6F75742058004D6F766520580045ED
:102CE0007874727564657200506F73756E6F757469
:102CF000206F7375004D6F76652061786973004DA4
:102D000065736820426564204C6576656C696E6702
:102D1000004B616C6962726163650043616C69625A
:102D2000726174696F6E00207A203900206F66200E
:102D300039004D6572696D207265666572656E63F6
:102D40006E69207679736B75206B616C6962726154
:102D5000636E69686F20626F6475004D656173759D
:102D600072696E67207265666572656E636520685C
:102D70006569676874206F662063616C696272615F
:102D800074696F6E20706F696E74004D6572656E48
:102D900065207A6B6F73656E693A004D6561737576
:102DA00072656420736B65773A00486C61766E6972
:102DB000206E616269646B61004D61696E004D3225
:102DC000323120496E76616C696420657874727561
:102DD00064657220004D32313820496E76616C692D
:102DE0006420657874727564657220004D323030ED
:102DF00020496E76616C69642065787472756465CB
:102E00007220005265706F7274696E6720656E641F
:102E100073746F7020737461747573004D31313742
:102E2000204B616C2E207072766E692076727374FE
:102E30007679004D313137204669727374206C61A8
:102E40007965722063616C2E004649524D5741529C
:102E5000455F4E414D453A4D61726C696E20563169
:102E60002E302E323B20537072696E7465722F675C
:102E700072626C206D617368757020666F72206776
:102E8000656E36204649524D574152455F55524C6A
:102E90003A68747470733A2F2F6769746875622E7C
:102EA000636F6D2F707275736133642F5072757319
:102EB000612D69332D506C75732F2050524F544F34
:102EC000434F4C5F56455253494F4E3A312E3020B6
:102ED0004D414348494E455F545950453A507275EB
:102EE0007361206933204D4B33204558545255446B
:102EF00045525F434F554E543A3120555549443A57
:102F000030303030303030302D303030302D3030C7
:102F100030302D303030302D3030303030303030B7
:102F2000303030300A004D31303920496E76616CD6
:102F3000696420657874727564657220004D313063
:102F40003520496E76616C696420657874727564A9
:102F5000657220004D31303420496E76616C6964B1
:102F6000206578747275646572200055766F6C6E9A
:102F7000656E612072656D656E69636B61004C6F93
:102F80006F73652070756C6C6579005A6176657336
:102F9000742066696C616D656E74004C6F616420AD
:102FA00066696C616D656E74005A61766164656E08
:102FB000692066696C616D656E7475004C6F616443
:102FC000696E672066696C616D656E740043697334
:102FD00074656E69206261727679004C6F61646914
:102FE0006E6720636F6C6F72004C6576793A004CA7
:102FF0006566743A005679626572206A617A796B07
:10300000610053656C656374206C616E6775616700
:10301000650043657374696E6100456E676C697322
:1030200068004B494C4C45442E2000496E76616C3B
:10303000696420657874727564657200566C6F7A85
:1030400074652066696C616D656E7400496E7365A8
:1030500072742066696C616D656E74005072696E81
:10306000742046414E3A20004E6F7A7A6C652046B5
:10307000414E3A00457874727564657220696E66D7
:103080006F00207A203400206F662034005A6C656F
:103090007073756A6920707265736E6F7374206BDC
:1030A000616C69627261636E69686F20626F6475DA
:1030B00000496D70726F76696E6720626564206387
:1030C000616C6962726174696F6E20706F696E7491
:1030D000004B616C696272756A69205A0043616CC9
:1030E0006962726174696E67205A004B616C696233
:1030F00072616365204F4B0043616C696272617459
:10310000696F6E20646F6E65004B616C6962726FEF
:10311000766174205A0043616C6962726174652043
:103120005A005A6168726976616E69204F4B2E00B1
:1031300048656174696E6720646F6E652E005A6120
:1031400068726976616E690048656174696E6700CE
:1031500046696C2E2073656E7A6F72205B7A61709F
:103160005D0046696C2E2073656E736F7220205B64
:103170006F6E5D0046696C2E2073656E7A6F7220EB
:103180005B7679705D0046696C2E2073656E736F97
:1031900072205B6F66665D0046696C2E2073656EFB
:1031A0007A6F72205B6572725D0046696C2E2073C7
:1031B000656E736F72205B4E2F415D002046726515
:1031C00065204D656D6F72793A20005469736B61AB
:1031D000726E61206E6562796C61206A65737465D8
:1031E000207A6B616C6962726F76616E612E20501D
:1031F0006F73747570756A74652070726F73696D22
:1032000020706F646C65206D616E75616C752C202B
:103210006B617069746F6C61205A6163696E616D76
:10322000652C206F6473746176656320506F7374CE
:103230007570206B616C6962726163652E005072FB
:10324000696E74657220686173206E6F74206265A8
:10325000656E2063616C6962726174656420796572
:10326000742E20506C6561736520666F6C6C6F778F
:1032700020746865206D616E75616C2C20636861D7
:10328000707465722046697273742073746570730C
:103290002C2073656374696F6E2043616C69627280
:1032A0006174696F6E20666C6F772E005072757452
:1032B0006F6B00466C6F7700446F6B6F6E636F7659
:1032C000616E6920706F687962750046696E697316
:1032D00068696E67206D6F76656D656E747300202A
:1032E0007A203400206F66203400486C6564616D7C
:1032F000206B616C69627261636E6920626F642029
:10330000706F646C6F7A6B79005365617263686982
:103310006E67206265642063616C696272617469C2
:103320006F6E20706F696E740049746572616365B9
:103330002000497465726174696F6E2000446F6E7D
:103340006520736176696E672066696C652E00443E
:103350006F6E65207072696E74696E672066696C45
:103360006500536F75626F72206E656B6F6D706C68
:1033700065746E692E20506F6B7261636F76617435
:103380003F0046696C6520696E636F6D706C657493
:10339000652E20436F6E74696E756520616E797756
:1033A00061793F004E656B7465726520736F75625D
:1033B0006F7279206E656275646F752073657472C3
:1033C0006964656E792E204D6178696D616C6E69F6
:1033D00020706F63657420736F75626F72752070F3
:1033E000726F20736574726964656E69206A652006
:1033F0003130302E00536F6D652066696C65732027
:1034000077696C6C206E6F7420626520736F7274C4
:1034100065642E204D61782E204E6F2E206F662021
:1034200066696C657320696E203120666F6C646517
:103430007220666F7220736F7274696E6720697391
:10344000203130302E004A6520626172766120633F
:10345000697374613F00497320636F6C6F722063FE
:103460006C6561723F0056796D656E69742066699E
:103470006C616D656E74004368616E676520666996
:103480006C616D656E7400527963686C6F73742043
:1034900076656E742E0046616E20737065656400FB
:1034A0004B6F6E74722E2076656E742E5B7A61702F
:1034B0005D0046616E7320636865636B2020205B4E
:1034C0006F6E5D004B6F6E74722E2076656E742E7B
:1034D0005B7679705D0046616E7320636865636B2F
:1034E00020205B6F66665D00656E717565696E674D
:1034F00020220045787472756465720020457874E6
:1035000065726E616C205265736574005072696EED
:103510007465722073746F707065642064756520C3
:10352000746F206572726F72732E204669782074F2
:103530006865206572726F7220616E6420757365B4
:10354000204D39393920746F20726573746172743B
:103550002E202854656D70657261747572652069DE
:10356000732072657365742E20536574206974200E
:1035700061667465722072657374617274696E67D6
:1035800029004E6F204C696E65204E756D62657224
:10359000207769746820636865636B73756D2C2090
:1035A0004C617374204C696E653A20004E6F204365
:1035B0006865636B73756D2077697468206C696EDC
:1035C00065206E756D6265722C204C617374204CA1
:1035D000696E653A200020746F6F206C6F6E6720F3
:1035E000657874727573696F6E2070726576656E3A
:1035F000746564004C696E65204E756D626572205D
:103600006973206E6F74204C617374204C696E6511
:10361000204E756D6265722B312C204C61737420C5
:103620004C696E653A20005072696E74657220684C
:10363000616C7465642E206B696C6C282920636151
:103640006C6C6564210020636F6C64206578747213
:103650007573696F6E2070726576656E746564004F
:10366000636865636B73756D206D69736D617463F9
:10367000682C204C617374204C696E653A200043BD
:10368000485942413A004552524F523A00456E6401
:103690002066696C65206C697374006F70656E00DC
:1036A00054524947474552454400656E6473746FF0
:1036B0007073206869743A2000536C6565702E2E13
:1036C0002E005679706E6F7574206D6F746F7279FD
:1036D0000044697361626C65207374657070657213
:1036E0007300446174756D3A00446174653A00502A
:1036F0006F757A6520616B7475616C6E69004375D6
:103700007272656E74004372617368206465742E12
:1037100020205B7A61705D0043726173682064658C
:10372000742E2020205B6F6E5D00437261736820F1
:103730006465742E20205B7679705D00437261733E
:1037400068206465742E20205B6F66665D002043F0
:103750006F756E7420583A200056796D656E612041
:103760006F6B3F004368616E67656420636F7272C0
:103770006563746C793F005A63686C6164697400B6
:10378000436F6F6C646F776E0050726F207573704B
:1037900065736E6F75206B616C696272616369201D
:1037A0006F636973746574652070726F73696D20DF
:1037B0007469736B6F766F7520747279736B752E85
:1037C00020506F74767264746520746C61636974E0
:1037D0006B656D2E00506C6561736520636C65616F
:1037E0006E20746865206E6F7A7A6C6520666F72E1
:1037F0002063616C6962726174696F6E2E20436C24
:1038000069636B207768656E20646F6E652E00209B
:103810004C61737420557064617465643A2000567D
:103820007962657274652065787472756465723A40
:103830000043686F6F736520657874727564657294
:103840003A005A6D656E612075737065736E612103
:10385000004368616E6765207375636365737321E8
:10386000005469736B207A205344005072696E745F
:103870002066726F6D205344005465706C6F742E17
:10388000206B616C6962726163650054656D702EB6
:103890002063616C6962726174696F6E004B616C68
:1038A000696272756A69205A0043616C696272616B
:1038B00074696E67205A005A6B616C6962726F7628
:1038C00061740043616C6962726174650052657372
:1038D00065742058595A206B616C6962722E0052CF
:1038E000657365742058595A2063616C6962722E41
:1038F000004B616C6962726163652058595A0043DC
:10390000616C6962726174652058595A0020427274
:103910006F776E206F757420526573657400426511
:1039200067696E2066696C65206C697374004B6111
:103930006C6962726163652058595A206E657072B5
:1039400065736E612E204C65767920707265646EA9
:103950006920626F64206D6F632076707265647594
:103960002E0058595A2063616C6962726174696FE4
:103970006E20636F6D70726F6D697365642E204C7D
:103980006566742066726F6E742063616C69627222
:103990006174696F6E20706F696E74206E6F742031
:1039A000726561636861626C652E004B616C69626F
:1039B000726163652058595A206E65707265736E26
:1039C000612E20507265646E69206B616C69627251
:1039D00061636E6920626F6479206D6F6320767019
:1039E000726564752E0058595A2063616C69627261
:1039F0006174696F6E20636F6D70726F6D6973654E
:103A0000642E2046726F6E742063616C696272610D
:103A100074696F6E20706F696E7473206E6F74209E
:103A2000726561636861626C652E004B616C6962EE
:103A3000726163652058595A207620706F726164F4
:103A40006B752E20582F59206F7379206D69726E17
:103A500065207A6B6F73656E652E20446F627261AC
:103A6000207072616365210058595A2063616C6946
:103A700062726174696F6E20616C6C207269676834
:103A8000742E20582F59206178657320617265204B
:103A9000736C696768746C7920736B657765642EE5
:103AA00020476F6F64206A6F6221004B616C69620E
:103AB000726163652058595A207620706F72616474
:103AC0006B752E205A6B6F73656E69206275646525
:103AD000206175746F6D617469636B79207679729A
:103AE0006F766E616E6F20707269207469736B758A
:103AF0002E0058595A2063616C6962726174696F53
:103B00006E20616C6C2072696768742E20536B653F
:103B1000772077696C6C20626520636F72726563D1
:103B2000746564206175746F6D61746963616C6C38
:103B3000792E004B616C6962726163652058595A35
:103B40002073656C68616C612E204B616C696272D8
:103B500061636E6920626F6420706F646C6F7A6B52
:103B600079206E656E616C657A656E2E0058595AC3
:103B70002063616C6962726174696F6E206661694D
:103B80006C65642E204265642063616C69627261B9
:103B900074696F6E20706F696E7420776173206E28
:103BA0006F7420666F756E642E004B616C69627273
:103BB0006163652058595A207620706F7261646B7A
:103BC000752E20582F59206F7379206A736F7520D6
:103BD0006B6F6C6D652E2047726174756C756A69C8
:103BE000210058595A2063616C6962726174696F6F
:103BF0006E206F6B2E20582F5920617865732061DD
:103C000072652070657270656E646963756C61724F
:103C10002E20436F6E67726174756C6174696F6E8C
:103C20007321004B616C6962726163652058595A57
:103C30002073656C68616C612E204E61686C6564F0
:103C40006E65746520646F206D616E75616C752E94
:103C50000058595A2063616C6962726174696F6EB1
:103C6000206661696C65642E20506C656173652007
:103C7000636F6E73756C7420746865206D616E750A
:103C8000616C2E004B616C696272616365205859EA
:103C90005A2073656C68616C612E204C65767920C2
:103CA000707265646E6920626F64206D6F63207648
:103CB00070726564752E2053726F766E656A7465D6
:103CC000207469736B61726E752E0058595A2063A7
:103CD000616C6962726174696F6E206661696C659E
:103CE000642E204C6566742066726F6E742063616A
:103CF0006C6962726174696F6E20706F696E742096
:103D00006E6F7420726561636861626C652E004B32
:103D1000616C6962726163652058595A2073656CE1
:103D200068616C612E20507265646E69206B616CF5
:103D300069627261636E6920626F6479206D6F637E
:103D4000207670726564752E2053726F766E656A88
:103D50007465207469736B61726E752E0058595AC0
:103D60002063616C6962726174696F6E206661695B
:103D70006C65642E2046726F6E742063616C69629C
:103D8000726174696F6E20706F696E7473206E6FEC
:103D90007420726561636861626C652E004B616CB2
:103DA000696272616365205A2073656C68616C6139
:103DB0002E2053656E736F72206A65206F64706F7A
:103DC0006A656E79206E65626F20707265727573B8
:103DD000656E79206B6162656C2E2043656B616D49
:103DE000206E612072657365742E00426564206CDC
:103DF0006576656C696E67206661696C65642E2006
:103E000053656E736F7220646973636F6E6E656362
:103E1000746564206F72206361626C652062726FEA
:103E20006B656E2E2057616974696E6720666F72CC
:103E30002072657365742E004B616C6962726163F8
:103E400065205A2073656C68616C612E2053656E25
:103E5000736F72206E657365706E756C2E205A6E6E
:103E60006563697374656E6120747279736B613F09
:103E70002043656B616D206E612072657365742EE1
:103E800000426564206C6576656C696E67206661CA
:103E9000696C65642E2053656E736F72206469646B
:103EA0006E7420747269676765722E204465627251
:103EB0006973206F6E206E6F7A7A6C653F20576150
:103EC0006974696E6720666F722072657365742EFF
:103ED000004B616C696272616365205A2073656C86
:103EE00068616C612E2053656E736F72207365700C
:103EF0006E756C207072696C6973207679736F6B64
:103F00006F2E2043656B616D206E61207265736555
:103F1000742E00426564206C6576656C696E67205E
:103F20006661696C65642E2053656E736F722074D0
:103F3000726967676572656420746F6F206869676E
:103F4000682E2057616974696E6720666F722072EF
:103F5000657365742E005A6168726976616E6920B6
:103F6000626564004265642048656174696E67003B
:103F7000426564204F4B2E0042656420646F6E657D
:103F80000056707261766F205B756D5D00526967D7
:103F9000687420736964655B756D5D005265736557
:103FA0007400567A61647520205B756D5D00526502
:103FB00061722073696465205B756D5D004B6F7283
:103FC000656B636520706F646C6F7A6B7900426516
:103FD00064206C6576656C20636F72726563740033
:103FE000566C65766F20205B756D5D004C65667460
:103FF0002073696465205B756D5D00567072656441
:1040000075205B756D5D0046726F6E742073696418
:10401000655B756D5D00426564004E656E69207A72
:104020006B616C6962726F76616E6120767A646131
:104030006C656E6F737420747279736B79206F6422
:10404000207469736B6F766520706F646C6F7A6B28
:10405000792E20506F73747570756A746520707254
:104060006F73696D20706F646C65206D616E756132
:104070006C752C206B617069746F6C61205A616380
:10408000696E616D652C206F647374617665632061
:104090004E6173746176656E69207072766E692008
:1040A0007672737476792E0044697374616E6365F9
:1040B000206265747765656E20746970206F662074
:1040C000746865206E6F7A7A6C6520616E64207406
:1040D0006865206265642073757266616365206837
:1040E0006173206E6F74206265656E207365742045
:1040F0007965742E20506C6561736520666F6C6CF9
:104100006F7720746865206D616E75616C2C20631B
:104110006861707465722046697273742073746587
:1041200070732C2073656374696F6E2046697273B7
:1041300074206C617965722063616C69627261746C
:10414000696F6E2E00446F6C6164656E69206F73D9
:1041500079205A004C6976652061646A7573742011
:104160005A0041646A757374696E67205A0041751C
:10417000746F20686F6D6500207C20417574686FD6
:10418000723A200056736500416C6C00416374699B
:1041900076652045787472756465723A20002E1435
:1041A0001E1442144A1452145B14631480146B14CA
:1041B000991495149D14A514BE14AD14E914CF14CC
:1041C0003F1507159D157D152116C0152F1784164F
:1041D0002618E317CC1873187F1913192A1ADE1939
:1041E000BE1A7B1A0F1BFB1A7D1B231B141CC51B3D
:1041F000821C5E1CB71CA21CDA1CCB1C251DF71CE4
:10420000B01D531D101E171E311E271E4F1E3D1EB2
:10421000601E851E711EB41E971EE01ECF1E021F5B
:10422000F01E151F2E1F281F331F451F681F561F06
:104230008C1F7A1FD91F9E1F2620112043203B2050
:1042400057204F206D205F2078208220B2209620BA
:10425000DB20CD200021EE201F2111213A212D212C
:1042600058214B21652199219021AD219F21CA21FF
:10427000BA21E921D721FA21082227221822462231
:1042800034226A2258228D227C22AB229C22CA220E
:10429000B822E522DB22FD22EE220A232B231C2357
:1042A0003A235623472364236A238D237C23A823A0
:1042B0009623CF23BA23E023F12301240A242724C1
:1042C00012244A2438246E245C2492248024B624A8
:1042D000A424DA24C824FE24EC2422251025342525
:1042E0004B2541255B25572560257225842597257B
:1042F000AD259F25BA25CC25E025FE25F0250C26E9
:104300001926272635264B26562673266C268B26FD
:104310007A26A9269A26C326B826D0260227D92689
:1043200051272A2788277327AE279D27D127C02703
:10433000EE27E3270A28FA27252817283328792883
:104340004828B728A228DE28CA28FC28F2280429F1
:104350001B290C294D29272986296D299E29DD290C
:10436000B529122A022A342A202A5A2A482A7A2AC5
:104370006C2A9A2A8A2A2D2BA62AC32BC62BCA2B33
:10438000E22BD32BF42BED2B0E2CFB2B332C222CDE
:10439000462C432C5E2C492C892C6E2CB42CA92C39
:1043A000C62CBB2CD82CCD2CDF2CF52CE82CFF2CCC
:1043B0001B2D112D2C2D272D5B2D322D9B2D8B2D63
:1043C000B92DAA2DBE2DD52DEC2D032E332E1C2E4E
:1043D000492E262F3D2F542F7E2F6B2F9B2F8B2F57
:1043E000BC2FA92FDB2FCD2FEF2FE92F0230F52F78
:1043F0001A30123022302B304C303C305C30683078
:10440000743087308230B1308D30DD30D130F830CB
:10441000EB30163109313031223148313E316231D1
:10442000503186317431AA319831BC313E32CB31B2
:10443000B332AC32CB32B832E432DF320933EA3253
:10444000323329333D334F3382336233F533A43370
:10445000563446347734663496348734B234A034D4
:10446000D634C434E834F334FC340C358235AC35FE
:10447000D635F43527364636603686367F368D3665
:104480009B36A036AA36B936D136C236E936E23680
:10449000FE36EF36183706373C372A374E37643743
:1044A000593780377737D53789370F3831381F3844
:1044B000513842386B3861388B387938A9389D3893
:1044C000C338B738DF38CD38FF38F1380D391E39E9
:1044D00062392E39E639AB39683A2B3AF23AAB3ABF
:1044E0006D3B333BE23BAA3B513C233CCB3C843C01
:1044F0005D3D0F3DEB3D9D3D813E383E133FD13E3E
:10450000643F563F783F703F8D3F813F9C3FAE3FB9
:10451000A23FCE3FBD3FEC3FE03F0740FB3F164090
:10452000A8401A405441454162416E41784188415A
:1045300084418C41457872656D65207370616E2091
:104540006F6620746865205A2076616C75657321EA
:104550000043616C63756C6174696F6E206F6620D7
:10456000746865206D616368696E6520736B65773B
:1045700020616E64206F6666736574206661696C85
:1045800065642E00203C20005741524E494E473A68
:104590002046726F6E7420706F696E74206E6F7437
:1045A00020726561636861626C652E205920636FBB
:1045B0006F7264696E6174653A0000497465726176
:1045C00074696F6E3A2000496E76616C696420628E
:1045D000656420636F7272656374696F6E206D61CC
:1045E000747269782E20526573657474696E6720E1
:1045F000746F206964656E746974792E00496E76F3
:10460000616C69642062656420636F7272656374B3
:10461000696F6E206D61747269782E20582F592051
:104620006178657320617265206661722066726FC1
:104630006D206265696E672070657270656E646971
:1046400063756C61722E00496E76616C69642062DC
:10465000656420636F7272656374696F6E206D614B
:10466000747269782E205368696674206F7574209F
:104670006F662072616E67652E005A65726F2070DA
:104680006F696E7420636F7272656374696F6E3ADE
:1046900000496E76616C69642062656420636F72A4
:1046A00072656374696F6E206D61747269782E2013
:1046B0004C656E677468206F6620746865205920A9
:1046C000766563746F72206F7574206F66207261F7
:1046D0006E67652E005920766563746F72206C6575
:1046E0006E6774683A00496E76616C696420626531
:1046F0006420636F7272656374696F6E206D61749C
:104700007269782E204C656E677468206F6620741D
:104710006865205820766563746F72206F75742009
:104720006F662072616E67652E005820766563742F
:104730006F72206C656E6774683A00556E646566CA
:10474000696E65642062656420636F72726563746C
:10475000696F6E206D61747269782E0000004041AF
:10476000FFFFBF4000005C43FFFFBF4000005C4311
:104770000000464300004041000046430000404125
:10478000FFFFBF400000E442FFFFBF40000057436F
:10479000FFFFBF40000057430000CC420000E4424E
:1047A0000000CC42000040410000CC4200004041EB
:1047B000000046430000E442000046430000574327
:1047C000000046435A00205A3A00590020593A0046
:1047D000580020583A0024F4D43050C38E20C2A28E
:1047E0004017828B7011127A910D816CD90AA861E1
:1047F000E108C7586607615143061E4B5D05C14578
:10480000A7041A411104093D980371393103403658
:10481000DB0265339102D4305402802E1D02632CDA
:10482000EE01752AC501B028A001102781018F254E
:1048300064012B244B01E0223401AC211F018D20A7
:104840000D01801FFC00841EED00971DDF00B81CC9
:10485000D200E61BC600201BBC00641AB200B219CD
:10486000A8000A19A0006A189900D11791004017F2
:104870008B00B516840031167E00B31579003A1509
:104880007300C7146F0058146A00EE136600881393
:10489000630025135E00C7125B006C1257001512EF
:1048A0005400C111510070114F0021114B00D6105E
:1048B00049008D1047004610440002104200C00F0E
:1048C0004000800F3E00420F3C00060F3B00CB0E25
:1048D0003800930E37005C0E3500270E3400F30DC0
:1048E0003200C10D3100900D3000600D2E00320DF0
:1048F0002D00050D2C00D90C2B00AE0C2900850CC9
:1049000029005C0C2700350C27000E0C2600E80B54
:104910002400C40B2400A00B23007D0B23005A0BA2
:104920002100390B2100180B2000F80A1F00D90ABA
:104930001E00BB0A1E009D0A1D00800A1D00630A9E
:104940001C00470A1B002C0A1B00110A1A00F70959
:104950001A00DD091900C4091900AB0919009209F0
:1049600017007B091800630917004C091600360967
:104970001600200916000A091500F5081500E008C0
:104980001400CC081400B8081400A40814009008FF
:1049900013007D0812006B08130058081200460827
:1049A0001200340811002308110012081100010838
:1049B0001100F0071000E0071000D0071000C0073A
:1049C0001000B0070F00A107100091070E00830729
:1049D0000F0074070F0065070E0057070E00490708
:1049E0000E003B070D002E070E0020070D001307D9
:1049F0000D0006070D00F9060C00ED060D00E0069F
:104A00000C00D4060C00C8060C00BC060C00B00656
:104A10000C00A4060B0099060C008D060B00820604
:104A20000B0077060B006C060B0061060A005706A8
:104A30000B004C060A0042060A0038060A002E0641
:104A40000A0024060A001A060A00100609000706D2
:104A50000A00FD050900F4050900EB050900E2055F
:104A60000900D9050900D0050900C7050900BE05E0
:104A70000900B5050800AD050800A50509009C055D
:104A80000800940508008C050800840508007C05D2
:104A90000800740508006C050700650508005D0541
:104AA0000700560508004E050700470507004005AA
:104AB000080038050700310507002A05070023050F
:104AC00007001C050600160507000F05070008056E
:104AD000060002050700FB040600F5040700EE04CB
:104AE0000600E8040600E2040700DB040600D50423
:104AF0000600CF040600C9040600C3040600BD0476
:104B00000600B7040600B1040500AC040600A604C4
:104B10000600A00405009B0406009504050090040F
:104B200006008A04050085040500800406007A0456
:104B3000050075040500700405006B04050066049B
:104B40000500610405005C040500570405005204DB
:104B500005004D04050048040500430405003E041B
:104B600004003A04050035040500300404002C0458
:104B7000050027040400230405001E0404001A0491
:104B8000040016040500110404000D0404000904C7
:104B900005000404040000040400FC030400F803FE
:104BA0000400F4030400F0030400EC030400E80331
:104BB0000400E4030400E0030400DC030400D80361
:104BC0000400D4030400D0030400CC030400C80391
:104BD0000300C503030024F404D9201BC40C5C0E9D
:104BE0009804C4095F0265077101F405F900FB042C
:104BF000B30048048700C10369005803550003034C
:104C00004500BE023A008402310053022A00290204
:104C1000250004022000E4011C00C8011900AF01B6
:104C20001700980114008401130071011000610144
:104C3000100051010E0043010D0036010B002B0145
:104C40000B0020010B00150109000C0109000301F4
:104C50000800FB000800F3000800EB000700E40078
:104C60000600DE000600D8000600D2000600CC00D8
:104C70000500C7000500C2000500BD000400B90022
:104C80000400B5000400B1000400AD000400A90058
:104C90000400A5000300A20003009F0004009B0085
:104CA00003009800030095000200930003009000A9
:104CB00003008D0002008B000300880002008600C4
:104CC000020084000300810002007F0002007D00DA
:104CD00002007B00020079000200770001007600EC
:104CE00002007400020072000100710002006F00F7
:104CF00002006D0001006C0002006A000100690002
:104D00000200670001006600010065000100640008
:104D100002006200010061000100600001005F000C
:104D200002005D0001005C0001005B0001005A0010
:104D30000100590001005800010057000100560011
:104D40000100550001005400010053000000530011
:104D500001005200010051000100500001004F000D
:104D600001004E0000004E0001004D0001004C000B
:104D700001004B0000004B0001004A000100490007
:104D80000100480000004800010047000100460003
:104D900000004600010045000000450001004400FD
:104DA00001004300000043000100420000004200F7
:104DB00001004100000041000100400001003F00EF
:104DC00000003F0001003E0000003E0001003D00E9
:104DD00000003D0001003C0000003C0000003C00E1
:104DE00001003B0000003B0001003A0000003A00D7
:104DF00001003900000039000100380000003800CF
:104E000000003800010037000000370001003600C4
:104E100000003600000036000100350000003500BB
:104E200000003500010034000000340000003400B0
:104E300001003300000033000000330001003200A5
:104E4000000032000000320001003100000031009B
:104E50000000310001003000000030000000300090
:104E600001002F0000002F0000002F0000002F0085
:104E700001002E0000002E0000002E0001002D0079
:104E800000002D0000002D0000002D0001002C006E
:104E900000002C0000002C0000002C0001002B0062
:104EA00000002B0000002B0000002B0001002A0056
:104EB00000002A0000002A0000002A00010029004A
:104EC000000029000000290000002900000029003E
:104ED0000100280000002800000028000000280031
:104EE0000000280001002700000027000000270024
:104EF0000000270000002700010026000000260017
:104F00000000260000002600000026000100250009
:104F100000002500000025000000250000002500FD
:104F200000002500010024000000240000002400EF
:104F300000002400000024000100230000002300E2
:104F400000002300000023000000230000002300D5
:104F500000002300010022000000220000002200C7
:104F600000002200000022000000220001002100B9
:104F700000002100000021000000210000002100AD
:104F8000000021000000210001002000000020009E
:104F90000000200000002000000020000000200091
:104FA000000020000000200001001F0000001F0082
:104FB00000001F0000001F0000001F0000001F0075
:104FC00000001F0001001E0000001E0000001E0067
:104FD00000001E0000004572723A204D494E5445B3
:104FE0004D50204245440054656D70657261747582
:104FF00072652068656174656420626564207377FA
:10500000697463686564206F66662E204D494E544E
:10501000454D502074726967676572656420210090
:105020004572723A204D415854454D5020424544F6
:105030000054656D70657261747572652068656194
:10504000746564206265642073776974636865645D
:10505000206F66662E204D415854454D5020747285
:10506000696767657265642021004572723A204D58
:10507000494E54454D50003A204578747275646528
:1050800072207377697463686564206F66662E208A
:105090004D494E54454D502074726967676572657D
:1050A000642021004572723A204D415854454D50BC
:1050B000003A20457874727564657220737769745C
:1050C00063686564206F66662E204D415854454DD7
:1050D00050207472696767657265642021002048FA
:1050E0004F54454E4420544845524D414C20525552
:1050F0004E415741590020484541544245442054AF
:105100004845524D414C2052554E4157415900544B
:105110004845524D414C2052554E4157415900424D
:10512000454420544845524D414C2052554E41571C
:1051300041590020544845524D414C2052554E4152
:105140005741592028205052454845415420484F46
:1051500054454E44290020544845524D414C20525C
:10516000554E4157415920282050524548454154F9
:105170002048454154424544290050524548454144
:1051800054204552524F5200424544205052454807
:10519000454154204552524F52004572723A2050B8
:1051A00052494E542046414E204552524F520045DE
:1051B00052524F523A205072696E742066616E20CE
:1051C0007370656564206973206C6F7765722074F5
:1051D00068656E20657870656374656400457272F9
:1051E0003A20455854522E2046414E204552524FA7
:1051F00052004552524F523A204578747275646598
:10520000722066616E207370656564206973206C1E
:105210006F776572207468656E2065787065637459
:10522000656400202D20496E76616C696420657884
:10523000747275646572206E756D626572202100EE
:10524000504944204175746F74756E652066696EAF
:105250006973686564212050757420746865206CDA
:10526000617374204B702C204B6920616E64204B5D
:105270006420636F6E7374616E74732066726F6DF9
:105280002061626F766520696E746F20436F6E6671
:10529000696775726174696F6E2E680050494420A9
:1052A0004175746F74756E65206661696C65642103
:1052B0002074696D656F75740020403A006F6B2033
:1052C000543A006F6B20423A0050494420417574B3
:1052D0006F74756E65206661696C65642120546524
:1052E0006D706572617475726520746F6F20686986
:1052F000676800204B643A2000204B693A20002068
:105300004B703A200020436C6173736963205049ED
:105310004420002054753A2000204B753A2000208C
:105320006D61783A2000206D696E3A200020643A61
:10533000200020626961733A200010137D0020155F
:10534000780060177300C0196E00401C6900E01EF1
:10535000640080215F0040245A00F0265500902907
:105360005000202C4B00802E4600C0304100D0322F
:105370003C00B034370050363200C0372D000039C1
:105380002800103A2300F03A1E00B03B1900503CB0
:105390001400D03C0F00303D0A00803D0500C03DA8
:1053A0000000F03DFBFF103EF6FF303EF1FF403EB7
:1053B000ECFF503EE7FF603EE2FF703EDDFF703ED7
:1053C000D8FF1000C90210012C0140012201700118
:1053D0001801B0010E01F00104015002FA00B00200
:1053E000F0003003E600D003DC009004D20070052A
:1053F000C800A006BE000008B400B009AA00D00B87
:10540000A000600E960060118C000015820020192B
:105410007800C01D6E00A0226400B0275A00902CB6
:10542000500000314600E0343C0010383200903A21
:105430002800603C1E00A03D1400803E0A00203F72
:10544000000070012C0190012701B0012201C00170
:105450001D01F00118011002130130020E0160025B
:10546000090190020401C002FF000003FA0040039A
:10547000F5008003F000D003EB002004E600700488
:10548000E100E004DC004005D700C005D200400682
:10549000CD00D006C8008007C3003008BE00F00869
:1054A000B900C009B400B00AAF00B00BAA00D00C1C
:1054B000A500000EA000500F9B00C01096005012D7
:1054C000910000148C00C0158700B0178200B0193D
:1054D0007D00D01B7800001E730040206E009022DB
:1054E0006900F024640040275F0090295A00E02BF7
:1054F0005500102E500020304B0010324600E03393
:10550000410090353C001037370070383200A03928
:105510002D00B03A2800A03B2300603C1E00103D47
:105520001900903D1400103E0F00703E0A00C03E6E
:105530000500003F0000544D432044524956455257
:10554000204F56455254454D502000436F6E7469AC
:105550006E7565207769746820616E6F7468657216
:1055600020626F7764656E3F0053746174653A2002
:1055700000473736004D3435205A004D343500474A
:1055800038300020003E003E0020003E003E003E3D
:10559000003E0020003E003E00200000002D2D2D8A
:1055A0002D2D2D2D2D2D2D2D2D2D2D2D2D2D2D2D2B
:1055B0002D004E2F41004E2F41006D6D00004D37E4
:1055C0003031004D37303200496E76616C696420AD
:1055D0005049442063616C2E20726573756C74733E
:1055E0002E204E6F742073746F72656420746F2068
:1055F000454550524F4D2E004D353030004731203B
:105600005A31352046313530300047393100473185
:105610002058353020593139302045302046373038
:10562000303000473930004D373032004D3730329E
:105630002043004D3730322055004D37303200477F
:1056400031205A313520463135303000473931006C
:1056500047312058353020593139302045302046E7
:1056600037303030004D383300473930004D383452
:10567000004D313034205330004D38340047312054
:1056800058313020593138302046343030300047DE
:1056900031205A31302046313330302E3030300016
:1056A0004D313430205330004D31303420533000F0
:1056B0004D31303700473120452D302E30373530D1
:1056C000302046323130302E3030303030004731EB
:1056D00020583530205935352045332E363237376E
:1056E000330047312058323030205935352045308D
:1056F0002E34393338360047312058323030205973
:1057000037352045332E363237373300473120586E
:105710003530205937352045302E3439333836006E
:10572000473120583530205939352045332E36320F
:10573000373733004731205832303020593935203F
:1057400045302E3439333836004731205832303026
:1057500020593131352045332E3632373733004723
:10576000312058353020593131352045302E3439EB
:105770003338360047312058353020593133352001
:1057800045332E36323737330047312058323030E8
:1057900020593133352045302E36363137340047E5
:1057A00031205832303020593135352045322E36AF
:1057B00032373733004731205831303020593135B6
:1057C000352045320047312058373520593135359D
:1057D0002045322E350047312046313038300047E1
:1057E0003120583530205931353500473120463485
:1057F000303030004D3230342053313030300047BB
:1058000031205A302E3135302046373230302E306C
:10581000303000473120452D312E353030303020AA
:1058200046323130302E3030303030004D38330099
:1058300047393000473231004739322045302E3069
:1058400000473120583130302E30204531322E354E
:105850002046313030302E30004731205836302E3F
:10586000302045392E302046313030302E30004740
:1058700039322045302E3000473238004738370063
:105880004D3130392053323130004D3139302053D1
:105890003535004D31343020533535004D313034FD
:1058A0002053323130004D31303700473930004716
:1058B00031204531004D3832004731204531004D0F
:1058C0003833004D31303620532564004D323230AC
:1058D00020532564003A2000202020202020202072
:1058E000202020202020202020202000203A2000DE
:1058F00020202020202020202020202020202020A8
:1059000020202020002020202020202020202020B7
:105910002020002573002020002D2D3A2D2D002061
:1059200000200020004C002020002046002D2D2DBE
:10593000003E555342005344002D2D0025202020C9
:105940002020002020002020000120002020202DE9
:105950002D2D200020205A002020000120004D364F
:10596000303000464C4558202D20203233302F3522
:10597000300050502020202D20203235342F31305F
:10598000300048495053202D20203232302F313002
:10599000300041425320202D20203235352F313028
:1059A000300050455420202D20203234302F393003
:1059B00000504C4120202D20203231352F36300030
:1059C0006661726D20202D20203235302F3430005A
:1059D0004D3234004D323320257300052E2E0058F1
:1059E0000059005A00457874727564657200473931
:1059F000390044697361626C65206661726D206D67
:105A00006F64653F0044697361626C652066617212
:105A10006D206D6F6465004661726D206E756D62FC
:105A20006572004D3834005072696E742066616E84
:105A30003A0045787472756465722066616E3A004A
:105A400041786973206C656E677468206469666666
:105A50006572656E63653A004D6561737572656464
:105A60002061786973206C656E6774683A002563FD
:105A70002041584953205347313D25640A004D3891
:105A800034004731205A3135004732382057005A08
:105A900030005A3100593000593100583000583127
:105AA00000456E642073746F7073206469616700D1
:105AB0004D3434004732382057001B5B303B3148AF
:105AC00042656C74207374617475731B5B313B3277
:105AD00048582025641B5B323B324859202564001E
