:100000000C94DC310C940D320C940D320C940D32A6
:100010000C940D320C949D8B0C940D320C940D327B
:100020000C94898E0C940D320C940D320D94695DF4
:100030000C940D320D946E3A0C940D320C940D32DA
:100040000C940D320D943A700C940D320C940D32C8
:100050000C940D320C940D320C9424DC0D941F3C46
:100060000C940D320C94929B0C940D320C940D3226
:100070000C940D320C940D320C940D320C940D3204
:100080000C940D320C940D320C940D320C940D32F4
:100090000C944E9B0C940D320C940D320C940D323A
:1000A0000C940D320C940D320C940D320C940D32D4
:1000B0000C940D320C940D320C940D320C940D32C4
:1000C0000C940D320C940D320C940D320C940D32B4
:1000D0000C940D320C940D320C940D320C940D32A4
:1000E0000C940D323240354038403B403E40414058
:1000F0004440DE40114146417941AC41DF4112426A
:10010000C49FC89FCD9FD59FEA9F03A02EA05BA050
:1001100008AA1FAA33AA49AA5AAA88AAA4AA5CAB09
:1001200088AB98ABB5ABD3AB01AC09AC11AC11AC9F
:1001300011AC37AC37AC37AC19AC47AC37AC23ACEF
:1001400036019C0186016C0180014E01A2015E0115
:1001500054019A0146018401620158014E01420195
:100160004A013C018A01A00176018E016601560117
:100170005A0164016A014C019E01A40144018201FB
:1001800056013E01A601A801AA01600152017401B5
:1001900088013A0172016E01900178017C01084AE0
:1001A000D73B3BCE016E84BCBFFDC12F3D6C74318B
:1001B0009ABD56833DDA3D00C77F11BED9E4BB4CE2
:1001C0003E916BAAAABE000000803F05A84CCDB2AC
:1001D000D44EB93836A9020C50B9918688083CA68D
:1001E000AAAA2ABE000000803F07634236B79BD808
:1001F000A71A39685618AEBAAB558C1D3CB7CC5708
:1002000063BD6DEDFD753EF6177231BF00000080D5
:100210003F08000000BE922449123EABAAAA2ABEA3
:10022000CDCCCC4C3E00000080BEABAAAAAA3E00BA
:10023000000000BF000000803F00000000000841F7
:1002400078D3BB4387D1133D190E3CC3BD4282AD69
:100250002B3E68EC8276BED98FE1A93E4C80EFFF41
:10026000BE01C4FF7F3F0000000000000D945C3918
:100270000D94BC390D9465610D9491390D94A93B91
:100280000D9488A10D9489390D94953B0D94753981
:100290000D9478830D948D390D94723B0D9496399D
:1002A0000D9454210D9417610D946D390D94C73B35
:1002B0000D9483390D94583B0D94921D0D9467391C
:1002C0000D9410610D947F390D94603B0D944E3B5D
:1002D0000D9416390D94683B0D9452390D948E612E
:1002E0000D94FA890D9471610D9435610D943A3B2A
:1002F0000D94C3610D94FE020D94EF610D94178966
:100300000D9458390D949F3B0D947B390D944E39C3
:100310000D945E610D94303B0D9437920D94443BE7
:100320000D94A6610D946C7F0D949E850D94AF9FE6
:100330000D94FF8D0D9471390D945F390D947C3BB4
:100340000D94353B0D9463390D94863B0D94B33B6E
:100350000D94BD3B0D94F8604E414E494E495459A1
:10036000494E46CDCCCC3D0AD7233C17B7D1387780
:10037000CC2B329595E6241FB14F0A000020410096
:1003800000C84200401C4620BCBE4CCA1B0E5AAEE0
:10039000C59D7400407A10F35A00A0724E180900EF
:1003A00010A5D4E80000E87648170000E40B5402DA
:1003B0000000CA9A3B000000E1F505000080969815
:1003C00000000040420F000000A086010000001065
:1003D0002700000000E803000000006400000000A7
:1003E000000A00000000000100000000002C76D888
:1003F00088DC674F0823DFC1DFAE59E1B1B796E56E
:10040000E3E453C63AE651997696E8E6C28426EBD1
:10041000898C9B62ED407C6FFCEFBC9C9F40F2BAE4
:10042000A56FA5F490055A2AF75C936B6CF9676D7C
:10043000C11BFCE0E40D47FEF520E6B500D0ED90D1
:100440002E0300943577050080841E080000204E9E
:100450000A000000C80C333333330F986E12831137
:1004600041EF8D2114893BE65516CFFEE6DB18D10E
:10047000844B381BF77C1D901DA4BBE424203284E0
:10048000725E228100C9F124ECA1E53D2744657428
:10049000656B6F76616E206E6172617A2E004372B9
:1004A0006173682064657465637465642E005344E9
:1004B000207072696E74696E6720627974652000BD
:1004C00050726F73696D20616B7475616C697A75B8
:1004D0006A74652E00506C65617365207570677273
:1004E0006164652E005679736C61206E6F766120B1
:1004F0007665727A65206669726D776172653A0019
:100500004E6577206669726D7761726520766572D7
:1005100073696F6E20617661696C61626C653A0027
:100520006120737469736B6E65746520746C6163AC
:1005300069746B6F00616E642070726573732074F0
:100540006865206B6E6F6200566C6F7A746520660A
:10055000696C616D656E7400496E736572742066B6
:10056000696C616D656E74004261727661206E65C2
:100570006E6920636973746100436F6C6F72206EE3
:100580006F7420636F72726563740046696C616D8D
:10059000656E74206E657A61766564656E00466985
:1005A0006C616D656E74206E6F74206C6F61646534
:1005B000640056796D656E61206F6B3F0043686122
:1005C0006E67656420636F72726563746C793F0057
:1005D00043697374656E69206261727679004C6F4D
:1005E0006164696E6720636F6C6F72005A6D656E2F
:1005F000612075737065736E6121004368616E6779
:100600006520737563636573732100457874727533
:1006100064657200567962657274652065787472DB
:10062000756465723A0043686F6F7365206578740E
:1006300072756465723A0041637469766520457825
:100640007472756465723A2000496E76616C6964F3
:100650002065787472756465720050726F73696D8D
:10066000206F746576726574652069646C657220AC
:1006700061206D616E75616C6E65206F647374725C
:10068000616E74652066696C616D656E742E0050D4
:100690006C65617365206F70656E2069646C65724E
:1006A00020616E642072656D6F76652066696C618D
:1006B0006D656E74206D616E75616C6C792E004293
:1006C000796C6F20767973756E7574692066696CC4
:1006D000616D656E74752075737065736E653F002E
:1006E0005761732066696C616D656E7420756E6C00
:1006F0006F6164207375636365737366756C3F0027
:1007000050726F73696D2076796A6D6574652075B6
:10071000727963686C656E652066696C616D656E83
:100720007400506C656173652070756C6C206F751A
:10073000742066696C616D656E7420696D6D6564A9
:10074000696174656C79005679736F7576616D2097
:1007500066696C616D656E7400556E6C6F6164697D
:100760006E672066696C616D656E740050726F20F3
:100770006E61687261746920747279736B7920613B
:1007800020706F6B7261636F76616E69207374693C
:10079000736B6E65746520746C616369746B6F2E26
:1007A000005072657373206B6E6F6220746F2070DF
:1007B000726568656174206E6F7A7A6C6520616E0F
:1007C0006420636F6E74696E75652E0050726F20C1
:1007D000767973756E7574692066696C616D656E86
:1007E000747520737469736B6E6574652070726FB5
:1007F00073696D20746C616369746B6F00506C6514
:1008000061736520707265737320746865206B6E08
:100810006F6220746F20756E6C6F61642066696C06
:10082000616D656E74005A204F666673657400557D
:100830006E6B6E6F776E20636F6D6D616E643A20C4
:1008400022004D32303020496E76616C696420653B
:100850007874727564657220007A5F6D61783A20F1
:10086000007A5F6D696E3A2000795F6D61783A2099
:1008700000795F6D696E3A2000785F6D61783A208B
:10088000006F70656E005452494747455245440019
:10089000785F6D696E3A20005265706F7274696E90
:1008A0006720656E6473746F702073746174757300
:1008B0000020436F756E7420583A20004649524D0F
:1008C000574152455F4E414D453A4D61726C696EDC
:1008D0002056312E302E323B20537072696E746573
:1008E000722F6772626C206D617368757020666F1D
:1008F000722067656E36204649524D574152455F1A
:1009000055524C3A68747470733A2F2F6769746843
:1009100075622E636F6D2F707275736133642F5023
:10092000727573612D69332D506C75732F20505281
:100930004F544F434F4C5F56455253494F4E3A31F7
:100940002E30204D414348494E455F545950453A59
:100950005072757361206933204D4B3320455854D4
:1009600052554445525F434F554E543A31205555E8
:1009700049443A30303030303030302D3030303043
:100980002D303030302D303030302D303030303070
:10099000303030303030300A004F666600456E64CB
:1009A0002066696C65206C69737400426567696EC6
:1009B0002066696C65206C697374004E6F206D6FE2
:1009C00076652E004F626E6F76656E69207469736E
:1009D0006B7500526573756D696E67207072696E14
:1009E00074005761697420666F7220757365722E8A
:1009F0002E2E004B616C696272616365205A207310
:100A0000656C68616C612E2053656E736F72207324
:100A100065706E756C207072696C6973207679737D
:100A20006F6B6F2E2043656B616D206E6120726568
:100A30007365742E00426564206C6576656C696E22
:100A400067206661696C65642E2053656E736F72F2
:100A50002074726967676572656420746F6F2068BF
:100A60006967682E2057616974696E6720666F72C6
:100A70002072657365742E004B616C6962726163EC
:100A800065205A2073656C68616C612E2053656E19
:100A9000736F72206A65206F64706F6A656E79206B
:100AA0006E65626F20707265727573656E79206B0A
:100AB0006162656C2E2043656B616D206E612072F2
:100AC000657365742E00426564206C6576656C699B
:100AD0006E67206661696C65642E2053656E736F66
:100AE0007220646973636F6E6E6563746564206FF2
:100AF00072206361626C652062726F6B656E2E207E
:100B000057616974696E6720666F722072657365DC
:100B1000742E004B616C696272616365205A2073A8
:100B2000656C68616C612E2053656E736F72206E08
:100B3000657365706E756C2E205A6E65636973748B
:100B4000656E6120747279736B613F2043656B61E0
:100B50006D206E612072657365742E00426564209D
:100B60006C6576656C696E67206661696C65642E7C
:100B70002053656E736F72206469646E74207472A2
:100B800069676765722E20446562726973206F6EB3
:100B9000206E6F7A7A6C653F2057616974696E6761
:100BA00020666F722072657365742E005465706CD8
:100BB0006F746E69206B616C696272616365206439
:100BC0006F6B6F6E63656E612E20506F6B72616329
:100BD000756A746520737469736B656D20746C61DC
:100BE0006369746B612E0054656D70657261747514
:100BF00072652063616C6962726174696F6E2069ED
:100C0000732066696E69736865642E20436C69633E
:100C10006B20746F20636F6E74696E75652E005360
:100C20006C6565702E2E2E0043524153485F52452D
:100C3000434F5645520047323820582059009E04F1
:100C40008D040A002F00AE040A002E0044656C6576
:100C500074696F6E206661696C65642C2046696CEE
:100C6000653A200046696C652064656C657465644E
:100C70003A002E0020573A0020453A00543A00D559
:100C800004C004000005E504504944204175746F18
:100C900074756E652066696E69736865642120509D
:100CA000757420746865206C617374204B702C20FF
:100CB0004B6920616E64204B6420636F6E737461B6
:100CC0006E74732066726F6D2061626F7665206945
:100CD0006E746F20436F6E66696775726174696FB9
:100CE0006E2E6800504944204175746F74756E65AE
:100CF000206661696C6564212074696D656F757427
:100D00000020403A006F6B20543A006F6B20423A4B
:100D100000504944204175746F74756E652066619A
:100D2000696C6564212054656D70657261747572BB
:100D30006520746F6F206869676800204B643A20F3
:100D400000204B693A2000204B703A200020436C71
:100D500061737369632050494420002054753A2020
:100D600000204B753A2000206D61783A2000206DFC
:100D7000696E3A200020643A200020626961733A6B
:100D8000200053657474696E67732053746F7265C5
:100D9000640046696C616D656E7420736574746976
:100DA0006E67733A2044697361626C656400202049
:100DB000204D32303020440046696C616D656E74A0
:100DC0002073657474696E67733A002020204D3279
:100DD00030392053004175746F2D52657472616310
:100DE000743A20533D3020746F2064697361626CE3
:100DF000652C203120746F20696E74657270726585
:100E00007420657874727564652D6F6E6C79206DD1
:100E10006F76657320617320726574726163747399
:100E2000206F72207265636F76657269657300204A
:100E300046002020204D3230382053005265636F29
:100E40007665723A20533D4578747261206C656E08
:100E500067746820286D6D2920463A537065656473
:100E600020286D6D2F6D2900205A0020460020207B
:100E7000204D323037205300526574726163743AEA
:100E800020533D4C656E67746820286D6D2920469F
:100E90003A537065656420286D6D2F6D29205A3A8C
:100EA000205A4C69667420286D6D2900204400206A
:100EB00049002020204D3330342050005049442038
:100EC000686561746265642073657474696E6773C4
:100ED0003A002044002049002020204D33303120AA
:100EE00050005049442073657474696E67733A000A
:100EF000205A0020590020204D323036205800481A
:100F00006F6D65206F666673657420286D6D293A74
:100F100000204500205A002059002058002042009F
:100F200020540020204D323035205300416476613A
:100F30006E636564207661726961626C65733A20E4
:100F4000533D4D696E206665656472617465202845
:100F50006D6D2F73292C20543D4D696E2074726184
:100F600076656C20666565647261746520286D6DB8
:100F70002F73292C20423D6D696E696D756D20734C
:100F800065676D656E742074696D6520286D7329C1
:100F90002C20583D6D6178696D756D205859206A17
:100FA00065726B20286D6D2F73292C20205A3D6DA2
:100FB0006178696D756D205A206A65726B20286DA5
:100FC0006D2F73292C2020453D6D6178696D756DFD
:100FD0002045206A65726B20286D6D2F73290020D3
:100FE000540020204D323034205300416363656C3F
:100FF00065726174696F6E3A20533D616363656C1D
:1010000065726174696F6E2C20543D7265747261F3
:10101000637420616363656C65726174696F6E00EF
:10102000204500205A0020590020204D3230312028
:1010300058004D6178696D756D20416363656C651D
:10104000726174696F6E20286D6D2F7332293A00BA
:10105000204500205A0020590020204D32303320F6
:1010600058004D6178696D756D20666565647261C3
:1010700074657320286D6D2F73293A002045002078
:101080005A0020590020204D3932205800537465F1
:1010900070732070657220756E69743A0035052092
:1010A0000558054805790568059E058B05BD05B2FF
:1010B00005DE05D005FB05EC05746D633231333078
:1010C0005F7072696E745F63757272656E74732897
:1010D000290A094809520A580925640925640A5948
:1010E0000925640925640A5A0925640925640A4505
:1010F0000925640925640A000B0626061406222821
:10110000322900370649065400496E76616C6964DD
:10111000205420636F64652E004D323230205325F9
:1011200069008F065A06E006BF0622070007590726
:101130004707A1076C07FD07CC07203A20000026CF
:10114000084C414E472053454C20464F524345449E
:101150000022283129002F0842085908610869082F
:1011600071087908810886089008980820453A0097
:10117000205A3A0020593A00B10820453A00205A36
:101180003A0020593A00583A00BC084D313133201A
:1011900053002E002000990920423A0020453A00D1
:1011A000543A0020413A0020503A002042403A0090
:1011B00020403A00202F003A00205400202F002029
:1011C000423A00202F006F6B20543A002569206DB1
:1011D000696E2C20256920736563009D09AB09BBEE
:1011E00009D309C409E2094D65736820626564206A
:1011F0006C6576656C696E67206E6F7420616374D0
:101200006976652E000A002020000A4D656173751D
:1012100072656420706F696E74733A000A5A2073A5
:101220006561726368206865696768743A20002C9C
:10123000004E756D20582C593A2000206D6963725C
:101240006F6E732E004D69644C65667420206820B3
:101250003D00206D6963726F6E732E00526561727E
:101260004C65667420202067203D00206D69637204
:101270006F6E732E005265617243656E747220202A
:1012800066203D00206D6963726F6E732E0052659B
:1012900061725269676874202065203D00206D6985
:1012A00063726F6E732E004D6964526967687420B3
:1012B000202064203D00206D6963726F6E732E00E4
:1012C00046726F6E7452696768742063203D002017
:1012D0006D6963726F6E732E0046726F6E74436534
:1012E0006E74722062203D00206D6963726F6E73B0
:1012F0002E0046726F6E744C656674202061203D2E
:1013000000206D6963726F6E730045786365737357
:1013100069766520626564206C6576656C696E67C8
:1013200020636F7272656374696F6E3A2000350ACC
:10133000F309C60A780A5C0B130B47323820573082
:10134000003A2000E70BAC0B54656D706572617458
:101350007572652063616C6962726174696F6E2079
:10136000646F6E652E20436F6E74696E75652077AD
:10137000697468207072657373696E67207468653C
:10138000206B6E6F622E0000205A207368696674AD
:1013900020286D6D293A0050494E44412074656DF6
:1013A00070657261747572653A2000002F360053C3
:1013B0007465703A200000205A20736869667420B2
:1013C000286D6D293A0050494E44412074656D7076
:1013D000657261747572653A20002F362028736B30
:1013E00069707065642900537465703A2000005A72
:1013F00045524F3A20000073746172742074656D19
:1014000070657261747572653A200050494E4441AE
:101410002070726F62652063616C696272617469C9
:101420006F6E207374617274004732382057300039
:101430000A00205A3A200020593A200020583A2029
:10144000001F0C656E717565696E67202200446F20
:101450006E65207072696E74696E672066696C656E
:101460000053544F505045442E20005072696E7402
:1014700065722073746F7070656420647565207484
:101480006F206572726F72732E20466978207468BF
:1014900065206572726F7220616E642075736520BD
:1014A0004D39393920746F20726573746172742EEE
:1014B000202854656D70657261747572652069735A
:1014C0002072657365742E205365742069742061E1
:1014D000667465722072657374617274696E6729CF
:1014E000004E6F204C696E65204E756D62657220EE
:1014F0007769746820636865636B73756D2C204C25
:10150000617374204C696E653A20004E6F20436809
:1015100065636B73756D2077697468206C696E659F
:10152000206E756D6265722C204C617374204C695D
:101530006E653A2000636865636B73756D206D6935
:10154000736D617463682C204C617374204C696EF8
:10155000653A20004C696E65204E756D626572209B
:101560006973206E6F74204C617374204C696E65D2
:10157000204E756D6265722B312C204C6173742086
:101580004C696E653A200022206661696C65643A98
:10159000204275666665722066756C6C21002200BB
:1015A0004314256920686F757273202569206D6961
:1015B0006E75746573004E1454494D454F55543A39
:1015C0000061146B14E1140B15351554154D3131B0
:1015D000300046756C6C2052582042756666657204
:1015E000005641524F56414E493A204E657A6E613F
:1015F0006D612C206E65706F64706F726F76616EB6
:1016000061207665727A65206669726D77617265B0
:101610002E20506F757A697469206E6120766C6136
:1016200073746E69206E6562657A70656369210006
:101630005741524E494E473A2054686973206973A6
:1016400020616E20756E6F6666696369616C2C201F
:10165000756E737570706F72746564206275696CF5
:10166000642E2055736520617420796F7572206F28
:10167000776E207269736B210050727573612069F7
:1016800033204D4B33206F6B0050727573612069AE
:1016900033204D4B332072656164792E00446574AC
:1016A000656B6F76616E207679706164656B207012
:1016B000726F7564752E4F626E6F766974207469EF
:1016C000736B3F00426C61636B6F7574206F636373
:1016D00075727265642E205265636F766572207034
:1016E00072696E743F004E656E69207A6B616C6939
:1016F00062726F76616E6120767A64616C656E6F7E
:10170000737420747279736B79206F6420746973B9
:101710006B6F766520706F646C6F7A6B792E2050DA
:101720006F73747570756A74652070726F73696D0C
:1017300020706F646C65206D616E75616C752C2016
:101740006B617069746F6C61205A6163696E616D61
:10175000652C206F64737461766563204E617374C9
:101760006176656E69207072766E69207672737428
:1017700076792E0044697374616E636520626574C6
:101780007765656E20746970206F662074686520C7
:101790006E6F7A7A6C6520616E6420746865206271
:1017A0006564207375726661636520686173206E7D
:1017B0006F74206265656E20736574207965742E80
:1017C00020506C6561736520666F6C6C6F77207458
:1017D0006865206D616E75616C2C20636861707442
:1017E00065722046697273742073746570732C205F
:1017F00073656374696F6E204669727374206C61DF
:101800007965722063616C6962726174696F6E2EB2
:10181000005469736B61726E61206E6562796C61F0
:10182000206A65737465207A6B616C6962726F7689
:10183000616E612E20506F73747570756A746520C7
:1018400070726F73696D20706F646C65206D616E6E
:1018500075616C752C206B617069746F6C61205AB6
:101860006163696E616D652C206F64737461766568
:101870006320506F73747570206B616C6962726164
:1018800063652E005072696E746572206861732002
:101890006E6F74206265656E2063616C696272614F
:1018A000746564207965742E20506C6561736520C1
:1018B000666F6C6C6F7720746865206D616E756102
:1018C0006C2C206368617074657220466972737451
:1018D0002073746570732C2073656374696F6E2058
:1018E00043616C6962726174696F6E20666C6F77B8
:1018F0002E002020506C616E6E65724275666665C2
:101900007242797465733A20002046726565204DF5
:10191000656D6F72793A2000207C20417574686F84
:10192000723A2000204C61737420557064617465B4
:10193000643A200020536F667477617265205265A7
:1019400073657400205761746368646F6720526523
:10195000736574002042726F776E206F7574205229
:1019600065736574002045787465726E616C2052F1
:101970006573657400506F7765725570006572729B
:101980006F722077726974696E6720746F20666960
:101990006C6500656E6473746F7073206869743A67
:1019A0002000446F6E6520736176696E67206669FA
:1019B0006C652E006F6B00202D20496E76616C697E
:1019C00064206578747275646572206E756D6265E9
:1019D000722021001B5B324A1B5B313B31484F7246
:1019E0006967696E616C2050727573612069331B81
:1019F0005B323B3348507275736120526573656189
:101A000072636800466163746F7279205245534572
:101A100054003016E1155052555341334446570097
:101A200089167916C4169D167417E61684181118AF
:101A3000F21809194A616E203235203230313800EF
:101A4000436F6D70696C65643A20002833642D67BC
:101A50007573736E65722C48290018194A616E20DF
:101A6000323520323031382031323A35333A32365D
:101A70000024193419441954196519751920332E85
:101A8000312E312D5243352D3135310A00737461B9
:101A90007274002055706C6F616420696E207072E2
:101AA0006F6772657373007D195A00205A3A0059A6
:101AB0000020593A00580020583A0093194D36300A
:101AC000300043524153485F4445544543544544D4
:101AD00000A219B4194D3239004F626E6F766F76DD
:101AE000616E69207469736B752020202000526537
:101AF000636F766572696E67207072696E742020FC
:101B00002020005A206C6976652061646A757374C0
:101B1000206F7574206F662072616E67652E20538A
:101B2000657474696E6720746F20302E20436C6971
:101B3000636B20746F20636F6E74696E75652E0021
:101B40005A206C6976652061646A757374206F75BC
:101B500074206F662072616E67652E205365747401
:101B6000696E6720746F20300020423A0020453AA9
:101B700000543A0055564C4F202D20656E6400737A
:101B800074707300494E54340029002C20002C201E
:101B900000776F726C6420636F6F7264696E61743A
:101BA00065733A20280029002C20002C2000706842
:101BB00079736963616C20636F6F7264696E6174BD
:101BC00065733A2028007265636F7665725F6D6198
:101BD0006368696E655F73746174655F616674657F
:101BE000725F706F7765725F70616E69632C2069D8
:101BF0006E697469616C20007265636F7665725FEF
:101C00006D616368696E655F73746174655F616659
:101C10007465725F706F7765725F70616E69632C57
:101C200020696E697469616C200047393220450073
:101C30004D3234004D32362053256C75004D313015
:101C4000362053004D383200473120462564004786
:101C5000312045322A312046343830004731205A6D
:101C600000204632303030002059004731205800E3
:101C70004D383300506F736974696F6E20726561FF
:101C8000642066726F6D20656570726F6D3A004DED
:101C90003233202573002E67636F004665656472DA
:101CA0006174653A0063757272656E745F706F730C
:101CB0006974696F6E5B455F415849535D3A0063D3
:101CC000757272656E745F706F736974696F6E5B45
:101CD0005A5F415849535D3A0043757272656E749C
:101CE00020706F736974696F6E20595F4158495352
:101CF0003A0043757272656E7420706F736974690F
:101D00006F6E20585F415849533A004166746572BE
:101D10002077616974696E6720666F722074656DE3
:101D2000703A00473120452D312046343830004785
:101D3000312045352046313230004D3833004D31A9
:101D4000393020532564004D31303920532564004B
:101D500047323820582059004731205A3235204622
:101D6000383030004D31343020532564004D31304F
:101D7000342053256400EE1AD91A627573793A201B
:101D800070617573656420666F7220696E7075741A
:101D900000627573793A2070617573656420666FAF
:101DA00072207573657200627573793A2070726F74
:101DB00063657373696E6700000021104220633011
:101DC0008440A550C660E770088129914AA16BB193
:101DD0008CC1ADD1CEE1EFF131121002733252223B
:101DE000B5529442F772D662399318837BB35AA3E3
:101DF000BDD39CC3FFF3DEE362244334200401140B
:101E0000E664C774A44485546AA54BB52885099532
:101E1000EEE5CFF5ACC58DD55336722611163006DA
:101E2000D776F6669556B4465BB77AA71997388782
:101E3000DFF7FEE79DD7BCC7C448E5588668A7789A
:101E40004008611802282338CCC9EDD98EE9AFF9D2
:101E5000488969990AA92BB9F55AD44AB77A966A7A
:101E6000711A500A333A122AFDDBDCCBBFFB9EEB22
:101E7000799B588B3BBB1AABA66C877CE44CC55C4A
:101E8000222C033C600C411CAEED8FFDECCDCDDD72
:101E90002AAD0BBD688D499D977EB66ED55EF44E1A
:101EA000133E322E511E700E9FFFBEEFDDDFFCCFC2
:101EB0001BBF3AAF599F788F8891A981CAB1EBA116
:101EC0000CD12DC14EF16FE18010A100C230E32092
:101ED0000450254046706760B9839893FBA3DAB33A
:101EE0003DC31CD37FE35EF3B1029012F322D232E2
:101EF0003542145277625672EAB5CBA5A89589850A
:101F00006EF54FE52CD50DC5E234C324A014810431
:101F10006674476424540544DBA7FAB79987B897D9
:101F20005FE77EF71DC73CD7D326F2369106B01681
:101F300057667676154634564CD96DC90EF92FE999
:101F4000C899E9898AB9ABA94458654806782768D1
:101F5000C018E1088238A3287DCB5CDB3FEB1EFB79
:101F6000F98BD89BBBAB9ABB754A545A376A167A21
:101F7000F10AD01AB32A923A2EFD0FED6CDD4DCD49
:101F8000AABD8BADE89DC98D267C076C645C454C71
:101F9000A23C832CE01CC10C1FEF3EFF5DCF7CDF19
:101FA0009BAFBABFD98FF89F176E367E554E745EC1
:101FB000932EB23ED10EF01E7C3C3E5E2B3D3F2F59
:101FC0005B5D3B2C2A225C00454550524F4D20451D
:101FD00072726F720048617264636F64656420445A
:101FE000656661756C742053657474696E677320DF
:101FF0004C6F6164656400436F6E74696E75652033
:102000007769746820616E6F7468657220626F779B
:1020100064656E3F00250020202020202000202025
:10202000202020200045524153494E4720616C6CCE
:10203000206461746100466163746F727920524557
:1020400053455400454E41424C45440A00444953CF
:1020500041424C45440A004653656E736F7220003E
:10206000504154393132355F696E69743A25640ADA
:102070000000007F43000052430000524300000074
:1020800000000080C09A99193E0000000000008006
:10209000C09A99193E0000A0400000A04000000036
:1020A000404E656A6472697665207A61766564740B
:1020B0006520504C412066696C616D656E742070BE
:1020C000726F73696D2E00506C65617365206C6F63
:1020D000616420504C412066696C616D656E7420AE
:1020E00066697273742E004A6520504C41206669FF
:1020F0006C616D656E74207A61766564656E3F0013
:10210000497320504C412066696C616D656E742086
:102110006C6F616465643F0050726F73696D207A03
:1021200061766564746520504C412066696C616D10
:10213000656E74206120706F207465206F626E6F11
:102140007674652057697A6172646120737469736B
:102150006B6E7574696D20726573657420746C6143
:102160006369746B612E00506C65617365206C6FE0
:10217000616420504C412066696C616D656E74200D
:10218000616E64207468656E20726573756D65207C
:1021900057697A617264206279207265626F6F7428
:1021A000696E6720746865207072696E7465722E3E
:1021B0000050726F73696D206E61686C65646E6546
:1021C000746520646F206D616E75616C752061208F
:1021D0006F7072617674652070726F626C656D2EBF
:1021E00020506F207465206F626E6F767465205783
:1021F000697A61726461207265626F6F746F766173
:102200006E696D207469736B61726E792E00506C0B
:102210006561736520636865636B206F7572206804
:10222000616E64626F6F6B20616E642066697820F6
:102230007468652070726F626C656D2E20546865DD
:102240006E20726573756D65207468652057697AB4
:10225000617264206279207265626F6F74696E6763
:1022600020746865207072696E7465722E005673F2
:1022700065206A6520686F746F766F2E00416C6C04
:1022800020697320646F6E652E204861707079201C
:102290007072696E74696E67210057697A61726441
:1022A00061206D757A657465206B64796B6F6C69FC
:1022B00076207A6E6F7675207370757374697420EA
:1022C0007A206D656E752043616C69627261746914
:1022D0006F6E202D3E2057697A61726400596F75C8
:1022E0002063616E20616C7761797320726573750C
:1022F0006D65207468652057697A61726420667222
:102300006F6D2043616C6962726174696F6E202D1C
:102310003E2057697A6172642E0050726F73696D46
:10232000206F6369737465746520686561746265A4
:1023300064206120737469736B6E65746520746CBE
:10234000616369746B6F2E00506C65617365206307
:102350006C65616E206865617462656420616E649D
:10236000207468656E2070726573732074686520D0
:102370006B6E6F622E00436863657465206F7061D9
:102380006B6F76617420706F736C65646E69206B1F
:10239000726F6B206120706F7A6D656E6974207644
:1023A0007A64616C656E6F7374206D657A692074F0
:1023B0007279736B6F752061206865617462656402
:1023C0003F00446F20796F752077616E7420746FC1
:1023D00020726570656174206C617374207374651C
:1023E0007020746F20726561646A7573742064690B
:1023F0007374616E6365206265747765656E206EC7
:102400006F7A7A6C6520616E6420686561746265BC
:10241000643F005A61636E75207469736B6E6F75EB
:1024200074206C696E6B752061205679206275642A
:1024300065746520706F737475706E6520736E6956
:102440007A6F76617420747279736B75206F746122
:1024500063656E696D20746C616369746B6120647F
:102460006F6B7564206E65646F7361686E6574650B
:10247000206F7074696D616C6E69207679736B7909
:102480002E2050726F686C65646E65746520736988
:10249000206F6272617A6B792076206E6173692099
:1024A00070726972756363652076206B6170697400
:1024B0006F6C65204B616C696272616365004920D5
:1024C00077696C6C20737461727420746F20707201
:1024D000696E74206C696E6520616E6420796F7519
:1024E0002077696C6C206772616475616C6C79200F
:1024F0006C6F77657220746865206E6F7A7A6C6590
:1025000020627920726F746174696E6720746865E7
:10251000206B6E6F622C20756E74696C20796F75FC
:10252000207265616368206F7074696D616C2068EA
:1025300065696768742E20436865636B20746865FD
:1025400020706963747572657320696E206F75728F
:102550002068616E64626F6F6B20696E20636861D2
:10256000707465722043616C6962726174696F6E28
:102570002E004E796E69207A6B616C696272756AA1
:102580006920767A64616C656E6F7374206D657A0C
:1025900069206B6F6E63656D20747279736B79203F
:1025A0006120706F76726368656D20686561746222
:1025B0006564752E004E6F7720492077696C6C201A
:1025C00063616C6962726174652064697374616EC1
:1025D0006365206265747765656E20746970206F2D
:1025E0006620746865206E6F7A7A6C6520616E640F
:1025F00020686561746265642073757266616365E5
:102600002E004A6520746F20504C412066696C6131
:102610006D656E743F00497320697420504C4120F1
:1026200066696C616D656E743F005A6176616465C0
:102630006E692066696C616D656E7475004C6F61C2
:1026400064696E672066696C616D656E74005072B6
:102650006F73696D20766C6F7A746520504C4120E1
:1026600066696C616D656E7420646F206578747244
:1026700075646572752C20706F20746520737469A1
:10268000736B6E65746520746C616369746B6F2025
:1026900070726F207A61766564656E692066696C18
:1026A000616D656E74752E00506C6561736520698F
:1026B0006E7365727420504C412066696C616D6563
:1026C0006E7420746F207468652065787472756408
:1026D00065722C207468656E207072657373206B50
:1026E0006E6F6220746F206C6F61642069742E00BD
:1026F000507265646568726976616D207472797371
:102700006B752E2050726F73696D2063656B656AFF
:1027100074652E0050726568656174696E67206E1D
:102720006F7A7A6C652E20506C65617365207761D5
:1027300069742E004E796E692070726564656872E6
:10274000656A6920747279736B752070726F20509E
:102750004C412E004E6F7720492077696C6C2070B9
:10276000726568656174206E6F7A7A6C6520666F39
:102770007220504C412E004A652066696C616D657F
:102780006E74207A61766564656E3F0049732066D9
:10279000696C616D656E74206C6F616465643F0087
:1027A000556D6973746574652070726F73696D20FF
:1027B0007469736B6F767920706C6174206E612020
:1027C0006865617462656400506C65617365207052
:1027D0006C61636520737465656C207368656574EE
:1027E000206F6E20686561746265642E004A652002
:1027F0007469736B6F767920706C6174206E6120E0
:10280000686561746265643F00497320737465652F
:102810006C207368656574206F6E206865617462F2
:1028200065643F004E796E692070726F76656475DD
:10283000207A206B616C6962726163692E004920A5
:1028400077696C6C2072756E207A2063616C6962A6
:10285000726174696F6E206E6F772E004E796E69AB
:102860002070726F766564752078797A206B616C60
:102870006962726163692E205A61626572652074B3
:102880006F20707269626C697A6E65203132206DDA
:10289000696E2E00492077696C6C2072756E207805
:1028A000797A2063616C6962726174696F6E206EFF
:1028B0006F772E2049742077696C6C2074616B658A
:1028C00020617070726F782E203132206D696E73C6
:1028D0002E004E656A6472697620706F6D6F636951
:1028E0002073656C667465737475207A6B6F6E7493
:1028F0006F6C756A69206E656A63617374656A736B
:102900006920636879627920767A6E696B616A6999
:1029100063692070726920736573746176656E698E
:10292000207469736B61726E792E004669727374DC
:102930002C20492077696C6C2072756E2074686554
:102940002073656C667465737420746F20636865AA
:10295000636B206D6F737420636F6D6D6F6E20619C
:102960007373656D626C792070726F626C656D73E4
:102970002E00446F6272792064656E2C206A736544
:102980006D2076617365207469736B61726E61206E
:102990004F726967696E616C20507275736120694E
:1029A000332E204368636574652061627963682013
:1029B0005661732070726F7665646C61206B616C18
:1029C00069627261636E696D2070726F63657365B1
:1029D0006D3F0048692C204920616D20796F757228
:1029E000204F726967696E616C2050727573612047
:1029F0006933207072696E7465722E20576F756C22
:102A00006420796F75206C696B65206D6520746F2B
:102A100020677569646520796F75207468726F75B9
:102A20006768207468652073657475702070726FB4
:102A3000636573733F0054726964656E69205B411E
:102A40006265636564615D00536F72743A20205B58
:102A5000416C7068616265745D0054726964656E92
:102A60006920202020205B4361735D00536F7274E6
:102A70003A2020202020205B54696D655D0053447E
:102A8000206361726420205B6E6F726D616C5D000B
:102A900053442063617264205B466C7368416972C1
:102AA0005D005679626572206A617A796B610053C4
:102AB000656C656374206C616E6775616765005253
:102AC000506920706F7274202020205B7A61705DE5
:102AD0000052506920706F727420202020205B6F9C
:102AE0006E5D0052506920706F7274202020205B50
:102AF0007679705D0052506920706F7274202020CA
:102B0000205B6F66665D005465706C2E206B616C97
:102B10002E20205B7A61705D0054656D702E2063FD
:102B2000616C2E2020205B6F6E5D005465706C2EF2
:102B3000206B616C2E20205B7679705D0054656D92
:102B4000702E2063616C2E20205B6F66665D004BEB
:102B50006F6E74722E2076656E742E5B7679705D62
:102B60000046616E7320636865636B20205B6F664F
:102B7000665D004B6F6E74722E2076656E742E5BF0
:102B80007A61705D0046616E7320636865636B20D7
:102B900020205B6F6E5D0054726964656E69202051
:102BA000205B5A61646E655D00536F72743A202039
:102BB000202020205B4E6F6E655D00462E206175E3
:102BC000746F7A61762E205B7679705D00462E20D8
:102BD0006175746F6C6F6164205B6F66665D004643
:102BE0002E206175746F7A61762E205B7A61705D3C
:102BF00000462E206175746F6C6F616420205B6FDE
:102C00006E5D00462E206175746F7A61762E205BB2
:102C10004E2F415D00462E206175746F6C6F6164AC
:102C2000205B4E2F415D0046696C2E2073656E7AE5
:102C30006F72205B4E2F415D0046696C2E207365DC
:102C40006E736F72205B4E2F415D005679706E6F10
:102C50007574206D6F746F72790044697361626C72
:102C60006520737465707065727300506F73756E54
:102C70006F7574206F7375004D6F7665206178698C
:102C800073005465706C6F74610054656D7065728B
:102C900061747572650047373600C720A120002196
:102CA000E720672118210E22B1217D226E22DD222C
:102CB0009A2253746174653A200048231A23C22370
:102CC0007623BE241324B5257225162602263D261A
:102CD0002A26A8264E261427F026542734278C2788
:102CE0007727C827A0270928ED273E2824289428DD
:102CF0005C282B29D228D329722947393900446905
:102D00007361626C65206661726D206D6F64653FF2
:102D100000482A362A6C2A5A2A7E2A902AAF2AA2EA
:102D20002AD12ABF2AF52AE32A4661726D206E75E0
:102D30006D62657200192B072B3D2B2B2B44697399
:102D400061626C65206661726D206D6F6465006103
:102D50002B4F2B852B732BA92B972BCD2BBB2BF11B
:102D60002BDF2B152C032C392C272C4D3834005AF3
:102D70002C4B2C782C6B2C8A2C822C506F757A65FE
:102D800020616B7475616C6E690043757272656E5B
:102D90007400506F757A69746520626568656D208E
:102DA0007469736B75005573656420647572696E20
:102DB00067207072696E740056736500416C6C0018
:102DC000504944206B616C2E20756B6F6E63656E8D
:102DD00061005049442063616C2E2066696E6973FE
:102DE00068656400504944206B616C2E20202020CF
:102DF00020202020202020005049442063616C2E98
:102E00002020202020202020202020004D3131377C
:102E1000204B616C2E207072766E6920767273740E
:102E20007679004D313137204669727374206C61B8
:102E30007965722063616C2E004F626E6F766F76DB
:102E4000616E69207469736B7500526573756D6985
:102E50006E67207072696E74005469736B20706FB6
:102E60007A6173746176656E005072696E74207059
:102E70006175736564008A2D7B2DA62D922DBC2D66
:102E8000B82D496E76616C696420504944206361B5
:102E90006C2E20726573756C74732E204E6F7420C7
:102EA00073746F72656420746F20454550524F4DA6
:102EB0002E004D35303000D22DC02DF82DE42D4799
:102EC00031205A3135204631353030004739310014
:102ED000473120583530205931393020453020468F
:102EE0003730303000473930004D373032004D3701
:102EF00030322043004D3730322055004D373032CC
:102F0000004731205A3135204631353030004739BD
:102F10003100473120583530205931393020453083
:102F2000204637303030004D383300473930004DBF
:102F30003834004D313034205330004D38340047A0
:102F4000312058313020593138302046343030303B
:102F5000004731205A31302046313330302E303066
:102F600030004D313430205330004D313034205357
:102F700030004D31303700473120452D302E30376D
:102F80003530302046323130302E30303030300065
:102F9000473120583530205935352045332E3632CB
:102FA00037373300473120583230302059353520FB
:102FB00045302E34393338360047312058323030DE
:102FC000205937352045332E3632373733004731D5
:102FD00020583530205937352045302E3439333894
:102FE0003600473120583530205939352045332EA9
:102FF0003632373733004731205832303020593994
:10300000352045302E343933383600473120583298
:10301000303020593131352045332E363237373371
:103020000047312058353020593131352045302E78
:103030003439333836004731205835302059313350
:10304000352045332E36323737330047312058325A
:10305000303020593133352045302E363631373433
:103060000047312058323030205931353520453233
:103070002E3632373733004731205831303020591F
:103080003135352045320047312058373520593108
:1030900035352045322E3500473120463130383025
:1030A000004731205835302059313535004731201F
:1030B0004634303030004D323034205331303030EF
:1030C000004731205A302E313530204637323030EB
:1030D0002E30303000473120452D312E3530303004
:1030E000302046323130302E3030303030004D38E4
:1030F00033004739300047323100473932204530FC
:103100002E3000473120583130302E3020453132BA
:103110002E352046313030302E30004731205836A1
:10312000302E302045392E302046313030302E3090
:10313000004739322045302E3000473238004738BA
:103140003700232E0C2E4D313039205332313500CB
:103150004D31393020533630004D31343020533624
:1031600030004D3130342053323135004D3130375D
:10317000004A2E392E473930004731204531004D65
:103180003832004731204531004D3833004D313061
:103190003620532564004D323230205325640069B7
:1031A0002E592E5A63686C6164697400436F6F6CAA
:1031B000646F776E0054657A6B65207A6B6F736508
:1031C0006E693A0053657665726520736B65773A70
:1031D000004C65686B65207A6B6F73656E693A00A9
:1031E000536C6967687420736B65773A004D65723C
:1031F000656E65207A6B6F73656E693A004D656127
:10320000737572656420736B65773A0050726176EE
:10321000793A0052696768743A004C6576793A00E9
:103220004C6566743A005920767A64616C656E6FFD
:103230007374206F64206D696E3A0059206469735D
:1032400074616E63652066726F6D206D696E3A0001
:103250004E617065746900566F6C746167657300C8
:103260005465706C6F74790054656D70657261742B
:103270007572657300537461762072656D656E7545
:103280000042656C742073746174757300457874C2
:10329000727564657220696E666F00446574616959
:1032A0006C792058595A206B616C2E0058595A205D
:1032B00063616C2E2064657461696C730044617491
:1032C000756D3A00446174653A00686F77746F2ECB
:1032D000707275736133642E637A00686F77746FF0
:1032E0002E707275736133642E636F6D00666F723A
:1032F000756D2E707275736133642E637A00666F1C
:1033000072756D2E707275736133642E636F6D000C
:10331000707275736133642E637A007072757361B5
:1033200033642E636F6D001B5B323B3148416D622D
:1033300069656E743A2020256425631B5B333B313D
:103340004850494E44413A202020202564256300FE
:103350001B5B303B31484E6F7A7A6C653A202020F7
:10336000256425631B5B313B31484265643A20206C
:103370002020202025642563001B5B313B31485011
:1033800057523A20202020202025642E25303164F9
:1033900056001B5B303B314842656C74207374618E
:1033A0007475731B5B313B3248582025641B5B32BC
:1033B0003B32485920256400AC31A331464C455876
:1033C000202D20203234302F353000505020202046
:1033D0002D20203235342F313030004849505320D1
:1033E0002D20203232302F31303000414253202006
:1033F0002D20203235352F313030005045542020DB
:103400002D20203233302F383500504C4120202DD4
:1034100020203231352F3630006661726D20202D2C
:1034200020203235302F34300000C431B53100E077
:1034300031D1312D2D2D2D2D2D2D2D2D2D2D2D2D10
:103440002D2D2D2D2D2D2D004E2F4100FD31ED3137
:103450004E2F41006D6D000013320C3220321A32B3
:103460003B32263257325032683260328132753206
:103470008D32AC329B322D2D2D2D2D2D2D2D2D2D20
:103480002D2D00466C6173684169722049502041BE
:103490006464723A002D2D2D2D2D2D2D2D2D2D2DC9
:1034A0002D002833642D677573736E65722C48295F
:1034B0000031323A35333A3433004A616E203235C6
:1034C000203230313800C432BD322D2D2D2D2D2D1E
:1034D0002D2D2D2D2D2D00453344763666756C6CC3
:1034E0000045494E595F30346100315F37356D6DAD
:1034F0005F4D4B33002D2D2D2D2D2D2D2D2D2D2DB3
:103500002D00DB32CA32FE32ED321B331033207213
:1035100065706F20507275736133442F4D4B3300CB
:1035200020332E312E312D5243352D313531004689
:1035300069726D776172653A0025642E25642E25C7
:10354000642E2564004B616C696272756A69205A49
:103550000043616C6962726174696E67205A004948
:103560007465726163652000497465726174696F86
:103570006E2000207A203400206F662034005A6CC0
:10358000657073756A6920707265736E6F737420ED
:103590006B616C69627261636E69686F20626F64EF
:1035A0007500496D70726F76696E67206265642080
:1035B00063616C6962726174696F6E20706F696EAD
:1035C00074004B616C6962726163652058595A20BE
:1035D0007620706F7261646B752E205A6B6F736505
:1035E0006E692062756465206175746F6D617469C0
:1035F000636B79207679726F766E616E6F20707270
:1036000069207469736B752E0058595A2063616C78
:103610006962726174696F6E20616C6C2072696797
:1036200068742E20536B65772077696C6C20626517
:1036300020636F72726563746564206175746F6D69
:1036400061746963616C6C792E004B616C696272A4
:103650006163652058595A207620706F7261646BDF
:10366000752E20582F59206F7379206D69726E6501
:10367000207A6B6F73656E652E20446F62726120D5
:103680007072616365210058595A2063616C6962E8
:10369000726174696F6E20616C6C20726967687406
:1036A0002E20582F59206178657320617265207330
:1036B0006C696768746C7920736B657765642E201C
:1036C000476F6F64206A6F6221004B616C696272A0
:1036D0006163652058595A207620706F7261646B5F
:1036E000752E20582F59206F7379206A736F7520BB
:1036F0006B6F6C6D652E2047726174756C756A69AD
:10370000210058595A2063616C6962726174696F53
:103710006E206F6B2E20582F5920617865732061C1
:1037200072652070657270656E646963756C617234
:103730002E20436F6E67726174756C6174696F6E71
:103740007321004B616C6962726163652058595A3C
:10375000206E65707265736E612E204C65767920DF
:10376000707265646E6920626F64206D6F6320768D
:1037700070726564752E0058595A2063616C6962D5
:10378000726174696F6E20636F6D70726F6D6973B3
:1037900065642E204C6566742066726F6E742063BB
:1037A000616C6962726174696F6E20706F696E74AA
:1037B000206E6F7420726561636861626C652E00B3
:1037C0004B616C6962726163652058595A206E655D
:1037D000707265736E612E20507265646E69206B25
:1037E000616C69627261636E6920626F6479206DD9
:1037F0006F63207670726564752E0058595A206385
:10380000616C6962726174696F6E20636F6D707252
:103810006F6D697365642E2046726F6E74206361EC
:103820006C6962726174696F6E20706F696E747317
:10383000206E6F7420726561636861626C652E0032
:103840004B616C6962726163652058595A207365D7
:103850006C68616C612E204C6576792070726564AD
:103860006E6920626F64206D6F632076707265648C
:10387000752E2053726F766E656A74652074697355
:103880006B61726E752E0058595A2063616C6962C3
:10389000726174696F6E206661696C65642E204C7C
:1038A0006566742066726F6E742063616C69627203
:1038B0006174696F6E20706F696E74206E6F742012
:1038C000726561636861626C652E004B616C696250
:1038D000726163652058595A2073656C68616C6128
:1038E0002E20507265646E69206B616C6962726132
:1038F000636E6920626F6479206D6F6320767072E9
:103900006564752E2053726F766E656A74652074D7
:1039100069736B61726E752E0058595A2063616C21
:103920006962726174696F6E206661696C65642E8C
:103930002046726F6E742063616C69627261746993
:103940006F6E20706F696E7473206E6F7420726575
:1039500061636861626C652E004B616C69627261C3
:1039600063652058595A2073656C68616C612E201C
:103970004E61686C65646E65746520646F206D616E
:103980006E75616C752E0058595A2063616C6962BE
:10399000726174696F6E206661696C65642E205077
:1039A0006C6561736520636F6E73756C74207468E9
:1039B00065206D616E75616C2E004B616C69627281
:1039C0006163652058595A2073656C68616C612E7B
:1039D000204B616C69627261636E6920626F642062
:1039E000706F646C6F7A6B79206E656E616C657A4E
:1039F000656E2E0058595A2063616C696272617459
:103A0000696F6E206661696C65642E204265642072
:103A100063616C6962726174696F6E20706F696E48
:103A20007420776173206E6F7420666F756E642EDC
:103A300000207A203400206F66203400486C6564D2
:103A4000616D206B616C69627261636E6920626F87
:103A50006420706F646C6F7A6B7900536561726378
:103A600068696E67206265642063616C6962726177
:103A700074696F6E20706F696E7400556D69737430
:103A8000657465206C69737420706170697275204B
:103A90006E6120706F646C6F7A6B75206120756445
:103AA000727A756A7465206A656A20706F64207422
:103AB0007279736B6F7520626568656D206D6572D4
:103AC000656E69207072766E696368203420626F5B
:103AD00064752E20506F6B756420747279736B61FE
:103AE000207A6163687974692070617069722C2032
:103AF0007679706E657465207469736B61726E752A
:103B00002E00506C616365206120736865657420C8
:103B10006F6620706170657220756E6465722074C6
:103B20006865206E6F7A7A6C6520647572696E675D
:103B3000207468652063616C6962726174696F6E7C
:103B4000206F66206669727374203420706F696E0E
:103B500074732E20496620746865206E6F7A7A6CC3
:103B600065206361746368657320746865207061A3
:103B70007065722C20706F776572206F6666207496
:103B80006865207072696E74657220696D6D656418
:103B9000696174656C792E0050726F207573706561
:103BA000736E6F75206B616C696272616369206FFF
:103BB000636973746574652070726F73696D2074C6
:103BC00069736B6F766F7520747279736B752E20C5
:103BD000506F74767264746520746C616369746B81
:103BE000656D2E00506C6561736520636C65616E58
:103BF00020746865206E6F7A7A6C6520666F72201B
:103C000063616C6962726174696F6E2E20436C69C6
:103C1000636B207768656E20646F6E652E004F645D
:103C2000737472616E7465207469736B6F7679203A
:103C3000706C6174207A20686561746265642070BC
:103C4000726F73696D2E00506C65617365207265CB
:103C50006D6F766520737465656C20736865657437
:103C60002066726F6D20686561746265642E000065
:103C7000007F43000056439AD95143FFFFFF51355F
:103C80004535203C20005741524E494E473A204688
:103C9000726F6E7420706F696E74206E6F74207214
:103CA0006561636861626C652E205920636F6F7275
:103CB00064696E6174653A000068355F3549746502
:103CC000726174696F6E3A200043616C63756C6158
:103CD00074696F6E206F6620746865206D6163681B
:103CE000696E6520736B657720616E64206F666610
:103CF000736574206661696C65642E007835733570
:103D0000A2357E350936C23587364A360237CA367D
:103D100077374337FB37C037873840381939CB38C6
:103D200087395939F439BA3943616C6962726174FF
:103D3000696F6E206661696C656421204368656304
:103D40006B20746865206178657320616E642072F1
:103D5000756E20616761696E2E00363A313A5B3AC2
:103D60003C3A023B7B3AE43B983B473C1E3C10000C
:103D7000C90210012C014001220170011801B0019B
:103D80000E01F00104015002FA00B002F00030030D
:103D9000E600D003DC009004D2007005C800A00645
:103DA000BE000008B400B009AA00D00BA000600E4D
:103DB000960060118C000015820020197800C01D4B
:103DC0006E00A0226400B0275A00902C50000031F1
:103DD0004600E0343C0010383200903A2800603C45
:103DE0001E00A03D1400803E0A00203F0000204835
:103DF0004F54454E4420544845524D414C20525555
:103E00004E415741590020484541544245442054B1
:103E10004845524D414C2052554E4157415900544E
:103E20004845524D414C2052554E41574159004250
:103E3000454420544845524D414C2052554E41571F
:103E400041590020544845524D414C2052554E4155
:103E50005741592028205052454845415420484F49
:103E600054454E44290020544845524D414C20525F
:103E7000554E4157415920282050524548454154FC
:103E80002048454154424544290050524548454147
:103E900054204552524F520042454420505245480A
:103EA000454154204552524F52004572723A204DBE
:103EB000415854454D50003A2045787472756465F8
:103EC00072207377697463686564206F66662E205C
:103ED0004D415854454D502074726967676572654D
:103EE000642021004572723A204D415854454D508E
:103EF000204245440054656D706572617475726549
:103F000020686561746564206265642073776974F4
:103F100063686564206F66662E204D415854454D98
:103F2000502074726967676572656420210045726C
:103F3000723A204D494E54454D502042454400545C
:103F4000656D706572617475726520686561746510
:103F50006420626564207377697463686564206FA8
:103F600066662E204D494E54454D50207472696747
:103F700067657265642021004572723A204D494E92
:103F800054454D50003A204578747275646572202E
:103F90007377697463686564206F66662E204D4987
:103FA0004E54454D50207472696767657265642090
:103FB00021004E4F524D414C00535445414C544802
:103FC00000746D63323133305F696E697428292C57
:103FD000206D6F64653D25530A00544D43204452C3
:103FE00049564552204F56455254454D5020007475
:103FF0006D63323133305F7365745F637572726500
:104000006E745F6828617869733D25642C20637540
:104010007272656E743D25640A00746D63323133CB
:10402000305F7365745F63757272656E745F72285A
:10403000617869733D25642C2063757272656E74B6
:104040003D25640A0050726F73696D2063656B656E
:104050006A746500506C65617365207761697400EE
:104060004175746F6D617469636B65207A61766107
:1040700064656E692066696C616D656E747520613A
:104080006B7469766E692C20737469736B6E6574DA
:104090006520746C616369746B6F206120766C6F4E
:1040A0007A74652066696C616D656E742E2E2E00C3
:1040B0004175746F6C6F6164696E672066696C61CD
:1040C0006D656E74206973206163746976652C2058
:1040D0006A75737420707265737320746865206BE1
:1040E0006E6F6220616E6420696E73657274206603
:1040F000696C616D656E742E2E2E0043656C6B6F5E
:10410000767920636173203A00546F74616C20707B
:1041100072696E742074696D65203A0046696C613D
:104120006D656E742063656C6B656D203A00546F2D
:1041300074616C2066696C616D656E74203A004331
:104140006173207469736B75203A20200050726986
:104150006E742074696D653A20200046696C616D4B
:10416000656E74203A20200046696C616D656E743E
:1041700020757365643A20200041646A7573746920
:104180006E67205A004D692E4C6566742020685B6E
:10419000756D5D0052652E4C6566742020675B75F9
:1041A0006D5D0052652E43656E747220665B756DA1
:1041B0005D0052652E526967687420655B756D5DA0
:1041C000004D692E526967687420645B756D5D00EF
:1041D00046722E526967687420635B756D5D004698
:1041E000722E43656E747220625B756D5D0046725F
:1041F0002E4C6566742020615B756D5D004E6173A9
:104200007461767465207465706C6F74753A0053D0
:1042100065742074656D70657261747572653A00BD
:10422000544045404D37303100B04060400941FBBB
:10423000402E411C414D413F4168415B41457874EE
:10424000727564657200580059005A0079418541C1
:104250009441A341B241C141D041DF41EE410F42FF
:10426000FD4120003E003E0020003E003E004E6129
:1042700068726976616E692050494E444100504928
:104280004E44412048656174696E67005465706CE6
:104290002E206B616C2E202020202020202020202A
:1042A0000054656D702E2063616C2E20202020202C
:1042B0002020202020004B616C69627261636520C0
:1042C0004F4B0043616C6962726174696F6E206468
:1042D0006F6E65004B616C696272756A69205A0085
:1042E00043616C6962726174696E67205A0042654D
:1042F00064204F4B2E0042656420646F6E65005A47
:104300006168726976616E69206265640042656405
:104310002048656174696E67005A616872697661E8
:104320006E69204F4B2E0048656174696E6720648A
:104330006F6E652E005A6168726976616E69004819
:10434000656174696E67005072696E74657220648D
:104350006973636F6E6E6563746564003A20007EF6
:10436000426E42A1428C42C342B64220202020200D
:10437000202020202020202020202020202000205D
:104380003A2000E042D4422020202020202020207B
:10439000202020202020202020202000F642EE4255
:1043A0000D43FF42274319433F433543202020203C
:1043B0002020202020202020200025730020200005
:1043C0002D2D3A2D2D002000200020004C00202013
:1043D000002046002D2D2D003E5553420053440031
:1043E0002D2D00252020202020002020002020002E
:1043F0000120002020202D2D2D200020205A0020DB
:10440000200001200047434578747275646572008E
:10441000506F73756E6F7574205A004D6F766520FE
:104420005A00506F73756E6F75742059004D6F761A
:1044300065205900506F73756E6F75742058004D6C
:104440006F76652058001B5B324A437261736820A7
:10445000646574656B6365206D757A651B5B313BC4
:104460003048627974207A61706E75746120706F63
:10447000757A6520761B5B323B30484E6F726D61FA
:104480006C206D6F6475001B5B324A437261736808
:1044900020646574656374696F6E2063616E1B5B75
:1044A000313B30486265207475726E6564206F6EB2
:1044B000206F6E6C7920696E1B5B323B30484E6F0B
:1044C000726D616C206D6F6465001B5B324A504FEA
:1044D0005A4F523A1B5B313B30484372617368203C
:1044E000646574656B63651B5B323B304864656172
:1044F0006B7469766F76616E612076651B5B333B0A
:104500003048537465616C7468206D6F6475001B6E
:104510005B324A5741524E494E473A1B5B313B3062
:1045200048437261736820646574656374696F6E73
:104530001B5B323B304864697361626C656420695F
:104540006E1B5B333B3048537465616C7468206D3F
:104550006F6465004175746F6D617469636B65208C
:104560007A61766164656E692066696C616D656EFD
:10457000747520646F737475706E6520706F757AD2
:104580006520707269207A61706E7574656D206641
:10459000696C616D656E742073656E7A6F72752ECD
:1045A0002E2E004175746F6C6F6164696E672066B2
:1045B000696C616D656E7420617661696C61626CB5
:1045C00065206F6E6C79207768656E2066696C6116
:1045D0006D656E742073656E736F722069732074DD
:1045E00075726E6564206F6E2E2E2E004348594200
:1045F000413A2046696C616D656E742073656E7A10
:104600006F72206E6572656167756A652C207A6BC2
:104610006F6E74726F6C756A7465207A61706F6A00
:10462000656E692E004552524F523A2046696C61C0
:104630006D656E742073656E736F72206973206E82
:104640006F7420726573706F6E64696E672C207072
:104650006C6561736520636865636B20636F6E6E64
:10466000656374696F6E2E005A6B616C6962726F5C
:104670007661740043616C696272617465005A30DE
:10468000005A31005930005931005830005831007B
:10469000456E642073746F707320646961670007EE
:1046A000441B4410442D4422443F44344487444630
:1046B000440F45CA44A34554452546EC4547383088
:1046C000004D3435205A00744668464D3234004D52
:1046D0003233202573006175746F25692E6700538E
:1046E000746F7265642073657474696E6773207289
:1046F0006574726965766564006563686F3A005435
:10470000726964656E6920736F75626F72750053AC
:104710006F7274696E672066696C6573004E656BB5
:104720007465726520736F75626F7279206E656251
:1047300075646F7520736574726964656E792E2077
:104740004D6178696D616C6E6920706F636574206E
:10475000736F75626F72752070726F2073657472FB
:104760006964656E69206A65203130302E00536FB0
:104770006D652066696C65732077696C6C206E6F5F
:104780007420626520736F727465642E204D6178A9
:104790002E204E6F2E206F662066696C657320692F
:1047A0006E203120666F6C64657220666F722073B4
:1047B0006F7274696E67206973203130302E005734
:1047C000726974696E6720746F2066696C653A203F
:1047D0000046696C652073656C65637465640020D0
:1047E00053697A653A200046696C65206F70656E82
:1047F00065643A20006F70656E206661696C65645F
:104800002C2046696C653A20004E65004E6F0041D1
:104810006E6F00596573000F47FF466E471D47BF17
:10482000472E002E00D147DF47E7472E00F5474EC1
:104830006F772066726573682066696C653A200040
:104840004E6F7720646F696E672066696C653A20E9
:10485000002220706F73002220706172656E743ABE
:104860002200535542524F5554494E452043414C26
:104870004C207461726765743A2200747279696EB3
:104880006720746F2063616C6C207375622D6763A1
:104890006F64652066696C6573207769746820743D
:1048A0006F6F206D616E79206C6576656C732E205C
:1048B0004D4158206C6576656C2069733A000C4850
:1048C00009483E0013480F483E0020003E003E00CD
:1048D000200000004041FFFFBF4000005C43FFFF9D
:1048E000BF4000005C430000464300004041000020
:1048F000464350726564656872656A7465207472B7
:1049000079736B75210050726568656174207468F5
:1049100065206E6F7A7A6C65210043485942413AAE
:10492000004552524F523A00506F64706F726100EE
:10493000537570706F727400537461746973746925
:104940006B61202000537461746973746963732010
:1049500020004B616C6962726163650043616C6940
:1049600062726174696F6E0056796A6D6F7574203A
:1049700066696C616D656E7400556E6C6F61642064
:1049800066696C616D656E74005A6176657374203A
:1049900066696C616D656E74004C6F616420666958
:1049A0006C616D656E74004175746F5A61766564F3
:1049B000656E692066696C2E004175746F4C6F617D
:1049C000642066696C616D656E74005A61646E6125
:1049D000205344206B61727461004E6F2053442059
:1049E0006361726400506F6B7261636F7661740013
:1049F000526573756D65207072696E7400506F7AC0
:104A000061737461766974207469736B00506175A9
:104A10007365207072696E740050726564656872A7
:104A200065760050726568656174004C61646974F4
:104A30000054756E6500446F6C6164656E69206F2B
:104A40007379205A004C6976652061646A757374C5
:104A5000205A00496E666F726D61636500496E662B
:104A60006F2073637265656E00446F6B6F6E636F6A
:104A700076616E6920706F687962750046696E694B
:104A80007368696E67206D6F76656D656E7473000F
:104A90004372617368206465742E20205B4E2F4141
:104AA0005D004372617368206465742E20205B7A18
:104AB00061705D004372617368206465742E20200C
:104AC000205B6F6E5D004372617368206465742EB5
:104AD00020205B7679705D004372617368206465A5
:104AE000742E20205B6F66665D004D6F6420202071
:104AF00020205B537465616C74685D004D6F646564
:104B0000202020205B537465616C74685D004D6FDC
:104B1000642020202020205B4E6F726D616C5D0050
:104B20004D6F646520202020205B4E6F726D616C9C
:104B30005D0046696C2E2073656E7A6F72205B7A19
:104B400061705D0046696C2E2073656E736F722014
:104B5000205B6F6E5D0046696C2E2073656E7A6F08
:104B600072205B7679705D0046696C2E2073656EED
:104B7000736F72205B6F66665D0056796D656E6956
:104B8000742066696C616D656E74004368616E6760
:104B9000652066696C616D656E7400507275746F26
:104BA0006B00466C6F7700527963686C6F737400AA
:104BB0005370656564000649F24821491A494D372A
:104BC000303200304928494661696C207374617441
:104BD0007300454938495C495249794968499949BE
:104BE0008949B949A7494661726D206E756D626544
:104BF0007200DA49CB49F049E5490D4AFD49234A9B
:104C0000194A314A2B4A454A364A5D4A534A7C4A38
:104C1000694A4D36303000904AB44AA24AD84AC652
:104C20004AFC4AEA4A204B0E4B444B324B684B56E7
:104C30004B8B4B7A4BA24B9B4BB04BA74B20746FCB
:104C40006F206C6F6E6720657874727573696F6E14
:104C50002070726576656E7465640020636F6C64A5
:104C600020657874727573696F6E207072657665F1
:104C70006E74656400062833D036C23E013F15418C
:104C800032423B43F2443B45F24622473B48F2491D
:104C90003B4AF05898590C5A085B0C5C0861106745
:104CA0009B6E2271077208FF095A0D000EFF19044E
:104CB0005E0820642B6D322FFF3D4C5B4C436879BE
:104CC0006261202D20446F736C6F206B20707265C1
:104CD00070697375207374617469636B65207061AA
:104CE0006D65746921004572726F72202D20737496
:104CF00061746963206D656D6F72792068617320DE
:104D00006265656E206F7665727772697474656E20
:104D1000004B617274612076796A6D75746100432D
:104D20006172642072656D6F766564004B617274A8
:104D30006120766C6F7A656E6100436172642069F0
:104D40006E73657274656400E64CBD4C1F4D114D69
:104D50003A4D2C4D00002100240027002A002D0090
:104D60003000330001010000040107010A010000C6
:104D700020002300260029002C002F003200000113
:104D8000000003010601090100000A0B02090C0DD5
:104D90000E080703040100000000000000000000EE
:104DA0000000000000000000000000000000000003
:104DB00000000000121110000000000000000000C0
:104DC00000000000000000000000000000000000E3
:104DD00000000000000000000000000000004E6520
:104DE000746F6369207365004E6F74207370696E11
:104DF0006E696E6700546F63692073650053706954
:104E00006E6E696E67004C6576792076656E7420EB
:104E10006E61207472797363653F004C656674201F
:104E2000686F74656E642066616E3F0050726564E1
:104E30006E69207469736B6F76792076656E743F46
:104E40000046726F6E74207072696E742066616EB7
:104E50003F00546573742076656E74696C61746F7D
:104E600072750046616E207465737400E84DDE4D06
:104E7000FD4DF54D1B4E064E414E2C4E634E524E8F
:104E8000010210202008081020401020408002015C
:104E90000201080402010102040810204080804041
:104EA0002010080402018004020180402010080440
:104EB00002010804020101020408102040800102DE
:104EC000040810204080100804088010204004408E
:104ED00080102040048000002200250028002B00C4
:104EE0002E003100340002010000050108010B0111
:104EF00005050505070508080808020202020A0A56
:104F00000808040404040101010101010101030373
:104F1000030303030303040707070C0C0C0C0C0C1E
:104F20000C0C0202020206060606060606060B0B1B
:104F30000B0B0B0B0B0B07070A0A0A0A0A0A0505DB
:104F40000504040408080222206661696C65643A5D
:104F5000204275666665722066756C6C2100456E30
:104F6000717565696E6720746F207468652066725C
:104F70006F6E743A2022004572726F723A002200FE
:104F8000456E717565696E6720746F207468652061
:104F900066726F6E743A202200207A203900206FEA
:104FA000662039004D6572696D20726566657265AF
:104FB0006E636E69207679736B75206B616C6962C4
:104FC0007261636E69686F20626F6475004D656120
:104FD000737572696E67207265666572656E63656A
:104FE00020686569676874206F662063616C696218
:104FF000726174696F6E20706F696E7400457872AB
:10500000656D65207370616E206F66207468652021
:105010005A2076616C756573210000004041FFFFE6
:10502000BF400000E442FFFFBF4000005743FFFFC6
:10503000BF40000057430000CC420000E4420000A3
:10504000CC42000040410000CC4200004041000042
:1050500046430000E442000046430000574300007E
:1050600046439E4F994FCD4FA44F53656E7A6F7252
:105070002066696C616D656E74750046696C616D62
:10508000656E742073656E736F720050726F686F17
:105090007A656E6500537761707065640050726563
:1050A000646E692F6C6576792076656E742E004685
:1050B000726F6E742F6C6566742066616E73004F3C
:1050C000736100417869730044656C6B61206F7394
:1050D000790041786973206C656E67746800557655
:1050E0006F6C6E656E612072656D656E69636B6174
:1050F000004C6F6F73652070756C6C657900456E40
:105100006473746F70206E6F742068697400456EEC
:105110006473746F70004D6F746F7200456E6473CA
:10512000746F7073004368796261207A61706F6A8E
:10513000656E6900576972696E67206572726F7279
:1051400000426564202F20486561746572004E65D9
:105150007A61706F6A656E6F20202020004E6F7438
:1051600020636F6E6E656374656400486561746585
:10517000722F546865726D6973746F72005A6B6F29
:105180006E74726F6C756A7465203A00506C65615C
:10519000736520636865636B203A0053656C6674C1
:1051A000657374206572726F7220210053656E7A88
:1051B0006F722066696C616D656E74753A00466940
:1051C0006C616D656E742073656E736F723A005416
:1051D00069736B6F76792076656E742E3A00507223
:1051E000696E742066616E3A004C6576792076654A
:1051F0006E742E3A0045787472756465722066612B
:105200006E3A0053656C66746573742073656C68E0
:10521000616C20200053656C667465737420666150
:10522000696C6564202000567365204F4B20202058
:10523000202020202020202000416C6C20636F72F1
:1052400072656374202020202020004B6F6E7472E2
:105250006F6C612073656E7A6F7275004368656369
:105260006B696E672073656E736F727320004B6F8E
:105270006E74726F6C6120626564202020202000B3
:10528000436865636B696E67206265642020202037
:1052900020004B6F6E74726F6C61205A20617869C8
:1052A00073202000436865636B696E67205A206134
:1052B0007869732020004B6F6E74726F6C61205997
:1052C0002061786973202000436865636B696E67AD
:1052D000205920617869732020004B6F6E74726FC3
:1052E0006C612058206178697320200043686563F1
:1052F0006B696E67205820617869732020004B6FBE
:105300006E74726F6C6120686F74656E642020002B
:10531000436865636B696E6720686F74656E6420AF
:1053200020004B6F6E74726F6C6120656E647374D5
:105330006F707300436865636B696E6720656E64A8
:1053400073746F70730041786973206C656E677455
:105350006820646966666572656E63653A004D65CE
:105360006173757265642061786973206C656E671E
:1053700074683A0025632041584953205347313D12
:1053800025640A007B506A5095508B50AF509D5059
:10539000C350BF50D250C850F150DE50FE500E5195
:1053A00016511C513451255141515D514E516B5193
:1053B0008C517D519B51BE51AC51DE51CF51F551B5
:1053C000E95115520352395227525C524B528052C6
:1053D0006E52A4529252C852B652EC52DA52105344
:1053E000FE52345322534572723A205052494E5461
:1053F0002046414E204552524F52004552524F5284
:105400003A205072696E742066616E207370656513
:1054100064206973206C6F776572207468656E20F4
:105420006578706563746564004572723A2045580A
:1054300054522E2046414E204552524F5200455262
:10544000524F523A204578747275646572206661D5
:105450006E207370656564206973206C6F77657268
:10546000207468656E20657870656374656400708B
:10547000012C0190012701B0012201C0011D01F0A2
:105480000118011002130130020E0160020901909F
:10549000020401C002FF000003FA004003F500808F
:1054A00003F000D003EB002004E6007004E100E00C
:1054B00004DC004005D700C005D2004006CD00D076
:1054C00006C8008007C3003008BE00F008B900C05D
:1054D00009B400B00AAF00B00BAA00D00CA50000C0
:1054E0000EA000500F9B00C01096005012910000BB
:1054F000148C00C0158700B0178200B0197D00D051
:105500001B7800001E730040206E0090226900F09E
:1055100024640040275F0090295A00E02B550010BA
:105520002E500020304B0010324600E033410090F6
:10553000353C001037370070383200A0392D00B0EC
:105540003A2800A03B2300603C1E00103D1900904B
:105550003D1400103E0F00703E0A00C03E050000E2
:105560003F000090137D00B0157800F017730060C5
:105570001A6E00F01C6900A01F640050225F00201A
:10558000255A00E0275500902A5000202D4B00A0FE
:105590002F4600F031410010343C00F0353700A0B8
:1055A00037320020392D00603A2800703B2300601C
:1055B0003C1E00203D1900C03D1400403E0F00A0DD
:1055C0003E0A00F03E0500403F0000703FFBFF90A8
:1055D0003FF6FFB03FF1FFC03FECFFD03FE7FFE0F9
:1055E0003FE2FFF03FDDFFF03FD8FF53746570727C
:1055F00061746520746F6F20686967683A2000EBFA
:105600005524F4D43050C38E20C2A24017828B7030
:1056100011127A910D816CD90AA861E108C7586608
:1056200007615143061E4B5D05C145A7041A411190
:1056300004093D9803713931034036DB026533912B
:1056400002D4305402802E1D02632CEE01752AC54F
:1056500001B028A001102781018F2564012B244B64
:1056600001E0223401AC211F018D200D01801FFCBF
:1056700000841EED00971DDF00B81CD200E61BC69B
:1056800000201BBC00641AB200B219A8000A19A0BD
:10569000006A189900D117910040178B00B5168445
:1056A0000031167E00B31579003A157300C7146FE8
:1056B0000058146A00EE1366008813630025135E19
:1056C00000C7125B006C12570015125400C1115133
:1056D0000070114F0021114B00D61049008D10476A
:1056E000004610440002104200C00F4000800F3EF0
:1056F00000420F3C00060F3B00CB0E3800930E37E4
:10570000005C0E3500270E3400F30D3200C10D3160
:1057100000900D3000600D2E00320D2D00050D2C77
:1057200000D90C2B00AE0C2900850C29005C0C273D
:1057300000350C27000E0C2600E80B2400C40B24B7
:1057400000A00B23007D0B23005A0B2100390B21F5
:1057500000180B2000F80A1F00D90A1E00BB0A1E01
:10576000009D0A1D00800A1D00630A1C00470A1BD9
:10577000002C0A1B00110A1A00F7091A00DD09198A
:1057800000C4091900AB091900920917007B091818
:1057900000630917004C0916003609160020091687
:1057A000000A091500F5081500E0081400CC0814DB
:1057B00000B8081400A4081400900813007D081213
:1057C000006B081300580812004608120034081134
:1057D00000230811001208110001081100F0071041
:1057E00000E0071000D0071000C0071000B0070F3E
:1057F00000A107100091070E0083070F0074070F28
:105800000065070E0057070E0049070E003B070D05
:10581000002E070E0020070D0013070D0006070DD0
:1058200000F9060C00ED060D00E0060C00D4060C95
:1058300000C8060C00BC060C00B0060C00A4060B49
:105840000099060C008D060B0082060B0077060BF4
:10585000006C060B0061060A0057060B004C060A96
:105860000042060A0038060A002E060A0024060A2C
:10587000001A060A001006090007060A00FD0509BD
:1058800000F4050900EB050900E2050900D9050946
:1058900000D0050900C7050900BE050900B50508C7
:1058A00000AD050800A50509009C05080094050841
:1058B000008C050800840508007C050800740508B4
:1058C000006C050700650508005D05070056050822
:1058D000004E05070047050700400508003805078A
:1058E00000310507002A050700230507001C0506EF
:1058F00000160507000F050700080506000205074A
:1059000000FB040600F5040700EE040600E80406A8
:1059100000E2040700DB040600D5040600CF0406FD
:1059200000C9040600C3040600BD040600B704064F
:1059300000B1040500AC040600A6040600A004059E
:10594000009B04060095040500900406008A0405E7
:105950000085040500800406007A0405007504052E
:1059600000700405006B0405006604050061040571
:10597000005C04050057040500520405004D0405B1
:105980000048040500430405003E0404003A0405F1
:105990000035040500300404002C0405002704042D
:1059A00000230405001E0404001A04040016040564
:1059B00000110404000D040400090405000404049B
:1059C0000000040400FC030400F8030400F40304D2
:1059D00000F0030400EC030400E8030400E4030403
:1059E00000E0030400DC030400D8030400D4030433
:1059F00000D0030400CC030400C8030300C5030364
:105A00000024F404D9201BC40C5C0E9804C4095F64
:105A10000265077101F405F900FB04B3004804872F
:105A200000C10369005803550003034500BE023A54
:105A3000008402310053022A0029022500040220BA
:105A400000E4011C00C8011900AF011700980114FF
:105A50000084011300710110006101100051010E5A
:105A60000043010D0036010B002B010B0020010B40
:105A700000150109000C01090003010800FB0008E2
:105A800000F3000800EB000700E4000600DE00065B
:105A900000D8000600D2000600CC000500C70005B3
:105AA00000C2000500BD000400B9000400B50004F8
:105AB00000B1000400AD000400A9000400A500032B
:105AC00000A20003009F0004009B00030098000355
:105AD000009500020093000300900003008D000277
