:100000000C94AB330C94DC330C94DC330C94DC3365
:100010000C94DC330C94DC330C94DC330C94DC3324
:100020000C94DC330C94DC330C94DC330C9409CA50
:100030000C94DC330D94012E0C94DC330C94DC33E3
:100040000C94DC330C94F0A20C94DC330C94DC3371
:100050000C94DC330C94DC330C945A950D94B22F31
:100060000C94DC330D94D5250C94DC330C94DC33E8
:100070000C94DC330C94DC330C94DC330C94DC33C4
:100080000C94DC330C94DC330C94DC330C94DC33B4
:100090000D9491250C94DC330C94DC330C94DC33FC
:1000A0000C94DC330C94DC330C94DC330C94DC3394
:1000B0000C94DC330C94DC330C94DC330C94DC3384
:1000C0000C94DC330C94DC330C94DC330C94DC3374
:1000D0000C94DC330C94DC330C94DC330C94DC3364
:1000E0000C94DC33B068B368B668B968BC68BF68A4
:1000F000C2685C698F69C469F7692A6A5D6A906A37
:10010000A3EABAEACEEAE3EAF4EA21EB3DEBF5EB47
:1001100021EC31EC4EEC6CEC9DECA5ECADECADECD7
:10012000ADECD3ECD3ECD3ECB5ECE3ECD3ECBFEC1F
:100130006A01CA01CE0182019E01CC015E017801F3
:10014000900152015001D4013A013601800146016B
:10015000B6018801BC0176014801BE013601B80133
:10016000D2019A01D8016C01C8014A01AA01BA0161
:100170009201B401B20196017C0160017E014E0141
:10018000BA01A801B001A601D6018E018601A20123
:10019000A4018A01C401A0014C0184017A01084A2A
:1001A000D73B3BCE016E84BCBFFDC12F3D6C74318B
:1001B0009ABD56833DDA3D00C77F11BED9E4BB4CE2
:1001C0003E916BAAAABE000000803F05A84CCDB2AC
:1001D000D44EB93836A9020C50B9918688083CA68D
:1001E000AAAA2ABE000000803F07634236B79BD808
:1001F000A71A39685618AEBAAB558C1D3CB7CC5708
:1002000063BD6DEDFD753EF6177231BF00000080D5
:100210003F08000000BE922449123EABAAAA2ABEA3
:10022000CDCCCC4C3E00000080BEABAAAAAA3E00BA
:10023000000000BF000000803F00000000000841F7
:1002400078D3BB4387D1133D190E3CC3BD4282AD69
:100250002B3E68EC8276BED98FE1A93E4C80EFFF41
:10026000BE01C4FF7F3F0000000000000D94292D57
:100270000D9458420D94EB2C0D94C58D0D940812DD
:100280000D94331C0D94778C0D941B1A0D94FA2C3D
:100290000D94122D0D94D72E0D9466510D94322F7E
:1002A0000D94E12C0D94F22C0D9480720D94B215E6
:1002B0000D9432440D949F740D94B77D0D94762A5D
:1002C0000D94192F0D943A790D942A710D94267D71
:1002D0000D94CF140D940C2A0D94C82E0D944B56EA
:1002E0000D943C220D94DA290D9440220D940E2D8C
:1002F0000D94A32A0D94AF510D940F2F0D94282F18
:100300000D94F62C0D941D2A0D9483510D94D75005
:100310000D94042D0D9425510D9498360D94D050C4
:100320000D94EF2C0D94EB2E0D9434710D94052F3C
:100330000D9485750D94242D0D94D42A0D94322A94
:100340000D944E510D94F5500D941E510D94502F57
:100350000D943C2F0D94E12E0D944F2D0D943D22C4
:100360000D94462F0D94FB2E0D94F32E0D94002D1D
:100370000D941C2D0D945A2F0D94082D0D94162DAF
:100380000D94DB790D94A92C0D9431510D94607D61
:100390000D94CD2E0D94102A0D944B2A0D94152AF0
:1003A0000D94173E0D94202D0D94E52C0D94B8500E
:1003B0000D94C32E4E414E494E495459494E46CD97
:1003C000CCCC3D0AD7233C17B7D13877CC2B32950C
:1003D00095E6241FB14F0A000020410000C84200EA
:1003E000401C4620BCBE4CCA1B0E5AAEC59D745361
:1003F00044207072696E74696E672062797465203A
:100400000050726F73696D20616B7475616C697AED
:10041000756A74652E00506C656173652075706730
:10042000726164652E005679736C61206E6F76611F
:10043000207665727A65206669726D776172653AB9
:10044000004E6577206669726D776172652076650A
:100450007273696F6E20617661696C61626C653A76
:100460000020436F756E7420583A20006120737429
:1004700069736B6E65746520746C616369746B6F0E
:1004800000616E6420707265737320746865206B00
:100490006E6F6200566C6F7A74652066696C616D70
:1004A000656E7400496E736572742066696C616D67
:1004B000656E74004261727661206E656E692063BC
:1004C0006973746100436F6C6F72206E6F74206388
:1004D0006F72726563740046696C616D656E74203D
:1004E0006E657A61766564656E0046696C616D65FE
:1004F0006E74206E6F74206C6F6164656400567951
:100500006D656E61206F6B3F004368616E67656467
:1005100020636F72726563746C793F004369737412
:10052000656E69206261727679004C6F6164696EF4
:100530006720636F6C6F72005A6D656E6120757312
:100540007065736E6121004368616E676520737525
:100550006363657373210045787472756465720016
:100560005679626572746520657874727564657217
:100570003A0043686F6F73652065787472756465BF
:10058000723A0041637469766520457874727564C7
:1005900065723A2000496E76616C696420657874F2
:1005A00072756465720050726F73696D206F746547
:1005B00076726574652069646C65722061206D6176
:1005C0006E75616C6E65206F64737472616E7465B4
:1005D0002066696C616D656E742E00506C65617388
:1005E00065206F70656E2069646C657220616E6451
:1005F0002072656D6F76652066696C616D656E74DD
:10060000206D616E75616C6C792E0042796C6F2083
:10061000767973756E7574692066696C616D656E47
:1006200074752075737065736E653F005761732034
:1006300066696C616D656E7420756E6C6F616420A7
:100640007375636365737366756C3F0050726F7387
:10065000696D2076796A6D65746520757279636855
:100660006C656E652066696C616D656E7400506CBA
:10067000656173652070756C6C206F757420666998
:100680006C616D656E7420696D6D6564696174651A
:100690006C79005679736F7576616D2066696C614F
:1006A0006D656E7400556E6C6F6164696E6720666F
:1006B000696C616D656E740050726F206E61687256
:1006C00061746920747279736B79206120706F6B2B
:1006D0007261636F76616E6920737469736B6E65A6
:1006E000746520746C616369746B6F2E0050726561
:1006F0007373206B6E6F6220746F20707265686513
:100700006174206E6F7A7A6C6520616E6420636F0D
:100710006E74696E75652E0050726F2076797375F0
:100720006E7574692066696C616D656E7475207391
:100730007469736B6E6574652070726F73696D2078
:10074000746C616369746B6F00506C6561736520D4
:10075000707265737320746865206B6E6F622074AD
:100760006F20756E6C6F61642066696C616D656E7B
:1007700074005A204F666673657400556E6B6E6F19
:10078000776E20636F6D6D616E643A2022004D328A
:10079000303020496E76616C6964206578747275BA
:1007A00064657220007A5F6D61783A20007A5F6D2F
:1007B000696E3A2000795F6D696E3A20006F70654E
:1007C0006E0054524947474552454400785F6D6971
:1007D0006E3A20005265706F7274696E6720656EA4
:1007E0006473746F7020737461747573004649523A
:1007F0004D574152455F4E414D453A4D61726C69CE
:100800006E2056312E302E323B20537072696E743A
:1008100065722F6772626C206D61736875702066F7
:100820006F722067656E36204649524D57415245DA
:100830005F55524C3A68747470733A2F2F6769741D
:100840006875622E636F6D2F707275736133642FDC
:1008500050727573612D69332D506C75732F205054
:10086000524F544F434F4C5F56455253494F4E3AA7
:10087000312E30204D414348494E455F5459504533
:100880003A5072757361206933204D4B322E3520FA
:1008900045585452554445525F434F554E543A3192
:1008A00020555549443A30303030303030302D30DA
:1008B0003030302D303030302D303030302D303041
:1008C000303030303030303030300A004F66660023
:1008D000456E642066696C65206C697374004265BE
:1008E00067696E2066696C65206C697374004E6F71
:1008F000206D6F76652E004F626E6F76656E692093
:100900007469736B7500526573756D696E672070DD
:1009100072696E74005761697420666F7220757316
:1009200065722E2E2E004B616C69627261636520C8
:100930005A2073656C68616C612E2053656E736F0D
:1009400072207365706E756C207072696C697320AB
:100950007679736F6B6F2E2043656B616D206E61CE
:100960002072657365742E00426564206C6576653F
:100970006C696E67206661696C65642E2053656ED4
:10098000736F722074726967676572656420746F33
:100990006F20686967682E2057616974696E6720E7
:1009A000666F722072657365742E004B616C6962AC
:1009B00072616365205A2073656C68616C612E20DA
:1009C00053656E736F72206A65206F64706F6A651D
:1009D0006E79206E65626F20707265727573656ED8
:1009E00079206B6162656C2E2043656B616D206EB2
:1009F000612072657365742E00426564206C6576B3
:100A0000656C696E67206661696C65642E2053654C
:100A10006E736F7220646973636F6E6E6563746565
:100A200064206F72206361626C652062726F6B6517
:100A30006E2E2057616974696E6720666F7220722E
:100A4000657365742E004B616C6962726163652029
:100A50005A2073656C68616C612E2053656E736FEC
:100A600072206E657365706E756C2E205A6E6563AC
:100A7000697374656E6120747279736B613F204392
:100A8000656B616D206E612072657365742E004226
:100A90006564206C6576656C696E67206661696C5B
:100AA00065642E2053656E736F72206469646E7482
:100AB00020747269676765722E204465627269737B
:100AC000206F6E206E6F7A7A6C653F205761697473
:100AD000696E6720666F722072657365742E0054AC
:100AE00065706C6F746E69206B616C6962726163B2
:100AF0006520646F6B6F6E63656E612E20506F6B47
:100B0000726163756A746520737469736B656D20B7
:100B1000746C616369746B612E0054656D706572ED
:100B200061747572652063616C6962726174696F6A
:100B30006E2069732066696E69736865642E204350
:100B40006C69636B20746F20636F6E74696E75657A
:100B50002E004F64737472616E7465207469736BD8
:100B60006F767920706C6174207A20686561746298
:100B700065642070726F73696D2E00506C656173CF
:100B8000652072656D6F766520737465656C207382
:100B9000686565742066726F6D2068656174626552
:100BA000642E00537461626C6520616D6269656ECC
:100BB000742074656D706572617475726520323170
:100BC0002D323643206973206E656564656420614B
:100BD000207269676964207374616E642069732090
:100BE00072657175697265642E00536C6565702E4F
:100BF0002E2E000A002F00EF030A002E0044656C21
:100C00006574696F6E206661696C65642C20466945
:100C10006C653A200046696C652064656C65746596
:100C2000643A002E0020573A0020453A00543A001A
:100C300016040104004104260420453A00205A3AD3
:100C40000020593A00610420453A00205A3A002019
:100C5000593A00583A00504944204175746F7475F0
:100C60006E652066696E69736865642120507574CD
:100C700020746865206C617374204B702C204B6964
:100C800020616E64204B6420636F6E7374616E74B8
:100C9000732066726F6D2061626F766520696E7475
:100CA0006F20436F6E66696775726174696F6E2E2F
:100CB0006800504944204175746F74756E652066F4
:100CC00061696C6564212074696D656F75740020BD
:100CD000403A00543A00423A005049442041757469
:100CE0006F74756E65206661696C6564212054655A
:100CF0006D706572617475726520746F6F206869BC
:100D0000676800204B643A2000204B693A2000209D
:100D10004B703A200020436C617373696320504923
:100D20004420002054753A2000204B753A200020C2
:100D30006D61783A2000206D696E3A200020643A97
:100D4000200020626961733A200053657474696EF3
:100D500067732053746F7265640046696C616D65DA
:100D60006E742073657474696E67733A2044697396
:100D700061626C6564002020204D323030204400D8
:100D800046696C616D656E742073657474696E6715
:100D9000733A002020204D323039205300417574C1
:100DA0006F2D526574726163743A20533D30207424
:100DB0006F2064697361626C652C203120746F2030
:100DC000696E74657270726574206578747275648A
:100DD000652D6F6E6C79206D6F7665732061732061
:100DE0007265747261637473206F72207265636FD1
:100DF000766572696573002046002020204D3230F0
:100E0000382053005265636F7665723A20533D4532
:100E100078747261206C656E67746820286D6D2926
:100E200020463A537065656420286D6D2F6D29004A
:100E3000205A002046002020204D32303720530019
:100E4000526574726163743A20533D4C656E6774E9
:100E50006820286D6D2920463A5370656564202806
:100E60006D6D2F6D29205A3A205A4C6966742028DE
:100E70006D6D29002044002049002020204D333092
:100E800034205000504944206865617462656420D4
:100E900073657474696E67733A00204400204900DA
:100EA0002020204D333031205000504944207365BC
:100EB0007474696E67733A00205A0020590020202C
:100EC0004D323036205800486F6D65206F6666736E
:100ED000657420286D6D293A00204500205A0020B5
:100EE000590020580020420020540020204D32306C
:100EF00035205300416476616E63656420766172CB
:100F00006961626C65733A20533D4D696E20666578
:100F100065647261746520286D6D2F73292C2054CF
:100F20003D4D696E2074726176656C2066656564FE
:100F30007261746520286D6D2F73292C20423D6DE0
:100F4000696E696D756D207365676D656E7420746B
:100F5000696D6520286D73292C20583D6D61786975
:100F60006D756D205859206A65726B20286D6D2F44
:100F700073292C20205A3D6D6178696D756D205A5A
:100F8000206A65726B20286D6D2F73292C202045F7
:100F90003D6D6178696D756D2045206A65726B20C5
:100FA000286D6D2F73290020540020204D323034DD
:100FB000205300416363656C65726174696F6E3ABA
:100FC00020533D616363656C65726174696F6E2C5B
:100FD00020543D7265747261637420616363656C53
:100FE00065726174696F6E00204500205A002059B7
:100FF0000020204D3230312058004D6178696D75E8
:101000006D20416363656C65726174696F6E202841
:101010006D6D2F7332293A00204500205A00205967
:101020000020204D3230332058004D6178696D75B5
:101030006D2066656564726174657320286D6D2F1F
:1010400073293A00204500205A0020590020204DE5
:1010500039322058005374657073207065722075A2
:101060006E69743A0081046C04A4049404C504B449
:1010700004EA04D7040905FE042A051C05470538BF
:10108000055705720560052228322900830595055C
:101090005400496E76616C6964205420636F646506
:1010A0002E00556E6B6E6F776E204D20636F6465FA
:1010B0003A202573200A004D323230205325690032
:1010C000DB05A6052C060B066E064C06A506930648
:1010D000ED06B80649071807203A20000072074CB1
:1010E000414E472053454C20464F52434544002231
:1010F000283129007B078E07A507AD07B507BD0777
:10110000C207CC07D407ED074D3131332053002EF1
:10111000002000CC0820423A0020453A00543A0012
:1011200020503A002042403A0020403A00202F0050
:101130003A00205400202F0020423A00202F006F58
:101140006B20543A002569206D696E2C202569209A
:1011500073656300D008DE08EE080609F708150974
:10116000496E76616C6964204D20636F64653A2036
:101170002573200A00556E6B6E6F776E20472063D3
:101180006F64653A202573200A004D6573682062FC
:101190006564206C6576656C696E67206E6F74207F
:1011A0006163746976652E000A002020000A4D658F
:1011B00061737572656420706F696E74733A000AAA
:1011C0005A20736561726368206865696768743A5C
:1011D00020002C004E756D20582C593A2000206DAF
:1011E0006963726F6E732E004D69644C656674207E
:1011F0002068203D00206D6963726F6E732E00526F
:101200006561724C65667420202067203D00206D6A
:101210006963726F6E732E005265617243656E74FE
:1012200072202066203D00206D6963726F6E732E00
:1012300000526561725269676874202065203D0024
:10124000206D6963726F6E732E004D696452696719
:10125000687420202064203D00206D6963726F6EE9
:10126000732E0046726F6E74526967687420632033
:101270003D00206D6963726F6E732E0046726F6E53
:101280007443656E74722062203D00206D69637244
:101290006F6E732E0046726F6E744C6566742020FC
:1012A00061203D00206D6963726F6E730045786345
:1012B00065737369766520626564206C6576656C1C
:1012C000696E6720636F7272656374696F6E3A202E
:1012D0000042656420636F7272656374696F6E208B
:1012E00064617461206E6F742076616C69640A00B9
:1012F00042656420636F7272656374696F6E206407
:101300006174612076616C69640A004D4553485FE1
:10131000484F4D455F5A5F5345415243483A20007C
:101320004D65736820626564206C6576656C696ED6
:1013300067207768696C65206C6F6F702066696ED6
:1013400069736865642E000A00593A200000583A13
:10135000200068092609F909AB098F0A460A3A20D4
:101360006E6F20787920636C616D70696E670A001A
:101370003A20787920636C616D7065642E0A0000F4
:101380002C2063616C6962726174696F6E207A3AB5
:101390002000426564206C6576656C696E672C2060
:1013A000706F696E743A2000005A206A697474651F
:1013B0007220646174612066726F6D205A206361CF
:1013C0006C2E206E6F742076616C69642E0A005A50
:1013D000206A697474657220646174612066726F3A
:1013E0006D205A2063616C2E2076616C69642E0A30
:1013F000004E6F20636C616D70696E6720666F725E
:101400002066697273742063616C696272617469C9
:101410006F6E20706F696E742E0A00466972737465
:101420002063616C6962726174696F6E20706F69AC
:101430006E7420636C616D7065642E0A00473238EB
:10144000205730003A20001A0BDF0A54656D706592
:101450007261747572652063616C6962726174692E
:101460006F6E20646F6E652E20436F6E74696E75AB
:10147000652077697468207072657373696E672080
:10148000746865206B6E6F622E0000205A207368AE
:1014900069667420286D6D293A0050494E444120F8
:1014A00074656D70657261747572653A2000002F05
:1014B0003600537465703A200000205A2073686922
:1014C000667420286D6D293A0050494E44412074BD
:1014D000656D70657261747572653A20002F360013
:1014E0002F362028736B697070656429005374650A
:1014F000703A2000005A45524F3A20000053746160
:1015000072742074656D70657261747572653A20CD
:101510000050494E44412070726F62652063616CD7
:101520006962726174696F6E207374617274007B9A
:101530000B520BA30B473238205730000A00205AB9
:101540003A200020593A200020583A2000EA0B495E
:101550007465726163652000497465726174696FB6
:101560006E2000207A203400206F66203400486C02
:101570006564616D206B616C69627261636E692084
:10158000626F6420706F646C6F7A6B790053656171
:10159000726368696E67206265642063616C69626A
:1015A000726174696F6E20706F696E740000004321
:1015B000616C63756C617465206F66667365742019
:1015C000616E6420736B65772072657475726E69E5
:1015D0006E6720726573756C743A000000292C20C8
:1015E0006572726F723A20002C2000293B207461D2
:1015F000726765743A2028002C2000293B206D6515
:101600006173757265642D636F727265637465646E
:101610003A2028002C20006D656173757265643A6C
:10162000202800706F696E74202300446966666527
:1016300072656E636520616674657220636F727295
:10164000656374696F6E3A2000002C200063656E3C
:101650007465722C2061646A75737465643A200045
:10166000002C20005920766563746F722C20616411
:101670006A75737465643A2000002C200058207647
:101680006563746F722C2061646A75737465643A63
:10169000200000636E74725B315D3A0000636E740B
:1016A000725B305D3A0046696E616C20636E7472E5
:1016B0002076616C7565733A0000000077793A0016
:1016C00000636E74725B315D3A000057656967684C
:1016D000745F793A000077783A0000636E74725B49
:1016E000305D3A00005765696768745F783A0000BA
:1016F00056657279206C6974746C6520736B6577BC
:101700002064657465637465642E204F7274686F1D
:10171000676F6E616C697A696E67207468652061B5
:101720007865732E00004D61782E206572726F729D
:10173000206575636C696469616E3A004D61782E4D
:10174000206572726F7220593A004D61782E2065C3
:1017500072726F7220583A004D61782E2065727255
:101760006F72733A0000002C206572726F722059FC
:101770003A20002C206572726F7220583A20006562
:1017800072726F723A200029002C2000293B2074CD
:1017900061726765743A2028002C2000293B206381
:1017A0006F727265637465643A2028002C20006DA6
:1017B000656173757265643A202800002C2065729B
:1017C000726F72203E206D61782E206572726F728A
:1017D000206575636C696469616E00506F696E7431
:1017E000206E6F74206F6E20666972737420726F42
:1017F00077003A00706F696E742023004572726F33
:101800007220616674657220636F727265637469B9
:101810006F6E3A2000002C200063656E74657220A4
:101820006E65772C20696E7665727465643A200067
:10183000002C20005920766563746F72206E6577E6
:101840002C20696E7665727465643A2000002C2045
:10185000005820766563746F72206E65772C20695E
:101860006E7665727465643A2000002C2000636F08
:101870007272656374696F6E20616E676C65733A2E
:101880002000002C2000636F727265637465642011
:10189000616E676C65733A2000002C2000636F72E4
:1018A00072656374656420782F793A2000002C20DB
:1018B000002C20002C20003B20636F727265637443
:1018C000696F6E20766563746F723A200069746583
:1018D000726174696F6E3A200000292C2065727263
:1018E0006F723A20002C2000293B207461726765DA
:1018F000743A2028002C2000206D65617375726594
:10190000643A202800706F696E74202300002C2038
:101910000063656E7465722C20696E697469616C10
:101920003A2000002C20005920766563746F722CD9
:1019300020696E697469616C3A2000002C2000589F
:1019400020766563746F722C20696E697469616CAE
:101950003A200063616C63756C617465206D61632E
:1019600068696E6520736B657720616E64206F66B1
:1019700066736574204C5300000040410000004035
:101980000000E44200000040000057430000004017
:10199000000057430000C4420000E4420000C4427B
:1019A000000040410000C4420000404100004243AA
:1019B0000000E4420000424300005743000042435D
:1019C000536176696E67206265642063616C696249
:1019D000726174696F6E20766563746F72732074C0
:1019E0006F20454550524F4D0050657270656E64D2
:1019F0006963756C6172697479005A65726F2070E1
:101A00006F696E7420636F7272656374696F6E3A8A
:101A1000005920766563746F72206C656E67746818
:101A20003A005820766563746F72206C656E677437
:101A3000683A00203C20005741524E494E473A2018
:101A400046726F6E7420706F696E74206E6F7420B2
:101A5000726561636861626C652E205920636F6FE7
:101A60007264696E6174653A000070745B315D3A4E
:101A70000070745B305D3A00004D6561737572658E
:101A8000643A000063757272656E745F706F73699B
:101A900074696F6E5B5A5F415849535D3A00006349
:101AA000757272656E745F706F736974696F6E5B67
:101AB000595F415849535D3A000063757272656E13
:101AC000745F706F736974696F6E5B585F415849DA
:101AD000535D3A00000040410000004000005C43BC
:101AE0000000004000005C43000042430000404111
:101AF00000004243417420592D3400417420593074
:101B00000058154F15681563158D156E1500636E19
:101B100074725B315D3A0000636E74725B305D3AE3
:101B200000007665635F795B315D3A00007665633E
:101B30005F795B305D3A00007665635F785B315DAD
:101B40003A00007665635F785B305D3A0056656306
:101B5000746F72733A2000497465726174696F6EB4
:101B60003A20004E656E69207A6B616C6962726F13
:101B700076616E6120767A64616C656E6F73742035
:101B8000747279736B79206F64207469736B6F76EC
:101B90006520706F646C6F7A6B792E20506F737450
:101BA0007570756A74652070726F73696D20706FDF
:101BB000646C65206D616E75616C752C206B617055
:101BC00069746F6C61205A6163696E616D652C2068
:101BD0006F64737461766563204E617374617665BA
:101BE0006E69207072766E69207672737476792EC3
:101BF0000044697374616E6365206265747765651E
:101C00006E20746970206F6620746865206E6F7A2C
:101C10007A6C6520616E642074686520626564205A
:101C20007375726661636520686173206E6F7420DE
:101C30006265656E20736574207965742E20506C22
:101C40006561736520666F6C6C6F772074686520C2
:101C50006D616E75616C2C206368617074657220B3
:101C600046697273742073746570732C2073656396
:101C700074696F6E204669727374206C6179657245
:101C80002063616C6962726174696F6E2E005469C1
:101C9000736B61726E61206E6562796C61206A653A
:101CA000737465207A6B616C6962726F76616E61C4
:101CB0002E20506F73747570756A74652070726F22
:101CC00073696D20706F646C65206D616E75616CF9
:101CD000752C206B617069746F6C61205A61636947
:101CE0006E616D652C206F6473746176656320503E
:101CF0006F73747570206B616C6962726163652EBD
:101D0000005072696E74657220686173206E6F7422
:101D1000206265656E2063616C69627261746564DE
:101D2000207965742E20506C6561736520666F6C38
:101D30006C6F7720746865206D616E75616C2C2006
:101D4000636861707465722046697273742073747D
:101D50006570732C2073656374696F6E2043616CCA
:101D60006962726174696F6E20666C6F772E004EC7
:101D700065706C61746E6520686F646E6F74792035
:101D80006E6173746176656E692E2042756465209C
:101D9000706F757A69746F20767963686F7A6920DD
:101DA0005049442C20457374657073206174642E0F
:101DB000004F6C642073657474696E677320666F7E
:101DC000756E642E2044656661756C7420504944BC
:101DD0002C20457374657073206574632E207769B9
:101DE0006C6C206265207365742E005661726F768C
:101DF000616E693A20646F736C6F206B65207A6D39
:101E0000656E652074797075207469736B61726E8C
:101E1000792061206D6F74686572626F617264759C
:101E20002E005761726E696E673A20626F74682087
:101E30007072696E746572207479706520616E6469
:101E4000206D6F74686572626F617264207479705E
:101E500065206368616E6765642E005661726F76F7
:101E6000616E693A20646F736C6F206B65207A6DC8
:101E7000656E652074797075207469736B61726E1C
:101E8000792E005761726E696E673A207072696EC2
:101E90007465722074797065206368616E6765642B
:101EA0002E005661726F76616E693A20646F736CB2
:101EB0006F206B65207A6D656E6520747970752072
:101EC0006D6F74686572626F617264752E00576120
:101ED000726E696E673A206D6F74686572626F61C9
:101EE00072642074797065206368616E6765642E22
:101EF000002020506C616E6E657242756666657278
:101F000042797465733A20002046726565204D65FC
:101F10006D6F72793A2000207C20417574686F7271
:101F20003A2000204C6173742055706461746564BC
:101F30003A200020536F6674776172652052657392
:101F4000657400205761746368646F67205265731D
:101F50006574002042726F776E206F757420526531
:101F6000736574002045787465726E616C205265EB
:101F700073657400506F7765725570006572726F8B
:101F8000722077726974696E6720746F2066696C5D
:101F90006500656E6473746F7073206869743A20AD
:101FA00000446F6E6520736176696E672066696CA8
:101FB000652E006F6B00202D20496E76616C696480
:101FC000206578747275646572206E756D626572D5
:101FD0002021001B5B324A1B5B313B31484F726949
:101FE00067696E616C2050727573612069331B5B89
:101FF000323B33485072757361205265736561726C
:10200000636800466163746F72792052455345548A
:102010000050525553413344465700F11B631B0196
:102020001D8E1CB11D6F1D221EEB1D831E5B1ECE5F
:102030001EA21EF11E081F41707220203420323073
:10204000313800436F6D70696C65643A2000283345
:10205000642D677573736E65722C482900171F41D4
:10206000707220203420323031382031303A323210
:102070003A343000231F331F431F531F641F741F44
:1020800020332E312E332D3330390A0073746172B0
:1020900074002055706C6F616420696E2070726FDF
:1020A0006772657373007C1F5A00205A3A0059000A
:1020B00020593A00580020583A00921F4D363030CF
:1020C000004731204533204632303000473120452B
:1020D0002D33204632303000A11FB31F4D3239005E
:1020E0001000C90210012C014001220170011801E9
:1020F000B0010E01F00104015002FA00B002F0003C
:102100003003E600D003DC009004D2007005C80064
:10211000A006BE000008B400B009AA00D00BA000C1
:10212000600E960060118C00001582002019780066
:10213000C01D6E00A0226400B0275A00902C5000F1
:1021400000314600E0343C0010383200903A28005C
:10215000603C1E00A03D1400803E0A00203F0000AD
:1021600045303A20005A3A2000593A2000583A2087
:10217000004D53312C4D53322050696E730A004587
:1021800072723A205052494E542046414E204552D8
:10219000524F52005072696E742066616E207370E7
:1021A000656564206973206C6F776572207468655B
:1021B0006E206578706563746564004572723A20BC
:1021C000455854522E2046414E204552524F5200FF
:1021D00045787472756465722066616E20737065EF
:1021E0006564206973206C6F776572207468656E12
:1021F000206578706563746564002F2F20616374B7
:10220000696F6E3A70617573650070012C01900101
:102210002701B0012201C0011D01F00118011002C7
:10222000130130020E016002090190020401C00294
:10223000FF000003FA004003F5008003F000D00324
:10224000EB002004E6007004E100E004DC0040053F
:10225000D700C005D2004006CD00D006C8008007D8
:10226000C3003008BE00F008B900C009B400B00ACD
:10227000AF00B00BAA00D00CA500000EA000500FBC
:102280009B00C01096005012910000148C00C015E5
:102290008700B0178200B0197D00D01B7800001EA7
:1022A000730040206E0090226900F02464004027F3
:1022B0005F0090295A00E02B5500102E500020306E
:1022C0004B0010324600E033410090353C0010379F
:1022D000370070383200A0392D00B03A2800A03BFA
:1022E0002300603C1E00103D1900903D1400103E7C
:1022F0000F00703E0A00C03E0500003F000020486D
:102300004F54454E4420544845524D414C2052555F
:102310004E415741590020484541544245442054BC
:102320004845524D414C2052554E41574159005459
:102330004845524D414C2052554E4157415900425B
:10234000454420544845524D414C2052554E41572A
:1023500041590020544845524D414C2052554E4160
:102360005741592028205052454845415420484F54
:1023700054454E44290020544845524D414C20526A
:10238000554E415741592028205052454845415407
:102390002048454154424544290050524548454152
:1023A00054204552524F5200424544205052454815
:1023B000454154204552524F52004572723A204DC9
:1023C000415854454D50003A204578747275646503
:1023D00072207377697463686564206F66662E2067
:1023E0004D415854454D5020747269676765726558
:1023F000642021004572723A204D415854454D5099
:10240000204245440054656D706572617475726553
:1024100020686561746564206265642073776974FF
:1024200063686564206F66662E204D415854454DA3
:102430005020747269676765726564202100457277
:10244000723A204D494E54454D50003A204578741B
:102450007275646572207377697463686564206F50
:1024600066662E204D494E54454D50207472696762
:1024700067657265642021004572723A204D494EAD
:1024800054454D50204245440054656D706572615D
:102490007475726520686561746564206265642086
:1024A0007377697463686564206F66662E204D4992
:1024B0004E54454D5020747269676765726564209B
:1024C000210020746F6F206C6F6E672065787472C6
:1024D0007573696F6E2070726576656E74656400E1
:1024E00020636F6C6420657874727573696F6E20F9
:1024F00070726576656E74656400537465707261A0
:10250000746520746F6F20686967683A2000C22480
:10251000E024FA2424F4D43050C38E20C2A2401701
:10252000828B7011127A910D816CD90AA861E10831
:10253000C7586607615143061E4B5D05C145A70498
:102540001A411104093D9803713931034036DB0209
:1025500065339102D4305402802E1D02632CEE01AB
:10256000752AC501B028A001102781018F256401BB
:102570002B244B01E0223401AC211F018D200D01E1
:10258000801FFC00841EED00971DDF00B81CD200E8
:10259000E61BC600201BBC00641AB200B219A800DA
:1025A0000A19A0006A189900D117910040178B00F2
:1025B000B516840031167E00B31579003A15730004
:1025C000C7146F0058146A00EE1366008813630086
:1025D00025135E00C7125B006C12570015125400E1
:1025E000C111510070114F0021114B00D61049004C
:1025F0008D1047004610440002104200C00F4000FA
:10260000800F3E00420F3C00060F3B00CB0E38000F
:10261000930E37005C0E3500270E3400F30D3200A8
:10262000C10D3100900D3000600D2E00320D2D00D7
:10263000050D2C00D90C2B00AE0C2900850C2900AF
:102640005C0C2700350C27000E0C2600E80B24003C
:10265000C40B2400A00B23007D0B23005A0B210088
:10266000390B2100180B2000F80A1F00D90A1E00A0
:10267000BB0A1E009D0A1D00800A1D00630A1C0083
:10268000470A1B002C0A1B00110A1A00F7091A003E
:10269000DD091900C4091900AB09190092091700D6
:1026A0007B091800630917004C091600360916004B
:1026B000200916000A091500F5081500E0081400A5
:1026C000CC081400B8081400A408140090081300E3
:1026D0007D0812006B08130058081200460812000B
:1026E000340811002308110012081100010811001C
:1026F000F0071000E0071000D0071000C00710001E
:10270000B0070F00A107100091070E0083070F000C
:1027100074070F0065070E0057070E0049070E00EB
:102720003B070D002E070E0020070D0013070D00BC
:1027300006070D00F9060C00ED060D00E0060C0082
:10274000D4060C00C8060C00BC060C00B0060C0039
:10275000A4060B0099060C008D060B0082060B00E8
:1027600077060B006C060B0061060A0057060B008B
:102770004C060A0042060A0038060A002E060A0025
:1027800024060A001A060A001006090007060A00B5
:10279000FD050900F4050900EB050900E205090043
:1027A000D9050900D0050900C7050900BE050900C3
:1027B000B5050800AD050800A50509009C05080041
:1027C000940508008C050800840508007C050800B5
:1027D000740508006C050700650508005D05070025
:1027E000560508004E05070047050700400508008C
:1027F00038050700310507002A05070023050700F3
:102800001C050600160507000F0507000805060051
:1028100002050700FB040600F5040700EE040600AD
:10282000E8040600E2040700DB040600D504060005
:10283000CF040600C9040600C3040600BD04060058
:10284000B7040600B1040500AC040600A6040600A7
:10285000A00405009B0406009504050090040600F2
:102860008A04050085040500800406007A0405003A
:1028700075040500700405006B040500660405007E
:10288000610405005C0405005704050052040500BE
:102890004D04050048040500430405003E040400FF
:1028A0003A04050035040500300404002C0405003A
:1028B00027040400230405001E0404001A04040075
:1028C00016040500110404000D04040009040500A9
:1028D0000404040000040400FC030400F8030400E2
:1028E000F4030400F0030400EC030400E803040014
:1028F000E4030400E0030400DC030400D803040044
:10290000D4030400D0030400CC030400C803030074
:10291000C503030024F404D9201BC40C5C0E9804E6
:10292000C4095F0265077101F405F900FB04B300F7
:1029300048048700C103690058035500030345009C
:10294000BE023A008402310053022A002902250007
:1029500004022000E4011C00C8011900AF011700A7
:10296000980114008401130071011000610110002E
:1029700051010E0043010D0036010B002B010B002D
:1029800020010B00150109000C01090003010800DA
:10299000FB000800F3000800EB000700E40006005D
:1029A000DE000600D8000600D2000600CC000500BC
:1029B000C7000500C2000500BD000400B900040006
:1029C000B5000400B1000400AD000400A90004003B
:1029D000A5000300A20003009F0004009B00030069
:1029E000980003009500020093000300900003008C
:1029F0008D0002008B0003008800020086000200A8
:102A000084000300810002007F0002007D000200BC
:102A10007B000200790002007700010076000200CE
:102A20007400020072000100710002006F000200D9
:102A30006D0001006C0002006A00010069000200E4
:102A400067000100660001006500010064000200EB
:102A50006200010061000100600001005F000200EF
:102A60005D0001005C0001005B0001005A000100F4
:102A700059000100580001005700010056000100F4
:102A800055000100540001005300000053000100F4
:102A90005200010051000100500001004F000100F0
:102AA0004E0000004E0001004D0001004C000100EE
:102AB0004B0000004B0001004A00010049000100EA
:102AC00048000000480001004700010046000000E7
:102AD00046000100450000004500010044000100DF
:102AE00043000000430001004200000042000100DA
:102AF0004100000041000100400001003F000000D3
:102B00003F0001003E0000003E0001003D000000CB
:102B10003D0001003C0000003C0000003C000100C2
:102B20003B0000003B0001003A0000003A000100B9
:102B300039000000390001003800000038000000B2
:102B400038000100370000003700010036000000A7
:102B5000360000003600010035000000350000009E
:102B60003500010034000000340000003400010092
:102B70003300000033000000330001003200000089
:102B8000320000003200010031000000310000007E
:102B90003100010030000000300000003000010072
:102BA0002F0000002F0000002F0000002F00010068
:102BB0002E0000002E0000002E0001002D0000005D
:102BC0002D0000002D0000002D0001002C00000051
:102BD0002C0000002C0000002C0001002B00000045
:102BE0002B0000002B0000002B0001002A00000039
:102BF0002A0000002A0000002A000100290000002D
:102C0000290000002900000029000000290001001F
:102C10002800000028000000280000002800000014
:102C20002800010027000000270000002700000006
:102C300027000000270001002600000026000000F9
:102C400026000000260000002600010025000000EC
:102C500025000000250000002500000025000000E0
:102C600025000100240000002400000024000000D2
:102C700024000000240001002300000023000000C5
:102C800023000000230000002300000023000000B8
:102C900023000100220000002200000022000000AA
:102CA000220000002200000022000100210000009C
:102CB0002100000021000000210000002100000090
:102CC0002100000021000100200000002000000081
:102CD0002000000020000000200000002000000074
:102CE00020000000200001001F0000001F00000065
:102CF0001F0000001F0000001F0000001F00000058
:102D00001F0001001E0000001E0000001E00000049
:102D10001E000000207A203900206F662039004D07
:102D20006572696D207265666572656E636E692095
:102D30007679736B75206B616C69627261636E6921
:102D4000686F20626F6475004D6561737572696E9E
:102D500067207265666572656E6365206865696780
:102D60006874206F662063616C6962726174696F58
:102D70006E20706F696E740046696E616C20706FB2
:102D8000736974696F6E004156472043555252452E
:102D90004E5420504F534954494F4E20593A200029
:102DA0004156472043555252454E5420504F5349A7
:102DB00054494F4E20583A200043555252454E54E4
:102DC00020504F534954494F4E20593A2000435503
:102DD0005252454E5420504F534954494F4E20585B
:102DE0003A2000495445524154494F4E3A2000324E
:102DF000202D2063757272656E745F706F736974D5
:102E0000696F6E5B5A5F415849535D3A20007A5FA3
:102E10006572726F723A200059207365617263683F
:102E2000696E672072616469757320686967686597
:102E300072207468616E20585F4D41582E20436C9B
:102E4000616D70696E672077617320646F6E652EA7
:102E5000005920736561726368696E6720726164EE
:102E6000697573206C6F776572207468616E205984
:102E70005F4D494E2E20436C616D70696E672077FF
:102E8000617320646F6E652E0058207365617263F4
:102E900068696E6720726164697573206869676824
:102EA0006572207468616E20585F4D41582E204332
:102EB0006C616D70696E672077617320646F6E65F9
:102EC0002E005820736561726368696E67207261B5
:102ED00064697573206C6F776572207468616E2009
:102EE000585F4D494E2E20436C616D70696E6720AE
:102EF00077617320646F6E652E00457872656D652D
:102F0000207370616E206F6620746865205A207689
:102F1000616C7565732100192D142D482D1F2D0628
:102F20002833D036C23E013F154132423B43F24482
:102F30003B45F24622473B48F2493B4AF0589859F4
:102F40000C5A085B0C5C086110679B6E227107725B
:102F500008FF095A0D000EFF19045E0820642B6D4E
:102F6000322FFF656E717565696E67202200446FB0
:102F70006E65207072696E74696E672066696C6533
:102F80000053544F505045442E20005072696E74C7
:102F900065722073746F7070656420647565207449
:102FA0006F206572726F72732E2046697820746884
:102FB00065206572726F7220616E64207573652082
:102FC0004D39393920746F20726573746172742EB3
:102FD000202854656D70657261747572652069731F
:102FE0002072657365742E205365742069742061A6
:102FF000667465722072657374617274696E672994
:10300000004E6F204C696E65204E756D62657220B2
:103010007769746820636865636B73756D2C204CE9
:10302000617374204C696E653A20004E6F204368CE
:1030300065636B73756D2077697468206C696E6564
:10304000206E756D6265722C204C617374204C6922
:103050006E653A2000636865636B73756D206D69FA
:10306000736D617463682C204C617374204C696EBD
:10307000653A20004C696E65204E756D6265722060
:103080006973206E6F74204C617374204C696E6597
:10309000204E756D6265722B312C204C617374204B
:1030A0004C696E653A200022206661696C65643A5D
:1030B000204275666665722066756C6C2100220080
:1030C000632F256920686F757273202569206D69EB
:1030D0006E75746573006E2F54494D454F55543AC3
:1030E00000812F8B2F01302B30553074304D313112
:1030F000300046756C6C20525820427566666572C9
:10310000006F6B0A0041646A757374696E67205AB8
:10311000004D692E4C6566742020685B756D5D00FE
:1031200052652E4C6566742020675B756D5D00529C
:10313000652E43656E747220665B756D5D00526529
:103140002E526967687420655B756D5D004D692E50
:10315000526967687420645B756D5D0046722E521B
:103160006967687420635B756D5D0046722E436508
:103170006E747220625B756D5D0046722E4C6566E2
:10318000742020615B756D5D004E617374617674AF
:1031900065207465706C6F74753A005365742074A3
:1031A000656D70657261747572653A0059005A00F8
:1031B0000531113120312F313E314D315C316B31D0
:1031C0007A319B31893120003E003E0020003E00D4
:1031D0003E005A30005A3100593000593100583001
:1031E00000583100456E642073746F7073206469F9
:1031F0006167005A6B616C6962726F76617400433B
:10320000616C696272617465004E656A64726976A8
:1032100065207A61766564746520504C412066694A
:103220006C616D656E742070726F73696D2E0050E5
:103230006C65617365206C6F616420504C41206641
:10324000696C616D656E742066697273742E004AD4
:103250006520504C412066696C616D656E74207A02
:1032600061766564656E3F00497320504C4120666D
:10327000696C616D656E74206C6F616465643F009C
:1032800050726F73696D207A617665647465205041
:103290004C412066696C616D656E74206120706FB1
:1032A000207465206F626E6F7674652057697A614D
:1032B00072646120737469736B6E7574696D2072CA
:1032C0006573657420746C616369746B612E005062
:1032D0006C65617365206C6F616420504C412066A1
:1032E000696C616D656E7420616E64207468656ED2
:1032F00020726573756D652057697A61726420620A
:1033000079207265626F6F74696E672074686520DA
:103310007072696E7465722E0050726F73696D20E1
:103320006E61686C65646E65746520646F206D61A4
:103330006E75616C752061206F70726176746520A6
:1033400070726F626C656D2E20506F207465206FF7
:10335000626E6F7674652057697A6172646120725B
:1033600065626F6F746F76616E696D207469736BDF
:1033700061726E792E00506C6561736520636865BB
:10338000636B206F75722068616E64626F6F6B2073
:10339000616E6420666978207468652070726F625F
:1033A0006C656D2E205468656E20726573756D6551
:1033B000207468652057697A61726420627920728E
:1033C00065626F6F74696E672074686520707269DA
:1033D0006E7465722E00567365206A6520686F747E
:1033E0006F766F2E00416C6C20697320646F6E6580
:1033F0002E204861707079207072696E74696E67F2
:10340000210057697A61726461206D757A6574650F
:10341000206B64796B6F6C6976207A6E6F7675209D
:1034200073707573746974207A206D656E752043AE
:10343000616C6962726174696F6E202D3E205769FC
:103440007A61726400596F752063616E20616C77D8
:1034500061797320726573756D6520746865205796
:10346000697A6172642066726F6D2043616C696273
:10347000726174696F6E202D3E2057697A617264A3
:103480002E0050726F73696D206F63697374657479
:103490006520686561746265642061207374697376
:1034A0006B6E65746520746C616369746B6F2E005C
:1034B000506C6561736520636C65616E2068656141
:1034C0007462656420616E64207468656E20707239
:1034D00065737320746865206B6E6F622E0043689D
:1034E00063657465206F70616B6F76617420706FB7
:1034F000736C65646E69206B726F6B206120706FF6
:103500007A6D656E697420767A64616C656E6F732E
:1035100074206D657A6920747279736B6F752061A0
:1035200020686561746265643F00446F20796F753F
:103530002077616E7420746F2072657065617420ED
:103540006C617374207374657020746F2072656190
:10355000646A7573742064697374616E6365206254
:1035600065747765656E206E6F7A7A6C6520616E22
:103570006420686561746265643F005A61636E75BA
:10358000207469736B6E6F7574206C696E6B752037
:10359000612056792062756465746520706F73745C
:1035A00075706E6520736E697A6F766174207472BF
:1035B00079736B75206F746163656E696D20746CCF
:1035C000616369746B6120646F6B7564206E656400
:1035D0006F7361686E657465206F7074696D616C7E
:1035E0006E69207679736B792E2050726F686C65E6
:1035F000646E657465207369206F6272617A6B799D
:103600002076206E617369207072697275636365DC
:103610002076206B617069746F6C65204B616C69FA
:10362000627261636500492077696C6C2073746114
:10363000727420746F207072696E74206C696E658C
:1036400020616E6420796F752077696C6C206772D9
:10365000616475616C6C79206C6F77657220746839
:1036600065206E6F7A7A6C6520627920726F746162
:1036700074696E6720746865206B6E6F622C2075AC
:103680006E74696C20796F75207265616368206F54
:103690007074696D616C206865696768742E204379
:1036A0006865636B20746865207069637475726502
:1036B0007320696E206F75722068616E64626F6F2F
:1036C0006B20696E20636861707465722043616C61
:1036D0006962726174696F6E2E004E796E69207A2C
:1036E0006B616C696272756A6920767A64616C6577
:1036F0006E6F7374206D657A69206B6F6E63656D94
:1037000020747279736B79206120706F76726368B0
:10371000656D2068656174626564752E004E6F7713
:1037200020492077696C6C2063616C6962726174F6
:10373000652064697374616E636520626574776582
:10374000656E20746970206F6620746865206E6FE6
:103750007A7A6C6520616E64206865617462656464
:1037600020737572666163652E004A6520746F2050
:10377000504C412066696C616D656E743F00497301
:1037800020697420504C412066696C616D656E74CF
:103790003F005A61766164656E692066696C616D8F
:1037A000656E7475004C6F6164696E672066696C44
:1037B000616D656E740050726F73696D20766C6F09
:1037C0007A746520504C412066696C616D656E7439
:1037D00020646F206578747275646572752C207032
:1037E0006F20746520737469736B6E6574652074E3
:1037F0006C616369746B6F2070726F207A6176659B
:1038000064656E692066696C616D656E74752E0005
:10381000506C6561736520696E7365727420504CDD
:10382000412066696C616D656E7420746F207468E8
:10383000652065787472756465722C207468656E95
:10384000207072657373206B6E6F6220746F206CD2
:103850006F61642069742E005072656465687269D6
:1038600076616D20747279736B752E2050726F7350
:10387000696D2063656B656A74652E0050726568BA
:10388000656174696E67206E6F7A7A6C652E205060
:103890006C6561736520776169742E004E796E697D
:1038A0002070726564656872656A692074727973E4
:1038B0006B752070726F20504C412E004E6F772038
:1038C000492077696C6C2070726568656174206E40
:1038D0006F7A7A6C6520666F7220504C412E004AD8
:1038E000652066696C616D656E74207A61766564C9
:1038F000656E3F0049732066696C616D656E74206A
:103900006C6F616465643F00556D697374657465BF
:103910002070726F73696D207469736B6F76792094
:10392000706C6174206E612068656174626564000A
:10393000506C6561736520706C616365207374659C
:10394000656C207368656574206F6E2068656174AE
:103950006265642E004A65207469736B6F76792006
:10396000706C6174206E6120686561746265643F8B
:1039700000497320737465656C20736865657420F5
:103980006F6E20686561746265643F004E796E6990
:103990002070726F76656475207A206B616C696245
:1039A000726163692E00492077696C6C2072756EB4
:1039B000207A2063616C6962726174696F6E206E37
:1039C0006F772E004E796E692070726F7665647520
:1039D0002078797A206B616C6962726163692E204C
:1039E0005A616265726520746F20707269626C69D9
:1039F0007A6E65203132206D696E2E00492077691C
:103A00006C6C2072756E2078797A2063616C6962C3
:103A1000726174696F6E206E6F772E204974207703
:103A2000696C6C2074616B6520617070726F782EA8
:103A3000203132206D696E732E004E656A647269A2
:103A40007620706F6D6F63692073656C6674657343
:103A50007475207A6B6F6E746F6C756A69206E6511
:103A60006A63617374656A73692063687962792037
:103A7000767A6E696B616A69636920707269207316
:103A80006573746176656E69207469736B61726EBB
:103A9000792E0046697273742C20492077696C6C0A
:103AA0002072756E207468652073656C667465732A
:103AB0007420746F20636865636B206D6F7374206E
:103AC000636F6D6D6F6E20617373656D626C7920CD
:103AD00070726F626C656D732E00446F6272792034
:103AE00064656E2C206A73656D2076617365207441
:103AF00069736B61726E61204F726967696E616C88
:103B00002050727573612069332E20436863657499
:103B100065206162796368205661732070726F76E8
:103B200065646C61206B616C69627261636E696D62
:103B30002070726F636573656D3F0048692C204982
:103B400020616D20796F7572204F726967696E61AF
:103B50006C205072757361206933207072696E74C5
:103B600065722E20576F756C6420796F75206C69B3
:103B70006B65206D6520746F2067756964652079B9
:103B80006F75207468726F7567682074686520733C
:103B9000657475702070726F636573733F00547243
:103BA0006964656E692020205B5A61646E655D0002
:103BB000536F72743A2020202020205B4E6F6E6578
:103BC0005D0054726964656E69205B41626563657E
:103BD00064615D00536F72743A20205B416C7068C1
:103BE000616265745D0054726964656E69202020AD
:103BF00020205B4361735D00536F72743A20202074
:103C00002020205B54696D655D0053442063617220
:103C10006420205B6E6F726D616C5D0053442063A5
:103C2000617264205B466C73684169725D0056790D
:103C3000626572206A617A796B610053656C6563B5
:103C400074206C616E6775616765005465706C2ED9
:103C5000206B616C2E20205B7A61705D0054656D75
:103C6000702E2063616C2E2020205B6F6E5D0054EF
:103C700065706C2E206B616C2E20205B7679705DF8
:103C80000054656D702E2063616C2E20205B6F6682
:103C9000665D004B6F6E74722E2076656E742E5BBF
:103CA0007679705D0046616E7320636865636B2092
:103CB000205B6F66665D004B6F6E74722E207665BA
:103CC0006E742E5B7A61705D0046616E732063686E
:103CD00065636B2020205B6F6E5D00462E20617552
:103CE000746F7A61762E205B7679705D00462E20A7
:103CF0006175746F6C6F6164205B6F66665D004612
:103D00002E206175746F7A61762E205B7A61705D0A
:103D100000462E206175746F6C6F616420205B6FAC
:103D20006E5D00462E206175746F7A61762E205B81
:103D30004E2F415D00462E206175746F6C6F61647B
:103D4000205B4E2F415D0046696C2E2073656E7AB4
:103D50006F72205B4E2F415D0046696C2E207365AB
:103D60006E736F72205B4E2F415D005679706E6FDF
:103D70007574206D6F746F72790044697361626C41
:103D80006520737465707065727300506F73756E23
:103D90006F7574206F7375004D6F7665206178695B
:103DA00073005465706C6F74610054656D7065725A
:103DB0006174757265004D3435205A00FF31F3315E
:103DC000473736002F32093268324F32CF328032D5
:103DD00076331933E533D633453402345374617482
:103DE000653A2000B03482342A35DE3426367B35FD
:103DF0001D37DA367E376A37A53792371038B6372F
:103E00007C385838BC389C38F438DF3830390839B9
:103E100071395539A6398C39FC39C439933A3A3A53
:103E20003B3BDA3A4739390044697361626C65207B
:103E30006661726D206D6F64653F00B03B9E3BD440
:103E40003BC23BF83BE63B0A3C1C3C3B3C2E3C4621
:103E500061726D206E756D626572005D3C4B3C81D8
:103E60003C6F3CA53C933CC93CB73CED3CDB3C1172
:103E70003DFF3C44697361626C65206661726D2030
:103E80006D6F646500353D233D593D473D4D3834E8
:103E9000007A3D6B3D983D8B3DAA3DA23D506F752C
:103EA0007A6520616B7475616C6E6900437572721E
:103EB000656E7400506F757A697465206265686517
:103EC0006D207469736B7500557365642064757239
:103ED000696E67207072696E740056736500416C7C
:103EE0006C00504944206B616C2E20756B6F6E63C3
:103EF000656E61005049442063616C2E2066696ED6
:103F0000697368656400504944206B616C2E202001
:103F100020202020202020202000504944206361C0
:103F20006C2E2020202020202020202020004D3119
:103F30003137204B616C2E207072766E692076725C
:103F400073747679004D313137204669727374206D
:103F50006C617965722063616C2E004F626E6F76C2
:103F60006F76616E69207469736B75005265737545
:103F70006D696E67207072696E74005469736B208E
:103F8000706F7A6173746176656E005072696E74D9
:103F90002070617573656400AC3E9D3EC83EB43EC2
:103FA000DE3EDA3E496E76616C69642050494420F9
:103FB00063616C2E20726573756C74732E204E6F66
:103FC000742073746F72656420746F20454550527D
:103FD0004F4D2E004D35303000F43EE23E1A3F0684
:103FE0003F4731205A31352046313530300047398E
:103FF0003100473120583530205931393020453093
:1040000020463730303000473930004D37303200ED
:104010004D3730322043004D3730322055004D3778
:104020003032004731205A313520463135303000AA
:104030004739310047312058353020593139302047
:104040004530204637303030004D38330047393066
:10405000004D3834004D313034205330004D383469
:104060000047312058313020593138302046343023
:104070003030004731205A31302046313330302E35
:10408000303030004D313430205330004D31303439
:10409000205330004D31303700473120452D302E30
:1040A00030373530302046323130302E30303030FD
:1040B0003000473120583530205935352045332ED2
:1040C00036323737330047312058323030205935B7
:1040D000352045302E3439333836004731205832B8
:1040E0003030205937352045332E363237373300BC
:1040F000473120583530205937352045302E343956
:10410000333836004731205835302059393520456D
:10411000332E363237373300473120583230302093
:104120005939352045302E3439333836004731205F
:104130005832303020593131352045332E36323720
:10414000373300473120583530205931313520453B
:10415000302E343933383600473120583530205925
:104160003133352045332E3632373733004731204F
:104170005832303020593133352045302E363631E3
:10418000373400473120583230302059313535200E
:1041900045322E36323737330047312058313030F0
:1041A00020593135352045320047312058373520E8
:1041B000593135352045322E3500473120463130D2
:1041C00038300047312058353020593135350047D7
:1041D00031204634303030004D32303420533130CD
:1041E0003030004731205A302E31353020463732BA
:1041F00030302E30303000473120452D312E3530D3
:104200003030302046323130302E303030303000D7
:104210004D383300473930004732310047393220BA
:1042200045302E3000473120583130302E30204577
:1042300031322E352046313030302E30004731209B
:104240005836302E302045392E302046313030302F
:104250002E30004739322045302E300047323800AA
:1042600047383700453F2E3F4D31303920533231EA
:1042700035004D31393020533630004D3134302047
:10428000533630004D3130342053323135004D310A
:104290003037006C3F5B3F473930004731204531B4
:1042A000004D3832004731204531004D3833004D44
:1042B00031303620532564004D323230205325648E
:1042C000008B3F7B3F4D3234004D3233202573004D
:1042D0006175746F25692E670053746F7265642071
:1042E00073657474696E677320726574726965763C
:1042F0006564006563686F3A004D32323120496E63
:1043000076616C69642065787472756465722000EA
:104310004D32313820496E76616C6964206578745D
:10432000727564657220004D31303920496E7661B6
:104330006C696420657874727564657220004D3113
:10434000303520496E76616C6964206578747275C9
:1043500064657220004D31303420496E76616C699D
:10436000642065787472756465722000F9421043A8
:1043700027433E4355435A206C6976652061646A41
:10438000757374206F7574206F662072616E676537
:104390002E2053657474696E6720746F20302E2050
:1043A000436C69636B20746F20636F6E74696E7504
:1043B000652E005A206C6976652061646A75737495
:1043C000206F7574206F662072616E67652E2053B2
:1043D000657474696E6720746F20300020423A0063
:1043E00020453A00543A00627573793A207061753D
:1043F00073656420666F7220696E707574006275F3
:1044000073793A2070617573656420666F722075E8
:1044100073657200627573793A2070726F636573A9
:1044200073696E670000002110422063308440A54C
:1044300050C660E770088129914AA16BB18CC1AD6B
:10444000D1CEE1EFF13112100273325222B5529403
:1044500042F772D662399318837BB35AA3BDD39CBB
:10446000C3FFF3DEE36224433420040114E664C78F
:1044700074A44485546AA54BB528850995EEE5CF0B
:10448000F5ACC58DD55336722611163006D776F6A3
:10449000669556B4465BB77AA719973887DFF7FE5B
:1044A000E79DD7BCC7C448E5588668A7784008612F
:1044B0001802282338CCC9EDD98EE9AFF9488969AB
:1044C000990AA92BB9F55AD44AB77A966A711A5043
:1044D0000A333A122AFDDBDCCBBFFB9EEB799B58FB
:1044E0008B3BBB1AABA66C877CE44CC55C222C03CF
:1044F0003C600C411CAEED8FFDECCDCDDD2AAD0B4B
:10450000BD688D499D977EB66ED55EF44E133E32E2
:104510002E511E700E9FFFBEEFDDDFFCCF1BBF3A9A
:10452000AF599F788F8891A981CAB1EBA10CD12D89
:10453000C14EF16FE18010A100C230E3200450258C
:104540004046706760B9839893FBA3DAB33DC31C00
:10455000D37FE35EF3B1029012F322D232354214DC
:104560005277625672EAB5CBA5A89589856EF54F4C
:10457000E52CD50DC5E234C324A01481046674472C
:104580006424540544DBA7FAB79987B8975FE77EA0
:10459000F71DC73CD7D326F2369106B0165766767C
:1045A00076154634564CD96DC90EF92FE9C899E9EC
:1045B000898AB9ABA94458654806782768C018E1CC
:1045C000088238A3287DCB5CDB3FEB1EFBF98BD840
:1045D0009BBBAB9ABB754A545A376A167AF10AD01C
:1045E0001AB32A923A2EFD0FED6CDD4DCDAABD8B8C
:1045F000ADE89DC98D267C076C645C454CA23C836C
:104600002CE01CC10C1FEF3EFF5DCF7CDF9BAFBADF
:10461000BFD98FF89F176E367E554E745E932EB2BB
:104620003ED10EF01E7C3C3E5E2B3D3F2F5B5D3B42
:104630002C2A225C0050726564656872656A746534
:1046400020747279736B75210050726568656174AE
:1046500020746865206E6F7A7A6C65210043485932
:1046600042413A004552524F523A00506F64706FC7
:10467000726100537570706F727400537461746965
:104680007374696B61202000537461746973746979
:1046900063732020004B616C696272616365004343
:1046A000616C6962726174696F6E0056796A6D6FD0
:1046B00075742066696C616D656E7400556E6C6F03
:1046C00061642066696C616D656E74005A6176651F
:1046D00073742066696C616D656E74004C6F616403
:1046E0002066696C616D656E74004175746F5A6106
:1046F000766564656E692066696C2E004175746F1D
:104700004C6F61642066696C616D656E74005A61FE
:10471000646E61205344206B61727461004E6F209F
:104720005344206361726400506F6B7261636F76F3
:10473000617400526573756D65207072696E7400E6
:10474000506F7A61737461766974207469736B0059
:104750005061757365207072696E74005072656483
:1047600065687265760050726568656174004C61B9
:104770006469740054756E6500446F6C6164656EA5
:1047800069206F7379205A004C6976652061646AEC
:10479000757374205A00496E666F726D61636500AF
:1047A000496E666F2073637265656E00446F6B6F50
:1047B0006E636F76616E6920706F6879627500460E
:1047C000696E697368696E67206D6F76656D656E79
:1047D0007473004D6F64205B6175746F6D617469F3
:1047E000636B795D004D6F6465205B6175746F204C
:1047F000706F7765725D004D6F642020202020204F
:10480000205B74696368795D004D6F6465202020CA
:1048100020205B73696C656E745D004D6F642020B1
:104820005B7679732E2076796B6F6E5D004D6F64C9
:1048300065205B6869676820706F7765725D004608
:10484000696C2E2073656E7A6F72205B7A61705D81
:104850000046696C2E2073656E736F7220205B6F4B
:104860006E5D0046696C2E2073656E7A6F72205BF8
:104870007679705D0046696C2E2073656E736F7279
:10488000205B6F66665D0056796D656E69742066A3
:10489000696C616D656E74004368616E6765206662
:1048A000696C616D656E7400507275746F6B004653
:1048B0006C6F7700527963686C6F73740053706526
:1048C0006564004946354664465D464D37303200E2
:1048D00073466B464661696C20737461747300881B
:1048E000467B469F469546BC46AB46DC46CC46FCDE
:1048F00046EA464661726D206E756D626572001DF6
:10490000470E47334728475047404766475C477440
:10491000476E4788477947A0479647BF47AC474D02
:1049200036303000E547D3470948F7472D481B4844
:1049300051483F487548634898488748AF48A84859
:10494000BD48B4485A63686C6164697400436F6F12
:104950006C646F776E0054657A6B65207A6B6F7349
:10496000656E693A0053657665726520736B65778D
:104970003A004C65686B65207A6B6F73656E693AB7
:1049800000536C6967687420736B65773A004D65F6
:1049900072656E65207A6B6F73656E693A004D655E
:1049A00061737572656420736B65773A005072614C
:1049B00076793A0052696768743A004C6576793ABC
:1049C000004C6566743A005920767A64616C656EB5
:1049D0006F7374206F64206D696E3A0059206469AA
:1049E0007374616E63652066726F6D206D696E3AD7
:1049F000005465706C6F74790054656D70657261F8
:104A00007475726573004578747275646572206997
:104A10006E666F0044657461696C792058595A203C
:104A20006B616C2E0058595A2063616C2E206465AE
:104A30007461696C7300446174756D3A004461740B
:104A4000653A00686F77746F2E70727573613364A6
:104A50002E637A00686F77746F2E7072757361338E
:104A6000642E636F6D00666F72756D2E7072757354
:104A70006133642E637A00666F72756D2E70727585
:104A8000736133642E636F6D00707275736133648C
:104A90002E637A00707275736133642E636F6D00DC
:104AA0004D494449464C4558202D20203234302F62
:104AB00035300050502020202D20203235342F3129
:104AC00030300048495053202D20203232302F31D1
:104AD00030300041425320202D20203235352F31F7
:104AE00030300050455420202D20203233302F38D4
:104AF0003500504C4120202D20203231352F3630CA
:104B0000006661726D20202D20203235302F343028
:104B100000006549564900814972492D2D2D2D2DE2
:104B20002D2D2D2D2D2D2D2D2D2D2D2D2D2D2D00E2
:104B30004E2F41009E498E494E2F41006D6D000061
:104B4000B449AD49C149BB49DC49C749F949F149B3
:104B5000064A254A144A2D2D2D2D2D2D2D2D2D2D76
:104B60002D2D00466C6173684169722049502041C7
:104B70006464723A002D2D2D2D2D2D2D2D2D2D2DD2
:104B80002D002833642D677573736E65722C482968
:104B90000031303A32323A353700417072202034D9
:104BA0002032303138003D4A364A2D2D2D2D2D2D05
:104BB0002D2D2D2D2D2D00453344763666756C6CCC
:104BC0000052414D426F31336100315F37356D6DB9
:104BD0005F4D4B3235002D2D2D2D2D2D2D2D2D2DB5
:104BE0002D2D00544A434A774A664A944A894A20FE
:104BF000332E312E332D333039004669726D776193
:104C000072653A0025642E25642E25642E256400E5
:104C1000454550524F4D204572726F720048617287
:104C200064636F6465642044656661756C742053C9
:104C3000657474696E6773204C6F616465640043CA
:104C40006F6E74696E7565207769746820616E6F28
:104C50007468657220626F7764656E3F002500207E
:104C6000202020202000202020202020004552410C
:104C700053494E4720616C6C206461746100466149
:104C800063746F727920524553455400454E41423A
:104C90004C45440A0044495341424C45440A0046AD
:104CA00053656E736F722000504154393132355F55
:104CB000696E69743A25640A0000007A4300005264
:104CC000430000524300000000000080C09A991980
:104CD0003E00000000000080C09A99193E436879A8
:104CE0006261202D20446F736C6F206B20707265A1
:104CF00070697375207374617469636B652070618A
:104D00006D65746921004572726F72202D20737475
:104D100061746963206D656D6F72792068617320BD
:104D20006265656E206F7665727772697474656E00
:104D3000004B617274612076796A6D75746100430D
:104D40006172642072656D6F766564004B61727488
:104D50006120766C6F7A656E6100436172642069D0
:104D60006E73657274656400064DDD4C3F4D314DC8
:104D70005A4D4C4D00002100240027002A002D0030
:104D80003000330001010000040107010A010000A6
:104D900020002300260029002C002F0032000001F3
:104DA000000003010601090100000A0B02090C0DB5
:104DB0000E080703040100000000000000000000CE
:104DC00000000000000000000000000000000000E3
:104DD00000000000121110000000000000000000A0
:104DE00000000000000000000000000000000000C3
:104DF00000000000000000000000000000004E6104
:104E000068726976616E692050494E44410050498C
:104E10004E44412048656174696E67005465706C4A
:104E20002E206B616C2E202020202020202020208E
:104E30000054656D702E2063616C2E202020202090
:104E40002020202020004B616C6962726163652024
:104E50004F4B0043616C6962726174696F6E2064CC
:104E60006F6E65004B616C696272756A69205A00E9
:104E700043616C6962726174696E67205A004265B1
:104E800064204F4B2E0042656420646F6E65005AAB
:104E90006168726976616E6920626564004265646A
:104EA0002048656174696E67005A6168726976614D
:104EB0006E69204F4B2E0048656174696E672064EF
:104EC0006F6E652E005A6168726976616E6900487E
:104ED000656174696E67005072696E7465722064F2
:104EE0006973636F6E6E6563746564003A20000ECB
:104EF0004EFE4D314E1C4E534E464E20202020205B
:104F000020202020202020202020202020200020C1
:104F10003A2000704E644E202020202020202020A7
:104F2000202020202020202020202000864E7E4E81
:104F30009D4E8F4EB74EA94ECF4EC54E20202020FD
:104F40002020202020202020200025730020200069
:104F50002D2D3A2D2D002000200020004C00202077
:104F6000002046002D2D2D003E5553420053440095
:104F70002D2D002520202020200020200020200092
:104F80000120002020202D2D2D200020205A00203F
:104F90002000012000D74E527963686C6F73742033
:104FA00076656E742E0046616E20737065656400D0
:104FB00042656400547279736B61004E6F7A7A6C4B
:104FC00065004E6173746176656E69005365747433
:104FD000696E6773005469736B20707265727573C4
:104FE000656E005072696E742061626F72746564E0
:104FF000005A61737461766974207469736B00532D
:10500000746F70207072696E740043616E6E6F749D
:1050100020656E746572207375626469723A20004F
:105020005072757361206933204D4B322E35206FDD
:105030006B005072757361206933204D4B322E35F1
:105040002072656164792E00536F75626F72206EF5
:10505000656B6F6D706C65746E692E20506F6B722E
:1050600061636F7661743F0046696C6520696E63A9
:105070006F6D706C6574652E20436F6E74696E750C
:105080006520616E797761793F005469736B207A8E
:10509000205344005072696E742066726F6D205305
:1050A0004400486C61766E69206E616269646B6170
:1050B000004D61696E00A64F974FB04FBB4FB44F84
:1050C000CC4FC24FE34FD54FFF4FF14F0A503250F4
:1050D00020504D323400685048504D3233202573F3
:1050E0000094508A50052E2E00B150A250446F6A91
:1050F000656C79206F6261205A20766F7A696B79CE
:10510000206B7E686F726E696D7520646F72617A54
:10511000753F00417265206C65667420616E642085
:105120007269676874205A7E63617272696167652B
:105130007320616C6C2075703F004B616C6962720A
:105140006163652058595A2E204F746163656E69FA
:105150006D20746C616369746B6120706F73756E20
:105160007465205A206F737520617A206B7E686F9A
:10517000726E696D7520646F72617A752E20506F42
:1051800074767264746520746C616369746B656DA8
:105190002E0043616C6962726174696E67205859B0
:1051A0005A2E20526F7461746520746865206B6E8E
:1051B0006F6220746F206D6F766520746865205A69
:1051C00020636172726961676520757020746F2059
:1051D00074686520656E642073746F707065727397
:1051E0002E20436C69636B207768656E20646F6E58
:1051F000652E004B616C696272616365205A2E20D6
:105200004F746163656E696D20746C616369746B62
:105210006120706F73756E7465205A206F737520EE
:10522000617A206B7E686F726E696D7520646F7233
:10523000617A752E20506F74767264746520746C78
:10524000616369746B656D2E0043616C69627261A4
:1052500074696E67205A2E20526F746174652074D1
:105260006865206B6E6F6220746F206D6F766520AD
:10527000746865205A206361727269616765207580
:105280007020746F2074686520656E642073746F7D
:1052900070706572732E20436C69636B207768654C
:1052A0006E20646F6E652E004B616C696272616383
:1052B000652058595A207620706F7261646B752E84
:1052C000205A6B6F73656E69206275646520617525
:1052D000746F6D617469636B79207679726F766E25
:1052E000616E6F20707269207469736B752E00583F
:1052F000595A2063616C6962726174696F6E2061D2
:105300006C6C2072696768742E20536B6577207708
:10531000696C6C20626520636F727265637465648A
:10532000206175746F6D61746963616C6C792E00B6
:105330004B616C6962726163652058595A2076200E
:10534000706F7261646B752E20582F59206F7379BE
:10535000206D69726E65207A6B6F73656E652E20A5
:10536000446F627261207072616365210058595AFE
:105370002063616C6962726174696F6E20616C6C2C
:105380002072696768742E20582F592061786573E0
:105390002061726520736C696768746C7920736B27
:1053A000657765642E20476F6F64206A6F62210005
:1053B0004B616C6962726163652058595A2076208E
:1053C000706F7261646B752E20582F59206F73793E
:1053D000206A736F75206B6F6C6D652E204772614C
:1053E00074756C756A69210058595A2063616C693B
:1053F00062726174696F6E206F6B2E20582F592076
:1054000061786573206172652070657270656E6485
:105410006963756C61722E20436F6E67726174757B
:105420006C6174696F6E7321004B616C69627261AB
:1054300063652058595A206E65707265736E612ECF
:10544000204C65767920707265646E6920626F64A5
:10545000206D6F63207670726564752E0058595AFE
:105460002063616C6962726174696F6E20636F6D35
:1054700070726F6D697365642E204C65667420666A
:10548000726F6E742063616C6962726174696F6EB1
:1054900020706F696E74206E6F742072656163682E
:1054A00061626C652E004B616C696272616365209C
:1054B00058595A206E65707265736E612E20507255
:1054C00065646E69206B616C69627261636E6920EC
:1054D000626F6479206D6F63207670726564752EDB
:1054E0000058595A2063616C6962726174696F6E09
:1054F00020636F6D70726F6D697365642E204672E4
:105500006F6E742063616C6962726174696F6E2082
:10551000706F696E7473206E6F742072656163685A
:1055200061626C652E004B616C696272616365201B
:1055300058595A2073656C68616C612E204C6576F1
:105540007920707265646E6920626F64206D6F638C
:10555000207670726564752E2053726F766E656A60
:105560007465207469736B61726E752E0058595A98
:105570002063616C6962726174696F6E2066616933
:105580006C65642E204C6566742066726F6E7420A4
:1055900063616C6962726174696F6E20706F696EAD
:1055A00074206E6F7420726561636861626C652E31
:1055B000004B616C6962726163652058595A2073AF
:1055C000656C68616C612E20507265646E69206B39
:1055D000616C69627261636E6920626F6479206DCB
:1055E0006F63207670726564752E2053726F766ECD
:1055F000656A7465207469736B61726E752E0058EC
:10560000595A2063616C6962726174696F6E2066B9
:1056100061696C65642E2046726F6E742063616CE4
:105620006962726174696F6E20706F696E74732045
:105630006E6F7420726561636861626C652E004BE9
:10564000616C6962726163652058595A2073656C98
:1056500068616C612E204E61686C65646E6574656E
:1056600020646F206D616E75616C752E0058595AFB
:105670002063616C6962726174696F6E2066616932
:105680006C65642E20506C6561736520636F6E736A
:10569000756C7420746865206D616E75616C2E0088
:1056A0004B616C6962726163652058595A20736559
:1056B0006C68616C612E204B616C69627261636E13
:1056C0006920626F6420706F646C6F7A6B79206EF2
:1056D000656E616C657A656E2E0058595A2063615B
:1056E0006C6962726174696F6E206661696C656471
:1056F0002E204265642063616C6962726174696F17
:105700006E20706F696E7420776173206E6F7420E5
:10571000666F756E642E00556D69737465746520CF
:105720006C69737420706170697275206E6120708D
:105730006F646C6F7A6B752061207564727A756A1C
:105740007465206A656A20706F6420747279736B67
:105750006F7520626568656D206D6572656E692084
:105760007072766E696368203420626F64752E20D3
:10577000506F6B756420747279736B61207A61630A
:10578000687974692070617069722C207679706E06
:10579000657465207469736B61726E752E00506C50
:1057A0006163652061207368656574206F66207091
:1057B0006170657220756E64657220746865206E14
:1057C0006F7A7A6C6520647572696E67207468659B
:1057D0002063616C6962726174696F6E206F66200C
:1057E0006669727374203420706F696E74732E2032
:1057F000496620746865206E6F7A7A6C65206361F3
:105800007463686573207468652070617065722CBC
:1058100020706F776572206F6666207468652070EF
:1058200072696E74657220696D6D65646961746515
:105830006C792E0050726F2075737065736E6F7582
:10584000206B616C696272616369206F6369737454
:105850006574652070726F73696D207469736B6F06
:10586000766F7520747279736B752E20506F747615
:105870007264746520746C616369746B656D2E006D
:10588000506C6561736520636C65616E207468653A
:10589000206E6F7A7A6C6520666F722063616C6926
:1058A00062726174696F6E2E20436C69636B20773E
:1058B00068656E20646F6E652E0046696C616D656B
:1058C0006E74207679746C6163656E2061207370EC
:1058D0007261766E652062617276793F0046696C0E
:1058E000616D656E7420657874727564696E672089
:1058F00026207769746820636F7272656374206311
:105900006F6C6F723F000000A0400000A0400000DC
:10591000004000007A43000056439AD95143FFFFEC
:10592000FF1351ED5092513A514952F351EF52A8A1
:10593000526D533053E853B0535D542954E154A68B
:10594000546D552655FF55B1556D563F56DA56A044
:105950005643616C6962726174696F6E2066616939
:105960006C65642120436865636B20746865206101
:1059700078657320616E642072756E20616761695D
:105980006E2E009E57175780583458DD58BA58531A
:10599000656E7A6F722066696C616D656E747500F4
:1059A00046696C616D656E742073656E736F72000D
:1059B00050726F686F7A656E6500537761707065BD
:1059C0006400507265646E692F6C65767920766527
:1059D0006E742E0046726F6E742F6C65667420664E
:1059E000616E73004F736100417869730044656CA8
:1059F0006B61206F73790041786973206C656E6705
:105A000074680055766F6C6E656E612072656D65A9
:105A10006E69636B61004C6F6F73652070756C6CA1
:105A20006579004C6576792076656E74206E61200C
:105A30007472797363653F004C65667420686F7497
:105A4000656E642066616E3F00507265646E692009
:105A50007469736B6F76792076656E743F00467259
:105A60006F6E74207072696E742066616E3F0045BF
:105A70006E6473746F70206E6F7420686974004573
:105A80006E6473746F70004D6F746F7200456E6456
:105A900073746F7073004368796261207A61706F0C
:105AA0006A656E6900576972696E67206572726F08
:105AB0007200426564202F20486561746572004E53
:105AC000657A61706F6A656E6F20202020004E6FCE
:105AD0007420636F6E6E65637465640048656174FD
