:100000000C9452300C9483300C9483300C948330D5
:100010000C9483300C94C98A0C9483300C948330F4
:100020000C945A8E0C9483300C9483300D94695246
:100030000C9483300D94A4230C9483300C9483305F
:100040000C9483300C94CBAD0C9483300C9483309F
:100050000C9483300C9483300D94D91A0D940C8732
:100060000C9483300C9439FA0C9483300C948330C4
:100070000C9483300C9483300C9483300C94833034
:100080000C9483300C9483300C9483300C94833024
:100090000C94F5F90C9483300C9483300C948330D9
:1000A0000C9483300C9483300C9483300C94833004
:1000B0000C9483300C9483300C9483300C948330F4
:1000C0000C9483300C9483300C9483300C94809C7B
:1000D0000C9483300C9483300C9483300C948330D4
:1000E0000C948330C8D0DED0F1D0FED008D120D11E
:1000F00041D147D155D16BD187D191D1A2D1B3D1C3
:100100003EDA47DA0ADAF3D9D5D99CDB69DAEBDAD9
:1001100072DB930187015D0179014701BF01750120
:100120007D01310165015B018D012701A901B50147
:100130007B01D3018901370155018B01BD01B30159
:100140009D0135014F018301C301CD016F013F01C5
:10015000B70143013501A3019901D90139016101B9
:1001600049013D0157016D015901A701AB01290169
:10017000CF017F016B0185016D01330163017301C3
:10018000084AD73B3BCE016E84BCBFFDC12F3D6CFE
:1001900074319ABD56833DDA3D00C77F11BED9E464
:1001A000BB4C3E916BAAAABE000000803F05A84C44
:1001B000CDB2D44EB93836A9020C50B99186880810
:1001C0003CA6AAAA2ABE000000803F07634236B7B9
:1001D0009BD8A71A39685618AEBAAB558C1D3CB7D8
:1001E000CC5763BD6DEDFD753EF6177231BF000053
:1001F00000803F08000000BE922449123EABAAAA2C
:100200002ABECDCCCC4C3E00000080BEABAAAAAA30
:100210003E00000000BF000000803F000000000022
:10022000084178D3BB4387D1133D190E3CC3BD426F
:1002300082AD2B3E68EC8276BED98FE1A93E4C8020
:10024000EFFFBE01C4FF7F3F0000000000000D94DF
:10025000084F0D94D8840D94F14F0D9456870D944A
:10026000BB0A0D94802B0D940F850D9478820D940C
:10027000C14F0D9496840D940F060D94AA840D948D
:100280005D820D941E000D9465820D944B9C0D941F
:10029000582B0D94A0840D946B090D945B220D9442
:1002A00045820D94DF220D94E1880D943E820D94D9
:1002B000B4840D94BE840D94A52B0D942A2B0D941B
:1002C000CA000D949B840D9419850D948E2B0D946A
:1002D000ED220D9466220D94FB840D942D850D94D2
:1002E00057820D94AF890D9423850D94642B0D9442
:1002F000FE880D943C2B0D94304F0D94722B0D9471
:10030000EC840D94D7870D9449820D9405850D9446
:10031000242B0D948A4F0D9441820D94044F0D941B
:100320008F890D9461220D94162B0D94E2050D9486
:100330003C0C0D946F820D9445880D943A820D9477
:10034000AD090D9472890D946B820D94FA0C0D9485
:10035000C6840D940E4F0D94CE840D949E890D94F9
:100360000A880D9456090D9434820D94174F0D94FC
:1003700061820D9455890D94C3880D9430820D943B
:100380005E2B0D941B890D944F820D94A9870D94BB
:10039000E0050D9438890D9457220D9453820D94E5
:1003A000E2840D943E050D944D4F0D94C0980D942C
:1003B0000B280D9473824E414E494E495459494E73
:1003C00046CDCCCC3D0AD7233C17B7D13877CC2BC0
:1003D000329595E6241FB14F0A000020410000C865
:1003E0004200401C4620BCBE4CCA1B0E5AAEC59DE6
:1003F000746364696E6F70737578585B0000407A3F
:1004000010F35A00A0724E18090010A5D4E800009D
:10041000E87648170000E40B54020000CA9A3B003B
:100420000000E1F505000080969800000040420FB2
:10043000000000A08601000000102700000000E876
:1004400003000000006400000000000A000000003B
:10045000000100000000002C76D888DC674F0823DC
:10046000DFC1DFAE59E1B1B796E5E3E453C63AE642
:1004700051997696E8E6C28426EB898C9B62ED4022
:100480007C6FFCEFBC9C9F40F2BAA56FA5F4900571
:100490005A2AF75C936B6CF9676DC11BFCE0E40DA5
:1004A00047FEF520E6B500D0ED902E030094357799
:1004B000050080841E080000204E0A000000C80CC1
:1004C000333333330F986E12831141EF8D2114892A
:1004D0003BE65516CFFEE6DB18D1844B381BF77C84
:1004E0001D901DA4BBE424203284725E228100C9C9
:1004F000F124ECA1E53D2725642062797465732021
:100500007772697474656E20746F20454550524F40
:100510004D206174206164647265737320307825A6
:10052000303478004433202D20526561642F577297
:1005300069746520454550524F4D0A0020436F7540
:100540006E7420583A20005344207072696E7469AA
:100550006E67206279746520004E6F7420696E208A
:100560006661726D206D6F64652E004163746976FB
:10057000652045787472756465723A2000496E761C
:10058000616C696420657874727564657200746D5D
:1005900063323133305F73675F7468725B25635D0C
:1005A0003D25640A005A204F666673657400556ED7
:1005B0006B6E6F776E20636F6D6D616E643A202293
:1005C000007A5F6D61783A20007A5F6D696E3A203B
:1005D00000795F6D61783A2000795F6D696E3A202D
:1005E00000785F6D61783A2000785F6D696E3A201F
:1005F000005265706F7274696E6720656E64737403
:100600006F7020737461747573000053494C454ECC
:1006100054004E4F524D414C002553204D4F444500
:100620003A2050657263656E7420646F6E653A207F
:1006300025643B207072696E742074696D65207248
:10064000656D61696E696E6720696E206D696E7394
:100650003A2025640A00456E642066696C65206C4A
:1006600069737400426567696E2066696C65206C09
:100670006973740025643A2025640A000A50494EC3
:1006800044412074656D70657261747572653A20BD
:10069000252E3166205A20736869667420286D6D96
:1006A000293A20252E3366000A537465703A2025B6
:1006B000642F360A000A537465703A2025642F3679
:1006C0002028736B6970706564290A50494E444153
:1006D0002074656D70657261747572653A20256469
:1006E000205A20736869667420286D6D293A300A93
:1006F000000A5A45524F3A20252E33660A00737479
:100700006172742074656D70657261747572653A9A
:1007100020252E31660A0025642020252E32660011
:10072000255320583A20252E356620593A20252E6B
:100730003566205A3A20252E35660A004E6F742001
:10074000696E206661726D206D6F64652E00256490
:100750000045303A25642052504D0A50524E303AEE
:1007600025642052504D0A002564004175746F00C5
:1007700020452F443D00416476616E6365204B3D0A
:10078000004D3232302053256900255346696C6193
:100790006D656E742073657474696E67733A204476
:1007A000697361626C65640A00255346696C616D0A
:1007B000656E742073657474696E67733A0A2553A5
:1007C0002020204D3230302044252E32660A00256C
:1007D00053526574726163743A20533D4C656E6781
:1007E000746820286D6D2920463A53706565642031
:1007F000286D6D2F6D29205A3A205A4C6966742055
:10080000286D6D290A25532020204D323037205382
:10081000252E32662046252E3266205A252E326637
:100820000A25535265636F7665723A20533D4578C9
:10083000747261206C656E67746820286D6D292064
:10084000463A537065656420286D6D2F6D290A2521
:10085000532020204D3230382053252E326620463A
:10086000252E32660A25534175746F2D52657472B8
:100870006163743A20533D3020746F206469736162
:10088000626C652C203120746F20696E7465727003
:1008900072657420657874727564652D6F6E6C79FD
:1008A000206D6F7665732061732072657472616369
:1008B0007473206F72207265636F766572696573F9
:1008C0000A25532020204D323039205325640A0058
:1008D00025535049442068656174626564207365DE
:1008E0007474696E67733A0A25532020204D3330A3
:1008F000342050252E32662049252E32662044258C
:100900002E32660A00255350494420736574746979
:100910006E67733A0A25532020204D333031205022
:10092000252E32662049252E32662044252E326639
:100930000A00255353746570732070657220756EBC
:1009400069743A0A255320204D39322058252E3219
:10095000662059252E3266205A252E3266204525DE
:100960002E32660A25534D6178696D756D20666576
:1009700065647261746573202D206E6F726D616C99
:1009800020286D6D2F73293A0A255320204D3230CF
:10099000332058252E32662059252E3266205A25BE
:1009A0002E32662045252E32660A25534D61786920
:1009B0006D756D20666565647261746573202D20A8
:1009C000737465616C746820286D6D2F73293A0A01
:1009D000255320204D3230332058252E32662059A1
:1009E000252E3266205A252E32662045252E326667
:1009F0000A25534D6178696D756D20616363656C7F
:100A000065726174696F6E202D206E6F726D616CFE
:100A100020286D6D2F7332293A0A255320204D323C
:100A200030312058256C752059256C75205A256C5D
:100A3000752045256C750A25534D6178696D756D76
:100A400020616363656C65726174696F6E202D202F
:100A5000737465616C746820286D6D2F7332293A48
:100A60000A255320204D3230312058256C752059ED
:100A7000256C75205A256C752045256C750A255303
:100A8000416363656C65726174696F6E3A20533DB2
:100A9000616363656C65726174696F6E2C20543D8F
:100AA0007265747261637420616363656C65726101
:100AB00074696F6E0A255320204D3230342053253F
:100AC0002E32662054252E32660A25534164766103
:100AD0006E636564207661726961626C65733A2049
:100AE000533D4D696E2066656564726174652028AA
:100AF0006D6D2F73292C20543D4D696E20747261E9
:100B000076656C20666565647261746520286D6D1C
:100B10002F73292C20423D6D696E696D756D2073B0
:100B200065676D656E742074696D6520286D732925
:100B30002C20583D6D6178696D756D205859206A7B
:100B400065726B20286D6D2F73292C20205A3D6D06
:100B50006178696D756D205A206A65726B20286D09
:100B60006D2F73292C2020453D6D6178696D756D61
:100B70002045206A65726B20286D6D2F73290A2528
:100B80005320204D3230352053252E3266205425F7
:100B90002E32662042252E32662058252E326620BF
:100BA00059252E3266205A252E32662045252E32B2
:100BB000660A2553486F6D65206F666673657420FD
:100BC000286D6D293A0A255320204D3230362058A1
:100BD000252E32662059252E3266205A252E326661
:100BE0000A004625642025640A004D4D55203C3DF1
:100BF0002027462564202564270A005049442041C7
:100C000075746F74756E652066696E697368656466
:100C1000212050757420746865206C617374204BBA
:100C2000702C204B6920616E64204B6420636F6ED2
:100C30007374616E74732066726F6D2061626F767B
:100C40006520696E746F20436F6E666967757261A7
:100C500074696F6E2E6800504944204175746F743A
:100C6000756E65206661696C6564212074696D65C7
:100C70006F75740020403A00543A00423A005049DF
:100C800044204175746F74756E65206661696C658A
:100C900064212054656D706572617475726520748D
:100CA0006F6F206869676800204B643A2000204B12
:100CB000693A2000204B703A200020436C61737326
:100CC00069632050494420002054753A2000204B8D
:100CD000753A2000206D61783A2000206D696E3AE7
:100CE000200020643A200020626961733A200020CD
:100CF000453A00205A3A0020593A0020453A00204F
:100D00005A3A0020593A00583A00005A30005A31F5
:100D100000593000593100583000583100456E6498
:100D20002073746F70732064696167002E004465DE
:100D30006C6574696F6E206661696C65642C204611
:100D4000696C653A200046696C652064656C657461
:100D500065643A004E6F74205344207072696E745B
:100D6000696E67005072696E742073617665640005
:100D70005344207072696E742070617573656400ED
:100D80000A002F000A002F2F20616374696F6E3AEA
:100D900063616E63656C0043524153485F43414E4B
:100DA00043454C0043524153485F5245434F5645DB
:100DB000520043524153485F5245434F56455200FB
:100DC00022283229005400496E76616C69642054EF
:100DD00020636F64652E00556E6B6E6F776E204DCD
:100DE00020636F64653A202573200A006E6F2076B9
:100DF000616C696420636F6D6D616E64002C20000E
:100E00002C20002C20006E2F61002C20002C2000B4
:100E10002C20006E2F61002F00503A00576169743A
:100E200020666F722050494E44412074617267659C
:100E3000742074656D70657261747572653A004CEA
:100E4000414E472053454C20464F524345440022D3
:100E50002831290030303030303030302D303030D3
:100E6000302D303030302D303030302D303030308B
:100E700030303030303030300020555549443A0061
:100E800031002045585452554445525F434F554E0A
:100E9000543A005072757361206933204D4B330012
:100EA000204D414348494E455F545950453A003121
:100EB0002E3000206261736564206F6E204D617278
:100EC0006C696E204649524D574152455F55524C10
:100ED0003A68747470733A2F2F6769746875622E5C
:100EE000636F6D2F707275736133642F50727573F9
:100EF000612D4669726D776172652050524F544F73
:100F0000434F4C5F56455253494F4E3A0046495263
:100F10004D574152455F4E414D453A507275736190
:100F20002D4669726D7761726520004D3131332035
:100F3000530020423A0020453A00543A0020413AFA
:100F40000020503A002042403A0020403A00202F32
:100F5000003A00205400202F0020423A00202F00A9
:100F60006F6B20543A002569206D696E2C2025692D
:100F70002073656300496E76616C6964204D20635F
:100F80006F64653A202573200A00556E6B6E6F778B
:100F90006E204720636F64653A202573200A004D58
:100FA00065736820626564206C6576656C696E6740
:100FB000206E6F74206163746976652E000A0020CC
:100FC00020000A4D6561737572656420706F696EEB
:100FD00074733A000A5A2073656172636820686509
:100FE000696768743A20002C004E756D20582C59A2
:100FF0003A2000206D6963726F6E730045786365F7
:10100000737369766520626564206C6576656C69CA
:101010006E6720636F7272656374696F6E3A200049
:101020004732382057300050494E44412070726F8B
:1010300062652063616C6962726174696F6E2073AE
:101040007461727400473238205730004D323400DA
:101050005345545F43484F505F005345545F5354CA
:1010600045505F005345545F574156455F00544D0E
:10107000435F0043524153485F00507265737320D1
:101080006B6E6F6220746F2070726568656174208A
:101090006E6F7A7A6C6520616E6420636F6E74691E
:1010A0006E75652E00506C65617365207072657396
:1010B0007320746865206B6E6F6220746F20756E8C
:1010C0006C6F61642066696C616D656E7400526559
:1010D0006D6F7665206F6C642066696C616D656EFE
:1010E0007420616E6420707265737320746865206B
:1010F0006B6E6F6220746F207374617274206C6FFA
:101100006164696E67206E65772066696C616D65E4
:101110006E742E00616E6420707265737320746843
:1011200065206B6E6F6200496E736572742066692C
:101130006C616D656E740046696C2E2073656E730C
:101140006F7220726573706F6E73652069732070A3
:101150006F6F722C2064697361626C652069743FE3
:1011600000436F6C6F72206E6F7420636F727265D4
:1011700063740046696C616D656E74206E6F7420D7
:101180006C6F61646564004368616E6765642063C9
:101190006F72726563746C793F004C6F6164696E45
:1011A0006720636F6C6F72004368616E67652073C0
:1011B0007563636573732100506C65617365206F9F
:1011C00070656E2069646C657220616E6420726562
:1011D0006D6F76652066696C616D656E74206D61FA
:1011E0006E75616C6C792E005761732066696C6155
:1011F0006D656E7420756E6C6F61642073756363CA
:1012000065737366756C3F00506C6561736520751E
:101210007067726164652E004E6577206669726D35
:10122000776172652076657273696F6E2061766191
:10123000696C61626C653A0057616974696E672018
:10124000666F722050494E44412070726F62652073
:10125000636F6F6C696E67004372617368206465C9
:101260007465637465642E20526573756D652070B6
:1012700072696E743F0043726173682064657465BF
:10128000637465642E0045787472756465720043FA
:10129000686F6F73652065787472756465723A0063
:1012A00043686F6F73652066696C616D656E743A33
:1012B000004D32303020496E76616C69642065786B
:1012C00074727564657220006F70656E00545249C7
:1012D000474745524544004E6F206D6F76652E009E
:1012E0005761697420666F7220757365722E2E2E99
:1012F00000426564206C6576656C696E6720666186
:10130000696C65642E2053656E736F722074726908
:1013100067676572656420746F6F20686967682EFF
:101320002057616974696E6720666F7220726573F9
:1013300065742E00426564206C6576656C696E6725
:10134000206661696C65642E2053656E736F722030
:10135000646973636F6E6E6563746564206F722079
:101360006361626C652062726F6B656E2E205761DF
:101370006974696E6720666F722072657365742E7A
:1013800000537461626C6520616D6269656E7420E2
:1013900074656D70657261747572652032312D32BD
:1013A0003643206973206E65656465642061207230
:1013B00069676964207374616E6420697320726563
:1013C0007175697265642E00506C65617365207279
:1013D000756E2058595A2063616C69627261746934
:1013E0006F6E2066697273742E00536C6565702E83
:1013F0002E2E0073746172740A006164635F696EFB
:1014000069740A001B5B324A1B5B313B31484F72E7
:101410006967696E616C2050727573612069331B56
:101420005B323B334850727573612052657365615E
:1014300072636800466163746F7279205245534548
:1014400054004F6374203238203230313800436FFB
:101450006D70696C65643A2000286E6F6E652C2093
:1014600064656661756C7420636F6E6669672900D8
:101470004F637420323820323031382032313A33E1
:10148000343A32340020332E342E322D313336307C
:101490000A002055706C6F616420696E2070726F55
:1014A000677265737300205A3A0020593A00205839
:1014B0003A0043524153485F4445544543544544E0
:1014C00058590043524153485F444554454354459D
:1014D00044590043524153485F44455445435445A1
:1014E0004458004D323900507275736120693320C1
:1014F0004D4B332072656164792E00426C61636BE1
:101500006F7574206F636375727265642E20526507
:10151000636F766572207072696E743F0053656CFC
:1015200066746573742077696C6C206265207275CF
:101530006E20746F2063616C6962726174652061F2
:10154000636375726174652073656E736F726C6529
:101550007373207265686F6D696E672E00546865DD
:101560007265206973207374696C6C2061206E65EC
:10157000656420746F206D616B65205A2063616C17
:101580006962726174696F6E2E20506C656173655B
:1015900020666F6C6C6F7720746865206D616E7566
:1015A000616C2C2063686170746572204669727387
:1015B000742073746570732C2073656374696F6E27
:1015C0002043616C6962726174696F6E20666C6F32
:1015D000772E005072696E74657220686173206E98
:1015E0006F74206265656E2063616C6962726174FC
:1015F0006564207965742E20506C65617365206682
:101600006F6C6C6F7720746865206D616E75616CAE
:101610002C2063686170746572204669727374204F
:1016200073746570732C2073656374696F6E2043E7
:10163000616C6962726174696F6E20666C6F772E7F
:10164000004F6C642073657474696E677320666FF5
:10165000756E642E2044656661756C742050494433
:101660002C20457374657073206574632E20776930
:101670006C6C206265207365742E005761726E6910
:101680006E673A20626F7468207072696E7465725A
:10169000207479706520616E64206D6F7468657266
:1016A000626F6172642074797065206368616E672F
:1016B00065642E005761726E696E673A20707269B8
:1016C0006E7465722074797065206368616E6765F9
:1016D000642E005761726E696E673A206D6F746890
:1016E0006572626F617264207479706520636861ED
:1016F0006E6765642E002020506C616E6E657242CC
:10170000756666657242797465733A200020467288
:101710006565204D656D6F72793A2000204C6173CC
:101720007420557064617465643A2000506F776569
:101730007255700045787465726E616C2053504923
:1017400020666C61736820573235583230434C2024
:101750006E6F7420726573706F6E64696E672E00B1
:101760006572726F722077726974696E6720746F28
:101770002066696C6500656E6473746F70732068B1
:1017800069743A20006F6B0043726173684465743A
:101790006563742044495341424C4544004372619F
:1017A000736844657465637420454E41424C4544FA
:1017B0002100207C20417574686F723A200020530C
:1017C0006F66747761726520526573657400205787
:1017D00061746368646F67205265736574002042AA
:1017E000726F776E206F7574205265736574002078
:1017F00045787465726E616C20526573657400443F
:101800006F6E6520736176696E672066696C652E00
:101810000058595A2063616C6962726174696F6E15
:1018200020616C6C2072696768742E20536B657739
:101830002077696C6C20626520636F7272656374D7
:101840006564206175746F6D61746963616C6C7936
:101850002E0058595A2063616C6962726174696F15
:101860006E20616C6C2072696768742E20582F5945
:1018700020617865732061726520736C6967687494
:101880006C7920736B657765642E20476F6F6420D9
:101890006A6F62210058595A2063616C69627261F3
:1018A00074696F6E206F6B2E20582F5920617865F8
:1018B00073206172652070657270656E646963750E
:1018C0006C61722E20436F6E67726174756C617407
:1018D000696F6E73210058595A2063616C69627296
:1018E0006174696F6E206661696C65642E2052694F
:1018F0006768742066726F6E742063616C696272CF
:101900006174696F6E20706F696E74206E6F7420E1
:10191000726561636861626C652E0058595A206374
:10192000616C6962726174696F6E206661696C6571
:10193000642E2046726F6E742063616C69627261FE
:1019400074696F6E20706F696E7473206E6F74208F
:10195000726561636861626C652E0058595A206334
:10196000616C6962726174696F6E206661696C6531
:10197000642E20506C6561736520636F6E73756CA7
:101980007420746865206D616E75616C2E00585905
:101990005A2063616C6962726174696F6E20636F53
:1019A0006D70726F6D697365642E2052696768741B
:1019B0002066726F6E742063616C69627261746913
:1019C0006F6E20706F696E74206E6F742072656127
:1019D000636861626C652E0058595A2063616C69B6
:1019E00062726174696F6E20636F6D70726F6D6982
:1019F0007365642E2046726F6E742063616C696239
:101A0000726174696F6E20706F696E7473206E6F8F
:101A10007420726561636861626C652E0058595A62
:101A20002063616C6962726174696F6E20666169BE
:101A30006C65642E204265642063616C696272612A
:101A400074696F6E20706F696E7420776173206E99
:101A50006F7420666F756E642E00506C65617365DF
:101A600020706C61636520737465656C20736865B4
:101A70006574206F6E20686561746265642E004332
:101A8000616C6962726174696E67205A004469739F
:101A900074616E6365206265747765656E20746934
:101AA00070206F6620746865206E6F7A7A6C65208E
:101AB000616E642074686520626564207375726667
:101AC00061636520686173206E6F74206265656E66
:101AD00020736574207965742E20506C6561736580
:101AE00020666F6C6C6F7720746865206D616E7511
:101AF000616C2C2063686170746572204669727332
:101B0000742073746570732C2073656374696F6ED1
:101B1000204669727374206C617965722063616C10
:101B20006962726174696F6E2E00206F66203400E6
:101B3000536561726368696E6720626564206361E2
:101B40006C6962726174696F6E20706F696E740087
:101B5000506C6163652061207368656574206F66F1
:101B600020706170657220756E646572207468659E
:101B7000206E6F7A7A6C6520647572696E67207466
:101B800068652063616C6962726174696F6E206F51
:101B900066206669727374203420706F696E747386
:101BA0002E20496620746865206E6F7A7A6C6520F5
:101BB0006361746368657320746865207061706523
:101BC000722C20706F776572206F6666207468656E
:101BD000207072696E74657220696D6D65646961EB
:101BE00074656C792E00506C6561736520636C655B
:101BF000616E20746865206E6F7A7A6C6520666FFE
:101C0000722063616C6962726174696F6E2E204329
:101C10006C69636B207768656E20646F6E652E005B
:101C2000506C656173652072656D6F7665207374A5
:101C300065656C2073686565742066726F6D2068D9
:101C40006561746265642E00497320737465656C08
:101C5000207368656574206F6E20686561746265C5
:101C6000643F004175746F20686F6D650078797A04
:101C700063616C5F6D656173737572655F656E74CA
:101C800065720A0078797A63616C5F73706972615A
:101C90006C382063783D25642063793D2564207A83
:101CA000303D256420647A3D256420726164697545
:101CB000733D25642061643D25640A0078797A6368
:101CC000616C5F7365617263685A206E6F2073691F
:101CD000676E616C0A20783D256C6420793D256C27
:101CE00064207A3D256C640A00204F4E2D534947ED
:101CF0004E414C20617420783D256420793D256457
:101D0000207A3D25642061643D25640A0078797A53
:101D100063616C5F7365617263685A20783D256CFE
:101D20006420793D256C64207A3D256C640A000AA4
:101D300000253032780078797A63616C5F73636173
:101D40006E5F706978656C735F333278333220630D
:101D5000783D25642063793D2564206D696E5F7A46
:101D60003D2564206D61785F7A3D25640A00202559
:101D700032642025640A000A002530327800206D84
:101D8000696E3D2564206D61783D25642064696637
:101D90003D25640A006D61785F633D253264206DE6
:101DA00061785F6C3D25640A006D61785F633D2555
:101DB00064206D61785F723D2564206D61785F6D90
:101DC000617463683D25640A0020783D25642079AC
:101DD0003D2564207A3D25640A0020706174746595
:101DE000726E20666F756E642061742025642025F4
:101DF000640A000000F000F801FC03FE07FE07FE85
:101E000007FE07FC03F801F000000073697A656FB4
:101E10006628746F74616C293D25640A0073697AC1
:101E2000656F6628626C6F636B5F6275666665726C
:101E3000293D25640A0078797A63616C5F6D65617C
:101E400073737572655F6C656176650A00706F69A2
:101E50006E743D256420783D256420793D256420FD
:101E60007A3D25640A0058025802584D584DB00476
:101E7000F055F055B00478797A63616C5F66696EED
:101E8000645F6265645F696E64756374696F6E5FD9
:101E900073656E736F725F706F696E745F787920AF
:101EA000783D256C6420793D256C64207A3D256C55
:101EB000640A00203C20005741524E494E473A20C8
:101EC00046726F6E7420706F696E74206E6F74202E
:101ED000726561636861626C652E205920636F6F63
:101EE0007264696E6174653A000000004041000050
:101EF000C04000005C430000C04000005C430000A4
:101F000046430000404100004643497465726174D5
:101F1000696F6E3A200000007F43008058439AD9D1
:101F20005143FFFFFF43616C6962726174696F6EB8
:101F3000206661696C65642120436865636B207469
:101F40006865206178657320616E642072756E200B
:101F5000616761696E2E004B494C4C45442E200050
:101F60005072696E7465722068616C7465642E20AD
:101F70006B696C6C28292063616C6C656421004D71
:101F800031303420496E76616C69642065787472F2
:101F90007564657220004D31303520496E76616C74
:101FA000696420657874727564657220004D313003
:101FB0003920496E76616C69642065787472756445
:101FC000657220004D32313820496E76616C69644B
:101FD00020657874727564657220004D323231204C
:101FE000496E76616C696420657874727564657297
:101FF00020005265636F766572696E672070726942
:102000006E7420202020004B494C4C3A2025640A55
:102010000055564C4F202D20656E642025640A0023
:102020007374707325640A00776F726C6420636F39
:102030006F7264696E617465733A2028252E336669
:102040002C20252E33662C20252E3366290A00707D
:102050006879736963616C20636F6F7264696E6124
:102060007465733A2028252E33662C20252E33667E
:102070002C20252E3366290A0043757272656E7412
:1020800020706F73205A5F415849533A252E3366AA
:102090000A43757272656E7420706F7320455F41DC
:1020A0005849533A252E33660A00416674657220FA
:1020B00077616974696E6720666F722074656D70F0
:1020C0003A0A43757272656E7420706F7320585FA0
:1020D000415849533A252E33660A43757272656E2C
:1020E0007420706F7320595F415849533A252E333D
:1020F000660A0020573A0020453A00543A005A2018
:102100006C6976652061646A757374206F757420DC
:102110006F662072616E67652E2053657474696EF8
:102120006720746F20302E20436C69636B20746FBE
:1021300020636F6E74696E75652E005A206C697627
:10214000652061646A757374206F7574206F6620F2
:1021500072616E67652E2053657474696E672074B2
:102160006F20300020423A0020453A00543A00499E
:102170004E5434007265636F7665725F6D6163689B
:10218000696E655F73746174655F61667465725FC3
:10219000706F7765725F70616E69632C20696E691C
:1021A0007469616C20007265636F7665725F6D6142
:1021B0006368696E655F73746174655F6166746599
:1021C000725F706F7765725F70616E69632C2069F2
:1021D0006E697469616C20004739322045005052A5
:1021E0005553412075766C6F004734205330004DB5
:1021F00032362053256C75004D3130362053004D5A
:102200003832004731204625640047312045322AC4
:1022100064656661756C745F72657472616374691C
:102220006F6E2046343830004731205A0020463245
:102230003030300020590047312058004D383300ED
:10224000506F736974696F6E207265616420667285
:102250006F6D20656570726F6D3A004D32332025C9
:1022600073002E67636F0046656564726174653A3A
:1022700000473120452D64656661756C745F726539
:102280007472616374696F6E204634383000473170
:102290002045352046313230004D3833004D31393C
:1022A0003020532564004D313039205325640047D8
:1022B000323820582059004731205A3235204638CC
:1022C000303000544D4320445249564552204F5619
:1022D000455254454D50005A25362E326620005A3C
:1022E0002020202D2D2D200025632533642F2564EB
:1022F00025630025632533642525002D2D2D00251C
:102300003368686400253353253373252500205333
:10231000440020202000555342002025753E25759D
:1023200000204625750020463020200025632D2DF5
:102330003A2D2D2020002563253032753A25303284
:10234000752563256300726573756C742076616C06
:1023500075653A2025640A0020693D2532642063B2
:102360006E743D2532642076616C3D2532640A002E
:10237000636C7573746572733A0A0020693D253287
:102380006420737465703D2532640A00736F727443
:1023900065642073616D706C65733A0A0055534132
:1023A0005254322072782046756C6C2121210A002B
:1023B0003A20002020202020202020202020202023
:1023C00020202020202000203A2000202020202033
:1023D000202020202020202020202020202020001D
:1023E00020202020202020202020202020002573B5
:1023F0000050494E44412048656174696E6700543D
:10240000656D702E2063616C2E20202020202020FE
:102410002020200043616C6962726174696F6E20D4
:10242000646F6E650042656420646F6E650042658E
:10243000642048656174696E670048656174696EFF
:102440006720646F6E652E0048656174696E670071
:10245000000E1315110E00000004120912040000F2
:10246000001C1F11111F00000006191803130C0097
:10247000040E1F041C000000040A0A0A0A11110EAF
:10248000001F1511151F0000000103161C08000095
:102490000000110A04110A040C12120C00000000C2
:1024A0002563252D3138532563002563252E3135CD
:1024B000533A2573253364002563252E3132533A70
:1024C00025732500457872656D65207370616E20F7
:1024D0006F6620746865205A2076616C756573217B
:1024E0000000004041000000400000E44200000005
:1024F000400000574300000040000057430000C464
:10250000420000E4420000C442000040410000C418
:102510004200004041000042430000E4420000420B
:10252000430000574300004243205B6F66665D0036
:10253000426564206C6576656C696E6720666169CA
:102540006C65642E2053656E736F72206469646ECF
:102550007420747269676765722E204465627269BF
:1025600073206F6E206E6F7A7A6C653F20576169B9
:1025700074696E6720666F722072657365742E00D1
:10258000206F662039004D6561737572696E672032
:102590007265666572656E636520686569676874F3
:1025A000206F662063616C6962726174696F6E206E
:1025B000706F696E740024F4D43050C38E20C2A2B0
:1025C0004017828B7011127A910D816CD90AA86123
:1025D000E108C7586607615143061E4B5D05C145BA
:1025E000A7041A411104093D98037139310340369B
:1025F000DB0265339102D4305402802E1D02632C1D
:10260000EE01752AC501B028A001102781018F2590
:1026100064012B244B01E0223401AC211F018D20E9
:102620000D01801FFC00841EED00971DDF00B81C0B
:10263000D200E61BC600201BBC00641AB200B2190F
:10264000A8000A19A0006A189900D1179100401734
:102650008B00B516840031167E00B31579003A154B
:102660007300C7146F0058146A00EE1366008813D5
:10267000630025135E00C7125B006C125700151231
:102680005400C111510070114F0021114B00D610A0
:1026900049008D1047004610440002104200C00F50
:1026A0004000800F3E00420F3C00060F3B00CB0E67
:1026B0003800930E37005C0E3500270E3400F30D02
:1026C0003200C10D3100900D3000600D2E00320D32
:1026D0002D00050D2C00D90C2B00AE0C2900850C0B
:1026E00029005C0C2700350C27000E0C2600E80B97
:1026F0002400C40B2400A00B23007D0B23005A0BE5
:102700002100390B2100180B2000F80A1F00D90AFC
:102710001E00BB0A1E009D0A1D00800A1D00630AE0
:102720001C00470A1B002C0A1B00110A1A00F7099B
:102730001A00DD091900C4091900AB091900920932
:1027400017007B091800630917004C0916003609A9
:102750001600200916000A091500F5081500E00802
:102760001400CC081400B8081400A4081400900841
:1027700013007D0812006B08130058081200460869
:10278000120034081100230811001208110001087A
:102790001100F0071000E0071000D0071000C0077C
:1027A0001000B0070F00A107100091070E0083076B
:1027B0000F0074070F0065070E0057070E0049074A
:1027C0000E003B070D002E070E0020070D0013071B
:1027D0000D0006070D00F9060C00ED060D00E006E1
:1027E0000C00D4060C00C8060C00BC060C00B00699
:1027F0000C00A4060B0099060C008D060B00820647
:102800000B0077060B006C060B0061060A005706EA
:102810000B004C060A0042060A0038060A002E0683
:102820000A0024060A001A060A0010060900070614
:102830000A00FD050900F4050900EB050900E205A1
:102840000900D9050900D0050900C7050900BE0522
:102850000900B5050800AD050800A50509009C059F
:102860000800940508008C050800840508007C0514
:102870000800740508006C050700650508005D0583
:102880000700560508004E050700470507004005EC
:10289000080038050700310507002A050700230551
:1028A00007001C050600160507000F0507000805B0
:1028B000060002050700FB040600F5040700EE040D
:1028C0000600E8040600E2040700DB040600D50465
:1028D0000600CF040600C9040600C3040600BD04B8
:1028E0000600B7040600B1040500AC040600A60407
:1028F0000600A00405009B04060095040500900452
:1029000006008A04050085040500800406007A0498
:10291000050075040500700405006B0405006604DD
:102920000500610405005C0405005704050052041D
:1029300005004D04050048040500430405003E045D
:1029400004003A04050035040500300404002C049A
:10295000050027040400230405001E0404001A04D3
:10296000040016040500110404000D040400090409
:1029700005000404040000040400FC030400F80340
:102980000400F4030400F0030400EC030400E80373
:102990000400E4030400E0030400DC030400D803A3
:1029A0000400D4030400D0030400CC030400C803D3
:1029B0000300C503030024F404D9201BC40C5C0EDF
:1029C0009804C4095F0265077101F405F900FB046E
:1029D000B30048048700C10369005803550003038E
:1029E0004500BE023A008402310053022A00290247
:1029F000250004022000E4011C00C8011900AF01F9
:102A00001700980114008401130071011000610186
:102A1000100051010E0043010D0036010B002B0187
:102A20000B0020010B00150109000C010900030136
:102A30000800FB000800F3000800EB000700E400BA
:102A40000600DE000600D8000600D2000600CC001A
:102A50000500C7000500C2000500BD000400B90064
:102A60000400B5000400B1000400AD000400A9009A
:102A70000400A5000300A20003009F0004009B00C7
:102A800003009800030095000200930003009000EB
:102A900003008D0002008B00030088000200860006
:102AA000020084000300810002007F0002007D001C
:102AB00002007B000200790002007700010076002E
:102AC00002007400020072000100710002006F0039
:102AD00002006D0001006C0002006A000100690044
:102AE000020067000100660001006500010064004B
:102AF00002006200010061000100600001005F004F
:102B000002005D0001005C0001005B0001005A0052
:102B10000100590001005800010057000100560053
:102B20000100550001005400010053000000530053
:102B300001005200010051000100500001004F004F
:102B400001004E0000004E0001004D0001004C004D
:102B500001004B0000004B0001004A000100490049
:102B60000100480000004800010047000100460045
:102B7000000046000100450000004500010044003F
:102B80000100430000004300010042000000420039
:102B900001004100000041000100400001003F0031
:102BA00000003F0001003E0000003E0001003D002B
:102BB00000003D0001003C0000003C0000003C0023
:102BC00001003B0000003B0001003A0000003A0019
:102BD0000100390000003900010038000000380011
:102BE0000000380001003700000037000100360007
:102BF00000003600000036000100350000003500FE
:102C000000003500010034000000340000003400F2
:102C100001003300000033000000330001003200E7
:102C200000003200000032000100310000003100DD
:102C300000003100010030000000300000003000D2
:102C400001002F0000002F0000002F0000002F00C7
:102C500001002E0000002E0000002E0001002D00BB
:102C600000002D0000002D0000002D0001002C00B0
:102C700000002C0000002C0000002C0001002B00A4
:102C800000002B0000002B0000002B0001002A0098
:102C900000002A0000002A0000002A00010029008C
:102CA0000000290000002900000029000000290080
:102CB0000100280000002800000028000000280073
:102CC0000000280001002700000027000000270066
:102CD0000000270000002700010026000000260059
:102CE000000026000000260000002600010025004C
:102CF0000000250000002500000025000000250040
:102D00000000250001002400000024000000240031
:102D10000000240000002400010023000000230024
:102D20000000230000002300000023000000230017
:102D30000000230001002200000022000000220009
:102D400000002200000022000000220001002100FB
:102D500000002100000021000000210000002100EF
:102D600000002100000021000100200000002000E0
:102D700000002000000020000000200000002000D3
:102D8000000020000000200001001F0000001F00C4
:102D900000001F0000001F0000001F0000001F00B7
:102DA00000001F0001001E0000001E0000001E00A9
:102DB00000001E0000001B5B313B31485057523A67
:102DC00020202020202025642E2530316456001B31
:102DD0005B303B314842656C742073746174757369
:102DE0001B5B313B3248582025641B5B323B324829
:102DF0005920256400464C4558202D20203234307F
:102E00002F35300050502020202D20203235342FF7
:102E10003130300048495053202D20203232302F9D
:102E20003130300041425320202D20203235352FC3
:102E30003130300050455420202D20203233302FA7
:102E4000383500504C4120202D20203231352F368E
:102E50003000414253202020202D20203235352FB4
:102E6000313030006E6F7A7A6C65202D202032353B
:102E7000302F30006661726D2020202D20203235E9
:102E8000302F363000466C617368416972204950BA
:102E900020416464723A004D4D553220202020209C
:102EA00020204E2F4100756E6B6E6F776E0025648B
:102EB0002E25642E25642D2564002046573A004DAA
:102EC0004D553220636F6E6E6563746564004F63A9
:102ED000742032382032303138004533447636663B
:102EE000756C6C0045494E53795F31306100315F3C
:102EF00037356D6D5F4D4B33002D2D2D2D2D2D2D27
:102F00002D2D2D2D2D00207265706F20556E6B6E4E
:102F10006F776E0020332E342E322D313336300051
:102F20004669726D776172653A0025642E25642EBC
:102F300025642E2564004D373032004D3730310086
:102F40004578747275646572006D6D0000590058A3
:102F500000580059005A002563252E3132533A2576
:102F600073252B30362E336600436F6F6C646F779A
:102F70006E00566F6C74616765730054656D7065A3
:102F8000726174757265730042656C74207374614C
:102F900074757300457874727564657220696E6625
:102FA0006F0058595A2063616C2E20646574616902
:102FB0006C7300446174653A00686F77746F2E70AB
:102FC0007275736133642E636F6D00666F72756D19
:102FD0002E707275736133642E636F6D007072753D
:102FE000736133642E636F6D004175746F6C6F6134
:102FF00064696E672066696C616D656E74206973C3
:10300000206163746976652C206A75737420707210
:1030100065737320746865206B6E6F6220616E64E7
:1030200020696E736572742066696C616D656E747B
:103030002E2E2E00546F74616C207072696E742095
:1030400074696D6500546F74616C2066696C616DA4
:10305000656E74005072696E742074696D65004607
:10306000696C616D656E742075736564005072657E
:103070006865617420746865206E6F7A7A6C65216A
:10308000004552524F523A005269676874004C65CD
:10309000667400592064697374616E63652066729A
:1030A0006F6D206D696E0053657665726520736B78
:1030B000657700536C6967687420736B6577004DA2
:1030C0006561737572656420736B6577005B303B77
:1030D000305D20706F696E74206F66667365740072
:1030E00041646A757374696E67205A00526573652E
:1030F0007400526561722073696465205B756D5D53
:103100000046726F6E7420736964655B756D5D0057
:10311000526967687420736964655B756D5D004C06
:103120006566742073696465205B756D5D00536529
:10313000742074656D70657261747572653A001BF8
:103140005B324A2553203A1B5B313B394825382EE8
:103150003266206D0A2553203A0A25376C646420B4
:103160003A253268686468203A25303268686420FD
:103170006D001B5B324A25533A1B5B313B364825B9
:10318000382E32666D200A2553203A1B5B333B38BC
:10319000482532646820253032646D202530326441
:1031A000730025362E32666D6D004E2F41001B5B7D
:1031B000303B304825533A0A25530A25533A0A250D
:1031C000533A001B5B303B3135484E2F41001B5BAF
:1031D000303B31354825342E326601001B5B303BD5
:1031E000304825533A0A25530A25533A20202535DD
:1031F0002E3266010A25533A202025352E326601EB
:103200000052756E6E696E672057697A617264202C
:1032100077696C6C2064656C657465206375727287
:10322000656E742063616C6962726174696F6E208F
:10323000726573756C747320616E6420737461724F
:10324000742066726F6D2074686520626567696EB0
:103250006E696E672E20436F6E74696E75653F00F0
:1032600050726568656174696E67206E6F7A7A6CFA
:10327000652E20506C6561736520776169742E003E
:10328000596F752063616E20616C7761797320726C
:103290006573756D65207468652057697A6172641D
:1032A0002066726F6D2043616C6962726174696F30
:1032B0006E202D3E2057697A6172642E00506C6535
:1032C00061736520636865636B206F757220686148
:1032D0006E64626F6F6B20616E6420666978207423
:1032E00068652070726F626C656D2E205468656E23
:1032F00020726573756D65207468652057697A6101
:103300007264206279207265626F6F74696E6720E3
:10331000746865207072696E7465722E00416C6C01
:1033200020697320646F6E652E204861707079206B
:103330007072696E74696E672100506C65617365A7
:1033400020636C65616E20686561746265642061EC
:103350006E64207468656E20707265737320746883
:1033600065206B6E6F622E00446F20796F75207739
:10337000616E7420746F20726570656174206C6179
:103380007374207374657020746F20726561646A51
:103390007573742064697374616E6365206265740B
:1033A0007765656E206E6F7A7A6C6520616E642039
:1033B000686561746265643F00492077696C6C20C0
:1033C000737461727420746F207072696E74206CF3
:1033D000696E6520616E6420796F752077696C6C09
:1033E000206772616475616C6C79206C6F776572AF
:1033F00020746865206E6F7A7A6C6520627920721D
:103400006F746174696E6720746865206B6E6F629B
:103410002C20756E74696C20796F752072656163FC
:1034200068206F7074696D616C2068656967687485
:103430002E20436865636B2074686520706963742F
:103440007572657320696E206F75722068616E6495
:10345000626F6F6B20696E206368617074657220A3
:1034600043616C6962726174696F6E2E004E6F7792
:1034700020492077696C6C2063616C6962726174A9
:10348000652064697374616E636520626574776535
:10349000656E20746970206F6620746865206E6F99
:1034A0007A7A6C6520616E64206865617462656417
:1034B00020737572666163652E00497320697420FC
:1034C000504C412066696C616D656E743F004C6FB5
:1034D0006164696E672066696C616D656E74005029
:1034E0006C6561736520696E7365727420504C4120
:1034F0002066696C616D656E7420746F20746865F8
:103500002065787472756465722C207468656E200D
:103510007072657373206B6E6F6220746F206C6FB6
:1035200061642069742E00506C6561736520696E5A
:103530007365727420504C412066696C616D656ED4
:103540007420746F207468652066697273742074C7
:10355000756265206F66204D4D552C207468656E30
:1035600020707265737320746865206B6E6F6220C3
:10357000746F206C6F61642069742E00456A656306
:103580007400556E6C6F61640055736520756E6CC8
:103590006F616420746F2072656D6F766520666957
:1035A0006C616D656E7420312069662069742070CD
:1035B000726F747275646573206F75747369646576
:1035C000206F66207468652072656172204D4D55CC
:1035D00020747562652E2055736520656A65637475
:1035E0002069662069742069732068696464656E67
:1035F00020696E20747562652E0053656C65637476
:10360000206E6F7A7A6C65207072656865617420CF
:1036100074656D7065726174757265207768696331
:1036200068206D61746368657320796F7572206DB1
:103630006174657269616C2E004E6F772049207746
:10364000696C6C2070726568656174206E6F7A7A3F
:103650006C6520666F7220504C412E0049732066C5
:10366000696C616D656E74206C6F616465643F00A8
:1036700049732066696C616D656E742031206C6FD2
:10368000616465643F00492077696C6C2072756ED7
:10369000207A2063616C6962726174696F6E206E5A
:1036A0006F772E00492077696C6C2072756E2078D8
:1036B000797A2063616C6962726174696F6E206EE1
:1036C0006F772E2049742077696C6C2074616B656C
:1036D00020617070726F782E203132206D696E73A8
:1036E0002E0046697273742C20492077696C6C2017
:1036F00072756E207468652073656C66746573748A
:1037000020746F20636865636B206D6F7374206332
:103710006F6D6D6F6E20617373656D626C79207073
:10372000726F626C656D732E0048692C20492061B0
:103730006D20796F7572204F726967696E616C20B8
:103740005072757361206933207072696E7465728E
:103750002E20576F756C6420796F75206C696B65CE
:10376000206D6520746F20677569646520796F75B9
:10377000207468726F75676820746865207365745B
:1037800075702070726F636573733F00452D636FB2
:103790007272656374005A2D636F72726563740090
:1037A000592D636F727265637400582D636F727266
:1037B00065637400536F756E642020202020205BA9
:1037C0006C6F75645D00536F756E6420202020203F
:1037D000205B6D7574655D00536F756E64202020ED
:1037E000205B73696C656E745D00536F756E642049
:1037F00020202020205B6F6E63655D00536F756E27
:10380000642020202020205B6C6F75645D00536F66
:1038100072743A2020202020205B6E6F6E655D0060
:10382000536F72743A20205B616C706861626574DA
:103830005D00536F72743A2020202020205B746951
:103840006D655D005344206361726420205B6E6F80
:10385000726D616C5D0053442063617264205B662D
:103860006C73684169725D0052506920706F7274A8
:1038700020202020205B6F6E5D0052506920706F09
:103880007274202020205B6F66665D0054656D7049
:103890002E2063616C2E2020205B6F6E5D005465CE
:1038A0006D702E2063616C2E20205B6F66665D005C
:1038B0004C696E2E20636F7272656374696F6E005F
:1038C00046616E7320636865636B20205B6F66667C
:1038D0005D0046616E7320636865636B2020205B2A
:1038E0006F6E5D004175746F206465706C65746502
:1038F0005B6F66665D004175746F206465706C6512
:103900007465205B6F6E5D00462E204F51206D6503
:103910006173732E5B6F66665D00462E204F5120EB
:103920006D656173732E205B6F6E5D00462E2061A6
:1039300075746F6C6F6164205B6F66665D00462E08
:10394000206175746F6C6F616420205B6F6E5D0029
:10395000462E206175746F6C6F6164205B4E2F4141
:103960005D0046696C2E2073656E736F72205B4E2E
:103970002F415D0044697361626C652073746570EA
:1039800070657273004D6F766520617869730054BD
:10399000656D70657261747572650054656D702E29
:1039A0002063616C6962726174696F6E0052657345
:1039B00065742058595A2063616C6962722E0053F5
:1039C000686F772070696E6461207374617465003C
:1039D0005049442063616C6962726174696F6E0062
:1039E000426564206C6576656C20636F72726563F6
:1039F00074004D65736820426564204C6576656C83
:103A0000696E670043616C696272617465205A0077
:103A100043616C6962726174652058595A0053653C
:103A20006C667465737420202020202020202000E4
:103A30004669727374206C617965722063616C2EC3
:103A40000057697A617264004C6F61642066696C2A
:103A5000616D656E742035004C6F61642066696C21
:103A6000616D656E742034004C6F61642066696C12
:103A7000616D656E742033004C6F61642066696C03
:103A8000616D656E742032004C6F61642066696CF4
:103A9000616D656E742031004C6F616420616C6CE7
:103AA00000456A6563742066696C616D656E74209B
:103AB0003500456A6563742066696C616D656E7476
:103AC000203400456A6563742066696C616D656EBB
:103AD00074203300456A6563742066696C616D65A6
:103AE0006E74203200456A6563742066696C616D8E
:103AF000656E74203100556E6C6F61642066696C70
:103B0000616D656E74203500556E6C6F6164206662
:103B1000696C616D656E74203400556E6C6F616404
:103B20002066696C616D656E74203300556E6C6F34
:103B300061642066696C616D656E74203200556E3B
:103B40006C6F61642066696C616D656E7420310014
:103B5000556E6C6F616420616C6C00457874727591
:103B60006465722034004578747275646572203320
:103B700000457874727564657220320045787472FD
:103B800075646572203100506C65617365207075D5
:103B90006C6C206F75742066696C616D656E742045
:103BA000696D6D6564696174656C7900556E6C6FE3
:103BB0006164696E672066696C616D656E7400573B
:103BC000697A61726420656E642073746174653A09
:103BD0002025640A0057697A6172642073746174E5
:103BE000653A2025640044697361626C65206661F2
:103BF000726D206D6F6465004661726D206E756D2B
:103C0000626572004D3834004D343400473238203C
:103C100057004739390044697361626C65206661F9
:103C2000726D206D6F64653F0043686F6F73652030
:103C3000636F6C6F723A006F6B0A00737461727419
:103C40000A004D4D5532206669726D7761726520AC
:103C500076657273696F6E20696E76616C69642E29
:103C60002052657175697265642076657273696F3B
:103C70006E3A206275696C64206E756D62657220A3
:103C80002564206F72206869676865722E006E6F08
:103C9000745F6F6B0A004D363030004D3630302087
:103CA0004155544F004653454E534F525F52454382
:103CB0004F56455200256868750050300A00523052
:103CC0000A004525640A0055300A0043300A004CBA
:103CD00025640A005425640A004D4D55202D2045C9
:103CE0004E41424C454400256868750050300A003A
:103CF00050300A004D4D552076657273696F6E2005
:103D000076616C69640025750053320A00257500E0
:103D10004D4D55206E6F7420726573706F6E6469BF
:103D20006E67202D2044495341424C454400533195
:103D30000A004D4D5520737461727473207265735F
:103D4000706F6E64696E670A004D4D55206E6F741A
:103D500020726573706F6E64696E670A0000008080
:103D60003F555585410000803F0000C841000000DC
:103D700040555505420000C03F0000484200002069
:103D80004055558542000070C1ABAAA642000060B4
:103D9000C10000A0410000C0C00000204100002080
:103DA00041ABAA3A41000020C15555D5400000481A
:103DB000C2555505424D373031204530004D373022
:103DC00031204531004D373031204532004D3730FC
:103DD00031204533004D373031204534004D3730E8
:103DE00031204534004D373031204533004D3730D8
:103DF00031204532004D373031204531004D3730CC
:103E0000312045300046696C616D656E74206E72BC
:103E1000206F7574206F662072616E676521007770
:103E20003235783230636C5F63666D0A0077323505
:103E3000783230636C5F656E7465720A005041546D
:103E4000393132355F5245535F593D256868750AEF
:103E500000504154393132355F5245535F583D254A
:103E60006868750A00062833D036C23E013F154106
:103E700032423B43F2443B45F24622473B48F2493B
:103E80003B4AF05898590C5A085B0C5C0861106763
:103E90009B6E2271077208FF095A0D000EF019047B
:103EA0005E0820642B6D322FFF506C6561736520B6
:103EB000757064617465206669726D7761726520E2
:103EC000696E20796F7572204D4D55322E205761E5
:103ED0006974696E6720666F722072657365742EEF
:103EE000004D4D55204F4B2E20526573756D696EF8
:103EF000672E2E2E004D4D55204F4B2E20526573B0
:103F0000756D696E6720706F736974696F6E2E2EA0
:103F10002E004D4D55204F4B2E20526573756D6907
:103F20006E672074656D70657261747572652E2E92
:103F30002E004D4D55206E65656473207573657256
:103F400020617474656E74696F6E2E2046697820E6
:103F500074686520697373756520616E6420746888
:103F6000656E20707265737320627574746F6E2055
:103F70006F6E204D4D5520756E69742E00506C6526
:103F80006173652072656D6F76652066696C616D21
:103F9000656E7420616E64207468656E2070726551
:103FA000737320746865206B6E6F622E00456A65BE
:103FB0006374696E672066696C616D656E7400621A
:103FC0007573793A2070617573656420666F72202D
:103FD000696E70757400627573793A2070617573DB
:103FE000656420666F7220757365720062757379FF
:103FF0003A2070726F63657373696E6700204600C4
:104000004731205A0020460047312045004D3833C3
:10401000006F6B0A0000002110422063308440A52D
:1040200050C660E770088129914AA16BB18CC1AD7F
:10403000D1CEE1EFF13112100273325222B5529417
:1040400042F772D662399318837BB35AA3BDD39CCF
:10405000C3FFF3DEE36224433420040114E664C7A3
:1040600074A44485546AA54BB528850995EEE5CF1F
:10407000F5ACC58DD55336722611163006D776F6B7
:10408000669556B4465BB77AA719973887DFF7FE6F
:10409000E79DD7BCC7C448E5588668A77840086143
:1040A0001802282338CCC9EDD98EE9AFF9488969BF
:1040B000990AA92BB9F55AD44AB77A966A711A5057
:1040C0000A333A122AFDDBDCCBBFFB9EEB799B580F
:1040D0008B3BBB1AABA66C877CE44CC55C222C03E3
:1040E0003C600C411CAEED8FFDECCDCDDD2AAD0B5F
:1040F000BD688D499D977EB66ED55EF44E133E32F7
:104100002E511E700E9FFFBEEFDDDFFCCF1BBF3AAE
:10411000AF599F788F8891A981CAB1EBA10CD12D9D
:10412000C14EF16FE18010A100C230E320045025A0
:104130004046706760B9839893FBA3DAB33DC31C14
:10414000D37FE35EF3B1029012F322D232354214F0
:104150005277625672EAB5CBA5A89589856EF54F60
:10416000E52CD50DC5E234C324A014810466744740
:104170006424540544DBA7FAB79987B8975FE77EB4
:10418000F71DC73CD7D326F2369106B01657667690
:1041900076154634564CD96DC90EF92FE9C899E900
:1041A000898AB9ABA94458654806782768C018E1E0
:1041B000088238A3287DCB5CDB3FEB1EFBF98BD854
:1041C0009BBBAB9ABB754A545A376A167AF10AD030
:1041D0001AB32A923A2EFD0FED6CDD4DCDAABD8BA0
:1041E000ADE89DC98D267C076C645C454CA23C8380
:1041F0002CE01CC10C1FEF3EFF5DCF7CDF9BAFBAF4
:10420000BFD98FF89F176E367E554E745E932EB2CF
:104210003ED10EF01E7C3C3E5E2B3D3F2F5B5D3B56
:104220002C2A225C0043757272656E7400557365AA
:104230006420647572696E67207072696E740050D4
:1042400049442063616C2E2066696E6973686564F9
:10425000005049442063616C2E2020202020202023
:104260002020202000506C6561736520776169749F
:10427000004D313137204669727374206C61796565
:10428000722063616C2E005072696E7420706175CB
:1042900073656400496E76616C69642050494420FE
:1042A00063616C2E20726573756C74732E204E6F73
:1042B000742073746F72656420746F20454550528A
:1042C0004F4D2E004D353030004731205A313520CA
:1042D00046313530300047393100473120583530CC
:1042E00020593139302045302046373030300047B2
:1042F0003930004D373032004D3730322043004DD9
:104300003730322055004D373032004D37303220B3
:1043100043004731205A313520463135303000478F
:104320003931004731205835302059313930204556
:1043300030204637303030004D38330047393000B8
:104340004D3834004D313034205330004D38340076
:104350004D37303220430047312058313020593119
:104360003830204634303030004731205A31302048
:1043700046313330302E303030004D313430205320
:1043800030004D31303420533000473120452D303E
:104390002E30373530302046323130302E3030300C
:1043A0003030004D313037004731205835302059FA
:1043B00035352045332E36323737330047312058D4
:1043C000323030205935352045302E3439333836A7
:1043D0000047312058323030205937352045332EB0
:1043E000363237373300473120583530205937358A
:1043F0002045302E34393338360047312058353097
:10440000205939352045332E36323737330047317E
:104410002058323030205939352045302E34393348
:10442000383600473120583230302059313135206C
:1044300045332E3632373733004731205835302058
:10444000593131352045302E343933383600473133
:104450002058353020593133352045332E36323708
:10446000373300473120583230302059313335202E
:1044700045302E363631373400473120583230300F
:1044800020593135352045322E3632373733004703
:1044900031205831303020593135352045320047F0
:1044A000312058373520593135352045322E3500E9
:1044B0004731204631303830004731205A302E31D4
:1044C00035302046373230302E3030300047312002
:1044D0005835302059313535004731204634303099
:1044E00030004D32303420533130303000473120ED
:1044F0005A352046373230302E30303000473120A8
:10450000452D312E35303030302046323130302E8E
:104510003030303030004D383300473930004732CA
:1045200031004739322045302E3000473120583194
:1045300030302E30204531322E352046313030306B
:104540002E30004731205836302E302045392E305D
:104550002046313030302E300047312058352E3053
:104560002045342E302046313030302E3000473157
:10457000205A302E32302046313030302E30004735
:1045800031205835352E30204532352046313430F3
:10459000302E3000473120592D322E302046313018
:1045A00030302E3000473120583234302E30204504
:1045B00032352E30202046323230302E300047390E
:1045C000322045302E30004731205A302E332046DD
:1045D000313030302E30004731205835352E3020E4
:1045E00045382E302046323030302E3000473120D2
:1045F00058352E30204533322E3020463138303079
:104600002E30004731205835352E30204533322E9C
:10461000302046313037332E30004731205A302E8B
:10462000342046313030302E3000473120592D3380
:104630002E302046313030302E30004D3833004798
:1046400039322045302E3000473238004D31303974
:104650002053323135004D31393020533630004D42
:1046600031343020533630004D3130342053323124
:1046700035004D3130370053657474696E677320AF
:1046800053746F7265640053746F72656420736550
:104690007474696E67732072657472696576656497
:1046A0000048617264636F64656420446566617587
:1046B0006C742053657474696E6773204C6F616409
:1046C000656400563200000000C8420000C8420085
:1046D00000C84300008C43000048430000484300EA
:1046E0000040410000F042E8030000E8030000C879
:1046F0000000008813000000409C4400409C4400DF
:1047000000000000000000204E00000000204100DA
:10471000002041CDCCCC3E00002040000000000035
:1047200000000000000000CDCCCC3E3D0A8141FFDE
:1047300008433EB099AB438F42FC42E65A343F4CAB
:1047400062B045000000000040400000344200001C
:1047500000000000000000000041000000E03F00F9
:1047600000C8420000C842000040410000F042C0C2
:10477000030000C0030000C80000008813000045CB
:104780004550524F4D204572726F7200436F6E74E8
:10479000696E7565207769746820616E6F746865ED
:1047A0007220626F7764656E3F0025002020202014
:1047B0002020002020202020200045524153494E37
:1047C0004720616C6C206461746100466163746FA2
:1047D00072792052455345540000007F43008054B5
:1047E000430000524300000000000080C09A991965
:1047F0003E00000000000080C09A99193E20003E53
:10480000003E0020003E003E0054656D7065726100
:10481000747572652063616C6962726174696F6E30
:10482000206661696C65642E20436F6E74696E75D5
:10483000652077697468207072657373696E67208C
:10484000746865206B6E6F622E0054656D706572C2
:1048500061747572652063616C6962726174696FFD
:104860006E20646F6E652E20436F6E74696E756581
:104870002077697468207072657373696E6720743D
:104880006865206B6E6F622E005A3020284C4544BC
:10489000206F6E2920005A3120284C4544206F6635
:1048A000662900502E492E4E2E442E412E20737420
:1048B00061746500473830004D3435004D34352083
:1048C0005A004737360054656D70657261747572B1
:1048D000652063616C6962726174696F6E206661E4
:1048E000696C65640054656D70657261747572659C
:1048F0002063616C6962726174696F6E20697320F4
:1049000066696E697368656420616E6420616374B2
:104910006976652E2054656D702E2063616C696226
:10492000726174696F6E2063616E206265206469D4
:104930007361626C656420696E206D656E752053CD
:10494000657474696E67732D3E54656D702E2063B7
:10495000616C2E004578747275646572004D6F76D7
:1049600065205A004D6F76652059004D6F766520A1
:1049700058001B5B324A437261736820646574653A
:104980006374696F6E2063616E1B5B313B304862FC
:1049900065207475726E6564206F6E206F6E6C7921
:1049A00020696E1B5B323B30484E6F726D616C202C
:1049B0006D6F6465001B5B324A5741524E494E474A
:1049C0003A1B5B313B304843726173682064657405
:1049D000656374696F6E1B5B323B30486469736159
:1049E000626C656420696E1B5B333B3048537465B1
:1049F000616C7468206D6F6465004175746F6C6FD5
:104A00006164696E672066696C616D656E742061B2
:104A10007661696C61626C65206F6E6C7920776875
:104A2000656E2066696C616D656E742073656E736A
:104A30006F72206973207475726E6564206F6E2EBC
:104A40002E2E004552524F523A2046696C616D65D8
:104A50006E742073656E736F72206973206E6F744D
:104A600020726573706F6E64696E672C20706C6560
:104A700061736520636865636B20636F6E6E656349
:104A800074696F6E2E0043616C69627261746500B7
:104A9000506C65617365206C6F616420504C4120DF
:104AA00066696C616D656E742066697273742E0040
:104AB000497320504C412066696C616D656E7420AD
:104AC0006C6F616465643F0043616E63656C0046B2
:104AD000696C616D656E740053656C65637420501C
:104AE0004C412066696C616D656E743A0052657365
:104AF000756D696E67207072696E740053757070A1
:104B00006F727400537461746973746963732020E5
:104B10000043616C6962726174696F6E0041757403
:104B20006F4C6F61642066696C616D656E740043E3
:104B300068616E676520657874727564657200558A
:104B40006E6C6F61642066696C616D656E740045A2
:104B50006A6563742066696C616D656E74004C6F84
:104B600061642066696C616D656E74004E6F2053E0
:104B7000442063617264005072696E742066726FC3
:104B80006D20534400526573756D65207072696EB7
:104B900074005061757365207072696E7400507294
:104BA00065686561740054756E65004C69766520B2
:104BB00061646A757374205A00496E666F2073636E
:104BC0007265656E0046696E697368696E67206D0F
:104BD0006F76656D656E747300536F756E6420201B
:104BE000202020205B6C6F75645D00536F756E64D0
:104BF0002020202020205B6D7574655D00536F754B
:104C00006E64202020205B73696C656E745D0053B8
:104C10006F756E642020202020205B6F6E63655DC1
:104C200000536F756E642020202020205B6C6F7510
:104C3000645D004372617368206465742E20205B9C
:104C40004E2F415D004372617368206465742E20AD
:104C500020205B6F6E5D0043726173682064657431
:104C60002E20205B6F66665D004D6F6465202020FE
:104C7000205B537465616C74685D004D6F646520E2
:104C8000202020205B4E6F726D616C5D0046696C68
:104C90002E2073656E736F7220205B6F6E5D004611
:104CA000696C2E2073656E736F72205B6F66665D34
:104CB000004368616E67652066696C616D656E743E
:104CC00000466C6F770053706565640046616E2026
:104CD000737065656400426564004E6F7A7A6C6536
:104CE0000053657474696E6773005072696E742046
:104CF00061626F7274656400596573004E6F005392
:104D0000746F70207072696E740046696C652069FA
:104D10006E636F6D706C6574652E20436F6E746981
:104D20006E756520616E797761793F004D61696EBE
:104D3000004661696C207374617473004D373032C2
:104D40002043004661726D206E756D626572004D84
:104D5000363030004D3234004D323320257300059B
:104D60002E2E0043616E6E6F7420656E7465722026
:104D70007375626469723A200053442063617264FF
:104D8000206F6B006F70656E526F6F742066616983
:104D90006C656400766F6C756D652E696E69742044
:104DA0006661696C656400534420696E69742066AD
:104DB00061696C00536F7274696E672066696C6517
:104DC0007300536F6D652066696C65732077696C3D
:104DD0006C206E6F7420626520736F727465642E30
:104DE000204D61782E204E6F2E206F662066696CF4
:104DF000657320696E203120666F6C646572206671
:104E00006F7220736F7274696E672069732031301E
:104E1000302E001F1F1F1F1F1F1F1F2E002E004E92
:104E20006F772066726573682066696C653A20004A
:104E30004E6F7720646F696E672066696C653A20F3
:104E4000002220706F73002220706172656E743AC8
:104E50002200535542524F5554494E452043414C30
:104E60004C207461726765743A2200747279696EBD
:104E70006720746F2063616C6C207375622D6763AB
:104E80006F64652066696C65732077697468207447
:104E90006F6F206D616E79206C6576656C732E2066
:104EA0004D4158206C6576656C2069733A005772E5
:104EB0006974696E6720746F2066696C653A2000BA
:104EC00046696C652073656C656374656400205386
:104ED000697A653A200046696C65206F70656E6579
:104EE000643A20001000C90210012C014001220187
:104EF00070011801B0010E01F00104015002FA0026
:104F0000B002F0003003E600D003DC009004D200D1
:104F10007005C800A006BE000008B400B009AA00D1
:104F2000D00BA000600E960060118C00001582006E
:104F300020197800C01D6E00A0226400B0275A001E
:104F4000902C500000314600E0343C001038320014
:104F5000903A2800603C1E00A03D1400803E0A00EC
:104F6000203F000070012C0190012701B0012201B7
:104F7000C0011D01F00118011002130130020E01E1
:104F80006002090190020401C002FF000003FA0060
:104F90004003F5008003F000D003EB002004E6009E
:104FA0007004E100E004DC004005D700C005D20039
:104FB0004006CD00D006C8008007C3003008BE0000
:104FC000F008B900C009B400B00AAF00B00BAA00E5
:104FD000D00CA500000EA000500F9B00C010960042
:104FE0005012910000148C00C0158700B017820089
:104FF000B0197D00D01B7800001E730040206E00A9
:1050000090226900F024640040275F0090295A0034
:10501000E02B5500102E500020304B00103246007F
:10502000E033410090353C001037370070383200D3
:10503000A0392D00B03A2800A03B2300603C1E00A0
:10504000103D1900903D1400103E0F00703E0A0004
:10505000C03E0500003F000090137D00B0157800B1
:10506000F0177300601A6E00F01C6900A01F640046
:1050700050225F0020255A00E0275500902A50005A
:10508000202D4B00A02F4600F031410010343C0091
:10509000F0353700A037320020392D00603A280063
:1050A000703B2300603C1E00203D1900C03D1400F1
:1050B000403E0F00A03E0A00F03E0500403F0000C9
:1050C000703FFBFF903FF6FFB03FF1FFC03FECFFAA
:1050D000D03FE7FFE03FE2FFF03FDDFFF03FD8FFCA
:1050E00020484F54454E4420544845524D414C2091
:1050F00052554E415741590020484541544245447C
:1051000020544845524D414C2052554E415741592B
:1051100000544845524D414C2052554E415741593B
:105120000042454420544845524D414C2052554E72
:10513000415741590020544845524D414C20525549
:105140004E4157415920282050524548454154204E
:10515000484F54454E44290020544845524D414C37
:105160002052554E4157415920282050524548451C
:105170004154204845415442454429005052454835
:10518000454154204552524F52004245442050520E
:105190004548454154204552524F52004572723A9B
:1051A000204D415854454D50003A20457874727551
:1051B000646572207377697463686564206F6666DE
:1051C0002E204D415854454D5020747269676765D3
:1051D0007265642021004572723A204D4158544551
:1051E0004D50204245440054656D70657261747580
:1051F00072652068656174656420626564207377F8
:10520000697463686564206F66662E204D4158544A
:10521000454D50207472696767657265642021008E
:105220004572723A204D494E54454D5020424544F6
:105230000054656D70657261747572652068656192
:10524000746564206265642073776974636865645B
:10525000206F66662E204D494E54454D5020747285
:10526000696767657265642021004572723A204D56
:10527000494E54454D50003A204578747275646526
:1052800072207377697463686564206F66662E2088
:105290004D494E54454D502074726967676572657B
:1052A00064202100746D63323133305F686F6D6547
:1052B0005F656E74657228617865735F6D61736B8D
:1052C0003D307825303278290A00746D63323133ED
:1052D000305F686F6D655F6578697420746D6332E7
:1052E0003133305F73675F686F6D696E675F6178D8
:1052F00065735F6D61736B3D3078253032780A00DD
:1053000046696C616D656E742073656E736F7200B3
:10531000537761707065640046726F6E742F6C65B0
:1053200066742066616E7300417869730041786924
:1053300073206C656E677468004C6F6F73652070C6
:10534000756C6C657900456E6473746F70206E6F58
:10535000742068697400456E6473746F70004D6FDB
:10536000746F7200456E6473746F70730057697266
:10537000696E67206572726F7200426564202F202B
:10538000486561746572004E6F7420636F6E6E6560
:1053900063746564004865617465722F5468657252
:1053A0006D6973746F7200506C656173652063681A
:1053B00065636B203A0053656C6674657374206591
:1053C00072726F7220210046696C616D656E742087
:1053D00073656E736F723A005072696E7420666105
:1053E0006E3A0045787472756465722066616E3A33
:1053F0000053656C6674657374206661696C6564DE
:10540000202000416C6C20636F72726563742020F1
:105410002020202000436865636B696E67207365F8
:105420006E736F72732000436865636B696E6720EB
:10543000626564202020202000436865636B696EEC
:1054400067205A2061786973202000436865636B88
:10545000696E672059206178697320200043686570
:10546000636B696E67205820617869732020004360
:105470006865636B696E6720686F74656E64202071
:1054800000436865636B696E6720656E6473746F53
:105490007073004572726F72202D2073746174698D
:1054A00063206D656D6F7279206861732062656538
:1054B0006E206F7665727772697474656E004361F1
:1054C00072642072656D6F7665640043617264205A
:1054D000696E736572746564002D2D2D2D2D2D2D33
:1054E0002D2D2D2D2D2D2D2D2D2D2D2D2D004361CF
:1054F0006C6962726174696E6720686F6D65000027
:1055000000000000110A04505255534133444657DD
:10551000002079303D25640A002078303D25640A5A
:10552000004F4B0A004552524F522061643D2564A2
:105530000A002020207A303D25640A00207A303D80
:1055400025640A002079303D25640A002078303D2A
:1055500025640A0078797A63616C5F66696E645FBE
:10556000706F696E745F63656E746572320A0020D5
:10557000746F6F206C6F6E672065787472757369D5
:105580006F6E2070726576656E7465640020636F5F
:105590006C6420657874727573696F6E20707265C3
:1055A00076656E74656400332E342E3200726300AB
:1055B0006265746100616C70686100646576007892
:1055C000797A63616C5F73706972616C32206378A1
:1055D0003D25642063793D2564207A303D25642093
:1055E000647A3D2564207261646975733D25642089
:1055F00061643D25640A0001021020200808102083
:10560000401020408002010201080402010102044E
:10561000081020408080402010080402018004020D
:105620000180402010080402010804020101020464
:105630000810204080010204081020408010080457
:105640000880102040044080102040048000002288
:1056500000250028002B002E00310034000201003C
:1056600000050108010B01050505050705080808E7
:1056700008020202020A0A080804040404010101E3
:1056800001010101010303030303030303040707EB
:10569000070C0C0C0C0C0C0C0C0202020206060689
:1056A00006060606060B0B0B0B0B0B0B0B07070A6C
:1056B0000A0A0A0A0A050505040404080802746DAA
:1056C00063323133305F676F746F5F73746570205E
:1056D0002564202564202564202564200A002E00EE
:1056E0006F70656E206661696C65642C2046696C1C
:1056F000653A20006673656E736F725F73746F70C6
:105700005F616E645F736176655F7072696E740A63
:10571000006673656E736F725F726573746F726526
:105720005F7072696E745F616E645F636F6E7469DF
:105730006E75650A0044495341424C45440A004590
:105740004E41424C4544004653656E736F722025AE
:10575000530A00504154393132355F696E69743AE9
:10576000256868750A00504154393132355F696ED9
:1057700069743A256868750A0050415439313235E8
:105780005F696E69743A256868750A0046530A00B5
:105790006673656E736F725F6F715F6D6561737352
:1057A0007572655F73746172740A006673656E73F7
:1057B0006F725F6F715F6D656173737572655F7333
:1057C000746F702C20256868752073616D706C652E
:1057D000730A004E4721004F4B005041543931327B
:1057E00035206E6F7420726573706F6E64696E67BA
:1057F0002028256429210A004D36303000465345C3
:105800004E534F525F5245434F56455200667365A3
:105810006E736F725F757064617465202D204D36F4
:1058200030300A006673656E736F725F6572725F07
:10583000636E74203D20300A0047312045332046F6
:1058400032303000473120452D3320463230300091
:105850006673656E736F725F6175746F6C6F616490
:105860005F636865636B5F7374617274202D206180
:1058700075746F6C6F616420454E41424C45440A1B
:10588000006673656E736F725F6175746F6C6F61C4
:10589000645F636865636B5F73746F70202D206154
:1058A00075746F6C6F61642044495341424C4544A8
:1058B0000A006673656E736F725F636865636B5F22
:1058C0006175746F6C6F6164203D20747275652022
:1058D0002121210A002079645F6D696E3D257520C4
:1058E00079645F6D61783D25752079645F617667C5
:1058F0003D25752073685F6176673D25750A002038
:1059000073745F73756D3D25752079645F73756D74
:105910003D25752065725F73756D3D257520657237
:105920005F6D61783D256868750A006673656E7302
:105930006F725F6F715F726573756C742025530AA7
:10594000002073685F617667203D202568687520B8
:1059500025530A002079645F717561203D2025750B
:105960002025530A002079645F646576203D202558
:10597000750A002079645F6D696E203D20257520D1
:1059800025530A002079645F6D6178203D202575DC
:105990002025530A002079645F617667203D202529
:1059A0006868752025530A002065725F6D61782054
:1059B0003D20256868752025530A002065725F73B5
:1059C000756D203D2025752025530A006673656E90
:1059D000736F725F6F715F726573756C740A00220A
:1059E000206661696C65643A20427566666572205E
:1059F00066756C6C21002200256920686F757273D2
:105A0000202569206D696E757465730054494D4594
:105A10004F55543A004D3131300046756C6C205270
:105A2000582042756666657200656E717565696EAF
:105A30006720220053544F505045442E200050728E
:105A4000696E7465722073746F707065642064751C
:105A50006520746F206572726F72732E20466978AC
:105A600020746865206572726F7220616E642075A3
:105A70007365204D39393920746F207265737461F4
:105A800072742E202854656D70657261747572652C
:105A90002069732072657365742E205365742069C4
:105AA00074206166746572207265737461727469C2
:105AB0006E6729004E6F20436865636B73756D20B8
:105AC00077697468206C696E65206E756D626572A9
:105AD0002C204C617374204C696E653A2000636819
