:100000000C94B9370C94EA370C94EA370C94EA371D
:100010000C94EA370D94F70C0C94EA370C94EA37F9
:100020000D948B100C94EA370C94EA370C94EA3751
:100030000C94EA370C94EA370D94B1710C9431D9D1
:100040000C94EA370D94CC3F0C94EA370C94EA37C1
:100050000C94EA370C94EA370C94EA370D9448373D
:100060000C94EA370C9426D10C94EA370C94EA37B6
:100070000C94EA370C94EA370C94EA370C94EA377C
:100080000C94EA370C94EA370C94EA370C94EA376C
:100090000C94E2D00C94EA370C94EA370C94EA37CB
:1000A0000C94EA370C94EA370C94EA370C94EA374C
:1000B0000C94EA370C94EA370C94EA370C94EA373C
:1000C0000C94EA370C94EA370C94EA370C9408D570
:1000D0000C94EA370C94EA370C94EA370C94EA371C
:1000E0000C94EA37C947CC47CF47D247D547D847C2
:1000F000DB477948AC48E148164949497C49AF4952
:10010000725478547E548954945419559F54A85469
:10011000B154BC54C754D254E254ED541955F85458
:1001200003550E55A4EBADEB52EB21EBF1EA79EE62
:10013000D0EBE7EC6DEDC7EDE3ED1AEE61015B028C
:10014000DF017501510265015F014D01430143016A
:10015000A1014301A1015901B901EB0173012D0274
:100160008501FF0165024502E9018B0163029701E8
:10017000A7015D0289026502BB011F025D017B02CE
:100180002702B70133023F018D01110257028D0290
:10019000C9011702AB016F02730293015501A5015A
:1001A000770225024F018B024F024501BF017D01FD
:1001B000084AD73B3BCE016E84BCBFFDC12F3D6CCE
:1001C00074319ABD56833DDA3D00C77F11BED9E434
:1001D000BB4C3E916BAAAABE000000803F05A84C14
:1001E000CDB2D44EB93836A9020C50B991868808E0
:1001F0003CA6AAAA2ABE000000803F07634236B789
:100200009BD8A71A39685618AEBAAB558C1D3CB7A7
:10021000CC5763BD6DEDFD753EF6177231BF000022
:1002200000803F08000000BE922449123EABAAAAFB
:100230002ABECDCCCC4C3E00000080BEABAAAAAA00
:100240003E00000000BF000000803F0000000000F2
:10025000084178D3BB4387D1133D190E3CC3BD423F
:1002600082AD2B3E68EC8276BED98FE1A93E4C80F0
:10027000EFFFBE01C4FF7F3F0000000000000D94AF
:10028000173F0D94096A0D9473340D94176D0D94F6
:10029000576A0D9403350D9465890D94F3240D94DC
:1002A000086D0D94F87B0D94C7690D94A46C0D94A2
:1002B0007B350D9479340D94FE6A0D946F350D9451
:1002C000BE240D9439240D949F2E0D9481240D94F9
:1002D00018350D9475350D94CE250D941B360D945F
:1002E00006950D947F350D943D350D944C240D9459
:1002F000508B0D944C940D941B950D94396D0D9469
:100300002B920D9420360D94766B0D9430350D9410
:10031000FECC0D94E96B0D944B350D941D3F0D945F
:10032000F42F0D942F310D94996C0D94082B0D948E
:1003300053350D94958E0D94256A0D9444360D9485
:10034000B3970D9476340D9418290D94D36C0D94B5
:1003500059350D9484350D94646C0D94A0950D94CD
:1003600090680D94316A0D94928A0D940A8E0D94C2
:10037000E93E0D947C340D9467350D94A16A0D947B
:10038000286D0D941B6C0D94A78A0D94E98A0D9429
:100390005D210D944D3F0D943A6B0D94EC870D94B7
:1003A000962E0D94CB8F0D94FB690D94D1690D940D
:1003B000A5910D94E6920D9433800D943A280D94F6
:1003C00043240D94D7870D94B12E0D9454930D941E
:1003D00045300D9445350D943A350D94E22F0D942A
:1003E000B76B0D9463870D94C9930D940E290D94EA
:1003F000C0320D946E7F0D940F360D94B3940D940E
:1004000036350D94F4690D94D4340D94B9920D944D
:10041000026A0D94FB2A0D94E6930D94BC340D945E
:1004200003940D94233F0D942F360D948F930D94C8
:10043000643F0D94388E0D9445930D940A350D94B8
:100440006B350D9404290D9476920D94FA6C0D94ED
:10045000E33E0D94866D0D94F7870D942C350D9425
:1004600096950D9425360D94FB3E0D945F3B0D94AF
:10047000B6210D9403360D94F5340D9411350D9479
:10048000136A0D9491680D94E8760D9441350D949E
:1004900009360D94267C0D9488690D942A360D94A6
:1004A0000D6D0D9464240D94FD350D9434930D94CD
:1004B000313F0D94CA870D943D240D945D350D9404
:1004C000A68F0D94AC930D944F350D9474350D9407
:1004D000F48E0D94A82E0D94668E0D94D92B0D9448
:1004E0007A6C0D944F2C0D948C6C0D94EC340D940F
:1004F000F46C0D9472930D94D53E0D94BB280D941D
:1005000020940D94B9C40D9415360D9434360D9481
:10051000FC340D9461350D940B6D0D943F3F6E616D
:100520006E00696E66004E414E494E495459494E1F
:1005300046CDCCCC3D0AD7233C17B7D13877CC2B4E
:10054000329595E6241FB14F0A000020410000C8F3
:100550004200401C4620BCBE4CCA1B0E5AAEC59D74
:100560007400407A10F35A00A0724E18090010A5CA
:10057000D4E80000E87648170000E40B54020000BD
:10058000CA9A3B000000E1F5050000809698000043
:100590000040420F000000A086010000001027006C
:1005A000000000E803000000006400000000000AF2
:1005B00000000000000100000000002C76D888DC5C
:1005C000674F0823DFC1DFAE59E1B1B796E5E3E439
:1005D00053C63AE651997696E8E6C28426EB898CB2
:1005E0009B62ED407C6FFCEFBC9C9F40F2BAA56F14
:1005F000A5F490055A2AF75C936B6CF9676DC11BE3
:10060000FCE0E40D47FEF520E6B500D0ED902E03AA
:1006100000943577050080841E080000204E0A00F3
:100620000000C80C333333330F986E12831141EF3F
:100630008D2114893BE65516CFFEE6DB18D1844B9D
:10064000381BF77C1D901DA4BBE424203284725E0D
:10065000228100C9F124ECA1E53D276364696E6F36
:1006600070737578585B00564F4C545F4245440098
:1006700054454D505F414D4249454E5400564F4CF4
:10068000545F5057520054454D505F50494E4441BD
:100690000054454D505F4245440054454D505F481D
:1006A0004541544552310054454D505F48454154F1
:1006B0004552300021212028693D2564204D5343B7
:1006C0004E543D2564290A0025640925640A002545
:1006D00063204D534355524143543D3078253038C3
:1006E0006C7820413D256420423D25640A00256345
:1006F000204D53434E543D25640A002563207374F6
:1007000065703D25640A002563206D7265733D2583
:10071000640A004432313330202D20544D433231AD
:1007200033300A0041444325643D2534640A0009FE
:1007300041444325643D25346409282553290A0092
:100740004439202D20526561642F577269746520E9
:100750004144430A0074656D705F70696E64613D69
:100760002564206F66667365745F7A3D25642E2567
:100770003033640A0074656D705F70696E64613D4A
:100780002564432074656D705F73686966743D25E8
:1007900064756D0A0063616C5F7374617475733D99
:1007A00025640A004438202D20526561642F577259
:1007B0006974652050494E44410A004175746F00C8
:1007C00020452F443D00416476616E6365204B3DBA
:1007D000004D3232302053256900255346696C6143
:1007E0006D656E742073657474696E67733A204426
:1007F000697361626C65640A00255346696C616DBA
:10080000656E742073657474696E67733A0A255354
:100810002020204D3230302044252E32660A00251B
:1008200053526574726163743A20533D4C656E6730
:10083000746820286D6D2920463A537065656420E0
:10084000286D6D2F6D29205A3A205A4C6966742004
:10085000286D6D290A25532020204D323037205332
:10086000252E32662046252E3266205A252E3266E7
:100870000A25535265636F7665723A20533D457879
:10088000747261206C656E67746820286D6D292014
:10089000463A537065656420286D6D2F6D290A25D1
:1008A000532020204D3230382053252E32662046EA
:1008B000252E32660A25534175746F2D5265747268
:1008C0006163743A20533D3020746F206469736112
:1008D000626C652C203120746F20696E74657270B3
:1008E00072657420657874727564652D6F6E6C79AD
:1008F000206D6F7665732061732072657472616319
:100900007473206F72207265636F766572696573A8
:100910000A25532020204D323039205325640A0007
:10092000255350494420686561746265642073658D
:100930007474696E67733A0A25532020204D333052
:10094000342050252E32662049252E32662044253B
:100950002E32660A00255350494420736574746929
:100960006E67733A0A25532020204D3330312050D2
:10097000252E32662049252E32662044252E3266E9
:100980000A00255353746570732070657220756E6C
:1009900069743A0A255320204D39322058252E32C9
:1009A000662059252E3266205A252E32662045258E
:1009B0002E32660A25534D6178696D756D20666526
:1009C00065647261746573202D206E6F726D616C49
:1009D00020286D6D2F73293A0A255320204D32307F
:1009E000332058252E32662059252E3266205A256E
:1009F0002E32662045252E32660A25534D617869D0
:100A00006D756D20666565647261746573202D2057
:100A1000737465616C746820286D6D2F73293A0AB0
:100A2000255320204D3230332058252E3266205950
:100A3000252E3266205A252E32662045252E326616
:100A40000A25534D6178696D756D20616363656C2E
:100A500065726174696F6E202D206E6F726D616CAE
:100A600020286D6D2F7332293A0A255320204D32EC
:100A700030312058256C752059256C75205A256C0D
:100A8000752045256C750A25534D6178696D756D26
:100A900020616363656C65726174696F6E202D20DF
:100AA000737465616C746820286D6D2F7332293AF8
:100AB0000A255320204D3230312058256C7520599D
:100AC000256C75205A256C752045256C750A2553B3
:100AD000416363656C65726174696F6E3A20533D62
:100AE000616363656C65726174696F6E2C20543D3F
:100AF0007265747261637420616363656C657261B1
:100B000074696F6E0A255320204D323034205325EE
:100B10002E32662054252E32660A255341647661B2
:100B20006E636564207661726961626C65733A20F8
:100B3000533D4D696E206665656472617465202859
:100B40006D6D2F73292C20543D4D696E2074726198
:100B500076656C20666565647261746520286D6DCC
:100B60002F73292C20423D6D696E696D756D207360
:100B700065676D656E742074696D6520286D7329D5
:100B80002C20583D6D6178696D756D205859206A2B
:100B900065726B20286D6D2F73292C20205A3D6DB6
:100BA0006178696D756D205A206A65726B20286DB9
:100BB0006D2F73292C2020453D6D6178696D756D11
:100BC0002045206A65726B20286D6D2F73290A25D8
:100BD0005320204D3230352053252E3266205425A7
:100BE0002E32662042252E32662058252E3266206F
:100BF00059252E3266205A252E32662045252E3262
:100C0000660A2553486F6D65206F666673657420AC
:100C1000286D6D293A0A255320204D323036205850
:100C2000252E32662059252E3266205A252E326610
:100C30000A004625642025640A004D4D55203C3DA0
:100C40002027462564202564270A00504944204176
:100C500075746F74756E652066696E697368656416
:100C6000212050757420746865206C617374204B6A
:100C7000702C204B6920616E64204B6420636F6E82
:100C80007374616E74732066726F6D2061626F762B
:100C90006520696E746F20436F6E66696775726157
:100CA00074696F6E2E6800504944204175746F74EA
:100CB000756E65206661696C6564212074696D6577
:100CC0006F75740020403A00543A00423A0050498F
:100CD00044204175746F74756E65206661696C653A
:100CE00064212054656D706572617475726520743D
:100CF0006F6F206869676800204B643A2000204BC2
:100D0000693A2000204B703A200020436C617373D5
:100D100069632050494420002054753A2000204B3C
:100D2000753A2000206D61783A2000206D696E3A96
:100D3000200020643A200020626961733A2000207C
:100D4000453A00205A3A0020593A0020453A0020FE
:100D50005A3A0020593A00583A00005A30005A31A5
:100D600000593000593100583000583100456E6448
:100D70002073746F70732064696167002E0044658E
:100D80006C6574696F6E206661696C65642C2046C1
:100D9000696C653A200046696C652064656C657411
:100DA00065643A004E6F74205344207072696E740B
:100DB000696E67005072696E7420736176656400B5
:100DC0005344207072696E7420706175736564009D
:100DD0000A002F000A006673656E736F725F72659A
:100DE00073746F72655F7072696E745F616E645F59
:100DF000636F6E74696E75650A002F2F20616374CE
:100E0000696F6E3A63616E63656C0043524153488B
:100E10005F43414E43454C0043524153485F524566
:100E2000434F5645520043524153485F5245434F4A
:100E300056455200222832290054004475706C69CE
:100E40006361746520542D636F64652069676E6FFC
:100E50007265642E0A004475706C69636174652064
:100E6000542D636F64652069676E6F7265642E0A26
:100E700000496E76616C6964205420636F64652E4E
:100E800000556E6B6E6F776E204D20636F64653A10
:100E9000202573200A006E6F2076616C69642063E0
:100EA0006F6D6D616E64002C20002C20002C2000E2
:100EB0006E2F61002C20002C20002C20006E2F6152
:100EC000002F00503A005761697420666F722050FD
:100ED000494E4441207461726765742074656D7079
:100EE000657261747572653A004C414E47205345F6
:100EF0004C20464F524345440022283129003030CF
:100F00003030303030302D303030302D30303030E7
:100F10002D303030302D30303030303030303030D7
:100F200030300020555549443A003100204558548E
:100F300052554445525F434F554E543A00507275D6
:100F40007361206933204D4B335300204D4143489A
:100F5000494E455F545950453A00312E30002062C9
:100F600061736564206F6E204D61726C696E2046FE
:100F700049524D574152455F55524C3A687474700E
:100F8000733A2F2F6769746875622E636F6D2F70C7
:100F90007275736133642F50727573612D46697277
:100FA0006D776172652050524F544F434F4C5F56DE
:100FB000455253494F4E3A004649524D57415245CA
:100FC0005F4E414D453A50727573612D4669726DA1
:100FD0007761726520004D31313320530020423A51
:100FE0000020453A00543A0020413A0020503A008F
:100FF0002042403A0020403A00202F003A0020547E
:1010000000202F0020423A00202F006F6B20543A1E
:10101000002569206D696E2C2025692073656300A9
:10102000496E76616C6964204D20636F64653A2077
:101030002573200A00556E6B6E6F776E2047206314
:101040006F64653A202573200A004D65736820623D
:101050006564206C6576656C696E67206E6F7420C0
:101060006163746976652E000A002020000A4D65D0
:1010700061737572656420706F696E74733A000AEB
:101080005A20736561726368206865696768743A9D
:1010900020002C004E756D20582C593A2000476FC7
:1010A00020686F6D652066696E6973686564004DC0
:1010B00065736820626564206C6576656C696E672F
:1010C0002061637469766174656400557073616D45
:1010D000706C652066696E6973686564000A00203B
:1010E00020000A4D6561737572656420706F696ECA
:1010F00074733A000A5A20736561726368206865E8
:10110000696768743A20002C004E756D20582C5980
:101110003A20000A002020000A4D6561737572654F
:101120006420706F696E74733A000A5A20736561A7
:10113000726368206865696768743A20002C004E05
:10114000756D20582C593A2000426564206C6576F4
:10115000656C696E6720636F7272656374696F6E28
:101160002066696E697368656400206D6963726FDB
:101170006E732E004D69644C656674202068203DB6
:1011800000206D6963726F6E732E00526561724C40
:1011900065667420202067203D00206D6963726FB2
:1011A0006E732E005265617243656E747220206604
:1011B000203D00206D6963726F6E732E0052656171
:1011C000725269676874202065203D00206D696354
:1011D000726F6E732E004D696452696768742020C7
:1011E0002064203D00206D6963726F6E732E00468F
:1011F000726F6E7452696768742063203D00206DC1
:101200006963726F6E732E0046726F6E7443656E03
:1012100074722062203D00206D6963726F6E732EC0
:101220000046726F6E744C656674202061203D002C
:10123000206D6963726F6E730045786365737369BF
:10124000766520626564206C6576656C696E6720E2
:10125000636F7272656374696F6E3A2000426564F1
:1012600020636F7272656374696F6E20646174616C
:10127000206E6F742076616C69640A004265642098
:10128000636F7272656374696F6E2064617461204C
:1012900076616C69640A00626162797374657020BA
:1012A0006170706C69656400636C65616E20757057
:1012B0002066696E697368656420004D4553485F18
:1012C000484F4D455F5A5F5345415243483A2000CD
:1012D0004D65736820626564206C6576656C696E27
:1012E00067207768696C65206C6F6F702066696E27
:1012F00069736865642E0000206F66667365743AD2
:1013000020006D65736820626564206C6576656C8D
:10131000696E673A20000A00593A200000583A20C6
:1013200000426564206C6576656C696E6720666155
:10133000696C65642E2053656E736F7220747269D8
:1013400067676572656420746F6F20686967682ECF
:101350000A00426564206C6576656C696E6720667C
:1013600061696C65642E2053656E736F72206469C9
:1013700073636F6E6E6563746564206F7220636162
:10138000626C652062726F6B656E2E0A0061667416
:10139000657220636C616D70696E673A205B2566CB
:1013A0003B25665D0A003A206E6F20787920636CD9
:1013B000616D70696E670A003A20787920636C610C
:1013C0006D7065642E0A005B25663B25665D0A002C
:1013D000426564206C6576656C696E672C20706F61
:1013E000696E743A2025642C2063616C69627261B5
:1013F00074696F6E205A2073746F72656420696E11
:1014000020656570726F6D3A2025642C2063616CD5
:101410006962726174696F6E207A3A202566200ACB
:10142000005A206A69747465722064617461206670
:10143000726F6D205A2063616C2E206E6F7420765F
:10144000616C69642E0A005A206A6974746572209E
:10145000646174612066726F6D205A2063616C2E26
:101460002076616C69642E0A004E6F20636C616D9A
:1014700070696E6720666F7220666972737420638C
:10148000616C6962726174696F6E20706F696E74ED
:101490002E0A0046697273742063616C696272611E
:1014A00074696F6E20706F696E7420636C616D700B
:1014B00065642E0A0047323820573020286669724A
:1014C0007374290050494E44412070726F62652048
:1014D00063616C6962726174696F6E2073746172AA
:1014E0007400473238205730004D32340053455491
:1014F0005F43484F505F005345545F535445505F1E
:10150000005345545F574156455F00544D435F00BB
:1015100043524153485F002564206279746573200B
:101520007772697474656E20746F20454550524F10
:101530004D20617420616464726573732030782576
:10154000303478004433202D20526561642F577267
:1015500069746520454550524F4D0A0020436F7510
:101560006E7420583A20005344207072696E74697A
:101570006E67206279746520004E6F7420696E205A
:101580006661726D206D6F64652E0025643A2025BA
:10159000640A0041637469766520457874727564E5
:1015A00065723A2000496E76616C696420657874D2
:1015B0007275646572005A204F66667365740055D3
:1015C0006E6B6E6F776E20636F6D6D616E643A2027
:1015D00022004D32303020496E76616C696420659E
:1015E0007874727564657220007A5F6D61783A2054
:1015F000007A5F6D696E3A2000795F6D61783A20FC
:1016000000795F6D696E3A2000785F6D61783A20ED
:10161000006F70656E00545249474745524544007B
:10162000785F6D696E3A20005265706F7274696EF2
:101630006720656E6473746F702073746174757362
:10164000000053494C454E54004E4F524D414C0002
:101650002553204D4F44453A2050657263656E74A2
:1016600020646F6E653A2025643B207072696E7449
:101670002074696D652072656D61696E696E6720A1
:10168000696E206D696E733A2025640A00456E64A8
:101690002066696C65206C69737400426567696EC9
:1016A0002066696C65206C697374000A50494E4469
:1016B000412074656D70657261747572653A20259C
:1016C0002E3166205A20736869667420286D6D2952
:1016D0003A20252E3366000A537465703A2025643B
:1016E0002F360A000A537465703A2025642F36207D
:1016F00028736B6970706564290A50494E44412013
:1017000074656D70657261747572653A2025642028
:101710005A20736869667420286D6D293A300A0072
:101720000A5A45524F3A20252E33660A00737461D7
:1017300072742074656D70657261747572653A209B
:10174000252E31660A0025642020252E32660025CC
:101750005320583A20252E356620593A20252E351B
:1017600066205A3A20252E35660A00536C6565704E
:101770002E2E2E004E6F7420696E206661726D20D1
:101780006D6F64652E0025640045303A2564205253
:10179000504D0A50524E303A25642052504D0A00A6
:1017A0002564005072657373206B6E6F6220746FD6
:1017B0002070726568656174206E6F7A7A6C65203E
:1017C000616E6420636F6E74696E75652E00506C77
:1017D0006561736520707265737320746865206B32
:1017E0006E6F6220746F20756E6C6F616420666925
:1017F0006C616D656E740052656D6F7665206F6CFF
:10180000642066696C616D656E7420616E64207021
:101810007265737320746865206B6E6F6220746FDD
:10182000207374617274206C6F6164696E67206EDE
:1018300065772066696C616D656E742E00616E64FB
:1018400020707265737320746865206B6E6F620020
:10185000496E736572742066696C616D656E7400A3
:10186000436F6C6F72206E6F7420636F727265636A
:10187000740046696C616D656E74206E6F74206CC7
:101880006F61646564004368616E67656420636FBF
:1018900072726563746C793F004C6F6164696E6746
:1018A00020636F6C6F72004368616E6765207375AB
:1018B00063636573732100506C65617365206F709D
:1018C000656E2069646C657220616E642072656D5E
:1018D0006F76652066696C616D656E74206D616EF2
:1018E00075616C6C792E005761732066696C616D4F
:1018F000656E7420756E6C6F6164207375636365CB
:10190000737366756C3F00506C656173652075700C
:1019100067726164652E004E6577206669726D7727
:101920006172652076657273696F6E206176616998
:101930006C61626C653A0057616974696E67206614
:101940006F722050494E44412070726F626520636F
:101950006F6F6C696E6700437261736820646574B1
:1019600065637465642E20526573756D65207072B1
:10197000696E743F004372617368206465746563C7
:101980007465642E004578747275646572004368EE
:101990006F6F73652065787472756465723A004381
:1019A000686F6F73652066696C616D656E743A006F
:1019B0004E6F206D6F76652E005761697420666FDB
:1019C0007220757365722E2E2E00536F6D65207018
:1019D000726F626C656D20656E636F756E74657293
:1019E00065642C205A2D6C6576656C696E67206580
:1019F0006E666F72636564202E2E2E00506C6561DA
:101A000073652072656D6F766520737465656C20F3
:101A100073686565742066726F6D206865617462B5
:101A200065642E00537461626C6520616D62696546
:101A30006E742074656D70657261747572652032A4
:101A4000312D323643206973206E656564656420EC
:101A500061207269676964207374616E64206973C0
:101A60002072657175697265642E00506C656173D2
:101A7000652072756E2058595A2063616C696272D4
:101A80006174696F6E2066697273742E0000004382
:101A9000616C63756C617465206F66667365742034
:101AA000616E6420736B65772072657475726E6900
:101AB0006E6720726573756C743A000000292C20E3
:101AC0006572726F723A20002C2000293B207461ED
:101AD000726765743A2028002C2000293B206D6530
:101AE0006173757265642D636F727265637465648A
:101AF0003A2028002C20006D656173757265643A88
:101B0000202800706F696E74202300446966666542
:101B100072656E636520616674657220636F7272B0
:101B2000656374696F6E3A2000002C200063656E57
:101B30007465722C2061646A75737465643A200060
:101B4000002C20005920766563746F722C2061642C
:101B50006A75737465643A2000002C200058207662
:101B60006563746F722C2061646A75737465643A7E
:101B7000200000636E74725B315D3A0000636E7426
:101B8000725B305D3A0046696E616C20636E747200
:101B90002076616C7565733A0000000077793A0031
:101BA00000636E74725B315D3A0000576569676867
:101BB000745F793A000077783A0000636E74725B64
:101BC000305D3A00005765696768745F783A0000D5
:101BD00056657279206C6974746C6520736B6577D7
:101BE0002064657465637465642E204F7274686F39
:101BF000676F6E616C697A696E67207468652061D1
:101C00007865732E00004D61782E206572726F72B8
:101C1000206575636C696469616E3A004D61782E68
:101C2000206572726F7220593A004D61782E2065DE
:101C300072726F7220583A004D61782E2065727270
:101C40006F72733A0000002C206572726F72205917
:101C50003A20002C206572726F7220583A2000657D
:101C600072726F723A200029002C2000293B2074E8
:101C700061726765743A2028002C2000293B20639C
:101C80006F727265637465643A2028002C20006DC1
:101C9000656173757265643A202800002C206572B6
:101CA000726F72203E206D61782E206572726F72A5
:101CB000206575636C696469616E00506F696E744C
:101CC000206E6F74206F6E20666972737420726F5D
:101CD00077003A00706F696E742023004572726F4E
:101CE0007220616674657220636F727265637469D5
:101CF0006F6E3A2000002C200063656E74657220C0
:101D00006E65772C20696E7665727465643A200082
:101D1000002C20005920766563746F72206E657701
:101D20002C20696E7665727465643A2000002C2060
:101D3000005820766563746F72206E65772C206979
:101D40006E7665727465643A2000002C2000636F23
:101D50007272656374696F6E20616E676C65733A49
:101D60002000002C2000636F72726563746564202C
:101D7000616E676C65733A2000002C2000636F72FF
:101D800072656374656420782F793A2000002C20F6
:101D9000002C20002C20003B20636F72726563745E
:101DA000696F6E20766563746F723A20006974659E
:101DB000726174696F6E3A200000292C206572727E
:101DC0006F723A20002C2000293B207461726765F5
:101DD000743A2028002C2000206D656173757265AF
:101DE000643A202800706F696E74202300002C2054
:101DF0000063656E7465722C20696E697469616C2C
:101E00003A2000002C20005920766563746F722CF4
:101E100020696E697469616C3A2000002C200058BA
:101E200020766563746F722C20696E697469616CC9
:101E30003A200063616C63756C617465206D616349
:101E400068696E6520736B657720616E64206F66CC
:101E500066736574204C530078797A63616C5F6DAA
:101E6000656173737572655F656E7465720A00787B
:101E7000797A63616C5F73706972616C3820637822
:101E80003D25642063793D2564207A303D2564201A
:101E9000647A3D2564207261646975733D25642010
:101EA00061643D25640A0078797A63616C5F7365CB
:101EB000617263685A206E6F207369676E616C0A85
:101EC00020783D256C6420793D256C64207A3D2581
:101ED0006C640A00204F4E2D5349474E414C2061FF
:101EE0007420783D256420793D2564207A3D256461
:101EF0002061643D25640A0078797A63616C5F73C0
:101F000065617263685A20783D256C6420793D25AF
:101F10006C64207A3D256C640A000A002530327812
:101F20000078797A63616C5F7363616E5F70697862
:101F3000656C735F33327833322063783D256420DB
:101F400063793D2564206D696E5F7A3D2564206D5F
:101F500061785F7A3D25640A00202532642025647B
:101F60000A000A002530327800206D696E3D256434
:101F7000206D61783D2564206469663D25640A0012
:101F80006D61785F633D253264206D61785F6C3DE3
:101F900025640A006D61785F633D2564206D61787A
:101FA0005F723D2564206D61785F6D617463683D8B
:101FB00025640A0020783D256420793D2564207A37
:101FC0003D25640A00207061747465726E20666F2E
:101FD000756E642061742025642025640A00000069
:101FE000F000F801FC03FE07FE07FE07FE07FC03F6
:101FF000F801F000000073697A656F6628746F74E9
:10200000616C293D25640A0073697A656F662862F0
:102010006C6F636B5F627566666572293D25640A45
:102020000078797A63616C5F6D6561737375726551
:102030005F6C656176650A00706F696E743D25643A
:1020400020783D256420793D2564207A3D25640A69
:102050000058025802584D584DB004F055F055B094
:102060000478797A63616C5F66696E645F62656447
:102070005F696E64756374696F6E5F73656E736FAD
:10208000725F706F696E745F787920783D256C643B
:1020900020793D256C64207A3D256C640A005361EB
:1020A00076696E67206265642063616C6962726143
:1020B00074696F6E20766563746F727320746F201D
:1020C000454550524F4D0050657270656E646963AE
:1020D000756C6172697479005A65726F20706F69EE
:1020E0006E7420636F7272656374696F6E3A005923
:1020F00020766563746F72206C656E6774683A0051
:102100005820766563746F72206C656E6774683AE8
:1021100000203C20005741524E494E473A2046721B
:102120006F6E7420706F696E74206E6F74207265AC
:1021300061636861626C652E205920636F6F726401
:10214000696E6174653A000070745B315D3A0070CD
:10215000745B305D3A00004D656173757265643A79
:10216000000063757272656E745F706F7369746975
:102170006F6E5B5A5F415849535D3A000063757258
:1021800072656E745F706F736974696F6E5B595FAF
:10219000415849535D3A000063757272656E745F11
:1021A000706F736974696F6E5B585F415849535D16
:1021B0003A00000040410000C04000005C430000C5
:1021C000C04000005C430000464300004041000066
:1021D0004643417420592D34004174205930000089
:1021E000636E74725B315D3A0000636E74725B30D3
:1021F0005D3A00007665635F795B315D3A00007699
:1022000065635F795B305D3A00007665635F785B9C
:10221000315D3A00007665635F785B305D3A005669
:102220006563746F72733A200049746572617469F2
:102230006F6E3A2000206F66203400536561726330
:1022400068696E67206265642063616C69627261AF
:1022500074696F6E20706F696E740073746172744C
:102260000A006164635F696E69740A0000202D20B2
:10227000496E76616C696420657874727564657204
:10228000206E756D6265722021001B5B324A1B5BFC
:10229000313B31484F726967696E616C20507275CD
:1022A00073612069331B5B323B3348507275736135
:1022B00020526573656172636800466163746F7272
:1022C000792052455345540044495341424C4544BA
:1022D0000A00454E41424C4544004653656E736FBB
:1022E000722025530A004D6179203130203230317F
:1022F0003900436F6D70696C65643A20002854683A
:102300006F6666706175302C4829004D6179203107
:102310003020323031392030303A33343A353800D9
:1023200020332E372E302D323230310A00205570B6
:102330006C6F616420696E2070726F677265737371
:1023400000205A3A0020593A0020583A004352419E
:1023500053485F44455445435445445859004352FB
:102360004153485F44455445435445445900435202
:102370004153485F444554454354454458004D3209
:1023800039005072757361206933204D4B335320EF
:102390004F4B2E00426C61636B6F7574206F6363EB
:1023A00075727265642E205265636F766572207057
:1023B00072696E743F0053656C6674657374207740
:1023C000696C6C2062652072756E20746F20636189
:1023D0006C696272617465206163637572617465B2
:1023E0002073656E736F726C657373207265686FAE
:1023F0006D696E672E00546865726520697320737D
:1024000074696C6C2061206E65656420746F206D4A
:10241000616B65205A2063616C6962726174696FD7
:102420006E2E20506C6561736520666F6C6C6F77E3
:1024300020746865206D616E75616C2C2063686125
:10244000707465722046697273742073746570735A
:102450002C2073656374696F6E2043616C696272CE
:102460006174696F6E20666C6F772E0044697374B7
:10247000616E6365206265747765656E207469704E
:10248000206F6620746865206E6F7A7A6C652061B3
:102490006E6420746865206265642073757266617D
:1024A000636520686173206E6F74206265656E20BD
:1024B000736574207965742E20506C656173652096
:1024C000666F6C6C6F7720746865206D616E7561E6
:1024D0006C2C206368617074657220466972737435
:1024E0002073746570732C2073656374696F6E203C
:1024F0004669727374206C617965722063616C69DE
:1025000062726174696F6E2E005072696E746572CA
:1025100020686173206E6F74206265656E20636150
:102520006C69627261746564207965742E20506CE8
:102530006561736520666F6C6C6F772074686520C9
:102540006D616E75616C2C206368617074657220BA
:1025500046697273742073746570732C207365639D
:1025600074696F6E2043616C6962726174696F6E29
:1025700020666C6F772E004F6C64207365747469ED
:102580006E677320666F756E642E20446566617594
:102590006C74205049442C20457374657073206519
:1025A00074632E2077696C6C206265207365742ECD
:1025B000005761726E696E673A20626F74682070AE
:1025C00072696E746572207479706520616E642022
:1025D0006D6F74686572626F617264207479706582
:1025E000206368616E6765642E005761726E696E64
:1025F000673A207072696E74657220747970652014
:102600006368616E6765642E005761726E696E67FC
:102610003A206D6F74686572626F617264207479BC
:102620007065206368616E6765642E004578746527
:10263000726E616C2053504920666C61736820573C
:102640003235583230434C206E6F7420726573708F
:102650006F6E64696E672E004372617368446574BF
:102660006563742044495341424C454400437261C0
:10267000736844657465637420454E41424C45441B
:1026800021002020506C616E6E6572427566666531
:102690007242797465733A20002046726565204D58
:1026A000656D6F72793A2000207C20417574686FE7
:1026B000723A2000204C6173742055706461746517
:1026C000643A200020536F6674776172652052650A
:1026D00073657400205761746368646F6720526586
:1026E000736574002042726F776E206F757420528C
:1026F00065736574002045787465726E616C205254
:102700006573657400506F776572557000657272FD
:102710006F722077726974696E6720746F206669C2
:102720006C6500656E6473746F7073206869743AC9
:102730002000446F6E6520736176696E672066695C
:102740006C652E006F6B007C3C3E5E2B3D3F2F5B2B
:102750005D3B2C2A225C0022206661696C65643A2C
:10276000204275666665722066756C6C21002200D9
:10277000256920686F757273202569206D696E75F3
:102780007465730054494D454F55543A004D3131ED
:10279000300046756C6C2052582042756666657232
:1027A00000656E717565696E67202200446F6E6505
:1027B000207072696E74696E672066696C6500507E
:1027C00072696E7465722073746F707065642064D2
:1027D000756520746F206572726F72732E20466962
:1027E0007820746865206572726F7220616E642053
:1027F000757365204D39393920746F207265737493
:102800006172742E202854656D70657261747572E2
:10281000652069732072657365742E20536574207A
:102820006974206166746572207265737461727474
:10283000696E6729004E6F204C696E65204E756D7C
:10284000626572207769746820636865636B73756D
:102850006D2C204C617374204C696E653A20004EDB
:102860006F20436865636B73756D207769746820AA
:102870006C696E65206E756D6265722C204C61739B
:1028800074204C696E653A2000636865636B7375EC
:102890006D206D69736D617463682C204C61737475
:1028A000204C696E653A20004C696E65204E756D4E
:1028B000626572206973206E6F74204C617374209E
:1028C0004C696E65204E756D6265722B312C204C03
:1028D000617374204C696E653A200053544F505018
:1028E00045442E20000000803F5555854100008062
:1028F0003F0000C84100000040555505420000C09F
:102900003F000048420000204055558542000070BD
:10291000C1ABAAA642000060C10000A0410000C0F7
:10292000C00000204100002041ABAA3A4100002035
:10293000C15555D540000048C2555505424D373068
:1029400031204530004D373031204531004D373092
:1029500031204532004D373031204533004D37307E
:1029600031204534004D373031204534004D37306B
:1029700031204533004D373031204532004D37305E
:1029800031204531004D3730312045300046696CEB
:10299000616D656E74206E72206F7574206F662095
:1029A00072616E676521004164646974696F6E616C
:1029B0006C206C6F616420617474656D7074206E3E
:1029C000722E2025640A00773235783230636C5FCE
:1029D00063666D0A00773235783230636C5F656EFE
:1029E0007465720A00506C656173652072656D6F65
:1029F00076652066696C616D656E7420616E642019
:102A00007468656E20707265737320746865206BDE
:102A10006E6F622E00456A656374696E6720666931
:102A20006C616D656E74004D4D55206C6F61642056
:102A30006661696C656420202020200020746F6F1F
:102A4000206C6F6E6720657874727573696F6E2085
:102A500070726576656E7465640020636F6C6420C7
:102A6000657874727573696F6E2070726576656EC5
:102A70007465640055534152543220727820467573
:102A80006C6C2121210A0053657474696E67732090
:102A900053746F7265640053746F7265642073655C
:102AA0007474696E677320726574726965766564A3
:102AB0000048617264636F64656420446566617593
:102AC0006C742053657474696E6773204C6F616415
:102AD000656400563200000000C8420000C8420091
:102AE00000C84300008C43000048430000484300F6
:102AF0000040410000F042E8030000E8030000C885
:102B00000000008813000000409C4400409C4400EA
:102B100000000000000000204E00000000204100E6
:102B2000002041CDCCCC3E00002040000000000041
:102B300000000000000000CDCCCC3E3D0A8141FFEA
:102B400008433EB099AB438F42FC42E65A343F4CB7
:102B500062B0450000000000404000003442000028
:102B600000000000000000000041000000E03F0005
:102B700000C8420000C842000040410000F042C0CE
:102B8000030000C0030000C80000008813000043D9
:102B90006F6E74696E7565207769746820616E6FF9
:102BA0007468657220626F7764656E3F002500204F
:102BB00020202020200020202020202000455241DD
:102BC00053494E4720616C6C20646174610046611A
:102BD00063746F72792052455345540000007F435F
:102BE000008054430000524300000000000080C0F9
:102BF0009A99193E00000000000080C09A99193E81
:102C0000746D63323133305F686F6D655F656E740C
:102C1000657228617865735F6D61736B3D307825EF
:102C2000303278290A00746D63323133305F686F57
:102C30006D655F6578697420746D63323133305F20
:102C400073675F686F6D696E675F617865735F6DED
:102C500061736B3D3078253032780A007265737588
:102C60006C742076616C75653A2025640A002069D1
:102C70003D25326420636E743D2532642076616C9C
:102C80003D2532640A00636C7573746572733A0A89
:102C90000020693D25326420737465703D253264DF
:102CA0000A00736F727465642073616D706C657374
:102CB0003A0A003A20002020202020202020202036
:102CC00020202020202020202000203A200020202A
:102CD00020202020202020202020202020202020F4
:102CE0002020002020202020202020202020202004
:102CF00000257300544D4320445249564552204FFD
:102D000056455254454D500025632533642F2564A4
:102D10002563005A25362E326620005A2020202DA9
:102D20002D2D200025632533642525002D2D2D0014
:102D300025336868640025335325337325250055F2
:102D400053420020202000205344002025753E25BA
:102D50007500203F3E257500204625750020463F22
:102D60000020463020200025632D2D3A2D2D2020D7
:102D700000256325337568202563256300256325B9
:102D80003032753A25303275256325630050494E3F
:102D900044412048656174696E670054656D702E0A
:102DA0002063616C2E202020202020202020200065
:102DB00043616C6962726174696F6E20646F6E65E5
:102DC0000043616C6962726174696E67205A0042E7
:102DD000656420646F6E65004265642048656174B7
:102DE000696E670048656174696E6720646F6E651F
:102DF0002E0048656174696E6700457872656D657F
:102E0000207370616E206F6620746865205A20768A
:102E1000616C75657321006F6B0A00737461727465
:102E20000A004D4D5532206669726D7761726520DA
:102E300076657273696F6E20696E76616C69642E57
:102E40002052657175697265642076657273696F69
:102E50006E3A206275696C64206E756D62657220D1
:102E60002564206F72206869676865722E0066733A
:102E7000656E736F725F73746F705F616E645F73A2
:102E80006176655F7072696E740A004D4D55203D24
:102E90003E20276F6B270A004D4D55203D3E2027D1
:102EA0006F6B270A002564004D4D55203D3E2027BD
:102EB0006F6B272C20726573756D65207072696E5B
:102EC000740A004D4D5520726574727920617474D6
:102ED000656D7074206E722E2025640A004D4D556C
:102EE000203D3E20276F6B270A00410A004D4D55BB
:102EF000203C3D202741270A004D363030004D361A
:102F00003030204155544F00505255534120667384
:102F1000656E736F725F7265636F766572002568A8
:102F2000687500410A004D4D55203C3D2027412742
:102F30000A0050300A004D25640A004D4D55203CD2
:102F40003D20274D2564270A0057300A004D4D5576
:102F5000203C3D20275730270A0053330A004D4DAF
:102F600055203C3D20275333270A0052300A004D9C
:102F70004D55203C3D20275230270A004B25640A3E
:102F8000004D4D55203C3D20274B2564270A004528
:102F900025640A004D4D55203C3D202745256427DA
:102FA0000A0055300A004D4D55203C3D2027553034
:102FB000270A0043300A004D4D55203C3D20274351
:102FC00030270A004C25640A004D4D55203C3D2019
:102FD000274C2564270A005425640A004D4D5520CE
:102FE0003C3D2027542564270A004D4D55202D20B7
:102FF000454E41424C454400256868750050300AF2
:10300000004D310A004D4D55203C3D20274D3127C4
:103010000050300A004D4D552076657273696F6E11
:103020002076616C6964004D4D55203D3E2027257A
:10303000646F6B270A0025750053320A004D4D5509
:10304000203C3D2027533227004D4D55203D3E204A
:103050002725646F6B270A002575004D4D55206E9E
:103060006F7420726573706F6E64696E67202D20B7
:1030700044495341424C45440053310A004D4D559B
:10308000203C3D2027533127004D4D55203D3E200B
:1030900027737461727427006572726F723A2075BB
:1030A0006E6B6E6F776E206D6F76650A006E6F20A7
:1030B0006D6F76650A00542D636F64650A00756E46
:1030C0006C6F61640A006C6F61640A006D6D755FFE
:1030D0006765745F726573706F6E7365202D206213
:1030E0006567696E206D6F76653A20006D6D755F5E
:1030F0006765745F726573706F6E736528292072DF
:10310000657475726E696E673A2025640A00556EA3
:103110006C6F6164696E672066696E697368656467
:1031200020320A00556E6C6F616420320A00556EC1
:103130006C6F6164696E672066696E697368656447
:1031400020310A00556E6C6F616420310A004D4DCC
:10315000552073746172747320726573706F6E643E
:10316000696E670A004D4D55206E6F74207265734D
:10317000706F6E64696E670A00426564206C6576E4
:10318000656C696E67206661696C65642E205365A5
:103190006E736F72206469646E74207472696767FD
:1031A00065722E20446562726973206F6E206E6FA7
:1031B0007A7A6C653F2057616974696E6720666F23
:1031C000722072657365742E00206F662039004D81
:1031D0006561737572696E67207265666572656E8A
:1031E000636520686569676874206F662063616C39
:1031F0006962726174696F6E20706F696E740050DD
:103200006C656173652075706461746520666972B0
:103210006D7761726520696E20796F7572204D4DF2
:1032200055322E2057616974696E6720666F72206F
:1032300072657365742E004D4D55204F4B2E2052F4
:103240006573756D696E672E2E2E004D4D55204F9E
:103250004B2E20526573756D696E6720706F7369B0
:1032600074696F6E2E2E2E004D4D55204F4B2E2023
:10327000526573756D696E672074656D70657261F6
:10328000747572652E2E2E0046697820746865204C
:10329000697373756520616E64207468656E207053
:1032A0007265737320627574746F6E206F6E204D3B
:1032B0004D5520756E69742E0050726573732074BD
:1032C0006865206B6E6F6220746F20726573756D18
:1032D00065206E6F7A7A6C652074656D70657261B9
:1032E000747572652E004D4D55206E6565647320B2
:1032F0007573657220617474656E74696F6E2E00EB
:1033000025632533642F2564256300746D63323192
:1033100033305F676F746F5F73746570202564204E
:103320002564202564202564200A001F1F1F1F1FFD
:103330001F1F1F2E002E004E6F7720667265736868
:103340002066696C653A20004E6F7720646F696E65
:10335000672066696C653A20002220706F73002236
:1033600020706172656E743A2200535542524F5577
:1033700054494E452043414C4C207461726765743A
:103380003A2200747279696E6720746F2063616CF1
:103390006C207375622D67636F64652066696C6568
:1033A00073207769746820746F6F206D616E792067
:1033B0006C6576656C732E204D4158206C65766582
:1033C0006C2069733A002E005344206361726420BC
:1033D0006F6B006F70656E526F6F74206661696C01
:1033E000656400766F6C756D652E696E6974206614
:1033F00061696C656400534420696E69742066617C
:10340000696C0057726974696E6720746F20666911
:103410006C653A200046696C652073656C65637461
:103420006564002053697A653A200046696C65201E
:103430006F70656E65643A20006F70656E2066611E
:10344000696C65642C2046696C653A2000536F7284
:1034500074696E672066696C657300536F6D6520D3
:1034600066696C65732077696C6C206E6F7420627E
:103470006520736F727465642E204D61782E204E26
:103480006F2E206F662066696C657320696E20312F
:1034900020666F6C64657220666F7220736F727441
:1034A000696E67206973203130302E0055564C4FBD
:1034B000202D20656E642025640A007374707325C6
:1034C000640A00776F726C6420636F6F7264696E58
:1034D000617465733A2028252E33662C20252E33FF
:1034E000662C20252E3366290A007068797369637B
:1034F000616C20636F6F7264696E617465733A20EA
:1035000028252E33662C20252E33662C20252E339D
:1035100066290A0043757272656E7420706F73209D
:103520005A5F415849533A252E33660A43757272E1
:10353000656E7420706F7320455F415849533A257A
:103540002E33660A0041667465722077616974697A
:103550006E6720666F722074656D703A0A437572EB
:1035600072656E7420706F7320585F415849533AEA
:10357000252E33660A43757272656E7420706F7300
:1035800020595F415849533A252E33660A00494E67
:103590005434007265636F7665725F6D616368694C
:1035A0006E655F73746174655F61667465725F7088
:1035B0006F7765725F70616E69632C20696E6974E4
:1035C00069616C20007265636F7665725F6D61631F
:1035D00068696E655F73746174655F616674657256
:1035E0005F706F7765725F70616E69632C20696EC2
:1035F000697469616C20004739322045005052558A
:1036000053412075766C6F004734205330004D32A3
:10361000362053256C75004D3130362053004D381F
:1036200032004731204625640047312045322A6464
:10363000656661756C745F72657472616374696FDD
:103640006E2046343830004731205A002046323050
:1036500030300020590047312058004D3833005099
:103660006F736974696F6E20726561642066726F32
:103670006D20656570726F6D3A004D323320257391
:10368000002E67636F0046656564726174653A0079
:10369000473120452D64656661756C745F72657491
:1036A00072616374696F6E20463438300047312090
:1036B00045352046313230004D3833004D313930F8
:1036C00020532564004D31303920532564004732A2
:1036D0003820582059004731205A3235204638309A
:1036E00030002046004731205A0020460047312054
:1036F00045004D3833006F6B0A00627573793A20CC
:1037000070617573656420666F7220696E70757480
:1037100000627573793A2070617573656420666F15
:1037200072207573657200627573793A2070726FDA
:1037300063657373696E6700000021104220633077
:103740008440A550C660E770088129914AA16BB1F9
:103750008CC1ADD1CEE1EFF13112100273325222A1
:10376000B5529442F772D662399318837BB35AA349
:10377000BDD39CC3FFF3DEE3622443342004011471
:10378000E664C774A44485546AA54BB52885099599
:10379000EEE5CFF5ACC58DD5533672261116300641
:1037A000D776F6669556B4465BB77AA719973887E9
:1037B000DFF7FEE79DD7BCC7C448E5588668A77801
:1037C0004008611802282338CCC9EDD98EE9AFF939
:1037D000488969990AA92BB9F55AD44AB77A966AE1
:1037E000711A500A333A122AFDDBDCCBBFFB9EEB89
:1037F000799B588B3BBB1AABA66C877CE44CC55CB1
:10380000222C033C600C411CAEED8FFDECCDCDDDD8
:103810002AAD0BBD688D499D977EB66ED55EF44E80
:10382000133E322E511E700E9FFFBEEFDDDFFCCF28
:103830001BBF3AAF599F788F8891A981CAB1EBA17C
:103840000CD12DC14EF16FE18010A100C230E320F8
:103850000450254046706760B9839893FBA3DAB3A0
:103860003DC31CD37FE35EF3B1029012F322D23248
:103870003542145277625672EAB5CBA5A895898570
:103880006EF54FE52CD50DC5E234C324A014810498
:103890006674476424540544DBA7FAB79987B89740
:1038A0005FE77EF71DC73CD7D326F2369106B016E8
:1038B00057667676154634564CD96DC90EF92FE900
:1038C000C899E9898AB9ABA9445865480678276838
:1038D000C018E1088238A3287DCB5CDB3FEB1EFBE0
:1038E000F98BD89BBBAB9ABB754A545A376A167A88
:1038F000F10AD01AB32A923A2EFD0FED6CDD4DCDB0
:10390000AABD8BADE89DC98D267C076C645C454CD7
:10391000A23C832CE01CC10C1FEF3EFF5DCF7CDF7F
:103920009BAFBABFD98FF89F176E367E554E745E27
:10393000932EB23ED10EF01E5265636F76657269AA
:103940006E67207072696E742020202000437572AB
:1039500072656E74005573656420647572696E6774
:10396000207072696E74005049442063616C2E208F
:1039700066696E6973686564005049442063616CD0
:103980002E202020202020202020202000506C6588
:103990006173652077616974004D31313720466964
:1039A000727374206C617965722063616C2E0050B3
:1039B00072696E742070617573656400496E76611A
:1039C0006C6964205049442063616C2E20726573D9
:1039D000756C74732E204E6F742073746F726564EF
:1039E00020746F20454550524F4D2E004D353030DC
:1039F000004731205A3135204631353030004739C3
:103A00003100473120583530205931393020453088
:103A100020463730303000473930004D37303200E3
:103A20004D3730322043004D3730322055004D376E
:103A30003032004D3730322043004731205A313583
:103A40002046313530300047393100473120583574
:103A50003020593139302045302046373030300061
:103A60004D383300473930004D3834004D31303453
:103A7000205330004D3834004D373032204300475A
:103A800031205831302059313830204634303030F0
:103A9000004731205A31302046313330302E30301B
:103AA00030004D313430205330004D31303420530C
:103AB0003000473120452D302E303735303020460C
:103AC000323130302E3030303030004D3130370030
:103AD000473120583530205935352045332E363280
:103AE00037373300473120583230302059353520B0
:103AF00045302E3439333836004731205832303093
:103B0000205937352045332E363237373300473189
:103B100020583530205937352045302E3439333848
:103B20003600473120583530205939352045332E5D
:103B30003632373733004731205832303020593948
:103B4000352045302E34393338360047312058324D
:103B5000303020593131352045332E363237373326
:103B60000047312058353020593131352045302E2D
:103B70003439333836004731205835302059313305
:103B8000352045332E36323737330047312058320F
:103B9000303020593133352045302E3636313734E8
:103BA00000473120583230302059313535204532E8
:103BB0002E363237373300473120583130302059D4
:103BC00031353520453200473120583735205931BD
:103BD00035352045322E35004731204631303830DA
:103BE000004731205A302E313530204637323030C0
:103BF0002E3030300047312058353020593135359E
:103C0000004731204634303030004D3230342053BC
:103C100031303030004731205A352046373230308D
:103C20002E30303000473120452D312E35303030A8
:103C3000302046323130302E3030303030004D3888
:103C400033004739300047323100473932204530A0
:103C50002E3000473120583130302E30204531325F
:103C60002E352046313030302E3000473120583646
:103C7000302E302045392E302046313030302E3035
:103C80000047312058352E302045342E3020463123
:103C90003030302E30004731205A302E323020461E
:103CA000313030302E30004731205835352E30201D
:103CB0004532352046313430302E300047312059DE
:103CC0002D322E302046313030302E30004731201A
:103CD000583234302E30204532352E3020204632B6
:103CE0003230302E30004739322045302E300047F8
:103CF00031205A302E332046313030302E300047BC
:103D000031205835352E302045382E30204632307F
:103D100030302E300047312058352E302045333298
:103D20002E302046313830302E3000473120583583
:103D3000352E30204533322E302046313037332E69
:103D400030004731205A302E342046313030302E6A
:103D50003000473120592D332E302046313030305D
:103D60002E30004D3833004739322045302E300098
:103D7000473238004D3130392053323135004D3122
:103D8000393020533630004D313430205336300036
:103D90004D3130342053323135004D313037000051
:103DA0000E1315110E000000041209120400000089
:103DB0001C1F11111F00000006191803130C00042A
:103DC0000E1F041C000000040A0A0A0A11110E004A
:103DD0001F1511151F0000000103161C080000002C
:103DE00000110A04110A040C12120C000000002534
:103DF00063252D3138532563002563252E31355336
:103E00003A2573253364002563252E3132533A2534
:103E1000732500205B6F66665D004D373032004DC4
:103E2000373031004D373032004D37303100464C9D
:103E30004558202D20203234302F3530005050206E
:103E400020202D20203235342F3130300048495089
:103E500053202D20203232302F3130300041425358
:103E600020202D20203235352F3130300050455460
:103E700020202D20203233302F383500504C412067
:103E8000202D20203231352F363000457874727560
:103E9000646572006D6D00005900580058005900AB
:103EA0005A002563252E3132533A2573252B30369F
:103EB0002E336600746F20756E6C6F6164206669C6
:103EC0006C616D656E7400746F206C6F6164206648
:103ED000696C616D656E74005072657373207468EF
:103EE00065206B6E6F62003E43616E63656C0050CF
:103EF000726568656174696E6720746F206375749C
:103F00000050726568656174696E6720746F206522
:103F10006A6563740050726568656174696E6720D4
:103F2000746F20756E6C6F616400507265686561B6
:103F300074696E6720746F206C6F616400507265E5
:103F40006865617420746865206E6F7A7A6C65218B
:103F5000004552524F523A0046696C616D656E746D
:103F600020657874727564696E672026207769749D
:103F70006820636F727265637420636F6C6F723F49
:103F8000004175746F6C6F6164696E672066696C5F
:103F9000616D656E74206973206163746976652C48
:103FA000206A75737420707265737320746865205D
:103FB0006B6E6F6220616E6420696E73657274202F
:103FC00066696C616D656E742E2E2E00546F74617F
:103FD0006C207072696E742074696D6500546F7422
:103FE000616C2066696C616D656E74005072696EFB
:103FF000742074696D650046696C616D656E74202E
:1040000075736564005269676874004C6566740076
:10401000592064697374616E63652066726F6D20E8
:104020006D696E0053657665726520736B65770008
:10403000536C6967687420736B6577004D656173B5
:104040007572656420736B6577005B303B305D2073
:10405000706F696E74206F66667365740041646A80
:10406000757374696E67205A005265736574004DEC
:10407000692E4C6566742020685B756D5D00526525
:104080002E4C6566742020675B756D5D0052652E51
:1040900043656E747220665B756D5D0052652E52CD
:1040A0006967687420655B756D5D004D692E5269A6
:1040B00067687420645B756D5D0046722E52696797
:1040C000687420635B756D5D0046722E43656E7487
:1040D0007220625B756D5D0046722E4C65667420C1
:1040E00020615B756D5D005365742074656D70654E
:1040F0007261747572653A001B5B324A2553203A2F
:104100001B5B313B394825382E3266206D0A25531A
:10411000203A0A25376C6464203A2532686864685E
:10412000203A253032686864206D001B5B324A25D6
:10413000533A1B5B313B364825382E32666D200AD8
:104140002553203A1B5B333B3848253264682025D1
:104150003032646D2025303264730025362E32668D
:104160006D6D004E2F41001B5B303B304825533AAC
:104170000A25530A25533A0A25533A001B5B303B64
:104180003135484E2F41001B5B303B3135482534DB
:104190002E326601001B5B303B304825533A0A251E
:1041A000530A25533A202025352E3266010A25531D
:1041B0003A202025352E3266010046696C616D6516
:1041C0006E742073656E736F7200537761707065E3
:1041D000640046726F6E742F6C6566742066616E43
:1041E0007300417869730041786973206C656E676C
:1041F0007468004C6F6F73652070756C6C65790026
:10420000456E6473746F70206E6F742068697400FB
:10421000456E6473746F70004D6F746F7200456EFD
:104220006473746F707300576972696E672065728A
:10423000726F7200426564202F2048656174657258
:10424000004E6F7420636F6E6E6563746564004822
:1042500065617465722F546865726D6973746F72ED
:1042600000506C6561736520636865636B203A007C
:1042700053656C6674657374206572726F72202169
:104280000046696C616D656E742073656E736F7244
:104290003A005072696E742066616E3A0045787417
:1042A00072756465722066616E3A0043616C696282
:1042B000726174696E6720686F6D650053656C6626
:1042C00074657374206661696C6564202000416CBC
:1042D0006C20636F727265637420202020202000A0
:1042E000436865636B696E672073656E736F727385
:1042F0002000436865636B696E6720686F74656E44
:1043000064202000436865636B696E6720626564A2
:10431000202020202000436865636B696E67205A67
:104320002061786973202000436865636B696E675C
:1043300020592061786973202000436865636B69A8
:104340006E67205820617869732020004368656398
:104350006B696E6720656E6473746F70730045726D
:10436000726F72202D20737461746963206D656DA6
:104370006F727920686173206265656E206F766563
:10438000727772697474656E00436172642072653D
:104390006D6F766564002D2D2D2D2D2D2D2D2D2D40
:1043A0002D2D2D2D2D2D2D2D2D2D0000000000004B
:1043B000110A045052555341334446570020793076
:1043C0003D25640A002078303D25640A004F4B0AE1
:1043D000004552524F522061643D25640A0020205E
:1043E000207A303D25640A00207A303D25640A0099
:1043F0002079303D25640A002078303D25640A008C
:1044000078797A63616C5F66696E645F706F696EFC
:10441000745F63656E746572320A000000210024C7
:104420000027002A002D00300033000101000004A5
:104430000107010A0100002200250028002B002EA0
:10444000003100340002010000050108010B0100E9
:104450000020002300260029002C002F003200003D
:10446000010000030106010901050505050705080E
:10447000080808020202020A0A08080404040401E7
:104480000101010101010103030303030303030409
:104490000707070C0C0C0C0C0C0C0C020202020699
:1044A000060606060606060B0B0B0B0B0B0B0B0783
:1044B000070A0A0A0A0A0A0505050404040808018D
:1044C0000210202008081020401020408002010225
:1044D00001080402010102040810204080804020ED
:1044E0001008040201800402018040201008040228
:1044F00001080402010102040810204080010204A6
:1045000008102040801008040880102040044080DB
:10451000102040048000000A0B02090C0D0E080751
:104520000304010000000000000000000000000083
:10453000000000000000000000000000000000007B
:104540000012111000000000000000000000000038
:10455000000000000000000000000000000000005B
:10456000000000000000000000000024F4D43050DF
:10457000C38E20C2A24017828B7011127A910D81D6
:104580006CD90AA861E108C7586607615143061E45
:104590004B5D05C145A7041A411104093D980371FB
:1045A0003931034036DB0265339102D43054028046
:1045B0002E1D02632CEE01752AC501B028A0011042
:1045C0002781018F2564012B244B01E0223401ACAB
:1045D000211F018D200D01801FFC00841EED00971E
:1045E0001DDF00B81CD200E61BC600201BBC006407
:1045F0001AB200B219A8000A19A0006A189900D1CD
:1046000017910040178B00B516840031167E00B359
:104610001579003A157300C7146F0058146A00EE3C
:104620001366008813630025135E00C7125B006CDD
:1046300012570015125400C111510070114F002182
:10464000114B00D61049008D10470046104400025F
:10465000104200C00F4000800F3E00420F3C000699
:104660000F3B00CB0E3800930E37005C0E35002751
:104670000E3400F30D3200C10D3100900D3000609A
:104680000D2E00320D2D00050D2C00D90C2B00AE87
:104690000C2900850C29005C0C2700350C27000E26
:1046A0000C2600E80B2400C40B2400A00B23007D83
:1046B0000B23005A0B2100390B2100180B2000F8A6
:1046C0000A1F00D90A1E00BB0A1E009D0A1D008099
:1046D0000A1D00630A1C00470A1B002C0A1B00115C
:1046E0000A1A00F7091A00DD091900C4091900ABFC
:1046F000091900920917007B091800630917004C7B
:1047000009160036091600200916000A091500F5D9
:10471000081500E0081400CC081400B8081400A420
:10472000081400900813007D0812006B081300584D
:104730000812004608120034081100230811001264
:1047400008110001081100F0071000E0071000D068
:10475000071000C0071000B0070F00A1071000915C
:10476000070E0083070F0074070F0065070E005740
:10477000070E0049070E003B070D002E070E002014
:10478000070D0013070D0006070D00F9060C00EDDC
:10479000060D00E0060C00D4060C00C8060C00BC98
:1047A000060C00B0060C00A4060B0099060C008D48
:1047B000060B0082060B0077060B006C060B0061EF
:1047C000060A0057060B004C060A0042060A00388B
:1047D000060A002E060A0024060A001A060A00101D
:1047E00006090007060A00FD050900F4050900EBAB
:1047F000050900E2050900D9050900D0050900C72F
:10480000050900BE050900B5050800AD050800A5AD
:104810000509009C050800940508008C0508008423
:104820000508007C050800740508006C0507006594
:104830000508005D050700560508004E05070047FE
:104840000507004005080038050700310507002A64
:10485000050700230507001C050600160507000FC5
:104860000507000805060002050700FB040600F521
:10487000040700EE040600E8040600E2040700DB7B
:10488000040600D5040600CF040600C9040600C3D0
:10489000040600BD040600B7040600B1040500AC20
:1048A000040600A6040600A00405009B040600956B
:1048B000040500900406008A0405008504050080B4
:1048C0000406007A04050075040500700405006BF9
:1048D00004050066040500610405005C040500573A
:1048E000040500520405004D04050048040500437A
:1048F0000405003E0404003A0405003504050030B8
:104900000404002C04050027040400230405001EF1
:104910000404001A04040016040500110404000D28
:10492000040400090405000404040000040400FC5D
:10493000030400F8030400F4030400F0030400EC93
:10494000030400E8030400E4030400E0030400DCC3
:10495000030400D8030400D4030400D0030400CCF3
:10496000030400C8030300C503030024F404D92092
:104970001BC40C5C0E9804C4095F0265077101F446
:1049800005F900FB04B30048048700C1036900581F
:1049900003550003034500BE023A00840231005370
:1049A000022A002902250004022000E4011C00C89C
:1049B000011900AF01170098011400840113007160
:1049C0000110006101100051010E0043010D00367D
:1049D000010B002B010B0020010B00150109000C3D
:1049E00001090003010800FB000800F3000800EBC8
:1049F000000700E4000600DE000600D8000600D232
:104A0000000600CC000500C7000500C2000500BD7F
:104A1000000400B9000400B5000400B1000400ADBA
:104A2000000400A9000400A5000300A20003009FE9
:104A30000004009B0003009800030095000200930F
:104A4000000300900003008D0002008B000300882B
:104A50000002008600020084000300810002007F43
:104A60000002007D0002007B000200790002007756
:104A70000001007600020074000200720001007163
:104A80000002006F0002006D0001006C0002006A6D
:104A90000001006900020067000100660001006576
:104AA000000100640002006200010061000100607A
:104AB0000001005F0002005D0001005C0001005B7E
:104AC0000001005A00010059000100580001005780
:104AD0000001005600010055000100540001005380
:104AE000000000530001005200010051000100507D
:104AF0000001004F0001004E0000004E0001004D7B
:104B00000001004C0001004B0000004B0001004A76
:104B10000001004900010048000000480001004772
:104B2000000100460000004600010045000000456D
:104B30000001004400010043000000430001004266
:104B4000000000420001004100000041000100405F
:104B50000001003F0000003F0001003E0000003E59
:104B60000001003D0000003D0001003C0000003C51
:104B70000000003C0001003B0000003B0001003A47
:104B80000000003A0001003900000039000100383F
:104B90000000003800000038000100370000003736
:104BA000000100360000003600000036000100352C
:104BB0000000003500000035000100340000003422
:104BC0000000003400010033000000330000003317
:104BD000000100320000003200000032000100310C
:104BE0000000003100000031000100300000003002
:104BF000000000300001002F0000002F0000002FF7
:104C00000000002F0001002E0000002E0000002EEA
:104C10000001002D0000002D0000002D0000002DDF
:104C20000001002C0000002C0000002C0000002CD3
:104C30000001002B0000002B0000002B0000002BC7
:104C40000001002A0000002A0000002A0000002ABB
:104C500000010029000000290000002900000029AF
:104C600000000029000100280000002800000028A2
:104C70000000002800000028000100270000002795
:104C80000000002700000027000000270001002688
:104C9000000000260000002600000026000000267C
:104CA000000100250000002500000025000000256F
:104CB0000000002500000025000100240000002461
:104CC0000000002400000024000000240001002354
:104CD0000000002300000023000000230000002348
:104CE0000000002300000023000100220000002239
:104CF000000000220000002200000022000000222C
:104D0000000100210000002100000021000000211E
:104D1000000000210000002100000021000100200F
:104D20000000002000000020000000200000002003
:104D30000000002000000020000000200001001FF3
:104D40000000001F0000001F0000001F0000001FE7
:104D50000000001F0000001F0001001E0000001ED8
:104D60000000001E0000001E0000004D3630300024
:104D70005052555341206673656E736F725F726552
:104D8000636F766572006673656E736F725F7570C0
:104D900064617465202D204D3630300A0020573A6A
:104DA0000020453A00543A005A206C69766520612B
:104DB000646A757374206F7574206F662072616EFB
:104DC00067652E2053657474696E6720746F203098
:104DD0002E20436C69636B20746F20636F6E74695F
:104DE0006E75652E005A206C6976652061646A755F
:104DF0007374206F7574206F662072616E67652E04
:104E00002053657474696E6720746F2030002042EF
:104E10003A0020453A00543A0048656174696E676B
:104E20002064697361626C656420627920736166D5
:104E30006574792074696D65722E00004B494C4C85
:104E400045442E20005072696E7465722068616C52
:104E50007465642E206B696C6C28292063616C6C0E
:104E6000656421004B494C4C3A2025640A004D31C1
:104E7000303420496E76616C69642065787472758F
:104E800064657220004D31303520496E76616C6961
:104E90006420657874727564657220004D31303914
:104EA00020496E76616C69642065787472756465FA
:104EB0007220004D32313820496E76616C69642071
:104EC000657874727564657220004D323231204904
:104ED0006E76616C696420657874727564657220A1
:104EE000004572723A205052494E542046414E209D
:104EF0004552524F52005072696E742066616E20A6
:104F00007370656564206973206C6F7765722074B7
:104F100068656E20657870656374656400457272BB
:104F20003A20455854522E2046414E204552524F69
:104F3000520045787472756465722066616E2073E4
:104F400070656564206973206C6F77657220746882
:104F5000656E206578706563746564002F2F20612D
:104F60006374696F6E3A7061757365004572723A69
:104F7000204D415854454D50003A20457874727583
:104F8000646572207377697463686564206F666610
:104F90002E204D415854454D502074726967676505
:104FA0007265642021004572723A204D4158544583
:104FB0004D50204245440054656D706572617475B2
:104FC000726520686561746564206265642073772A
:104FD000697463686564206F66662E204D4158547D
:104FE000454D5020747269676765726564202100C1
:104FF00070012C0190012701B0012201C0011D01A7
:10500000F00118011002130130020E0160020901C3
:1050100090020401C002FF000003FA004003F50003
:105020008003F000D003EB002004E6007004E100F0
:10503000E004DC004005D700C005D2004006CD00EA
:10504000D006C8008007C3003008BE00F008B900D1
:10505000C009B400B00AAF00B00BAA00D00CA50084
:10506000000EA000500F9B00C0109600501291003F
:1050700000148C00C0158700B0178200B0197D00A5
:10508000D01B7800001E730040206E009022690043
:10509000F024640040275F0090295A00E02B55005F
:1050A000102E500020304B0010324600E0334100FB
:1050B00090353C001037370070383200A0392D0091
:1050C000B03A2800A03B2300603C1E00103D1900B0
:1050D000903D1400103E0F00703E0A00C03E0500D7
:1050E000003F000090137D00B0157800F0177300AA
:1050F000601A6E00F01C6900A01F640050225F005F
:1051000020255A00E0275500902A5000202D4B0002
:10511000A02F4600F031410010343C00F03537003C
:10512000A037320020392D00603A2800703B230060
:10513000603C1E00203D1900C03D1400403E0F00A1
:10514000A03E0A00F03E0500403F0000703FFBFF1C
:10515000903FF6FFB03FF1FFC03FECFFD03FE7FFCD
:10516000E03FE2FFF03FDDFFF03FD8FF5761697499
:10517000696E6720666F72206E6F7A7A6C65206147
:105180006E642062656420636F6F6C696E670053A4
:10519000656C662074657374204F4B0053656C66B4
:1051A00020746573742073746172742020004578D4
:1051B00074722066616E2073706565643A202564A0
:1051C000200A005072696E742066616E20737065EB
:1051D00065643A202564200A005465737420323ACD
:1051E0000A00457874722066616E2073706565648C
:1051F0003A202564200A005072696E742066616E40
:105200002073706565643A202564200A0054657334
:105210007420313A0A006C63645F73656C6663687E
:1052200065636B5F617869732025642C2025640AAF
:10523000004D3834004731205A3135204631303066
:105240003000473238205700256320415849532009
:105250005347313D25640A0041786973206C656EBF
:1052600067746820646966666572656E63653A2571
:105270002E33660A004D656173757265642061782E
:105280006973206C656E6774683A252E33660A0070
:105290004578747275646572004D6F7665205A00AA
:1052A0004D6F76652059004D6F76652058001B5B69
:1052B000324A437261736820646574656374696F10
:1052C0006E2063616E1B5B313B30486265207475F4
:1052D000726E6564206F6E206F6E6C7920696E1B34
:1052E0005B323B30484E6F726D616C206D6F646550
:1052F000001B5B324A5741524E494E473A1B5B31C5
:105300003B304843726173682064657465637469F7
:105310006F6E1B5B323B304864697361626C65641D
:1053200020696E1B5B333B3048537465616C746855
:10533000206D6F6465004175746F6C6F6164696E98
:10534000672066696C616D656E7420617661696C59
:1053500061626C65206F6E6C79207768656E20667F
:10536000696C616D656E742073656E736F72206910
:1053700073207475726E6564206F6E2E2E2E00453C
:1053800052524F523A2046696C616D656E742073BB
:10539000656E736F72206973206E6F74207265730F
:1053A000706F6E64696E672C20706C656173652028
:1053B000636865636B20636F6E6E656374696F6E9F
:1053C0002E004D6F6465206368616E676520696EAD
:1053D0002070726F6772657373202E2E2E004361EA
:1053E0006C69627261746500506C65617365206CF4
:1053F0006F616420504C412066696C616D656E740C
:105400002066697273742E00497320504C412066E7
:10541000696C616D656E74206C6F616465643F00DA
:1054200043616E63656C0046696C616D656E740006
:1054300053656C65637420504C412066696C616DE6
:10544000656E743A0052756E6E696E672057697AA0
:105450006172642077696C6C2064656C657465208A
:1054600063757272656E742063616C6962726174D7
:10547000696F6E20726573756C747320616E642041
:1054800073746172742066726F6D20746865206237
:105490006567696E6E696E672E20436F6E74696E04
:1054A00075653F0050726568656174696E67206E4E
:1054B0006F7A7A6C652E20506C6561736520776118
:1054C00069742E00456A65637400556E6C6F616483
:1054D0000055736520756E6C6F616420746F207267
:1054E000656D6F76652066696C616D656E742031DF
:1054F0002069662069742070726F747275646573B8
:10550000206F757473696465206F66207468652008
:1055100072656172204D4D5520747562652E20555F
:10552000736520656A656374206966206974206903
:10553000732068696464656E20696E2074756265A5
:105540002E004C6F6164696E672066696C616D65E1
:105550006E7400506C6561736520696E736572745A
:1055600020504C412066696C616D656E7420746FCB
:10557000207468652065787472756465722C207477
:1055800068656E207072657373206B6E6F62207435
:105590006F206C6F61642069742E00506C656173BC
:1055A0006520696E7365727420504C412066696C89
:1055B000616D656E7420746F207468652066697211
:1055C00073742074756265206F66204D4D552C20D4
:1055D0007468656E20707265737320746865206BE3
:1055E0006E6F6220746F206C6F61642069742E008E
:1055F000596F752063616E20616C776179732072D9
:105600006573756D65207468652057697A61726489
:105610002066726F6D2043616C6962726174696F9C
:105620006E202D3E2057697A6172642E00506C65A1
:1056300061736520636865636B206F7572206861B4
:105640006E64626F6F6B20616E642066697820748F
:1056500068652070726F626C656D2E205468656E8F
:1056600020726573756D65207468652057697A616D
:105670007264206279207265626F6F74696E672050
:10568000746865207072696E7465722E00416C6C6E
:1056900020697320646F6E652E20486170707920D8
:1056A0007072696E74696E672100506C6561736514
:1056B00020636C65616E2068656174626564206159
:1056C0006E64207468656E207072657373207468F0
:1056D00065206B6E6F622E00446F20796F752077A6
:1056E000616E7420746F20726570656174206C61E6
:1056F0007374207374657020746F20726561646ABE
:105700007573742064697374616E63652062657477
:105710007765656E206E6F7A7A6C6520616E6420A5
:10572000686561746265643F00492077696C6C202C
:10573000737461727420746F207072696E74206C5F
:10574000696E6520616E6420796F752077696C6C75
:10575000206772616475616C6C79206C6F7765721B
:1057600020746865206E6F7A7A6C65206279207289
:105770006F746174696E6720746865206B6E6F6208
:105780002C20756E74696C20796F75207265616369
:1057900068206F7074696D616C20686569676874F2
:1057A0002E20436865636B2074686520706963749C
:1057B0007572657320696E206F75722068616E6402
:1057C000626F6F6B20696E20636861707465722010
:1057D00043616C6962726174696F6E2E004E6F77FF
:1057E00020492077696C6C2063616C696272617416
:1057F000652064697374616E6365206265747765A2
:10580000656E20746970206F6620746865206E6F05
:105810007A7A6C6520616E64206865617462656483
:1058200020737572666163652E0049732069742068
:10583000504C412066696C616D656E743F00536524
:105840006C656374206E6F7A7A6C6520707265681F
:105850006561742074656D70657261747572652020
:105860007768696368206D61746368657320796F18
:105870007572206D6174657269616C2E004E6F7770
:1058800020492077696C6C207072656865617420AE
:105890006E6F7A7A6C6520666F7220504C412E00D4
:1058A00049732066696C616D656E74206C6F61640C
:1058B00065643F0049732066696C616D656E742094
:1058C00031206C6F616465643F004E6F7720492022
:1058D00077696C6C2070726568656174206E6F7A90
:1058E0007A6C6520666F7220504C412E00506C65BA
:1058F00061736520706C61636520737465656C20ED
:105900007368656574206F6E206865617462656494
:105910002E00497320737465656C20736865657427
:10592000206F6E20686561746265643F004920776E
:10593000696C6C2072756E207A2063616C6962728A
:105940006174696F6E206E6F772E004E6F772072D4
:10595000656D6F766520746865207465737420705A
:1059600072696E742066726F6D20737465656C2049
:1059700073686565742E00506C656173652072658F
:105980006D6F7665207368697070696E67206865F1
:105990006C706572732066697273742E004920778B
:1059A000696C6C2072756E2078797A2063616C69FD
:1059B00062726174696F6E206E6F772E2049742059
:1059C00077696C6C2074616B6520617070726F78A0
:1059D0002E203132206D696E732E00466972737409
:1059E0002C20492077696C6C2072756E2074686574
:1059F0002073656C667465737420746F20636865CA
:105A0000636B206D6F737420636F6D6D6F6E2061BB
:105A10007373656D626C792070726F626C656D7303
:105A20002E0048692C204920616D20796F75722005
:105A30004F726967696E616C20507275736120697D
:105A400033207072696E7465722E20576F756C64A6
:105A500020796F75206C696B65206D6520746F20EF
:105A6000677569646520796F75207468726F7567F2
:105A700068207468652073657475702070726F6338
:105A80006573733F00473830004D3435004D343571
:105A9000205A004737360057697A61726420737460
:105AA0006174653A2025640057697A6172642065E3
:105AB0006E642073746174653A2025640A001000D6
:105AC000C90210012C014001220170011801B0012E
:105AD0000E01F00104015002FA00B002F0003003A0
