:100000000C94D0310C9401320C9401320C940132D6
:100010000C9401320D94981C0C9401320C94013212
:100020000D942C200C9401320C9401320C9401326A
:100030000C9401320C9401320D94E0460C94BBBC3C
:100040000C9401320C944FDE0C9401320C9401326A
:100050000C9401320C9401320C9401320C94D3F9BB
:100060000C9401320C94C5B40C9401320C940132FE
:100070000C9401320C9401320C9401320C94013234
:100080000C9401320C9401320C9401320C94013224
:100090000C9481B40C9401320C9401320C94013212
:1000A0000C9401320C9401320C9401320C94013204
:1000B0000C9401320C9401320C9401320C940132F4
:1000C0000C9401320C9401320C9401320C9494B8CB
:1000D0000C9401320C9401320C9401320C940132D4
:1000E0000C940132DF4DE54DEB4DF64D014E864E41
:1000F0000C4E154E1E4E294E344E3F4E4F4E5A4E0C
:10010000864E654E704E7B4E708174817A818381FC
:100110009B81B881F5812A82EEDA04DB16DB23DBD2
:100120002DDB5BDB7CDB82DB90DB93DB95DB9FDB1A
:10013000B0DBC1DBC5F7C8F7B7F7BBF7C1F7FFF70F
:10014000CCF7D0F7D6F7DAF7DEF7E4F7E8F7ECF715
:10015000FFF7F2F7F6F7FAF73701A901DF013B01E4
:10016000C301C70133015F019301F1019B01AF019D
:10017000450183015B01E9015501E3018F01E701BD
:10018000B3019F017901C101C1017101C101710177
:100190006D01F301084AD73B3BCE016E84BCBFFD25
:1001A000C12F3D6C74319ABD56833DDA3D00C77F47
:1001B00011BED9E4BB4C3E916BAAAABE00000080E0
:1001C0003F05A84CCDB2D44EB93836A9020C50B96F
:1001D000918688083CA6AAAA2ABE000000803F0794
:1001E000634236B79BD8A71A39685618AEBAAB55D2
:1001F0008C1D3CB7CC5763BD6DEDFD753EF6177297
:1002000031BF000000803F08000000BE9224491268
:100210003EABAAAA2ABECDCCCC4C3E00000080BE8C
:10022000ABAAAAAA3E00000000BF000000803F0069
:1002300000000000084178D3BB4387D1133D190E5D
:100240003CC3BD4282AD2B3E68EC8276BED98FE1C5
:10025000A93E4C80EFFFBE01C4FF7F3F00000000BD
:1002600000000D94A86F0D94AD010D943F050D9401
:100270005F010D941D700D9485010D94BE3E0D948B
:100280005E030D9400700D94C66F0D94C9380D94E3
:100290001D410D94D0650D94293D0D940D620D9472
:1002A000A93E0D94820A0D9421660D949D3B0D94F8
:1002B000346A0D9492840D943D380D94BB3B0D949B
:1002C000BB010D94CE3F0D94A33B0D94FA6B0D949E
:1002D0003A700D9480640D948C660D94B8690D94F9
:1002E0005E6A0D94B5690D94184D0D9409510D94E5
:1002F00035050D943E3B0D94BE650D94426A0D94F8
:10030000CA6E0D94BA6A0D946E380D945F630D94A5
:1003100057700D94F5770D94886F0D94506A0D9475
:100320000C3A0D94003F0D94C9010D94E36F0D94A8
:1003300074700D947C3D0D94EE010D94B3030D94F7
:10034000073B0D94CF030D942B050D9449400D945C
:1003500021A70D946D010D94576A0D941F6C0D9497
:10036000C0380D943DA60D94EC3A0D94E8620D94BE
:100370008C6A0D94FB690D94A2500D94F96D0D9447
:1003800000680D94B2690D94A1010D94496A0D9411
:10039000A7010D9496660D948D640D94B03B0D9459
:1003A000E96A0D94486B0D94996F0D943B6A0D9416
:1003B00060500D94136A0D940D6F0D94EA4C0D94DA
:1003C00073010D94A2510D94EC380D9456040D94C4
:1003D000923A0D940D380D94673F0D942B6A0D944D
:1003E0007F6E0D94D7010D94BB690D943A6F6E61C9
:1003F0006E00696E66004E414E494E495459494E51
:1004000046CDCCCC3D0AD7233C17B7D13877CC2B7F
:10041000329595E6241FB14F0A000020410000C824
:100420004200401C4620BCBE4CCA1B0E5AAEC59DA5
:100430007400407A10F35A00A0724E18090010A5FB
:10044000D4E80000E87648170000E40B54020000EE
:10045000CA9A3B000000E1F5050000809698000074
:100460000040420F000000A086010000001027009D
:10047000000000E803000000006400000000000A23
:1004800000000000000100000000002C76D888DC8D
:10049000674F0823DFC1DFAE59E1B1B796E5E3E46A
:1004A00053C63AE651997696E8E6C28426EB898CE3
:1004B0009B62ED407C6FFCEFBC9C9F40F2BAA56F45
:1004C000A5F490055A2AF75C936B6CF9676DC11B14
:1004D000FCE0E40D47FEF520E6B500D0ED902E03DC
:1004E00000943577050080841E080000204E0A0025
:1004F0000000C80C333333330F986E12831141EF71
:100500008D2114893BE65516CFFEE6DB18D1844BCE
:10051000381BF77C1D901DA4BBE424203284725E3E
:10052000228100C9F124ECA1E53D276364696E6F67
:1005300070737578585B0025642062797465732048
:100540007772697474656E20746F20454550524F00
:100550004D20617420616464726573732030782566
:10056000303478004433202D20526561642F577257
:1005700069746520454550524F4D0A0020436F7500
:100580006E7420583A20005344207072696E74696A
:100590006E67206279746520004E6F7420696E204A
:1005A0006661726D206D6F64652E004163746976BB
:1005B000652045787472756465723A2000496E76DC
:1005C000616C6964206578747275646572005A2084
:1005D0004F666673657400556E6B6E6F776E206341
:1005E0006F6D6D616E643A2022004D3230302049CB
:1005F0006E76616C696420657874727564657220CA
:10060000007A5F6D61783A20007A5F6D696E3A20FA
:1006100000795F6D61783A2000795F6D696E3A20EC
:1006200000785F6D61783A20006F70656E005452FB
:100630004947474552454400785F6D696E3A20004E
:100640005265706F7274696E6720656E6473746F43
:100650007020737461747573000053494C454E5497
:10066000004E4F524D414C002553204D4F44453ACA
:100670002050657263656E7420646F6E653A202544
:10068000643B207072696E742074696D65207265B8
:100690006D61696E696E6720696E206D696E733A6F
:1006A0002025640A00456E642066696C65206C69CB
:1006B000737400426567696E2066696C65206C69B9
:1006C0007374000A50494E44412074656D70657220
:1006D00061747572653A20252E3166205A20736840
:1006E00069667420286D6D293A20252E3366000A2C
:1006F000537465703A2025642F360A000A537465D6
:10070000703A2025642F362028736B6970706564F9
:10071000290A50494E44412074656D7065726174B8
:100720007572653A202564205A20736869667420C2
:10073000286D6D293A300A000A5A45524F3A202551
:100740002E33660A0073746172742074656D70656F
:100750007261747572653A20252E31660A0025642F
:100760002020252E326600255320583A20252E358C
:100770006620593A20252E3566205A3A20252E35F6
:10078000660A00536C6565702E2E2E004E6F742025
:10079000696E206661726D206D6F64652E00256440
:1007A0000045303A25642052504D0A50524E303A9E
:1007B00025642052504D0A002564004175746F0075
:1007C00020452F443D00416476616E6365204B3DBA
:1007D000004D3232302053256900255346696C6143
:1007E0006D656E742073657474696E67733A204426
:1007F000697361626C65640A00255346696C616DBA
:10080000656E742073657474696E67733A0A255354
:100810002020204D3230302044252E32660A00251B
:1008200053526574726163743A20533D4C656E6730
:10083000746820286D6D2920463A537065656420E0
:10084000286D6D2F6D29205A3A205A4C6966742004
:10085000286D6D290A25532020204D323037205332
:10086000252E32662046252E3266205A252E3266E7
:100870000A25535265636F7665723A20533D457879
:10088000747261206C656E67746820286D6D292014
:10089000463A537065656420286D6D2F6D290A25D1
:1008A000532020204D3230382053252E32662046EA
:1008B000252E32660A25534175746F2D5265747268
:1008C0006163743A20533D3020746F206469736112
:1008D000626C652C203120746F20696E74657270B3
:1008E00072657420657874727564652D6F6E6C79AD
:1008F000206D6F7665732061732072657472616319
:100900007473206F72207265636F766572696573A8
:100910000A25532020204D323039205325640A0007
:10092000255350494420686561746265642073658D
:100930007474696E67733A0A25532020204D333052
:10094000342050252E32662049252E32662044253B
:100950002E32660A00255350494420736574746929
:100960006E67733A0A25532020204D3330312050D2
:10097000252E32662049252E32662044252E3266E9
:100980000A00255353746570732070657220756E6C
:1009900069743A0A255320204D39322058252E32C9
:1009A000662059252E3266205A252E32662045258E
:1009B0002E32660A25534D6178696D756D20666526
:1009C00065647261746573202D206E6F726D616C49
:1009D00020286D6D2F73293A0A255320204D32307F
:1009E000332058252E32662059252E3266205A256E
:1009F0002E32662045252E32660A25534D617869D0
:100A00006D756D20666565647261746573202D2057
:100A1000737465616C746820286D6D2F73293A0AB0
:100A2000255320204D3230332058252E3266205950
:100A3000252E3266205A252E32662045252E326616
:100A40000A25534D6178696D756D20616363656C2E
:100A500065726174696F6E202D206E6F726D616CAE
:100A600020286D6D2F7332293A0A255320204D32EC
:100A700030312058256C752059256C75205A256C0D
:100A8000752045256C750A25534D6178696D756D26
:100A900020616363656C65726174696F6E202D20DF
:100AA000737465616C746820286D6D2F7332293AF8
:100AB0000A255320204D3230312058256C7520599D
:100AC000256C75205A256C752045256C750A2553B3
:100AD000416363656C65726174696F6E3A20533D62
:100AE000616363656C65726174696F6E2C20543D3F
:100AF0007265747261637420616363656C657261B1
:100B000074696F6E0A255320204D323034205325EE
:100B10002E32662054252E32660A255341647661B2
:100B20006E636564207661726961626C65733A20F8
:100B3000533D4D696E206665656472617465202859
:100B40006D6D2F73292C20543D4D696E2074726198
:100B500076656C20666565647261746520286D6DCC
:100B60002F73292C20423D6D696E696D756D207360
:100B700065676D656E742074696D6520286D7329D5
:100B80002C20583D6D6178696D756D205859206A2B
:100B900065726B20286D6D2F73292C20205A3D6DB6
:100BA0006178696D756D205A206A65726B20286DB9
:100BB0006D2F73292C2020453D6D6178696D756D11
:100BC0002045206A65726B20286D6D2F73290A25D8
:100BD0005320204D3230352053252E3266205425A7
:100BE0002E32662042252E32662058252E3266206F
:100BF00059252E3266205A252E32662045252E3262
:100C0000660A2553486F6D65206F666673657420AC
:100C1000286D6D293A0A255320204D323036205850
:100C2000252E32662059252E3266205A252E326610
:100C30000A004625642025640A004D4D55203C3DA0
:100C40002027462564202564270A00504944204176
:100C500075746F74756E652066696E697368656416
:100C6000212050757420746865206C617374204B6A
:100C7000702C204B6920616E64204B6420636F6E82
:100C80007374616E74732066726F6D2061626F762B
:100C90006520696E746F20436F6E66696775726157
:100CA00074696F6E2E6800504944204175746F74EA
:100CB000756E65206661696C6564212074696D6577
:100CC0006F75740020403A00543A00423A0050498F
:100CD00044204175746F74756E65206661696C653A
:100CE00064212054656D706572617475726520743D
:100CF0006F6F206869676800204B643A2000204BC2
:100D0000693A2000204B703A200020436C617373D5
:100D100069632050494420002054753A2000204B3C
:100D2000753A2000206D61783A2000206D696E3A96
:100D3000200020643A200020626961733A2000207C
:100D4000453A00205A3A0020593A0020453A0020FE
:100D50005A3A0020593A00583A00005A30005A31A5
:100D600000593000593100583000583100456E6448
:100D70002073746F70732064696167002E0044658E
:100D80006C6574696F6E206661696C65642C2046C1
:100D9000696C653A200046696C652064656C657411
:100DA00065643A004E6F74205344207072696E740B
:100DB000696E67005072696E7420736176656400B5
:100DC0005344207072696E7420706175736564009D
:100DD0000A002F000A006673656E736F725F72659A
:100DE00073746F72655F7072696E745F616E645F59
:100DF000636F6E74696E75650A002F2F20616374CE
:100E0000696F6E3A63616E63656C0043524153488B
:100E10005F43414E43454C0043524153485F524566
:100E2000434F5645520043524153485F5245434F4A
:100E300056455200222832290054004475706C69CE
:100E40006361746520542D636F64652069676E6FFC
:100E50007265642E0A004475706C69636174652064
:100E6000542D636F64652069676E6F7265642E0A26
:100E700000496E76616C6964205420636F64652E4E
:100E800000556E6B6E6F776E204D20636F64653A10
:100E9000202573200A006E6F2076616C69642063E0
:100EA0006F6D6D616E64002C20002C20002C2000E2
:100EB0006E2F61002C20002C20002C20006E2F6152
:100EC000002F00503A005761697420666F722050FD
:100ED000494E4441207461726765742074656D7079
:100EE000657261747572653A004C414E47205345F6
:100EF0004C20464F524345440022283129003030CF
:100F00003030303030302D303030302D30303030E7
:100F10002D303030302D30303030303030303030D7
:100F200030300020555549443A003100204558548E
:100F300052554445525F434F554E543A00507275D6
:100F40007361206933204D4B335300204D4143489A
:100F5000494E455F545950453A00312E30002062C9
:100F600061736564206F6E204D61726C696E2046FE
:100F700049524D574152455F55524C3A687474700E
:100F8000733A2F2F6769746875622E636F6D2F70C7
:100F90007275736133642F50727573612D46697277
:100FA0006D776172652050524F544F434F4C5F56DE
:100FB000455253494F4E3A004649524D57415245CA
:100FC0005F4E414D453A50727573612D4669726DA1
:100FD0007761726520004D31313320530020423A51
:100FE0000020453A00543A0020413A0020503A008F
:100FF0002042403A0020403A00202F003A0020547E
:1010000000202F0020423A00202F006F6B20543A1E
:10101000002569206D696E2C2025692073656300A9
:10102000496E76616C6964204D20636F64653A2077
:101030002573200A00556E6B6E6F776E2047206314
:101040006F64653A202573200A004D65736820623D
:101050006564206C6576656C696E67206E6F7420C0
:101060006163746976652E000A002020000A4D65D0
:1010700061737572656420706F696E74733A000AEB
:101080005A20736561726368206865696768743A9D
:1010900020002C004E756D20582C593A2000206DF0
:1010A0006963726F6E730045786365737369766503
:1010B00020626564206C6576656C696E6720636F7D
:1010C0007272656374696F6E3A2000426564206CC9
:1010D0006576656C696E67206661696C65642E2053
:1010E00053656E736F7220747269676765726564A9
:1010F00020746F6F20686967682E0A00426564205B
:101100006C6576656C696E67206661696C65642ED6
:101110002053656E736F7220646973636F6E6E65C2
:1011200063746564206F72206361626C6520627213
:101130006F6B656E2E0A00473238205730005049D9
:101140004E44412070726F62652063616C69627207
:101150006174696F6E207374617274004732382055
:101160005730004D3234005345545F43484F505F71
:10117000005345545F535445505F005345545F57E7
:101180004156455F00544D435F0043524153485F11
:10119000005072657373206B6E6F6220746F2070E5
:1011A000726568656174206E6F7A7A6C6520616E15
:1011B0006420636F6E74696E75652E00506C656196
:1011C000736520707265737320746865206B6E6F31
:1011D0006220746F20756E6C6F61642066696C614B
:1011E0006D656E740052656D6F7665206F6C64205E
:1011F00066696C616D656E7420616E6420707265E5
:10120000737320746865206B6E6F6220746F207337
:1012100074617274206C6F6164696E67206E6577AB
:101220002066696C616D656E742E00616E6420705D
:101230007265737320746865206B6E6F6200496E0F
:10124000736572742066696C616D656E7400436FBE
:101250006C6F72206E6F7420636F727265637400BE
:1012600046696C616D656E74206E6F74206C6F6181
:10127000646564004368616E67656420636F7272C1
:101280006563746C793F004C6F6164696E672063BD
:101290006F6C6F72004368616E676520737563637E
:1012A0006573732100506C65617365206F70656EA6
:1012B0002069646C657220616E642072656D6F7662
:1012C000652066696C616D656E74206D616E756117
:1012D0006C6C792E005761732066696C616D656E68
:1012E0007420756E6C6F61642073756363657373CE
:1012F00066756C3F00506C65617365207570677230
:101300006164652E004E6577206669726D77617243
:10131000652076657273696F6E20617661696C61B4
:10132000626C653A0057616974696E6720666F7216
:101330002050494E44412070726F626520636F6F88
:101340006C696E67004372617368206465746563DD
:101350007465642E20526573756D65207072696EB8
:10136000743F0043726173682064657465637465DB
:10137000642E0045787472756465720043686F6FFF
:1013800073652065787472756465723A0043686F9E
:101390006F73652066696C616D656E743A004E6F9F
:1013A000206D6F76652E005761697420666F72201C
:1013B000757365722E2E2E00536F6D652070726FDF
:1013C000626C656D20656E636F756E7465726564C1
:1013D0002C205A2D6C6576656C696E6720656E668B
:1013E0006F72636564202E2E2E00537461626C65EB
:1013F00020616D6269656E742074656D70657261DF
:10140000747572652032312D323643206973206E37
:10141000656564656420612072696769642073741E
:10142000616E642069732072657175697265642EDE
:1014300000506C656173652072756E2058595A2092
:1014400063616C6962726174696F6E206669727340
:10145000742E0073746172740A006164635F696E54
:1014600069740A0000202D20496E76616C69642041
:101470006578747275646572206E756D6265722030
:1014800021001B5B324A1B5B313B31484F7269675D
:10149000696E616C2050727573612069331B5B3219
:1014A0003B33485072757361205265736561726396
:1014B0006800466163746F72792052455345540049
:1014C00044495341424C45440A00454E41424C4533
:1014D00044004653656E736F722025530A004170B5
:1014E00072203236203230313900436F6D70696CB2
:1014F00065643A2000286E6F6E652C206465666115
:10150000756C7420636F6E66696729004170722084
:10151000323620323031392032323A35343A3033B3
:101520000020332E372E302D323230310A00205534
:10153000706C6F616420696E2070726F6772657382
:101540007300205A3A0020593A0020583A0043527A
:101550004153485F4445544543544544585900431A
:10156000524153485F444554454354454459004310
:10157000524153485F444554454354454458004DF7
:101580003239005072757361206933204D4B3353EB
:10159000204F4B2E00426C61636B6F7574206F633C
:1015A0006375727265642E205265636F7665722072
:1015B0007072696E743F0053656C66746573742055
:1015C00077696C6C2062652072756E20746F206381
:1015D000616C6962726174652061636375726174C4
:1015E000652073656E736F726C65737320726568C6
:1015F0006F6D696E672E005468657265206973208F
:101600007374696C6C2061206E65656420746F2052
:101610006D616B65205A2063616C696272617469E7
:101620006F6E2E20506C6561736520666F6C6C6FF9
:101630007720746865206D616E75616C2C2063681D
:10164000617074657220466972737420737465707A
:10165000732C2073656374696F6E2043616C6962DB
:10166000726174696F6E20666C6F772E00507269BC
:101670006E74657220686173206E6F742062656598
:101680006E2063616C69627261746564207965744F
:101690002E20506C6561736520666F6C6C6F7720CF
:1016A000746865206D616E75616C2C206368617073
:1016B0007465722046697273742073746570732C3C
:1016C0002073656374696F6E2043616C6962726137
:1016D00074696F6E20666C6F772E004F6C64207398
:1016E000657474696E677320666F756E642E20442E
:1016F000656661756C74205049442C20457374658F
:101700007073206574632E2077696C6C206265208D
:101710007365742E005761726E696E673A20626F4E
:101720007468207072696E746572207479706520B7
:10173000616E64206D6F74686572626F617264209F
:1017400074797065206368616E6765642E00576107
:10175000726E696E673A207072696E746572207479
:10176000797065206368616E6765642E00576172E9
:101770006E696E673A206D6F74686572626F617230
:10178000642074797065206368616E6765642E00FB
:1017900045787465726E616C2053504920666C61A7
:1017A000736820573235583230434C206E6F7420A6
:1017B000726573706F6E64696E672E004372617339
:1017C000684465746563742044495341424C454400
:1017D00000437261736844657465637420454E41CB
:1017E000424C454421002020506C616E6E6572426F
:1017F000756666657242797465733A200020467298
:101800006565204D656D6F72793A2000207C20411E
:101810007574686F723A2000204C617374205570A3
:1018200064617465643A200020536F667477617256
:101830006520526573657400205761746368646F36
:1018400067205265736574002042726F776E206F57
:101850007574205265736574002045787465726EE6
:10186000616C20526573657400506F7765725570B6
:10187000006572726F722077726974696E67207486
:101880006F2066696C6500656E6473746F70732099
:101890006869743A2000446F6E6520736176696EE2
:1018A000672066696C652E006F6B00000E131511C2
:1018B0000E00000004120912040000001C1F111188
:1018C0001F00000006191803130C00040E1F041C4F
:1018D000000000040A0A0A0A11110E001F15111552
:1018E0001F0000000103161C0800000000110A047C
:1018F000110A040C12120C000000002563252D3182
:1019000038532563002563252E3135533A25732539
:101910003364002563252E3132533A257325004563
:101920007872656D65207370616E206F66207468D3
:1019300065205A2076616C7565732100205B6F66A7
:10194000665D00426564206C6576656C696E672033
:101950006661696C65642E2053656E736F722064D6
:1019600069646E7420747269676765722E204465BD
:1019700062726973206F6E206E6F7A7A6C653F2099
:1019800057616974696E6720666F7220726573654E
:10199000742E0058595A2063616C696272617469CF
:1019A0006F6E20616C6C2072696768742E20536BB7
:1019B00065772077696C6C20626520636F72726551
:1019C00063746564206175746F6D61746963616CC3
:1019D0006C792E0058595A2063616C696272617487
:1019E000696F6E20616C6C2072696768742E205874
:1019F0002F5920617865732061726520736C696767
:101A000068746C7920736B657765642E20476F6FFF
:101A100064206A6F62210058595A2063616C6962C0
:101A2000726174696F6E206F6B2E20582F59206180
:101A3000786573206172652070657270656E646987
:101A400063756C61722E20436F6E67726174756C82
:101A50006174696F6E73210058595A2063616C6913
:101A600062726174696F6E206661696C65642E20B4
:101A700052696768742066726F6E742063616C6966
:101A800062726174696F6E20706F696E74206E6F20
:101A90007420726561636861626C652E0058595AE2
:101AA0002063616C6962726174696F6E206661693E
:101AB0006C65642E2046726F6E742063616C69627F
:101AC000726174696F6E20706F696E7473206E6FCF
:101AD0007420726561636861626C652E0058595AA2
:101AE0002063616C6962726174696F6E20666169FE
:101AF0006C65642E20506C6561736520636F6E7336
:101B0000756C7420746865206D616E75616C2E0053
:101B100058595A2063616C6962726174696F6E20F2
:101B2000636F6D70726F6D697365642E20526967A3
:101B300068742066726F6E742063616C6962726192
:101B400074696F6E20706F696E74206E6F7420728E
:101B50006561636861626C652E0058595A20636143
:101B60006C6962726174696F6E20636F6D70726F01
:101B70006D697365642E2046726F6E742063616CAC
:101B80006962726174696F6E20706F696E74732020
:101B90006E6F7420726561636861626C652E0058B7
:101BA000595A2063616C6962726174696F6E206654
:101BB00061696C65642E204265642063616C6962B2
:101BC000726174696F6E20706F696E7420776173D3
:101BD000206E6F7420666F756E642E00506C6561A8
:101BE000736520706C61636520737465656C207328
:101BF00068656574206F6E20686561746265642E27
:101C00000044697374616E6365206265747765650D
:101C10006E20746970206F6620746865206E6F7A1C
:101C20007A6C6520616E642074686520626564204A
:101C30007375726661636520686173206E6F7420CE
:101C40006265656E20736574207965742E20506C12
:101C50006561736520666F6C6C6F772074686520B2
:101C60006D616E75616C2C206368617074657220A3
:101C700046697273742073746570732C2073656386
:101C800074696F6E204669727374206C6179657235
:101C90002063616C6962726174696F6E2E00506CB2
:101CA0006163652061207368656574206F662070CC
:101CB0006170657220756E64657220746865206E4F
:101CC0006F7A7A6C6520647572696E6720746865D6
:101CD0002063616C6962726174696F6E206F662047
:101CE0006669727374203420706F696E74732E206D
:101CF000496620746865206E6F7A7A6C652063612E
:101D00007463686573207468652070617065722CF7
:101D100020706F776572206F66662074686520702A
:101D200072696E74657220696D6D65646961746550
:101D30006C792E00506C656173652072656D6F76ED
:101D40006520737465656C207368656574206672C0
:101D50006F6D20686561746265642E00497320733D
:101D60007465656C207368656574206F6E206865A6
:101D700061746265643F00206F66203400536561C2
:101D8000726368696E67206265642063616C696272
:101D9000726174696F6E20706F696E7400206F6677
:101DA0002039004D6561737572696E6720726566D2
:101DB0006572656E636520686569676874206F6623
:101DC0002063616C6962726174696F6E20706F6903
:101DD0006E7400506C6561736520636C65616E2084
:101DE000746865206E6F7A7A6C6520666F72206306
:101DF000616C6962726174696F6E2E20436C6963F5
:101E00006B207768656E20646F6E652E0041757477
:101E10006F20686F6D650078797A63616C5F6D65BE
:101E20006173737572655F656E7465720A007879A7
:101E30007A63616C5F73706972616C382063783D9E
:101E400025642063793D2564207A303D2564206433
:101E50007A3D2564207261646975733D2564206153
:101E6000643D25640A0078797A63616C5F7365610B
:101E70007263685A206E6F207369676E616C0A2006
:101E8000783D256C6420793D256C64207A3D256C75
:101E9000640A00204F4E2D5349474E414C20617437
:101EA00020783D256420793D2564207A3D256420F5
:101EB00061643D25640A0078797A63616C5F7365BB
:101EC000617263685A20783D256C6420793D256CE9
:101ED00064207A3D256C640A000A002530327800BF
:101EE00078797A63616C5F7363616E5F706978653E
:101EF0006C735F33327833322063783D256420631E
:101F0000793D2564206D696E5F7A3D2564206D61A1
:101F1000785F7A3D25640A00202532642025640A12
:101F2000000A002530327800206D696E3D2564205E
:101F30006D61783D2564206469663D25640A006D05
:101F400061785F633D253264206D61785F6C3D256B
:101F5000640A006D61785F633D2564206D61785F80
:101F6000723D2564206D61785F6D617463683D2505
:101F7000640A0020783D256420793D2564207A3D5F
:101F800025640A00207061747465726E20666F7536
:101F90006E642061742025642025640A000000F02E
:101FA00000F801FC03FE07FE07FE07FE07FC03F82E
:101FB00001F000000073697A656F6628746F7461C0
:101FC0006C293D25640A0073697A656F6628626C26
:101FD0006F636B5F627566666572293D25640A00F2
:101FE00078797A63616C5F6D656173737572655F33
:101FF0006C656176650A00706F696E743D256420BA
:10200000783D256420793D2564207A3D25640A00C9
:1020100058025802584D584DB004F055F055B004D0
:1020200078797A63616C5F66696E645F6265645F2C
:10203000696E64756374696F6E5F73656E736F72DA
:102040005F706F696E745F787920783D256C6420CD
:10205000793D256C64207A3D256C640A00203C2083
:10206000005741524E494E473A2046726F6E7420D7
:10207000706F696E74206E6F742072656163686141
:10208000626C652E205920636F6F7264696E617493
:10209000653A0000000040410000C04000005C4381
:1020A0000000C04000005C43000046430000404187
:1020B00000004643497465726174696F6E3A20008E
:1020C00043616C6962726174696F6E206661696CEC
:1020D00065642120436865636B20746865206178BE
:1020E000657320616E642072756E20616761696E30
:1020F0002E000000803F555585410000803F0000C4
:10210000C84100000040555505420000C03F000096
:1021100048420000204055558542000070C1ABAADE
:10212000A642000060C10000A0410000C0C0000045
:10213000204100002041ABAA3A41000020C1555582
:10214000D540000048C2555505424D373031204535
:1021500030004D373031204531004D37303120458A
:1021600032004D373031204533004D373031204576
:1021700034004D373031204534004D373031204563
:1021800033004D373031204532004D373031204556
:1021900031004D3730312045300046696C616D6546
:1021A0006E74206E72206F7574206F662072616E7F
:1021B000676521004164646974696F6E616C206CAD
:1021C0006F616420617474656D7074206E722E206E
:1021D00025640A00773235783230636C5F63666D50
:1021E0000A00773235783230636C5F656E746572E1
:1021F0000A00506C656173652072656D6F766520AD
:1022000066696C616D656E7420616E6420746865CA
:102210006E20707265737320746865206B6E6F62D8
:102220002E00456A656374696E672066696C616D2E
:10223000656E74004D4D55206C6F61642066616958
:102240006C656420202020200020746F6F206C6F4C
:102250006E6720657874727573696F6E2070726531
:1022600076656E7465640020636F6C6420657874B5
:10227000727573696F6E2070726576656E746564D1
:10228000005553415254322072782046756C6C21AF
:1022900021210A0053657474696E67732053746F4B
:1022A0007265640053746F72656420736574746939
:1022B0006E67732072657472696576656400486143
:1022C0007264636F6465642044656661756C742034
:1022D00053657474696E6773204C6F616465640044
:1022E000563200000000C8420000C8420000C84347
:1022F00000008C4300004843000048430000404178
:102300000000F042E8030000E8030000C8000000FD
:102310008813000000409C4400409C4400000000E2
:1023200000000000204E000000002041000020417D
:10233000CDCCCC3E0000204000000000000000009A
:1023400000000000CDCCCC3E3D0A8141FF08433E59
:10235000B099AB438F42FC42E65A343F4C62B045E1
:102360000000000000404000003442000000000077
:1023700000000000000041000000E03F0000C842F3
:102380000000C842000040410000F042C0030000CD
:10239000C0030000C800000088130000436F6E7483
:1023A000696E7565207769746820616E6F74686501
:1023B0007220626F7764656E3F0025002020202028
:1023C0002020002020202020200045524153494E4B
:1023D0004720616C6C206461746100466163746FB6
:1023E000727920524553455400746D633231333055
:1023F0005F686F6D655F656E74657228617865737F
:102400005F6D61736B3D307825303278290A007436
:102410006D63323133305F686F6D655F6578697405
:1024200020746D63323133305F73675F686F6D693D
:102430006E675F617865735F6D61736B3D307825A2
:102440003032780A00726573756C742076616C7531
:10245000653A2025640A0020693D25326420636EB8
:10246000743D2532642076616C3D2532640A006338
:102470006C7573746572733A0A0020693D25326485
:1024800020737465703D2532640A00736F72746541
:10249000642073616D706C65733A0A003A20002005
:1024A000202020202020202020202020202020202C
:1024B000202000203A200020202020202020202042
:1024C000202020202020202020202000202020202C
:1024D00020202020202020202000257300544D4360
:1024E00020445249564552204F56455254454D506E
:1024F0000025632533642F25642563005A25362E75
:10250000326620005A2020202D2D2D200025632505
:1025100033642525002D2D2D0025336868640025A2
:1025200033532533732525005553420020202000C6
:10253000205344002025753E257500203F3E25751B
:1025400000204625750020463F0020463020200010
:1025500025632D2D3A2D2D20200025632533756808
:102560002025632563002563253032753A253032F6
:1025700075256325630050494E44412048656174C8
:10258000696E670054656D702E2063616C2E20208B
:1025900020202020202020200043616C696272618D
:1025A00074696F6E20646F6E650043616C6962725E
:1025B0006174696E67205A0042656420646F6E65BD
:1025C000004265642048656174696E670048656112
:1025D00074696E6720646F6E652E0048656174696A
:1025E0006E670022206661696C65643A20427566F8
:1025F0006665722066756C6C210022002569206872
:102600006F757273202569206D696E75746573002E
:1026100054494D454F55543A004D313130004675BF
:102620006C6C2052582042756666657200656E714A
:102630007565696E67202200446F6E65207072694F
:102640006E74696E672066696C65005072696E749D
:1026500065722073746F7070656420647565207492
:102660006F206572726F72732E20466978207468CD
:1026700065206572726F7220616E642075736520CB
:102680004D39393920746F20726573746172742EFC
:10269000202854656D706572617475726520697368
:1026A0002072657365742E205365742069742061EF
:1026B000667465722072657374617274696E6729DD
:1026C000004E6F204C696E65204E756D62657220FC
:1026D0007769746820636865636B73756D2C204C33
:1026E000617374204C696E653A20004E6F20436818
:1026F00065636B73756D2077697468206C696E65AE
:10270000206E756D6265722C204C617374204C696B
:102710006E653A2000636865636B73756D206D6943
:10272000736D617463682C204C617374204C696E06
:10273000653A20004C696E65204E756D62657220A9
:102740006973206E6F74204C617374204C696E65E0
:10275000204E756D6265722B312C204C6173742094
:102760004C696E653A200053544F505045442E201A
:10277000004578747275646572004D6F7665205AF5
:10278000004D6F76652059004D6F76652058001B0F
:102790005B324A437261736820646574656374696F
:1027A0006F6E2063616E1B5B313B30486265207445
:1027B00075726E6564206F6E206F6E6C7920696E25
:1027C0001B5B323B30484E6F726D616C206D6F64E5
:1027D00065001B5B324A5741524E494E473A1B5BDC
:1027E000313B30484372617368206465746563747B
:1027F000696F6E1B5B323B304864697361626C6564
:102800006420696E1B5B333B3048537465616C74A4
:1028100068206D6F6465004175746F6C6F616469E9
:102820006E672066696C616D656E742061766169A2
:102830006C61626C65206F6E6C79207768656E20C4
:1028400066696C616D656E742073656E736F72205E
:102850006973207475726E6564206F6E2E2E2E0063
:102860004552524F523A2046696C616D656E742034
:1028700073656E736F72206973206E6F742072655A
:1028800073706F6E64696E672C20706C6561736520
:1028900020636865636B20636F6E6E656374696F38
:1028A0006E2E004D6F6465206368616E67652069F8
:1028B0006E2070726F6772657373202E2E2E004328
:1028C000616C69627261746500506C65617365204A
:1028D0006C6F616420504C412066696C616D656E5F
:1028E000742066697273742E00497320504C412025
:1028F00066696C616D656E74206C6F616465643FC0
:102900000043616E63656C0046696C616D656E7451
:102910000053656C65637420504C412066696C619E
:102920006D656E743A0052756E6E696E67205769F8
:102930007A6172642077696C6C2064656C6574657B
:102940002063757272656E742063616C6962726176
:1029500074696F6E20726573756C747320616E6438
:102960002073746172742066726F6D2074686520C4
:10297000626567696E6E696E672E20436F6E74695B
:102980006E75653F0050726568656174696E672099
:102990006E6F7A7A6C652E20506C65617365207756
:1029A0006169742E00456A65637400556E6C6F61D1
:1029B000640055736520756E6C6F616420746F20C0
:1029C00072656D6F76652066696C616D656E7420E9
:1029D000312069662069742070726F747275646545
:1029E00073206F757473696465206F662074686501
:1029F0002072656172204D4D5520747562652E20E0
:102A000055736520656A6563742069662069742062
:102A100069732068696464656E20696E20747562EC
:102A2000652E004C6F6164696E672066696C616D2C
:102A3000656E7400506C6561736520696E736572B4
:102A40007420504C412066696C616D656E74207411
:102A50006F207468652065787472756465722C20C7
:102A60007468656E207072657373206B6E6F622080
:102A7000746F206C6F61642069742E00506C656106
:102A8000736520696E7365727420504C41206669CD
:102A90006C616D656E7420746F2074686520666962
:102AA0007273742074756265206F66204D4D552CCD
:102AB000207468656E207072657373207468652079
:102AC0006B6E6F6220746F206C6F61642069742E6E
:102AD00000596F752063616E20616C776179732096
:102AE000726573756D65207468652057697A6172C7
:102AF000642066726F6D2043616C696272617469F3
:102B00006F6E202D3E2057697A6172642E00506CE2
:102B10006561736520636865636B206F75722068FB
:102B2000616E64626F6F6B20616E642066697820ED
:102B30007468652070726F626C656D2E20546865D4
:102B40006E20726573756D65207468652057697AAB
:102B5000617264206279207265626F6F74696E675A
:102B600020746865207072696E7465722E00416C05
:102B70006C20697320646F6E652E204861707079D7
:102B8000207072696E74696E672100506C656173A4
:102B90006520636C65616E206865617462656420A0
:102BA000616E64207468656E207072657373207442
:102BB0006865206B6E6F622E00446F20796F752000
:102BC00077616E7420746F20726570656174206C1B
:102BD000617374207374657020746F207265616412
:102BE0006A7573742064697374616E6365206265CD
:102BF000747765656E206E6F7A7A6C6520616E649D
:102C000020686561746265643F00492077696C6C77
:102C100020737461727420746F207072696E7420F6
:102C20006C696E6520616E6420796F752077696CC0
:102C30006C206772616475616C6C79206C6F77656C
:102C40007220746865206E6F7A7A6C6520627920D4
:102C5000726F746174696E6720746865206B6E6F43
:102C6000622C20756E74696C20796F7520726561B5
:102C70006368206F7074696D616C2068656967684E
:102C8000742E20436865636B2074686520706963E7
:102C9000747572657320696E206F75722068616E3D
:102CA00064626F6F6B20696E206368617074657217
:102CB0002043616C6962726174696F6E2E004E6FA1
:102CC0007720492077696C6C2063616C696272615E
:102CD00074652064697374616E63652062657477DE
:102CE00065656E20746970206F6620746865206E5B
:102CF0006F7A7A6C6520616E6420686561746265C4
:102D00006420737572666163652E0049732069746F
:102D100020504C412066696C616D656E743F0053B4
:102D2000656C656374206E6F7A7A6C65207072656D
:102D3000686561742074656D706572617475726523
:102D4000207768696368206D6174636865732079B2
:102D50006F7572206D6174657269616C2E004E6FC3
:102D60007720492077696C6C2070726568656174A2
:102D7000206E6F7A7A6C6520666F7220504C412EFF
:102D80000049732066696C616D656E74206C6F61BB
:102D90006465643F0049732066696C616D656E749B
:102DA0002031206C6F616465643F004E6F7720496D
:102DB0002077696C6C2070726568656174206E6F35
:102DC0007A7A6C6520666F7220504C412E00492043
:102DD00077696C6C2072756E207A2063616C696211
:102DE000726174696F6E206E6F772E004E6F772060
:102DF00072656D6F766520746865207465737420E4
:102E00007072696E742066726F6D20737465656C84
:102E10002073686565742E00506C6561736520725F
:102E2000656D6F7665207368697070696E6720687C
:102E3000656C706572732066697273742E00492028
:102E400077696C6C2072756E2078797A2063616C7A
:102E50006962726174696F6E206E6F772E2049749B
:102E60002077696C6C2074616B6520617070726F83
:102E7000782E203132206D696E732E004669727390
:102E8000742C20492077696C6C2072756E207468F0
:102E9000652073656C667465737420746F20636855
:102EA00065636B206D6F737420636F6D6D6F6E2043
:102EB000617373656D626C792070726F626C656DA1
:102EC000732E0048692C204920616D20796F75723E
:102ED000204F726967696E616C2050727573612052
:102EE0006933207072696E7465722E20576F756C2D
:102EF0006420796F75206C696B65206D6520746F37
:102F000020677569646520796F75207468726F75C4
:102F10006768207468652073657475702070726FBF
:102F2000636573733F00452D636F72726563740050
:102F30005A2D636F727265637400592D636F7272DC
:102F400065637400582D636F72726563740053700B
:102F50006F6F6C4A6F696E2020205B4E2F415D00C1
:102F600053706F6F6C4A6F696E2020205B6F6666CE
:102F70005D0053706F6F6C4A6F696E202020205B7C
:102F80006F6E5D00536F756E642020202020205BE3
:102F90006C6F75645D00536F756E64202020202077
:102FA000205B6D7574655D00536F756E6420202025
:102FB000205B73696C656E745D00536F756E642081
:102FC00020202020205B6F6E63655D00536F756E5F
:102FD000642020202020205B6C6F75645D00536F9F
:102FE0007274202020202020205B6E6F6E655D00B3
:102FF000536F72742020205B616C7068616265742D
:103000005D00536F7274202020202020205B7469A3
:103010006D655D005344206361726420205B6E6FB8
:10302000726D616C5D0053442063617264205B6665
:103030006C73684169725D0052506920706F7274E0
:1030400020202020205B6F6E5D0052506920706F41
:103050007274202020205B6F66665D0054656D7081
:103060002E2063616C2E2020205B6F6E5D00546506
:103070006D702E2063616C2E20205B6F66665D0094
:103080004C696E2E20636F7272656374696F6E0097
:103090004D65736820626564206C6576656C696E49
:1030A00067004D4D55204D6F64655B537465616CD1
:1030B00074685D004D4D55204D6F6465205B4E6F0B
:1030C000726D616C5D0046616E7320636865636B51
:1030D00020205B6F66665D0046616E7320636865E5
:1030E000636B2020205B6F6E5D00462E206175743F
:1030F0006F6C6F6164205B6F66665D00462E2061B9
:1031000075746F6C6F616420205B6F6E5D00462E7E
:10311000206175746F6C6F6164205B4E2F415D00A0
:1031200044697361626C6520737465707065727355
:10313000004D6F766520617869730054656D706528
:1031400072617475726500473830004D3435004D3A
:103150003435205A004737360057697A6172642047
:1031600073746174653A2025640044697361626C0C
:1031700065206661726D206D6F6465004661726DD9
:10318000206E756D626572004D38340057697A6142
:10319000726420656E642073746174653A202564DE
:1031A0000A0024F4D43050C38E20C2A24017828B70
:1031B0007011127A910D816CD90AA861E108C75883
:1031C0006607615143061E4B5D05C145A7041A41C0
:1031D0001104093D9803713931034036DB02653330
:1031E0009102D4305402802E1D02632CEE01752A08
:1031F000C501B028A001102781018F2564012B246F
:103200004B01E0223401AC211F018D200D01801FF4
:10321000FC00841EED00971DDF00B81CD200E61BE9
:10322000C600201BBC00641AB200B219A8000A191B
:10323000A0006A189900D117910040178B00B516AD
:10324000840031167E00B31579003A157300C71457
:103250006F0058146A00EE1366008813630025138C
:103260005E00C7125B006C12570015125400C111AA
:10327000510070114F0021114B00D61049008D10E4
:1032800047004610440002104200C00F4000800F6B
:103290003E00420F3C00060F3B00CB0E3800930E61
:1032A00037005C0E3500270E3400F30D3200C10DDF
:1032B0003100900D3000600D2E00320D2D00050DF7
:1032C0002C00D90C2B00AE0C2900850C29005C0CBD
:1032D0002700350C27000E0C2600E80B2400C40B39
:1032E0002400A00B23007D0B23005A0B2100390B77
:1032F0002100180B2000F80A1F00D90A1E00BB0A83
:103300001E009D0A1D00800A1D00630A1C00470A5A
:103310001B002C0A1B00110A1A00F7091A00DD090C
:103320001900C4091900AB091900920917007B099B
:103330001800630917004C09160036091600200909
:1033400016000A091500F5081500E0081400CC085D
:103350001400B8081400A4081400900813007D0895
:1033600012006B08130058081200460812003408B7
:103370001100230811001208110001081100F007C4
:103380001000E0071000D0071000C0071000B007C1
:103390000F00A107100091070E0083070F007407AC
:1033A0000F0065070E0057070E0049070E003B0788
:1033B0000D002E070E0020070D0013070D00060755
:1033C0000D00F9060C00ED060D00E0060C00D40619
:1033D0000C00C8060C00BC060C00B0060C00A406CD
:1033E0000B0099060C008D060B0082060B00770679
:1033F0000B006C060B0061060A0057060B004C061A
:103400000A0042060A0038060A002E060A002406B0
:103410000A001A060A001006090007060A00FD0540
:103420000900F4050900EB050900E2050900D905CA
:103430000900D0050900C7050900BE050900B5054A
:103440000800AD050800A50509009C0508009405C5
:1034500008008C050800840508007C050800740538
:1034600008006C050700650508005D0507005605A6
:1034700008004E050700470507004005080038050D
:103480000700310507002A050700230507001C0572
:103490000600160507000F050700080506000205CF
:1034A0000700FB040600F5040700EE040600E8042C
:1034B0000600E2040700DB040600D5040600CF0482
:1034C0000600C9040600C3040600BD040600B704D4
:1034D0000600B1040500AC040600A6040600A00422
:1034E00005009B04060095040500900406008A046C
:1034F000050085040500800406007A0405007504B3
:103500000500700405006B040500660405006104F5
:1035100005005C04050057040500520405004D0435
:10352000050048040500430405003E0404003A0475
:10353000050035040500300404002C0405002704B0
:103540000400230405001E0404001A0404001604E9
:103550000500110404000D0404000904050004041E
:10356000040000040400FC030400F8030400F40356
:103570000400F0030400EC030400E8030400E40387
:103580000400E0030400DC030400D8030400D403B7
:103590000400D0030400CC030400C8030300C503E7
:1035A000030024F404D9201BC40C5C0E9804C40945
:1035B0005F0265077101F405F900FB04B3004804DC
:1035C0008700C10369005803550003034500BE028C
:1035D0003A008402310053022A0029022500040225
:1035E0002000E4011C00C8011900AF011700980178
:1035F00014008401130071011000610110005101D9
:103600000E0043010D0036010B002B010B002001C1
:103610000B00150109000C01090003010800FB0063
:103620000800F3000800EB000700E4000600DE00DD
:103630000600D8000600D2000600CC000500C70036
:103640000500C2000500BD000400B9000400B5007B
:103650000400B1000400AD000400A9000400A500AE
:103660000300A20003009F0004009B0003009800D9
:1036700003009500020093000300900003008D00FA
:1036800002008B0003008800020086000200840014
:103690000300810002007F0002007D0002007B0029
:1036A0000200790002007700010076000200740039
:1036B000020072000100710002006F0002006D0044
:1036C00001006C0002006A0001006900020067004E
:1036D0000100660001006500010064000200620054
:1036E000010061000100600001005F0002005D0058
:1036F00001005C0001005B0001005A00010059005C
:10370000010058000100570001005600010055005B
:10371000010054000100530000005300010052005A
:10372000010051000100500001004F0001004E0057
:1037300000004E0001004D0001004C0001004B0054
:1037400000004B0001004A00010049000100480050
:10375000000048000100470001004600000046004C
:103760000100450000004500010044000100430045
:10377000000043000100420000004200010041003F
:10378000000041000100400001003F0000003F0038
:1037900001003E0000003E0001003D0000003D0031
:1037A00001003C0000003C0000003C0001003B0028
:1037B00000003B0001003A0000003A00010039001F
:1037C0000000390001003800000038000000380017
:1037D000010037000000370001003600000036000D
:1037E0000000360001003500000035000000350003
:1037F00001003400000034000000340001003300F8
:1038000000003300000033000100320000003200ED
:1038100000003200010031000000310000003100E2
:1038200001003000000030000000300001002F00D7
:1038300000002F0000002F0000002F0001002E00CC
:1038400000002E0000002E0001002D0000002D00C1
:1038500000002D0000002D0001002C0000002C00B5
:1038600000002C0000002C0001002B0000002B00A9
:1038700000002B0000002B0001002A0000002A009D
:1038800000002A0000002A00010029000000290091
:103890000000290000002900000029000100280084
:1038A0000000280000002800000028000000280078
:1038B000010027000000270000002700000027006B
:1038C000000027000100260000002600000026005E
:1038D0000000260000002600010025000000250051
:1038E0000000250000002500000025000000250044
:1038F0000100240000002400000024000000240037
:103900000000240001002300000023000000230029
:10391000000023000000230000002300000023001B
:10392000010022000000220000002200000022000E
:103930000000220000002200010021000000210000
:1039400000002100000021000000210000002100F3
:1039500000002100010020000000200000002000E5
:1039600000002000000020000000200000002000D7
:103970000000200001001F0000001F0000001F00C9
:1039800000001F0000001F0000001F0000001F00BB
:1039900001001E0000001E0000001E0000001E00AE
:1039A000000043757272656E74005573656420641F
:1039B0007572696E67207072696E74005049442098
:1039C00063616C2E2066696E697368656400504996
:1039D000442063616C2E20202020202020202020E5
:1039E0002000506C656173652077616974004D310A
:1039F0003137204669727374206C61796572206377
:103A0000616C2E005072696E74207061757365640C
:103A100000496E76616C6964205049442063616C92
:103A20002E20726573756C74732E204E6F74207324
:103A3000746F72656420746F20454550524F4D2E4F
:103A4000004D353030004731205A31352046313570
:103A50003030004739310047312058353020593156
:103A6000393020453020463730303000473930007B
:103A70004D373032004D3730322043004D37303231
:103A80002055004D373032004D373032204300474B
:103A900031205A3135204631353030004739310038
:103AA00047312058353020593139302045302046B3
:103AB00037303030004D383300473930004D38341E
:103AC000004D313034205330004D3834004D373004
:103AD00032204300473120583130205931383020CE
:103AE0004634303030004731205A313020463133AF
:103AF00030302E303030004D313430205330004DD6
:103B000031303420533000473120452D302E3037AE
:103B10003530302046323130302E303030303000C9
:103B20004D31303700473120583530205935352058
:103B300045332E3632373733004731205832303054
:103B4000205935352045302E343933383600473149
:103B50002058323030205937352045332E36323711
:103B6000373300473120583530205937352045301C
:103B70002E34393338360047312058353020593902
:103B8000352045332E36323737330047312058320F
:103B90003030205939352045302E3439333836000D
:103BA0004731205832303020593131352045332EBD
:103BB00036323737330047312058353020593131CC
:103BC000352045302E3439333836004731205835CA
:103BD0003020593133352045332E363237373300D4
:103BE0004731205832303020593133352045302E7E
:103BF0003636313734004731205832303020593191
:103C000035352045322E363237373300473120588C
:103C10003130302059313535204532004731205878
:103C2000373520593135352045322E350047312082
:103C30004631303830004731205A302E313530206F
:103C400046373230302E3030300047312058353052
:103C50002059313535004731204634303030004D61
:103C6000323034205331303030004731205A352043
:103C700046373230302E30303000473120452D313C
:103C80002E35303030302046323130302E3030302A
:103C90003030004D3833004739300047323100476B
:103CA00039322045302E3000473120583130302E07
:103CB00030204531322E352046313030302E300024
:103CC0004731205836302E302045392E30204631AD
:103CD0003030302E300047312058352E30204534DA
:103CE0002E302046313030302E30004731205A30CF
:103CF0002E32302046313030302E300047312058BF
:103D000035352E30204532352046313430302E3096
:103D100000473120592D322E302046313030302EA0
:103D20003000473120583234302E30204532352E85
:103D300030202046323230302E3000473932204594
:103D4000302E30004731205A302E3320463130306B
:103D5000302E30004731205835352E302045382E52
:103D6000302046323030302E300047312058352E4A
:103D700030204533322E302046313830302E30005E
:103D80004731205835352E30204533322E302046ED
:103D9000313037332E30004731205A302E34204610
:103DA000313030302E3000473120592D332E302025
:103DB00046313030302E30004D3833004739322014
:103DC00045302E3000473238004D313039205332E3
:103DD0003135004D31393020533630004D313430DB
:103DE00020533630004D3130342053323135004DC0
:103DF0003130370046696C616D656E742073656E95
:103E0000736F7200537761707065640046726F6EF5
:103E1000742F6C6566742066616E730041786973F7
:103E20000041786973206C656E677468004C6F6F31
:103E300073652070756C6C657900456E6473746F82
:103E400070206E6F742068697400456E6473746FBF
:103E500070004D6F746F7200456E6473746F707391
:103E600000576972696E67206572726F72004265F1
:103E700064202F20486561746572004E6F74206362
:103E80006F6E6E6563746564004865617465722F5A
:103E9000546865726D6973746F7200506C656173FC
:103EA0006520636865636B203A0053656C667465D2
:103EB0007374206572726F7220210046696C616DA7
:103EC000656E742073656E736F723A005072696E1E
:103ED000742066616E3A004578747275646572206C
:103EE00066616E3A0043616C6962726174696E6703
:103EF00020686F6D650053656C6674657374206629
:103F000061696C6564202000416C6C20636F727283
:103F100065637420202020202000436865636B695E
:103F20006E672073656E736F7273200043686563FC
:103F30006B696E6720686F74656E6420200043684B
:103F400065636B696E672062656420202020200015
:103F5000436865636B696E67205A206178697320D6
:103F60002000436865636B696E672059206178693A
:103F700073202000436865636B696E672058206179
:103F8000786973202000436865636B696E672065FC
:103F90006E6473746F7073004572726F72202D209F
:103FA000737461746963206D656D6F7279206861E7
:103FB00073206265656E206F7665727772697474BE
:103FC000656E00436172642072656D6F7665640092
:103FD0002D2D2D2D2D2D2D2D2D2D2D2D2D2D2D2D11
:103FE0002D2D2D2D000000000000110A0450525507
:103FF000534133444657002079303D25640A002060
:1040000078303D25640A004F4B0A004552524F520A
:104010002061643D25640A002020207A303D25641B
:104020000A00207A303D25640A002079303D25645D
:104030000A002078303D25640A0078797A63616C43
:104040005F66696E645F706F696E745F63656E74DE
:104050006572320A0000002100240027002A002D8A
:10406000003000330001010000040107010A0100D3
:10407000002200250028002B002E00310034000211
:10408000010000050108010B0100002000230026AB
:104090000029002C002F003200000100000301065F
:1040A00001090105050505070508080808020202BF
:1040B000020A0A08080404040401010101010101C3
:1040C000010303030303030303040707070C0C0C9A
:1040D0000C0C0C0C0C020202020606060606060672
:1040E000060B0B0B0B0B0B0B0B07070A0A0A0A0A32
:1040F0000A05050504040408080102102020080828
:104100001020401020408002010201080402010139
:104110000204081020408080402010080402018022
:104120000402018040201008040201080402010179
:104130000204081020408001020408102040801072
:1041400008040880102040044080102040048000B3
:10415000000A0B02090C0D0E080703040100000001
:10416000000000000000000000000000000000004F
:10417000000000000000000000000012111000000C
:10418000000000000000000000000000000000002F
:10419000000000000000000000000000000000001F
:1041A0000000000000580059005A002563252E31F8
:1041B00032533A2573252B30362E33660020003ECD
:1041C000003E0020003E003E0054656D7065726147
:1041D000747572652063616C6962726174696F6E77
:1041E000206661696C65642E20436F6E74696E751C
:1041F000652077697468207072657373696E6720D3
:10420000746865206B6E6F622E0054656D70657208
:1042100061747572652063616C6962726174696F43
:104220006E20646F6E652E20436F6E74696E7565C7
:104230002077697468207072657373696E67207483
:104240006865206B6E6F622E0041646A75737469D5
:104250006E67205A00526573657400526561722062
:1042600073696465205B756D5D0046726F6E7420C6
:10427000736964655B756D5D00526967687420736E
:104280006964655B756D5D004C6566742073696477
:1042900065205B756D5D005365742074656D706598
:1042A0007261747572653A0054656D7065726174FF
:1042B0007572652063616C6962726174696F6E20EA
:1042C0006661696C65640054656D706572617475D2
:1042D00072652063616C6962726174696F6E2069D6
:1042E000732066696E697368656420616E6420611D
:1042F00063746976652E2054656D702E2063616C41
:104300006962726174696F6E2063616E20626520FC
:1043100064697361626C656420696E206D656E7599
:104320002053657474696E67732D3E54656D702EED
:104330002063616C2E004E2F410020203000202091
:10434000310049523A0046494E44413A0050494EE4
:1043500044413A0053656E736F72207374617465E3
:104360000053442063617264206F6B006F70656E50
:10437000526F6F74206661696C656400766F6C754E
:104380006D652E696E6974206661696C65640053A1
:104390004420696E6974206661696C0057726974A3
:1043A000696E6720746F2066696C653A2000466903
:1043B0006C652073656C6563746564002053697A6D
:1043C000653A200046696C65206F70656E65643AD9
:1043D00020006F70656E206661696C65642C2046F4
:1043E000696C653A20001F1F1F1F1F1F1F1F2E0013
:1043F0002E004E6F772066726573682066696C6563
:104400003A20004E6F7720646F696E672066696C92
:10441000653A20002220706F73002220706172655F
:104420006E743A2200535542524F5554494E45201E
:1044300043414C4C207461726765743A2200747277
:1044400079696E6720746F2063616C6C207375628C
:104450002D67636F64652066696C65732077697486
:104460006820746F6F206D616E79206C6576656C65
:10447000732E204D4158206C6576656C2069733A27
:10448000002E00536F7274696E672066696C6573E5
:1044900000536F6D652066696C65732077696C6C7D
:1044A000206E6F7420626520736F727465642E20B5
:1044B0004D61782E204E6F2E206F662066696C65E8
:1044C0007320696E203120666F6C64657220666FA0
:1044D0007220736F7274696E672069732031303097
:1044E0002E004D31303420496E76616C6964206550
:1044F0007874727564657220004D31303520496ED4
:1045000076616C69642065787472756465722000E8
:104510004D31303920496E76616C6964206578745C
:10452000727564657220004D32313820496E7661B3
:104530006C696420657874727564657220004D3210
:10454000323120496E76616C6964206578747275C9
:10455000646572200055564C4F202D20656E6420F6
:1045600025640A007374707325640A00776F726C97
:104570006420636F6F7264696E617465733A20289A
:10458000252E33662C20252E33662C20252E3366CF
:10459000290A00706879736963616C20636F6F72B8
:1045A00064696E617465733A2028252E33662C2069
:1045B000252E33662C20252E3366290A004375727A
:1045C00072656E7420706F73205A5F415849533A78
:1045D000252E33660A43757272656E7420706F7390
:1045E00020455F415849533A252E33660A004166FB
:1045F0007465722077616974696E6720666F7220D6
:1046000074656D703A0A43757272656E7420706FCE
:104610007320585F415849533A252E33660A437533
:104620007272656E7420706F7320595F41584953E0
:104630003A252E33660A0020573A0020453A0054A6
:104640003A005A206C6976652061646A757374203B
:104650006F7574206F662072616E67652E205365DA
:104660007474696E6720746F20302E20436C696308
:104670006B20746F20636F6E74696E75652E005ABF
:10468000206C6976652061646A757374206F757437
:10469000206F662072616E67652E205365747469A1
:1046A0006E6720746F20300020423A0020453A00A7
:1046B000543A00494E5434007265636F7665725FF8
:1046C0006D616368696E655F73746174655F61666F
:1046D0007465725F706F7765725F70616E69632C6D
:1046E00020696E697469616C20007265636F76651C
:1046F000725F6D616368696E655F73746174655F35
:1047000061667465725F706F7765725F70616E6904
:10471000632C20696E697469616C2000473932200E
:10472000450050525553412075766C6F0047342038
:104730005330004D32362053256C75004D313036E4
:104740002053004D38320047312046256400473160
:104750002045322A64656661756C745F7265747297
:10476000616374696F6E2046343830004731205AD7
:1047700000204632303030002059004731205800A8
:104780004D383300506F736974696F6E20726561C4
:10479000642066726F6D20656570726F6D3A004DB2
:1047A0003233202573002E67636F0046656564729F
:1047B0006174653A00473120452D64656661756C0A
:1047C000745F72657472616374696F6E2046343809
:1047D000300047312045352046313230004D3833E6
:1047E000004D31393020532564004D31303920538C
:1047F00025640047323820582059004731205A326A
:10480000352046383030005265636F766572696EC8
:1048100067207072696E74202020200020460047B7
:1048200031205A0020460047312045004D383300E2
:104830006F6B0A00627573793A20706175736564F5
:1048400020666F7220696E70757400627573793AB4
:104850002070617573656420666F72207573657270
:1048600000627573793A2070726F63657373696E55
:10487000670000002110422063308440A550C660CC
:10488000E770088129914AA16BB18CC1ADD1CEE10D
:10489000EFF13112100273325222B5529442F77284
:1048A000D662399318837BB35AA3BDD39CC3FFF35D
:1048B000DEE36224433420040114E664C774A44494
:1048C00085546AA54BB528850995EEE5CFF5ACC5AD
:1048D0008DD55336722611163006D776F666955664
:1048E000B4465BB77AA719973887DFF7FEE79DD7FD
:1048F000BCC7C448E5588668A778400861180228F4
:104900002338CCC9EDD98EE9AFF9488969990AA94C
:104910002BB9F55AD44AB77A966A711A500A333AC3
:10492000122AFDDBDCCBBFFB9EEB799B588B3BBB9C
:104930001AABA66C877CE44CC55C222C033C600C53
:10494000411CAEED8FFDECCDCDDD2AAD0BBD688DEC
:10495000499D977EB66ED55EF44E133E322E511EA3
:10496000700E9FFFBEEFDDDFFCCF1BBF3AAF599F3C
:10497000788F8891A981CAB1EBA10CD12DC14EF1DC
:104980006FE18010A100C230E32004502540467042
:104990006760B9839893FBA3DAB33DC31CD37FE36D
:1049A0005EF3B1029012F322D23235421452776292
:1049B0005672EAB5CBA5A89589856EF54FE52CD53D
:1049C0000DC5E234C324A0148104667447642454E2
:1049D0000544DBA7FAB79987B8975FE77EF71DC74D
:1049E0003CD7D326F2369106B01657667676154632
:1049F00034564CD96DC90EF92FE9C899E9898AB99D
:104A0000ABA94458654806782768C018E108823881
:104A1000A3287DCB5CDB3FEB1EFBF98BD89BBBABAC
:104A20009ABB754A545A376A167AF10AD01AB32AD1
:104A3000923A2EFD0FED6CDD4DCDAABD8BADE89DFC
:104A4000C98D267C076C645C454CA23C832CE01C21
:104A5000C10C1FEF3EFF5DCF7CDF9BAFBABFD98F8C
:104A6000F89F176E367E554E745E932EB23ED10E71
:104A7000F01E7C3C3E5E2B3D3F2F5B5D3B2C2A2293
:104A80005C006F6B0A0073746172740A004D4D55BF
:104A900032206669726D776172652076657273691E
:104AA0006F6E20696E76616C69642E205265717537
:104AB000697265642076657273696F6E3A206275FB
:104AC000696C64206E756D626572202564206F725A
:104AD000206869676865722E006673656E736F7211
:104AE0005F73746F705F616E645F736176655F7032
:104AF00072696E740A004D4D55203D3E20276F6B44
:104B0000270A004D4D55203D3E20276F6B270A0098
:104B10002564004D4D55203D3E20276F6B272C20EE
:104B2000726573756D65207072696E740A004D4D03
:104B30005520726574727920617474656D7074208B
:104B40006E722E2025640A004D4D55203D3E2027D3
:104B50006F6B270A00410A004D4D55203C3D202730
:104B600041270A004D363030004D36303020415557
:104B7000544F005052555341206673656E736F72E7
:104B80005F7265636F766572002568687500410A1B
:104B9000004D4D55203C3D202741270A0050300A4A
:104BA000004D25640A004D4D55203C3D20274D25E4
:104BB00064270A0057300A004D4D55203C3D202700
:104BC0005730270A0053330A004D4D55203C3D20F5
:104BD000275333270A0052300A004D4D55203C3DE3
:104BE00020275230270A004B25640A004D4D5520DE
:104BF0003C3D20274B2564270A004525640A004DCB
:104C00004D55203C3D2027452564270A0055300A94
:104C1000004D4D55203C3D20275530270A0043309C
:104C20000A004D4D55203C3D20274330270A004CBB
:104C300025640A004D4D55203C3D20274C25642716
:104C40000A005425640A004D4D55203C3D20275450
:104C50002564270A004D4D55202D20454E41424CDC
:104C6000454400256868750050300A004D310A003F
:104C70004D4D55203C3D20274D31270050300A0036
:104C80004D4D552076657273696F6E2076616C6943
:104C900064004D4D55203D3E202725646F6B270A4B
:104CA0000025750053320A004D4D55203C3D20270C
:104CB000533227004D4D55203D3E202725646F6B14
:104CC000270A002575004D4D55206E6F74207265C2
:104CD00073706F6E64696E67202D204449534142A2
:104CE0004C45440053310A004D4D55203C3D202792
:104CF000533127004D4D55203D3E2027737461727E
:104D00007427006572726F723A20756E6B6E6F77E2
:104D10006E206D6F76650A006E6F206D6F76650A86
:104D200000542D636F64650A00756E6C6F61640AD0
:104D3000006C6F61640A006D6D755F6765745F720A
:104D40006573706F6E7365202D20626567696E20D4
:104D50006D6F76653A20006D6D755F6765745F7283
:104D60006573706F6E736528292072657475726E35
:104D7000696E673A2025640A00556E6C6F6164693C
:104D80006E672066696E697368656420320A005533
:104D90006E6C6F616420320A00556E6C6F616469DD
:104DA0006E672066696E697368656420310A005514
:104DB0006E6C6F616420310A004D4D552073746133
:104DC00072747320726573706F6E64696E670A0027
:104DD0004D4D55206E6F7420726573706F6E6469EF
:104DE0006E670A00506C656173652075706461744C
:104DF00065206669726D7761726520696E20796FD2
:104E00007572204D4D55322E2057616974696E6759
:104E100020666F722072657365742E004D4D5520AB
:104E20004F4B2E20526573756D696E672E2E2E00C6
:104E30004D4D55204F4B2E20526573756D696E6731
:104E400020706F736974696F6E2E2E2E004D4D5554
:104E5000204F4B2E20526573756D696E6720746507
:104E60006D70657261747572652E2E2E00466978BC
:104E70002074686520697373756520616E642074A1
:104E800068656E20707265737320627574746F6EDE
:104E9000206F6E204D4D5520756E69742E00507236
:104EA00065737320746865206B6E6F6220746F2069
:104EB000726573756D65206E6F7A7A6C65207465A6
:104EC0006D70657261747572652E004D4D55206E62
:104ED00065656473207573657220617474656E74A2
:104EE000696F6E2E0025632533642F2564256300CA
:104EF00054656D702E2063616C6962726174696FB4
:104F00006E0052657365742058595A2063616C694C
:104F100062722E005049442063616C696272617450
:104F2000696F6E00426564206C6576656C20636F06
:104F30007272656374004D65736820426564204C2D
:104F40006576656C696E670043616C696272617455
:104F500065205A0043616C6962726174652058591A
:104F60005A0053656C6674657374202020202020DD
:104F7000202020004669727374206C61796572206C
:104F800063616C2E0057697A617264004C6F6164D2
:104F90002066696C616D656E742035004C6F6164CC
:104FA0002066696C616D656E742034004C6F6164BD
:104FB0002066696C616D656E742033004C6F6164AE
:104FC0002066696C616D656E742032004C6F61649F
:104FD0002066696C616D656E742031004C6F616490
:104FE00020616C6C004C6F61642066696C616D655A
:104FF0006E742035004C6F61642066696C616D656C
:105000006E742034004C6F61642066696C616D655C
:105010006E742033004C6F61642066696C616D654D
:105020006E742032004C6F61642066696C616D653E
:105030006E74203100456A6563742066696C616D29
:10504000656E74203500456A6563742066696C611D
:105050006D656E74203400456A6563742066696C02
:10506000616D656E74203300456A656374206669FE
:105070006C616D656E74203200456A6563742066EC
:10508000696C616D656E74203100506C656173658B
:105090002070756C6C206F75742066696C616D652D
:1050A0006E7420696D6D6564696174656C79005515
:1050B0006E6C6F6164696E672066696C616D656EA8
:1050C0007400526573756D696E67207072696E74D5
:1050D00000537570706F7274004661696C20737450
:1050E000617473204D4D55004661696C2073746185
:1050F000747300537461746973746963732020005E
:1051000043616C6962726174696F6E004175746F9E
:105110004C6F61642066696C616D656E7400456AF0
:105120006563742066696C616D656E7400556E6CA4
:105130006F61642066696C616D656E74004C6F61AF
:105140006420746F206E6F7A7A6C65004C6F6164B6
:105150002066696C616D656E74004E6F205344204B
:1051600063617264005072696E742066726F6D20A4
:10517000534400526573756D65207072696E7400DA
:105180005061757365207072696E74005072656845
:105190006561740054756E65004C697665206164C4
:1051A0006A757374205A00496E666F207363726566
:1051B000656E0046696E697368696E67206D6F760B
:1051C000656D656E747300536F756E6420202020CA
:1051D00020205B6C6F75645D00536F756E642020DA
:1051E000202020205B6D7574655D00536F756E64C3
:1051F000202020205B73696C656E745D00536F75B1
:105200006E642020202020205B6F6E63655D00535C
:105210006F756E642020202020205B6C6F75645DAC
:10522000004D4D55204D6F64655B537465616C7422
:10523000685D004D4D55204D6F6465205B4E6F726B
:105240006D616C5D004372617368206465742E202B
:10525000205B4E2F415D004372617368206465746A
:105260002E2020205B6F6E5D0043726173682064A6
:1052700065742E20205B6F66665D004D6F6465204F
:105280002020205B537465616C74685D004D6F6411
:105290006520202020205B4E6F726D616C5D0046A2
:1052A000696C2E2073656E736F7220205B6F6E5D6C
:1052B0000046696C2E2073656E736F72205B6F669B
:1052C000665D004368616E67652066696C616D6547
:1052D0006E7400466C6F77005370656564004D34E2
:1052E0003400473238205700473939004469736128
:1052F000626C65206661726D206D6F64653F00436E
:10530000686F6F736520636F6C6F723A00466172ED
:105310006D206E756D626572004D36303000100084
:10532000C90210012C014001220170011801B001D5
:105330000E01F00104015002FA00B002F000300347
:10534000E600D003DC009004D2007005C800A0067F
:10535000BE000008B400B009AA00D00BA000600E87
:10536000960060118C000015820020197800C01D85
:105370006E00A0226400B0275A00902C500000312B
:105380004600E0343C0010383200903A2800603C7F
:105390001E00A03D1400803E0A00203F0000901334
:1053A0007D00B0157800F0177300601A6E00F01CD5
:1053B0006900A01F640050225F0020255A00E027EA
:1053C0005500902A5000202D4B00A02F4600F031B0
:1053D000410010343C00F0353700A037320020394E
:1053E0002D00603A2800703B2300603C1E00203DE9
:1053F0001900C03D1400403E0F00A03E0A00F03EE0
:105400000500403F0000703FFBFF903FF6FFB03FBC
:10541000F1FFC03FECFFD03FE7FFE03FE2FFF03F8E
:10542000DDFFF03FD8FF20484F54454E44205448FC
:1054300045524D414C2052554E415741590020484C
:1054400045415442454420544845524D414C205218
:10545000554E4157415900544845524D414C2052F8
:10546000554E415741590042454420544845524DFC
:10547000414C2052554E4157415900205448455205
:105480004D414C2052554E415741592028205052F1
:10549000454845415420484F54454E442900205426
:1054A0004845524D414C2052554E415741592028B4
:1054B00020505245484541542048454154424544B6
:1054C000290050524548454154204552524F520000
:1054D0004245442050524548454154204552524F80
:1054E00052004572723A204D494E54454D50003A93
:1054F0002045787472756465722073776974636887
:105500006564206F66662E204D494E54454D5020EF
:105510007472696767657265642021004572723A2A
:10552000204D494E54454D50204245440054656D30
:105530007065726174757265206865617465642058
:10554000626564207377697463686564206F66665A
:105550002E204D494E54454D502074726967676541
:105560007265642021004D61676E65747320636FFE
:105570006D702E5B4E2F415D004D61676E657473DB
:1055800020636F6D702E5B4F66665D004D61676EC8
:1055900065747320636F6D702E205B4F6E5D005AD3
:1055A0002D70726F6265206E722E202020205B337A
:1055B0005D005A2D70726F6265206E722E20202061
:1055C000205B355D005A2D70726F6265206E722E01
:1055D000202020205B315D004D6573682020202055
:1055E00020202020205B3778375D004D65736820D0
:1055F00020202020202020205B3378335D0046616E
:105600006E20737065656400426564004E6F7A7A3F
:105610006C650053657474696E6773005072696ECF
:10562000742061626F7274656400596573004E6F17
:105630000053746F70207072696E740046696C65F7
:1056400020696E636F6D706C6574652E20436F6E9C
:1056500074696E756520616E797761793F0042618A
:10566000636B004D61696E004D3234004D32332062
:10567000257300052E2E004572723A205052494E75
:10568000542046414E204552524F52005072696E8E
:10569000742066616E207370656564206973206C88
:1056A0006F776572207468656E20657870656374C5
:1056B0006564004572723A20455854522E20464186
:1056C0004E204552524F520045787472756465728F
:1056D0002066616E207370656564206973206C6F4D
:1056E000776572207468656E20657870656374658F
:1056F00064002F2F20616374696F6E3A7061757357
:1057000065004572723A204D415854454D50003A5B
:105710002045787472756465722073776974636864
:105720006564206F66662E204D415854454D5020CB
:105730007472696767657265642021004572723A08
:10574000204D415854454D50204245440054656D0C
:105750007065726174757265206865617465642036
:10576000626564207377697463686564206F666638
:105770002E204D415854454D50207472696767651D
:1057800072656420210070012C0190012701B00195
:105790002201C0011D01F0011801100213013002A5
:1057A0000E016002090190020401C002FF00000323
:1057B000FA004003F5008003F000D003EB00200462
:1057C000E6007004E100E004DC004005D700C005FD
:1057D000D2004006CD00D006C8008007C3003008C4
:1057E000BE00F008B900C009B400B00AAF00B00BA9
:1057F000AA00D00CA500000EA000500F9B00C01006
:1058000096005012910000148C00C0158700B0174C
:105810008200B0197D00D01B7800001E730040206C
:105820006E0090226900F024640040275F009029F8
:105830005A00E02B5500102E500020304B00103243
:105840004600E033410090353C0010373700703897
:105850003200A0392D00B03A2800A03B2300603C64
:105860001E00103D1900903D1400103E0F00703EC8
:105870000A00C03E0500003F00004D3234004D32AA
:1058800033202573006175746F25692E670022200F
:105890006661696C65643A20427566666572206669
:1058A000756C6C2100456E717565696E6720746F4B
:1058B000207468652066726F6E743A20220045720B
:1058C000726F723A002200456E717565696E6720CD
:1058D000746F207468652066726F6E743A202200BF
:1058E0006563686F3A00454550524F4D20457272CE
:1058F0006F72004D373032004D373031004D373048
:1059000032004D37303100464C4558202D20203292
:1059100034302F35300050502020202D20203235BB
:10592000342F3130300048495053202D202032325E
:10593000302F3130300041425320202D202032358D
:10594000352F3130300050455420202D2020323367
:10595000302F383500504C4120202D202032313559
:105960002F3630004578747275646572006D6D0075
:105970000059005800746F20756E6C6F616420666A
:10598000696C616D656E7400746F206C6F6164206A
:1059900066696C616D656E74005072657373207416
:1059A0006865206B6E6F62003E43616E63656C00DC
:1059B00050726568656174696E6720746F206375E5
:1059C000740050726568656174696E6720746F2039
:1059D000656A6563740050726568656174696E67B5
:1059E00020746F20756E6C6F61640050726568651D
:1059F0006174696E6720746F206C6F61640050720F
:105A0000656865617420746865206E6F7A7A6C656C
:105A100021004552524F523A0046696C616D656EE5
:105A20007420657874727564696E672026207769C2
:105A3000746820636F727265637420636F6C6F7239
:105A40003F004175746F6C6F6164696E67206669B1
:105A50006C616D656E74206973206163746976652D
:105A60002C206A7573742070726573732074686576
:105A7000206B6E6F6220616E6420696E7365727454
:105A80002066696C616D656E742E2E2E00546F74E5
:105A9000616C207072696E742074696D6500546F5A
:105AA00074616C2066696C616D656E74005072691A
:105AB0006E742074696D650046696C616D656E7405
:105AC0002075736564005269676874004C6566747C
:105AD00000592064697374616E63652066726F6D2E
